{
	"RPS.sol": {
		"RPS": {
			"abi": [
				{
					"inputs": [],
					"name": "addPlayer",
					"outputs": [],
					"stateMutability": "payable",
					"type": "function"
				},
				{
					"inputs": [],
					"name": "checkTimeOut",
					"outputs": [],
					"stateMutability": "nonpayable",
					"type": "function"
				},
				{
					"inputs": [],
					"name": "commitReveal",
					"outputs": [
						{
							"internalType": "contract CommitReveal",
							"name": "",
							"type": "address"
						}
					],
					"stateMutability": "view",
					"type": "function"
				},
				{
					"inputs": [
						{
							"internalType": "bytes32",
							"name": "choiceHash",
							"type": "bytes32"
						}
					],
					"name": "input",
					"outputs": [],
					"stateMutability": "nonpayable",
					"type": "function"
				},
				{
					"inputs": [],
					"name": "numInput",
					"outputs": [
						{
							"internalType": "uint256",
							"name": "",
							"type": "uint256"
						}
					],
					"stateMutability": "view",
					"type": "function"
				},
				{
					"inputs": [],
					"name": "numPlayer",
					"outputs": [
						{
							"internalType": "uint256",
							"name": "",
							"type": "uint256"
						}
					],
					"stateMutability": "view",
					"type": "function"
				},
				{
					"inputs": [
						{
							"internalType": "address",
							"name": "",
							"type": "address"
						}
					],
					"name": "player_not_played",
					"outputs": [
						{
							"internalType": "bool",
							"name": "",
							"type": "bool"
						}
					],
					"stateMutability": "view",
					"type": "function"
				},
				{
					"inputs": [
						{
							"internalType": "uint256",
							"name": "",
							"type": "uint256"
						}
					],
					"name": "players",
					"outputs": [
						{
							"internalType": "address",
							"name": "",
							"type": "address"
						}
					],
					"stateMutability": "view",
					"type": "function"
				},
				{
					"inputs": [
						{
							"internalType": "uint256",
							"name": "randomNumber",
							"type": "uint256"
						},
						{
							"internalType": "bytes1",
							"name": "choice",
							"type": "bytes1"
						}
					],
					"name": "reveal",
					"outputs": [],
					"stateMutability": "nonpayable",
					"type": "function"
				},
				{
					"inputs": [],
					"name": "reward",
					"outputs": [
						{
							"internalType": "uint256",
							"name": "",
							"type": "uint256"
						}
					],
					"stateMutability": "view",
					"type": "function"
				}
			],
			"devdoc": {
				"kind": "dev",
				"methods": {},
				"version": 1
			},
			"evm": {
				"assembly": "    /* \"RPS.sol\":132:4564  contract RPS {... */\n  mstore(0x40, 0x80)\n    /* \"RPS.sol\":176:177  0 */\n  0x00\n    /* \"RPS.sol\":152:177  uint public numPlayer = 0 */\n  dup1\n  sstore\n    /* \"RPS.sol\":205:206  0 */\n  0x00\n    /* \"RPS.sol\":184:206  uint public reward = 0 */\n  0x01\n  sstore\n    /* \"RPS.sol\":439:440  0 */\n  0x00\n    /* \"RPS.sol\":416:440  uint public numInput = 0 */\n  0x06\n  sstore\n    /* \"RPS.sol\":477:491  new TimeUnit() */\n  mload(0x40)\n  tag_1\n  swap1\n  tag_2\n  jump\t// in\ntag_1:\n  mload(0x40)\n  dup1\n  swap2\n  sub\n  swap1\n  0x00\n  create\n  dup1\n  iszero\n  dup1\n  iszero\n  tag_3\n  jumpi\n  returndatasize\n  0x00\n  dup1\n  returndatacopy\n  revert(0x00, returndatasize)\ntag_3:\n  pop\n    /* \"RPS.sol\":449:491  TimeUnit private timeUnit = new TimeUnit() */\n  0x07\n  exp(0x0100, 0x00)\n  dup2\n  sload\n  dup2\n  0xffffffffffffffffffffffffffffffffffffffff\n  mul\n  not\n  and\n  swap1\n  dup4\n  0xffffffffffffffffffffffffffffffffffffffff\n  and\n  mul\n  or\n  swap1\n  sstore\n  pop\n    /* \"RPS.sol\":521:522  1 */\n  0x01\n    /* \"RPS.sol\":498:522  uint private timeOut = 1 */\n  0x08\n  sstore\n    /* \"RPS.sol\":564:582  new CommitReveal() */\n  mload(0x40)\n  tag_4\n  swap1\n  tag_5\n  jump\t// in\ntag_4:\n  mload(0x40)\n  dup1\n  swap2\n  sub\n  swap1\n  0x00\n  create\n  dup1\n  iszero\n  dup1\n  iszero\n  tag_6\n  jumpi\n  returndatasize\n  0x00\n  dup1\n  returndatacopy\n  revert(0x00, returndatasize)\ntag_6:\n  pop\n    /* \"RPS.sol\":529:582  CommitReveal public commitReveal = new CommitReveal() */\n  0x09\n  exp(0x0100, 0x00)\n  dup2\n  sload\n  dup2\n  0xffffffffffffffffffffffffffffffffffffffff\n  mul\n  not\n  and\n  swap1\n  dup4\n  0xffffffffffffffffffffffffffffffffffffffff\n  and\n  mul\n  or\n  swap1\n  sstore\n  pop\n    /* \"RPS.sol\":591:844  address[4] private playerAccept = [... */\n  mload(0x40)\n  dup1\n  0x80\n  add\n  0x40\n  mstore\n  dup1\n    /* \"RPS.sol\":636:678  0x5B38Da6a701c568545dCfcB03FcB875f56beddC4 */\n  0x5b38da6a701c568545dcfcb03fcb875f56beddc4\n    /* \"RPS.sol\":591:844  address[4] private playerAccept = [... */\n  0xffffffffffffffffffffffffffffffffffffffff\n  and\n  0xffffffffffffffffffffffffffffffffffffffff\n  and\n  dup2\n  mstore\n  0x20\n  add\n    /* \"RPS.sol\":689:731  0xAb8483F64d9C6d1EcF9b849Ae677dD3315835cb2 */\n  0xab8483f64d9c6d1ecf9b849ae677dd3315835cb2\n    /* \"RPS.sol\":591:844  address[4] private playerAccept = [... */\n  0xffffffffffffffffffffffffffffffffffffffff\n  and\n  0xffffffffffffffffffffffffffffffffffffffff\n  and\n  dup2\n  mstore\n  0x20\n  add\n    /* \"RPS.sol\":742:784  0x4B20993Bc481177ec7E8f571ceCaE8A9e22C02db */\n  0x4b20993bc481177ec7e8f571cecae8a9e22c02db\n    /* \"RPS.sol\":591:844  address[4] private playerAccept = [... */\n  0xffffffffffffffffffffffffffffffffffffffff\n  and\n  0xffffffffffffffffffffffffffffffffffffffff\n  and\n  dup2\n  mstore\n  0x20\n  add\n    /* \"RPS.sol\":795:837  0x78731D3Ca6b7E34aC0F824c42a7cC18A495cabaB */\n  0x78731d3ca6b7e34ac0f824c42a7cc18a495cabab\n    /* \"RPS.sol\":591:844  address[4] private playerAccept = [... */\n  0xffffffffffffffffffffffffffffffffffffffff\n  and\n  0xffffffffffffffffffffffffffffffffffffffff\n  and\n  dup2\n  mstore\n  pop\n  0x0a\n  swap1\n  0x04\n  tag_7\n  swap3\n  swap2\n  swap1\n  tag_8\n  jump\t// in\ntag_7:\n  pop\n    /* \"RPS.sol\":132:4564  contract RPS {... */\n  callvalue\n  dup1\n  iszero\n  tag_9\n  jumpi\n  0x00\n  dup1\n  revert\ntag_9:\n  pop\n  jump(tag_10)\ntag_2:\n  dataSize(sub_1)\n  dup1\n  dataOffset(sub_1)\n  dup4\n  codecopy\n  add\n  swap1\n  jump\t// out\ntag_5:\n  dataSize(sub_2)\n  dup1\n  dataOffset(sub_2)\n  dup4\n  codecopy\n  add\n  swap1\n  jump\t// out\ntag_8:\n  dup3\n  0x04\n  dup2\n  add\n  swap3\n  dup3\n  iszero\n  tag_11\n  jumpi\n  swap2\n  0x20\n  mul\n  dup3\n  add\ntag_12:\n  dup3\n  dup2\n  gt\n  iszero\n  tag_13\n  jumpi\n  dup3\n  mload\n  dup3\n  exp(0x0100, 0x00)\n  dup2\n  sload\n  dup2\n  0xffffffffffffffffffffffffffffffffffffffff\n  mul\n  not\n  and\n  swap1\n  dup4\n  0xffffffffffffffffffffffffffffffffffffffff\n  and\n  mul\n  or\n  swap1\n  sstore\n  pop\n  swap2\n  0x20\n  add\n  swap2\n  swap1\n  0x01\n  add\n  swap1\n  jump(tag_12)\ntag_13:\ntag_11:\n  pop\n  swap1\n  pop\n  tag_14\n  swap2\n  swap1\n  tag_15\n  jump\t// in\ntag_14:\n  pop\n  swap1\n  jump\t// out\ntag_15:\ntag_16:\n  dup1\n  dup3\n  gt\n  iszero\n  tag_17\n  jumpi\n  0x00\n  dup2\n  0x00\n  swap1\n  sstore\n  pop\n  0x01\n  add\n  jump(tag_16)\ntag_17:\n  pop\n  swap1\n  jump\t// out\ntag_10:\n  dataSize(sub_0)\n  dup1\n  dataOffset(sub_0)\n  0x00\n  codecopy\n  0x00\n  return\nstop\n\nsub_0: assembly {\n        /* \"RPS.sol\":132:4564  contract RPS {... */\n      mstore(0x40, 0x80)\n      jumpi(tag_1, lt(calldatasize, 0x04))\n      shr(0xe0, calldataload(0x00))\n      dup1\n      0x90d5d0c3\n      gt\n      tag_12\n      jumpi\n      dup1\n      0x90d5d0c3\n      eq\n      tag_7\n      jumpi\n      dup1\n      0x9d7b3f2d\n      eq\n      tag_8\n      jumpi\n      dup1\n      0xb7786503\n      eq\n      tag_9\n      jumpi\n      dup1\n      0xd891f969\n      eq\n      tag_10\n      jumpi\n      dup1\n      0xf71d96cb\n      eq\n      tag_11\n      jumpi\n      jump(tag_1)\n    tag_12:\n      dup1\n      0x086f7815\n      eq\n      tag_2\n      jumpi\n      dup1\n      0x1842fc89\n      eq\n      tag_3\n      jumpi\n      dup1\n      0x190cf745\n      eq\n      tag_4\n      jumpi\n      dup1\n      0x228cb733\n      eq\n      tag_5\n      jumpi\n      dup1\n      0x27b5db8a\n      eq\n      tag_6\n      jumpi\n    tag_1:\n      0x00\n      dup1\n      revert\n        /* \"RPS.sol\":416:440  uint public numInput = 0 */\n    tag_2:\n      callvalue\n      dup1\n      iszero\n      tag_13\n      jumpi\n      0x00\n      dup1\n      revert\n    tag_13:\n      pop\n      tag_14\n      tag_15\n      jump\t// in\n    tag_14:\n      mload(0x40)\n      tag_16\n      swap2\n      swap1\n      tag_17\n      jump\t// in\n    tag_16:\n      mload(0x40)\n      dup1\n      swap2\n      sub\n      swap1\n      return\n        /* \"RPS.sol\":1794:2922  function reveal(uint randomNumber, bytes1 choice) public {... */\n    tag_3:\n      callvalue\n      dup1\n      iszero\n      tag_18\n      jumpi\n      0x00\n      dup1\n      revert\n    tag_18:\n      pop\n      tag_19\n      0x04\n      dup1\n      calldatasize\n      sub\n      dup2\n      add\n      swap1\n      tag_20\n      swap2\n      swap1\n      tag_21\n      jump\t// in\n    tag_20:\n      tag_22\n      jump\t// in\n    tag_19:\n      stop\n        /* \"RPS.sol\":329:378  mapping(address => bool) public player_not_played */\n    tag_4:\n      callvalue\n      dup1\n      iszero\n      tag_23\n      jumpi\n      0x00\n      dup1\n      revert\n    tag_23:\n      pop\n      tag_24\n      0x04\n      dup1\n      calldatasize\n      sub\n      dup2\n      add\n      swap1\n      tag_25\n      swap2\n      swap1\n      tag_26\n      jump\t// in\n    tag_25:\n      tag_27\n      jump\t// in\n    tag_24:\n      mload(0x40)\n      tag_28\n      swap2\n      swap1\n      tag_29\n      jump\t// in\n    tag_28:\n      mload(0x40)\n      dup1\n      swap2\n      sub\n      swap1\n      return\n        /* \"RPS.sol\":184:206  uint public reward = 0 */\n    tag_5:\n      callvalue\n      dup1\n      iszero\n      tag_30\n      jumpi\n      0x00\n      dup1\n      revert\n    tag_30:\n      pop\n      tag_31\n      tag_32\n      jump\t// in\n    tag_31:\n      mload(0x40)\n      tag_33\n      swap2\n      swap1\n      tag_17\n      jump\t// in\n    tag_33:\n      mload(0x40)\n      dup1\n      swap2\n      sub\n      swap1\n      return\n        /* \"RPS.sol\":1089:1454  function addPlayer() public payable {... */\n    tag_6:\n      tag_34\n      tag_35\n      jump\t// in\n    tag_34:\n      stop\n        /* \"RPS.sol\":152:177  uint public numPlayer = 0 */\n    tag_7:\n      callvalue\n      dup1\n      iszero\n      tag_36\n      jumpi\n      0x00\n      dup1\n      revert\n    tag_36:\n      pop\n      tag_37\n      tag_38\n      jump\t// in\n    tag_37:\n      mload(0x40)\n      tag_39\n      swap2\n      swap1\n      tag_17\n      jump\t// in\n    tag_39:\n      mload(0x40)\n      dup1\n      swap2\n      sub\n      swap1\n      return\n        /* \"RPS.sol\":529:582  CommitReveal public commitReveal = new CommitReveal() */\n    tag_8:\n      callvalue\n      dup1\n      iszero\n      tag_40\n      jumpi\n      0x00\n      dup1\n      revert\n    tag_40:\n      pop\n      tag_41\n      tag_42\n      jump\t// in\n    tag_41:\n      mload(0x40)\n      tag_43\n      swap2\n      swap1\n      tag_44\n      jump\t// in\n    tag_43:\n      mload(0x40)\n      dup1\n      swap2\n      sub\n      swap1\n      return\n        /* \"RPS.sol\":3688:4561  function checkTimeOut() public {... */\n    tag_9:\n      callvalue\n      dup1\n      iszero\n      tag_45\n      jumpi\n      0x00\n      dup1\n      revert\n    tag_45:\n      pop\n      tag_46\n      tag_47\n      jump\t// in\n    tag_46:\n      stop\n        /* \"RPS.sol\":1462:1784  function input(bytes32 choiceHash) public {... */\n    tag_10:\n      callvalue\n      dup1\n      iszero\n      tag_48\n      jumpi\n      0x00\n      dup1\n      revert\n    tag_48:\n      pop\n      tag_49\n      0x04\n      dup1\n      calldatasize\n      sub\n      dup2\n      add\n      swap1\n      tag_50\n      swap2\n      swap1\n      tag_51\n      jump\t// in\n    tag_50:\n      tag_52\n      jump\t// in\n    tag_49:\n      stop\n        /* \"RPS.sol\":385:409  address[] public players */\n    tag_11:\n      callvalue\n      dup1\n      iszero\n      tag_53\n      jumpi\n      0x00\n      dup1\n      revert\n    tag_53:\n      pop\n      tag_54\n      0x04\n      dup1\n      calldatasize\n      sub\n      dup2\n      add\n      swap1\n      tag_55\n      swap2\n      swap1\n      tag_56\n      jump\t// in\n    tag_55:\n      tag_57\n      jump\t// in\n    tag_54:\n      mload(0x40)\n      tag_58\n      swap2\n      swap1\n      tag_59\n      jump\t// in\n    tag_58:\n      mload(0x40)\n      dup1\n      swap2\n      sub\n      swap1\n      return\n        /* \"RPS.sol\":416:440  uint public numInput = 0 */\n    tag_15:\n      sload(0x06)\n      dup2\n      jump\t// out\n        /* \"RPS.sol\":1794:2922  function reveal(uint randomNumber, bytes1 choice) public {... */\n    tag_22:\n        /* \"RPS.sol\":1883:1884  2 */\n      0x02\n        /* \"RPS.sol\":1870:1879  numPlayer */\n      sload(0x00)\n        /* \"RPS.sol\":1870:1884  numPlayer == 2 */\n      eq\n        /* \"RPS.sol\":1862:1885  require(numPlayer == 2) */\n      tag_61\n      jumpi\n      0x00\n      dup1\n      revert\n    tag_61:\n        /* \"RPS.sol\":1916:1917  2 */\n      0x02\n        /* \"RPS.sol\":1904:1912  numInput */\n      sload(0x06)\n        /* \"RPS.sol\":1904:1917  numInput == 2 */\n      eq\n        /* \"RPS.sol\":1896:1918  require(numInput == 2) */\n      tag_62\n      jumpi\n      0x00\n      dup1\n      revert\n    tag_62:\n        /* \"RPS.sol\":2042:2069  bytes32 randomNumberBytes32 */\n      0x00\n        /* \"RPS.sol\":2080:2092  randomNumber */\n      dup3\n        /* \"RPS.sol\":2072:2093  bytes32(randomNumber) */\n      0x00\n      shl\n        /* \"RPS.sol\":2042:2093  bytes32 randomNumberBytes32 = bytes32(randomNumber) */\n      swap1\n      pop\n        /* \"RPS.sol\":2104:2122  bytes32 choiceHash */\n      0x00\n        /* \"RPS.sol\":2152:2171  randomNumberBytes32 */\n      dup2\n        /* \"RPS.sol\":2173:2179  choice */\n      dup4\n        /* \"RPS.sol\":2135:2180  abi.encodePacked(randomNumberBytes32, choice) */\n      add(0x20, mload(0x40))\n      tag_63\n      swap3\n      swap2\n      swap1\n      tag_64\n      jump\t// in\n    tag_63:\n      mload(0x40)\n      0x20\n      dup2\n      dup4\n      sub\n      sub\n      dup2\n      mstore\n      swap1\n      0x40\n      mstore\n        /* \"RPS.sol\":2125:2181  keccak256(abi.encodePacked(randomNumberBytes32, choice)) */\n      dup1\n      mload\n      swap1\n      0x20\n      add\n      keccak256\n        /* \"RPS.sol\":2104:2181  bytes32 choiceHash = keccak256(abi.encodePacked(randomNumberBytes32, choice)) */\n      swap1\n      pop\n        /* \"RPS.sol\":2327:2347  player_choice_commit */\n      0x02\n        /* \"RPS.sol\":2327:2359  player_choice_commit[msg.sender] */\n      0x00\n        /* \"RPS.sol\":2348:2358  msg.sender */\n      caller\n        /* \"RPS.sol\":2327:2359  player_choice_commit[msg.sender] */\n      0xffffffffffffffffffffffffffffffffffffffff\n      and\n      0xffffffffffffffffffffffffffffffffffffffff\n      and\n      dup2\n      mstore\n      0x20\n      add\n      swap1\n      dup2\n      mstore\n      0x20\n      add\n      0x00\n      keccak256\n      sload\n        /* \"RPS.sol\":2313:2323  choiceHash */\n      dup2\n        /* \"RPS.sol\":2313:2359  choiceHash == player_choice_commit[msg.sender] */\n      eq\n        /* \"RPS.sol\":2305:2384  require(choiceHash == player_choice_commit[msg.sender], \"Choice hash mismatch\") */\n      tag_65\n      jumpi\n      mload(0x40)\n      0x08c379a000000000000000000000000000000000000000000000000000000000\n      dup2\n      mstore\n      0x04\n      add\n      tag_66\n      swap1\n      tag_67\n      jump\t// in\n    tag_66:\n      mload(0x40)\n      dup1\n      swap2\n      sub\n      swap1\n      revert\n    tag_65:\n        /* \"RPS.sol\":2470:2482  commitReveal */\n      0x09\n      0x00\n      swap1\n      sload\n      swap1\n      0x0100\n      exp\n      swap1\n      div\n      0xffffffffffffffffffffffffffffffffffffffff\n      and\n        /* \"RPS.sol\":2470:2489  commitReveal.reveal */\n      0xffffffffffffffffffffffffffffffffffffffff\n      and\n      0x701fd0f1\n        /* \"RPS.sol\":2490:2500  choiceHash */\n      dup3\n        /* \"RPS.sol\":2470:2501  commitReveal.reveal(choiceHash) */\n      mload(0x40)\n      dup3\n      0xffffffff\n      and\n      0xe0\n      shl\n      dup2\n      mstore\n      0x04\n      add\n      tag_68\n      swap2\n      swap1\n      tag_69\n      jump\t// in\n    tag_68:\n      0x00\n      mload(0x40)\n      dup1\n      dup4\n      sub\n      dup2\n      0x00\n      dup8\n      dup1\n      extcodesize\n      iszero\n      dup1\n      iszero\n      tag_70\n      jumpi\n      0x00\n      dup1\n      revert\n    tag_70:\n      pop\n      gas\n      call\n      iszero\n      dup1\n      iszero\n      tag_72\n      jumpi\n      returndatasize\n      0x00\n      dup1\n      returndatacopy\n      revert(0x00, returndatasize)\n    tag_72:\n      pop\n      pop\n      pop\n      pop\n        /* \"RPS.sol\":2624:2643  uint revealedChoice */\n      0x00\n        /* \"RPS.sol\":2652:2658  choice */\n      dup4\n        /* \"RPS.sol\":2646:2659  uint8(choice) */\n      0xf8\n      shr\n        /* \"RPS.sol\":2624:2659  uint revealedChoice = uint8(choice) */\n      0xff\n      and\n      swap1\n      pop\n        /* \"RPS.sol\":2696:2697  4 */\n      0x04\n        /* \"RPS.sol\":2678:2692  revealedChoice */\n      dup2\n        /* \"RPS.sol\":2678:2697  revealedChoice <= 4 */\n      gt\n      iszero\n        /* \"RPS.sol\":2678:2720  revealedChoice <= 4 && revealedChoice >= 0 */\n      dup1\n      iszero\n      tag_73\n      jumpi\n      pop\n        /* \"RPS.sol\":2719:2720  0 */\n      0x00\n        /* \"RPS.sol\":2701:2715  revealedChoice */\n      dup2\n        /* \"RPS.sol\":2701:2720  revealedChoice >= 0 */\n      lt\n      iszero\n        /* \"RPS.sol\":2678:2720  revealedChoice <= 4 && revealedChoice >= 0 */\n    tag_73:\n        /* \"RPS.sol\":2670:2721  require(revealedChoice <= 4 && revealedChoice >= 0) */\n      tag_74\n      jumpi\n      0x00\n      dup1\n      revert\n    tag_74:\n        /* \"RPS.sol\":2760:2774  revealedChoice */\n      dup1\n        /* \"RPS.sol\":2732:2745  player_choice */\n      0x03\n        /* \"RPS.sol\":2732:2757  player_choice[msg.sender] */\n      0x00\n        /* \"RPS.sol\":2746:2756  msg.sender */\n      caller\n        /* \"RPS.sol\":2732:2757  player_choice[msg.sender] */\n      0xffffffffffffffffffffffffffffffffffffffff\n      and\n      0xffffffffffffffffffffffffffffffffffffffff\n      and\n      dup2\n      mstore\n      0x20\n      add\n      swap1\n      dup2\n      mstore\n      0x20\n      add\n      0x00\n      keccak256\n        /* \"RPS.sol\":2732:2774  player_choice[msg.sender] = revealedChoice */\n      dup2\n      swap1\n      sstore\n      pop\n        /* \"RPS.sol\":2811:2812  2 */\n      0x02\n        /* \"RPS.sol\":2799:2807  numInput */\n      sload(0x06)\n        /* \"RPS.sol\":2799:2812  numInput == 2 */\n      sub\n        /* \"RPS.sol\":2795:2915  if (numInput == 2) {... */\n      tag_75\n      jumpi\n        /* \"RPS.sol\":2840:2841  0 */\n      0x00\n        /* \"RPS.sol\":2829:2837  numInput */\n      0x06\n        /* \"RPS.sol\":2829:2841  numInput = 0 */\n      dup2\n      swap1\n      sstore\n      pop\n        /* \"RPS.sol\":2868:2869  0 */\n      0x00\n        /* \"RPS.sol\":2856:2865  numPlayer */\n      dup1\n        /* \"RPS.sol\":2856:2869  numPlayer = 0 */\n      dup2\n      swap1\n      sstore\n      pop\n        /* \"RPS.sol\":2884:2903  checkWinnerAndPay() */\n      tag_76\n        /* \"RPS.sol\":2884:2901  checkWinnerAndPay */\n      tag_77\n        /* \"RPS.sol\":2884:2903  checkWinnerAndPay() */\n      jump\t// in\n    tag_76:\n        /* \"RPS.sol\":2795:2915  if (numInput == 2) {... */\n    tag_75:\n        /* \"RPS.sol\":1851:2922  {... */\n      pop\n      pop\n      pop\n        /* \"RPS.sol\":1794:2922  function reveal(uint randomNumber, bytes1 choice) public {... */\n      pop\n      pop\n      jump\t// out\n        /* \"RPS.sol\":329:378  mapping(address => bool) public player_not_played */\n    tag_27:\n      mstore(0x20, 0x04)\n      dup1\n      0x00\n      mstore\n      keccak256(0x00, 0x40)\n      0x00\n      swap2\n      pop\n      sload\n      swap1\n      0x0100\n      exp\n      swap1\n      div\n      0xff\n      and\n      dup2\n      jump\t// out\n        /* \"RPS.sol\":184:206  uint public reward = 0 */\n    tag_32:\n      sload(0x01)\n      dup2\n      jump\t// out\n        /* \"RPS.sol\":1089:1454  function addPlayer() public payable {... */\n    tag_35:\n        /* \"RPS.sol\":1156:1157  2 */\n      0x02\n        /* \"RPS.sol\":1144:1153  numPlayer */\n      sload(0x00)\n        /* \"RPS.sol\":1144:1157  numPlayer < 2 */\n      lt\n        /* \"RPS.sol\":1136:1158  require(numPlayer < 2) */\n      tag_79\n      jumpi\n      0x00\n      dup1\n      revert\n    tag_79:\n        /* \"RPS.sol\":1177:1187  getValid() */\n      tag_80\n        /* \"RPS.sol\":1177:1185  getValid */\n      tag_81\n        /* \"RPS.sol\":1177:1187  getValid() */\n      jump\t// in\n    tag_80:\n        /* \"RPS.sol\":1169:1188  require(getValid()) */\n      tag_82\n      jumpi\n      0x00\n      dup1\n      revert\n    tag_82:\n        /* \"RPS.sol\":1220:1227  1 ether */\n      0x0de0b6b3a7640000\n        /* \"RPS.sol\":1207:1216  msg.value */\n      callvalue\n        /* \"RPS.sol\":1207:1227  msg.value == 1 ether */\n      eq\n        /* \"RPS.sol\":1199:1228  require(msg.value == 1 ether) */\n      tag_83\n      jumpi\n      0x00\n      dup1\n      revert\n    tag_83:\n        /* \"RPS.sol\":1251:1260  msg.value */\n      callvalue\n        /* \"RPS.sol\":1241:1247  reward */\n      0x01\n      0x00\n        /* \"RPS.sol\":1241:1260  reward += msg.value */\n      dup3\n      dup3\n      sload\n      tag_84\n      swap2\n      swap1\n      tag_85\n      jump\t// in\n    tag_84:\n      swap3\n      pop\n      pop\n      dup2\n      swap1\n      sstore\n      pop\n        /* \"RPS.sol\":1303:1307  true */\n      0x01\n        /* \"RPS.sol\":1271:1288  player_not_played */\n      0x04\n        /* \"RPS.sol\":1271:1300  player_not_played[msg.sender] */\n      0x00\n        /* \"RPS.sol\":1289:1299  msg.sender */\n      caller\n        /* \"RPS.sol\":1271:1300  player_not_played[msg.sender] */\n      0xffffffffffffffffffffffffffffffffffffffff\n      and\n      0xffffffffffffffffffffffffffffffffffffffff\n      and\n      dup2\n      mstore\n      0x20\n      add\n      swap1\n      dup2\n      mstore\n      0x20\n      add\n      0x00\n      keccak256\n      0x00\n        /* \"RPS.sol\":1271:1307  player_not_played[msg.sender] = true */\n      0x0100\n      exp\n      dup2\n      sload\n      dup2\n      0xff\n      mul\n      not\n      and\n      swap1\n      dup4\n      iszero\n      iszero\n      mul\n      or\n      swap1\n      sstore\n      pop\n        /* \"RPS.sol\":1318:1325  players */\n      0x05\n        /* \"RPS.sol\":1331:1341  msg.sender */\n      caller\n        /* \"RPS.sol\":1318:1342  players.push(msg.sender) */\n      swap1\n      dup1\n      0x01\n      dup2\n      sload\n      add\n      dup1\n      dup3\n      sstore\n      dup1\n      swap2\n      pop\n      pop\n      0x01\n      swap1\n      sub\n      swap1\n      0x00\n      mstore\n      keccak256(0x00, 0x20)\n      add\n      0x00\n      swap1\n      swap2\n      swap1\n      swap2\n      swap1\n      swap2\n      0x0100\n      exp\n      dup2\n      sload\n      dup2\n      0xffffffffffffffffffffffffffffffffffffffff\n      mul\n      not\n      and\n      swap1\n      dup4\n      0xffffffffffffffffffffffffffffffffffffffff\n      and\n      mul\n      or\n      swap1\n      sstore\n      pop\n        /* \"RPS.sol\":1353:1362  numPlayer */\n      0x00\n      dup1\n        /* \"RPS.sol\":1353:1364  numPlayer++ */\n      dup2\n      sload\n      dup1\n      swap3\n      swap2\n      swap1\n      tag_87\n      swap1\n      tag_88\n      jump\t// in\n    tag_87:\n      swap2\n      swap1\n      pop\n      sstore\n      pop\n        /* \"RPS.sol\":1394:1395  1 */\n      0x01\n        /* \"RPS.sol\":1381:1390  numPlayer */\n      sload(0x00)\n        /* \"RPS.sol\":1381:1395  numPlayer == 1 */\n      sub\n        /* \"RPS.sol\":1377:1447  if (numPlayer == 1) {... */\n      tag_89\n      jumpi\n        /* \"RPS.sol\":1412:1420  timeUnit */\n      0x07\n      0x00\n      swap1\n      sload\n      swap1\n      0x0100\n      exp\n      swap1\n      div\n      0xffffffffffffffffffffffffffffffffffffffff\n      and\n        /* \"RPS.sol\":1412:1433  timeUnit.setStartTime */\n      0xffffffffffffffffffffffffffffffffffffffff\n      and\n      0xa63f7c53\n        /* \"RPS.sol\":1412:1435  timeUnit.setStartTime() */\n      mload(0x40)\n      dup2\n      0xffffffff\n      and\n      0xe0\n      shl\n      dup2\n      mstore\n      0x04\n      add\n      0x00\n      mload(0x40)\n      dup1\n      dup4\n      sub\n      dup2\n      0x00\n      dup8\n      dup1\n      extcodesize\n      iszero\n      dup1\n      iszero\n      tag_90\n      jumpi\n      0x00\n      dup1\n      revert\n    tag_90:\n      pop\n      gas\n      call\n      iszero\n      dup1\n      iszero\n      tag_92\n      jumpi\n      returndatasize\n      0x00\n      dup1\n      returndatacopy\n      revert(0x00, returndatasize)\n    tag_92:\n      pop\n      pop\n      pop\n      pop\n        /* \"RPS.sol\":1377:1447  if (numPlayer == 1) {... */\n    tag_89:\n        /* \"RPS.sol\":1089:1454  function addPlayer() public payable {... */\n      jump\t// out\n        /* \"RPS.sol\":152:177  uint public numPlayer = 0 */\n    tag_38:\n      sload(0x00)\n      dup2\n      jump\t// out\n        /* \"RPS.sol\":529:582  CommitReveal public commitReveal = new CommitReveal() */\n    tag_42:\n      0x09\n      0x00\n      swap1\n      sload\n      swap1\n      0x0100\n      exp\n      swap1\n      div\n      0xffffffffffffffffffffffffffffffffffffffff\n      and\n      dup2\n      jump\t// out\n        /* \"RPS.sol\":3688:4561  function checkTimeOut() public {... */\n    tag_47:\n        /* \"RPS.sol\":3763:3770  timeOut */\n      sload(0x08)\n        /* \"RPS.sol\":3734:3742  timeUnit */\n      0x07\n      0x00\n      swap1\n      sload\n      swap1\n      0x0100\n      exp\n      swap1\n      div\n      0xffffffffffffffffffffffffffffffffffffffff\n      and\n        /* \"RPS.sol\":3734:3757  timeUnit.elapsedMinutes */\n      0xffffffffffffffffffffffffffffffffffffffff\n      and\n      0xd97c8416\n        /* \"RPS.sol\":3734:3759  timeUnit.elapsedMinutes() */\n      mload(0x40)\n      dup2\n      0xffffffff\n      and\n      0xe0\n      shl\n      dup2\n      mstore\n      0x04\n      add\n      0x20\n      mload(0x40)\n      dup1\n      dup4\n      sub\n      dup2\n      dup7\n      gas\n      staticcall\n      iszero\n      dup1\n      iszero\n      tag_95\n      jumpi\n      returndatasize\n      0x00\n      dup1\n      returndatacopy\n      revert(0x00, returndatasize)\n    tag_95:\n      pop\n      pop\n      pop\n      pop\n      mload(0x40)\n      returndatasize\n      not(0x1f)\n      0x1f\n      dup3\n      add\n      and\n      dup3\n      add\n      dup1\n      0x40\n      mstore\n      pop\n      dup2\n      add\n      swap1\n      tag_96\n      swap2\n      swap1\n      tag_97\n      jump\t// in\n    tag_96:\n        /* \"RPS.sol\":3734:3770  timeUnit.elapsedMinutes() >= timeOut */\n      lt\n        /* \"RPS.sol\":3730:4554  if (timeUnit.elapsedMinutes() >= timeOut) {... */\n      tag_98\n      jumpi\n        /* \"RPS.sol\":3809:3810  1 */\n      0x01\n        /* \"RPS.sol\":3791:3798  players */\n      0x05\n        /* \"RPS.sol\":3791:3805  players.length */\n      dup1\n      sload\n      swap1\n      pop\n        /* \"RPS.sol\":3791:3810  players.length == 1 */\n      sub\n        /* \"RPS.sol\":3787:4517  if (players.length == 1) {... */\n      tag_99\n      jumpi\n        /* \"RPS.sol\":3831:3854  address payable account */\n      0x00\n        /* \"RPS.sol\":3865:3872  players */\n      0x05\n        /* \"RPS.sol\":3873:3874  0 */\n      0x00\n        /* \"RPS.sol\":3865:3875  players[0] */\n      dup2\n      sload\n      dup2\n      lt\n      tag_100\n      jumpi\n      tag_101\n      tag_102\n      jump\t// in\n    tag_101:\n    tag_100:\n      swap1\n      0x00\n      mstore\n      keccak256(0x00, 0x20)\n      add\n      0x00\n      swap1\n      sload\n      swap1\n      0x0100\n      exp\n      swap1\n      div\n      0xffffffffffffffffffffffffffffffffffffffff\n      and\n        /* \"RPS.sol\":3831:3876  address payable account = payable(players[0]) */\n      swap1\n      pop\n        /* \"RPS.sol\":3895:3902  account */\n      dup1\n        /* \"RPS.sol\":3895:3911  account.transfer */\n      0xffffffffffffffffffffffffffffffffffffffff\n      and\n        /* \"RPS.sol\":3895:3919  account.transfer(reward) */\n      0x08fc\n        /* \"RPS.sol\":3912:3918  reward */\n      sload(0x01)\n        /* \"RPS.sol\":3895:3919  account.transfer(reward) */\n      swap1\n      dup2\n      iszero\n      mul\n      swap1\n      mload(0x40)\n      0x00\n      mload(0x40)\n      dup1\n      dup4\n      sub\n      dup2\n      dup6\n      dup9\n      dup9\n      call\n      swap4\n      pop\n      pop\n      pop\n      pop\n      iszero\n      dup1\n      iszero\n      tag_105\n      jumpi\n      returndatasize\n      0x00\n      dup1\n      returndatacopy\n      revert(0x00, returndatasize)\n    tag_105:\n      pop\n        /* \"RPS.sol\":3812:3935  {... */\n      pop\n        /* \"RPS.sol\":3787:4517  if (players.length == 1) {... */\n      jump(tag_106)\n    tag_99:\n        /* \"RPS.sol\":3958:3959  2 */\n      0x02\n        /* \"RPS.sol\":3945:3954  numPlayer */\n      sload(0x00)\n        /* \"RPS.sol\":3945:3959  numPlayer == 2 */\n      eq\n        /* \"RPS.sol\":3945:3976  numPlayer == 2 && numInput == 2 */\n      dup1\n      iszero\n      tag_107\n      jumpi\n      pop\n        /* \"RPS.sol\":3975:3976  2 */\n      0x02\n        /* \"RPS.sol\":3963:3971  numInput */\n      sload(0x06)\n        /* \"RPS.sol\":3963:3976  numInput == 2 */\n      eq\n        /* \"RPS.sol\":3945:3976  numPlayer == 2 && numInput == 2 */\n    tag_107:\n        /* \"RPS.sol\":3941:4517  if (numPlayer == 2 && numInput == 2) {... */\n      iszero\n      tag_108\n      jumpi\n        /* \"RPS.sol\":3997:4021  address payable account0 */\n      0x00\n        /* \"RPS.sol\":4032:4039  players */\n      0x05\n        /* \"RPS.sol\":4040:4041  0 */\n      0x00\n        /* \"RPS.sol\":4032:4042  players[0] */\n      dup2\n      sload\n      dup2\n      lt\n      tag_109\n      jumpi\n      tag_110\n      tag_102\n      jump\t// in\n    tag_110:\n    tag_109:\n      swap1\n      0x00\n      mstore\n      keccak256(0x00, 0x20)\n      add\n      0x00\n      swap1\n      sload\n      swap1\n      0x0100\n      exp\n      swap1\n      div\n      0xffffffffffffffffffffffffffffffffffffffff\n      and\n        /* \"RPS.sol\":3997:4043  address payable account0 = payable(players[0]) */\n      swap1\n      pop\n        /* \"RPS.sol\":4062:4086  address payable account1 */\n      0x00\n        /* \"RPS.sol\":4097:4104  players */\n      0x05\n        /* \"RPS.sol\":4105:4106  1 */\n      0x01\n        /* \"RPS.sol\":4097:4107  players[1] */\n      dup2\n      sload\n      dup2\n      lt\n      tag_112\n      jumpi\n      tag_113\n      tag_102\n      jump\t// in\n    tag_113:\n    tag_112:\n      swap1\n      0x00\n      mstore\n      keccak256(0x00, 0x20)\n      add\n      0x00\n      swap1\n      sload\n      swap1\n      0x0100\n      exp\n      swap1\n      div\n      0xffffffffffffffffffffffffffffffffffffffff\n      and\n        /* \"RPS.sol\":4062:4108  address payable account1 = payable(players[1]) */\n      swap1\n      pop\n        /* \"RPS.sol\":4127:4135  account0 */\n      dup2\n        /* \"RPS.sol\":4127:4144  account0.transfer */\n      0xffffffffffffffffffffffffffffffffffffffff\n      and\n        /* \"RPS.sol\":4127:4156  account0.transfer(reward / 2) */\n      0x08fc\n        /* \"RPS.sol\":4154:4155  2 */\n      0x02\n        /* \"RPS.sol\":4145:4151  reward */\n      sload(0x01)\n        /* \"RPS.sol\":4145:4155  reward / 2 */\n      tag_115\n      swap2\n      swap1\n      tag_116\n      jump\t// in\n    tag_115:\n        /* \"RPS.sol\":4127:4156  account0.transfer(reward / 2) */\n      swap1\n      dup2\n      iszero\n      mul\n      swap1\n      mload(0x40)\n      0x00\n      mload(0x40)\n      dup1\n      dup4\n      sub\n      dup2\n      dup6\n      dup9\n      dup9\n      call\n      swap4\n      pop\n      pop\n      pop\n      pop\n      iszero\n      dup1\n      iszero\n      tag_118\n      jumpi\n      returndatasize\n      0x00\n      dup1\n      returndatacopy\n      revert(0x00, returndatasize)\n    tag_118:\n      pop\n        /* \"RPS.sol\":4175:4183  account1 */\n      dup1\n        /* \"RPS.sol\":4175:4192  account1.transfer */\n      0xffffffffffffffffffffffffffffffffffffffff\n      and\n        /* \"RPS.sol\":4175:4204  account1.transfer(reward / 2) */\n      0x08fc\n        /* \"RPS.sol\":4202:4203  2 */\n      0x02\n        /* \"RPS.sol\":4193:4199  reward */\n      sload(0x01)\n        /* \"RPS.sol\":4193:4203  reward / 2 */\n      tag_119\n      swap2\n      swap1\n      tag_116\n      jump\t// in\n    tag_119:\n        /* \"RPS.sol\":4175:4204  account1.transfer(reward / 2) */\n      swap1\n      dup2\n      iszero\n      mul\n      swap1\n      mload(0x40)\n      0x00\n      mload(0x40)\n      dup1\n      dup4\n      sub\n      dup2\n      dup6\n      dup9\n      dup9\n      call\n      swap4\n      pop\n      pop\n      pop\n      pop\n      iszero\n      dup1\n      iszero\n      tag_121\n      jumpi\n      returndatasize\n      0x00\n      dup1\n      returndatacopy\n      revert(0x00, returndatasize)\n    tag_121:\n      pop\n        /* \"RPS.sol\":3978:4220  {... */\n      pop\n      pop\n        /* \"RPS.sol\":3941:4517  if (numPlayer == 2 && numInput == 2) {... */\n      jump(tag_122)\n    tag_108:\n        /* \"RPS.sol\":4250:4259  uint256 i */\n      0x00\n        /* \"RPS.sol\":4245:4502  for (uint256 i = 0; i < 2; i++) {... */\n    tag_123:\n        /* \"RPS.sol\":4269:4270  2 */\n      0x02\n        /* \"RPS.sol\":4265:4266  i */\n      dup2\n        /* \"RPS.sol\":4265:4270  i < 2 */\n      lt\n        /* \"RPS.sol\":4245:4502  for (uint256 i = 0; i < 2; i++) {... */\n      iszero\n      tag_124\n      jumpi\n        /* \"RPS.sol\":4305:4322  player_not_played */\n      0x04\n        /* \"RPS.sol\":4305:4334  player_not_played[players[i]] */\n      0x00\n        /* \"RPS.sol\":4323:4330  players */\n      0x05\n        /* \"RPS.sol\":4331:4332  i */\n      dup4\n        /* \"RPS.sol\":4323:4333  players[i] */\n      dup2\n      sload\n      dup2\n      lt\n      tag_126\n      jumpi\n      tag_127\n      tag_102\n      jump\t// in\n    tag_127:\n    tag_126:\n      swap1\n      0x00\n      mstore\n      keccak256(0x00, 0x20)\n      add\n      0x00\n      swap1\n      sload\n      swap1\n      0x0100\n      exp\n      swap1\n      div\n      0xffffffffffffffffffffffffffffffffffffffff\n      and\n        /* \"RPS.sol\":4305:4334  player_not_played[players[i]] */\n      0xffffffffffffffffffffffffffffffffffffffff\n      and\n      0xffffffffffffffffffffffffffffffffffffffff\n      and\n      dup2\n      mstore\n      0x20\n      add\n      swap1\n      dup2\n      mstore\n      0x20\n      add\n      0x00\n      keccak256\n      0x00\n      swap1\n      sload\n      swap1\n      0x0100\n      exp\n      swap1\n      div\n      0xff\n      and\n        /* \"RPS.sol\":4300:4483  if (!player_not_played[players[i]]) {... */\n      tag_129\n      jumpi\n        /* \"RPS.sol\":4363:4386  address payable account */\n      0x00\n        /* \"RPS.sol\":4397:4404  players */\n      0x05\n        /* \"RPS.sol\":4405:4406  i */\n      dup3\n        /* \"RPS.sol\":4397:4407  players[i] */\n      dup2\n      sload\n      dup2\n      lt\n      tag_130\n      jumpi\n      tag_131\n      tag_102\n      jump\t// in\n    tag_131:\n    tag_130:\n      swap1\n      0x00\n      mstore\n      keccak256(0x00, 0x20)\n      add\n      0x00\n      swap1\n      sload\n      swap1\n      0x0100\n      exp\n      swap1\n      div\n      0xffffffffffffffffffffffffffffffffffffffff\n      and\n        /* \"RPS.sol\":4363:4408  address payable account = payable(players[i]) */\n      swap1\n      pop\n        /* \"RPS.sol\":4435:4442  account */\n      dup1\n        /* \"RPS.sol\":4435:4451  account.transfer */\n      0xffffffffffffffffffffffffffffffffffffffff\n      and\n        /* \"RPS.sol\":4435:4459  account.transfer(reward) */\n      0x08fc\n        /* \"RPS.sol\":4452:4458  reward */\n      sload(0x01)\n        /* \"RPS.sol\":4435:4459  account.transfer(reward) */\n      swap1\n      dup2\n      iszero\n      mul\n      swap1\n      mload(0x40)\n      0x00\n      mload(0x40)\n      dup1\n      dup4\n      sub\n      dup2\n      dup6\n      dup9\n      dup9\n      call\n      swap4\n      pop\n      pop\n      pop\n      pop\n      iszero\n      dup1\n      iszero\n      tag_134\n      jumpi\n      returndatasize\n      0x00\n      dup1\n      returndatacopy\n      revert(0x00, returndatasize)\n    tag_134:\n      pop\n        /* \"RPS.sol\":4336:4483  {... */\n      pop\n        /* \"RPS.sol\":4300:4483  if (!player_not_played[players[i]]) {... */\n    tag_129:\n        /* \"RPS.sol\":4272:4275  i++ */\n      dup1\n      dup1\n      0x01\n      add\n      swap2\n      pop\n      pop\n        /* \"RPS.sol\":4245:4502  for (uint256 i = 0; i < 2; i++) {... */\n      jump(tag_123)\n    tag_124:\n      pop\n        /* \"RPS.sol\":3941:4517  if (numPlayer == 2 && numInput == 2) {... */\n    tag_122:\n        /* \"RPS.sol\":3787:4517  if (players.length == 1) {... */\n    tag_106:\n        /* \"RPS.sol\":4531:4542  resetGame() */\n      tag_135\n        /* \"RPS.sol\":4531:4540  resetGame */\n      tag_136\n        /* \"RPS.sol\":4531:4542  resetGame() */\n      jump\t// in\n    tag_135:\n        /* \"RPS.sol\":3730:4554  if (timeUnit.elapsedMinutes() >= timeOut) {... */\n    tag_98:\n        /* \"RPS.sol\":3688:4561  function checkTimeOut() public {... */\n      jump\t// out\n        /* \"RPS.sol\":1462:1784  function input(bytes32 choiceHash) public {... */\n    tag_52:\n        /* \"RPS.sol\":1536:1537  2 */\n      0x02\n        /* \"RPS.sol\":1523:1532  numPlayer */\n      sload(0x00)\n        /* \"RPS.sol\":1523:1537  numPlayer == 2 */\n      eq\n        /* \"RPS.sol\":1515:1538  require(numPlayer == 2) */\n      tag_138\n      jumpi\n      0x00\n      dup1\n      revert\n    tag_138:\n        /* \"RPS.sol\":1557:1574  player_not_played */\n      0x04\n        /* \"RPS.sol\":1557:1586  player_not_played[msg.sender] */\n      0x00\n        /* \"RPS.sol\":1575:1585  msg.sender */\n      caller\n        /* \"RPS.sol\":1557:1586  player_not_played[msg.sender] */\n      0xffffffffffffffffffffffffffffffffffffffff\n      and\n      0xffffffffffffffffffffffffffffffffffffffff\n      and\n      dup2\n      mstore\n      0x20\n      add\n      swap1\n      dup2\n      mstore\n      0x20\n      add\n      0x00\n      keccak256\n      0x00\n      swap1\n      sload\n      swap1\n      0x0100\n      exp\n      swap1\n      div\n      0xff\n      and\n        /* \"RPS.sol\":1549:1587  require(player_not_played[msg.sender]) */\n      tag_139\n      jumpi\n      0x00\n      dup1\n      revert\n    tag_139:\n        /* \"RPS.sol\":1598:1610  commitReveal */\n      0x09\n      0x00\n      swap1\n      sload\n      swap1\n      0x0100\n      exp\n      swap1\n      div\n      0xffffffffffffffffffffffffffffffffffffffff\n      and\n        /* \"RPS.sol\":1598:1617  commitReveal.commit */\n      0xffffffffffffffffffffffffffffffffffffffff\n      and\n      0xf14fcbc8\n        /* \"RPS.sol\":1618:1630  commitReveal */\n      0x09\n      0x00\n      swap1\n      sload\n      swap1\n      0x0100\n      exp\n      swap1\n      div\n      0xffffffffffffffffffffffffffffffffffffffff\n      and\n        /* \"RPS.sol\":1618:1638  commitReveal.getHash */\n      0xffffffffffffffffffffffffffffffffffffffff\n      and\n      0x3cf5040a\n        /* \"RPS.sol\":1639:1649  choiceHash */\n      dup5\n        /* \"RPS.sol\":1618:1650  commitReveal.getHash(choiceHash) */\n      mload(0x40)\n      dup3\n      0xffffffff\n      and\n      0xe0\n      shl\n      dup2\n      mstore\n      0x04\n      add\n      tag_140\n      swap2\n      swap1\n      tag_69\n      jump\t// in\n    tag_140:\n      0x20\n      mload(0x40)\n      dup1\n      dup4\n      sub\n      dup2\n      dup7\n      gas\n      staticcall\n      iszero\n      dup1\n      iszero\n      tag_142\n      jumpi\n      returndatasize\n      0x00\n      dup1\n      returndatacopy\n      revert(0x00, returndatasize)\n    tag_142:\n      pop\n      pop\n      pop\n      pop\n      mload(0x40)\n      returndatasize\n      not(0x1f)\n      0x1f\n      dup3\n      add\n      and\n      dup3\n      add\n      dup1\n      0x40\n      mstore\n      pop\n      dup2\n      add\n      swap1\n      tag_143\n      swap2\n      swap1\n      tag_144\n      jump\t// in\n    tag_143:\n        /* \"RPS.sol\":1598:1651  commitReveal.commit(commitReveal.getHash(choiceHash)) */\n      mload(0x40)\n      dup3\n      0xffffffff\n      and\n      0xe0\n      shl\n      dup2\n      mstore\n      0x04\n      add\n      tag_145\n      swap2\n      swap1\n      tag_69\n      jump\t// in\n    tag_145:\n      0x00\n      mload(0x40)\n      dup1\n      dup4\n      sub\n      dup2\n      0x00\n      dup8\n      dup1\n      extcodesize\n      iszero\n      dup1\n      iszero\n      tag_146\n      jumpi\n      0x00\n      dup1\n      revert\n    tag_146:\n      pop\n      gas\n      call\n      iszero\n      dup1\n      iszero\n      tag_148\n      jumpi\n      returndatasize\n      0x00\n      dup1\n      returndatacopy\n      revert(0x00, returndatasize)\n    tag_148:\n      pop\n      pop\n      pop\n      pop\n        /* \"RPS.sol\":1697:1707  choiceHash */\n      dup1\n        /* \"RPS.sol\":1662:1682  player_choice_commit */\n      0x02\n        /* \"RPS.sol\":1662:1694  player_choice_commit[msg.sender] */\n      0x00\n        /* \"RPS.sol\":1683:1693  msg.sender */\n      caller\n        /* \"RPS.sol\":1662:1694  player_choice_commit[msg.sender] */\n      0xffffffffffffffffffffffffffffffffffffffff\n      and\n      0xffffffffffffffffffffffffffffffffffffffff\n      and\n      dup2\n      mstore\n      0x20\n      add\n      swap1\n      dup2\n      mstore\n      0x20\n      add\n      0x00\n      keccak256\n        /* \"RPS.sol\":1662:1707  player_choice_commit[msg.sender] = choiceHash */\n      dup2\n      swap1\n      sstore\n      pop\n        /* \"RPS.sol\":1750:1755  false */\n      0x00\n        /* \"RPS.sol\":1718:1735  player_not_played */\n      0x04\n        /* \"RPS.sol\":1718:1747  player_not_played[msg.sender] */\n      0x00\n        /* \"RPS.sol\":1736:1746  msg.sender */\n      caller\n        /* \"RPS.sol\":1718:1747  player_not_played[msg.sender] */\n      0xffffffffffffffffffffffffffffffffffffffff\n      and\n      0xffffffffffffffffffffffffffffffffffffffff\n      and\n      dup2\n      mstore\n      0x20\n      add\n      swap1\n      dup2\n      mstore\n      0x20\n      add\n      0x00\n      keccak256\n      0x00\n        /* \"RPS.sol\":1718:1755  player_not_played[msg.sender] = false */\n      0x0100\n      exp\n      dup2\n      sload\n      dup2\n      0xff\n      mul\n      not\n      and\n      swap1\n      dup4\n      iszero\n      iszero\n      mul\n      or\n      swap1\n      sstore\n      pop\n        /* \"RPS.sol\":1766:1774  numInput */\n      0x06\n      0x00\n        /* \"RPS.sol\":1766:1776  numInput++ */\n      dup2\n      sload\n      dup1\n      swap3\n      swap2\n      swap1\n      tag_149\n      swap1\n      tag_88\n      jump\t// in\n    tag_149:\n      swap2\n      swap1\n      pop\n      sstore\n      pop\n        /* \"RPS.sol\":1462:1784  function input(bytes32 choiceHash) public {... */\n      pop\n      jump\t// out\n        /* \"RPS.sol\":385:409  address[] public players */\n    tag_57:\n      0x05\n      dup2\n      dup2\n      sload\n      dup2\n      lt\n      tag_150\n      jumpi\n      0x00\n      dup1\n      revert\n    tag_150:\n      swap1\n      0x00\n      mstore\n      keccak256(0x00, 0x20)\n      add\n      0x00\n      swap2\n      pop\n      sload\n      swap1\n      0x0100\n      exp\n      swap1\n      div\n      0xffffffffffffffffffffffffffffffffffffffff\n      and\n      dup2\n      jump\t// out\n        /* \"RPS.sol\":2932:3542  function checkWinnerAndPay() private {... */\n    tag_77:\n        /* \"RPS.sol\":2980:2993  uint p0Choice */\n      0x00\n        /* \"RPS.sol\":2996:3009  player_choice */\n      0x03\n        /* \"RPS.sol\":2996:3021  player_choice[players[0]] */\n      0x00\n        /* \"RPS.sol\":3010:3017  players */\n      0x05\n        /* \"RPS.sol\":3018:3019  0 */\n      0x00\n        /* \"RPS.sol\":3010:3020  players[0] */\n      dup2\n      sload\n      dup2\n      lt\n      tag_153\n      jumpi\n      tag_154\n      tag_102\n      jump\t// in\n    tag_154:\n    tag_153:\n      swap1\n      0x00\n      mstore\n      keccak256(0x00, 0x20)\n      add\n      0x00\n      swap1\n      sload\n      swap1\n      0x0100\n      exp\n      swap1\n      div\n      0xffffffffffffffffffffffffffffffffffffffff\n      and\n        /* \"RPS.sol\":2996:3021  player_choice[players[0]] */\n      0xffffffffffffffffffffffffffffffffffffffff\n      and\n      0xffffffffffffffffffffffffffffffffffffffff\n      and\n      dup2\n      mstore\n      0x20\n      add\n      swap1\n      dup2\n      mstore\n      0x20\n      add\n      0x00\n      keccak256\n      sload\n        /* \"RPS.sol\":2980:3021  uint p0Choice = player_choice[players[0]] */\n      swap1\n      pop\n        /* \"RPS.sol\":3032:3045  uint p1Choice */\n      0x00\n        /* \"RPS.sol\":3048:3061  player_choice */\n      0x03\n        /* \"RPS.sol\":3048:3073  player_choice[players[1]] */\n      0x00\n        /* \"RPS.sol\":3062:3069  players */\n      0x05\n        /* \"RPS.sol\":3070:3071  1 */\n      0x01\n        /* \"RPS.sol\":3062:3072  players[1] */\n      dup2\n      sload\n      dup2\n      lt\n      tag_156\n      jumpi\n      tag_157\n      tag_102\n      jump\t// in\n    tag_157:\n    tag_156:\n      swap1\n      0x00\n      mstore\n      keccak256(0x00, 0x20)\n      add\n      0x00\n      swap1\n      sload\n      swap1\n      0x0100\n      exp\n      swap1\n      div\n      0xffffffffffffffffffffffffffffffffffffffff\n      and\n        /* \"RPS.sol\":3048:3073  player_choice[players[1]] */\n      0xffffffffffffffffffffffffffffffffffffffff\n      and\n      0xffffffffffffffffffffffffffffffffffffffff\n      and\n      dup2\n      mstore\n      0x20\n      add\n      swap1\n      dup2\n      mstore\n      0x20\n      add\n      0x00\n      keccak256\n      sload\n        /* \"RPS.sol\":3032:3073  uint p1Choice = player_choice[players[1]] */\n      swap1\n      pop\n        /* \"RPS.sol\":3084:3108  address payable account0 */\n      0x00\n        /* \"RPS.sol\":3119:3126  players */\n      0x05\n        /* \"RPS.sol\":3127:3128  0 */\n      0x00\n        /* \"RPS.sol\":3119:3129  players[0] */\n      dup2\n      sload\n      dup2\n      lt\n      tag_159\n      jumpi\n      tag_160\n      tag_102\n      jump\t// in\n    tag_160:\n    tag_159:\n      swap1\n      0x00\n      mstore\n      keccak256(0x00, 0x20)\n      add\n      0x00\n      swap1\n      sload\n      swap1\n      0x0100\n      exp\n      swap1\n      div\n      0xffffffffffffffffffffffffffffffffffffffff\n      and\n        /* \"RPS.sol\":3084:3130  address payable account0 = payable(players[0]) */\n      swap1\n      pop\n        /* \"RPS.sol\":3141:3165  address payable account1 */\n      0x00\n        /* \"RPS.sol\":3176:3183  players */\n      0x05\n        /* \"RPS.sol\":3184:3185  1 */\n      0x01\n        /* \"RPS.sol\":3176:3186  players[1] */\n      dup2\n      sload\n      dup2\n      lt\n      tag_162\n      jumpi\n      tag_163\n      tag_102\n      jump\t// in\n    tag_163:\n    tag_162:\n      swap1\n      0x00\n      mstore\n      keccak256(0x00, 0x20)\n      add\n      0x00\n      swap1\n      sload\n      swap1\n      0x0100\n      exp\n      swap1\n      div\n      0xffffffffffffffffffffffffffffffffffffffff\n      and\n        /* \"RPS.sol\":3141:3187  address payable account1 = payable(players[1]) */\n      swap1\n      pop\n        /* \"RPS.sol\":3216:3224  p1Choice */\n      dup3\n        /* \"RPS.sol\":3204:3212  p0Choice */\n      dup5\n        /* \"RPS.sol\":3204:3224  p0Choice == p1Choice */\n      sub\n        /* \"RPS.sol\":3200:3512  if (p0Choice == p1Choice) {... */\n      tag_165\n      jumpi\n        /* \"RPS.sol\":3241:3249  account0 */\n      dup2\n        /* \"RPS.sol\":3241:3258  account0.transfer */\n      0xffffffffffffffffffffffffffffffffffffffff\n      and\n        /* \"RPS.sol\":3241:3270  account0.transfer(reward / 2) */\n      0x08fc\n        /* \"RPS.sol\":3268:3269  2 */\n      0x02\n        /* \"RPS.sol\":3259:3265  reward */\n      sload(0x01)\n        /* \"RPS.sol\":3259:3269  reward / 2 */\n      tag_166\n      swap2\n      swap1\n      tag_116\n      jump\t// in\n    tag_166:\n        /* \"RPS.sol\":3241:3270  account0.transfer(reward / 2) */\n      swap1\n      dup2\n      iszero\n      mul\n      swap1\n      mload(0x40)\n      0x00\n      mload(0x40)\n      dup1\n      dup4\n      sub\n      dup2\n      dup6\n      dup9\n      dup9\n      call\n      swap4\n      pop\n      pop\n      pop\n      pop\n      iszero\n      dup1\n      iszero\n      tag_168\n      jumpi\n      returndatasize\n      0x00\n      dup1\n      returndatacopy\n      revert(0x00, returndatasize)\n    tag_168:\n      pop\n        /* \"RPS.sol\":3285:3293  account1 */\n      dup1\n        /* \"RPS.sol\":3285:3302  account1.transfer */\n      0xffffffffffffffffffffffffffffffffffffffff\n      and\n        /* \"RPS.sol\":3285:3314  account1.transfer(reward / 2) */\n      0x08fc\n        /* \"RPS.sol\":3312:3313  2 */\n      0x02\n        /* \"RPS.sol\":3303:3309  reward */\n      sload(0x01)\n        /* \"RPS.sol\":3303:3313  reward / 2 */\n      tag_169\n      swap2\n      swap1\n      tag_116\n      jump\t// in\n    tag_169:\n        /* \"RPS.sol\":3285:3314  account1.transfer(reward / 2) */\n      swap1\n      dup2\n      iszero\n      mul\n      swap1\n      mload(0x40)\n      0x00\n      mload(0x40)\n      dup1\n      dup4\n      sub\n      dup2\n      dup6\n      dup9\n      dup9\n      call\n      swap4\n      pop\n      pop\n      pop\n      pop\n      iszero\n      dup1\n      iszero\n      tag_171\n      jumpi\n      returndatasize\n      0x00\n      dup1\n      returndatacopy\n      revert(0x00, returndatasize)\n    tag_171:\n      pop\n        /* \"RPS.sol\":3200:3512  if (p0Choice == p1Choice) {... */\n      jump(tag_172)\n    tag_165:\n        /* \"RPS.sol\":3358:3366  p0Choice */\n      dup4\n        /* \"RPS.sol\":3353:3354  5 */\n      0x05\n        /* \"RPS.sol\":3348:3349  1 */\n      0x01\n        /* \"RPS.sol\":3337:3345  p1Choice */\n      dup6\n        /* \"RPS.sol\":3337:3349  p1Choice + 1 */\n      tag_173\n      swap2\n      swap1\n      tag_85\n      jump\t// in\n    tag_173:\n        /* \"RPS.sol\":3336:3354  (p1Choice + 1) % 5 */\n      tag_174\n      swap2\n      swap1\n      tag_175\n      jump\t// in\n    tag_174:\n        /* \"RPS.sol\":3336:3366  (p1Choice + 1) % 5 == p0Choice */\n      eq\n        /* \"RPS.sol\":3336:3400  (p1Choice + 1) % 5 == p0Choice || (p1Choice + 3) % 5 == p0Choice */\n      dup1\n      tag_176\n      jumpi\n      pop\n        /* \"RPS.sol\":3392:3400  p0Choice */\n      dup4\n        /* \"RPS.sol\":3387:3388  5 */\n      0x05\n        /* \"RPS.sol\":3382:3383  3 */\n      0x03\n        /* \"RPS.sol\":3371:3379  p1Choice */\n      dup6\n        /* \"RPS.sol\":3371:3383  p1Choice + 3 */\n      tag_177\n      swap2\n      swap1\n      tag_85\n      jump\t// in\n    tag_177:\n        /* \"RPS.sol\":3370:3388  (p1Choice + 3) % 5 */\n      tag_178\n      swap2\n      swap1\n      tag_175\n      jump\t// in\n    tag_178:\n        /* \"RPS.sol\":3370:3400  (p1Choice + 3) % 5 == p0Choice */\n      eq\n        /* \"RPS.sol\":3336:3400  (p1Choice + 1) % 5 == p0Choice || (p1Choice + 3) % 5 == p0Choice */\n    tag_176:\n        /* \"RPS.sol\":3332:3512  if ((p1Choice + 1) % 5 == p0Choice || (p1Choice + 3) % 5 == p0Choice) {... */\n      iszero\n      tag_179\n      jumpi\n        /* \"RPS.sol\":3417:3425  account0 */\n      dup2\n        /* \"RPS.sol\":3417:3434  account0.transfer */\n      0xffffffffffffffffffffffffffffffffffffffff\n      and\n        /* \"RPS.sol\":3417:3442  account0.transfer(reward) */\n      0x08fc\n        /* \"RPS.sol\":3435:3441  reward */\n      sload(0x01)\n        /* \"RPS.sol\":3417:3442  account0.transfer(reward) */\n      swap1\n      dup2\n      iszero\n      mul\n      swap1\n      mload(0x40)\n      0x00\n      mload(0x40)\n      dup1\n      dup4\n      sub\n      dup2\n      dup6\n      dup9\n      dup9\n      call\n      swap4\n      pop\n      pop\n      pop\n      pop\n      iszero\n      dup1\n      iszero\n      tag_181\n      jumpi\n      returndatasize\n      0x00\n      dup1\n      returndatacopy\n      revert(0x00, returndatasize)\n    tag_181:\n      pop\n        /* \"RPS.sol\":3332:3512  if ((p1Choice + 1) % 5 == p0Choice || (p1Choice + 3) % 5 == p0Choice) {... */\n      jump(tag_182)\n    tag_179:\n        /* \"RPS.sol\":3475:3483  account1 */\n      dup1\n        /* \"RPS.sol\":3475:3492  account1.transfer */\n      0xffffffffffffffffffffffffffffffffffffffff\n      and\n        /* \"RPS.sol\":3475:3500  account1.transfer(reward) */\n      0x08fc\n        /* \"RPS.sol\":3493:3499  reward */\n      sload(0x01)\n        /* \"RPS.sol\":3475:3500  account1.transfer(reward) */\n      swap1\n      dup2\n      iszero\n      mul\n      swap1\n      mload(0x40)\n      0x00\n      mload(0x40)\n      dup1\n      dup4\n      sub\n      dup2\n      dup6\n      dup9\n      dup9\n      call\n      swap4\n      pop\n      pop\n      pop\n      pop\n      iszero\n      dup1\n      iszero\n      tag_184\n      jumpi\n      returndatasize\n      0x00\n      dup1\n      returndatacopy\n      revert(0x00, returndatasize)\n    tag_184:\n      pop\n        /* \"RPS.sol\":3332:3512  if ((p1Choice + 1) % 5 == p0Choice || (p1Choice + 3) % 5 == p0Choice) {... */\n    tag_182:\n        /* \"RPS.sol\":3200:3512  if (p0Choice == p1Choice) {... */\n    tag_172:\n        /* \"RPS.sol\":3533:3534  0 */\n      0x00\n        /* \"RPS.sol\":3524:3530  reward */\n      0x01\n        /* \"RPS.sol\":3524:3534  reward = 0 */\n      dup2\n      swap1\n      sstore\n      pop\n        /* \"RPS.sol\":2969:3542  {... */\n      pop\n      pop\n      pop\n      pop\n        /* \"RPS.sol\":2932:3542  function checkWinnerAndPay() private {... */\n      jump\t// out\n        /* \"RPS.sol\":853:1081  function getValid() private view returns (bool) {... */\n    tag_81:\n        /* \"RPS.sol\":895:899  bool */\n      0x00\n        /* \"RPS.sol\":917:926  uint256 i */\n      dup1\n        /* \"RPS.sol\":929:930  0 */\n      0x00\n        /* \"RPS.sol\":917:930  uint256 i = 0 */\n      swap1\n      pop\n        /* \"RPS.sol\":912:1051  for (uint256 i = 0; i < 4; i++) {... */\n    tag_186:\n        /* \"RPS.sol\":936:937  4 */\n      0x04\n        /* \"RPS.sol\":932:933  i */\n      dup2\n        /* \"RPS.sol\":932:937  i < 4 */\n      lt\n        /* \"RPS.sol\":912:1051  for (uint256 i = 0; i < 4; i++) {... */\n      iszero\n      tag_187\n      jumpi\n        /* \"RPS.sol\":977:989  playerAccept */\n      0x0a\n        /* \"RPS.sol\":990:991  i */\n      dup2\n        /* \"RPS.sol\":977:992  playerAccept[i] */\n      0x04\n      dup2\n      lt\n      tag_189\n      jumpi\n      tag_190\n      tag_102\n      jump\t// in\n    tag_190:\n    tag_189:\n      add\n      0x00\n      swap1\n      sload\n      swap1\n      0x0100\n      exp\n      swap1\n      div\n      0xffffffffffffffffffffffffffffffffffffffff\n      and\n        /* \"RPS.sol\":963:992  msg.sender == playerAccept[i] */\n      0xffffffffffffffffffffffffffffffffffffffff\n      and\n        /* \"RPS.sol\":963:973  msg.sender */\n      caller\n        /* \"RPS.sol\":963:992  msg.sender == playerAccept[i] */\n      0xffffffffffffffffffffffffffffffffffffffff\n      and\n      sub\n        /* \"RPS.sol\":959:1040  if (msg.sender == playerAccept[i]) {... */\n      tag_192\n      jumpi\n        /* \"RPS.sol\":1020:1024  true */\n      0x01\n        /* \"RPS.sol\":1013:1024  return true */\n      swap2\n      pop\n      pop\n      jump(tag_185)\n        /* \"RPS.sol\":959:1040  if (msg.sender == playerAccept[i]) {... */\n    tag_192:\n        /* \"RPS.sol\":939:942  i++ */\n      dup1\n      dup1\n      0x01\n      add\n      swap2\n      pop\n      pop\n        /* \"RPS.sol\":912:1051  for (uint256 i = 0; i < 4; i++) {... */\n      jump(tag_186)\n    tag_187:\n      pop\n        /* \"RPS.sol\":1068:1073  false */\n      0x00\n        /* \"RPS.sol\":1061:1073  return false */\n      swap1\n      pop\n        /* \"RPS.sol\":853:1081  function getValid() private view returns (bool) {... */\n    tag_185:\n      swap1\n      jump\t// out\n        /* \"RPS.sol\":3550:3680  function resetGame() private {... */\n    tag_136:\n        /* \"RPS.sol\":3597:3604  players */\n      0x05\n      0x00\n        /* \"RPS.sol\":3590:3604  delete players */\n      tag_194\n      swap2\n      swap1\n      tag_195\n      jump\t// in\n    tag_194:\n        /* \"RPS.sol\":3626:3627  0 */\n      0x00\n        /* \"RPS.sol\":3615:3623  numInput */\n      0x06\n        /* \"RPS.sol\":3615:3627  numInput = 0 */\n      dup2\n      swap1\n      sstore\n      pop\n        /* \"RPS.sol\":3650:3651  0 */\n      0x00\n        /* \"RPS.sol\":3638:3647  numPlayer */\n      dup1\n        /* \"RPS.sol\":3638:3651  numPlayer = 0 */\n      dup2\n      swap1\n      sstore\n      pop\n        /* \"RPS.sol\":3671:3672  0 */\n      0x00\n        /* \"RPS.sol\":3662:3668  reward */\n      0x01\n        /* \"RPS.sol\":3662:3672  reward = 0 */\n      dup2\n      swap1\n      sstore\n      pop\n        /* \"RPS.sol\":3550:3680  function resetGame() private {... */\n      jump\t// out\n    tag_195:\n      pop\n      dup1\n      sload\n      0x00\n      dup3\n      sstore\n      swap1\n      0x00\n      mstore\n      keccak256(0x00, 0x20)\n      swap1\n      dup2\n      add\n      swap1\n      tag_197\n      swap2\n      swap1\n      tag_198\n      jump\t// in\n    tag_197:\n      pop\n      jump\t// out\n    tag_198:\n    tag_199:\n      dup1\n      dup3\n      gt\n      iszero\n      tag_200\n      jumpi\n      0x00\n      dup2\n      0x00\n      swap1\n      sstore\n      pop\n      0x01\n      add\n      jump(tag_199)\n    tag_200:\n      pop\n      swap1\n      jump\t// out\n        /* \"#utility.yul\":7:84   */\n    tag_201:\n        /* \"#utility.yul\":44:51   */\n      0x00\n        /* \"#utility.yul\":73:78   */\n      dup2\n        /* \"#utility.yul\":62:78   */\n      swap1\n      pop\n        /* \"#utility.yul\":7:84   */\n      swap2\n      swap1\n      pop\n      jump\t// out\n        /* \"#utility.yul\":90:208   */\n    tag_202:\n        /* \"#utility.yul\":177:201   */\n      tag_241\n        /* \"#utility.yul\":195:200   */\n      dup2\n        /* \"#utility.yul\":177:201   */\n      tag_201\n      jump\t// in\n    tag_241:\n        /* \"#utility.yul\":172:175   */\n      dup3\n        /* \"#utility.yul\":165:202   */\n      mstore\n        /* \"#utility.yul\":90:208   */\n      pop\n      pop\n      jump\t// out\n        /* \"#utility.yul\":214:436   */\n    tag_17:\n        /* \"#utility.yul\":307:311   */\n      0x00\n        /* \"#utility.yul\":345:347   */\n      0x20\n        /* \"#utility.yul\":334:343   */\n      dup3\n        /* \"#utility.yul\":330:348   */\n      add\n        /* \"#utility.yul\":322:348   */\n      swap1\n      pop\n        /* \"#utility.yul\":358:429   */\n      tag_243\n        /* \"#utility.yul\":426:427   */\n      0x00\n        /* \"#utility.yul\":415:424   */\n      dup4\n        /* \"#utility.yul\":411:428   */\n      add\n        /* \"#utility.yul\":402:408   */\n      dup5\n        /* \"#utility.yul\":358:429   */\n      tag_202\n      jump\t// in\n    tag_243:\n        /* \"#utility.yul\":214:436   */\n      swap3\n      swap2\n      pop\n      pop\n      jump\t// out\n        /* \"#utility.yul\":523:640   */\n    tag_204:\n        /* \"#utility.yul\":632:633   */\n      0x00\n        /* \"#utility.yul\":629:630   */\n      dup1\n        /* \"#utility.yul\":622:634   */\n      revert\n        /* \"#utility.yul\":769:891   */\n    tag_206:\n        /* \"#utility.yul\":842:866   */\n      tag_248\n        /* \"#utility.yul\":860:865   */\n      dup2\n        /* \"#utility.yul\":842:866   */\n      tag_201\n      jump\t// in\n    tag_248:\n        /* \"#utility.yul\":835:840   */\n      dup2\n        /* \"#utility.yul\":832:867   */\n      eq\n        /* \"#utility.yul\":822:885   */\n      tag_249\n      jumpi\n        /* \"#utility.yul\":881:882   */\n      0x00\n        /* \"#utility.yul\":878:879   */\n      dup1\n        /* \"#utility.yul\":871:883   */\n      revert\n        /* \"#utility.yul\":822:885   */\n    tag_249:\n        /* \"#utility.yul\":769:891   */\n      pop\n      jump\t// out\n        /* \"#utility.yul\":897:1036   */\n    tag_207:\n        /* \"#utility.yul\":943:948   */\n      0x00\n        /* \"#utility.yul\":981:987   */\n      dup2\n        /* \"#utility.yul\":968:988   */\n      calldataload\n        /* \"#utility.yul\":959:988   */\n      swap1\n      pop\n        /* \"#utility.yul\":997:1030   */\n      tag_251\n        /* \"#utility.yul\":1024:1029   */\n      dup2\n        /* \"#utility.yul\":997:1030   */\n      tag_206\n      jump\t// in\n    tag_251:\n        /* \"#utility.yul\":897:1036   */\n      swap3\n      swap2\n      pop\n      pop\n      jump\t// out\n        /* \"#utility.yul\":1042:1191   */\n    tag_208:\n        /* \"#utility.yul\":1078:1085   */\n      0x00\n        /* \"#utility.yul\":1118:1184   */\n      0xff00000000000000000000000000000000000000000000000000000000000000\n        /* \"#utility.yul\":1111:1116   */\n      dup3\n        /* \"#utility.yul\":1107:1185   */\n      and\n        /* \"#utility.yul\":1096:1185   */\n      swap1\n      pop\n        /* \"#utility.yul\":1042:1191   */\n      swap2\n      swap1\n      pop\n      jump\t// out\n        /* \"#utility.yul\":1197:1317   */\n    tag_209:\n        /* \"#utility.yul\":1269:1292   */\n      tag_254\n        /* \"#utility.yul\":1286:1291   */\n      dup2\n        /* \"#utility.yul\":1269:1292   */\n      tag_208\n      jump\t// in\n    tag_254:\n        /* \"#utility.yul\":1262:1267   */\n      dup2\n        /* \"#utility.yul\":1259:1293   */\n      eq\n        /* \"#utility.yul\":1249:1311   */\n      tag_255\n      jumpi\n        /* \"#utility.yul\":1307:1308   */\n      0x00\n        /* \"#utility.yul\":1304:1305   */\n      dup1\n        /* \"#utility.yul\":1297:1309   */\n      revert\n        /* \"#utility.yul\":1249:1311   */\n    tag_255:\n        /* \"#utility.yul\":1197:1317   */\n      pop\n      jump\t// out\n        /* \"#utility.yul\":1323:1460   */\n    tag_210:\n        /* \"#utility.yul\":1368:1373   */\n      0x00\n        /* \"#utility.yul\":1406:1412   */\n      dup2\n        /* \"#utility.yul\":1393:1413   */\n      calldataload\n        /* \"#utility.yul\":1384:1413   */\n      swap1\n      pop\n        /* \"#utility.yul\":1422:1454   */\n      tag_257\n        /* \"#utility.yul\":1448:1453   */\n      dup2\n        /* \"#utility.yul\":1422:1454   */\n      tag_209\n      jump\t// in\n    tag_257:\n        /* \"#utility.yul\":1323:1460   */\n      swap3\n      swap2\n      pop\n      pop\n      jump\t// out\n        /* \"#utility.yul\":1466:1938   */\n    tag_21:\n        /* \"#utility.yul\":1533:1539   */\n      0x00\n        /* \"#utility.yul\":1541:1547   */\n      dup1\n        /* \"#utility.yul\":1590:1592   */\n      0x40\n        /* \"#utility.yul\":1578:1587   */\n      dup4\n        /* \"#utility.yul\":1569:1576   */\n      dup6\n        /* \"#utility.yul\":1565:1588   */\n      sub\n        /* \"#utility.yul\":1561:1593   */\n      slt\n        /* \"#utility.yul\":1558:1677   */\n      iszero\n      tag_259\n      jumpi\n        /* \"#utility.yul\":1596:1675   */\n      tag_260\n      tag_204\n      jump\t// in\n    tag_260:\n        /* \"#utility.yul\":1558:1677   */\n    tag_259:\n        /* \"#utility.yul\":1716:1717   */\n      0x00\n        /* \"#utility.yul\":1741:1794   */\n      tag_261\n        /* \"#utility.yul\":1786:1793   */\n      dup6\n        /* \"#utility.yul\":1777:1783   */\n      dup3\n        /* \"#utility.yul\":1766:1775   */\n      dup7\n        /* \"#utility.yul\":1762:1784   */\n      add\n        /* \"#utility.yul\":1741:1794   */\n      tag_207\n      jump\t// in\n    tag_261:\n        /* \"#utility.yul\":1731:1794   */\n      swap3\n      pop\n        /* \"#utility.yul\":1687:1804   */\n      pop\n        /* \"#utility.yul\":1843:1845   */\n      0x20\n        /* \"#utility.yul\":1869:1921   */\n      tag_262\n        /* \"#utility.yul\":1913:1920   */\n      dup6\n        /* \"#utility.yul\":1904:1910   */\n      dup3\n        /* \"#utility.yul\":1893:1902   */\n      dup7\n        /* \"#utility.yul\":1889:1911   */\n      add\n        /* \"#utility.yul\":1869:1921   */\n      tag_210\n      jump\t// in\n    tag_262:\n        /* \"#utility.yul\":1859:1921   */\n      swap2\n      pop\n        /* \"#utility.yul\":1814:1931   */\n      pop\n        /* \"#utility.yul\":1466:1938   */\n      swap3\n      pop\n      swap3\n      swap1\n      pop\n      jump\t// out\n        /* \"#utility.yul\":1944:2070   */\n    tag_211:\n        /* \"#utility.yul\":1981:1988   */\n      0x00\n        /* \"#utility.yul\":2021:2063   */\n      0xffffffffffffffffffffffffffffffffffffffff\n        /* \"#utility.yul\":2014:2019   */\n      dup3\n        /* \"#utility.yul\":2010:2064   */\n      and\n        /* \"#utility.yul\":1999:2064   */\n      swap1\n      pop\n        /* \"#utility.yul\":1944:2070   */\n      swap2\n      swap1\n      pop\n      jump\t// out\n        /* \"#utility.yul\":2076:2172   */\n    tag_212:\n        /* \"#utility.yul\":2113:2120   */\n      0x00\n        /* \"#utility.yul\":2142:2166   */\n      tag_265\n        /* \"#utility.yul\":2160:2165   */\n      dup3\n        /* \"#utility.yul\":2142:2166   */\n      tag_211\n      jump\t// in\n    tag_265:\n        /* \"#utility.yul\":2131:2166   */\n      swap1\n      pop\n        /* \"#utility.yul\":2076:2172   */\n      swap2\n      swap1\n      pop\n      jump\t// out\n        /* \"#utility.yul\":2178:2300   */\n    tag_213:\n        /* \"#utility.yul\":2251:2275   */\n      tag_267\n        /* \"#utility.yul\":2269:2274   */\n      dup2\n        /* \"#utility.yul\":2251:2275   */\n      tag_212\n      jump\t// in\n    tag_267:\n        /* \"#utility.yul\":2244:2249   */\n      dup2\n        /* \"#utility.yul\":2241:2276   */\n      eq\n        /* \"#utility.yul\":2231:2294   */\n      tag_268\n      jumpi\n        /* \"#utility.yul\":2290:2291   */\n      0x00\n        /* \"#utility.yul\":2287:2288   */\n      dup1\n        /* \"#utility.yul\":2280:2292   */\n      revert\n        /* \"#utility.yul\":2231:2294   */\n    tag_268:\n        /* \"#utility.yul\":2178:2300   */\n      pop\n      jump\t// out\n        /* \"#utility.yul\":2306:2445   */\n    tag_214:\n        /* \"#utility.yul\":2352:2357   */\n      0x00\n        /* \"#utility.yul\":2390:2396   */\n      dup2\n        /* \"#utility.yul\":2377:2397   */\n      calldataload\n        /* \"#utility.yul\":2368:2397   */\n      swap1\n      pop\n        /* \"#utility.yul\":2406:2439   */\n      tag_270\n        /* \"#utility.yul\":2433:2438   */\n      dup2\n        /* \"#utility.yul\":2406:2439   */\n      tag_213\n      jump\t// in\n    tag_270:\n        /* \"#utility.yul\":2306:2445   */\n      swap3\n      swap2\n      pop\n      pop\n      jump\t// out\n        /* \"#utility.yul\":2451:2780   */\n    tag_26:\n        /* \"#utility.yul\":2510:2516   */\n      0x00\n        /* \"#utility.yul\":2559:2561   */\n      0x20\n        /* \"#utility.yul\":2547:2556   */\n      dup3\n        /* \"#utility.yul\":2538:2545   */\n      dup5\n        /* \"#utility.yul\":2534:2557   */\n      sub\n        /* \"#utility.yul\":2530:2562   */\n      slt\n        /* \"#utility.yul\":2527:2646   */\n      iszero\n      tag_272\n      jumpi\n        /* \"#utility.yul\":2565:2644   */\n      tag_273\n      tag_204\n      jump\t// in\n    tag_273:\n        /* \"#utility.yul\":2527:2646   */\n    tag_272:\n        /* \"#utility.yul\":2685:2686   */\n      0x00\n        /* \"#utility.yul\":2710:2763   */\n      tag_274\n        /* \"#utility.yul\":2755:2762   */\n      dup5\n        /* \"#utility.yul\":2746:2752   */\n      dup3\n        /* \"#utility.yul\":2735:2744   */\n      dup6\n        /* \"#utility.yul\":2731:2753   */\n      add\n        /* \"#utility.yul\":2710:2763   */\n      tag_214\n      jump\t// in\n    tag_274:\n        /* \"#utility.yul\":2700:2763   */\n      swap2\n      pop\n        /* \"#utility.yul\":2656:2773   */\n      pop\n        /* \"#utility.yul\":2451:2780   */\n      swap3\n      swap2\n      pop\n      pop\n      jump\t// out\n        /* \"#utility.yul\":2786:2876   */\n    tag_215:\n        /* \"#utility.yul\":2820:2827   */\n      0x00\n        /* \"#utility.yul\":2863:2868   */\n      dup2\n        /* \"#utility.yul\":2856:2869   */\n      iszero\n        /* \"#utility.yul\":2849:2870   */\n      iszero\n        /* \"#utility.yul\":2838:2870   */\n      swap1\n      pop\n        /* \"#utility.yul\":2786:2876   */\n      swap2\n      swap1\n      pop\n      jump\t// out\n        /* \"#utility.yul\":2882:2991   */\n    tag_216:\n        /* \"#utility.yul\":2963:2984   */\n      tag_277\n        /* \"#utility.yul\":2978:2983   */\n      dup2\n        /* \"#utility.yul\":2963:2984   */\n      tag_215\n      jump\t// in\n    tag_277:\n        /* \"#utility.yul\":2958:2961   */\n      dup3\n        /* \"#utility.yul\":2951:2985   */\n      mstore\n        /* \"#utility.yul\":2882:2991   */\n      pop\n      pop\n      jump\t// out\n        /* \"#utility.yul\":2997:3207   */\n    tag_29:\n        /* \"#utility.yul\":3084:3088   */\n      0x00\n        /* \"#utility.yul\":3122:3124   */\n      0x20\n        /* \"#utility.yul\":3111:3120   */\n      dup3\n        /* \"#utility.yul\":3107:3125   */\n      add\n        /* \"#utility.yul\":3099:3125   */\n      swap1\n      pop\n        /* \"#utility.yul\":3135:3200   */\n      tag_279\n        /* \"#utility.yul\":3197:3198   */\n      0x00\n        /* \"#utility.yul\":3186:3195   */\n      dup4\n        /* \"#utility.yul\":3182:3199   */\n      add\n        /* \"#utility.yul\":3173:3179   */\n      dup5\n        /* \"#utility.yul\":3135:3200   */\n      tag_216\n      jump\t// in\n    tag_279:\n        /* \"#utility.yul\":2997:3207   */\n      swap3\n      swap2\n      pop\n      pop\n      jump\t// out\n        /* \"#utility.yul\":3213:3273   */\n    tag_217:\n        /* \"#utility.yul\":3241:3244   */\n      0x00\n        /* \"#utility.yul\":3262:3267   */\n      dup2\n        /* \"#utility.yul\":3255:3267   */\n      swap1\n      pop\n        /* \"#utility.yul\":3213:3273   */\n      swap2\n      swap1\n      pop\n      jump\t// out\n        /* \"#utility.yul\":3279:3421   */\n    tag_218:\n        /* \"#utility.yul\":3329:3338   */\n      0x00\n        /* \"#utility.yul\":3362:3415   */\n      tag_282\n        /* \"#utility.yul\":3380:3414   */\n      tag_283\n        /* \"#utility.yul\":3389:3413   */\n      tag_284\n        /* \"#utility.yul\":3407:3412   */\n      dup5\n        /* \"#utility.yul\":3389:3413   */\n      tag_211\n      jump\t// in\n    tag_284:\n        /* \"#utility.yul\":3380:3414   */\n      tag_217\n      jump\t// in\n    tag_283:\n        /* \"#utility.yul\":3362:3415   */\n      tag_211\n      jump\t// in\n    tag_282:\n        /* \"#utility.yul\":3349:3415   */\n      swap1\n      pop\n        /* \"#utility.yul\":3279:3421   */\n      swap2\n      swap1\n      pop\n      jump\t// out\n        /* \"#utility.yul\":3427:3553   */\n    tag_219:\n        /* \"#utility.yul\":3477:3486   */\n      0x00\n        /* \"#utility.yul\":3510:3547   */\n      tag_286\n        /* \"#utility.yul\":3541:3546   */\n      dup3\n        /* \"#utility.yul\":3510:3547   */\n      tag_218\n      jump\t// in\n    tag_286:\n        /* \"#utility.yul\":3497:3547   */\n      swap1\n      pop\n        /* \"#utility.yul\":3427:3553   */\n      swap2\n      swap1\n      pop\n      jump\t// out\n        /* \"#utility.yul\":3559:3705   */\n    tag_220:\n        /* \"#utility.yul\":3629:3638   */\n      0x00\n        /* \"#utility.yul\":3662:3699   */\n      tag_288\n        /* \"#utility.yul\":3693:3698   */\n      dup3\n        /* \"#utility.yul\":3662:3699   */\n      tag_219\n      jump\t// in\n    tag_288:\n        /* \"#utility.yul\":3649:3699   */\n      swap1\n      pop\n        /* \"#utility.yul\":3559:3705   */\n      swap2\n      swap1\n      pop\n      jump\t// out\n        /* \"#utility.yul\":3711:3882   */\n    tag_221:\n        /* \"#utility.yul\":3818:3875   */\n      tag_290\n        /* \"#utility.yul\":3869:3874   */\n      dup2\n        /* \"#utility.yul\":3818:3875   */\n      tag_220\n      jump\t// in\n    tag_290:\n        /* \"#utility.yul\":3813:3816   */\n      dup3\n        /* \"#utility.yul\":3806:3876   */\n      mstore\n        /* \"#utility.yul\":3711:3882   */\n      pop\n      pop\n      jump\t// out\n        /* \"#utility.yul\":3888:4150   */\n    tag_44:\n        /* \"#utility.yul\":4001:4005   */\n      0x00\n        /* \"#utility.yul\":4039:4041   */\n      0x20\n        /* \"#utility.yul\":4028:4037   */\n      dup3\n        /* \"#utility.yul\":4024:4042   */\n      add\n        /* \"#utility.yul\":4016:4042   */\n      swap1\n      pop\n        /* \"#utility.yul\":4052:4143   */\n      tag_292\n        /* \"#utility.yul\":4140:4141   */\n      0x00\n        /* \"#utility.yul\":4129:4138   */\n      dup4\n        /* \"#utility.yul\":4125:4142   */\n      add\n        /* \"#utility.yul\":4116:4122   */\n      dup5\n        /* \"#utility.yul\":4052:4143   */\n      tag_221\n      jump\t// in\n    tag_292:\n        /* \"#utility.yul\":3888:4150   */\n      swap3\n      swap2\n      pop\n      pop\n      jump\t// out\n        /* \"#utility.yul\":4156:4233   */\n    tag_222:\n        /* \"#utility.yul\":4193:4200   */\n      0x00\n        /* \"#utility.yul\":4222:4227   */\n      dup2\n        /* \"#utility.yul\":4211:4227   */\n      swap1\n      pop\n        /* \"#utility.yul\":4156:4233   */\n      swap2\n      swap1\n      pop\n      jump\t// out\n        /* \"#utility.yul\":4239:4361   */\n    tag_223:\n        /* \"#utility.yul\":4312:4336   */\n      tag_295\n        /* \"#utility.yul\":4330:4335   */\n      dup2\n        /* \"#utility.yul\":4312:4336   */\n      tag_222\n      jump\t// in\n    tag_295:\n        /* \"#utility.yul\":4305:4310   */\n      dup2\n        /* \"#utility.yul\":4302:4337   */\n      eq\n        /* \"#utility.yul\":4292:4355   */\n      tag_296\n      jumpi\n        /* \"#utility.yul\":4351:4352   */\n      0x00\n        /* \"#utility.yul\":4348:4349   */\n      dup1\n        /* \"#utility.yul\":4341:4353   */\n      revert\n        /* \"#utility.yul\":4292:4355   */\n    tag_296:\n        /* \"#utility.yul\":4239:4361   */\n      pop\n      jump\t// out\n        /* \"#utility.yul\":4367:4506   */\n    tag_224:\n        /* \"#utility.yul\":4413:4418   */\n      0x00\n        /* \"#utility.yul\":4451:4457   */\n      dup2\n        /* \"#utility.yul\":4438:4458   */\n      calldataload\n        /* \"#utility.yul\":4429:4458   */\n      swap1\n      pop\n        /* \"#utility.yul\":4467:4500   */\n      tag_298\n        /* \"#utility.yul\":4494:4499   */\n      dup2\n        /* \"#utility.yul\":4467:4500   */\n      tag_223\n      jump\t// in\n    tag_298:\n        /* \"#utility.yul\":4367:4506   */\n      swap3\n      swap2\n      pop\n      pop\n      jump\t// out\n        /* \"#utility.yul\":4512:4841   */\n    tag_51:\n        /* \"#utility.yul\":4571:4577   */\n      0x00\n        /* \"#utility.yul\":4620:4622   */\n      0x20\n        /* \"#utility.yul\":4608:4617   */\n      dup3\n        /* \"#utility.yul\":4599:4606   */\n      dup5\n        /* \"#utility.yul\":4595:4618   */\n      sub\n        /* \"#utility.yul\":4591:4623   */\n      slt\n        /* \"#utility.yul\":4588:4707   */\n      iszero\n      tag_300\n      jumpi\n        /* \"#utility.yul\":4626:4705   */\n      tag_301\n      tag_204\n      jump\t// in\n    tag_301:\n        /* \"#utility.yul\":4588:4707   */\n    tag_300:\n        /* \"#utility.yul\":4746:4747   */\n      0x00\n        /* \"#utility.yul\":4771:4824   */\n      tag_302\n        /* \"#utility.yul\":4816:4823   */\n      dup5\n        /* \"#utility.yul\":4807:4813   */\n      dup3\n        /* \"#utility.yul\":4796:4805   */\n      dup6\n        /* \"#utility.yul\":4792:4814   */\n      add\n        /* \"#utility.yul\":4771:4824   */\n      tag_224\n      jump\t// in\n    tag_302:\n        /* \"#utility.yul\":4761:4824   */\n      swap2\n      pop\n        /* \"#utility.yul\":4717:4834   */\n      pop\n        /* \"#utility.yul\":4512:4841   */\n      swap3\n      swap2\n      pop\n      pop\n      jump\t// out\n        /* \"#utility.yul\":4847:5176   */\n    tag_56:\n        /* \"#utility.yul\":4906:4912   */\n      0x00\n        /* \"#utility.yul\":4955:4957   */\n      0x20\n        /* \"#utility.yul\":4943:4952   */\n      dup3\n        /* \"#utility.yul\":4934:4941   */\n      dup5\n        /* \"#utility.yul\":4930:4953   */\n      sub\n        /* \"#utility.yul\":4926:4958   */\n      slt\n        /* \"#utility.yul\":4923:5042   */\n      iszero\n      tag_304\n      jumpi\n        /* \"#utility.yul\":4961:5040   */\n      tag_305\n      tag_204\n      jump\t// in\n    tag_305:\n        /* \"#utility.yul\":4923:5042   */\n    tag_304:\n        /* \"#utility.yul\":5081:5082   */\n      0x00\n        /* \"#utility.yul\":5106:5159   */\n      tag_306\n        /* \"#utility.yul\":5151:5158   */\n      dup5\n        /* \"#utility.yul\":5142:5148   */\n      dup3\n        /* \"#utility.yul\":5131:5140   */\n      dup6\n        /* \"#utility.yul\":5127:5149   */\n      add\n        /* \"#utility.yul\":5106:5159   */\n      tag_207\n      jump\t// in\n    tag_306:\n        /* \"#utility.yul\":5096:5159   */\n      swap2\n      pop\n        /* \"#utility.yul\":5052:5169   */\n      pop\n        /* \"#utility.yul\":4847:5176   */\n      swap3\n      swap2\n      pop\n      pop\n      jump\t// out\n        /* \"#utility.yul\":5182:5300   */\n    tag_225:\n        /* \"#utility.yul\":5269:5293   */\n      tag_308\n        /* \"#utility.yul\":5287:5292   */\n      dup2\n        /* \"#utility.yul\":5269:5293   */\n      tag_212\n      jump\t// in\n    tag_308:\n        /* \"#utility.yul\":5264:5267   */\n      dup3\n        /* \"#utility.yul\":5257:5294   */\n      mstore\n        /* \"#utility.yul\":5182:5300   */\n      pop\n      pop\n      jump\t// out\n        /* \"#utility.yul\":5306:5528   */\n    tag_59:\n        /* \"#utility.yul\":5399:5403   */\n      0x00\n        /* \"#utility.yul\":5437:5439   */\n      0x20\n        /* \"#utility.yul\":5426:5435   */\n      dup3\n        /* \"#utility.yul\":5422:5440   */\n      add\n        /* \"#utility.yul\":5414:5440   */\n      swap1\n      pop\n        /* \"#utility.yul\":5450:5521   */\n      tag_310\n        /* \"#utility.yul\":5518:5519   */\n      0x00\n        /* \"#utility.yul\":5507:5516   */\n      dup4\n        /* \"#utility.yul\":5503:5520   */\n      add\n        /* \"#utility.yul\":5494:5500   */\n      dup5\n        /* \"#utility.yul\":5450:5521   */\n      tag_225\n      jump\t// in\n    tag_310:\n        /* \"#utility.yul\":5306:5528   */\n      swap3\n      swap2\n      pop\n      pop\n      jump\t// out\n        /* \"#utility.yul\":5534:5613   */\n    tag_226:\n        /* \"#utility.yul\":5573:5580   */\n      0x00\n        /* \"#utility.yul\":5602:5607   */\n      dup2\n        /* \"#utility.yul\":5591:5607   */\n      swap1\n      pop\n        /* \"#utility.yul\":5534:5613   */\n      swap2\n      swap1\n      pop\n      jump\t// out\n        /* \"#utility.yul\":5619:5776   */\n    tag_227:\n        /* \"#utility.yul\":5724:5769   */\n      tag_313\n        /* \"#utility.yul\":5744:5768   */\n      tag_314\n        /* \"#utility.yul\":5762:5767   */\n      dup3\n        /* \"#utility.yul\":5744:5768   */\n      tag_222\n      jump\t// in\n    tag_314:\n        /* \"#utility.yul\":5724:5769   */\n      tag_226\n      jump\t// in\n    tag_313:\n        /* \"#utility.yul\":5719:5722   */\n      dup3\n        /* \"#utility.yul\":5712:5770   */\n      mstore\n        /* \"#utility.yul\":5619:5776   */\n      pop\n      pop\n      jump\t// out\n        /* \"#utility.yul\":5782:5860   */\n    tag_228:\n        /* \"#utility.yul\":5820:5827   */\n      0x00\n        /* \"#utility.yul\":5849:5854   */\n      dup2\n        /* \"#utility.yul\":5838:5854   */\n      swap1\n      pop\n        /* \"#utility.yul\":5782:5860   */\n      swap2\n      swap1\n      pop\n      jump\t// out\n        /* \"#utility.yul\":5866:6019   */\n    tag_229:\n        /* \"#utility.yul\":5969:6012   */\n      tag_317\n        /* \"#utility.yul\":5988:6011   */\n      tag_318\n        /* \"#utility.yul\":6005:6010   */\n      dup3\n        /* \"#utility.yul\":5988:6011   */\n      tag_208\n      jump\t// in\n    tag_318:\n        /* \"#utility.yul\":5969:6012   */\n      tag_228\n      jump\t// in\n    tag_317:\n        /* \"#utility.yul\":5964:5967   */\n      dup3\n        /* \"#utility.yul\":5957:6013   */\n      mstore\n        /* \"#utility.yul\":5866:6019   */\n      pop\n      pop\n      jump\t// out\n        /* \"#utility.yul\":6025:6417   */\n    tag_64:\n        /* \"#utility.yul\":6163:6166   */\n      0x00\n        /* \"#utility.yul\":6178:6253   */\n      tag_320\n        /* \"#utility.yul\":6249:6252   */\n      dup3\n        /* \"#utility.yul\":6240:6246   */\n      dup6\n        /* \"#utility.yul\":6178:6253   */\n      tag_227\n      jump\t// in\n    tag_320:\n        /* \"#utility.yul\":6278:6280   */\n      0x20\n        /* \"#utility.yul\":6273:6276   */\n      dup3\n        /* \"#utility.yul\":6269:6281   */\n      add\n        /* \"#utility.yul\":6262:6281   */\n      swap2\n      pop\n        /* \"#utility.yul\":6291:6364   */\n      tag_321\n        /* \"#utility.yul\":6360:6363   */\n      dup3\n        /* \"#utility.yul\":6351:6357   */\n      dup5\n        /* \"#utility.yul\":6291:6364   */\n      tag_229\n      jump\t// in\n    tag_321:\n        /* \"#utility.yul\":6389:6390   */\n      0x01\n        /* \"#utility.yul\":6384:6387   */\n      dup3\n        /* \"#utility.yul\":6380:6391   */\n      add\n        /* \"#utility.yul\":6373:6391   */\n      swap2\n      pop\n        /* \"#utility.yul\":6408:6411   */\n      dup2\n        /* \"#utility.yul\":6401:6411   */\n      swap1\n      pop\n        /* \"#utility.yul\":6025:6417   */\n      swap4\n      swap3\n      pop\n      pop\n      pop\n      jump\t// out\n        /* \"#utility.yul\":6423:6592   */\n    tag_230:\n        /* \"#utility.yul\":6507:6518   */\n      0x00\n        /* \"#utility.yul\":6541:6547   */\n      dup3\n        /* \"#utility.yul\":6536:6539   */\n      dup3\n        /* \"#utility.yul\":6529:6548   */\n      mstore\n        /* \"#utility.yul\":6581:6585   */\n      0x20\n        /* \"#utility.yul\":6576:6579   */\n      dup3\n        /* \"#utility.yul\":6572:6586   */\n      add\n        /* \"#utility.yul\":6557:6586   */\n      swap1\n      pop\n        /* \"#utility.yul\":6423:6592   */\n      swap3\n      swap2\n      pop\n      pop\n      jump\t// out\n        /* \"#utility.yul\":6598:6768   */\n    tag_231:\n        /* \"#utility.yul\":6738:6760   */\n      0x43686f6963652068617368206d69736d61746368000000000000000000000000\n        /* \"#utility.yul\":6734:6735   */\n      0x00\n        /* \"#utility.yul\":6726:6732   */\n      dup3\n        /* \"#utility.yul\":6722:6736   */\n      add\n        /* \"#utility.yul\":6715:6761   */\n      mstore\n        /* \"#utility.yul\":6598:6768   */\n      pop\n      jump\t// out\n        /* \"#utility.yul\":6774:7140   */\n    tag_232:\n        /* \"#utility.yul\":6916:6919   */\n      0x00\n        /* \"#utility.yul\":6937:7004   */\n      tag_325\n        /* \"#utility.yul\":7001:7003   */\n      0x14\n        /* \"#utility.yul\":6996:6999   */\n      dup4\n        /* \"#utility.yul\":6937:7004   */\n      tag_230\n      jump\t// in\n    tag_325:\n        /* \"#utility.yul\":6930:7004   */\n      swap2\n      pop\n        /* \"#utility.yul\":7013:7106   */\n      tag_326\n        /* \"#utility.yul\":7102:7105   */\n      dup3\n        /* \"#utility.yul\":7013:7106   */\n      tag_231\n      jump\t// in\n    tag_326:\n        /* \"#utility.yul\":7131:7133   */\n      0x20\n        /* \"#utility.yul\":7126:7129   */\n      dup3\n        /* \"#utility.yul\":7122:7134   */\n      add\n        /* \"#utility.yul\":7115:7134   */\n      swap1\n      pop\n        /* \"#utility.yul\":6774:7140   */\n      swap2\n      swap1\n      pop\n      jump\t// out\n        /* \"#utility.yul\":7146:7565   */\n    tag_67:\n        /* \"#utility.yul\":7312:7316   */\n      0x00\n        /* \"#utility.yul\":7350:7352   */\n      0x20\n        /* \"#utility.yul\":7339:7348   */\n      dup3\n        /* \"#utility.yul\":7335:7353   */\n      add\n        /* \"#utility.yul\":7327:7353   */\n      swap1\n      pop\n        /* \"#utility.yul\":7399:7408   */\n      dup2\n        /* \"#utility.yul\":7393:7397   */\n      dup2\n        /* \"#utility.yul\":7389:7409   */\n      sub\n        /* \"#utility.yul\":7385:7386   */\n      0x00\n        /* \"#utility.yul\":7374:7383   */\n      dup4\n        /* \"#utility.yul\":7370:7387   */\n      add\n        /* \"#utility.yul\":7363:7410   */\n      mstore\n        /* \"#utility.yul\":7427:7558   */\n      tag_328\n        /* \"#utility.yul\":7553:7557   */\n      dup2\n        /* \"#utility.yul\":7427:7558   */\n      tag_232\n      jump\t// in\n    tag_328:\n        /* \"#utility.yul\":7419:7558   */\n      swap1\n      pop\n        /* \"#utility.yul\":7146:7565   */\n      swap2\n      swap1\n      pop\n      jump\t// out\n        /* \"#utility.yul\":7571:7689   */\n    tag_233:\n        /* \"#utility.yul\":7658:7682   */\n      tag_330\n        /* \"#utility.yul\":7676:7681   */\n      dup2\n        /* \"#utility.yul\":7658:7682   */\n      tag_222\n      jump\t// in\n    tag_330:\n        /* \"#utility.yul\":7653:7656   */\n      dup3\n        /* \"#utility.yul\":7646:7683   */\n      mstore\n        /* \"#utility.yul\":7571:7689   */\n      pop\n      pop\n      jump\t// out\n        /* \"#utility.yul\":7695:7917   */\n    tag_69:\n        /* \"#utility.yul\":7788:7792   */\n      0x00\n        /* \"#utility.yul\":7826:7828   */\n      0x20\n        /* \"#utility.yul\":7815:7824   */\n      dup3\n        /* \"#utility.yul\":7811:7829   */\n      add\n        /* \"#utility.yul\":7803:7829   */\n      swap1\n      pop\n        /* \"#utility.yul\":7839:7910   */\n      tag_332\n        /* \"#utility.yul\":7907:7908   */\n      0x00\n        /* \"#utility.yul\":7896:7905   */\n      dup4\n        /* \"#utility.yul\":7892:7909   */\n      add\n        /* \"#utility.yul\":7883:7889   */\n      dup5\n        /* \"#utility.yul\":7839:7910   */\n      tag_233\n      jump\t// in\n    tag_332:\n        /* \"#utility.yul\":7695:7917   */\n      swap3\n      swap2\n      pop\n      pop\n      jump\t// out\n        /* \"#utility.yul\":7923:8103   */\n    tag_234:\n        /* \"#utility.yul\":7971:8048   */\n      0x4e487b7100000000000000000000000000000000000000000000000000000000\n        /* \"#utility.yul\":7968:7969   */\n      0x00\n        /* \"#utility.yul\":7961:8049   */\n      mstore\n        /* \"#utility.yul\":8068:8072   */\n      0x11\n        /* \"#utility.yul\":8065:8066   */\n      0x04\n        /* \"#utility.yul\":8058:8073   */\n      mstore\n        /* \"#utility.yul\":8092:8096   */\n      0x24\n        /* \"#utility.yul\":8089:8090   */\n      0x00\n        /* \"#utility.yul\":8082:8097   */\n      revert\n        /* \"#utility.yul\":8109:8300   */\n    tag_85:\n        /* \"#utility.yul\":8149:8152   */\n      0x00\n        /* \"#utility.yul\":8168:8188   */\n      tag_335\n        /* \"#utility.yul\":8186:8187   */\n      dup3\n        /* \"#utility.yul\":8168:8188   */\n      tag_201\n      jump\t// in\n    tag_335:\n        /* \"#utility.yul\":8163:8188   */\n      swap2\n      pop\n        /* \"#utility.yul\":8202:8222   */\n      tag_336\n        /* \"#utility.yul\":8220:8221   */\n      dup4\n        /* \"#utility.yul\":8202:8222   */\n      tag_201\n      jump\t// in\n    tag_336:\n        /* \"#utility.yul\":8197:8222   */\n      swap3\n      pop\n        /* \"#utility.yul\":8245:8246   */\n      dup3\n        /* \"#utility.yul\":8242:8243   */\n      dup3\n        /* \"#utility.yul\":8238:8247   */\n      add\n        /* \"#utility.yul\":8231:8247   */\n      swap1\n      pop\n        /* \"#utility.yul\":8266:8269   */\n      dup1\n        /* \"#utility.yul\":8263:8264   */\n      dup3\n        /* \"#utility.yul\":8260:8270   */\n      gt\n        /* \"#utility.yul\":8257:8293   */\n      iszero\n      tag_337\n      jumpi\n        /* \"#utility.yul\":8273:8291   */\n      tag_338\n      tag_234\n      jump\t// in\n    tag_338:\n        /* \"#utility.yul\":8257:8293   */\n    tag_337:\n        /* \"#utility.yul\":8109:8300   */\n      swap3\n      swap2\n      pop\n      pop\n      jump\t// out\n        /* \"#utility.yul\":8306:8539   */\n    tag_88:\n        /* \"#utility.yul\":8345:8348   */\n      0x00\n        /* \"#utility.yul\":8368:8392   */\n      tag_340\n        /* \"#utility.yul\":8386:8391   */\n      dup3\n        /* \"#utility.yul\":8368:8392   */\n      tag_201\n      jump\t// in\n    tag_340:\n        /* \"#utility.yul\":8359:8392   */\n      swap2\n      pop\n        /* \"#utility.yul\":8414:8480   */\n      0xffffffffffffffffffffffffffffffffffffffffffffffffffffffffffffffff\n        /* \"#utility.yul\":8407:8412   */\n      dup3\n        /* \"#utility.yul\":8404:8481   */\n      sub\n        /* \"#utility.yul\":8401:8504   */\n      tag_341\n      jumpi\n        /* \"#utility.yul\":8484:8502   */\n      tag_342\n      tag_234\n      jump\t// in\n    tag_342:\n        /* \"#utility.yul\":8401:8504   */\n    tag_341:\n        /* \"#utility.yul\":8531:8532   */\n      0x01\n        /* \"#utility.yul\":8524:8529   */\n      dup3\n        /* \"#utility.yul\":8520:8533   */\n      add\n        /* \"#utility.yul\":8513:8533   */\n      swap1\n      pop\n        /* \"#utility.yul\":8306:8539   */\n      swap2\n      swap1\n      pop\n      jump\t// out\n        /* \"#utility.yul\":8545:8688   */\n    tag_235:\n        /* \"#utility.yul\":8602:8607   */\n      0x00\n        /* \"#utility.yul\":8633:8639   */\n      dup2\n        /* \"#utility.yul\":8627:8640   */\n      mload\n        /* \"#utility.yul\":8618:8640   */\n      swap1\n      pop\n        /* \"#utility.yul\":8649:8682   */\n      tag_344\n        /* \"#utility.yul\":8676:8681   */\n      dup2\n        /* \"#utility.yul\":8649:8682   */\n      tag_206\n      jump\t// in\n    tag_344:\n        /* \"#utility.yul\":8545:8688   */\n      swap3\n      swap2\n      pop\n      pop\n      jump\t// out\n        /* \"#utility.yul\":8694:9045   */\n    tag_97:\n        /* \"#utility.yul\":8764:8770   */\n      0x00\n        /* \"#utility.yul\":8813:8815   */\n      0x20\n        /* \"#utility.yul\":8801:8810   */\n      dup3\n        /* \"#utility.yul\":8792:8799   */\n      dup5\n        /* \"#utility.yul\":8788:8811   */\n      sub\n        /* \"#utility.yul\":8784:8816   */\n      slt\n        /* \"#utility.yul\":8781:8900   */\n      iszero\n      tag_346\n      jumpi\n        /* \"#utility.yul\":8819:8898   */\n      tag_347\n      tag_204\n      jump\t// in\n    tag_347:\n        /* \"#utility.yul\":8781:8900   */\n    tag_346:\n        /* \"#utility.yul\":8939:8940   */\n      0x00\n        /* \"#utility.yul\":8964:9028   */\n      tag_348\n        /* \"#utility.yul\":9020:9027   */\n      dup5\n        /* \"#utility.yul\":9011:9017   */\n      dup3\n        /* \"#utility.yul\":9000:9009   */\n      dup6\n        /* \"#utility.yul\":8996:9018   */\n      add\n        /* \"#utility.yul\":8964:9028   */\n      tag_235\n      jump\t// in\n    tag_348:\n        /* \"#utility.yul\":8954:9028   */\n      swap2\n      pop\n        /* \"#utility.yul\":8910:9038   */\n      pop\n        /* \"#utility.yul\":8694:9045   */\n      swap3\n      swap2\n      pop\n      pop\n      jump\t// out\n        /* \"#utility.yul\":9051:9231   */\n    tag_102:\n        /* \"#utility.yul\":9099:9176   */\n      0x4e487b7100000000000000000000000000000000000000000000000000000000\n        /* \"#utility.yul\":9096:9097   */\n      0x00\n        /* \"#utility.yul\":9089:9177   */\n      mstore\n        /* \"#utility.yul\":9196:9200   */\n      0x32\n        /* \"#utility.yul\":9193:9194   */\n      0x04\n        /* \"#utility.yul\":9186:9201   */\n      mstore\n        /* \"#utility.yul\":9220:9224   */\n      0x24\n        /* \"#utility.yul\":9217:9218   */\n      0x00\n        /* \"#utility.yul\":9210:9225   */\n      revert\n        /* \"#utility.yul\":9237:9417   */\n    tag_236:\n        /* \"#utility.yul\":9285:9362   */\n      0x4e487b7100000000000000000000000000000000000000000000000000000000\n        /* \"#utility.yul\":9282:9283   */\n      0x00\n        /* \"#utility.yul\":9275:9363   */\n      mstore\n        /* \"#utility.yul\":9382:9386   */\n      0x12\n        /* \"#utility.yul\":9379:9380   */\n      0x04\n        /* \"#utility.yul\":9372:9387   */\n      mstore\n        /* \"#utility.yul\":9406:9410   */\n      0x24\n        /* \"#utility.yul\":9403:9404   */\n      0x00\n        /* \"#utility.yul\":9396:9411   */\n      revert\n        /* \"#utility.yul\":9423:9608   */\n    tag_116:\n        /* \"#utility.yul\":9463:9464   */\n      0x00\n        /* \"#utility.yul\":9480:9500   */\n      tag_352\n        /* \"#utility.yul\":9498:9499   */\n      dup3\n        /* \"#utility.yul\":9480:9500   */\n      tag_201\n      jump\t// in\n    tag_352:\n        /* \"#utility.yul\":9475:9500   */\n      swap2\n      pop\n        /* \"#utility.yul\":9514:9534   */\n      tag_353\n        /* \"#utility.yul\":9532:9533   */\n      dup4\n        /* \"#utility.yul\":9514:9534   */\n      tag_201\n      jump\t// in\n    tag_353:\n        /* \"#utility.yul\":9509:9534   */\n      swap3\n      pop\n        /* \"#utility.yul\":9553:9554   */\n      dup3\n        /* \"#utility.yul\":9543:9578   */\n      tag_354\n      jumpi\n        /* \"#utility.yul\":9558:9576   */\n      tag_355\n      tag_236\n      jump\t// in\n    tag_355:\n        /* \"#utility.yul\":9543:9578   */\n    tag_354:\n        /* \"#utility.yul\":9600:9601   */\n      dup3\n        /* \"#utility.yul\":9597:9598   */\n      dup3\n        /* \"#utility.yul\":9593:9602   */\n      div\n        /* \"#utility.yul\":9588:9602   */\n      swap1\n      pop\n        /* \"#utility.yul\":9423:9608   */\n      swap3\n      swap2\n      pop\n      pop\n      jump\t// out\n        /* \"#utility.yul\":9614:9757   */\n    tag_237:\n        /* \"#utility.yul\":9671:9676   */\n      0x00\n        /* \"#utility.yul\":9702:9708   */\n      dup2\n        /* \"#utility.yul\":9696:9709   */\n      mload\n        /* \"#utility.yul\":9687:9709   */\n      swap1\n      pop\n        /* \"#utility.yul\":9718:9751   */\n      tag_357\n        /* \"#utility.yul\":9745:9750   */\n      dup2\n        /* \"#utility.yul\":9718:9751   */\n      tag_223\n      jump\t// in\n    tag_357:\n        /* \"#utility.yul\":9614:9757   */\n      swap3\n      swap2\n      pop\n      pop\n      jump\t// out\n        /* \"#utility.yul\":9763:10114   */\n    tag_144:\n        /* \"#utility.yul\":9833:9839   */\n      0x00\n        /* \"#utility.yul\":9882:9884   */\n      0x20\n        /* \"#utility.yul\":9870:9879   */\n      dup3\n        /* \"#utility.yul\":9861:9868   */\n      dup5\n        /* \"#utility.yul\":9857:9880   */\n      sub\n        /* \"#utility.yul\":9853:9885   */\n      slt\n        /* \"#utility.yul\":9850:9969   */\n      iszero\n      tag_359\n      jumpi\n        /* \"#utility.yul\":9888:9967   */\n      tag_360\n      tag_204\n      jump\t// in\n    tag_360:\n        /* \"#utility.yul\":9850:9969   */\n    tag_359:\n        /* \"#utility.yul\":10008:10009   */\n      0x00\n        /* \"#utility.yul\":10033:10097   */\n      tag_361\n        /* \"#utility.yul\":10089:10096   */\n      dup5\n        /* \"#utility.yul\":10080:10086   */\n      dup3\n        /* \"#utility.yul\":10069:10078   */\n      dup6\n        /* \"#utility.yul\":10065:10087   */\n      add\n        /* \"#utility.yul\":10033:10097   */\n      tag_237\n      jump\t// in\n    tag_361:\n        /* \"#utility.yul\":10023:10097   */\n      swap2\n      pop\n        /* \"#utility.yul\":9979:10107   */\n      pop\n        /* \"#utility.yul\":9763:10114   */\n      swap3\n      swap2\n      pop\n      pop\n      jump\t// out\n        /* \"#utility.yul\":10120:10296   */\n    tag_175:\n        /* \"#utility.yul\":10152:10153   */\n      0x00\n        /* \"#utility.yul\":10169:10189   */\n      tag_363\n        /* \"#utility.yul\":10187:10188   */\n      dup3\n        /* \"#utility.yul\":10169:10189   */\n      tag_201\n      jump\t// in\n    tag_363:\n        /* \"#utility.yul\":10164:10189   */\n      swap2\n      pop\n        /* \"#utility.yul\":10203:10223   */\n      tag_364\n        /* \"#utility.yul\":10221:10222   */\n      dup4\n        /* \"#utility.yul\":10203:10223   */\n      tag_201\n      jump\t// in\n    tag_364:\n        /* \"#utility.yul\":10198:10223   */\n      swap3\n      pop\n        /* \"#utility.yul\":10242:10243   */\n      dup3\n        /* \"#utility.yul\":10232:10267   */\n      tag_365\n      jumpi\n        /* \"#utility.yul\":10247:10265   */\n      tag_366\n      tag_236\n      jump\t// in\n    tag_366:\n        /* \"#utility.yul\":10232:10267   */\n    tag_365:\n        /* \"#utility.yul\":10288:10289   */\n      dup3\n        /* \"#utility.yul\":10285:10286   */\n      dup3\n        /* \"#utility.yul\":10281:10290   */\n      mod\n        /* \"#utility.yul\":10276:10290   */\n      swap1\n      pop\n        /* \"#utility.yul\":10120:10296   */\n      swap3\n      swap2\n      pop\n      pop\n      jump\t// out\n\n    auxdata: 0xa2646970667358221220494fd612d7c377bb43d2afc1ff6a0bffefb14840a21b16ad7104a2863dd2640864736f6c634300081a0033\n}\n\nsub_1: assembly {\n        /* \"TimeUnit.sol\":136:1086  contract TimeUnit { ... */\n      mstore(0x40, 0x80)\n      callvalue\n      dup1\n      iszero\n      tag_1\n      jumpi\n      0x00\n      dup1\n      revert\n    tag_1:\n      pop\n      dataSize(sub_0)\n      dup1\n      dataOffset(sub_0)\n      0x00\n      codecopy\n      0x00\n      return\n    stop\n\n    sub_0: assembly {\n            /* \"TimeUnit.sol\":136:1086  contract TimeUnit { ... */\n          mstore(0x40, 0x80)\n          callvalue\n          dup1\n          iszero\n          tag_1\n          jumpi\n          0x00\n          dup1\n          revert\n        tag_1:\n          pop\n          jumpi(tag_2, lt(calldatasize, 0x04))\n          shr(0xe0, calldataload(0x00))\n          dup1\n          0x78e97925\n          eq\n          tag_3\n          jumpi\n          dup1\n          0xa63f7c53\n          eq\n          tag_4\n          jumpi\n          dup1\n          0xbc06b8cd\n          eq\n          tag_5\n          jumpi\n          dup1\n          0xd97c8416\n          eq\n          tag_6\n          jumpi\n        tag_2:\n          0x00\n          dup1\n          revert\n            /* \"TimeUnit.sol\":307:331  uint256 public startTime */\n        tag_3:\n          tag_7\n          tag_8\n          jump\t// in\n        tag_7:\n          mload(0x40)\n          tag_9\n          swap2\n          swap1\n          tag_10\n          jump\t// in\n        tag_9:\n          mload(0x40)\n          dup1\n          swap2\n          sub\n          swap1\n          return\n            /* \"TimeUnit.sol\":379:452  function setStartTime() public { ... */\n        tag_4:\n          tag_11\n          tag_12\n          jump\t// in\n        tag_11:\n          stop\n            /* \"TimeUnit.sol\":576:683  function elapsedSeconds() public view returns (uint256) { ... */\n        tag_5:\n          tag_13\n          tag_14\n          jump\t// in\n        tag_13:\n          mload(0x40)\n          tag_15\n          swap2\n          swap1\n          tag_10\n          jump\t// in\n        tag_15:\n          mload(0x40)\n          dup1\n          swap2\n          sub\n          swap1\n          return\n            /* \"TimeUnit.sol\":799:1082  function elapsedMinutes() public view returns (uint256) { ... */\n        tag_6:\n          tag_16\n          tag_17\n          jump\t// in\n        tag_16:\n          mload(0x40)\n          tag_18\n          swap2\n          swap1\n          tag_10\n          jump\t// in\n        tag_18:\n          mload(0x40)\n          dup1\n          swap2\n          sub\n          swap1\n          return\n            /* \"TimeUnit.sol\":307:331  uint256 public startTime */\n        tag_8:\n          sload(0x00)\n          dup2\n          jump\t// out\n            /* \"TimeUnit.sol\":379:452  function setStartTime() public { ... */\n        tag_12:\n            /* \"TimeUnit.sol\":430:445  block.timestamp */\n          timestamp\n            /* \"TimeUnit.sol\":418:427  startTime */\n          0x00\n            /* \"TimeUnit.sol\":418:445  startTime = block.timestamp */\n          dup2\n          swap1\n          sstore\n          pop\n            /* \"TimeUnit.sol\":379:452  function setStartTime() public { ... */\n          jump\t// out\n            /* \"TimeUnit.sol\":576:683  function elapsedSeconds() public view returns (uint256) { ... */\n        tag_14:\n            /* \"TimeUnit.sol\":623:630  uint256 */\n          0x00\n            /* \"TimeUnit.sol\":666:675  startTime */\n          dup1\n          sload\n            /* \"TimeUnit.sol\":648:663  block.timestamp */\n          timestamp\n            /* \"TimeUnit.sol\":648:675  block.timestamp - startTime */\n          tag_21\n          swap2\n          swap1\n          tag_22\n          jump\t// in\n        tag_21:\n            /* \"TimeUnit.sol\":640:676  return (block.timestamp - startTime) */\n          swap1\n          pop\n            /* \"TimeUnit.sol\":576:683  function elapsedSeconds() public view returns (uint256) { ... */\n          swap1\n          jump\t// out\n            /* \"TimeUnit.sol\":799:1082  function elapsedMinutes() public view returns (uint256) { ... */\n        tag_17:\n            /* \"TimeUnit.sol\":846:853  uint256 */\n          0x00\n            /* \"TimeUnit.sol\":1066:1075  1 minutes */\n          0x3c\n            /* \"TimeUnit.sol\":1053:1062  startTime */\n          sload(0x00)\n            /* \"TimeUnit.sol\":1035:1050  block.timestamp */\n          timestamp\n            /* \"TimeUnit.sol\":1035:1062  block.timestamp - startTime */\n          tag_24\n          swap2\n          swap1\n          tag_22\n          jump\t// in\n        tag_24:\n            /* \"TimeUnit.sol\":1034:1075  (block.timestamp - startTime) / 1 minutes */\n          tag_25\n          swap2\n          swap1\n          tag_26\n          jump\t// in\n        tag_25:\n            /* \"TimeUnit.sol\":1027:1075  return (block.timestamp - startTime) / 1 minutes */\n          swap1\n          pop\n            /* \"TimeUnit.sol\":799:1082  function elapsedMinutes() public view returns (uint256) { ... */\n          swap1\n          jump\t// out\n            /* \"#utility.yul\":7:84   */\n        tag_27:\n            /* \"#utility.yul\":44:51   */\n          0x00\n            /* \"#utility.yul\":73:78   */\n          dup2\n            /* \"#utility.yul\":62:78   */\n          swap1\n          pop\n            /* \"#utility.yul\":7:84   */\n          swap2\n          swap1\n          pop\n          jump\t// out\n            /* \"#utility.yul\":90:208   */\n        tag_28:\n            /* \"#utility.yul\":177:201   */\n          tag_34\n            /* \"#utility.yul\":195:200   */\n          dup2\n            /* \"#utility.yul\":177:201   */\n          tag_27\n          jump\t// in\n        tag_34:\n            /* \"#utility.yul\":172:175   */\n          dup3\n            /* \"#utility.yul\":165:202   */\n          mstore\n            /* \"#utility.yul\":90:208   */\n          pop\n          pop\n          jump\t// out\n            /* \"#utility.yul\":214:436   */\n        tag_10:\n            /* \"#utility.yul\":307:311   */\n          0x00\n            /* \"#utility.yul\":345:347   */\n          0x20\n            /* \"#utility.yul\":334:343   */\n          dup3\n            /* \"#utility.yul\":330:348   */\n          add\n            /* \"#utility.yul\":322:348   */\n          swap1\n          pop\n            /* \"#utility.yul\":358:429   */\n          tag_36\n            /* \"#utility.yul\":426:427   */\n          0x00\n            /* \"#utility.yul\":415:424   */\n          dup4\n            /* \"#utility.yul\":411:428   */\n          add\n            /* \"#utility.yul\":402:408   */\n          dup5\n            /* \"#utility.yul\":358:429   */\n          tag_28\n          jump\t// in\n        tag_36:\n            /* \"#utility.yul\":214:436   */\n          swap3\n          swap2\n          pop\n          pop\n          jump\t// out\n            /* \"#utility.yul\":442:622   */\n        tag_29:\n            /* \"#utility.yul\":490:567   */\n          0x4e487b7100000000000000000000000000000000000000000000000000000000\n            /* \"#utility.yul\":487:488   */\n          0x00\n            /* \"#utility.yul\":480:568   */\n          mstore\n            /* \"#utility.yul\":587:591   */\n          0x11\n            /* \"#utility.yul\":584:585   */\n          0x04\n            /* \"#utility.yul\":577:592   */\n          mstore\n            /* \"#utility.yul\":611:615   */\n          0x24\n            /* \"#utility.yul\":608:609   */\n          0x00\n            /* \"#utility.yul\":601:616   */\n          revert\n            /* \"#utility.yul\":628:822   */\n        tag_22:\n            /* \"#utility.yul\":668:672   */\n          0x00\n            /* \"#utility.yul\":688:708   */\n          tag_39\n            /* \"#utility.yul\":706:707   */\n          dup3\n            /* \"#utility.yul\":688:708   */\n          tag_27\n          jump\t// in\n        tag_39:\n            /* \"#utility.yul\":683:708   */\n          swap2\n          pop\n            /* \"#utility.yul\":722:742   */\n          tag_40\n            /* \"#utility.yul\":740:741   */\n          dup4\n            /* \"#utility.yul\":722:742   */\n          tag_27\n          jump\t// in\n        tag_40:\n            /* \"#utility.yul\":717:742   */\n          swap3\n          pop\n            /* \"#utility.yul\":766:767   */\n          dup3\n            /* \"#utility.yul\":763:764   */\n          dup3\n            /* \"#utility.yul\":759:768   */\n          sub\n            /* \"#utility.yul\":751:768   */\n          swap1\n          pop\n            /* \"#utility.yul\":790:791   */\n          dup2\n            /* \"#utility.yul\":784:788   */\n          dup2\n            /* \"#utility.yul\":781:792   */\n          gt\n            /* \"#utility.yul\":778:815   */\n          iszero\n          tag_41\n          jumpi\n            /* \"#utility.yul\":795:813   */\n          tag_42\n          tag_29\n          jump\t// in\n        tag_42:\n            /* \"#utility.yul\":778:815   */\n        tag_41:\n            /* \"#utility.yul\":628:822   */\n          swap3\n          swap2\n          pop\n          pop\n          jump\t// out\n            /* \"#utility.yul\":828:1008   */\n        tag_30:\n            /* \"#utility.yul\":876:953   */\n          0x4e487b7100000000000000000000000000000000000000000000000000000000\n            /* \"#utility.yul\":873:874   */\n          0x00\n            /* \"#utility.yul\":866:954   */\n          mstore\n            /* \"#utility.yul\":973:977   */\n          0x12\n            /* \"#utility.yul\":970:971   */\n          0x04\n            /* \"#utility.yul\":963:978   */\n          mstore\n            /* \"#utility.yul\":997:1001   */\n          0x24\n            /* \"#utility.yul\":994:995   */\n          0x00\n            /* \"#utility.yul\":987:1002   */\n          revert\n            /* \"#utility.yul\":1014:1199   */\n        tag_26:\n            /* \"#utility.yul\":1054:1055   */\n          0x00\n            /* \"#utility.yul\":1071:1091   */\n          tag_45\n            /* \"#utility.yul\":1089:1090   */\n          dup3\n            /* \"#utility.yul\":1071:1091   */\n          tag_27\n          jump\t// in\n        tag_45:\n            /* \"#utility.yul\":1066:1091   */\n          swap2\n          pop\n            /* \"#utility.yul\":1105:1125   */\n          tag_46\n            /* \"#utility.yul\":1123:1124   */\n          dup4\n            /* \"#utility.yul\":1105:1125   */\n          tag_27\n          jump\t// in\n        tag_46:\n            /* \"#utility.yul\":1100:1125   */\n          swap3\n          pop\n            /* \"#utility.yul\":1144:1145   */\n          dup3\n            /* \"#utility.yul\":1134:1169   */\n          tag_47\n          jumpi\n            /* \"#utility.yul\":1149:1167   */\n          tag_48\n          tag_30\n          jump\t// in\n        tag_48:\n            /* \"#utility.yul\":1134:1169   */\n        tag_47:\n            /* \"#utility.yul\":1191:1192   */\n          dup3\n            /* \"#utility.yul\":1188:1189   */\n          dup3\n            /* \"#utility.yul\":1184:1193   */\n          div\n            /* \"#utility.yul\":1179:1193   */\n          swap1\n          pop\n            /* \"#utility.yul\":1014:1199   */\n          swap3\n          swap2\n          pop\n          pop\n          jump\t// out\n\n        auxdata: 0xa2646970667358221220aac731c651a41091e78c4c68ca2cde2e708ec23868c1bbf8979319bbf0b1f7c164736f6c634300081a0033\n    }\n}\n\nsub_2: assembly {\n        /* \"CommitReveal.sol\":70:1928  contract CommitReveal {... */\n      mstore(0x40, 0x80)\n        /* \"CommitReveal.sol\":116:119  100 */\n      0x64\n        /* \"CommitReveal.sol\":97:119  uint8 public max = 100 */\n      0x00\n      dup1\n      0x0100\n      exp\n      dup2\n      sload\n      dup2\n      0xff\n      mul\n      not\n      and\n      swap1\n      dup4\n      0xff\n      and\n      mul\n      or\n      swap1\n      sstore\n      pop\n        /* \"CommitReveal.sol\":70:1928  contract CommitReveal {... */\n      callvalue\n      dup1\n      iszero\n      tag_1\n      jumpi\n      0x00\n      dup1\n      revert\n    tag_1:\n      pop\n      dataSize(sub_0)\n      dup1\n      dataOffset(sub_0)\n      0x00\n      codecopy\n      0x00\n      return\n    stop\n\n    sub_0: assembly {\n            /* \"CommitReveal.sol\":70:1928  contract CommitReveal {... */\n          mstore(0x40, 0x80)\n          callvalue\n          dup1\n          iszero\n          tag_1\n          jumpi\n          0x00\n          dup1\n          revert\n        tag_1:\n          pop\n          jumpi(tag_2, lt(calldatasize, 0x04))\n          shr(0xe0, calldataload(0x00))\n          dup1\n          0x3cf5040a\n          eq\n          tag_3\n          jumpi\n          dup1\n          0x6ac5db19\n          eq\n          tag_4\n          jumpi\n          dup1\n          0x701fd0f1\n          eq\n          tag_5\n          jumpi\n          dup1\n          0x7b43a8e6\n          eq\n          tag_6\n          jumpi\n          dup1\n          0xf14fcbc8\n          eq\n          tag_7\n          jumpi\n        tag_2:\n          0x00\n          dup1\n          revert\n            /* \"CommitReveal.sol\":1816:1926  function getHash(bytes32 data) public pure returns(bytes32){... */\n        tag_3:\n          tag_8\n          0x04\n          dup1\n          calldatasize\n          sub\n          dup2\n          add\n          swap1\n          tag_9\n          swap2\n          swap1\n          tag_10\n          jump\t// in\n        tag_9:\n          tag_11\n          jump\t// in\n        tag_8:\n          mload(0x40)\n          tag_12\n          swap2\n          swap1\n          tag_13\n          jump\t// in\n        tag_12:\n          mload(0x40)\n          dup1\n          swap2\n          sub\n          swap1\n          return\n            /* \"CommitReveal.sol\":97:119  uint8 public max = 100 */\n        tag_4:\n          tag_14\n          tag_15\n          jump\t// in\n        tag_14:\n          mload(0x40)\n          tag_16\n          swap2\n          swap1\n          tag_17\n          jump\t// in\n        tag_16:\n          mload(0x40)\n          dup1\n          swap2\n          sub\n          swap1\n          return\n            /* \"CommitReveal.sol\":594:1743  function reveal(bytes32 revealHash) public {... */\n        tag_5:\n          tag_18\n          0x04\n          dup1\n          calldatasize\n          sub\n          dup2\n          add\n          swap1\n          tag_19\n          swap2\n          swap1\n          tag_10\n          jump\t// in\n        tag_19:\n          tag_20\n          jump\t// in\n        tag_18:\n          stop\n            /* \"CommitReveal.sol\":204:246  mapping (address => Commit) public commits */\n        tag_6:\n          tag_21\n          0x04\n          dup1\n          calldatasize\n          sub\n          dup2\n          add\n          swap1\n          tag_22\n          swap2\n          swap1\n          tag_23\n          jump\t// in\n        tag_22:\n          tag_24\n          jump\t// in\n        tag_21:\n          mload(0x40)\n          tag_25\n          swap4\n          swap3\n          swap2\n          swap1\n          tag_26\n          jump\t// in\n        tag_25:\n          mload(0x40)\n          dup1\n          swap2\n          sub\n          swap1\n          return\n            /* \"CommitReveal.sol\":251:522  function commit(bytes32 dataHash) public {... */\n        tag_7:\n          tag_27\n          0x04\n          dup1\n          calldatasize\n          sub\n          dup2\n          add\n          swap1\n          tag_28\n          swap2\n          swap1\n          tag_10\n          jump\t// in\n        tag_28:\n          tag_29\n          jump\t// in\n        tag_27:\n          stop\n            /* \"CommitReveal.sol\":1816:1926  function getHash(bytes32 data) public pure returns(bytes32){... */\n        tag_11:\n            /* \"CommitReveal.sol\":1867:1874  bytes32 */\n          0x00\n            /* \"CommitReveal.sol\":1915:1919  data */\n          dup2\n            /* \"CommitReveal.sol\":1898:1920  abi.encodePacked(data) */\n          add(0x20, mload(0x40))\n          tag_31\n          swap2\n          swap1\n          tag_32\n          jump\t// in\n        tag_31:\n          mload(0x40)\n          0x20\n          dup2\n          dup4\n          sub\n          sub\n          dup2\n          mstore\n          swap1\n          0x40\n          mstore\n            /* \"CommitReveal.sol\":1888:1921  keccak256(abi.encodePacked(data)) */\n          dup1\n          mload\n          swap1\n          0x20\n          add\n          keccak256\n            /* \"CommitReveal.sol\":1881:1921  return keccak256(abi.encodePacked(data)) */\n          swap1\n          pop\n            /* \"CommitReveal.sol\":1816:1926  function getHash(bytes32 data) public pure returns(bytes32){... */\n          swap2\n          swap1\n          pop\n          jump\t// out\n            /* \"CommitReveal.sol\":97:119  uint8 public max = 100 */\n        tag_15:\n          0x00\n          dup1\n          sload\n          swap1\n          0x0100\n          exp\n          swap1\n          div\n          0xff\n          and\n          dup2\n          jump\t// out\n            /* \"CommitReveal.sol\":594:1743  function reveal(bytes32 revealHash) public {... */\n        tag_20:\n            /* \"CommitReveal.sol\":748:753  false */\n          0x00\n            /* \"CommitReveal.sol\":718:753  commits[msg.sender].revealed==false */\n          iszero\n          iszero\n            /* \"CommitReveal.sol\":718:725  commits */\n          0x01\n            /* \"CommitReveal.sol\":718:737  commits[msg.sender] */\n          0x00\n            /* \"CommitReveal.sol\":726:736  msg.sender */\n          caller\n            /* \"CommitReveal.sol\":718:737  commits[msg.sender] */\n          0xffffffffffffffffffffffffffffffffffffffff\n          and\n          0xffffffffffffffffffffffffffffffffffffffff\n          and\n          dup2\n          mstore\n          0x20\n          add\n          swap1\n          dup2\n          mstore\n          0x20\n          add\n          0x00\n          keccak256\n            /* \"CommitReveal.sol\":718:746  commits[msg.sender].revealed */\n          0x01\n          add\n          0x08\n          swap1\n          sload\n          swap1\n          0x0100\n          exp\n          swap1\n          div\n          0xff\n          and\n            /* \"CommitReveal.sol\":718:753  commits[msg.sender].revealed==false */\n          iszero\n          iszero\n          eq\n            /* \"CommitReveal.sol\":710:795  require(commits[msg.sender].revealed==false,\"CommitReveal::reveal: Already revealed\") */\n          tag_34\n          jumpi\n          mload(0x40)\n          0x08c379a000000000000000000000000000000000000000000000000000000000\n          dup2\n          mstore\n          0x04\n          add\n          tag_35\n          swap1\n          tag_36\n          jump\t// in\n        tag_35:\n          mload(0x40)\n          dup1\n          swap2\n          sub\n          swap1\n          revert\n        tag_34:\n            /* \"CommitReveal.sol\":830:834  true */\n          0x01\n            /* \"CommitReveal.sol\":801:808  commits */\n          dup1\n            /* \"CommitReveal.sol\":801:820  commits[msg.sender] */\n          0x00\n            /* \"CommitReveal.sol\":809:819  msg.sender */\n          caller\n            /* \"CommitReveal.sol\":801:820  commits[msg.sender] */\n          0xffffffffffffffffffffffffffffffffffffffff\n          and\n          0xffffffffffffffffffffffffffffffffffffffff\n          and\n          dup2\n          mstore\n          0x20\n          add\n          swap1\n          dup2\n          mstore\n          0x20\n          add\n          0x00\n          keccak256\n            /* \"CommitReveal.sol\":801:829  commits[msg.sender].revealed */\n          0x01\n          add\n          0x08\n            /* \"CommitReveal.sol\":801:834  commits[msg.sender].revealed=true */\n          0x0100\n          exp\n          dup2\n          sload\n          dup2\n          0xff\n          mul\n          not\n          and\n          swap1\n          dup4\n          iszero\n          iszero\n          mul\n          or\n          swap1\n          sstore\n          pop\n            /* \"CommitReveal.sol\":924:931  commits */\n          0x01\n            /* \"CommitReveal.sol\":924:943  commits[msg.sender] */\n          0x00\n            /* \"CommitReveal.sol\":932:942  msg.sender */\n          caller\n            /* \"CommitReveal.sol\":924:943  commits[msg.sender] */\n          0xffffffffffffffffffffffffffffffffffffffff\n          and\n          0xffffffffffffffffffffffffffffffffffffffff\n          and\n          dup2\n          mstore\n          0x20\n          add\n          swap1\n          dup2\n          mstore\n          0x20\n          add\n          0x00\n          keccak256\n            /* \"CommitReveal.sol\":924:950  commits[msg.sender].commit */\n          0x00\n          add\n          sload\n            /* \"CommitReveal.sol\":903:922  getHash(revealHash) */\n          tag_37\n            /* \"CommitReveal.sol\":911:921  revealHash */\n          dup3\n            /* \"CommitReveal.sol\":903:910  getHash */\n          tag_11\n            /* \"CommitReveal.sol\":903:922  getHash(revealHash) */\n          jump\t// in\n        tag_37:\n            /* \"CommitReveal.sol\":903:950  getHash(revealHash)==commits[msg.sender].commit */\n          eq\n            /* \"CommitReveal.sol\":895:1011  require(getHash(revealHash)==commits[msg.sender].commit,\"CommitReveal::reveal: Revealed hash does not match commit\") */\n          tag_38\n          jumpi\n          mload(0x40)\n          0x08c379a000000000000000000000000000000000000000000000000000000000\n          dup2\n          mstore\n          0x04\n          add\n          tag_39\n          swap1\n          tag_40\n          jump\t// in\n        tag_39:\n          mload(0x40)\n          dup1\n          swap2\n          sub\n          swap1\n          revert\n        tag_38:\n            /* \"CommitReveal.sol\":1117:1124  commits */\n          0x01\n            /* \"CommitReveal.sol\":1117:1136  commits[msg.sender] */\n          0x00\n            /* \"CommitReveal.sol\":1125:1135  msg.sender */\n          caller\n            /* \"CommitReveal.sol\":1117:1136  commits[msg.sender] */\n          0xffffffffffffffffffffffffffffffffffffffff\n          and\n          0xffffffffffffffffffffffffffffffffffffffff\n          and\n          dup2\n          mstore\n          0x20\n          add\n          swap1\n          dup2\n          mstore\n          0x20\n          add\n          0x00\n          keccak256\n            /* \"CommitReveal.sol\":1117:1142  commits[msg.sender].block */\n          0x01\n          add\n          0x00\n          swap1\n          sload\n          swap1\n          0x0100\n          exp\n          swap1\n          div\n          0xffffffffffffffff\n          and\n            /* \"CommitReveal.sol\":1096:1142  uint64(block.number)>commits[msg.sender].block */\n          0xffffffffffffffff\n          and\n            /* \"CommitReveal.sol\":1103:1115  block.number */\n          number\n            /* \"CommitReveal.sol\":1096:1142  uint64(block.number)>commits[msg.sender].block */\n          0xffffffffffffffff\n          and\n          gt\n            /* \"CommitReveal.sol\":1088:1212  require(uint64(block.number)>commits[msg.sender].block,\"CommitReveal::reveal: Reveal and commit happened on the same block\") */\n          tag_41\n          jumpi\n          mload(0x40)\n          0x08c379a000000000000000000000000000000000000000000000000000000000\n          dup2\n          mstore\n          0x04\n          add\n          tag_42\n          swap1\n          tag_43\n          jump\t// in\n        tag_42:\n          mload(0x40)\n          dup1\n          swap2\n          sub\n          swap1\n          revert\n        tag_41:\n            /* \"CommitReveal.sol\":1329:1332  250 */\n          0xfa\n            /* \"CommitReveal.sol\":1303:1310  commits */\n          0x01\n            /* \"CommitReveal.sol\":1303:1322  commits[msg.sender] */\n          0x00\n            /* \"CommitReveal.sol\":1311:1321  msg.sender */\n          caller\n            /* \"CommitReveal.sol\":1303:1322  commits[msg.sender] */\n          0xffffffffffffffffffffffffffffffffffffffff\n          and\n          0xffffffffffffffffffffffffffffffffffffffff\n          and\n          dup2\n          mstore\n          0x20\n          add\n          swap1\n          dup2\n          mstore\n          0x20\n          add\n          0x00\n          keccak256\n            /* \"CommitReveal.sol\":1303:1328  commits[msg.sender].block */\n          0x01\n          add\n          0x00\n          swap1\n          sload\n          swap1\n          0x0100\n          exp\n          swap1\n          div\n          0xffffffffffffffff\n          and\n            /* \"CommitReveal.sol\":1303:1332  commits[msg.sender].block+250 */\n          tag_44\n          swap2\n          swap1\n          tag_45\n          jump\t// in\n        tag_44:\n            /* \"CommitReveal.sol\":1281:1332  uint64(block.number)<=commits[msg.sender].block+250 */\n          0xffffffffffffffff\n          and\n            /* \"CommitReveal.sol\":1288:1300  block.number */\n          number\n            /* \"CommitReveal.sol\":1281:1332  uint64(block.number)<=commits[msg.sender].block+250 */\n          0xffffffffffffffff\n          and\n          gt\n          iszero\n            /* \"CommitReveal.sol\":1273:1375  require(uint64(block.number)<=commits[msg.sender].block+250,\"CommitReveal::reveal: Revealed too late\") */\n          tag_46\n          jumpi\n          mload(0x40)\n          0x08c379a000000000000000000000000000000000000000000000000000000000\n          dup2\n          mstore\n          0x04\n          add\n          tag_47\n          swap1\n          tag_48\n          jump\t// in\n        tag_47:\n          mload(0x40)\n          dup1\n          swap2\n          sub\n          swap1\n          revert\n        tag_46:\n            /* \"CommitReveal.sol\":1448:1465  bytes32 blockHash */\n          0x00\n            /* \"CommitReveal.sol\":1478:1485  commits */\n          0x01\n            /* \"CommitReveal.sol\":1478:1497  commits[msg.sender] */\n          0x00\n            /* \"CommitReveal.sol\":1486:1496  msg.sender */\n          caller\n            /* \"CommitReveal.sol\":1478:1497  commits[msg.sender] */\n          0xffffffffffffffffffffffffffffffffffffffff\n          and\n          0xffffffffffffffffffffffffffffffffffffffff\n          and\n          dup2\n          mstore\n          0x20\n          add\n          swap1\n          dup2\n          mstore\n          0x20\n          add\n          0x00\n          keccak256\n            /* \"CommitReveal.sol\":1478:1503  commits[msg.sender].block */\n          0x01\n          add\n          0x00\n          swap1\n          sload\n          swap1\n          0x0100\n          exp\n          swap1\n          div\n          0xffffffffffffffff\n          and\n            /* \"CommitReveal.sol\":1468:1504  blockhash(commits[msg.sender].block) */\n          0xffffffffffffffff\n          and\n          blockhash\n            /* \"CommitReveal.sol\":1448:1504  bytes32 blockHash = blockhash(commits[msg.sender].block) */\n          swap1\n          pop\n            /* \"CommitReveal.sol\":1614:1625  uint random */\n          0x00\n            /* \"CommitReveal.sol\":1684:1687  max */\n          dup1\n          0x00\n          swap1\n          sload\n          swap1\n          0x0100\n          exp\n          swap1\n          div\n          0xff\n          and\n            /* \"CommitReveal.sol\":1628:1687  uint(keccak256(abi.encodePacked(blockHash,revealHash)))%max */\n          0xff\n          and\n            /* \"CommitReveal.sol\":1660:1669  blockHash */\n          dup3\n            /* \"CommitReveal.sol\":1670:1680  revealHash */\n          dup5\n            /* \"CommitReveal.sol\":1643:1681  abi.encodePacked(blockHash,revealHash) */\n          add(0x20, mload(0x40))\n          tag_49\n          swap3\n          swap2\n          swap1\n          tag_50\n          jump\t// in\n        tag_49:\n          mload(0x40)\n          0x20\n          dup2\n          dup4\n          sub\n          sub\n          dup2\n          mstore\n          swap1\n          0x40\n          mstore\n            /* \"CommitReveal.sol\":1633:1682  keccak256(abi.encodePacked(blockHash,revealHash)) */\n          dup1\n          mload\n          swap1\n          0x20\n          add\n          keccak256\n            /* \"CommitReveal.sol\":1628:1683  uint(keccak256(abi.encodePacked(blockHash,revealHash))) */\n          0x00\n          shr\n            /* \"CommitReveal.sol\":1628:1687  uint(keccak256(abi.encodePacked(blockHash,revealHash)))%max */\n          tag_51\n          swap2\n          swap1\n          tag_52\n          jump\t// in\n        tag_51:\n            /* \"CommitReveal.sol\":1614:1687  uint random = uint(keccak256(abi.encodePacked(blockHash,revealHash)))%max */\n          swap1\n          pop\n            /* \"CommitReveal.sol\":1698:1738  RevealHash(msg.sender,revealHash,random) */\n          0xbc016dd1cadeaefcb851af7a0a93532e0023d536894b730801f7bcfe7065bcc2\n            /* \"CommitReveal.sol\":1709:1719  msg.sender */\n          caller\n            /* \"CommitReveal.sol\":1720:1730  revealHash */\n          dup5\n            /* \"CommitReveal.sol\":1731:1737  random */\n          dup4\n            /* \"CommitReveal.sol\":1698:1738  RevealHash(msg.sender,revealHash,random) */\n          mload(0x40)\n          tag_53\n          swap4\n          swap3\n          swap2\n          swap1\n          tag_54\n          jump\t// in\n        tag_53:\n          mload(0x40)\n          dup1\n          swap2\n          sub\n          swap1\n          log1\n            /* \"CommitReveal.sol\":637:1743  {... */\n          pop\n          pop\n            /* \"CommitReveal.sol\":594:1743  function reveal(bytes32 revealHash) public {... */\n          pop\n          jump\t// out\n            /* \"CommitReveal.sol\":204:246  mapping (address => Commit) public commits */\n        tag_24:\n          mstore(0x20, 0x01)\n          dup1\n          0x00\n          mstore\n          keccak256(0x00, 0x40)\n          0x00\n          swap2\n          pop\n          swap1\n          pop\n          dup1\n          0x00\n          add\n          sload\n          swap1\n          dup1\n          0x01\n          add\n          0x00\n          swap1\n          sload\n          swap1\n          0x0100\n          exp\n          swap1\n          div\n          0xffffffffffffffff\n          and\n          swap1\n          dup1\n          0x01\n          add\n          0x08\n          swap1\n          sload\n          swap1\n          0x0100\n          exp\n          swap1\n          div\n          0xff\n          and\n          swap1\n          pop\n          dup4\n          jump\t// out\n            /* \"CommitReveal.sol\":251:522  function commit(bytes32 dataHash) public {... */\n        tag_29:\n            /* \"CommitReveal.sol\":327:335  dataHash */\n          dup1\n            /* \"CommitReveal.sol\":298:305  commits */\n          0x01\n            /* \"CommitReveal.sol\":298:317  commits[msg.sender] */\n          0x00\n            /* \"CommitReveal.sol\":306:316  msg.sender */\n          caller\n            /* \"CommitReveal.sol\":298:317  commits[msg.sender] */\n          0xffffffffffffffffffffffffffffffffffffffff\n          and\n          0xffffffffffffffffffffffffffffffffffffffff\n          and\n          dup2\n          mstore\n          0x20\n          add\n          swap1\n          dup2\n          mstore\n          0x20\n          add\n          0x00\n          keccak256\n            /* \"CommitReveal.sol\":298:324  commits[msg.sender].commit */\n          0x00\n          add\n            /* \"CommitReveal.sol\":298:335  commits[msg.sender].commit = dataHash */\n          dup2\n          swap1\n          sstore\n          pop\n            /* \"CommitReveal.sol\":376:388  block.number */\n          number\n            /* \"CommitReveal.sol\":341:348  commits */\n          0x01\n            /* \"CommitReveal.sol\":341:360  commits[msg.sender] */\n          0x00\n            /* \"CommitReveal.sol\":349:359  msg.sender */\n          caller\n            /* \"CommitReveal.sol\":341:360  commits[msg.sender] */\n          0xffffffffffffffffffffffffffffffffffffffff\n          and\n          0xffffffffffffffffffffffffffffffffffffffff\n          and\n          dup2\n          mstore\n          0x20\n          add\n          swap1\n          dup2\n          mstore\n          0x20\n          add\n          0x00\n          keccak256\n            /* \"CommitReveal.sol\":341:366  commits[msg.sender].block */\n          0x01\n          add\n          0x00\n            /* \"CommitReveal.sol\":341:389  commits[msg.sender].block = uint64(block.number) */\n          0x0100\n          exp\n          dup2\n          sload\n          dup2\n          0xffffffffffffffff\n          mul\n          not\n          and\n          swap1\n          dup4\n          0xffffffffffffffff\n          and\n          mul\n          or\n          swap1\n          sstore\n          pop\n            /* \"CommitReveal.sol\":426:431  false */\n          0x00\n            /* \"CommitReveal.sol\":395:402  commits */\n          0x01\n            /* \"CommitReveal.sol\":395:414  commits[msg.sender] */\n          0x00\n            /* \"CommitReveal.sol\":403:413  msg.sender */\n          caller\n            /* \"CommitReveal.sol\":395:414  commits[msg.sender] */\n          0xffffffffffffffffffffffffffffffffffffffff\n          and\n          0xffffffffffffffffffffffffffffffffffffffff\n          and\n          dup2\n          mstore\n          0x20\n          add\n          swap1\n          dup2\n          mstore\n          0x20\n          add\n          0x00\n          keccak256\n            /* \"CommitReveal.sol\":395:423  commits[msg.sender].revealed */\n          0x01\n          add\n          0x08\n            /* \"CommitReveal.sol\":395:431  commits[msg.sender].revealed = false */\n          0x0100\n          exp\n          dup2\n          sload\n          dup2\n          0xff\n          mul\n          not\n          and\n          swap1\n          dup4\n          iszero\n          iszero\n          mul\n          or\n          swap1\n          sstore\n          pop\n            /* \"CommitReveal.sol\":442:517  CommitHash(msg.sender,commits[msg.sender].commit,commits[msg.sender].block) */\n          0x3c1a1f8f38335b17f751c6da4ba7d1865f26b3997535176f5080de9fad891603\n            /* \"CommitReveal.sol\":453:463  msg.sender */\n          caller\n            /* \"CommitReveal.sol\":464:471  commits */\n          0x01\n            /* \"CommitReveal.sol\":464:483  commits[msg.sender] */\n          0x00\n            /* \"CommitReveal.sol\":472:482  msg.sender */\n          caller\n            /* \"CommitReveal.sol\":464:483  commits[msg.sender] */\n          0xffffffffffffffffffffffffffffffffffffffff\n          and\n          0xffffffffffffffffffffffffffffffffffffffff\n          and\n          dup2\n          mstore\n          0x20\n          add\n          swap1\n          dup2\n          mstore\n          0x20\n          add\n          0x00\n          keccak256\n            /* \"CommitReveal.sol\":464:490  commits[msg.sender].commit */\n          0x00\n          add\n          sload\n            /* \"CommitReveal.sol\":491:498  commits */\n          0x01\n            /* \"CommitReveal.sol\":491:510  commits[msg.sender] */\n          0x00\n            /* \"CommitReveal.sol\":499:509  msg.sender */\n          caller\n            /* \"CommitReveal.sol\":491:510  commits[msg.sender] */\n          0xffffffffffffffffffffffffffffffffffffffff\n          and\n          0xffffffffffffffffffffffffffffffffffffffff\n          and\n          dup2\n          mstore\n          0x20\n          add\n          swap1\n          dup2\n          mstore\n          0x20\n          add\n          0x00\n          keccak256\n            /* \"CommitReveal.sol\":491:516  commits[msg.sender].block */\n          0x01\n          add\n          0x00\n          swap1\n          sload\n          swap1\n          0x0100\n          exp\n          swap1\n          div\n          0xffffffffffffffff\n          and\n            /* \"CommitReveal.sol\":442:517  CommitHash(msg.sender,commits[msg.sender].commit,commits[msg.sender].block) */\n          mload(0x40)\n          tag_56\n          swap4\n          swap3\n          swap2\n          swap1\n          tag_57\n          jump\t// in\n        tag_56:\n          mload(0x40)\n          dup1\n          swap2\n          sub\n          swap1\n          log1\n            /* \"CommitReveal.sol\":251:522  function commit(bytes32 dataHash) public {... */\n          pop\n          jump\t// out\n            /* \"#utility.yul\":88:205   */\n        tag_59:\n            /* \"#utility.yul\":197:198   */\n          0x00\n            /* \"#utility.yul\":194:195   */\n          dup1\n            /* \"#utility.yul\":187:199   */\n          revert\n            /* \"#utility.yul\":334:411   */\n        tag_61:\n            /* \"#utility.yul\":371:378   */\n          0x00\n            /* \"#utility.yul\":400:405   */\n          dup2\n            /* \"#utility.yul\":389:405   */\n          swap1\n          pop\n            /* \"#utility.yul\":334:411   */\n          swap2\n          swap1\n          pop\n          jump\t// out\n            /* \"#utility.yul\":417:539   */\n        tag_62:\n            /* \"#utility.yul\":490:514   */\n          tag_97\n            /* \"#utility.yul\":508:513   */\n          dup2\n            /* \"#utility.yul\":490:514   */\n          tag_61\n          jump\t// in\n        tag_97:\n            /* \"#utility.yul\":483:488   */\n          dup2\n            /* \"#utility.yul\":480:515   */\n          eq\n            /* \"#utility.yul\":470:533   */\n          tag_98\n          jumpi\n            /* \"#utility.yul\":529:530   */\n          0x00\n            /* \"#utility.yul\":526:527   */\n          dup1\n            /* \"#utility.yul\":519:531   */\n          revert\n            /* \"#utility.yul\":470:533   */\n        tag_98:\n            /* \"#utility.yul\":417:539   */\n          pop\n          jump\t// out\n            /* \"#utility.yul\":545:684   */\n        tag_63:\n            /* \"#utility.yul\":591:596   */\n          0x00\n            /* \"#utility.yul\":629:635   */\n          dup2\n            /* \"#utility.yul\":616:636   */\n          calldataload\n            /* \"#utility.yul\":607:636   */\n          swap1\n          pop\n            /* \"#utility.yul\":645:678   */\n          tag_100\n            /* \"#utility.yul\":672:677   */\n          dup2\n            /* \"#utility.yul\":645:678   */\n          tag_62\n          jump\t// in\n        tag_100:\n            /* \"#utility.yul\":545:684   */\n          swap3\n          swap2\n          pop\n          pop\n          jump\t// out\n            /* \"#utility.yul\":690:1019   */\n        tag_10:\n            /* \"#utility.yul\":749:755   */\n          0x00\n            /* \"#utility.yul\":798:800   */\n          0x20\n            /* \"#utility.yul\":786:795   */\n          dup3\n            /* \"#utility.yul\":777:784   */\n          dup5\n            /* \"#utility.yul\":773:796   */\n          sub\n            /* \"#utility.yul\":769:801   */\n          slt\n            /* \"#utility.yul\":766:885   */\n          iszero\n          tag_102\n          jumpi\n            /* \"#utility.yul\":804:883   */\n          tag_103\n          tag_59\n          jump\t// in\n        tag_103:\n            /* \"#utility.yul\":766:885   */\n        tag_102:\n            /* \"#utility.yul\":924:925   */\n          0x00\n            /* \"#utility.yul\":949:1002   */\n          tag_104\n            /* \"#utility.yul\":994:1001   */\n          dup5\n            /* \"#utility.yul\":985:991   */\n          dup3\n            /* \"#utility.yul\":974:983   */\n          dup6\n            /* \"#utility.yul\":970:992   */\n          add\n            /* \"#utility.yul\":949:1002   */\n          tag_63\n          jump\t// in\n        tag_104:\n            /* \"#utility.yul\":939:1002   */\n          swap2\n          pop\n            /* \"#utility.yul\":895:1012   */\n          pop\n            /* \"#utility.yul\":690:1019   */\n          swap3\n          swap2\n          pop\n          pop\n          jump\t// out\n            /* \"#utility.yul\":1025:1143   */\n        tag_64:\n            /* \"#utility.yul\":1112:1136   */\n          tag_106\n            /* \"#utility.yul\":1130:1135   */\n          dup2\n            /* \"#utility.yul\":1112:1136   */\n          tag_61\n          jump\t// in\n        tag_106:\n            /* \"#utility.yul\":1107:1110   */\n          dup3\n            /* \"#utility.yul\":1100:1137   */\n          mstore\n            /* \"#utility.yul\":1025:1143   */\n          pop\n          pop\n          jump\t// out\n            /* \"#utility.yul\":1149:1371   */\n        tag_13:\n            /* \"#utility.yul\":1242:1246   */\n          0x00\n            /* \"#utility.yul\":1280:1282   */\n          0x20\n            /* \"#utility.yul\":1269:1278   */\n          dup3\n            /* \"#utility.yul\":1265:1283   */\n          add\n            /* \"#utility.yul\":1257:1283   */\n          swap1\n          pop\n            /* \"#utility.yul\":1293:1364   */\n          tag_108\n            /* \"#utility.yul\":1361:1362   */\n          0x00\n            /* \"#utility.yul\":1350:1359   */\n          dup4\n            /* \"#utility.yul\":1346:1363   */\n          add\n            /* \"#utility.yul\":1337:1343   */\n          dup5\n            /* \"#utility.yul\":1293:1364   */\n          tag_64\n          jump\t// in\n        tag_108:\n            /* \"#utility.yul\":1149:1371   */\n          swap3\n          swap2\n          pop\n          pop\n          jump\t// out\n            /* \"#utility.yul\":1377:1463   */\n        tag_65:\n            /* \"#utility.yul\":1412:1419   */\n          0x00\n            /* \"#utility.yul\":1452:1456   */\n          0xff\n            /* \"#utility.yul\":1445:1450   */\n          dup3\n            /* \"#utility.yul\":1441:1457   */\n          and\n            /* \"#utility.yul\":1430:1457   */\n          swap1\n          pop\n            /* \"#utility.yul\":1377:1463   */\n          swap2\n          swap1\n          pop\n          jump\t// out\n            /* \"#utility.yul\":1469:1581   */\n        tag_66:\n            /* \"#utility.yul\":1552:1574   */\n          tag_111\n            /* \"#utility.yul\":1568:1573   */\n          dup2\n            /* \"#utility.yul\":1552:1574   */\n          tag_65\n          jump\t// in\n        tag_111:\n            /* \"#utility.yul\":1547:1550   */\n          dup3\n            /* \"#utility.yul\":1540:1575   */\n          mstore\n            /* \"#utility.yul\":1469:1581   */\n          pop\n          pop\n          jump\t// out\n            /* \"#utility.yul\":1587:1801   */\n        tag_17:\n            /* \"#utility.yul\":1676:1680   */\n          0x00\n            /* \"#utility.yul\":1714:1716   */\n          0x20\n            /* \"#utility.yul\":1703:1712   */\n          dup3\n            /* \"#utility.yul\":1699:1717   */\n          add\n            /* \"#utility.yul\":1691:1717   */\n          swap1\n          pop\n            /* \"#utility.yul\":1727:1794   */\n          tag_113\n            /* \"#utility.yul\":1791:1792   */\n          0x00\n            /* \"#utility.yul\":1780:1789   */\n          dup4\n            /* \"#utility.yul\":1776:1793   */\n          add\n            /* \"#utility.yul\":1767:1773   */\n          dup5\n            /* \"#utility.yul\":1727:1794   */\n          tag_66\n          jump\t// in\n        tag_113:\n            /* \"#utility.yul\":1587:1801   */\n          swap3\n          swap2\n          pop\n          pop\n          jump\t// out\n            /* \"#utility.yul\":1807:1933   */\n        tag_67:\n            /* \"#utility.yul\":1844:1851   */\n          0x00\n            /* \"#utility.yul\":1884:1926   */\n          0xffffffffffffffffffffffffffffffffffffffff\n            /* \"#utility.yul\":1877:1882   */\n          dup3\n            /* \"#utility.yul\":1873:1927   */\n          and\n            /* \"#utility.yul\":1862:1927   */\n          swap1\n          pop\n            /* \"#utility.yul\":1807:1933   */\n          swap2\n          swap1\n          pop\n          jump\t// out\n            /* \"#utility.yul\":1939:2035   */\n        tag_68:\n            /* \"#utility.yul\":1976:1983   */\n          0x00\n            /* \"#utility.yul\":2005:2029   */\n          tag_116\n            /* \"#utility.yul\":2023:2028   */\n          dup3\n            /* \"#utility.yul\":2005:2029   */\n          tag_67\n          jump\t// in\n        tag_116:\n            /* \"#utility.yul\":1994:2029   */\n          swap1\n          pop\n            /* \"#utility.yul\":1939:2035   */\n          swap2\n          swap1\n          pop\n          jump\t// out\n            /* \"#utility.yul\":2041:2163   */\n        tag_69:\n            /* \"#utility.yul\":2114:2138   */\n          tag_118\n            /* \"#utility.yul\":2132:2137   */\n          dup2\n            /* \"#utility.yul\":2114:2138   */\n          tag_68\n          jump\t// in\n        tag_118:\n            /* \"#utility.yul\":2107:2112   */\n          dup2\n            /* \"#utility.yul\":2104:2139   */\n          eq\n            /* \"#utility.yul\":2094:2157   */\n          tag_119\n          jumpi\n            /* \"#utility.yul\":2153:2154   */\n          0x00\n            /* \"#utility.yul\":2150:2151   */\n          dup1\n            /* \"#utility.yul\":2143:2155   */\n          revert\n            /* \"#utility.yul\":2094:2157   */\n        tag_119:\n            /* \"#utility.yul\":2041:2163   */\n          pop\n          jump\t// out\n            /* \"#utility.yul\":2169:2308   */\n        tag_70:\n            /* \"#utility.yul\":2215:2220   */\n          0x00\n            /* \"#utility.yul\":2253:2259   */\n          dup2\n            /* \"#utility.yul\":2240:2260   */\n          calldataload\n            /* \"#utility.yul\":2231:2260   */\n          swap1\n          pop\n            /* \"#utility.yul\":2269:2302   */\n          tag_121\n            /* \"#utility.yul\":2296:2301   */\n          dup2\n            /* \"#utility.yul\":2269:2302   */\n          tag_69\n          jump\t// in\n        tag_121:\n            /* \"#utility.yul\":2169:2308   */\n          swap3\n          swap2\n          pop\n          pop\n          jump\t// out\n            /* \"#utility.yul\":2314:2643   */\n        tag_23:\n            /* \"#utility.yul\":2373:2379   */\n          0x00\n            /* \"#utility.yul\":2422:2424   */\n          0x20\n            /* \"#utility.yul\":2410:2419   */\n          dup3\n            /* \"#utility.yul\":2401:2408   */\n          dup5\n            /* \"#utility.yul\":2397:2420   */\n          sub\n            /* \"#utility.yul\":2393:2425   */\n          slt\n            /* \"#utility.yul\":2390:2509   */\n          iszero\n          tag_123\n          jumpi\n            /* \"#utility.yul\":2428:2507   */\n          tag_124\n          tag_59\n          jump\t// in\n        tag_124:\n            /* \"#utility.yul\":2390:2509   */\n        tag_123:\n            /* \"#utility.yul\":2548:2549   */\n          0x00\n            /* \"#utility.yul\":2573:2626   */\n          tag_125\n            /* \"#utility.yul\":2618:2625   */\n          dup5\n            /* \"#utility.yul\":2609:2615   */\n          dup3\n            /* \"#utility.yul\":2598:2607   */\n          dup6\n            /* \"#utility.yul\":2594:2616   */\n          add\n            /* \"#utility.yul\":2573:2626   */\n          tag_70\n          jump\t// in\n        tag_125:\n            /* \"#utility.yul\":2563:2626   */\n          swap2\n          pop\n            /* \"#utility.yul\":2519:2636   */\n          pop\n            /* \"#utility.yul\":2314:2643   */\n          swap3\n          swap2\n          pop\n          pop\n          jump\t// out\n            /* \"#utility.yul\":2649:2750   */\n        tag_71:\n            /* \"#utility.yul\":2685:2692   */\n          0x00\n            /* \"#utility.yul\":2725:2743   */\n          0xffffffffffffffff\n            /* \"#utility.yul\":2718:2723   */\n          dup3\n            /* \"#utility.yul\":2714:2744   */\n          and\n            /* \"#utility.yul\":2703:2744   */\n          swap1\n          pop\n            /* \"#utility.yul\":2649:2750   */\n          swap2\n          swap1\n          pop\n          jump\t// out\n            /* \"#utility.yul\":2756:2871   */\n        tag_72:\n            /* \"#utility.yul\":2841:2864   */\n          tag_128\n            /* \"#utility.yul\":2858:2863   */\n          dup2\n            /* \"#utility.yul\":2841:2864   */\n          tag_71\n          jump\t// in\n        tag_128:\n            /* \"#utility.yul\":2836:2839   */\n          dup3\n            /* \"#utility.yul\":2829:2865   */\n          mstore\n            /* \"#utility.yul\":2756:2871   */\n          pop\n          pop\n          jump\t// out\n            /* \"#utility.yul\":2877:2967   */\n        tag_73:\n            /* \"#utility.yul\":2911:2918   */\n          0x00\n            /* \"#utility.yul\":2954:2959   */\n          dup2\n            /* \"#utility.yul\":2947:2960   */\n          iszero\n            /* \"#utility.yul\":2940:2961   */\n          iszero\n            /* \"#utility.yul\":2929:2961   */\n          swap1\n          pop\n            /* \"#utility.yul\":2877:2967   */\n          swap2\n          swap1\n          pop\n          jump\t// out\n            /* \"#utility.yul\":2973:3082   */\n        tag_74:\n            /* \"#utility.yul\":3054:3075   */\n          tag_131\n            /* \"#utility.yul\":3069:3074   */\n          dup2\n            /* \"#utility.yul\":3054:3075   */\n          tag_73\n          jump\t// in\n        tag_131:\n            /* \"#utility.yul\":3049:3052   */\n          dup3\n            /* \"#utility.yul\":3042:3076   */\n          mstore\n            /* \"#utility.yul\":2973:3082   */\n          pop\n          pop\n          jump\t// out\n            /* \"#utility.yul\":3088:3514   */\n        tag_26:\n            /* \"#utility.yul\":3229:3233   */\n          0x00\n            /* \"#utility.yul\":3267:3269   */\n          0x60\n            /* \"#utility.yul\":3256:3265   */\n          dup3\n            /* \"#utility.yul\":3252:3270   */\n          add\n            /* \"#utility.yul\":3244:3270   */\n          swap1\n          pop\n            /* \"#utility.yul\":3280:3351   */\n          tag_133\n            /* \"#utility.yul\":3348:3349   */\n          0x00\n            /* \"#utility.yul\":3337:3346   */\n          dup4\n            /* \"#utility.yul\":3333:3350   */\n          add\n            /* \"#utility.yul\":3324:3330   */\n          dup7\n            /* \"#utility.yul\":3280:3351   */\n          tag_64\n          jump\t// in\n        tag_133:\n            /* \"#utility.yul\":3361:3431   */\n          tag_134\n            /* \"#utility.yul\":3427:3429   */\n          0x20\n            /* \"#utility.yul\":3416:3425   */\n          dup4\n            /* \"#utility.yul\":3412:3430   */\n          add\n            /* \"#utility.yul\":3403:3409   */\n          dup6\n            /* \"#utility.yul\":3361:3431   */\n          tag_72\n          jump\t// in\n        tag_134:\n            /* \"#utility.yul\":3441:3507   */\n          tag_135\n            /* \"#utility.yul\":3503:3505   */\n          0x40\n            /* \"#utility.yul\":3492:3501   */\n          dup4\n            /* \"#utility.yul\":3488:3506   */\n          add\n            /* \"#utility.yul\":3479:3485   */\n          dup5\n            /* \"#utility.yul\":3441:3507   */\n          tag_74\n          jump\t// in\n        tag_135:\n            /* \"#utility.yul\":3088:3514   */\n          swap5\n          swap4\n          pop\n          pop\n          pop\n          pop\n          jump\t// out\n            /* \"#utility.yul\":3520:3599   */\n        tag_75:\n            /* \"#utility.yul\":3559:3566   */\n          0x00\n            /* \"#utility.yul\":3588:3593   */\n          dup2\n            /* \"#utility.yul\":3577:3593   */\n          swap1\n          pop\n            /* \"#utility.yul\":3520:3599   */\n          swap2\n          swap1\n          pop\n          jump\t// out\n            /* \"#utility.yul\":3605:3762   */\n        tag_76:\n            /* \"#utility.yul\":3710:3755   */\n          tag_138\n            /* \"#utility.yul\":3730:3754   */\n          tag_139\n            /* \"#utility.yul\":3748:3753   */\n          dup3\n            /* \"#utility.yul\":3730:3754   */\n          tag_61\n          jump\t// in\n        tag_139:\n            /* \"#utility.yul\":3710:3755   */\n          tag_75\n          jump\t// in\n        tag_138:\n            /* \"#utility.yul\":3705:3708   */\n          dup3\n            /* \"#utility.yul\":3698:3756   */\n          mstore\n            /* \"#utility.yul\":3605:3762   */\n          pop\n          pop\n          jump\t// out\n            /* \"#utility.yul\":3768:4024   */\n        tag_32:\n            /* \"#utility.yul\":3880:3883   */\n          0x00\n            /* \"#utility.yul\":3895:3970   */\n          tag_141\n            /* \"#utility.yul\":3966:3969   */\n          dup3\n            /* \"#utility.yul\":3957:3963   */\n          dup5\n            /* \"#utility.yul\":3895:3970   */\n          tag_76\n          jump\t// in\n        tag_141:\n            /* \"#utility.yul\":3995:3997   */\n          0x20\n            /* \"#utility.yul\":3990:3993   */\n          dup3\n            /* \"#utility.yul\":3986:3998   */\n          add\n            /* \"#utility.yul\":3979:3998   */\n          swap2\n          pop\n            /* \"#utility.yul\":4015:4018   */\n          dup2\n            /* \"#utility.yul\":4008:4018   */\n          swap1\n          pop\n            /* \"#utility.yul\":3768:4024   */\n          swap3\n          swap2\n          pop\n          pop\n          jump\t// out\n            /* \"#utility.yul\":4030:4199   */\n        tag_77:\n            /* \"#utility.yul\":4114:4125   */\n          0x00\n            /* \"#utility.yul\":4148:4154   */\n          dup3\n            /* \"#utility.yul\":4143:4146   */\n          dup3\n            /* \"#utility.yul\":4136:4155   */\n          mstore\n            /* \"#utility.yul\":4188:4192   */\n          0x20\n            /* \"#utility.yul\":4183:4186   */\n          dup3\n            /* \"#utility.yul\":4179:4193   */\n          add\n            /* \"#utility.yul\":4164:4193   */\n          swap1\n          pop\n            /* \"#utility.yul\":4030:4199   */\n          swap3\n          swap2\n          pop\n          pop\n          jump\t// out\n            /* \"#utility.yul\":4205:4430   */\n        tag_78:\n            /* \"#utility.yul\":4345:4379   */\n          0x436f6d6d697452657665616c3a3a72657665616c3a20416c7265616479207265\n            /* \"#utility.yul\":4341:4342   */\n          0x00\n            /* \"#utility.yul\":4333:4339   */\n          dup3\n            /* \"#utility.yul\":4329:4343   */\n          add\n            /* \"#utility.yul\":4322:4380   */\n          mstore\n            /* \"#utility.yul\":4414:4422   */\n          0x7665616c65640000000000000000000000000000000000000000000000000000\n            /* \"#utility.yul\":4409:4411   */\n          0x20\n            /* \"#utility.yul\":4401:4407   */\n          dup3\n            /* \"#utility.yul\":4397:4412   */\n          add\n            /* \"#utility.yul\":4390:4423   */\n          mstore\n            /* \"#utility.yul\":4205:4430   */\n          pop\n          jump\t// out\n            /* \"#utility.yul\":4436:4802   */\n        tag_79:\n            /* \"#utility.yul\":4578:4581   */\n          0x00\n            /* \"#utility.yul\":4599:4666   */\n          tag_145\n            /* \"#utility.yul\":4663:4665   */\n          0x26\n            /* \"#utility.yul\":4658:4661   */\n          dup4\n            /* \"#utility.yul\":4599:4666   */\n          tag_77\n          jump\t// in\n        tag_145:\n            /* \"#utility.yul\":4592:4666   */\n          swap2\n          pop\n            /* \"#utility.yul\":4675:4768   */\n          tag_146\n            /* \"#utility.yul\":4764:4767   */\n          dup3\n            /* \"#utility.yul\":4675:4768   */\n          tag_78\n          jump\t// in\n        tag_146:\n            /* \"#utility.yul\":4793:4795   */\n          0x40\n            /* \"#utility.yul\":4788:4791   */\n          dup3\n            /* \"#utility.yul\":4784:4796   */\n          add\n            /* \"#utility.yul\":4777:4796   */\n          swap1\n          pop\n            /* \"#utility.yul\":4436:4802   */\n          swap2\n          swap1\n          pop\n          jump\t// out\n            /* \"#utility.yul\":4808:5227   */\n        tag_36:\n            /* \"#utility.yul\":4974:4978   */\n          0x00\n            /* \"#utility.yul\":5012:5014   */\n          0x20\n            /* \"#utility.yul\":5001:5010   */\n          dup3\n            /* \"#utility.yul\":4997:5015   */\n          add\n            /* \"#utility.yul\":4989:5015   */\n          swap1\n          pop\n            /* \"#utility.yul\":5061:5070   */\n          dup2\n            /* \"#utility.yul\":5055:5059   */\n          dup2\n            /* \"#utility.yul\":5051:5071   */\n          sub\n            /* \"#utility.yul\":5047:5048   */\n          0x00\n            /* \"#utility.yul\":5036:5045   */\n          dup4\n            /* \"#utility.yul\":5032:5049   */\n          add\n            /* \"#utility.yul\":5025:5072   */\n          mstore\n            /* \"#utility.yul\":5089:5220   */\n          tag_148\n            /* \"#utility.yul\":5215:5219   */\n          dup2\n            /* \"#utility.yul\":5089:5220   */\n          tag_79\n          jump\t// in\n        tag_148:\n            /* \"#utility.yul\":5081:5220   */\n          swap1\n          pop\n            /* \"#utility.yul\":4808:5227   */\n          swap2\n          swap1\n          pop\n          jump\t// out\n            /* \"#utility.yul\":5233:5477   */\n        tag_80:\n            /* \"#utility.yul\":5373:5407   */\n          0x436f6d6d697452657665616c3a3a72657665616c3a2052657665616c65642068\n            /* \"#utility.yul\":5369:5370   */\n          0x00\n            /* \"#utility.yul\":5361:5367   */\n          dup3\n            /* \"#utility.yul\":5357:5371   */\n          add\n            /* \"#utility.yul\":5350:5408   */\n          mstore\n            /* \"#utility.yul\":5442:5469   */\n          0x61736820646f6573206e6f74206d6174636820636f6d6d697400000000000000\n            /* \"#utility.yul\":5437:5439   */\n          0x20\n            /* \"#utility.yul\":5429:5435   */\n          dup3\n            /* \"#utility.yul\":5425:5440   */\n          add\n            /* \"#utility.yul\":5418:5470   */\n          mstore\n            /* \"#utility.yul\":5233:5477   */\n          pop\n          jump\t// out\n            /* \"#utility.yul\":5483:5849   */\n        tag_81:\n            /* \"#utility.yul\":5625:5628   */\n          0x00\n            /* \"#utility.yul\":5646:5713   */\n          tag_151\n            /* \"#utility.yul\":5710:5712   */\n          0x39\n            /* \"#utility.yul\":5705:5708   */\n          dup4\n            /* \"#utility.yul\":5646:5713   */\n          tag_77\n          jump\t// in\n        tag_151:\n            /* \"#utility.yul\":5639:5713   */\n          swap2\n          pop\n            /* \"#utility.yul\":5722:5815   */\n          tag_152\n            /* \"#utility.yul\":5811:5814   */\n          dup3\n            /* \"#utility.yul\":5722:5815   */\n          tag_80\n          jump\t// in\n        tag_152:\n            /* \"#utility.yul\":5840:5842   */\n          0x40\n            /* \"#utility.yul\":5835:5838   */\n          dup3\n            /* \"#utility.yul\":5831:5843   */\n          add\n            /* \"#utility.yul\":5824:5843   */\n          swap1\n          pop\n            /* \"#utility.yul\":5483:5849   */\n          swap2\n          swap1\n          pop\n          jump\t// out\n            /* \"#utility.yul\":5855:6274   */\n        tag_40:\n            /* \"#utility.yul\":6021:6025   */\n          0x00\n            /* \"#utility.yul\":6059:6061   */\n          0x20\n            /* \"#utility.yul\":6048:6057   */\n          dup3\n            /* \"#utility.yul\":6044:6062   */\n          add\n            /* \"#utility.yul\":6036:6062   */\n          swap1\n          pop\n            /* \"#utility.yul\":6108:6117   */\n          dup2\n            /* \"#utility.yul\":6102:6106   */\n          dup2\n            /* \"#utility.yul\":6098:6118   */\n          sub\n            /* \"#utility.yul\":6094:6095   */\n          0x00\n            /* \"#utility.yul\":6083:6092   */\n          dup4\n            /* \"#utility.yul\":6079:6096   */\n          add\n            /* \"#utility.yul\":6072:6119   */\n          mstore\n            /* \"#utility.yul\":6136:6267   */\n          tag_154\n            /* \"#utility.yul\":6262:6266   */\n          dup2\n            /* \"#utility.yul\":6136:6267   */\n          tag_81\n          jump\t// in\n        tag_154:\n            /* \"#utility.yul\":6128:6267   */\n          swap1\n          pop\n            /* \"#utility.yul\":5855:6274   */\n          swap2\n          swap1\n          pop\n          jump\t// out\n            /* \"#utility.yul\":6280:6570   */\n        tag_82:\n            /* \"#utility.yul\":6420:6454   */\n          0x436f6d6d697452657665616c3a3a72657665616c3a2052657665616c20616e64\n            /* \"#utility.yul\":6416:6417   */\n          0x00\n            /* \"#utility.yul\":6408:6414   */\n          dup3\n            /* \"#utility.yul\":6404:6418   */\n          add\n            /* \"#utility.yul\":6397:6455   */\n          mstore\n            /* \"#utility.yul\":6489:6523   */\n          0x20636f6d6d69742068617070656e6564206f6e207468652073616d6520626c6f\n            /* \"#utility.yul\":6484:6486   */\n          0x20\n            /* \"#utility.yul\":6476:6482   */\n          dup3\n            /* \"#utility.yul\":6472:6487   */\n          add\n            /* \"#utility.yul\":6465:6524   */\n          mstore\n            /* \"#utility.yul\":6558:6562   */\n          0x636b000000000000000000000000000000000000000000000000000000000000\n            /* \"#utility.yul\":6553:6555   */\n          0x40\n            /* \"#utility.yul\":6545:6551   */\n          dup3\n            /* \"#utility.yul\":6541:6556   */\n          add\n            /* \"#utility.yul\":6534:6563   */\n          mstore\n            /* \"#utility.yul\":6280:6570   */\n          pop\n          jump\t// out\n            /* \"#utility.yul\":6576:6942   */\n        tag_83:\n            /* \"#utility.yul\":6718:6721   */\n          0x00\n            /* \"#utility.yul\":6739:6806   */\n          tag_157\n            /* \"#utility.yul\":6803:6805   */\n          0x42\n            /* \"#utility.yul\":6798:6801   */\n          dup4\n            /* \"#utility.yul\":6739:6806   */\n          tag_77\n          jump\t// in\n        tag_157:\n            /* \"#utility.yul\":6732:6806   */\n          swap2\n          pop\n            /* \"#utility.yul\":6815:6908   */\n          tag_158\n            /* \"#utility.yul\":6904:6907   */\n          dup3\n            /* \"#utility.yul\":6815:6908   */\n          tag_82\n          jump\t// in\n        tag_158:\n            /* \"#utility.yul\":6933:6935   */\n          0x60\n            /* \"#utility.yul\":6928:6931   */\n          dup3\n            /* \"#utility.yul\":6924:6936   */\n          add\n            /* \"#utility.yul\":6917:6936   */\n          swap1\n          pop\n            /* \"#utility.yul\":6576:6942   */\n          swap2\n          swap1\n          pop\n          jump\t// out\n            /* \"#utility.yul\":6948:7367   */\n        tag_43:\n            /* \"#utility.yul\":7114:7118   */\n          0x00\n            /* \"#utility.yul\":7152:7154   */\n          0x20\n            /* \"#utility.yul\":7141:7150   */\n          dup3\n            /* \"#utility.yul\":7137:7155   */\n          add\n            /* \"#utility.yul\":7129:7155   */\n          swap1\n          pop\n            /* \"#utility.yul\":7201:7210   */\n          dup2\n            /* \"#utility.yul\":7195:7199   */\n          dup2\n            /* \"#utility.yul\":7191:7211   */\n          sub\n            /* \"#utility.yul\":7187:7188   */\n          0x00\n            /* \"#utility.yul\":7176:7185   */\n          dup4\n            /* \"#utility.yul\":7172:7189   */\n          add\n            /* \"#utility.yul\":7165:7212   */\n          mstore\n            /* \"#utility.yul\":7229:7360   */\n          tag_160\n            /* \"#utility.yul\":7355:7359   */\n          dup2\n            /* \"#utility.yul\":7229:7360   */\n          tag_83\n          jump\t// in\n        tag_160:\n            /* \"#utility.yul\":7221:7360   */\n          swap1\n          pop\n            /* \"#utility.yul\":6948:7367   */\n          swap2\n          swap1\n          pop\n          jump\t// out\n            /* \"#utility.yul\":7373:7553   */\n        tag_84:\n            /* \"#utility.yul\":7421:7498   */\n          0x4e487b7100000000000000000000000000000000000000000000000000000000\n            /* \"#utility.yul\":7418:7419   */\n          0x00\n            /* \"#utility.yul\":7411:7499   */\n          mstore\n            /* \"#utility.yul\":7518:7522   */\n          0x11\n            /* \"#utility.yul\":7515:7516   */\n          0x04\n            /* \"#utility.yul\":7508:7523   */\n          mstore\n            /* \"#utility.yul\":7542:7546   */\n          0x24\n            /* \"#utility.yul\":7539:7540   */\n          0x00\n            /* \"#utility.yul\":7532:7547   */\n          revert\n            /* \"#utility.yul\":7559:7764   */\n        tag_45:\n            /* \"#utility.yul\":7598:7601   */\n          0x00\n            /* \"#utility.yul\":7617:7636   */\n          tag_163\n            /* \"#utility.yul\":7634:7635   */\n          dup3\n            /* \"#utility.yul\":7617:7636   */\n          tag_71\n          jump\t// in\n        tag_163:\n            /* \"#utility.yul\":7612:7636   */\n          swap2\n          pop\n            /* \"#utility.yul\":7650:7669   */\n          tag_164\n            /* \"#utility.yul\":7667:7668   */\n          dup4\n            /* \"#utility.yul\":7650:7669   */\n          tag_71\n          jump\t// in\n        tag_164:\n            /* \"#utility.yul\":7645:7669   */\n          swap3\n          pop\n            /* \"#utility.yul\":7692:7693   */\n          dup3\n            /* \"#utility.yul\":7689:7690   */\n          dup3\n            /* \"#utility.yul\":7685:7694   */\n          add\n            /* \"#utility.yul\":7678:7694   */\n          swap1\n          pop\n            /* \"#utility.yul\":7715:7733   */\n          0xffffffffffffffff\n            /* \"#utility.yul\":7710:7713   */\n          dup2\n            /* \"#utility.yul\":7707:7734   */\n          gt\n            /* \"#utility.yul\":7704:7757   */\n          iszero\n          tag_165\n          jumpi\n            /* \"#utility.yul\":7737:7755   */\n          tag_166\n          tag_84\n          jump\t// in\n        tag_166:\n            /* \"#utility.yul\":7704:7757   */\n        tag_165:\n            /* \"#utility.yul\":7559:7764   */\n          swap3\n          swap2\n          pop\n          pop\n          jump\t// out\n            /* \"#utility.yul\":7770:7996   */\n        tag_85:\n            /* \"#utility.yul\":7910:7944   */\n          0x436f6d6d697452657665616c3a3a72657665616c3a2052657665616c65642074\n            /* \"#utility.yul\":7906:7907   */\n          0x00\n            /* \"#utility.yul\":7898:7904   */\n          dup3\n            /* \"#utility.yul\":7894:7908   */\n          add\n            /* \"#utility.yul\":7887:7945   */\n          mstore\n            /* \"#utility.yul\":7979:7988   */\n          0x6f6f206c61746500000000000000000000000000000000000000000000000000\n            /* \"#utility.yul\":7974:7976   */\n          0x20\n            /* \"#utility.yul\":7966:7972   */\n          dup3\n            /* \"#utility.yul\":7962:7977   */\n          add\n            /* \"#utility.yul\":7955:7989   */\n          mstore\n            /* \"#utility.yul\":7770:7996   */\n          pop\n          jump\t// out\n            /* \"#utility.yul\":8002:8368   */\n        tag_86:\n            /* \"#utility.yul\":8144:8147   */\n          0x00\n            /* \"#utility.yul\":8165:8232   */\n          tag_169\n            /* \"#utility.yul\":8229:8231   */\n          0x27\n            /* \"#utility.yul\":8224:8227   */\n          dup4\n            /* \"#utility.yul\":8165:8232   */\n          tag_77\n          jump\t// in\n        tag_169:\n            /* \"#utility.yul\":8158:8232   */\n          swap2\n          pop\n            /* \"#utility.yul\":8241:8334   */\n          tag_170\n            /* \"#utility.yul\":8330:8333   */\n          dup3\n            /* \"#utility.yul\":8241:8334   */\n          tag_85\n          jump\t// in\n        tag_170:\n            /* \"#utility.yul\":8359:8361   */\n          0x40\n            /* \"#utility.yul\":8354:8357   */\n          dup3\n            /* \"#utility.yul\":8350:8362   */\n          add\n            /* \"#utility.yul\":8343:8362   */\n          swap1\n          pop\n            /* \"#utility.yul\":8002:8368   */\n          swap2\n          swap1\n          pop\n          jump\t// out\n            /* \"#utility.yul\":8374:8793   */\n        tag_48:\n            /* \"#utility.yul\":8540:8544   */\n          0x00\n            /* \"#utility.yul\":8578:8580   */\n          0x20\n            /* \"#utility.yul\":8567:8576   */\n          dup3\n            /* \"#utility.yul\":8563:8581   */\n          add\n            /* \"#utility.yul\":8555:8581   */\n          swap1\n          pop\n            /* \"#utility.yul\":8627:8636   */\n          dup2\n            /* \"#utility.yul\":8621:8625   */\n          dup2\n            /* \"#utility.yul\":8617:8637   */\n          sub\n            /* \"#utility.yul\":8613:8614   */\n          0x00\n            /* \"#utility.yul\":8602:8611   */\n          dup4\n            /* \"#utility.yul\":8598:8615   */\n          add\n            /* \"#utility.yul\":8591:8638   */\n          mstore\n            /* \"#utility.yul\":8655:8786   */\n          tag_172\n            /* \"#utility.yul\":8781:8785   */\n          dup2\n            /* \"#utility.yul\":8655:8786   */\n          tag_86\n          jump\t// in\n        tag_172:\n            /* \"#utility.yul\":8647:8786   */\n          swap1\n          pop\n            /* \"#utility.yul\":8374:8793   */\n          swap2\n          swap1\n          pop\n          jump\t// out\n            /* \"#utility.yul\":8799:9196   */\n        tag_50:\n            /* \"#utility.yul\":8939:8942   */\n          0x00\n            /* \"#utility.yul\":8954:9029   */\n          tag_174\n            /* \"#utility.yul\":9025:9028   */\n          dup3\n            /* \"#utility.yul\":9016:9022   */\n          dup6\n            /* \"#utility.yul\":8954:9029   */\n          tag_76\n          jump\t// in\n        tag_174:\n            /* \"#utility.yul\":9054:9056   */\n          0x20\n            /* \"#utility.yul\":9049:9052   */\n          dup3\n            /* \"#utility.yul\":9045:9057   */\n          add\n            /* \"#utility.yul\":9038:9057   */\n          swap2\n          pop\n            /* \"#utility.yul\":9067:9142   */\n          tag_175\n            /* \"#utility.yul\":9138:9141   */\n          dup3\n            /* \"#utility.yul\":9129:9135   */\n          dup5\n            /* \"#utility.yul\":9067:9142   */\n          tag_76\n          jump\t// in\n        tag_175:\n            /* \"#utility.yul\":9167:9169   */\n          0x20\n            /* \"#utility.yul\":9162:9165   */\n          dup3\n            /* \"#utility.yul\":9158:9170   */\n          add\n            /* \"#utility.yul\":9151:9170   */\n          swap2\n          pop\n            /* \"#utility.yul\":9187:9190   */\n          dup2\n            /* \"#utility.yul\":9180:9190   */\n          swap1\n          pop\n            /* \"#utility.yul\":8799:9196   */\n          swap4\n          swap3\n          pop\n          pop\n          pop\n          jump\t// out\n            /* \"#utility.yul\":9202:9279   */\n        tag_87:\n            /* \"#utility.yul\":9239:9246   */\n          0x00\n            /* \"#utility.yul\":9268:9273   */\n          dup2\n            /* \"#utility.yul\":9257:9273   */\n          swap1\n          pop\n            /* \"#utility.yul\":9202:9279   */\n          swap2\n          swap1\n          pop\n          jump\t// out\n            /* \"#utility.yul\":9285:9465   */\n        tag_88:\n            /* \"#utility.yul\":9333:9410   */\n          0x4e487b7100000000000000000000000000000000000000000000000000000000\n            /* \"#utility.yul\":9330:9331   */\n          0x00\n            /* \"#utility.yul\":9323:9411   */\n          mstore\n            /* \"#utility.yul\":9430:9434   */\n          0x12\n            /* \"#utility.yul\":9427:9428   */\n          0x04\n            /* \"#utility.yul\":9420:9435   */\n          mstore\n            /* \"#utility.yul\":9454:9458   */\n          0x24\n            /* \"#utility.yul\":9451:9452   */\n          0x00\n            /* \"#utility.yul\":9444:9459   */\n          revert\n            /* \"#utility.yul\":9471:9647   */\n        tag_52:\n            /* \"#utility.yul\":9503:9504   */\n          0x00\n            /* \"#utility.yul\":9520:9540   */\n          tag_179\n            /* \"#utility.yul\":9538:9539   */\n          dup3\n            /* \"#utility.yul\":9520:9540   */\n          tag_87\n          jump\t// in\n        tag_179:\n            /* \"#utility.yul\":9515:9540   */\n          swap2\n          pop\n            /* \"#utility.yul\":9554:9574   */\n          tag_180\n            /* \"#utility.yul\":9572:9573   */\n          dup4\n            /* \"#utility.yul\":9554:9574   */\n          tag_87\n          jump\t// in\n        tag_180:\n            /* \"#utility.yul\":9549:9574   */\n          swap3\n          pop\n            /* \"#utility.yul\":9593:9594   */\n          dup3\n            /* \"#utility.yul\":9583:9618   */\n          tag_181\n          jumpi\n            /* \"#utility.yul\":9598:9616   */\n          tag_182\n          tag_88\n          jump\t// in\n        tag_182:\n            /* \"#utility.yul\":9583:9618   */\n        tag_181:\n            /* \"#utility.yul\":9639:9640   */\n          dup3\n            /* \"#utility.yul\":9636:9637   */\n          dup3\n            /* \"#utility.yul\":9632:9641   */\n          mod\n            /* \"#utility.yul\":9627:9641   */\n          swap1\n          pop\n            /* \"#utility.yul\":9471:9647   */\n          swap3\n          swap2\n          pop\n          pop\n          jump\t// out\n            /* \"#utility.yul\":9653:9771   */\n        tag_89:\n            /* \"#utility.yul\":9740:9764   */\n          tag_184\n            /* \"#utility.yul\":9758:9763   */\n          dup2\n            /* \"#utility.yul\":9740:9764   */\n          tag_68\n          jump\t// in\n        tag_184:\n            /* \"#utility.yul\":9735:9738   */\n          dup3\n            /* \"#utility.yul\":9728:9765   */\n          mstore\n            /* \"#utility.yul\":9653:9771   */\n          pop\n          pop\n          jump\t// out\n            /* \"#utility.yul\":9777:9895   */\n        tag_90:\n            /* \"#utility.yul\":9864:9888   */\n          tag_186\n            /* \"#utility.yul\":9882:9887   */\n          dup2\n            /* \"#utility.yul\":9864:9888   */\n          tag_87\n          jump\t// in\n        tag_186:\n            /* \"#utility.yul\":9859:9862   */\n          dup3\n            /* \"#utility.yul\":9852:9889   */\n          mstore\n            /* \"#utility.yul\":9777:9895   */\n          pop\n          pop\n          jump\t// out\n            /* \"#utility.yul\":9901:10343   */\n        tag_54:\n            /* \"#utility.yul\":10050:10054   */\n          0x00\n            /* \"#utility.yul\":10088:10090   */\n          0x60\n            /* \"#utility.yul\":10077:10086   */\n          dup3\n            /* \"#utility.yul\":10073:10091   */\n          add\n            /* \"#utility.yul\":10065:10091   */\n          swap1\n          pop\n            /* \"#utility.yul\":10101:10172   */\n          tag_188\n            /* \"#utility.yul\":10169:10170   */\n          0x00\n            /* \"#utility.yul\":10158:10167   */\n          dup4\n            /* \"#utility.yul\":10154:10171   */\n          add\n            /* \"#utility.yul\":10145:10151   */\n          dup7\n            /* \"#utility.yul\":10101:10172   */\n          tag_89\n          jump\t// in\n        tag_188:\n            /* \"#utility.yul\":10182:10254   */\n          tag_189\n            /* \"#utility.yul\":10250:10252   */\n          0x20\n            /* \"#utility.yul\":10239:10248   */\n          dup4\n            /* \"#utility.yul\":10235:10253   */\n          add\n            /* \"#utility.yul\":10226:10232   */\n          dup6\n            /* \"#utility.yul\":10182:10254   */\n          tag_64\n          jump\t// in\n        tag_189:\n            /* \"#utility.yul\":10264:10336   */\n          tag_190\n            /* \"#utility.yul\":10332:10334   */\n          0x40\n            /* \"#utility.yul\":10321:10330   */\n          dup4\n            /* \"#utility.yul\":10317:10335   */\n          add\n            /* \"#utility.yul\":10308:10314   */\n          dup5\n            /* \"#utility.yul\":10264:10336   */\n          tag_90\n          jump\t// in\n        tag_190:\n            /* \"#utility.yul\":9901:10343   */\n          swap5\n          swap4\n          pop\n          pop\n          pop\n          pop\n          jump\t// out\n            /* \"#utility.yul\":10349:10787   */\n        tag_57:\n            /* \"#utility.yul\":10496:10500   */\n          0x00\n            /* \"#utility.yul\":10534:10536   */\n          0x60\n            /* \"#utility.yul\":10523:10532   */\n          dup3\n            /* \"#utility.yul\":10519:10537   */\n          add\n            /* \"#utility.yul\":10511:10537   */\n          swap1\n          pop\n            /* \"#utility.yul\":10547:10618   */\n          tag_192\n            /* \"#utility.yul\":10615:10616   */\n          0x00\n            /* \"#utility.yul\":10604:10613   */\n          dup4\n            /* \"#utility.yul\":10600:10617   */\n          add\n            /* \"#utility.yul\":10591:10597   */\n          dup7\n            /* \"#utility.yul\":10547:10618   */\n          tag_89\n          jump\t// in\n        tag_192:\n            /* \"#utility.yul\":10628:10700   */\n          tag_193\n            /* \"#utility.yul\":10696:10698   */\n          0x20\n            /* \"#utility.yul\":10685:10694   */\n          dup4\n            /* \"#utility.yul\":10681:10699   */\n          add\n            /* \"#utility.yul\":10672:10678   */\n          dup6\n            /* \"#utility.yul\":10628:10700   */\n          tag_64\n          jump\t// in\n        tag_193:\n            /* \"#utility.yul\":10710:10780   */\n          tag_194\n            /* \"#utility.yul\":10776:10778   */\n          0x40\n            /* \"#utility.yul\":10765:10774   */\n          dup4\n            /* \"#utility.yul\":10761:10779   */\n          add\n            /* \"#utility.yul\":10752:10758   */\n          dup5\n            /* \"#utility.yul\":10710:10780   */\n          tag_72\n          jump\t// in\n        tag_194:\n            /* \"#utility.yul\":10349:10787   */\n          swap5\n          swap4\n          pop\n          pop\n          pop\n          pop\n          jump\t// out\n\n        auxdata: 0xa26469706673582212201eafc90a77e60daf17aa211974ece341ffd58201ca08dfba4a59a1a10bff5ee064736f6c634300081a0033\n    }\n}\n",
				"bytecode": {
					"linkReferences": {},
					"object": "60806040525f80555f6001555f60065560405161001b90610221565b604051809103905ff080158015610034573d5f803e3d5ffd5b5060075f6101000a81548173ffffffffffffffffffffffffffffffffffffffff021916908373ffffffffffffffffffffffffffffffffffffffff16021790555060016008556040516100859061022e565b604051809103905ff08015801561009e573d5f803e3d5ffd5b5060095f6101000a81548173ffffffffffffffffffffffffffffffffffffffff021916908373ffffffffffffffffffffffffffffffffffffffff1602179055506040518060800160405280735b38da6a701c568545dcfcb03fcb875f56beddc473ffffffffffffffffffffffffffffffffffffffff1673ffffffffffffffffffffffffffffffffffffffff16815260200173ab8483f64d9c6d1ecf9b849ae677dd3315835cb273ffffffffffffffffffffffffffffffffffffffff1673ffffffffffffffffffffffffffffffffffffffff168152602001734b20993bc481177ec7e8f571cecae8a9e22c02db73ffffffffffffffffffffffffffffffffffffffff1673ffffffffffffffffffffffffffffffffffffffff1681526020017378731d3ca6b7e34ac0f824c42a7cc18a495cabab73ffffffffffffffffffffffffffffffffffffffff1673ffffffffffffffffffffffffffffffffffffffff16815250600a90600461020f92919061023b565b5034801561021b575f80fd5b506102d2565b610231806118c983390190565b610d6f80611afa83390190565b82600481019282156102a6579160200282015b828111156102a5578251825f6101000a81548173ffffffffffffffffffffffffffffffffffffffff021916908373ffffffffffffffffffffffffffffffffffffffff1602179055509160200191906001019061024e565b5b5090506102b391906102b7565b5090565b5b808211156102ce575f815f9055506001016102b8565b5090565b6115ea806102df5f395ff3fe608060405260043610610090575f3560e01c806390d5d0c31161005857806390d5d0c3146101565780639d7b3f2d14610180578063b7786503146101aa578063d891f969146101c0578063f71d96cb146101e857610090565b8063086f7815146100945780631842fc89146100be578063190cf745146100e6578063228cb7331461012257806327b5db8a1461014c575b5f80fd5b34801561009f575f80fd5b506100a8610224565b6040516100b59190611013565b60405180910390f35b3480156100c9575f80fd5b506100e460048036038101906100df91906110af565b61022a565b005b3480156100f1575f80fd5b5061010c60048036038101906101079190611147565b610409565b604051610119919061118c565b60405180910390f35b34801561012d575f80fd5b50610136610426565b6040516101439190611013565b60405180910390f35b61015461042c565b005b348015610161575f80fd5b5061016a6105c7565b6040516101779190611013565b60405180910390f35b34801561018b575f80fd5b506101946105cc565b6040516101a19190611200565b60405180910390f35b3480156101b5575f80fd5b506101be6105f1565b005b3480156101cb575f80fd5b506101e660048036038101906101e1919061124c565b610997565b005b3480156101f3575f80fd5b5061020e60048036038101906102099190611277565b610bc5565b60405161021b91906112b1565b60405180910390f35b60065481565b60025f5414610237575f80fd5b600260065414610245575f80fd5b5f825f1b90505f818360405160200161025f92919061130a565b60405160208183030381529060405280519060200120905060025f3373ffffffffffffffffffffffffffffffffffffffff1673ffffffffffffffffffffffffffffffffffffffff1681526020019081526020015f205481146102f6576040517f08c379a00000000000000000000000000000000000000000000000000000000081526004016102ed9061138f565b60405180910390fd5b60095f9054906101000a900473ffffffffffffffffffffffffffffffffffffffff1673ffffffffffffffffffffffffffffffffffffffff1663701fd0f1826040518263ffffffff1660e01b815260040161035091906113bc565b5f604051808303815f87803b158015610367575f80fd5b505af1158015610379573d5f803e3d5ffd5b505050505f8360f81c60ff1690506004811115801561039857505f8110155b6103a0575f80fd5b8060035f3373ffffffffffffffffffffffffffffffffffffffff1673ffffffffffffffffffffffffffffffffffffffff1681526020019081526020015f2081905550600260065403610402575f6006819055505f8081905550610401610c00565b5b5050505050565b6004602052805f5260405f205f915054906101000a900460ff1681565b60015481565b60025f5410610439575f80fd5b610441610f0a565b610449575f80fd5b670de0b6b3a7640000341461045c575f80fd5b3460015f82825461046d9190611402565b92505081905550600160045f3373ffffffffffffffffffffffffffffffffffffffff1673ffffffffffffffffffffffffffffffffffffffff1681526020019081526020015f205f6101000a81548160ff021916908315150217905550600533908060018154018082558091505060019003905f5260205f20015f9091909190916101000a81548173ffffffffffffffffffffffffffffffffffffffff021916908373ffffffffffffffffffffffffffffffffffffffff1602179055505f8081548092919061053a90611435565b919050555060015f54036105c55760075f9054906101000a900473ffffffffffffffffffffffffffffffffffffffff1673ffffffffffffffffffffffffffffffffffffffff1663a63f7c536040518163ffffffff1660e01b81526004015f604051808303815f87803b1580156105ae575f80fd5b505af11580156105c0573d5f803e3d5ffd5b505050505b565b5f5481565b60095f9054906101000a900473ffffffffffffffffffffffffffffffffffffffff1681565b60085460075f9054906101000a900473ffffffffffffffffffffffffffffffffffffffff1673ffffffffffffffffffffffffffffffffffffffff1663d97c84166040518163ffffffff1660e01b8152600401602060405180830381865afa15801561065e573d5f803e3d5ffd5b505050506040513d601f19601f820116820180604052508101906106829190611490565b106109955760016005805490500361071f575f60055f815481106106a9576106a86114bb565b5b905f5260205f20015f9054906101000a900473ffffffffffffffffffffffffffffffffffffffff1690508073ffffffffffffffffffffffffffffffffffffffff166108fc60015490811502906040515f60405180830381858888f19350505050158015610718573d5f803e3d5ffd5b505061098c565b60025f5414801561073257506002600654145b15610861575f60055f8154811061074c5761074b6114bb565b5b905f5260205f20015f9054906101000a900473ffffffffffffffffffffffffffffffffffffffff1690505f600560018154811061078c5761078b6114bb565b5b905f5260205f20015f9054906101000a900473ffffffffffffffffffffffffffffffffffffffff1690508173ffffffffffffffffffffffffffffffffffffffff166108fc60026001546107df9190611515565b90811502906040515f60405180830381858888f19350505050158015610807573d5f803e3d5ffd5b508073ffffffffffffffffffffffffffffffffffffffff166108fc60026001546108319190611515565b90811502906040515f60405180830381858888f19350505050158015610859573d5f803e3d5ffd5b50505061098b565b5f5b60028110156109895760045f60058381548110610883576108826114bb565b5b905f5260205f20015f9054906101000a900473ffffffffffffffffffffffffffffffffffffffff1673ffffffffffffffffffffffffffffffffffffffff1673ffffffffffffffffffffffffffffffffffffffff1681526020019081526020015f205f9054906101000a900460ff1661097c575f6005828154811061090a576109096114bb565b5b905f5260205f20015f9054906101000a900473ffffffffffffffffffffffffffffffffffffffff1690508073ffffffffffffffffffffffffffffffffffffffff166108fc60015490811502906040515f60405180830381858888f19350505050158015610979573d5f803e3d5ffd5b50505b8080600101915050610863565b505b5b610994610f9f565b5b565b60025f54146109a4575f80fd5b60045f3373ffffffffffffffffffffffffffffffffffffffff1673ffffffffffffffffffffffffffffffffffffffff1681526020019081526020015f205f9054906101000a900460ff166109f6575f80fd5b60095f9054906101000a900473ffffffffffffffffffffffffffffffffffffffff1673ffffffffffffffffffffffffffffffffffffffff1663f14fcbc860095f9054906101000a900473ffffffffffffffffffffffffffffffffffffffff1673ffffffffffffffffffffffffffffffffffffffff16633cf5040a846040518263ffffffff1660e01b8152600401610a8d91906113bc565b602060405180830381865afa158015610aa8573d5f803e3d5ffd5b505050506040513d601f19601f82011682018060405250810190610acc9190611559565b6040518263ffffffff1660e01b8152600401610ae891906113bc565b5f604051808303815f87803b158015610aff575f80fd5b505af1158015610b11573d5f803e3d5ffd5b505050508060025f3373ffffffffffffffffffffffffffffffffffffffff1673ffffffffffffffffffffffffffffffffffffffff1681526020019081526020015f20819055505f60045f3373ffffffffffffffffffffffffffffffffffffffff1673ffffffffffffffffffffffffffffffffffffffff1681526020019081526020015f205f6101000a81548160ff02191690831515021790555060065f815480929190610bbd90611435565b919050555050565b60058181548110610bd4575f80fd5b905f5260205f20015f915054906101000a900473ffffffffffffffffffffffffffffffffffffffff1681565b5f60035f60055f81548110610c1857610c176114bb565b5b905f5260205f20015f9054906101000a900473ffffffffffffffffffffffffffffffffffffffff1673ffffffffffffffffffffffffffffffffffffffff1673ffffffffffffffffffffffffffffffffffffffff1681526020019081526020015f205490505f60035f6005600181548110610c9557610c946114bb565b5b905f5260205f20015f9054906101000a900473ffffffffffffffffffffffffffffffffffffffff1673ffffffffffffffffffffffffffffffffffffffff1673ffffffffffffffffffffffffffffffffffffffff1681526020019081526020015f205490505f60055f81548110610d0e57610d0d6114bb565b5b905f5260205f20015f9054906101000a900473ffffffffffffffffffffffffffffffffffffffff1690505f6005600181548110610d4e57610d4d6114bb565b5b905f5260205f20015f9054906101000a900473ffffffffffffffffffffffffffffffffffffffff169050828403610e28578173ffffffffffffffffffffffffffffffffffffffff166108fc6002600154610da89190611515565b90811502906040515f60405180830381858888f19350505050158015610dd0573d5f803e3d5ffd5b508073ffffffffffffffffffffffffffffffffffffffff166108fc6002600154610dfa9190611515565b90811502906040515f60405180830381858888f19350505050158015610e22573d5f803e3d5ffd5b50610efd565b836005600185610e389190611402565b610e429190611584565b1480610e655750836005600385610e599190611402565b610e639190611584565b145b15610eb5578173ffffffffffffffffffffffffffffffffffffffff166108fc60015490811502906040515f60405180830381858888f19350505050158015610eaf573d5f803e3d5ffd5b50610efc565b8073ffffffffffffffffffffffffffffffffffffffff166108fc60015490811502906040515f60405180830381858888f19350505050158015610efa573d5f803e3d5ffd5b505b5b5f60018190555050505050565b5f805f90505b6004811015610f9757600a8160048110610f2d57610f2c6114bb565b5b015f9054906101000a900473ffffffffffffffffffffffffffffffffffffffff1673ffffffffffffffffffffffffffffffffffffffff163373ffffffffffffffffffffffffffffffffffffffff1603610f8a576001915050610f9c565b8080600101915050610f10565b505f90505b90565b60055f610fac9190610fc2565b5f6006819055505f80819055505f600181905550565b5080545f8255905f5260205f2090810190610fdd9190610fe0565b50565b5b80821115610ff7575f815f905550600101610fe1565b5090565b5f819050919050565b61100d81610ffb565b82525050565b5f6020820190506110265f830184611004565b92915050565b5f80fd5b61103981610ffb565b8114611043575f80fd5b50565b5f8135905061105481611030565b92915050565b5f7fff0000000000000000000000000000000000000000000000000000000000000082169050919050565b61108e8161105a565b8114611098575f80fd5b50565b5f813590506110a981611085565b92915050565b5f80604083850312156110c5576110c461102c565b5b5f6110d285828601611046565b92505060206110e38582860161109b565b9150509250929050565b5f73ffffffffffffffffffffffffffffffffffffffff82169050919050565b5f611116826110ed565b9050919050565b6111268161110c565b8114611130575f80fd5b50565b5f813590506111418161111d565b92915050565b5f6020828403121561115c5761115b61102c565b5b5f61116984828501611133565b91505092915050565b5f8115159050919050565b61118681611172565b82525050565b5f60208201905061119f5f83018461117d565b92915050565b5f819050919050565b5f6111c86111c36111be846110ed565b6111a5565b6110ed565b9050919050565b5f6111d9826111ae565b9050919050565b5f6111ea826111cf565b9050919050565b6111fa816111e0565b82525050565b5f6020820190506112135f8301846111f1565b92915050565b5f819050919050565b61122b81611219565b8114611235575f80fd5b50565b5f8135905061124681611222565b92915050565b5f602082840312156112615761126061102c565b5b5f61126e84828501611238565b91505092915050565b5f6020828403121561128c5761128b61102c565b5b5f61129984828501611046565b91505092915050565b6112ab8161110c565b82525050565b5f6020820190506112c45f8301846112a2565b92915050565b5f819050919050565b6112e46112df82611219565b6112ca565b82525050565b5f819050919050565b6113046112ff8261105a565b6112ea565b82525050565b5f61131582856112d3565b60208201915061132582846112f3565b6001820191508190509392505050565b5f82825260208201905092915050565b7f43686f6963652068617368206d69736d617463680000000000000000000000005f82015250565b5f611379601483611335565b915061138482611345565b602082019050919050565b5f6020820190508181035f8301526113a68161136d565b9050919050565b6113b681611219565b82525050565b5f6020820190506113cf5f8301846113ad565b92915050565b7f4e487b71000000000000000000000000000000000000000000000000000000005f52601160045260245ffd5b5f61140c82610ffb565b915061141783610ffb565b925082820190508082111561142f5761142e6113d5565b5b92915050565b5f61143f82610ffb565b91507fffffffffffffffffffffffffffffffffffffffffffffffffffffffffffffffff8203611471576114706113d5565b5b600182019050919050565b5f8151905061148a81611030565b92915050565b5f602082840312156114a5576114a461102c565b5b5f6114b28482850161147c565b91505092915050565b7f4e487b71000000000000000000000000000000000000000000000000000000005f52603260045260245ffd5b7f4e487b71000000000000000000000000000000000000000000000000000000005f52601260045260245ffd5b5f61151f82610ffb565b915061152a83610ffb565b92508261153a576115396114e8565b5b828204905092915050565b5f8151905061155381611222565b92915050565b5f6020828403121561156e5761156d61102c565b5b5f61157b84828501611545565b91505092915050565b5f61158e82610ffb565b915061159983610ffb565b9250826115a9576115a86114e8565b5b82820690509291505056fea2646970667358221220494fd612d7c377bb43d2afc1ff6a0bffefb14840a21b16ad7104a2863dd2640864736f6c634300081a00336080604052348015600e575f80fd5b506102158061001c5f395ff3fe608060405234801561000f575f80fd5b506004361061004a575f3560e01c806378e979251461004e578063a63f7c531461006c578063bc06b8cd14610076578063d97c841614610094575b5f80fd5b6100566100b2565b6040516100639190610109565b60405180910390f35b6100746100b7565b005b61007e6100bf565b60405161008b9190610109565b60405180910390f35b61009c6100d2565b6040516100a99190610109565b60405180910390f35b5f5481565b425f81905550565b5f8054426100cd919061014f565b905090565b5f603c5f54426100e2919061014f565b6100ec91906101af565b905090565b5f819050919050565b610103816100f1565b82525050565b5f60208201905061011c5f8301846100fa565b92915050565b7f4e487b71000000000000000000000000000000000000000000000000000000005f52601160045260245ffd5b5f610159826100f1565b9150610164836100f1565b925082820390508181111561017c5761017b610122565b5b92915050565b7f4e487b71000000000000000000000000000000000000000000000000000000005f52601260045260245ffd5b5f6101b9826100f1565b91506101c4836100f1565b9250826101d4576101d3610182565b5b82820490509291505056fea2646970667358221220aac731c651a41091e78c4c68ca2cde2e708ec23868c1bbf8979319bbf0b1f7c164736f6c634300081a0033608060405260645f806101000a81548160ff021916908360ff1602179055503480156028575f80fd5b50610d39806100365f395ff3fe608060405234801561000f575f80fd5b5060043610610055575f3560e01c80633cf5040a146100595780636ac5db1914610089578063701fd0f1146100a75780637b43a8e6146100c3578063f14fcbc8146100f5575b5f80fd5b610073600480360381019061006e919061075d565b610111565b6040516100809190610797565b60405180910390f35b610091610140565b60405161009e91906107cb565b60405180910390f35b6100c160048036038101906100bc919061075d565b610150565b005b6100dd60048036038101906100d8919061083e565b61050e565b6040516100ec939291906108a5565b60405180910390f35b61010f600480360381019061010a919061075d565b610554565b005b5f8160405160200161012391906108fa565b604051602081830303815290604052805190602001209050919050565b5f8054906101000a900460ff1681565b5f151560015f3373ffffffffffffffffffffffffffffffffffffffff1673ffffffffffffffffffffffffffffffffffffffff1681526020019081526020015f2060010160089054906101000a900460ff161515146101e3576040517f08c379a00000000000000000000000000000000000000000000000000000000081526004016101da90610994565b60405180910390fd5b6001805f3373ffffffffffffffffffffffffffffffffffffffff1673ffffffffffffffffffffffffffffffffffffffff1681526020019081526020015f2060010160086101000a81548160ff02191690831515021790555060015f3373ffffffffffffffffffffffffffffffffffffffff1673ffffffffffffffffffffffffffffffffffffffff1681526020019081526020015f205f015461028482610111565b146102c4576040517f08c379a00000000000000000000000000000000000000000000000000000000081526004016102bb90610a22565b60405180910390fd5b60015f3373ffffffffffffffffffffffffffffffffffffffff1673ffffffffffffffffffffffffffffffffffffffff1681526020019081526020015f206001015f9054906101000a900467ffffffffffffffff1667ffffffffffffffff164367ffffffffffffffff161161036d576040517f08c379a000000000000000000000000000000000000000000000000000000000815260040161036490610ad6565b60405180910390fd5b60fa60015f3373ffffffffffffffffffffffffffffffffffffffff1673ffffffffffffffffffffffffffffffffffffffff1681526020019081526020015f206001015f9054906101000a900467ffffffffffffffff166103cd9190610b21565b67ffffffffffffffff164367ffffffffffffffff161115610423576040517f08c379a000000000000000000000000000000000000000000000000000000000815260040161041a90610bcc565b60405180910390fd5b5f60015f3373ffffffffffffffffffffffffffffffffffffffff1673ffffffffffffffffffffffffffffffffffffffff1681526020019081526020015f206001015f9054906101000a900467ffffffffffffffff1667ffffffffffffffff164090505f805f9054906101000a900460ff1660ff1682846040516020016104aa929190610bea565b604051602081830303815290604052805190602001205f1c6104cc9190610c4b565b90507fbc016dd1cadeaefcb851af7a0a93532e0023d536894b730801f7bcfe7065bcc233848360405161050193929190610c99565b60405180910390a1505050565b6001602052805f5260405f205f91509050805f015490806001015f9054906101000a900467ffffffffffffffff16908060010160089054906101000a900460ff16905083565b8060015f3373ffffffffffffffffffffffffffffffffffffffff1673ffffffffffffffffffffffffffffffffffffffff1681526020019081526020015f205f01819055504360015f3373ffffffffffffffffffffffffffffffffffffffff1673ffffffffffffffffffffffffffffffffffffffff1681526020019081526020015f206001015f6101000a81548167ffffffffffffffff021916908367ffffffffffffffff1602179055505f60015f3373ffffffffffffffffffffffffffffffffffffffff1673ffffffffffffffffffffffffffffffffffffffff1681526020019081526020015f2060010160086101000a81548160ff0219169083151502179055507f3c1a1f8f38335b17f751c6da4ba7d1865f26b3997535176f5080de9fad8916033360015f3373ffffffffffffffffffffffffffffffffffffffff1673ffffffffffffffffffffffffffffffffffffffff1681526020019081526020015f205f015460015f3373ffffffffffffffffffffffffffffffffffffffff1673ffffffffffffffffffffffffffffffffffffffff1681526020019081526020015f206001015f9054906101000a900467ffffffffffffffff1660405161071b93929190610cce565b60405180910390a150565b5f80fd5b5f819050919050565b61073c8161072a565b8114610746575f80fd5b50565b5f8135905061075781610733565b92915050565b5f6020828403121561077257610771610726565b5b5f61077f84828501610749565b91505092915050565b6107918161072a565b82525050565b5f6020820190506107aa5f830184610788565b92915050565b5f60ff82169050919050565b6107c5816107b0565b82525050565b5f6020820190506107de5f8301846107bc565b92915050565b5f73ffffffffffffffffffffffffffffffffffffffff82169050919050565b5f61080d826107e4565b9050919050565b61081d81610803565b8114610827575f80fd5b50565b5f8135905061083881610814565b92915050565b5f6020828403121561085357610852610726565b5b5f6108608482850161082a565b91505092915050565b5f67ffffffffffffffff82169050919050565b61088581610869565b82525050565b5f8115159050919050565b61089f8161088b565b82525050565b5f6060820190506108b85f830186610788565b6108c5602083018561087c565b6108d26040830184610896565b949350505050565b5f819050919050565b6108f46108ef8261072a565b6108da565b82525050565b5f61090582846108e3565b60208201915081905092915050565b5f82825260208201905092915050565b7f436f6d6d697452657665616c3a3a72657665616c3a20416c72656164792072655f8201527f7665616c65640000000000000000000000000000000000000000000000000000602082015250565b5f61097e602683610914565b915061098982610924565b604082019050919050565b5f6020820190508181035f8301526109ab81610972565b9050919050565b7f436f6d6d697452657665616c3a3a72657665616c3a2052657665616c656420685f8201527f61736820646f6573206e6f74206d6174636820636f6d6d697400000000000000602082015250565b5f610a0c603983610914565b9150610a17826109b2565b604082019050919050565b5f6020820190508181035f830152610a3981610a00565b9050919050565b7f436f6d6d697452657665616c3a3a72657665616c3a2052657665616c20616e645f8201527f20636f6d6d69742068617070656e6564206f6e207468652073616d6520626c6f60208201527f636b000000000000000000000000000000000000000000000000000000000000604082015250565b5f610ac0604283610914565b9150610acb82610a40565b606082019050919050565b5f6020820190508181035f830152610aed81610ab4565b9050919050565b7f4e487b71000000000000000000000000000000000000000000000000000000005f52601160045260245ffd5b5f610b2b82610869565b9150610b3683610869565b9250828201905067ffffffffffffffff811115610b5657610b55610af4565b5b92915050565b7f436f6d6d697452657665616c3a3a72657665616c3a2052657665616c656420745f8201527f6f6f206c61746500000000000000000000000000000000000000000000000000602082015250565b5f610bb6602783610914565b9150610bc182610b5c565b604082019050919050565b5f6020820190508181035f830152610be381610baa565b9050919050565b5f610bf582856108e3565b602082019150610c0582846108e3565b6020820191508190509392505050565b5f819050919050565b7f4e487b71000000000000000000000000000000000000000000000000000000005f52601260045260245ffd5b5f610c5582610c15565b9150610c6083610c15565b925082610c7057610c6f610c1e565b5b828206905092915050565b610c8481610803565b82525050565b610c9381610c15565b82525050565b5f606082019050610cac5f830186610c7b565b610cb96020830185610788565b610cc66040830184610c8a565b949350505050565b5f606082019050610ce15f830186610c7b565b610cee6020830185610788565b610cfb604083018461087c565b94935050505056fea26469706673582212201eafc90a77e60daf17aa211974ece341ffd58201ca08dfba4a59a1a10bff5ee064736f6c634300081a0033",
					"opcodes": "PUSH1 0x80 PUSH1 0x40 MSTORE PUSH0 DUP1 SSTORE PUSH0 PUSH1 0x1 SSTORE PUSH0 PUSH1 0x6 SSTORE PUSH1 0x40 MLOAD PUSH2 0x1B SWAP1 PUSH2 0x221 JUMP JUMPDEST PUSH1 0x40 MLOAD DUP1 SWAP2 SUB SWAP1 PUSH0 CREATE DUP1 ISZERO DUP1 ISZERO PUSH2 0x34 JUMPI RETURNDATASIZE PUSH0 DUP1 RETURNDATACOPY RETURNDATASIZE PUSH0 REVERT JUMPDEST POP PUSH1 0x7 PUSH0 PUSH2 0x100 EXP DUP2 SLOAD DUP2 PUSH20 0xFFFFFFFFFFFFFFFFFFFFFFFFFFFFFFFFFFFFFFFF MUL NOT AND SWAP1 DUP4 PUSH20 0xFFFFFFFFFFFFFFFFFFFFFFFFFFFFFFFFFFFFFFFF AND MUL OR SWAP1 SSTORE POP PUSH1 0x1 PUSH1 0x8 SSTORE PUSH1 0x40 MLOAD PUSH2 0x85 SWAP1 PUSH2 0x22E JUMP JUMPDEST PUSH1 0x40 MLOAD DUP1 SWAP2 SUB SWAP1 PUSH0 CREATE DUP1 ISZERO DUP1 ISZERO PUSH2 0x9E JUMPI RETURNDATASIZE PUSH0 DUP1 RETURNDATACOPY RETURNDATASIZE PUSH0 REVERT JUMPDEST POP PUSH1 0x9 PUSH0 PUSH2 0x100 EXP DUP2 SLOAD DUP2 PUSH20 0xFFFFFFFFFFFFFFFFFFFFFFFFFFFFFFFFFFFFFFFF MUL NOT AND SWAP1 DUP4 PUSH20 0xFFFFFFFFFFFFFFFFFFFFFFFFFFFFFFFFFFFFFFFF AND MUL OR SWAP1 SSTORE POP PUSH1 0x40 MLOAD DUP1 PUSH1 0x80 ADD PUSH1 0x40 MSTORE DUP1 PUSH20 0x5B38DA6A701C568545DCFCB03FCB875F56BEDDC4 PUSH20 0xFFFFFFFFFFFFFFFFFFFFFFFFFFFFFFFFFFFFFFFF AND PUSH20 0xFFFFFFFFFFFFFFFFFFFFFFFFFFFFFFFFFFFFFFFF AND DUP2 MSTORE PUSH1 0x20 ADD PUSH20 0xAB8483F64D9C6D1ECF9B849AE677DD3315835CB2 PUSH20 0xFFFFFFFFFFFFFFFFFFFFFFFFFFFFFFFFFFFFFFFF AND PUSH20 0xFFFFFFFFFFFFFFFFFFFFFFFFFFFFFFFFFFFFFFFF AND DUP2 MSTORE PUSH1 0x20 ADD PUSH20 0x4B20993BC481177EC7E8F571CECAE8A9E22C02DB PUSH20 0xFFFFFFFFFFFFFFFFFFFFFFFFFFFFFFFFFFFFFFFF AND PUSH20 0xFFFFFFFFFFFFFFFFFFFFFFFFFFFFFFFFFFFFFFFF AND DUP2 MSTORE PUSH1 0x20 ADD PUSH20 0x78731D3CA6B7E34AC0F824C42A7CC18A495CABAB PUSH20 0xFFFFFFFFFFFFFFFFFFFFFFFFFFFFFFFFFFFFFFFF AND PUSH20 0xFFFFFFFFFFFFFFFFFFFFFFFFFFFFFFFFFFFFFFFF AND DUP2 MSTORE POP PUSH1 0xA SWAP1 PUSH1 0x4 PUSH2 0x20F SWAP3 SWAP2 SWAP1 PUSH2 0x23B JUMP JUMPDEST POP CALLVALUE DUP1 ISZERO PUSH2 0x21B JUMPI PUSH0 DUP1 REVERT JUMPDEST POP PUSH2 0x2D2 JUMP JUMPDEST PUSH2 0x231 DUP1 PUSH2 0x18C9 DUP4 CODECOPY ADD SWAP1 JUMP JUMPDEST PUSH2 0xD6F DUP1 PUSH2 0x1AFA DUP4 CODECOPY ADD SWAP1 JUMP JUMPDEST DUP3 PUSH1 0x4 DUP2 ADD SWAP3 DUP3 ISZERO PUSH2 0x2A6 JUMPI SWAP2 PUSH1 0x20 MUL DUP3 ADD JUMPDEST DUP3 DUP2 GT ISZERO PUSH2 0x2A5 JUMPI DUP3 MLOAD DUP3 PUSH0 PUSH2 0x100 EXP DUP2 SLOAD DUP2 PUSH20 0xFFFFFFFFFFFFFFFFFFFFFFFFFFFFFFFFFFFFFFFF MUL NOT AND SWAP1 DUP4 PUSH20 0xFFFFFFFFFFFFFFFFFFFFFFFFFFFFFFFFFFFFFFFF AND MUL OR SWAP1 SSTORE POP SWAP2 PUSH1 0x20 ADD SWAP2 SWAP1 PUSH1 0x1 ADD SWAP1 PUSH2 0x24E JUMP JUMPDEST JUMPDEST POP SWAP1 POP PUSH2 0x2B3 SWAP2 SWAP1 PUSH2 0x2B7 JUMP JUMPDEST POP SWAP1 JUMP JUMPDEST JUMPDEST DUP1 DUP3 GT ISZERO PUSH2 0x2CE JUMPI PUSH0 DUP2 PUSH0 SWAP1 SSTORE POP PUSH1 0x1 ADD PUSH2 0x2B8 JUMP JUMPDEST POP SWAP1 JUMP JUMPDEST PUSH2 0x15EA DUP1 PUSH2 0x2DF PUSH0 CODECOPY PUSH0 RETURN INVALID PUSH1 0x80 PUSH1 0x40 MSTORE PUSH1 0x4 CALLDATASIZE LT PUSH2 0x90 JUMPI PUSH0 CALLDATALOAD PUSH1 0xE0 SHR DUP1 PUSH4 0x90D5D0C3 GT PUSH2 0x58 JUMPI DUP1 PUSH4 0x90D5D0C3 EQ PUSH2 0x156 JUMPI DUP1 PUSH4 0x9D7B3F2D EQ PUSH2 0x180 JUMPI DUP1 PUSH4 0xB7786503 EQ PUSH2 0x1AA JUMPI DUP1 PUSH4 0xD891F969 EQ PUSH2 0x1C0 JUMPI DUP1 PUSH4 0xF71D96CB EQ PUSH2 0x1E8 JUMPI PUSH2 0x90 JUMP JUMPDEST DUP1 PUSH4 0x86F7815 EQ PUSH2 0x94 JUMPI DUP1 PUSH4 0x1842FC89 EQ PUSH2 0xBE JUMPI DUP1 PUSH4 0x190CF745 EQ PUSH2 0xE6 JUMPI DUP1 PUSH4 0x228CB733 EQ PUSH2 0x122 JUMPI DUP1 PUSH4 0x27B5DB8A EQ PUSH2 0x14C JUMPI JUMPDEST PUSH0 DUP1 REVERT JUMPDEST CALLVALUE DUP1 ISZERO PUSH2 0x9F JUMPI PUSH0 DUP1 REVERT JUMPDEST POP PUSH2 0xA8 PUSH2 0x224 JUMP JUMPDEST PUSH1 0x40 MLOAD PUSH2 0xB5 SWAP2 SWAP1 PUSH2 0x1013 JUMP JUMPDEST PUSH1 0x40 MLOAD DUP1 SWAP2 SUB SWAP1 RETURN JUMPDEST CALLVALUE DUP1 ISZERO PUSH2 0xC9 JUMPI PUSH0 DUP1 REVERT JUMPDEST POP PUSH2 0xE4 PUSH1 0x4 DUP1 CALLDATASIZE SUB DUP2 ADD SWAP1 PUSH2 0xDF SWAP2 SWAP1 PUSH2 0x10AF JUMP JUMPDEST PUSH2 0x22A JUMP JUMPDEST STOP JUMPDEST CALLVALUE DUP1 ISZERO PUSH2 0xF1 JUMPI PUSH0 DUP1 REVERT JUMPDEST POP PUSH2 0x10C PUSH1 0x4 DUP1 CALLDATASIZE SUB DUP2 ADD SWAP1 PUSH2 0x107 SWAP2 SWAP1 PUSH2 0x1147 JUMP JUMPDEST PUSH2 0x409 JUMP JUMPDEST PUSH1 0x40 MLOAD PUSH2 0x119 SWAP2 SWAP1 PUSH2 0x118C JUMP JUMPDEST PUSH1 0x40 MLOAD DUP1 SWAP2 SUB SWAP1 RETURN JUMPDEST CALLVALUE DUP1 ISZERO PUSH2 0x12D JUMPI PUSH0 DUP1 REVERT JUMPDEST POP PUSH2 0x136 PUSH2 0x426 JUMP JUMPDEST PUSH1 0x40 MLOAD PUSH2 0x143 SWAP2 SWAP1 PUSH2 0x1013 JUMP JUMPDEST PUSH1 0x40 MLOAD DUP1 SWAP2 SUB SWAP1 RETURN JUMPDEST PUSH2 0x154 PUSH2 0x42C JUMP JUMPDEST STOP JUMPDEST CALLVALUE DUP1 ISZERO PUSH2 0x161 JUMPI PUSH0 DUP1 REVERT JUMPDEST POP PUSH2 0x16A PUSH2 0x5C7 JUMP JUMPDEST PUSH1 0x40 MLOAD PUSH2 0x177 SWAP2 SWAP1 PUSH2 0x1013 JUMP JUMPDEST PUSH1 0x40 MLOAD DUP1 SWAP2 SUB SWAP1 RETURN JUMPDEST CALLVALUE DUP1 ISZERO PUSH2 0x18B JUMPI PUSH0 DUP1 REVERT JUMPDEST POP PUSH2 0x194 PUSH2 0x5CC JUMP JUMPDEST PUSH1 0x40 MLOAD PUSH2 0x1A1 SWAP2 SWAP1 PUSH2 0x1200 JUMP JUMPDEST PUSH1 0x40 MLOAD DUP1 SWAP2 SUB SWAP1 RETURN JUMPDEST CALLVALUE DUP1 ISZERO PUSH2 0x1B5 JUMPI PUSH0 DUP1 REVERT JUMPDEST POP PUSH2 0x1BE PUSH2 0x5F1 JUMP JUMPDEST STOP JUMPDEST CALLVALUE DUP1 ISZERO PUSH2 0x1CB JUMPI PUSH0 DUP1 REVERT JUMPDEST POP PUSH2 0x1E6 PUSH1 0x4 DUP1 CALLDATASIZE SUB DUP2 ADD SWAP1 PUSH2 0x1E1 SWAP2 SWAP1 PUSH2 0x124C JUMP JUMPDEST PUSH2 0x997 JUMP JUMPDEST STOP JUMPDEST CALLVALUE DUP1 ISZERO PUSH2 0x1F3 JUMPI PUSH0 DUP1 REVERT JUMPDEST POP PUSH2 0x20E PUSH1 0x4 DUP1 CALLDATASIZE SUB DUP2 ADD SWAP1 PUSH2 0x209 SWAP2 SWAP1 PUSH2 0x1277 JUMP JUMPDEST PUSH2 0xBC5 JUMP JUMPDEST PUSH1 0x40 MLOAD PUSH2 0x21B SWAP2 SWAP1 PUSH2 0x12B1 JUMP JUMPDEST PUSH1 0x40 MLOAD DUP1 SWAP2 SUB SWAP1 RETURN JUMPDEST PUSH1 0x6 SLOAD DUP2 JUMP JUMPDEST PUSH1 0x2 PUSH0 SLOAD EQ PUSH2 0x237 JUMPI PUSH0 DUP1 REVERT JUMPDEST PUSH1 0x2 PUSH1 0x6 SLOAD EQ PUSH2 0x245 JUMPI PUSH0 DUP1 REVERT JUMPDEST PUSH0 DUP3 PUSH0 SHL SWAP1 POP PUSH0 DUP2 DUP4 PUSH1 0x40 MLOAD PUSH1 0x20 ADD PUSH2 0x25F SWAP3 SWAP2 SWAP1 PUSH2 0x130A JUMP JUMPDEST PUSH1 0x40 MLOAD PUSH1 0x20 DUP2 DUP4 SUB SUB DUP2 MSTORE SWAP1 PUSH1 0x40 MSTORE DUP1 MLOAD SWAP1 PUSH1 0x20 ADD KECCAK256 SWAP1 POP PUSH1 0x2 PUSH0 CALLER PUSH20 0xFFFFFFFFFFFFFFFFFFFFFFFFFFFFFFFFFFFFFFFF AND PUSH20 0xFFFFFFFFFFFFFFFFFFFFFFFFFFFFFFFFFFFFFFFF AND DUP2 MSTORE PUSH1 0x20 ADD SWAP1 DUP2 MSTORE PUSH1 0x20 ADD PUSH0 KECCAK256 SLOAD DUP2 EQ PUSH2 0x2F6 JUMPI PUSH1 0x40 MLOAD PUSH32 0x8C379A000000000000000000000000000000000000000000000000000000000 DUP2 MSTORE PUSH1 0x4 ADD PUSH2 0x2ED SWAP1 PUSH2 0x138F JUMP JUMPDEST PUSH1 0x40 MLOAD DUP1 SWAP2 SUB SWAP1 REVERT JUMPDEST PUSH1 0x9 PUSH0 SWAP1 SLOAD SWAP1 PUSH2 0x100 EXP SWAP1 DIV PUSH20 0xFFFFFFFFFFFFFFFFFFFFFFFFFFFFFFFFFFFFFFFF AND PUSH20 0xFFFFFFFFFFFFFFFFFFFFFFFFFFFFFFFFFFFFFFFF AND PUSH4 0x701FD0F1 DUP3 PUSH1 0x40 MLOAD DUP3 PUSH4 0xFFFFFFFF AND PUSH1 0xE0 SHL DUP2 MSTORE PUSH1 0x4 ADD PUSH2 0x350 SWAP2 SWAP1 PUSH2 0x13BC JUMP JUMPDEST PUSH0 PUSH1 0x40 MLOAD DUP1 DUP4 SUB DUP2 PUSH0 DUP8 DUP1 EXTCODESIZE ISZERO DUP1 ISZERO PUSH2 0x367 JUMPI PUSH0 DUP1 REVERT JUMPDEST POP GAS CALL ISZERO DUP1 ISZERO PUSH2 0x379 JUMPI RETURNDATASIZE PUSH0 DUP1 RETURNDATACOPY RETURNDATASIZE PUSH0 REVERT JUMPDEST POP POP POP POP PUSH0 DUP4 PUSH1 0xF8 SHR PUSH1 0xFF AND SWAP1 POP PUSH1 0x4 DUP2 GT ISZERO DUP1 ISZERO PUSH2 0x398 JUMPI POP PUSH0 DUP2 LT ISZERO JUMPDEST PUSH2 0x3A0 JUMPI PUSH0 DUP1 REVERT JUMPDEST DUP1 PUSH1 0x3 PUSH0 CALLER PUSH20 0xFFFFFFFFFFFFFFFFFFFFFFFFFFFFFFFFFFFFFFFF AND PUSH20 0xFFFFFFFFFFFFFFFFFFFFFFFFFFFFFFFFFFFFFFFF AND DUP2 MSTORE PUSH1 0x20 ADD SWAP1 DUP2 MSTORE PUSH1 0x20 ADD PUSH0 KECCAK256 DUP2 SWAP1 SSTORE POP PUSH1 0x2 PUSH1 0x6 SLOAD SUB PUSH2 0x402 JUMPI PUSH0 PUSH1 0x6 DUP2 SWAP1 SSTORE POP PUSH0 DUP1 DUP2 SWAP1 SSTORE POP PUSH2 0x401 PUSH2 0xC00 JUMP JUMPDEST JUMPDEST POP POP POP POP POP JUMP JUMPDEST PUSH1 0x4 PUSH1 0x20 MSTORE DUP1 PUSH0 MSTORE PUSH1 0x40 PUSH0 KECCAK256 PUSH0 SWAP2 POP SLOAD SWAP1 PUSH2 0x100 EXP SWAP1 DIV PUSH1 0xFF AND DUP2 JUMP JUMPDEST PUSH1 0x1 SLOAD DUP2 JUMP JUMPDEST PUSH1 0x2 PUSH0 SLOAD LT PUSH2 0x439 JUMPI PUSH0 DUP1 REVERT JUMPDEST PUSH2 0x441 PUSH2 0xF0A JUMP JUMPDEST PUSH2 0x449 JUMPI PUSH0 DUP1 REVERT JUMPDEST PUSH8 0xDE0B6B3A7640000 CALLVALUE EQ PUSH2 0x45C JUMPI PUSH0 DUP1 REVERT JUMPDEST CALLVALUE PUSH1 0x1 PUSH0 DUP3 DUP3 SLOAD PUSH2 0x46D SWAP2 SWAP1 PUSH2 0x1402 JUMP JUMPDEST SWAP3 POP POP DUP2 SWAP1 SSTORE POP PUSH1 0x1 PUSH1 0x4 PUSH0 CALLER PUSH20 0xFFFFFFFFFFFFFFFFFFFFFFFFFFFFFFFFFFFFFFFF AND PUSH20 0xFFFFFFFFFFFFFFFFFFFFFFFFFFFFFFFFFFFFFFFF AND DUP2 MSTORE PUSH1 0x20 ADD SWAP1 DUP2 MSTORE PUSH1 0x20 ADD PUSH0 KECCAK256 PUSH0 PUSH2 0x100 EXP DUP2 SLOAD DUP2 PUSH1 0xFF MUL NOT AND SWAP1 DUP4 ISZERO ISZERO MUL OR SWAP1 SSTORE POP PUSH1 0x5 CALLER SWAP1 DUP1 PUSH1 0x1 DUP2 SLOAD ADD DUP1 DUP3 SSTORE DUP1 SWAP2 POP POP PUSH1 0x1 SWAP1 SUB SWAP1 PUSH0 MSTORE PUSH1 0x20 PUSH0 KECCAK256 ADD PUSH0 SWAP1 SWAP2 SWAP1 SWAP2 SWAP1 SWAP2 PUSH2 0x100 EXP DUP2 SLOAD DUP2 PUSH20 0xFFFFFFFFFFFFFFFFFFFFFFFFFFFFFFFFFFFFFFFF MUL NOT AND SWAP1 DUP4 PUSH20 0xFFFFFFFFFFFFFFFFFFFFFFFFFFFFFFFFFFFFFFFF AND MUL OR SWAP1 SSTORE POP PUSH0 DUP1 DUP2 SLOAD DUP1 SWAP3 SWAP2 SWAP1 PUSH2 0x53A SWAP1 PUSH2 0x1435 JUMP JUMPDEST SWAP2 SWAP1 POP SSTORE POP PUSH1 0x1 PUSH0 SLOAD SUB PUSH2 0x5C5 JUMPI PUSH1 0x7 PUSH0 SWAP1 SLOAD SWAP1 PUSH2 0x100 EXP SWAP1 DIV PUSH20 0xFFFFFFFFFFFFFFFFFFFFFFFFFFFFFFFFFFFFFFFF AND PUSH20 0xFFFFFFFFFFFFFFFFFFFFFFFFFFFFFFFFFFFFFFFF AND PUSH4 0xA63F7C53 PUSH1 0x40 MLOAD DUP2 PUSH4 0xFFFFFFFF AND PUSH1 0xE0 SHL DUP2 MSTORE PUSH1 0x4 ADD PUSH0 PUSH1 0x40 MLOAD DUP1 DUP4 SUB DUP2 PUSH0 DUP8 DUP1 EXTCODESIZE ISZERO DUP1 ISZERO PUSH2 0x5AE JUMPI PUSH0 DUP1 REVERT JUMPDEST POP GAS CALL ISZERO DUP1 ISZERO PUSH2 0x5C0 JUMPI RETURNDATASIZE PUSH0 DUP1 RETURNDATACOPY RETURNDATASIZE PUSH0 REVERT JUMPDEST POP POP POP POP JUMPDEST JUMP JUMPDEST PUSH0 SLOAD DUP2 JUMP JUMPDEST PUSH1 0x9 PUSH0 SWAP1 SLOAD SWAP1 PUSH2 0x100 EXP SWAP1 DIV PUSH20 0xFFFFFFFFFFFFFFFFFFFFFFFFFFFFFFFFFFFFFFFF AND DUP2 JUMP JUMPDEST PUSH1 0x8 SLOAD PUSH1 0x7 PUSH0 SWAP1 SLOAD SWAP1 PUSH2 0x100 EXP SWAP1 DIV PUSH20 0xFFFFFFFFFFFFFFFFFFFFFFFFFFFFFFFFFFFFFFFF AND PUSH20 0xFFFFFFFFFFFFFFFFFFFFFFFFFFFFFFFFFFFFFFFF AND PUSH4 0xD97C8416 PUSH1 0x40 MLOAD DUP2 PUSH4 0xFFFFFFFF AND PUSH1 0xE0 SHL DUP2 MSTORE PUSH1 0x4 ADD PUSH1 0x20 PUSH1 0x40 MLOAD DUP1 DUP4 SUB DUP2 DUP7 GAS STATICCALL ISZERO DUP1 ISZERO PUSH2 0x65E JUMPI RETURNDATASIZE PUSH0 DUP1 RETURNDATACOPY RETURNDATASIZE PUSH0 REVERT JUMPDEST POP POP POP POP PUSH1 0x40 MLOAD RETURNDATASIZE PUSH1 0x1F NOT PUSH1 0x1F DUP3 ADD AND DUP3 ADD DUP1 PUSH1 0x40 MSTORE POP DUP2 ADD SWAP1 PUSH2 0x682 SWAP2 SWAP1 PUSH2 0x1490 JUMP JUMPDEST LT PUSH2 0x995 JUMPI PUSH1 0x1 PUSH1 0x5 DUP1 SLOAD SWAP1 POP SUB PUSH2 0x71F JUMPI PUSH0 PUSH1 0x5 PUSH0 DUP2 SLOAD DUP2 LT PUSH2 0x6A9 JUMPI PUSH2 0x6A8 PUSH2 0x14BB JUMP JUMPDEST JUMPDEST SWAP1 PUSH0 MSTORE PUSH1 0x20 PUSH0 KECCAK256 ADD PUSH0 SWAP1 SLOAD SWAP1 PUSH2 0x100 EXP SWAP1 DIV PUSH20 0xFFFFFFFFFFFFFFFFFFFFFFFFFFFFFFFFFFFFFFFF AND SWAP1 POP DUP1 PUSH20 0xFFFFFFFFFFFFFFFFFFFFFFFFFFFFFFFFFFFFFFFF AND PUSH2 0x8FC PUSH1 0x1 SLOAD SWAP1 DUP2 ISZERO MUL SWAP1 PUSH1 0x40 MLOAD PUSH0 PUSH1 0x40 MLOAD DUP1 DUP4 SUB DUP2 DUP6 DUP9 DUP9 CALL SWAP4 POP POP POP POP ISZERO DUP1 ISZERO PUSH2 0x718 JUMPI RETURNDATASIZE PUSH0 DUP1 RETURNDATACOPY RETURNDATASIZE PUSH0 REVERT JUMPDEST POP POP PUSH2 0x98C JUMP JUMPDEST PUSH1 0x2 PUSH0 SLOAD EQ DUP1 ISZERO PUSH2 0x732 JUMPI POP PUSH1 0x2 PUSH1 0x6 SLOAD EQ JUMPDEST ISZERO PUSH2 0x861 JUMPI PUSH0 PUSH1 0x5 PUSH0 DUP2 SLOAD DUP2 LT PUSH2 0x74C JUMPI PUSH2 0x74B PUSH2 0x14BB JUMP JUMPDEST JUMPDEST SWAP1 PUSH0 MSTORE PUSH1 0x20 PUSH0 KECCAK256 ADD PUSH0 SWAP1 SLOAD SWAP1 PUSH2 0x100 EXP SWAP1 DIV PUSH20 0xFFFFFFFFFFFFFFFFFFFFFFFFFFFFFFFFFFFFFFFF AND SWAP1 POP PUSH0 PUSH1 0x5 PUSH1 0x1 DUP2 SLOAD DUP2 LT PUSH2 0x78C JUMPI PUSH2 0x78B PUSH2 0x14BB JUMP JUMPDEST JUMPDEST SWAP1 PUSH0 MSTORE PUSH1 0x20 PUSH0 KECCAK256 ADD PUSH0 SWAP1 SLOAD SWAP1 PUSH2 0x100 EXP SWAP1 DIV PUSH20 0xFFFFFFFFFFFFFFFFFFFFFFFFFFFFFFFFFFFFFFFF AND SWAP1 POP DUP2 PUSH20 0xFFFFFFFFFFFFFFFFFFFFFFFFFFFFFFFFFFFFFFFF AND PUSH2 0x8FC PUSH1 0x2 PUSH1 0x1 SLOAD PUSH2 0x7DF SWAP2 SWAP1 PUSH2 0x1515 JUMP JUMPDEST SWAP1 DUP2 ISZERO MUL SWAP1 PUSH1 0x40 MLOAD PUSH0 PUSH1 0x40 MLOAD DUP1 DUP4 SUB DUP2 DUP6 DUP9 DUP9 CALL SWAP4 POP POP POP POP ISZERO DUP1 ISZERO PUSH2 0x807 JUMPI RETURNDATASIZE PUSH0 DUP1 RETURNDATACOPY RETURNDATASIZE PUSH0 REVERT JUMPDEST POP DUP1 PUSH20 0xFFFFFFFFFFFFFFFFFFFFFFFFFFFFFFFFFFFFFFFF AND PUSH2 0x8FC PUSH1 0x2 PUSH1 0x1 SLOAD PUSH2 0x831 SWAP2 SWAP1 PUSH2 0x1515 JUMP JUMPDEST SWAP1 DUP2 ISZERO MUL SWAP1 PUSH1 0x40 MLOAD PUSH0 PUSH1 0x40 MLOAD DUP1 DUP4 SUB DUP2 DUP6 DUP9 DUP9 CALL SWAP4 POP POP POP POP ISZERO DUP1 ISZERO PUSH2 0x859 JUMPI RETURNDATASIZE PUSH0 DUP1 RETURNDATACOPY RETURNDATASIZE PUSH0 REVERT JUMPDEST POP POP POP PUSH2 0x98B JUMP JUMPDEST PUSH0 JUMPDEST PUSH1 0x2 DUP2 LT ISZERO PUSH2 0x989 JUMPI PUSH1 0x4 PUSH0 PUSH1 0x5 DUP4 DUP2 SLOAD DUP2 LT PUSH2 0x883 JUMPI PUSH2 0x882 PUSH2 0x14BB JUMP JUMPDEST JUMPDEST SWAP1 PUSH0 MSTORE PUSH1 0x20 PUSH0 KECCAK256 ADD PUSH0 SWAP1 SLOAD SWAP1 PUSH2 0x100 EXP SWAP1 DIV PUSH20 0xFFFFFFFFFFFFFFFFFFFFFFFFFFFFFFFFFFFFFFFF AND PUSH20 0xFFFFFFFFFFFFFFFFFFFFFFFFFFFFFFFFFFFFFFFF AND PUSH20 0xFFFFFFFFFFFFFFFFFFFFFFFFFFFFFFFFFFFFFFFF AND DUP2 MSTORE PUSH1 0x20 ADD SWAP1 DUP2 MSTORE PUSH1 0x20 ADD PUSH0 KECCAK256 PUSH0 SWAP1 SLOAD SWAP1 PUSH2 0x100 EXP SWAP1 DIV PUSH1 0xFF AND PUSH2 0x97C JUMPI PUSH0 PUSH1 0x5 DUP3 DUP2 SLOAD DUP2 LT PUSH2 0x90A JUMPI PUSH2 0x909 PUSH2 0x14BB JUMP JUMPDEST JUMPDEST SWAP1 PUSH0 MSTORE PUSH1 0x20 PUSH0 KECCAK256 ADD PUSH0 SWAP1 SLOAD SWAP1 PUSH2 0x100 EXP SWAP1 DIV PUSH20 0xFFFFFFFFFFFFFFFFFFFFFFFFFFFFFFFFFFFFFFFF AND SWAP1 POP DUP1 PUSH20 0xFFFFFFFFFFFFFFFFFFFFFFFFFFFFFFFFFFFFFFFF AND PUSH2 0x8FC PUSH1 0x1 SLOAD SWAP1 DUP2 ISZERO MUL SWAP1 PUSH1 0x40 MLOAD PUSH0 PUSH1 0x40 MLOAD DUP1 DUP4 SUB DUP2 DUP6 DUP9 DUP9 CALL SWAP4 POP POP POP POP ISZERO DUP1 ISZERO PUSH2 0x979 JUMPI RETURNDATASIZE PUSH0 DUP1 RETURNDATACOPY RETURNDATASIZE PUSH0 REVERT JUMPDEST POP POP JUMPDEST DUP1 DUP1 PUSH1 0x1 ADD SWAP2 POP POP PUSH2 0x863 JUMP JUMPDEST POP JUMPDEST JUMPDEST PUSH2 0x994 PUSH2 0xF9F JUMP JUMPDEST JUMPDEST JUMP JUMPDEST PUSH1 0x2 PUSH0 SLOAD EQ PUSH2 0x9A4 JUMPI PUSH0 DUP1 REVERT JUMPDEST PUSH1 0x4 PUSH0 CALLER PUSH20 0xFFFFFFFFFFFFFFFFFFFFFFFFFFFFFFFFFFFFFFFF AND PUSH20 0xFFFFFFFFFFFFFFFFFFFFFFFFFFFFFFFFFFFFFFFF AND DUP2 MSTORE PUSH1 0x20 ADD SWAP1 DUP2 MSTORE PUSH1 0x20 ADD PUSH0 KECCAK256 PUSH0 SWAP1 SLOAD SWAP1 PUSH2 0x100 EXP SWAP1 DIV PUSH1 0xFF AND PUSH2 0x9F6 JUMPI PUSH0 DUP1 REVERT JUMPDEST PUSH1 0x9 PUSH0 SWAP1 SLOAD SWAP1 PUSH2 0x100 EXP SWAP1 DIV PUSH20 0xFFFFFFFFFFFFFFFFFFFFFFFFFFFFFFFFFFFFFFFF AND PUSH20 0xFFFFFFFFFFFFFFFFFFFFFFFFFFFFFFFFFFFFFFFF AND PUSH4 0xF14FCBC8 PUSH1 0x9 PUSH0 SWAP1 SLOAD SWAP1 PUSH2 0x100 EXP SWAP1 DIV PUSH20 0xFFFFFFFFFFFFFFFFFFFFFFFFFFFFFFFFFFFFFFFF AND PUSH20 0xFFFFFFFFFFFFFFFFFFFFFFFFFFFFFFFFFFFFFFFF AND PUSH4 0x3CF5040A DUP5 PUSH1 0x40 MLOAD DUP3 PUSH4 0xFFFFFFFF AND PUSH1 0xE0 SHL DUP2 MSTORE PUSH1 0x4 ADD PUSH2 0xA8D SWAP2 SWAP1 PUSH2 0x13BC JUMP JUMPDEST PUSH1 0x20 PUSH1 0x40 MLOAD DUP1 DUP4 SUB DUP2 DUP7 GAS STATICCALL ISZERO DUP1 ISZERO PUSH2 0xAA8 JUMPI RETURNDATASIZE PUSH0 DUP1 RETURNDATACOPY RETURNDATASIZE PUSH0 REVERT JUMPDEST POP POP POP POP PUSH1 0x40 MLOAD RETURNDATASIZE PUSH1 0x1F NOT PUSH1 0x1F DUP3 ADD AND DUP3 ADD DUP1 PUSH1 0x40 MSTORE POP DUP2 ADD SWAP1 PUSH2 0xACC SWAP2 SWAP1 PUSH2 0x1559 JUMP JUMPDEST PUSH1 0x40 MLOAD DUP3 PUSH4 0xFFFFFFFF AND PUSH1 0xE0 SHL DUP2 MSTORE PUSH1 0x4 ADD PUSH2 0xAE8 SWAP2 SWAP1 PUSH2 0x13BC JUMP JUMPDEST PUSH0 PUSH1 0x40 MLOAD DUP1 DUP4 SUB DUP2 PUSH0 DUP8 DUP1 EXTCODESIZE ISZERO DUP1 ISZERO PUSH2 0xAFF JUMPI PUSH0 DUP1 REVERT JUMPDEST POP GAS CALL ISZERO DUP1 ISZERO PUSH2 0xB11 JUMPI RETURNDATASIZE PUSH0 DUP1 RETURNDATACOPY RETURNDATASIZE PUSH0 REVERT JUMPDEST POP POP POP POP DUP1 PUSH1 0x2 PUSH0 CALLER PUSH20 0xFFFFFFFFFFFFFFFFFFFFFFFFFFFFFFFFFFFFFFFF AND PUSH20 0xFFFFFFFFFFFFFFFFFFFFFFFFFFFFFFFFFFFFFFFF AND DUP2 MSTORE PUSH1 0x20 ADD SWAP1 DUP2 MSTORE PUSH1 0x20 ADD PUSH0 KECCAK256 DUP2 SWAP1 SSTORE POP PUSH0 PUSH1 0x4 PUSH0 CALLER PUSH20 0xFFFFFFFFFFFFFFFFFFFFFFFFFFFFFFFFFFFFFFFF AND PUSH20 0xFFFFFFFFFFFFFFFFFFFFFFFFFFFFFFFFFFFFFFFF AND DUP2 MSTORE PUSH1 0x20 ADD SWAP1 DUP2 MSTORE PUSH1 0x20 ADD PUSH0 KECCAK256 PUSH0 PUSH2 0x100 EXP DUP2 SLOAD DUP2 PUSH1 0xFF MUL NOT AND SWAP1 DUP4 ISZERO ISZERO MUL OR SWAP1 SSTORE POP PUSH1 0x6 PUSH0 DUP2 SLOAD DUP1 SWAP3 SWAP2 SWAP1 PUSH2 0xBBD SWAP1 PUSH2 0x1435 JUMP JUMPDEST SWAP2 SWAP1 POP SSTORE POP POP JUMP JUMPDEST PUSH1 0x5 DUP2 DUP2 SLOAD DUP2 LT PUSH2 0xBD4 JUMPI PUSH0 DUP1 REVERT JUMPDEST SWAP1 PUSH0 MSTORE PUSH1 0x20 PUSH0 KECCAK256 ADD PUSH0 SWAP2 POP SLOAD SWAP1 PUSH2 0x100 EXP SWAP1 DIV PUSH20 0xFFFFFFFFFFFFFFFFFFFFFFFFFFFFFFFFFFFFFFFF AND DUP2 JUMP JUMPDEST PUSH0 PUSH1 0x3 PUSH0 PUSH1 0x5 PUSH0 DUP2 SLOAD DUP2 LT PUSH2 0xC18 JUMPI PUSH2 0xC17 PUSH2 0x14BB JUMP JUMPDEST JUMPDEST SWAP1 PUSH0 MSTORE PUSH1 0x20 PUSH0 KECCAK256 ADD PUSH0 SWAP1 SLOAD SWAP1 PUSH2 0x100 EXP SWAP1 DIV PUSH20 0xFFFFFFFFFFFFFFFFFFFFFFFFFFFFFFFFFFFFFFFF AND PUSH20 0xFFFFFFFFFFFFFFFFFFFFFFFFFFFFFFFFFFFFFFFF AND PUSH20 0xFFFFFFFFFFFFFFFFFFFFFFFFFFFFFFFFFFFFFFFF AND DUP2 MSTORE PUSH1 0x20 ADD SWAP1 DUP2 MSTORE PUSH1 0x20 ADD PUSH0 KECCAK256 SLOAD SWAP1 POP PUSH0 PUSH1 0x3 PUSH0 PUSH1 0x5 PUSH1 0x1 DUP2 SLOAD DUP2 LT PUSH2 0xC95 JUMPI PUSH2 0xC94 PUSH2 0x14BB JUMP JUMPDEST JUMPDEST SWAP1 PUSH0 MSTORE PUSH1 0x20 PUSH0 KECCAK256 ADD PUSH0 SWAP1 SLOAD SWAP1 PUSH2 0x100 EXP SWAP1 DIV PUSH20 0xFFFFFFFFFFFFFFFFFFFFFFFFFFFFFFFFFFFFFFFF AND PUSH20 0xFFFFFFFFFFFFFFFFFFFFFFFFFFFFFFFFFFFFFFFF AND PUSH20 0xFFFFFFFFFFFFFFFFFFFFFFFFFFFFFFFFFFFFFFFF AND DUP2 MSTORE PUSH1 0x20 ADD SWAP1 DUP2 MSTORE PUSH1 0x20 ADD PUSH0 KECCAK256 SLOAD SWAP1 POP PUSH0 PUSH1 0x5 PUSH0 DUP2 SLOAD DUP2 LT PUSH2 0xD0E JUMPI PUSH2 0xD0D PUSH2 0x14BB JUMP JUMPDEST JUMPDEST SWAP1 PUSH0 MSTORE PUSH1 0x20 PUSH0 KECCAK256 ADD PUSH0 SWAP1 SLOAD SWAP1 PUSH2 0x100 EXP SWAP1 DIV PUSH20 0xFFFFFFFFFFFFFFFFFFFFFFFFFFFFFFFFFFFFFFFF AND SWAP1 POP PUSH0 PUSH1 0x5 PUSH1 0x1 DUP2 SLOAD DUP2 LT PUSH2 0xD4E JUMPI PUSH2 0xD4D PUSH2 0x14BB JUMP JUMPDEST JUMPDEST SWAP1 PUSH0 MSTORE PUSH1 0x20 PUSH0 KECCAK256 ADD PUSH0 SWAP1 SLOAD SWAP1 PUSH2 0x100 EXP SWAP1 DIV PUSH20 0xFFFFFFFFFFFFFFFFFFFFFFFFFFFFFFFFFFFFFFFF AND SWAP1 POP DUP3 DUP5 SUB PUSH2 0xE28 JUMPI DUP2 PUSH20 0xFFFFFFFFFFFFFFFFFFFFFFFFFFFFFFFFFFFFFFFF AND PUSH2 0x8FC PUSH1 0x2 PUSH1 0x1 SLOAD PUSH2 0xDA8 SWAP2 SWAP1 PUSH2 0x1515 JUMP JUMPDEST SWAP1 DUP2 ISZERO MUL SWAP1 PUSH1 0x40 MLOAD PUSH0 PUSH1 0x40 MLOAD DUP1 DUP4 SUB DUP2 DUP6 DUP9 DUP9 CALL SWAP4 POP POP POP POP ISZERO DUP1 ISZERO PUSH2 0xDD0 JUMPI RETURNDATASIZE PUSH0 DUP1 RETURNDATACOPY RETURNDATASIZE PUSH0 REVERT JUMPDEST POP DUP1 PUSH20 0xFFFFFFFFFFFFFFFFFFFFFFFFFFFFFFFFFFFFFFFF AND PUSH2 0x8FC PUSH1 0x2 PUSH1 0x1 SLOAD PUSH2 0xDFA SWAP2 SWAP1 PUSH2 0x1515 JUMP JUMPDEST SWAP1 DUP2 ISZERO MUL SWAP1 PUSH1 0x40 MLOAD PUSH0 PUSH1 0x40 MLOAD DUP1 DUP4 SUB DUP2 DUP6 DUP9 DUP9 CALL SWAP4 POP POP POP POP ISZERO DUP1 ISZERO PUSH2 0xE22 JUMPI RETURNDATASIZE PUSH0 DUP1 RETURNDATACOPY RETURNDATASIZE PUSH0 REVERT JUMPDEST POP PUSH2 0xEFD JUMP JUMPDEST DUP4 PUSH1 0x5 PUSH1 0x1 DUP6 PUSH2 0xE38 SWAP2 SWAP1 PUSH2 0x1402 JUMP JUMPDEST PUSH2 0xE42 SWAP2 SWAP1 PUSH2 0x1584 JUMP JUMPDEST EQ DUP1 PUSH2 0xE65 JUMPI POP DUP4 PUSH1 0x5 PUSH1 0x3 DUP6 PUSH2 0xE59 SWAP2 SWAP1 PUSH2 0x1402 JUMP JUMPDEST PUSH2 0xE63 SWAP2 SWAP1 PUSH2 0x1584 JUMP JUMPDEST EQ JUMPDEST ISZERO PUSH2 0xEB5 JUMPI DUP2 PUSH20 0xFFFFFFFFFFFFFFFFFFFFFFFFFFFFFFFFFFFFFFFF AND PUSH2 0x8FC PUSH1 0x1 SLOAD SWAP1 DUP2 ISZERO MUL SWAP1 PUSH1 0x40 MLOAD PUSH0 PUSH1 0x40 MLOAD DUP1 DUP4 SUB DUP2 DUP6 DUP9 DUP9 CALL SWAP4 POP POP POP POP ISZERO DUP1 ISZERO PUSH2 0xEAF JUMPI RETURNDATASIZE PUSH0 DUP1 RETURNDATACOPY RETURNDATASIZE PUSH0 REVERT JUMPDEST POP PUSH2 0xEFC JUMP JUMPDEST DUP1 PUSH20 0xFFFFFFFFFFFFFFFFFFFFFFFFFFFFFFFFFFFFFFFF AND PUSH2 0x8FC PUSH1 0x1 SLOAD SWAP1 DUP2 ISZERO MUL SWAP1 PUSH1 0x40 MLOAD PUSH0 PUSH1 0x40 MLOAD DUP1 DUP4 SUB DUP2 DUP6 DUP9 DUP9 CALL SWAP4 POP POP POP POP ISZERO DUP1 ISZERO PUSH2 0xEFA JUMPI RETURNDATASIZE PUSH0 DUP1 RETURNDATACOPY RETURNDATASIZE PUSH0 REVERT JUMPDEST POP JUMPDEST JUMPDEST PUSH0 PUSH1 0x1 DUP2 SWAP1 SSTORE POP POP POP POP POP JUMP JUMPDEST PUSH0 DUP1 PUSH0 SWAP1 POP JUMPDEST PUSH1 0x4 DUP2 LT ISZERO PUSH2 0xF97 JUMPI PUSH1 0xA DUP2 PUSH1 0x4 DUP2 LT PUSH2 0xF2D JUMPI PUSH2 0xF2C PUSH2 0x14BB JUMP JUMPDEST JUMPDEST ADD PUSH0 SWAP1 SLOAD SWAP1 PUSH2 0x100 EXP SWAP1 DIV PUSH20 0xFFFFFFFFFFFFFFFFFFFFFFFFFFFFFFFFFFFFFFFF AND PUSH20 0xFFFFFFFFFFFFFFFFFFFFFFFFFFFFFFFFFFFFFFFF AND CALLER PUSH20 0xFFFFFFFFFFFFFFFFFFFFFFFFFFFFFFFFFFFFFFFF AND SUB PUSH2 0xF8A JUMPI PUSH1 0x1 SWAP2 POP POP PUSH2 0xF9C JUMP JUMPDEST DUP1 DUP1 PUSH1 0x1 ADD SWAP2 POP POP PUSH2 0xF10 JUMP JUMPDEST POP PUSH0 SWAP1 POP JUMPDEST SWAP1 JUMP JUMPDEST PUSH1 0x5 PUSH0 PUSH2 0xFAC SWAP2 SWAP1 PUSH2 0xFC2 JUMP JUMPDEST PUSH0 PUSH1 0x6 DUP2 SWAP1 SSTORE POP PUSH0 DUP1 DUP2 SWAP1 SSTORE POP PUSH0 PUSH1 0x1 DUP2 SWAP1 SSTORE POP JUMP JUMPDEST POP DUP1 SLOAD PUSH0 DUP3 SSTORE SWAP1 PUSH0 MSTORE PUSH1 0x20 PUSH0 KECCAK256 SWAP1 DUP2 ADD SWAP1 PUSH2 0xFDD SWAP2 SWAP1 PUSH2 0xFE0 JUMP JUMPDEST POP JUMP JUMPDEST JUMPDEST DUP1 DUP3 GT ISZERO PUSH2 0xFF7 JUMPI PUSH0 DUP2 PUSH0 SWAP1 SSTORE POP PUSH1 0x1 ADD PUSH2 0xFE1 JUMP JUMPDEST POP SWAP1 JUMP JUMPDEST PUSH0 DUP2 SWAP1 POP SWAP2 SWAP1 POP JUMP JUMPDEST PUSH2 0x100D DUP2 PUSH2 0xFFB JUMP JUMPDEST DUP3 MSTORE POP POP JUMP JUMPDEST PUSH0 PUSH1 0x20 DUP3 ADD SWAP1 POP PUSH2 0x1026 PUSH0 DUP4 ADD DUP5 PUSH2 0x1004 JUMP JUMPDEST SWAP3 SWAP2 POP POP JUMP JUMPDEST PUSH0 DUP1 REVERT JUMPDEST PUSH2 0x1039 DUP2 PUSH2 0xFFB JUMP JUMPDEST DUP2 EQ PUSH2 0x1043 JUMPI PUSH0 DUP1 REVERT JUMPDEST POP JUMP JUMPDEST PUSH0 DUP2 CALLDATALOAD SWAP1 POP PUSH2 0x1054 DUP2 PUSH2 0x1030 JUMP JUMPDEST SWAP3 SWAP2 POP POP JUMP JUMPDEST PUSH0 PUSH32 0xFF00000000000000000000000000000000000000000000000000000000000000 DUP3 AND SWAP1 POP SWAP2 SWAP1 POP JUMP JUMPDEST PUSH2 0x108E DUP2 PUSH2 0x105A JUMP JUMPDEST DUP2 EQ PUSH2 0x1098 JUMPI PUSH0 DUP1 REVERT JUMPDEST POP JUMP JUMPDEST PUSH0 DUP2 CALLDATALOAD SWAP1 POP PUSH2 0x10A9 DUP2 PUSH2 0x1085 JUMP JUMPDEST SWAP3 SWAP2 POP POP JUMP JUMPDEST PUSH0 DUP1 PUSH1 0x40 DUP4 DUP6 SUB SLT ISZERO PUSH2 0x10C5 JUMPI PUSH2 0x10C4 PUSH2 0x102C JUMP JUMPDEST JUMPDEST PUSH0 PUSH2 0x10D2 DUP6 DUP3 DUP7 ADD PUSH2 0x1046 JUMP JUMPDEST SWAP3 POP POP PUSH1 0x20 PUSH2 0x10E3 DUP6 DUP3 DUP7 ADD PUSH2 0x109B JUMP JUMPDEST SWAP2 POP POP SWAP3 POP SWAP3 SWAP1 POP JUMP JUMPDEST PUSH0 PUSH20 0xFFFFFFFFFFFFFFFFFFFFFFFFFFFFFFFFFFFFFFFF DUP3 AND SWAP1 POP SWAP2 SWAP1 POP JUMP JUMPDEST PUSH0 PUSH2 0x1116 DUP3 PUSH2 0x10ED JUMP JUMPDEST SWAP1 POP SWAP2 SWAP1 POP JUMP JUMPDEST PUSH2 0x1126 DUP2 PUSH2 0x110C JUMP JUMPDEST DUP2 EQ PUSH2 0x1130 JUMPI PUSH0 DUP1 REVERT JUMPDEST POP JUMP JUMPDEST PUSH0 DUP2 CALLDATALOAD SWAP1 POP PUSH2 0x1141 DUP2 PUSH2 0x111D JUMP JUMPDEST SWAP3 SWAP2 POP POP JUMP JUMPDEST PUSH0 PUSH1 0x20 DUP3 DUP5 SUB SLT ISZERO PUSH2 0x115C JUMPI PUSH2 0x115B PUSH2 0x102C JUMP JUMPDEST JUMPDEST PUSH0 PUSH2 0x1169 DUP5 DUP3 DUP6 ADD PUSH2 0x1133 JUMP JUMPDEST SWAP2 POP POP SWAP3 SWAP2 POP POP JUMP JUMPDEST PUSH0 DUP2 ISZERO ISZERO SWAP1 POP SWAP2 SWAP1 POP JUMP JUMPDEST PUSH2 0x1186 DUP2 PUSH2 0x1172 JUMP JUMPDEST DUP3 MSTORE POP POP JUMP JUMPDEST PUSH0 PUSH1 0x20 DUP3 ADD SWAP1 POP PUSH2 0x119F PUSH0 DUP4 ADD DUP5 PUSH2 0x117D JUMP JUMPDEST SWAP3 SWAP2 POP POP JUMP JUMPDEST PUSH0 DUP2 SWAP1 POP SWAP2 SWAP1 POP JUMP JUMPDEST PUSH0 PUSH2 0x11C8 PUSH2 0x11C3 PUSH2 0x11BE DUP5 PUSH2 0x10ED JUMP JUMPDEST PUSH2 0x11A5 JUMP JUMPDEST PUSH2 0x10ED JUMP JUMPDEST SWAP1 POP SWAP2 SWAP1 POP JUMP JUMPDEST PUSH0 PUSH2 0x11D9 DUP3 PUSH2 0x11AE JUMP JUMPDEST SWAP1 POP SWAP2 SWAP1 POP JUMP JUMPDEST PUSH0 PUSH2 0x11EA DUP3 PUSH2 0x11CF JUMP JUMPDEST SWAP1 POP SWAP2 SWAP1 POP JUMP JUMPDEST PUSH2 0x11FA DUP2 PUSH2 0x11E0 JUMP JUMPDEST DUP3 MSTORE POP POP JUMP JUMPDEST PUSH0 PUSH1 0x20 DUP3 ADD SWAP1 POP PUSH2 0x1213 PUSH0 DUP4 ADD DUP5 PUSH2 0x11F1 JUMP JUMPDEST SWAP3 SWAP2 POP POP JUMP JUMPDEST PUSH0 DUP2 SWAP1 POP SWAP2 SWAP1 POP JUMP JUMPDEST PUSH2 0x122B DUP2 PUSH2 0x1219 JUMP JUMPDEST DUP2 EQ PUSH2 0x1235 JUMPI PUSH0 DUP1 REVERT JUMPDEST POP JUMP JUMPDEST PUSH0 DUP2 CALLDATALOAD SWAP1 POP PUSH2 0x1246 DUP2 PUSH2 0x1222 JUMP JUMPDEST SWAP3 SWAP2 POP POP JUMP JUMPDEST PUSH0 PUSH1 0x20 DUP3 DUP5 SUB SLT ISZERO PUSH2 0x1261 JUMPI PUSH2 0x1260 PUSH2 0x102C JUMP JUMPDEST JUMPDEST PUSH0 PUSH2 0x126E DUP5 DUP3 DUP6 ADD PUSH2 0x1238 JUMP JUMPDEST SWAP2 POP POP SWAP3 SWAP2 POP POP JUMP JUMPDEST PUSH0 PUSH1 0x20 DUP3 DUP5 SUB SLT ISZERO PUSH2 0x128C JUMPI PUSH2 0x128B PUSH2 0x102C JUMP JUMPDEST JUMPDEST PUSH0 PUSH2 0x1299 DUP5 DUP3 DUP6 ADD PUSH2 0x1046 JUMP JUMPDEST SWAP2 POP POP SWAP3 SWAP2 POP POP JUMP JUMPDEST PUSH2 0x12AB DUP2 PUSH2 0x110C JUMP JUMPDEST DUP3 MSTORE POP POP JUMP JUMPDEST PUSH0 PUSH1 0x20 DUP3 ADD SWAP1 POP PUSH2 0x12C4 PUSH0 DUP4 ADD DUP5 PUSH2 0x12A2 JUMP JUMPDEST SWAP3 SWAP2 POP POP JUMP JUMPDEST PUSH0 DUP2 SWAP1 POP SWAP2 SWAP1 POP JUMP JUMPDEST PUSH2 0x12E4 PUSH2 0x12DF DUP3 PUSH2 0x1219 JUMP JUMPDEST PUSH2 0x12CA JUMP JUMPDEST DUP3 MSTORE POP POP JUMP JUMPDEST PUSH0 DUP2 SWAP1 POP SWAP2 SWAP1 POP JUMP JUMPDEST PUSH2 0x1304 PUSH2 0x12FF DUP3 PUSH2 0x105A JUMP JUMPDEST PUSH2 0x12EA JUMP JUMPDEST DUP3 MSTORE POP POP JUMP JUMPDEST PUSH0 PUSH2 0x1315 DUP3 DUP6 PUSH2 0x12D3 JUMP JUMPDEST PUSH1 0x20 DUP3 ADD SWAP2 POP PUSH2 0x1325 DUP3 DUP5 PUSH2 0x12F3 JUMP JUMPDEST PUSH1 0x1 DUP3 ADD SWAP2 POP DUP2 SWAP1 POP SWAP4 SWAP3 POP POP POP JUMP JUMPDEST PUSH0 DUP3 DUP3 MSTORE PUSH1 0x20 DUP3 ADD SWAP1 POP SWAP3 SWAP2 POP POP JUMP JUMPDEST PUSH32 0x43686F6963652068617368206D69736D61746368000000000000000000000000 PUSH0 DUP3 ADD MSTORE POP JUMP JUMPDEST PUSH0 PUSH2 0x1379 PUSH1 0x14 DUP4 PUSH2 0x1335 JUMP JUMPDEST SWAP2 POP PUSH2 0x1384 DUP3 PUSH2 0x1345 JUMP JUMPDEST PUSH1 0x20 DUP3 ADD SWAP1 POP SWAP2 SWAP1 POP JUMP JUMPDEST PUSH0 PUSH1 0x20 DUP3 ADD SWAP1 POP DUP2 DUP2 SUB PUSH0 DUP4 ADD MSTORE PUSH2 0x13A6 DUP2 PUSH2 0x136D JUMP JUMPDEST SWAP1 POP SWAP2 SWAP1 POP JUMP JUMPDEST PUSH2 0x13B6 DUP2 PUSH2 0x1219 JUMP JUMPDEST DUP3 MSTORE POP POP JUMP JUMPDEST PUSH0 PUSH1 0x20 DUP3 ADD SWAP1 POP PUSH2 0x13CF PUSH0 DUP4 ADD DUP5 PUSH2 0x13AD JUMP JUMPDEST SWAP3 SWAP2 POP POP JUMP JUMPDEST PUSH32 0x4E487B7100000000000000000000000000000000000000000000000000000000 PUSH0 MSTORE PUSH1 0x11 PUSH1 0x4 MSTORE PUSH1 0x24 PUSH0 REVERT JUMPDEST PUSH0 PUSH2 0x140C DUP3 PUSH2 0xFFB JUMP JUMPDEST SWAP2 POP PUSH2 0x1417 DUP4 PUSH2 0xFFB JUMP JUMPDEST SWAP3 POP DUP3 DUP3 ADD SWAP1 POP DUP1 DUP3 GT ISZERO PUSH2 0x142F JUMPI PUSH2 0x142E PUSH2 0x13D5 JUMP JUMPDEST JUMPDEST SWAP3 SWAP2 POP POP JUMP JUMPDEST PUSH0 PUSH2 0x143F DUP3 PUSH2 0xFFB JUMP JUMPDEST SWAP2 POP PUSH32 0xFFFFFFFFFFFFFFFFFFFFFFFFFFFFFFFFFFFFFFFFFFFFFFFFFFFFFFFFFFFFFFFF DUP3 SUB PUSH2 0x1471 JUMPI PUSH2 0x1470 PUSH2 0x13D5 JUMP JUMPDEST JUMPDEST PUSH1 0x1 DUP3 ADD SWAP1 POP SWAP2 SWAP1 POP JUMP JUMPDEST PUSH0 DUP2 MLOAD SWAP1 POP PUSH2 0x148A DUP2 PUSH2 0x1030 JUMP JUMPDEST SWAP3 SWAP2 POP POP JUMP JUMPDEST PUSH0 PUSH1 0x20 DUP3 DUP5 SUB SLT ISZERO PUSH2 0x14A5 JUMPI PUSH2 0x14A4 PUSH2 0x102C JUMP JUMPDEST JUMPDEST PUSH0 PUSH2 0x14B2 DUP5 DUP3 DUP6 ADD PUSH2 0x147C JUMP JUMPDEST SWAP2 POP POP SWAP3 SWAP2 POP POP JUMP JUMPDEST PUSH32 0x4E487B7100000000000000000000000000000000000000000000000000000000 PUSH0 MSTORE PUSH1 0x32 PUSH1 0x4 MSTORE PUSH1 0x24 PUSH0 REVERT JUMPDEST PUSH32 0x4E487B7100000000000000000000000000000000000000000000000000000000 PUSH0 MSTORE PUSH1 0x12 PUSH1 0x4 MSTORE PUSH1 0x24 PUSH0 REVERT JUMPDEST PUSH0 PUSH2 0x151F DUP3 PUSH2 0xFFB JUMP JUMPDEST SWAP2 POP PUSH2 0x152A DUP4 PUSH2 0xFFB JUMP JUMPDEST SWAP3 POP DUP3 PUSH2 0x153A JUMPI PUSH2 0x1539 PUSH2 0x14E8 JUMP JUMPDEST JUMPDEST DUP3 DUP3 DIV SWAP1 POP SWAP3 SWAP2 POP POP JUMP JUMPDEST PUSH0 DUP2 MLOAD SWAP1 POP PUSH2 0x1553 DUP2 PUSH2 0x1222 JUMP JUMPDEST SWAP3 SWAP2 POP POP JUMP JUMPDEST PUSH0 PUSH1 0x20 DUP3 DUP5 SUB SLT ISZERO PUSH2 0x156E JUMPI PUSH2 0x156D PUSH2 0x102C JUMP JUMPDEST JUMPDEST PUSH0 PUSH2 0x157B DUP5 DUP3 DUP6 ADD PUSH2 0x1545 JUMP JUMPDEST SWAP2 POP POP SWAP3 SWAP2 POP POP JUMP JUMPDEST PUSH0 PUSH2 0x158E DUP3 PUSH2 0xFFB JUMP JUMPDEST SWAP2 POP PUSH2 0x1599 DUP4 PUSH2 0xFFB JUMP JUMPDEST SWAP3 POP DUP3 PUSH2 0x15A9 JUMPI PUSH2 0x15A8 PUSH2 0x14E8 JUMP JUMPDEST JUMPDEST DUP3 DUP3 MOD SWAP1 POP SWAP3 SWAP2 POP POP JUMP INVALID LOG2 PUSH5 0x6970667358 0x22 SLT KECCAK256 BLOBHASH 0x4F 0xD6 SLT 0xD7 0xC3 PUSH24 0xBB43D2AFC1FF6A0BFFEFB14840A21B16AD7104A2863DD264 ADDMOD PUSH5 0x736F6C6343 STOP ADDMOD BYTE STOP CALLER PUSH1 0x80 PUSH1 0x40 MSTORE CALLVALUE DUP1 ISZERO PUSH1 0xE JUMPI PUSH0 DUP1 REVERT JUMPDEST POP PUSH2 0x215 DUP1 PUSH2 0x1C PUSH0 CODECOPY PUSH0 RETURN INVALID PUSH1 0x80 PUSH1 0x40 MSTORE CALLVALUE DUP1 ISZERO PUSH2 0xF JUMPI PUSH0 DUP1 REVERT JUMPDEST POP PUSH1 0x4 CALLDATASIZE LT PUSH2 0x4A JUMPI PUSH0 CALLDATALOAD PUSH1 0xE0 SHR DUP1 PUSH4 0x78E97925 EQ PUSH2 0x4E JUMPI DUP1 PUSH4 0xA63F7C53 EQ PUSH2 0x6C JUMPI DUP1 PUSH4 0xBC06B8CD EQ PUSH2 0x76 JUMPI DUP1 PUSH4 0xD97C8416 EQ PUSH2 0x94 JUMPI JUMPDEST PUSH0 DUP1 REVERT JUMPDEST PUSH2 0x56 PUSH2 0xB2 JUMP JUMPDEST PUSH1 0x40 MLOAD PUSH2 0x63 SWAP2 SWAP1 PUSH2 0x109 JUMP JUMPDEST PUSH1 0x40 MLOAD DUP1 SWAP2 SUB SWAP1 RETURN JUMPDEST PUSH2 0x74 PUSH2 0xB7 JUMP JUMPDEST STOP JUMPDEST PUSH2 0x7E PUSH2 0xBF JUMP JUMPDEST PUSH1 0x40 MLOAD PUSH2 0x8B SWAP2 SWAP1 PUSH2 0x109 JUMP JUMPDEST PUSH1 0x40 MLOAD DUP1 SWAP2 SUB SWAP1 RETURN JUMPDEST PUSH2 0x9C PUSH2 0xD2 JUMP JUMPDEST PUSH1 0x40 MLOAD PUSH2 0xA9 SWAP2 SWAP1 PUSH2 0x109 JUMP JUMPDEST PUSH1 0x40 MLOAD DUP1 SWAP2 SUB SWAP1 RETURN JUMPDEST PUSH0 SLOAD DUP2 JUMP JUMPDEST TIMESTAMP PUSH0 DUP2 SWAP1 SSTORE POP JUMP JUMPDEST PUSH0 DUP1 SLOAD TIMESTAMP PUSH2 0xCD SWAP2 SWAP1 PUSH2 0x14F JUMP JUMPDEST SWAP1 POP SWAP1 JUMP JUMPDEST PUSH0 PUSH1 0x3C PUSH0 SLOAD TIMESTAMP PUSH2 0xE2 SWAP2 SWAP1 PUSH2 0x14F JUMP JUMPDEST PUSH2 0xEC SWAP2 SWAP1 PUSH2 0x1AF JUMP JUMPDEST SWAP1 POP SWAP1 JUMP JUMPDEST PUSH0 DUP2 SWAP1 POP SWAP2 SWAP1 POP JUMP JUMPDEST PUSH2 0x103 DUP2 PUSH2 0xF1 JUMP JUMPDEST DUP3 MSTORE POP POP JUMP JUMPDEST PUSH0 PUSH1 0x20 DUP3 ADD SWAP1 POP PUSH2 0x11C PUSH0 DUP4 ADD DUP5 PUSH2 0xFA JUMP JUMPDEST SWAP3 SWAP2 POP POP JUMP JUMPDEST PUSH32 0x4E487B7100000000000000000000000000000000000000000000000000000000 PUSH0 MSTORE PUSH1 0x11 PUSH1 0x4 MSTORE PUSH1 0x24 PUSH0 REVERT JUMPDEST PUSH0 PUSH2 0x159 DUP3 PUSH2 0xF1 JUMP JUMPDEST SWAP2 POP PUSH2 0x164 DUP4 PUSH2 0xF1 JUMP JUMPDEST SWAP3 POP DUP3 DUP3 SUB SWAP1 POP DUP2 DUP2 GT ISZERO PUSH2 0x17C JUMPI PUSH2 0x17B PUSH2 0x122 JUMP JUMPDEST JUMPDEST SWAP3 SWAP2 POP POP JUMP JUMPDEST PUSH32 0x4E487B7100000000000000000000000000000000000000000000000000000000 PUSH0 MSTORE PUSH1 0x12 PUSH1 0x4 MSTORE PUSH1 0x24 PUSH0 REVERT JUMPDEST PUSH0 PUSH2 0x1B9 DUP3 PUSH2 0xF1 JUMP JUMPDEST SWAP2 POP PUSH2 0x1C4 DUP4 PUSH2 0xF1 JUMP JUMPDEST SWAP3 POP DUP3 PUSH2 0x1D4 JUMPI PUSH2 0x1D3 PUSH2 0x182 JUMP JUMPDEST JUMPDEST DUP3 DUP3 DIV SWAP1 POP SWAP3 SWAP2 POP POP JUMP INVALID LOG2 PUSH5 0x6970667358 0x22 SLT KECCAK256 0xAA 0xC7 BALANCE 0xC6 MLOAD LOG4 LT SWAP2 0xE7 DUP13 0x4C PUSH9 0xCA2CDE2E708EC23868 0xC1 0xBB 0xF8 SWAP8 SWAP4 NOT 0xBB CREATE 0xB1 0xF7 0xC1 PUSH5 0x736F6C6343 STOP ADDMOD BYTE STOP CALLER PUSH1 0x80 PUSH1 0x40 MSTORE PUSH1 0x64 PUSH0 DUP1 PUSH2 0x100 EXP DUP2 SLOAD DUP2 PUSH1 0xFF MUL NOT AND SWAP1 DUP4 PUSH1 0xFF AND MUL OR SWAP1 SSTORE POP CALLVALUE DUP1 ISZERO PUSH1 0x28 JUMPI PUSH0 DUP1 REVERT JUMPDEST POP PUSH2 0xD39 DUP1 PUSH2 0x36 PUSH0 CODECOPY PUSH0 RETURN INVALID PUSH1 0x80 PUSH1 0x40 MSTORE CALLVALUE DUP1 ISZERO PUSH2 0xF JUMPI PUSH0 DUP1 REVERT JUMPDEST POP PUSH1 0x4 CALLDATASIZE LT PUSH2 0x55 JUMPI PUSH0 CALLDATALOAD PUSH1 0xE0 SHR DUP1 PUSH4 0x3CF5040A EQ PUSH2 0x59 JUMPI DUP1 PUSH4 0x6AC5DB19 EQ PUSH2 0x89 JUMPI DUP1 PUSH4 0x701FD0F1 EQ PUSH2 0xA7 JUMPI DUP1 PUSH4 0x7B43A8E6 EQ PUSH2 0xC3 JUMPI DUP1 PUSH4 0xF14FCBC8 EQ PUSH2 0xF5 JUMPI JUMPDEST PUSH0 DUP1 REVERT JUMPDEST PUSH2 0x73 PUSH1 0x4 DUP1 CALLDATASIZE SUB DUP2 ADD SWAP1 PUSH2 0x6E SWAP2 SWAP1 PUSH2 0x75D JUMP JUMPDEST PUSH2 0x111 JUMP JUMPDEST PUSH1 0x40 MLOAD PUSH2 0x80 SWAP2 SWAP1 PUSH2 0x797 JUMP JUMPDEST PUSH1 0x40 MLOAD DUP1 SWAP2 SUB SWAP1 RETURN JUMPDEST PUSH2 0x91 PUSH2 0x140 JUMP JUMPDEST PUSH1 0x40 MLOAD PUSH2 0x9E SWAP2 SWAP1 PUSH2 0x7CB JUMP JUMPDEST PUSH1 0x40 MLOAD DUP1 SWAP2 SUB SWAP1 RETURN JUMPDEST PUSH2 0xC1 PUSH1 0x4 DUP1 CALLDATASIZE SUB DUP2 ADD SWAP1 PUSH2 0xBC SWAP2 SWAP1 PUSH2 0x75D JUMP JUMPDEST PUSH2 0x150 JUMP JUMPDEST STOP JUMPDEST PUSH2 0xDD PUSH1 0x4 DUP1 CALLDATASIZE SUB DUP2 ADD SWAP1 PUSH2 0xD8 SWAP2 SWAP1 PUSH2 0x83E JUMP JUMPDEST PUSH2 0x50E JUMP JUMPDEST PUSH1 0x40 MLOAD PUSH2 0xEC SWAP4 SWAP3 SWAP2 SWAP1 PUSH2 0x8A5 JUMP JUMPDEST PUSH1 0x40 MLOAD DUP1 SWAP2 SUB SWAP1 RETURN JUMPDEST PUSH2 0x10F PUSH1 0x4 DUP1 CALLDATASIZE SUB DUP2 ADD SWAP1 PUSH2 0x10A SWAP2 SWAP1 PUSH2 0x75D JUMP JUMPDEST PUSH2 0x554 JUMP JUMPDEST STOP JUMPDEST PUSH0 DUP2 PUSH1 0x40 MLOAD PUSH1 0x20 ADD PUSH2 0x123 SWAP2 SWAP1 PUSH2 0x8FA JUMP JUMPDEST PUSH1 0x40 MLOAD PUSH1 0x20 DUP2 DUP4 SUB SUB DUP2 MSTORE SWAP1 PUSH1 0x40 MSTORE DUP1 MLOAD SWAP1 PUSH1 0x20 ADD KECCAK256 SWAP1 POP SWAP2 SWAP1 POP JUMP JUMPDEST PUSH0 DUP1 SLOAD SWAP1 PUSH2 0x100 EXP SWAP1 DIV PUSH1 0xFF AND DUP2 JUMP JUMPDEST PUSH0 ISZERO ISZERO PUSH1 0x1 PUSH0 CALLER PUSH20 0xFFFFFFFFFFFFFFFFFFFFFFFFFFFFFFFFFFFFFFFF AND PUSH20 0xFFFFFFFFFFFFFFFFFFFFFFFFFFFFFFFFFFFFFFFF AND DUP2 MSTORE PUSH1 0x20 ADD SWAP1 DUP2 MSTORE PUSH1 0x20 ADD PUSH0 KECCAK256 PUSH1 0x1 ADD PUSH1 0x8 SWAP1 SLOAD SWAP1 PUSH2 0x100 EXP SWAP1 DIV PUSH1 0xFF AND ISZERO ISZERO EQ PUSH2 0x1E3 JUMPI PUSH1 0x40 MLOAD PUSH32 0x8C379A000000000000000000000000000000000000000000000000000000000 DUP2 MSTORE PUSH1 0x4 ADD PUSH2 0x1DA SWAP1 PUSH2 0x994 JUMP JUMPDEST PUSH1 0x40 MLOAD DUP1 SWAP2 SUB SWAP1 REVERT JUMPDEST PUSH1 0x1 DUP1 PUSH0 CALLER PUSH20 0xFFFFFFFFFFFFFFFFFFFFFFFFFFFFFFFFFFFFFFFF AND PUSH20 0xFFFFFFFFFFFFFFFFFFFFFFFFFFFFFFFFFFFFFFFF AND DUP2 MSTORE PUSH1 0x20 ADD SWAP1 DUP2 MSTORE PUSH1 0x20 ADD PUSH0 KECCAK256 PUSH1 0x1 ADD PUSH1 0x8 PUSH2 0x100 EXP DUP2 SLOAD DUP2 PUSH1 0xFF MUL NOT AND SWAP1 DUP4 ISZERO ISZERO MUL OR SWAP1 SSTORE POP PUSH1 0x1 PUSH0 CALLER PUSH20 0xFFFFFFFFFFFFFFFFFFFFFFFFFFFFFFFFFFFFFFFF AND PUSH20 0xFFFFFFFFFFFFFFFFFFFFFFFFFFFFFFFFFFFFFFFF AND DUP2 MSTORE PUSH1 0x20 ADD SWAP1 DUP2 MSTORE PUSH1 0x20 ADD PUSH0 KECCAK256 PUSH0 ADD SLOAD PUSH2 0x284 DUP3 PUSH2 0x111 JUMP JUMPDEST EQ PUSH2 0x2C4 JUMPI PUSH1 0x40 MLOAD PUSH32 0x8C379A000000000000000000000000000000000000000000000000000000000 DUP2 MSTORE PUSH1 0x4 ADD PUSH2 0x2BB SWAP1 PUSH2 0xA22 JUMP JUMPDEST PUSH1 0x40 MLOAD DUP1 SWAP2 SUB SWAP1 REVERT JUMPDEST PUSH1 0x1 PUSH0 CALLER PUSH20 0xFFFFFFFFFFFFFFFFFFFFFFFFFFFFFFFFFFFFFFFF AND PUSH20 0xFFFFFFFFFFFFFFFFFFFFFFFFFFFFFFFFFFFFFFFF AND DUP2 MSTORE PUSH1 0x20 ADD SWAP1 DUP2 MSTORE PUSH1 0x20 ADD PUSH0 KECCAK256 PUSH1 0x1 ADD PUSH0 SWAP1 SLOAD SWAP1 PUSH2 0x100 EXP SWAP1 DIV PUSH8 0xFFFFFFFFFFFFFFFF AND PUSH8 0xFFFFFFFFFFFFFFFF AND NUMBER PUSH8 0xFFFFFFFFFFFFFFFF AND GT PUSH2 0x36D JUMPI PUSH1 0x40 MLOAD PUSH32 0x8C379A000000000000000000000000000000000000000000000000000000000 DUP2 MSTORE PUSH1 0x4 ADD PUSH2 0x364 SWAP1 PUSH2 0xAD6 JUMP JUMPDEST PUSH1 0x40 MLOAD DUP1 SWAP2 SUB SWAP1 REVERT JUMPDEST PUSH1 0xFA PUSH1 0x1 PUSH0 CALLER PUSH20 0xFFFFFFFFFFFFFFFFFFFFFFFFFFFFFFFFFFFFFFFF AND PUSH20 0xFFFFFFFFFFFFFFFFFFFFFFFFFFFFFFFFFFFFFFFF AND DUP2 MSTORE PUSH1 0x20 ADD SWAP1 DUP2 MSTORE PUSH1 0x20 ADD PUSH0 KECCAK256 PUSH1 0x1 ADD PUSH0 SWAP1 SLOAD SWAP1 PUSH2 0x100 EXP SWAP1 DIV PUSH8 0xFFFFFFFFFFFFFFFF AND PUSH2 0x3CD SWAP2 SWAP1 PUSH2 0xB21 JUMP JUMPDEST PUSH8 0xFFFFFFFFFFFFFFFF AND NUMBER PUSH8 0xFFFFFFFFFFFFFFFF AND GT ISZERO PUSH2 0x423 JUMPI PUSH1 0x40 MLOAD PUSH32 0x8C379A000000000000000000000000000000000000000000000000000000000 DUP2 MSTORE PUSH1 0x4 ADD PUSH2 0x41A SWAP1 PUSH2 0xBCC JUMP JUMPDEST PUSH1 0x40 MLOAD DUP1 SWAP2 SUB SWAP1 REVERT JUMPDEST PUSH0 PUSH1 0x1 PUSH0 CALLER PUSH20 0xFFFFFFFFFFFFFFFFFFFFFFFFFFFFFFFFFFFFFFFF AND PUSH20 0xFFFFFFFFFFFFFFFFFFFFFFFFFFFFFFFFFFFFFFFF AND DUP2 MSTORE PUSH1 0x20 ADD SWAP1 DUP2 MSTORE PUSH1 0x20 ADD PUSH0 KECCAK256 PUSH1 0x1 ADD PUSH0 SWAP1 SLOAD SWAP1 PUSH2 0x100 EXP SWAP1 DIV PUSH8 0xFFFFFFFFFFFFFFFF AND PUSH8 0xFFFFFFFFFFFFFFFF AND BLOCKHASH SWAP1 POP PUSH0 DUP1 PUSH0 SWAP1 SLOAD SWAP1 PUSH2 0x100 EXP SWAP1 DIV PUSH1 0xFF AND PUSH1 0xFF AND DUP3 DUP5 PUSH1 0x40 MLOAD PUSH1 0x20 ADD PUSH2 0x4AA SWAP3 SWAP2 SWAP1 PUSH2 0xBEA JUMP JUMPDEST PUSH1 0x40 MLOAD PUSH1 0x20 DUP2 DUP4 SUB SUB DUP2 MSTORE SWAP1 PUSH1 0x40 MSTORE DUP1 MLOAD SWAP1 PUSH1 0x20 ADD KECCAK256 PUSH0 SHR PUSH2 0x4CC SWAP2 SWAP1 PUSH2 0xC4B JUMP JUMPDEST SWAP1 POP PUSH32 0xBC016DD1CADEAEFCB851AF7A0A93532E0023D536894B730801F7BCFE7065BCC2 CALLER DUP5 DUP4 PUSH1 0x40 MLOAD PUSH2 0x501 SWAP4 SWAP3 SWAP2 SWAP1 PUSH2 0xC99 JUMP JUMPDEST PUSH1 0x40 MLOAD DUP1 SWAP2 SUB SWAP1 LOG1 POP POP POP JUMP JUMPDEST PUSH1 0x1 PUSH1 0x20 MSTORE DUP1 PUSH0 MSTORE PUSH1 0x40 PUSH0 KECCAK256 PUSH0 SWAP2 POP SWAP1 POP DUP1 PUSH0 ADD SLOAD SWAP1 DUP1 PUSH1 0x1 ADD PUSH0 SWAP1 SLOAD SWAP1 PUSH2 0x100 EXP SWAP1 DIV PUSH8 0xFFFFFFFFFFFFFFFF AND SWAP1 DUP1 PUSH1 0x1 ADD PUSH1 0x8 SWAP1 SLOAD SWAP1 PUSH2 0x100 EXP SWAP1 DIV PUSH1 0xFF AND SWAP1 POP DUP4 JUMP JUMPDEST DUP1 PUSH1 0x1 PUSH0 CALLER PUSH20 0xFFFFFFFFFFFFFFFFFFFFFFFFFFFFFFFFFFFFFFFF AND PUSH20 0xFFFFFFFFFFFFFFFFFFFFFFFFFFFFFFFFFFFFFFFF AND DUP2 MSTORE PUSH1 0x20 ADD SWAP1 DUP2 MSTORE PUSH1 0x20 ADD PUSH0 KECCAK256 PUSH0 ADD DUP2 SWAP1 SSTORE POP NUMBER PUSH1 0x1 PUSH0 CALLER PUSH20 0xFFFFFFFFFFFFFFFFFFFFFFFFFFFFFFFFFFFFFFFF AND PUSH20 0xFFFFFFFFFFFFFFFFFFFFFFFFFFFFFFFFFFFFFFFF AND DUP2 MSTORE PUSH1 0x20 ADD SWAP1 DUP2 MSTORE PUSH1 0x20 ADD PUSH0 KECCAK256 PUSH1 0x1 ADD PUSH0 PUSH2 0x100 EXP DUP2 SLOAD DUP2 PUSH8 0xFFFFFFFFFFFFFFFF MUL NOT AND SWAP1 DUP4 PUSH8 0xFFFFFFFFFFFFFFFF AND MUL OR SWAP1 SSTORE POP PUSH0 PUSH1 0x1 PUSH0 CALLER PUSH20 0xFFFFFFFFFFFFFFFFFFFFFFFFFFFFFFFFFFFFFFFF AND PUSH20 0xFFFFFFFFFFFFFFFFFFFFFFFFFFFFFFFFFFFFFFFF AND DUP2 MSTORE PUSH1 0x20 ADD SWAP1 DUP2 MSTORE PUSH1 0x20 ADD PUSH0 KECCAK256 PUSH1 0x1 ADD PUSH1 0x8 PUSH2 0x100 EXP DUP2 SLOAD DUP2 PUSH1 0xFF MUL NOT AND SWAP1 DUP4 ISZERO ISZERO MUL OR SWAP1 SSTORE POP PUSH32 0x3C1A1F8F38335B17F751C6DA4BA7D1865F26B3997535176F5080DE9FAD891603 CALLER PUSH1 0x1 PUSH0 CALLER PUSH20 0xFFFFFFFFFFFFFFFFFFFFFFFFFFFFFFFFFFFFFFFF AND PUSH20 0xFFFFFFFFFFFFFFFFFFFFFFFFFFFFFFFFFFFFFFFF AND DUP2 MSTORE PUSH1 0x20 ADD SWAP1 DUP2 MSTORE PUSH1 0x20 ADD PUSH0 KECCAK256 PUSH0 ADD SLOAD PUSH1 0x1 PUSH0 CALLER PUSH20 0xFFFFFFFFFFFFFFFFFFFFFFFFFFFFFFFFFFFFFFFF AND PUSH20 0xFFFFFFFFFFFFFFFFFFFFFFFFFFFFFFFFFFFFFFFF AND DUP2 MSTORE PUSH1 0x20 ADD SWAP1 DUP2 MSTORE PUSH1 0x20 ADD PUSH0 KECCAK256 PUSH1 0x1 ADD PUSH0 SWAP1 SLOAD SWAP1 PUSH2 0x100 EXP SWAP1 DIV PUSH8 0xFFFFFFFFFFFFFFFF AND PUSH1 0x40 MLOAD PUSH2 0x71B SWAP4 SWAP3 SWAP2 SWAP1 PUSH2 0xCCE JUMP JUMPDEST PUSH1 0x40 MLOAD DUP1 SWAP2 SUB SWAP1 LOG1 POP JUMP JUMPDEST PUSH0 DUP1 REVERT JUMPDEST PUSH0 DUP2 SWAP1 POP SWAP2 SWAP1 POP JUMP JUMPDEST PUSH2 0x73C DUP2 PUSH2 0x72A JUMP JUMPDEST DUP2 EQ PUSH2 0x746 JUMPI PUSH0 DUP1 REVERT JUMPDEST POP JUMP JUMPDEST PUSH0 DUP2 CALLDATALOAD SWAP1 POP PUSH2 0x757 DUP2 PUSH2 0x733 JUMP JUMPDEST SWAP3 SWAP2 POP POP JUMP JUMPDEST PUSH0 PUSH1 0x20 DUP3 DUP5 SUB SLT ISZERO PUSH2 0x772 JUMPI PUSH2 0x771 PUSH2 0x726 JUMP JUMPDEST JUMPDEST PUSH0 PUSH2 0x77F DUP5 DUP3 DUP6 ADD PUSH2 0x749 JUMP JUMPDEST SWAP2 POP POP SWAP3 SWAP2 POP POP JUMP JUMPDEST PUSH2 0x791 DUP2 PUSH2 0x72A JUMP JUMPDEST DUP3 MSTORE POP POP JUMP JUMPDEST PUSH0 PUSH1 0x20 DUP3 ADD SWAP1 POP PUSH2 0x7AA PUSH0 DUP4 ADD DUP5 PUSH2 0x788 JUMP JUMPDEST SWAP3 SWAP2 POP POP JUMP JUMPDEST PUSH0 PUSH1 0xFF DUP3 AND SWAP1 POP SWAP2 SWAP1 POP JUMP JUMPDEST PUSH2 0x7C5 DUP2 PUSH2 0x7B0 JUMP JUMPDEST DUP3 MSTORE POP POP JUMP JUMPDEST PUSH0 PUSH1 0x20 DUP3 ADD SWAP1 POP PUSH2 0x7DE PUSH0 DUP4 ADD DUP5 PUSH2 0x7BC JUMP JUMPDEST SWAP3 SWAP2 POP POP JUMP JUMPDEST PUSH0 PUSH20 0xFFFFFFFFFFFFFFFFFFFFFFFFFFFFFFFFFFFFFFFF DUP3 AND SWAP1 POP SWAP2 SWAP1 POP JUMP JUMPDEST PUSH0 PUSH2 0x80D DUP3 PUSH2 0x7E4 JUMP JUMPDEST SWAP1 POP SWAP2 SWAP1 POP JUMP JUMPDEST PUSH2 0x81D DUP2 PUSH2 0x803 JUMP JUMPDEST DUP2 EQ PUSH2 0x827 JUMPI PUSH0 DUP1 REVERT JUMPDEST POP JUMP JUMPDEST PUSH0 DUP2 CALLDATALOAD SWAP1 POP PUSH2 0x838 DUP2 PUSH2 0x814 JUMP JUMPDEST SWAP3 SWAP2 POP POP JUMP JUMPDEST PUSH0 PUSH1 0x20 DUP3 DUP5 SUB SLT ISZERO PUSH2 0x853 JUMPI PUSH2 0x852 PUSH2 0x726 JUMP JUMPDEST JUMPDEST PUSH0 PUSH2 0x860 DUP5 DUP3 DUP6 ADD PUSH2 0x82A JUMP JUMPDEST SWAP2 POP POP SWAP3 SWAP2 POP POP JUMP JUMPDEST PUSH0 PUSH8 0xFFFFFFFFFFFFFFFF DUP3 AND SWAP1 POP SWAP2 SWAP1 POP JUMP JUMPDEST PUSH2 0x885 DUP2 PUSH2 0x869 JUMP JUMPDEST DUP3 MSTORE POP POP JUMP JUMPDEST PUSH0 DUP2 ISZERO ISZERO SWAP1 POP SWAP2 SWAP1 POP JUMP JUMPDEST PUSH2 0x89F DUP2 PUSH2 0x88B JUMP JUMPDEST DUP3 MSTORE POP POP JUMP JUMPDEST PUSH0 PUSH1 0x60 DUP3 ADD SWAP1 POP PUSH2 0x8B8 PUSH0 DUP4 ADD DUP7 PUSH2 0x788 JUMP JUMPDEST PUSH2 0x8C5 PUSH1 0x20 DUP4 ADD DUP6 PUSH2 0x87C JUMP JUMPDEST PUSH2 0x8D2 PUSH1 0x40 DUP4 ADD DUP5 PUSH2 0x896 JUMP JUMPDEST SWAP5 SWAP4 POP POP POP POP JUMP JUMPDEST PUSH0 DUP2 SWAP1 POP SWAP2 SWAP1 POP JUMP JUMPDEST PUSH2 0x8F4 PUSH2 0x8EF DUP3 PUSH2 0x72A JUMP JUMPDEST PUSH2 0x8DA JUMP JUMPDEST DUP3 MSTORE POP POP JUMP JUMPDEST PUSH0 PUSH2 0x905 DUP3 DUP5 PUSH2 0x8E3 JUMP JUMPDEST PUSH1 0x20 DUP3 ADD SWAP2 POP DUP2 SWAP1 POP SWAP3 SWAP2 POP POP JUMP JUMPDEST PUSH0 DUP3 DUP3 MSTORE PUSH1 0x20 DUP3 ADD SWAP1 POP SWAP3 SWAP2 POP POP JUMP JUMPDEST PUSH32 0x436F6D6D697452657665616C3A3A72657665616C3A20416C7265616479207265 PUSH0 DUP3 ADD MSTORE PUSH32 0x7665616C65640000000000000000000000000000000000000000000000000000 PUSH1 0x20 DUP3 ADD MSTORE POP JUMP JUMPDEST PUSH0 PUSH2 0x97E PUSH1 0x26 DUP4 PUSH2 0x914 JUMP JUMPDEST SWAP2 POP PUSH2 0x989 DUP3 PUSH2 0x924 JUMP JUMPDEST PUSH1 0x40 DUP3 ADD SWAP1 POP SWAP2 SWAP1 POP JUMP JUMPDEST PUSH0 PUSH1 0x20 DUP3 ADD SWAP1 POP DUP2 DUP2 SUB PUSH0 DUP4 ADD MSTORE PUSH2 0x9AB DUP2 PUSH2 0x972 JUMP JUMPDEST SWAP1 POP SWAP2 SWAP1 POP JUMP JUMPDEST PUSH32 0x436F6D6D697452657665616C3A3A72657665616C3A2052657665616C65642068 PUSH0 DUP3 ADD MSTORE PUSH32 0x61736820646F6573206E6F74206D6174636820636F6D6D697400000000000000 PUSH1 0x20 DUP3 ADD MSTORE POP JUMP JUMPDEST PUSH0 PUSH2 0xA0C PUSH1 0x39 DUP4 PUSH2 0x914 JUMP JUMPDEST SWAP2 POP PUSH2 0xA17 DUP3 PUSH2 0x9B2 JUMP JUMPDEST PUSH1 0x40 DUP3 ADD SWAP1 POP SWAP2 SWAP1 POP JUMP JUMPDEST PUSH0 PUSH1 0x20 DUP3 ADD SWAP1 POP DUP2 DUP2 SUB PUSH0 DUP4 ADD MSTORE PUSH2 0xA39 DUP2 PUSH2 0xA00 JUMP JUMPDEST SWAP1 POP SWAP2 SWAP1 POP JUMP JUMPDEST PUSH32 0x436F6D6D697452657665616C3A3A72657665616C3A2052657665616C20616E64 PUSH0 DUP3 ADD MSTORE PUSH32 0x20636F6D6D69742068617070656E6564206F6E207468652073616D6520626C6F PUSH1 0x20 DUP3 ADD MSTORE PUSH32 0x636B000000000000000000000000000000000000000000000000000000000000 PUSH1 0x40 DUP3 ADD MSTORE POP JUMP JUMPDEST PUSH0 PUSH2 0xAC0 PUSH1 0x42 DUP4 PUSH2 0x914 JUMP JUMPDEST SWAP2 POP PUSH2 0xACB DUP3 PUSH2 0xA40 JUMP JUMPDEST PUSH1 0x60 DUP3 ADD SWAP1 POP SWAP2 SWAP1 POP JUMP JUMPDEST PUSH0 PUSH1 0x20 DUP3 ADD SWAP1 POP DUP2 DUP2 SUB PUSH0 DUP4 ADD MSTORE PUSH2 0xAED DUP2 PUSH2 0xAB4 JUMP JUMPDEST SWAP1 POP SWAP2 SWAP1 POP JUMP JUMPDEST PUSH32 0x4E487B7100000000000000000000000000000000000000000000000000000000 PUSH0 MSTORE PUSH1 0x11 PUSH1 0x4 MSTORE PUSH1 0x24 PUSH0 REVERT JUMPDEST PUSH0 PUSH2 0xB2B DUP3 PUSH2 0x869 JUMP JUMPDEST SWAP2 POP PUSH2 0xB36 DUP4 PUSH2 0x869 JUMP JUMPDEST SWAP3 POP DUP3 DUP3 ADD SWAP1 POP PUSH8 0xFFFFFFFFFFFFFFFF DUP2 GT ISZERO PUSH2 0xB56 JUMPI PUSH2 0xB55 PUSH2 0xAF4 JUMP JUMPDEST JUMPDEST SWAP3 SWAP2 POP POP JUMP JUMPDEST PUSH32 0x436F6D6D697452657665616C3A3A72657665616C3A2052657665616C65642074 PUSH0 DUP3 ADD MSTORE PUSH32 0x6F6F206C61746500000000000000000000000000000000000000000000000000 PUSH1 0x20 DUP3 ADD MSTORE POP JUMP JUMPDEST PUSH0 PUSH2 0xBB6 PUSH1 0x27 DUP4 PUSH2 0x914 JUMP JUMPDEST SWAP2 POP PUSH2 0xBC1 DUP3 PUSH2 0xB5C JUMP JUMPDEST PUSH1 0x40 DUP3 ADD SWAP1 POP SWAP2 SWAP1 POP JUMP JUMPDEST PUSH0 PUSH1 0x20 DUP3 ADD SWAP1 POP DUP2 DUP2 SUB PUSH0 DUP4 ADD MSTORE PUSH2 0xBE3 DUP2 PUSH2 0xBAA JUMP JUMPDEST SWAP1 POP SWAP2 SWAP1 POP JUMP JUMPDEST PUSH0 PUSH2 0xBF5 DUP3 DUP6 PUSH2 0x8E3 JUMP JUMPDEST PUSH1 0x20 DUP3 ADD SWAP2 POP PUSH2 0xC05 DUP3 DUP5 PUSH2 0x8E3 JUMP JUMPDEST PUSH1 0x20 DUP3 ADD SWAP2 POP DUP2 SWAP1 POP SWAP4 SWAP3 POP POP POP JUMP JUMPDEST PUSH0 DUP2 SWAP1 POP SWAP2 SWAP1 POP JUMP JUMPDEST PUSH32 0x4E487B7100000000000000000000000000000000000000000000000000000000 PUSH0 MSTORE PUSH1 0x12 PUSH1 0x4 MSTORE PUSH1 0x24 PUSH0 REVERT JUMPDEST PUSH0 PUSH2 0xC55 DUP3 PUSH2 0xC15 JUMP JUMPDEST SWAP2 POP PUSH2 0xC60 DUP4 PUSH2 0xC15 JUMP JUMPDEST SWAP3 POP DUP3 PUSH2 0xC70 JUMPI PUSH2 0xC6F PUSH2 0xC1E JUMP JUMPDEST JUMPDEST DUP3 DUP3 MOD SWAP1 POP SWAP3 SWAP2 POP POP JUMP JUMPDEST PUSH2 0xC84 DUP2 PUSH2 0x803 JUMP JUMPDEST DUP3 MSTORE POP POP JUMP JUMPDEST PUSH2 0xC93 DUP2 PUSH2 0xC15 JUMP JUMPDEST DUP3 MSTORE POP POP JUMP JUMPDEST PUSH0 PUSH1 0x60 DUP3 ADD SWAP1 POP PUSH2 0xCAC PUSH0 DUP4 ADD DUP7 PUSH2 0xC7B JUMP JUMPDEST PUSH2 0xCB9 PUSH1 0x20 DUP4 ADD DUP6 PUSH2 0x788 JUMP JUMPDEST PUSH2 0xCC6 PUSH1 0x40 DUP4 ADD DUP5 PUSH2 0xC8A JUMP JUMPDEST SWAP5 SWAP4 POP POP POP POP JUMP JUMPDEST PUSH0 PUSH1 0x60 DUP3 ADD SWAP1 POP PUSH2 0xCE1 PUSH0 DUP4 ADD DUP7 PUSH2 0xC7B JUMP JUMPDEST PUSH2 0xCEE PUSH1 0x20 DUP4 ADD DUP6 PUSH2 0x788 JUMP JUMPDEST PUSH2 0xCFB PUSH1 0x40 DUP4 ADD DUP5 PUSH2 0x87C JUMP JUMPDEST SWAP5 SWAP4 POP POP POP POP JUMP INVALID LOG2 PUSH5 0x6970667358 0x22 SLT KECCAK256 0x1E 0xAF 0xC9 EXP PUSH24 0xE60DAF17AA211974ECE341FFD58201CA08DFBA4A59A1A10B SELFDESTRUCT MCOPY 0xE0 PUSH5 0x736F6C6343 STOP ADDMOD BYTE STOP CALLER "
				},
				"gasEstimates": {
					"creation": {
						"codeDepositCost": "1122000",
						"executionCost": "infinite",
						"totalCost": "infinite"
					},
					"external": {
						"addPlayer()": "infinite",
						"checkTimeOut()": "infinite",
						"commitReveal()": "infinite",
						"input(bytes32)": "infinite",
						"numInput()": "2426",
						"numPlayer()": "2424",
						"player_not_played(address)": "2878",
						"players(uint256)": "5032",
						"reveal(uint256,bytes1)": "infinite",
						"reward()": "2492"
					},
					"internal": {
						"checkWinnerAndPay()": "infinite",
						"getValid()": "infinite",
						"resetGame()": "infinite"
					}
				},
				"methodIdentifiers": {
					"addPlayer()": "27b5db8a",
					"checkTimeOut()": "b7786503",
					"commitReveal()": "9d7b3f2d",
					"input(bytes32)": "d891f969",
					"numInput()": "086f7815",
					"numPlayer()": "90d5d0c3",
					"player_not_played(address)": "190cf745",
					"players(uint256)": "f71d96cb",
					"reveal(uint256,bytes1)": "1842fc89",
					"reward()": "228cb733"
				}
			},
			"storageLayout": {
				"storage": [
					{
						"astId": 206,
						"contract": "RPS.sol:RPS",
						"label": "numPlayer",
						"offset": 0,
						"slot": "0",
						"type": "t_uint256"
					},
					{
						"astId": 209,
						"contract": "RPS.sol:RPS",
						"label": "reward",
						"offset": 0,
						"slot": "1",
						"type": "t_uint256"
					},
					{
						"astId": 213,
						"contract": "RPS.sol:RPS",
						"label": "player_choice_commit",
						"offset": 0,
						"slot": "2",
						"type": "t_mapping(t_address,t_bytes32)"
					},
					{
						"astId": 217,
						"contract": "RPS.sol:RPS",
						"label": "player_choice",
						"offset": 0,
						"slot": "3",
						"type": "t_mapping(t_address,t_uint256)"
					},
					{
						"astId": 221,
						"contract": "RPS.sol:RPS",
						"label": "player_not_played",
						"offset": 0,
						"slot": "4",
						"type": "t_mapping(t_address,t_bool)"
					},
					{
						"astId": 224,
						"contract": "RPS.sol:RPS",
						"label": "players",
						"offset": 0,
						"slot": "5",
						"type": "t_array(t_address)dyn_storage"
					},
					{
						"astId": 227,
						"contract": "RPS.sol:RPS",
						"label": "numInput",
						"offset": 0,
						"slot": "6",
						"type": "t_uint256"
					},
					{
						"astId": 234,
						"contract": "RPS.sol:RPS",
						"label": "timeUnit",
						"offset": 0,
						"slot": "7",
						"type": "t_contract(TimeUnit)744"
					},
					{
						"astId": 237,
						"contract": "RPS.sol:RPS",
						"label": "timeOut",
						"offset": 0,
						"slot": "8",
						"type": "t_uint256"
					},
					{
						"astId": 244,
						"contract": "RPS.sol:RPS",
						"label": "commitReveal",
						"offset": 0,
						"slot": "9",
						"type": "t_contract(CommitReveal)199"
					},
					{
						"astId": 253,
						"contract": "RPS.sol:RPS",
						"label": "playerAccept",
						"offset": 0,
						"slot": "10",
						"type": "t_array(t_address)4_storage"
					}
				],
				"types": {
					"t_address": {
						"encoding": "inplace",
						"label": "address",
						"numberOfBytes": "20"
					},
					"t_array(t_address)4_storage": {
						"base": "t_address",
						"encoding": "inplace",
						"label": "address[4]",
						"numberOfBytes": "128"
					},
					"t_array(t_address)dyn_storage": {
						"base": "t_address",
						"encoding": "dynamic_array",
						"label": "address[]",
						"numberOfBytes": "32"
					},
					"t_bool": {
						"encoding": "inplace",
						"label": "bool",
						"numberOfBytes": "1"
					},
					"t_bytes32": {
						"encoding": "inplace",
						"label": "bytes32",
						"numberOfBytes": "32"
					},
					"t_contract(CommitReveal)199": {
						"encoding": "inplace",
						"label": "contract CommitReveal",
						"numberOfBytes": "20"
					},
					"t_contract(TimeUnit)744": {
						"encoding": "inplace",
						"label": "contract TimeUnit",
						"numberOfBytes": "20"
					},
					"t_mapping(t_address,t_bool)": {
						"encoding": "mapping",
						"key": "t_address",
						"label": "mapping(address => bool)",
						"numberOfBytes": "32",
						"value": "t_bool"
					},
					"t_mapping(t_address,t_bytes32)": {
						"encoding": "mapping",
						"key": "t_address",
						"label": "mapping(address => bytes32)",
						"numberOfBytes": "32",
						"value": "t_bytes32"
					},
					"t_mapping(t_address,t_uint256)": {
						"encoding": "mapping",
						"key": "t_address",
						"label": "mapping(address => uint256)",
						"numberOfBytes": "32",
						"value": "t_uint256"
					},
					"t_uint256": {
						"encoding": "inplace",
						"label": "uint256",
						"numberOfBytes": "32"
					}
				}
			},
			"userdoc": {
				"kind": "user",
				"methods": {},
				"version": 1
			}
		}
	}
}