{
	"RPS.sol": {
		"RPS": {
			"abi": [
				{
					"inputs": [],
					"name": "addPlayer",
					"outputs": [],
					"stateMutability": "payable",
					"type": "function"
				},
				{
					"inputs": [],
					"name": "checkTimeOut",
					"outputs": [],
					"stateMutability": "nonpayable",
					"type": "function"
				},
				{
					"inputs": [],
					"name": "getValid",
					"outputs": [
						{
							"internalType": "bool",
							"name": "",
							"type": "bool"
						}
					],
					"stateMutability": "view",
					"type": "function"
				},
				{
					"inputs": [
						{
							"internalType": "uint256",
							"name": "choice",
							"type": "uint256"
						}
					],
					"name": "input",
					"outputs": [],
					"stateMutability": "nonpayable",
					"type": "function"
				},
				{
					"inputs": [],
					"name": "numInput",
					"outputs": [
						{
							"internalType": "uint256",
							"name": "",
							"type": "uint256"
						}
					],
					"stateMutability": "view",
					"type": "function"
				},
				{
					"inputs": [],
					"name": "numPlayer",
					"outputs": [
						{
							"internalType": "uint256",
							"name": "",
							"type": "uint256"
						}
					],
					"stateMutability": "view",
					"type": "function"
				},
				{
					"inputs": [
						{
							"internalType": "address",
							"name": "",
							"type": "address"
						}
					],
					"name": "player_choice",
					"outputs": [
						{
							"internalType": "uint256",
							"name": "",
							"type": "uint256"
						}
					],
					"stateMutability": "view",
					"type": "function"
				},
				{
					"inputs": [
						{
							"internalType": "address",
							"name": "",
							"type": "address"
						}
					],
					"name": "player_not_played",
					"outputs": [
						{
							"internalType": "bool",
							"name": "",
							"type": "bool"
						}
					],
					"stateMutability": "view",
					"type": "function"
				},
				{
					"inputs": [
						{
							"internalType": "uint256",
							"name": "",
							"type": "uint256"
						}
					],
					"name": "players",
					"outputs": [
						{
							"internalType": "address",
							"name": "",
							"type": "address"
						}
					],
					"stateMutability": "view",
					"type": "function"
				},
				{
					"inputs": [],
					"name": "reward",
					"outputs": [
						{
							"internalType": "uint256",
							"name": "",
							"type": "uint256"
						}
					],
					"stateMutability": "view",
					"type": "function"
				},
				{
					"inputs": [],
					"name": "timeOut",
					"outputs": [
						{
							"internalType": "uint256",
							"name": "",
							"type": "uint256"
						}
					],
					"stateMutability": "view",
					"type": "function"
				},
				{
					"inputs": [],
					"name": "timeUnit",
					"outputs": [
						{
							"internalType": "contract TimeUnit",
							"name": "",
							"type": "address"
						}
					],
					"stateMutability": "view",
					"type": "function"
				}
			],
			"devdoc": {
				"kind": "dev",
				"methods": {},
				"version": 1
			},
			"evm": {
				"assembly": "    /* \"RPS.sol\":132:2974  contract RPS {... */\n  mstore(0x40, 0x80)\n    /* \"RPS.sol\":176:177  0 */\n  0x00\n    /* \"RPS.sol\":152:177  uint public numPlayer = 0 */\n  dup1\n  sstore\n    /* \"RPS.sol\":205:206  0 */\n  0x00\n    /* \"RPS.sol\":184:206  uint public reward = 0 */\n  0x01\n  sstore\n    /* \"RPS.sol\":458:459  0 */\n  0x00\n    /* \"RPS.sol\":435:459  uint public numInput = 0 */\n  0x05\n  sstore\n    /* \"RPS.sol\":493:507  new TimeUnit() */\n  mload(0x40)\n  tag_1\n  swap1\n  tag_2\n  jump\t// in\ntag_1:\n  mload(0x40)\n  dup1\n  swap2\n  sub\n  swap1\n  0x00\n  create\n  dup1\n  iszero\n  dup1\n  iszero\n  tag_3\n  jumpi\n  returndatasize\n  0x00\n  dup1\n  returndatacopy\n  revert(0x00, returndatasize)\ntag_3:\n  pop\n    /* \"RPS.sol\":466:507  TimeUnit public timeUnit = new TimeUnit() */\n  0x06\n  exp(0x0100, 0x00)\n  dup2\n  sload\n  dup2\n  0xffffffffffffffffffffffffffffffffffffffff\n  mul\n  not\n  and\n  swap1\n  dup4\n  0xffffffffffffffffffffffffffffffffffffffff\n  and\n  mul\n  or\n  swap1\n  sstore\n  pop\n    /* \"RPS.sol\":536:537  1 */\n  0x01\n    /* \"RPS.sol\":514:537  uint public timeOut = 1 */\n  0x07\n  sstore\n    /* \"RPS.sol\":547:800  address[4] private playerAccept = [... */\n  mload(0x40)\n  dup1\n  0x80\n  add\n  0x40\n  mstore\n  dup1\n    /* \"RPS.sol\":592:634  0x5B38Da6a701c568545dCfcB03FcB875f56beddC4 */\n  0x5b38da6a701c568545dcfcb03fcb875f56beddc4\n    /* \"RPS.sol\":547:800  address[4] private playerAccept = [... */\n  0xffffffffffffffffffffffffffffffffffffffff\n  and\n  0xffffffffffffffffffffffffffffffffffffffff\n  and\n  dup2\n  mstore\n  0x20\n  add\n    /* \"RPS.sol\":645:687  0xAb8483F64d9C6d1EcF9b849Ae677dD3315835cb2 */\n  0xab8483f64d9c6d1ecf9b849ae677dd3315835cb2\n    /* \"RPS.sol\":547:800  address[4] private playerAccept = [... */\n  0xffffffffffffffffffffffffffffffffffffffff\n  and\n  0xffffffffffffffffffffffffffffffffffffffff\n  and\n  dup2\n  mstore\n  0x20\n  add\n    /* \"RPS.sol\":698:740  0x4B20993Bc481177ec7E8f571ceCaE8A9e22C02db */\n  0x4b20993bc481177ec7e8f571cecae8a9e22c02db\n    /* \"RPS.sol\":547:800  address[4] private playerAccept = [... */\n  0xffffffffffffffffffffffffffffffffffffffff\n  and\n  0xffffffffffffffffffffffffffffffffffffffff\n  and\n  dup2\n  mstore\n  0x20\n  add\n    /* \"RPS.sol\":751:793  0x78731D3Ca6b7E34aC0F824c42a7cC18A495cabaB */\n  0x78731d3ca6b7e34ac0f824c42a7cc18a495cabab\n    /* \"RPS.sol\":547:800  address[4] private playerAccept = [... */\n  0xffffffffffffffffffffffffffffffffffffffff\n  and\n  0xffffffffffffffffffffffffffffffffffffffff\n  and\n  dup2\n  mstore\n  pop\n  0x08\n  swap1\n  0x04\n  tag_4\n  swap3\n  swap2\n  swap1\n  tag_5\n  jump\t// in\ntag_4:\n  pop\n    /* \"RPS.sol\":132:2974  contract RPS {... */\n  callvalue\n  dup1\n  iszero\n  tag_6\n  jumpi\n  0x00\n  dup1\n  revert\ntag_6:\n  pop\n  jump(tag_7)\ntag_2:\n  dataSize(sub_1)\n  dup1\n  dataOffset(sub_1)\n  dup4\n  codecopy\n  add\n  swap1\n  jump\t// out\ntag_5:\n  dup3\n  0x04\n  dup2\n  add\n  swap3\n  dup3\n  iszero\n  tag_8\n  jumpi\n  swap2\n  0x20\n  mul\n  dup3\n  add\ntag_9:\n  dup3\n  dup2\n  gt\n  iszero\n  tag_10\n  jumpi\n  dup3\n  mload\n  dup3\n  exp(0x0100, 0x00)\n  dup2\n  sload\n  dup2\n  0xffffffffffffffffffffffffffffffffffffffff\n  mul\n  not\n  and\n  swap1\n  dup4\n  0xffffffffffffffffffffffffffffffffffffffff\n  and\n  mul\n  or\n  swap1\n  sstore\n  pop\n  swap2\n  0x20\n  add\n  swap2\n  swap1\n  0x01\n  add\n  swap1\n  jump(tag_9)\ntag_10:\ntag_8:\n  pop\n  swap1\n  pop\n  tag_11\n  swap2\n  swap1\n  tag_12\n  jump\t// in\ntag_11:\n  pop\n  swap1\n  jump\t// out\ntag_12:\ntag_13:\n  dup1\n  dup3\n  gt\n  iszero\n  tag_14\n  jumpi\n  0x00\n  dup2\n  0x00\n  swap1\n  sstore\n  pop\n  0x01\n  add\n  jump(tag_13)\ntag_14:\n  pop\n  swap1\n  jump\t// out\ntag_7:\n  dataSize(sub_0)\n  dup1\n  dataOffset(sub_0)\n  0x00\n  codecopy\n  0x00\n  return\nstop\n\nsub_0: assembly {\n        /* \"RPS.sol\":132:2974  contract RPS {... */\n      mstore(0x40, 0x80)\n      jumpi(tag_1, lt(calldatasize, 0x04))\n      shr(0xe0, calldataload(0x00))\n      dup1\n      0x90d5d0c3\n      gt\n      tag_14\n      jumpi\n      dup1\n      0x90d5d0c3\n      eq\n      tag_8\n      jumpi\n      dup1\n      0xa040478d\n      eq\n      tag_9\n      jumpi\n      dup1\n      0xad4e0407\n      eq\n      tag_10\n      jumpi\n      dup1\n      0xb7786503\n      eq\n      tag_11\n      jumpi\n      dup1\n      0xce6e1c4e\n      eq\n      tag_12\n      jumpi\n      dup1\n      0xf71d96cb\n      eq\n      tag_13\n      jumpi\n      jump(tag_1)\n    tag_14:\n      dup1\n      0x086f7815\n      eq\n      tag_2\n      jumpi\n      dup1\n      0x190cf745\n      eq\n      tag_3\n      jumpi\n      dup1\n      0x228cb733\n      eq\n      tag_4\n      jumpi\n      dup1\n      0x27b5db8a\n      eq\n      tag_5\n      jumpi\n      dup1\n      0x3c6a7f9b\n      eq\n      tag_6\n      jumpi\n      dup1\n      0x614d85e1\n      eq\n      tag_7\n      jumpi\n    tag_1:\n      0x00\n      dup1\n      revert\n        /* \"RPS.sol\":435:459  uint public numInput = 0 */\n    tag_2:\n      callvalue\n      dup1\n      iszero\n      tag_15\n      jumpi\n      0x00\n      dup1\n      revert\n    tag_15:\n      pop\n      tag_16\n      tag_17\n      jump\t// in\n    tag_16:\n      mload(0x40)\n      tag_18\n      swap2\n      swap1\n      tag_19\n      jump\t// in\n    tag_18:\n      mload(0x40)\n      dup1\n      swap2\n      sub\n      swap1\n      return\n        /* \"RPS.sol\":348:397  mapping(address => bool) public player_not_played */\n    tag_3:\n      callvalue\n      dup1\n      iszero\n      tag_20\n      jumpi\n      0x00\n      dup1\n      revert\n    tag_20:\n      pop\n      tag_21\n      0x04\n      dup1\n      calldatasize\n      sub\n      dup2\n      add\n      swap1\n      tag_22\n      swap2\n      swap1\n      tag_23\n      jump\t// in\n    tag_22:\n      tag_24\n      jump\t// in\n    tag_21:\n      mload(0x40)\n      tag_25\n      swap2\n      swap1\n      tag_26\n      jump\t// in\n    tag_25:\n      mload(0x40)\n      dup1\n      swap2\n      sub\n      swap1\n      return\n        /* \"RPS.sol\":184:206  uint public reward = 0 */\n    tag_4:\n      callvalue\n      dup1\n      iszero\n      tag_27\n      jumpi\n      0x00\n      dup1\n      revert\n    tag_27:\n      pop\n      tag_28\n      tag_29\n      jump\t// in\n    tag_28:\n      mload(0x40)\n      tag_30\n      swap2\n      swap1\n      tag_19\n      jump\t// in\n    tag_30:\n      mload(0x40)\n      dup1\n      swap2\n      sub\n      swap1\n      return\n        /* \"RPS.sol\":1044:1402  function addPlayer() public payable {... */\n    tag_5:\n      tag_31\n      tag_32\n      jump\t// in\n    tag_31:\n      stop\n        /* \"RPS.sol\":466:507  TimeUnit public timeUnit = new TimeUnit() */\n    tag_6:\n      callvalue\n      dup1\n      iszero\n      tag_33\n      jumpi\n      0x00\n      dup1\n      revert\n    tag_33:\n      pop\n      tag_34\n      tag_35\n      jump\t// in\n    tag_34:\n      mload(0x40)\n      tag_36\n      swap2\n      swap1\n      tag_37\n      jump\t// in\n    tag_36:\n      mload(0x40)\n      dup1\n      swap2\n      sub\n      swap1\n      return\n        /* \"RPS.sol\":514:537  uint public timeOut = 1 */\n    tag_7:\n      callvalue\n      dup1\n      iszero\n      tag_38\n      jumpi\n      0x00\n      dup1\n      revert\n    tag_38:\n      pop\n      tag_39\n      tag_40\n      jump\t// in\n    tag_39:\n      mload(0x40)\n      tag_41\n      swap2\n      swap1\n      tag_19\n      jump\t// in\n    tag_41:\n      mload(0x40)\n      dup1\n      swap2\n      sub\n      swap1\n      return\n        /* \"RPS.sol\":152:177  uint public numPlayer = 0 */\n    tag_8:\n      callvalue\n      dup1\n      iszero\n      tag_42\n      jumpi\n      0x00\n      dup1\n      revert\n    tag_42:\n      pop\n      tag_43\n      tag_44\n      jump\t// in\n    tag_43:\n      mload(0x40)\n      tag_45\n      swap2\n      swap1\n      tag_19\n      jump\t// in\n    tag_45:\n      mload(0x40)\n      dup1\n      swap2\n      sub\n      swap1\n      return\n        /* \"RPS.sol\":213:259  mapping (address => uint) public player_choice */\n    tag_9:\n      callvalue\n      dup1\n      iszero\n      tag_46\n      jumpi\n      0x00\n      dup1\n      revert\n    tag_46:\n      pop\n      tag_47\n      0x04\n      dup1\n      calldatasize\n      sub\n      dup2\n      add\n      swap1\n      tag_48\n      swap2\n      swap1\n      tag_23\n      jump\t// in\n    tag_48:\n      tag_49\n      jump\t// in\n    tag_47:\n      mload(0x40)\n      tag_50\n      swap2\n      swap1\n      tag_19\n      jump\t// in\n    tag_50:\n      mload(0x40)\n      dup1\n      swap2\n      sub\n      swap1\n      return\n        /* \"RPS.sol\":809:1036  function getValid () public view returns (bool) {... */\n    tag_10:\n      callvalue\n      dup1\n      iszero\n      tag_51\n      jumpi\n      0x00\n      dup1\n      revert\n    tag_51:\n      pop\n      tag_52\n      tag_53\n      jump\t// in\n    tag_52:\n      mload(0x40)\n      tag_54\n      swap2\n      swap1\n      tag_26\n      jump\t// in\n    tag_54:\n      mload(0x40)\n      dup1\n      swap2\n      sub\n      swap1\n      return\n        /* \"RPS.sol\":2513:2969  function checkTimeOut() public {... */\n    tag_11:\n      callvalue\n      dup1\n      iszero\n      tag_55\n      jumpi\n      0x00\n      dup1\n      revert\n    tag_55:\n      pop\n      tag_56\n      tag_57\n      jump\t// in\n    tag_56:\n      stop\n        /* \"RPS.sol\":1410:1827  function input(uint choice) public {... */\n    tag_12:\n      callvalue\n      dup1\n      iszero\n      tag_58\n      jumpi\n      0x00\n      dup1\n      revert\n    tag_58:\n      pop\n      tag_59\n      0x04\n      dup1\n      calldatasize\n      sub\n      dup2\n      add\n      swap1\n      tag_60\n      swap2\n      swap1\n      tag_61\n      jump\t// in\n    tag_60:\n      tag_62\n      jump\t// in\n    tag_59:\n      stop\n        /* \"RPS.sol\":404:428  address[] public players */\n    tag_13:\n      callvalue\n      dup1\n      iszero\n      tag_63\n      jumpi\n      0x00\n      dup1\n      revert\n    tag_63:\n      pop\n      tag_64\n      0x04\n      dup1\n      calldatasize\n      sub\n      dup2\n      add\n      swap1\n      tag_65\n      swap2\n      swap1\n      tag_61\n      jump\t// in\n    tag_65:\n      tag_66\n      jump\t// in\n    tag_64:\n      mload(0x40)\n      tag_67\n      swap2\n      swap1\n      tag_68\n      jump\t// in\n    tag_67:\n      mload(0x40)\n      dup1\n      swap2\n      sub\n      swap1\n      return\n        /* \"RPS.sol\":435:459  uint public numInput = 0 */\n    tag_17:\n      sload(0x05)\n      dup2\n      jump\t// out\n        /* \"RPS.sol\":348:397  mapping(address => bool) public player_not_played */\n    tag_24:\n      mstore(0x20, 0x03)\n      dup1\n      0x00\n      mstore\n      keccak256(0x00, 0x40)\n      0x00\n      swap2\n      pop\n      sload\n      swap1\n      0x0100\n      exp\n      swap1\n      div\n      0xff\n      and\n      dup2\n      jump\t// out\n        /* \"RPS.sol\":184:206  uint public reward = 0 */\n    tag_29:\n      sload(0x01)\n      dup2\n      jump\t// out\n        /* \"RPS.sol\":1044:1402  function addPlayer() public payable {... */\n    tag_32:\n        /* \"RPS.sol\":1111:1112  2 */\n      0x02\n        /* \"RPS.sol\":1099:1108  numPlayer */\n      sload(0x00)\n        /* \"RPS.sol\":1099:1112  numPlayer < 2 */\n      lt\n        /* \"RPS.sol\":1091:1113  require(numPlayer < 2) */\n      tag_70\n      jumpi\n      0x00\n      dup1\n      revert\n    tag_70:\n        /* \"RPS.sol\":1132:1142  getValid() */\n      tag_71\n        /* \"RPS.sol\":1132:1140  getValid */\n      tag_53\n        /* \"RPS.sol\":1132:1142  getValid() */\n      jump\t// in\n    tag_71:\n        /* \"RPS.sol\":1124:1143  require(getValid()) */\n      tag_72\n      jumpi\n      0x00\n      dup1\n      revert\n    tag_72:\n        /* \"RPS.sol\":1175:1182  1 ether */\n      0x0de0b6b3a7640000\n        /* \"RPS.sol\":1162:1171  msg.value */\n      callvalue\n        /* \"RPS.sol\":1162:1182  msg.value == 1 ether */\n      eq\n        /* \"RPS.sol\":1154:1183  require(msg.value == 1 ether) */\n      tag_73\n      jumpi\n      0x00\n      dup1\n      revert\n    tag_73:\n        /* \"RPS.sol\":1204:1213  msg.value */\n      callvalue\n        /* \"RPS.sol\":1194:1200  reward */\n      0x01\n      0x00\n        /* \"RPS.sol\":1194:1213  reward += msg.value */\n      dup3\n      dup3\n      sload\n      tag_74\n      swap2\n      swap1\n      tag_75\n      jump\t// in\n    tag_74:\n      swap3\n      pop\n      pop\n      dup2\n      swap1\n      sstore\n      pop\n        /* \"RPS.sol\":1256:1260  true */\n      0x01\n        /* \"RPS.sol\":1224:1241  player_not_played */\n      0x03\n        /* \"RPS.sol\":1224:1253  player_not_played[msg.sender] */\n      0x00\n        /* \"RPS.sol\":1242:1252  msg.sender */\n      caller\n        /* \"RPS.sol\":1224:1253  player_not_played[msg.sender] */\n      0xffffffffffffffffffffffffffffffffffffffff\n      and\n      0xffffffffffffffffffffffffffffffffffffffff\n      and\n      dup2\n      mstore\n      0x20\n      add\n      swap1\n      dup2\n      mstore\n      0x20\n      add\n      0x00\n      keccak256\n      0x00\n        /* \"RPS.sol\":1224:1260  player_not_played[msg.sender] = true */\n      0x0100\n      exp\n      dup2\n      sload\n      dup2\n      0xff\n      mul\n      not\n      and\n      swap1\n      dup4\n      iszero\n      iszero\n      mul\n      or\n      swap1\n      sstore\n      pop\n        /* \"RPS.sol\":1271:1278  players */\n      0x04\n        /* \"RPS.sol\":1284:1294  msg.sender */\n      caller\n        /* \"RPS.sol\":1271:1295  players.push(msg.sender) */\n      swap1\n      dup1\n      0x01\n      dup2\n      sload\n      add\n      dup1\n      dup3\n      sstore\n      dup1\n      swap2\n      pop\n      pop\n      0x01\n      swap1\n      sub\n      swap1\n      0x00\n      mstore\n      keccak256(0x00, 0x20)\n      add\n      0x00\n      swap1\n      swap2\n      swap1\n      swap2\n      swap1\n      swap2\n      0x0100\n      exp\n      dup2\n      sload\n      dup2\n      0xffffffffffffffffffffffffffffffffffffffff\n      mul\n      not\n      and\n      swap1\n      dup4\n      0xffffffffffffffffffffffffffffffffffffffff\n      and\n      mul\n      or\n      swap1\n      sstore\n      pop\n        /* \"RPS.sol\":1306:1315  numPlayer */\n      0x00\n      dup1\n        /* \"RPS.sol\":1306:1317  numPlayer++ */\n      dup2\n      sload\n      dup1\n      swap3\n      swap2\n      swap1\n      tag_77\n      swap1\n      tag_78\n      jump\t// in\n    tag_77:\n      swap2\n      swap1\n      pop\n      sstore\n      pop\n        /* \"RPS.sol\":1342:1343  1 */\n      0x01\n        /* \"RPS.sol\":1331:1340  numPlayer */\n      sload(0x00)\n        /* \"RPS.sol\":1331:1343  numPlayer==1 */\n      sub\n        /* \"RPS.sol\":1328:1394  if(numPlayer==1){... */\n      tag_79\n      jumpi\n        /* \"RPS.sol\":1359:1367  timeUnit */\n      0x06\n      0x00\n      swap1\n      sload\n      swap1\n      0x0100\n      exp\n      swap1\n      div\n      0xffffffffffffffffffffffffffffffffffffffff\n      and\n        /* \"RPS.sol\":1359:1380  timeUnit.setStartTime */\n      0xffffffffffffffffffffffffffffffffffffffff\n      and\n      0xa63f7c53\n        /* \"RPS.sol\":1359:1382  timeUnit.setStartTime() */\n      mload(0x40)\n      dup2\n      0xffffffff\n      and\n      0xe0\n      shl\n      dup2\n      mstore\n      0x04\n      add\n      0x00\n      mload(0x40)\n      dup1\n      dup4\n      sub\n      dup2\n      0x00\n      dup8\n      dup1\n      extcodesize\n      iszero\n      dup1\n      iszero\n      tag_80\n      jumpi\n      0x00\n      dup1\n      revert\n    tag_80:\n      pop\n      gas\n      call\n      iszero\n      dup1\n      iszero\n      tag_82\n      jumpi\n      returndatasize\n      0x00\n      dup1\n      returndatacopy\n      revert(0x00, returndatasize)\n    tag_82:\n      pop\n      pop\n      pop\n      pop\n        /* \"RPS.sol\":1328:1394  if(numPlayer==1){... */\n    tag_79:\n        /* \"RPS.sol\":1044:1402  function addPlayer() public payable {... */\n      jump\t// out\n        /* \"RPS.sol\":466:507  TimeUnit public timeUnit = new TimeUnit() */\n    tag_35:\n      0x06\n      0x00\n      swap1\n      sload\n      swap1\n      0x0100\n      exp\n      swap1\n      div\n      0xffffffffffffffffffffffffffffffffffffffff\n      and\n      dup2\n      jump\t// out\n        /* \"RPS.sol\":514:537  uint public timeOut = 1 */\n    tag_40:\n      sload(0x07)\n      dup2\n      jump\t// out\n        /* \"RPS.sol\":152:177  uint public numPlayer = 0 */\n    tag_44:\n      sload(0x00)\n      dup2\n      jump\t// out\n        /* \"RPS.sol\":213:259  mapping (address => uint) public player_choice */\n    tag_49:\n      mstore(0x20, 0x02)\n      dup1\n      0x00\n      mstore\n      keccak256(0x00, 0x40)\n      0x00\n      swap2\n      pop\n      swap1\n      pop\n      sload\n      dup2\n      jump\t// out\n        /* \"RPS.sol\":809:1036  function getValid () public view returns (bool) {... */\n    tag_53:\n        /* \"RPS.sol\":851:855  bool */\n      0x00\n        /* \"RPS.sol\":873:882  uint256 i */\n      dup1\n        /* \"RPS.sol\":885:886  0 */\n      0x00\n        /* \"RPS.sol\":873:886  uint256 i = 0 */\n      swap1\n      pop\n        /* \"RPS.sol\":868:1006  for (uint256 i = 0; i < 4; i++) {... */\n    tag_84:\n        /* \"RPS.sol\":892:893  4 */\n      0x04\n        /* \"RPS.sol\":888:889  i */\n      dup2\n        /* \"RPS.sol\":888:893  i < 4 */\n      lt\n        /* \"RPS.sol\":868:1006  for (uint256 i = 0; i < 4; i++) {... */\n      iszero\n      tag_85\n      jumpi\n        /* \"RPS.sol\":932:944  playerAccept */\n      0x08\n        /* \"RPS.sol\":945:946  i */\n      dup2\n        /* \"RPS.sol\":932:947  playerAccept[i] */\n      0x04\n      dup2\n      lt\n      tag_87\n      jumpi\n      tag_88\n      tag_89\n      jump\t// in\n    tag_88:\n    tag_87:\n      add\n      0x00\n      swap1\n      sload\n      swap1\n      0x0100\n      exp\n      swap1\n      div\n      0xffffffffffffffffffffffffffffffffffffffff\n      and\n        /* \"RPS.sol\":918:947  msg.sender == playerAccept[i] */\n      0xffffffffffffffffffffffffffffffffffffffff\n      and\n        /* \"RPS.sol\":918:928  msg.sender */\n      caller\n        /* \"RPS.sol\":918:947  msg.sender == playerAccept[i] */\n      0xffffffffffffffffffffffffffffffffffffffff\n      and\n      sub\n        /* \"RPS.sol\":915:995  if(msg.sender == playerAccept[i]) {... */\n      tag_91\n      jumpi\n        /* \"RPS.sol\":975:979  true */\n      0x01\n        /* \"RPS.sol\":968:979  return true */\n      swap2\n      pop\n      pop\n      jump(tag_83)\n        /* \"RPS.sol\":915:995  if(msg.sender == playerAccept[i]) {... */\n    tag_91:\n        /* \"RPS.sol\":895:898  i++ */\n      dup1\n      dup1\n      0x01\n      add\n      swap2\n      pop\n      pop\n        /* \"RPS.sol\":868:1006  for (uint256 i = 0; i < 4; i++) {... */\n      jump(tag_84)\n    tag_85:\n      pop\n        /* \"RPS.sol\":1023:1028  false */\n      0x00\n        /* \"RPS.sol\":1016:1028  return false */\n      swap1\n      pop\n        /* \"RPS.sol\":809:1036  function getValid () public view returns (bool) {... */\n    tag_83:\n      swap1\n      jump\t// out\n        /* \"RPS.sol\":2513:2969  function checkTimeOut() public {... */\n    tag_57:\n        /* \"RPS.sol\":2587:2594  timeOut */\n      sload(0x07)\n        /* \"RPS.sol\":2558:2566  timeUnit */\n      0x06\n      0x00\n      swap1\n      sload\n      swap1\n      0x0100\n      exp\n      swap1\n      div\n      0xffffffffffffffffffffffffffffffffffffffff\n      and\n        /* \"RPS.sol\":2558:2581  timeUnit.elapsedMinutes */\n      0xffffffffffffffffffffffffffffffffffffffff\n      and\n      0xd97c8416\n        /* \"RPS.sol\":2558:2583  timeUnit.elapsedMinutes() */\n      mload(0x40)\n      dup2\n      0xffffffff\n      and\n      0xe0\n      shl\n      dup2\n      mstore\n      0x04\n      add\n      0x20\n      mload(0x40)\n      dup1\n      dup4\n      sub\n      dup2\n      dup7\n      gas\n      staticcall\n      iszero\n      dup1\n      iszero\n      tag_94\n      jumpi\n      returndatasize\n      0x00\n      dup1\n      returndatacopy\n      revert(0x00, returndatasize)\n    tag_94:\n      pop\n      pop\n      pop\n      pop\n      mload(0x40)\n      returndatasize\n      not(0x1f)\n      0x1f\n      dup3\n      add\n      and\n      dup3\n      add\n      dup1\n      0x40\n      mstore\n      pop\n      dup2\n      add\n      swap1\n      tag_95\n      swap2\n      swap1\n      tag_96\n      jump\t// in\n    tag_95:\n        /* \"RPS.sol\":2558:2594  timeUnit.elapsedMinutes() == timeOut */\n      sub\n        /* \"RPS.sol\":2555:2962  if(timeUnit.elapsedMinutes() == timeOut) {... */\n      tag_97\n      jumpi\n        /* \"RPS.sol\":2616:2625  uint256 i */\n      0x00\n        /* \"RPS.sol\":2611:2951  for (uint256 i = 0; i < 2; i++) {... */\n    tag_98:\n        /* \"RPS.sol\":2635:2636  2 */\n      0x02\n        /* \"RPS.sol\":2631:2632  i */\n      dup2\n        /* \"RPS.sol\":2631:2636  i < 2 */\n      lt\n        /* \"RPS.sol\":2611:2951  for (uint256 i = 0; i < 2; i++) {... */\n      iszero\n      tag_99\n      jumpi\n        /* \"RPS.sol\":2666:2683  player_not_played */\n      0x03\n        /* \"RPS.sol\":2666:2695  player_not_played[players[i]] */\n      0x00\n        /* \"RPS.sol\":2684:2691  players */\n      0x04\n        /* \"RPS.sol\":2692:2693  i */\n      dup4\n        /* \"RPS.sol\":2684:2694  players[i] */\n      dup2\n      sload\n      dup2\n      lt\n      tag_101\n      jumpi\n      tag_102\n      tag_89\n      jump\t// in\n    tag_102:\n    tag_101:\n      swap1\n      0x00\n      mstore\n      keccak256(0x00, 0x20)\n      add\n      0x00\n      swap1\n      sload\n      swap1\n      0x0100\n      exp\n      swap1\n      div\n      0xffffffffffffffffffffffffffffffffffffffff\n      and\n        /* \"RPS.sol\":2666:2695  player_not_played[players[i]] */\n      0xffffffffffffffffffffffffffffffffffffffff\n      and\n      0xffffffffffffffffffffffffffffffffffffffff\n      and\n      dup2\n      mstore\n      0x20\n      add\n      swap1\n      dup2\n      mstore\n      0x20\n      add\n      0x00\n      keccak256\n      0x00\n      swap1\n      sload\n      swap1\n      0x0100\n      exp\n      swap1\n      div\n      0xff\n      and\n        /* \"RPS.sol\":2662:2936  if(!player_not_played[players[i]]) {... */\n      tag_104\n      jumpi\n        /* \"RPS.sol\":2720:2743  address payable account */\n      0x00\n        /* \"RPS.sol\":2754:2761  players */\n      0x04\n        /* \"RPS.sol\":2762:2763  i */\n      dup3\n        /* \"RPS.sol\":2754:2764  players[i] */\n      dup2\n      sload\n      dup2\n      lt\n      tag_105\n      jumpi\n      tag_106\n      tag_89\n      jump\t// in\n    tag_106:\n    tag_105:\n      swap1\n      0x00\n      mstore\n      keccak256(0x00, 0x20)\n      add\n      0x00\n      swap1\n      sload\n      swap1\n      0x0100\n      exp\n      swap1\n      div\n      0xffffffffffffffffffffffffffffffffffffffff\n      and\n        /* \"RPS.sol\":2720:2765  address payable account = payable(players[i]) */\n      swap1\n      pop\n        /* \"RPS.sol\":2788:2795  account */\n      dup1\n        /* \"RPS.sol\":2788:2804  account.transfer */\n      0xffffffffffffffffffffffffffffffffffffffff\n      and\n        /* \"RPS.sol\":2788:2812  account.transfer(reward) */\n      0x08fc\n        /* \"RPS.sol\":2805:2811  reward */\n      sload(0x01)\n        /* \"RPS.sol\":2788:2812  account.transfer(reward) */\n      swap1\n      dup2\n      iszero\n      mul\n      swap1\n      mload(0x40)\n      0x00\n      mload(0x40)\n      dup1\n      dup4\n      sub\n      dup2\n      dup6\n      dup9\n      dup9\n      call\n      swap4\n      pop\n      pop\n      pop\n      pop\n      iszero\n      dup1\n      iszero\n      tag_109\n      jumpi\n      returndatasize\n      0x00\n      dup1\n      returndatacopy\n      revert(0x00, returndatasize)\n    tag_109:\n      pop\n        /* \"RPS.sol\":2846:2847  0 */\n      0x00\n        /* \"RPS.sol\":2835:2843  numInput */\n      0x05\n        /* \"RPS.sol\":2835:2847  numInput = 0 */\n      dup2\n      swap1\n      sstore\n      pop\n        /* \"RPS.sol\":2882:2883  0 */\n      0x00\n        /* \"RPS.sol\":2870:2879  numPlayer */\n      dup1\n        /* \"RPS.sol\":2870:2883  numPlayer = 0 */\n      dup2\n      swap1\n      sstore\n      pop\n        /* \"RPS.sol\":2915:2916  0 */\n      0x00\n        /* \"RPS.sol\":2906:2912  reward */\n      0x01\n        /* \"RPS.sol\":2906:2916  reward = 0 */\n      dup2\n      swap1\n      sstore\n      pop\n        /* \"RPS.sol\":2697:2936  {... */\n      pop\n        /* \"RPS.sol\":2662:2936  if(!player_not_played[players[i]]) {... */\n    tag_104:\n        /* \"RPS.sol\":2638:2641  i++ */\n      dup1\n      dup1\n      0x01\n      add\n      swap2\n      pop\n      pop\n        /* \"RPS.sol\":2611:2951  for (uint256 i = 0; i < 2; i++) {... */\n      jump(tag_98)\n    tag_99:\n      pop\n        /* \"RPS.sol\":2555:2962  if(timeUnit.elapsedMinutes() == timeOut) {... */\n    tag_97:\n        /* \"RPS.sol\":2513:2969  function checkTimeOut() public {... */\n      jump\t// out\n        /* \"RPS.sol\":1410:1827  function input(uint choice) public {... */\n    tag_62:\n        /* \"RPS.sol\":1477:1478  2 */\n      0x02\n        /* \"RPS.sol\":1464:1473  numPlayer */\n      sload(0x00)\n        /* \"RPS.sol\":1464:1478  numPlayer == 2 */\n      eq\n        /* \"RPS.sol\":1456:1479  require(numPlayer == 2) */\n      tag_111\n      jumpi\n      0x00\n      dup1\n      revert\n    tag_111:\n        /* \"RPS.sol\":1498:1515  player_not_played */\n      0x03\n        /* \"RPS.sol\":1498:1527  player_not_played[msg.sender] */\n      0x00\n        /* \"RPS.sol\":1516:1526  msg.sender */\n      caller\n        /* \"RPS.sol\":1498:1527  player_not_played[msg.sender] */\n      0xffffffffffffffffffffffffffffffffffffffff\n      and\n      0xffffffffffffffffffffffffffffffffffffffff\n      and\n      dup2\n      mstore\n      0x20\n      add\n      swap1\n      dup2\n      mstore\n      0x20\n      add\n      0x00\n      keccak256\n      0x00\n      swap1\n      sload\n      swap1\n      0x0100\n      exp\n      swap1\n      div\n      0xff\n      and\n        /* \"RPS.sol\":1490:1528  require(player_not_played[msg.sender]) */\n      tag_112\n      jumpi\n      0x00\n      dup1\n      revert\n    tag_112:\n        /* \"RPS.sol\":1557:1558  0 */\n      0x00\n        /* \"RPS.sol\":1547:1553  choice */\n      dup2\n        /* \"RPS.sol\":1547:1558  choice >= 0 */\n      lt\n      iszero\n        /* \"RPS.sol\":1547:1573  choice >= 0 && choice <= 4 */\n      dup1\n      iszero\n      tag_113\n      jumpi\n      pop\n        /* \"RPS.sol\":1572:1573  4 */\n      0x04\n        /* \"RPS.sol\":1562:1568  choice */\n      dup2\n        /* \"RPS.sol\":1562:1573  choice <= 4 */\n      gt\n      iszero\n        /* \"RPS.sol\":1547:1573  choice >= 0 && choice <= 4 */\n    tag_113:\n        /* \"RPS.sol\":1539:1574  require(choice >= 0 && choice <= 4) */\n      tag_114\n      jumpi\n      0x00\n      dup1\n      revert\n    tag_114:\n        /* \"RPS.sol\":1613:1619  choice */\n      dup1\n        /* \"RPS.sol\":1585:1598  player_choice */\n      0x02\n        /* \"RPS.sol\":1585:1610  player_choice[msg.sender] */\n      0x00\n        /* \"RPS.sol\":1599:1609  msg.sender */\n      caller\n        /* \"RPS.sol\":1585:1610  player_choice[msg.sender] */\n      0xffffffffffffffffffffffffffffffffffffffff\n      and\n      0xffffffffffffffffffffffffffffffffffffffff\n      and\n      dup2\n      mstore\n      0x20\n      add\n      swap1\n      dup2\n      mstore\n      0x20\n      add\n      0x00\n      keccak256\n        /* \"RPS.sol\":1585:1619  player_choice[msg.sender] = choice */\n      dup2\n      swap1\n      sstore\n      pop\n        /* \"RPS.sol\":1662:1667  false */\n      0x00\n        /* \"RPS.sol\":1630:1647  player_not_played */\n      0x03\n        /* \"RPS.sol\":1630:1659  player_not_played[msg.sender] */\n      0x00\n        /* \"RPS.sol\":1648:1658  msg.sender */\n      caller\n        /* \"RPS.sol\":1630:1659  player_not_played[msg.sender] */\n      0xffffffffffffffffffffffffffffffffffffffff\n      and\n      0xffffffffffffffffffffffffffffffffffffffff\n      and\n      dup2\n      mstore\n      0x20\n      add\n      swap1\n      dup2\n      mstore\n      0x20\n      add\n      0x00\n      keccak256\n      0x00\n        /* \"RPS.sol\":1630:1667  player_not_played[msg.sender] = false */\n      0x0100\n      exp\n      dup2\n      sload\n      dup2\n      0xff\n      mul\n      not\n      and\n      swap1\n      dup4\n      iszero\n      iszero\n      mul\n      or\n      swap1\n      sstore\n      pop\n        /* \"RPS.sol\":1678:1686  numInput */\n      0x05\n      0x00\n        /* \"RPS.sol\":1678:1688  numInput++ */\n      dup2\n      sload\n      dup1\n      swap3\n      swap2\n      swap1\n      tag_115\n      swap1\n      tag_78\n      jump\t// in\n    tag_115:\n      swap2\n      swap1\n      pop\n      sstore\n      pop\n        /* \"RPS.sol\":1715:1716  2 */\n      0x02\n        /* \"RPS.sol\":1703:1711  numInput */\n      sload(0x05)\n        /* \"RPS.sol\":1703:1716  numInput == 2 */\n      sub\n        /* \"RPS.sol\":1699:1820  if (numInput == 2) {... */\n      tag_116\n      jumpi\n        /* \"RPS.sol\":1744:1745  0 */\n      0x00\n        /* \"RPS.sol\":1733:1741  numInput */\n      0x05\n        /* \"RPS.sol\":1733:1745  numInput = 0 */\n      dup2\n      swap1\n      sstore\n      pop\n        /* \"RPS.sol\":1772:1773  0 */\n      0x00\n        /* \"RPS.sol\":1760:1769  numPlayer */\n      dup1\n        /* \"RPS.sol\":1760:1773  numPlayer = 0 */\n      dup2\n      swap1\n      sstore\n      pop\n        /* \"RPS.sol\":1788:1808  _checkWinnerAndPay() */\n      tag_117\n        /* \"RPS.sol\":1788:1806  _checkWinnerAndPay */\n      tag_118\n        /* \"RPS.sol\":1788:1808  _checkWinnerAndPay() */\n      jump\t// in\n    tag_117:\n        /* \"RPS.sol\":1699:1820  if (numInput == 2) {... */\n    tag_116:\n        /* \"RPS.sol\":1410:1827  function input(uint choice) public {... */\n      pop\n      jump\t// out\n        /* \"RPS.sol\":404:428  address[] public players */\n    tag_66:\n      0x04\n      dup2\n      dup2\n      sload\n      dup2\n      lt\n      tag_119\n      jumpi\n      0x00\n      dup1\n      revert\n    tag_119:\n      swap1\n      0x00\n      mstore\n      keccak256(0x00, 0x20)\n      add\n      0x00\n      swap2\n      pop\n      sload\n      swap1\n      0x0100\n      exp\n      swap1\n      div\n      0xffffffffffffffffffffffffffffffffffffffff\n      and\n      dup2\n      jump\t// out\n        /* \"RPS.sol\":1835:2505  function _checkWinnerAndPay() private {... */\n    tag_118:\n        /* \"RPS.sol\":1884:1897  uint p0Choice */\n      0x00\n        /* \"RPS.sol\":1900:1913  player_choice */\n      0x02\n        /* \"RPS.sol\":1900:1925  player_choice[players[0]] */\n      0x00\n        /* \"RPS.sol\":1914:1921  players */\n      0x04\n        /* \"RPS.sol\":1922:1923  0 */\n      0x00\n        /* \"RPS.sol\":1914:1924  players[0] */\n      dup2\n      sload\n      dup2\n      lt\n      tag_122\n      jumpi\n      tag_123\n      tag_89\n      jump\t// in\n    tag_123:\n    tag_122:\n      swap1\n      0x00\n      mstore\n      keccak256(0x00, 0x20)\n      add\n      0x00\n      swap1\n      sload\n      swap1\n      0x0100\n      exp\n      swap1\n      div\n      0xffffffffffffffffffffffffffffffffffffffff\n      and\n        /* \"RPS.sol\":1900:1925  player_choice[players[0]] */\n      0xffffffffffffffffffffffffffffffffffffffff\n      and\n      0xffffffffffffffffffffffffffffffffffffffff\n      and\n      dup2\n      mstore\n      0x20\n      add\n      swap1\n      dup2\n      mstore\n      0x20\n      add\n      0x00\n      keccak256\n      sload\n        /* \"RPS.sol\":1884:1925  uint p0Choice = player_choice[players[0]] */\n      swap1\n      pop\n        /* \"RPS.sol\":1936:1949  uint p1Choice */\n      0x00\n        /* \"RPS.sol\":1952:1965  player_choice */\n      0x02\n        /* \"RPS.sol\":1952:1977  player_choice[players[1]] */\n      0x00\n        /* \"RPS.sol\":1966:1973  players */\n      0x04\n        /* \"RPS.sol\":1974:1975  1 */\n      0x01\n        /* \"RPS.sol\":1966:1976  players[1] */\n      dup2\n      sload\n      dup2\n      lt\n      tag_125\n      jumpi\n      tag_126\n      tag_89\n      jump\t// in\n    tag_126:\n    tag_125:\n      swap1\n      0x00\n      mstore\n      keccak256(0x00, 0x20)\n      add\n      0x00\n      swap1\n      sload\n      swap1\n      0x0100\n      exp\n      swap1\n      div\n      0xffffffffffffffffffffffffffffffffffffffff\n      and\n        /* \"RPS.sol\":1952:1977  player_choice[players[1]] */\n      0xffffffffffffffffffffffffffffffffffffffff\n      and\n      0xffffffffffffffffffffffffffffffffffffffff\n      and\n      dup2\n      mstore\n      0x20\n      add\n      swap1\n      dup2\n      mstore\n      0x20\n      add\n      0x00\n      keccak256\n      sload\n        /* \"RPS.sol\":1936:1977  uint p1Choice = player_choice[players[1]] */\n      swap1\n      pop\n        /* \"RPS.sol\":1988:2012  address payable account0 */\n      0x00\n        /* \"RPS.sol\":2023:2030  players */\n      0x04\n        /* \"RPS.sol\":2031:2032  0 */\n      0x00\n        /* \"RPS.sol\":2023:2033  players[0] */\n      dup2\n      sload\n      dup2\n      lt\n      tag_128\n      jumpi\n      tag_129\n      tag_89\n      jump\t// in\n    tag_129:\n    tag_128:\n      swap1\n      0x00\n      mstore\n      keccak256(0x00, 0x20)\n      add\n      0x00\n      swap1\n      sload\n      swap1\n      0x0100\n      exp\n      swap1\n      div\n      0xffffffffffffffffffffffffffffffffffffffff\n      and\n        /* \"RPS.sol\":1988:2034  address payable account0 = payable(players[0]) */\n      swap1\n      pop\n        /* \"RPS.sol\":2045:2069  address payable account1 */\n      0x00\n        /* \"RPS.sol\":2080:2087  players */\n      0x04\n        /* \"RPS.sol\":2088:2089  1 */\n      0x01\n        /* \"RPS.sol\":2080:2090  players[1] */\n      dup2\n      sload\n      dup2\n      lt\n      tag_131\n      jumpi\n      tag_132\n      tag_89\n      jump\t// in\n    tag_132:\n    tag_131:\n      swap1\n      0x00\n      mstore\n      keccak256(0x00, 0x20)\n      add\n      0x00\n      swap1\n      sload\n      swap1\n      0x0100\n      exp\n      swap1\n      div\n      0xffffffffffffffffffffffffffffffffffffffff\n      and\n        /* \"RPS.sol\":2045:2091  address payable account1 = payable(players[1]) */\n      swap1\n      pop\n        /* \"RPS.sol\":2118:2126  p1Choice */\n      dup3\n        /* \"RPS.sol\":2106:2114  p0Choice */\n      dup5\n        /* \"RPS.sol\":2106:2126  p0Choice == p1Choice */\n      sub\n        /* \"RPS.sol\":2102:2477  if (p0Choice == p1Choice) {... */\n      tag_134\n      jumpi\n        /* \"RPS.sol\":2143:2151  account0 */\n      dup2\n        /* \"RPS.sol\":2143:2160  account0.transfer */\n      0xffffffffffffffffffffffffffffffffffffffff\n      and\n        /* \"RPS.sol\":2143:2172  account0.transfer(reward / 2) */\n      0x08fc\n        /* \"RPS.sol\":2170:2171  2 */\n      0x02\n        /* \"RPS.sol\":2161:2167  reward */\n      sload(0x01)\n        /* \"RPS.sol\":2161:2171  reward / 2 */\n      tag_135\n      swap2\n      swap1\n      tag_136\n      jump\t// in\n    tag_135:\n        /* \"RPS.sol\":2143:2172  account0.transfer(reward / 2) */\n      swap1\n      dup2\n      iszero\n      mul\n      swap1\n      mload(0x40)\n      0x00\n      mload(0x40)\n      dup1\n      dup4\n      sub\n      dup2\n      dup6\n      dup9\n      dup9\n      call\n      swap4\n      pop\n      pop\n      pop\n      pop\n      iszero\n      dup1\n      iszero\n      tag_138\n      jumpi\n      returndatasize\n      0x00\n      dup1\n      returndatacopy\n      revert(0x00, returndatasize)\n    tag_138:\n      pop\n        /* \"RPS.sol\":2187:2195  account1 */\n      dup1\n        /* \"RPS.sol\":2187:2204  account1.transfer */\n      0xffffffffffffffffffffffffffffffffffffffff\n      and\n        /* \"RPS.sol\":2187:2216  account1.transfer(reward / 2) */\n      0x08fc\n        /* \"RPS.sol\":2214:2215  2 */\n      0x02\n        /* \"RPS.sol\":2205:2211  reward */\n      sload(0x01)\n        /* \"RPS.sol\":2205:2215  reward / 2 */\n      tag_139\n      swap2\n      swap1\n      tag_136\n      jump\t// in\n    tag_139:\n        /* \"RPS.sol\":2187:2216  account1.transfer(reward / 2) */\n      swap1\n      dup2\n      iszero\n      mul\n      swap1\n      mload(0x40)\n      0x00\n      mload(0x40)\n      dup1\n      dup4\n      sub\n      dup2\n      dup6\n      dup9\n      dup9\n      call\n      swap4\n      pop\n      pop\n      pop\n      pop\n      iszero\n      dup1\n      iszero\n      tag_141\n      jumpi\n      returndatasize\n      0x00\n      dup1\n      returndatacopy\n      revert(0x00, returndatasize)\n    tag_141:\n      pop\n        /* \"RPS.sol\":2102:2477  if (p0Choice == p1Choice) {... */\n      jump(tag_142)\n    tag_134:\n        /* \"RPS.sol\":2269:2277  p0Choice */\n      dup4\n        /* \"RPS.sol\":2264:2265  5 */\n      0x05\n        /* \"RPS.sol\":2259:2260  1 */\n      0x01\n        /* \"RPS.sol\":2248:2256  p1Choice */\n      dup6\n        /* \"RPS.sol\":2248:2260  p1Choice + 1 */\n      tag_143\n      swap2\n      swap1\n      tag_75\n      jump\t// in\n    tag_143:\n        /* \"RPS.sol\":2247:2265  (p1Choice + 1) % 5 */\n      tag_144\n      swap2\n      swap1\n      tag_145\n      jump\t// in\n    tag_144:\n        /* \"RPS.sol\":2247:2277  (p1Choice + 1) % 5 == p0Choice */\n      eq\n        /* \"RPS.sol\":2247:2311  (p1Choice + 1) % 5 == p0Choice || (p1Choice + 3) % 5 == p0Choice */\n      dup1\n      tag_146\n      jumpi\n      pop\n        /* \"RPS.sol\":2303:2311  p0Choice */\n      dup4\n        /* \"RPS.sol\":2298:2299  5 */\n      0x05\n        /* \"RPS.sol\":2293:2294  3 */\n      0x03\n        /* \"RPS.sol\":2282:2290  p1Choice */\n      dup6\n        /* \"RPS.sol\":2282:2294  p1Choice + 3 */\n      tag_147\n      swap2\n      swap1\n      tag_75\n      jump\t// in\n    tag_147:\n        /* \"RPS.sol\":2281:2299  (p1Choice + 3) % 5 */\n      tag_148\n      swap2\n      swap1\n      tag_145\n      jump\t// in\n    tag_148:\n        /* \"RPS.sol\":2281:2311  (p1Choice + 3) % 5 == p0Choice */\n      eq\n        /* \"RPS.sol\":2247:2311  (p1Choice + 1) % 5 == p0Choice || (p1Choice + 3) % 5 == p0Choice */\n    tag_146:\n        /* \"RPS.sol\":2243:2477  if ((p1Choice + 1) % 5 == p0Choice || (p1Choice + 3) % 5 == p0Choice) {... */\n      iszero\n      tag_149\n      jumpi\n        /* \"RPS.sol\":2328:2336  account0 */\n      dup2\n        /* \"RPS.sol\":2328:2345  account0.transfer */\n      0xffffffffffffffffffffffffffffffffffffffff\n      and\n        /* \"RPS.sol\":2328:2353  account0.transfer(reward) */\n      0x08fc\n        /* \"RPS.sol\":2346:2352  reward */\n      sload(0x01)\n        /* \"RPS.sol\":2328:2353  account0.transfer(reward) */\n      swap1\n      dup2\n      iszero\n      mul\n      swap1\n      mload(0x40)\n      0x00\n      mload(0x40)\n      dup1\n      dup4\n      sub\n      dup2\n      dup6\n      dup9\n      dup9\n      call\n      swap4\n      pop\n      pop\n      pop\n      pop\n      iszero\n      dup1\n      iszero\n      tag_151\n      jumpi\n      returndatasize\n      0x00\n      dup1\n      returndatacopy\n      revert(0x00, returndatasize)\n    tag_151:\n      pop\n        /* \"RPS.sol\":2243:2477  if ((p1Choice + 1) % 5 == p0Choice || (p1Choice + 3) % 5 == p0Choice) {... */\n      jump(tag_152)\n    tag_149:\n        /* \"RPS.sol\":2418:2426  account1 */\n      dup1\n        /* \"RPS.sol\":2418:2435  account1.transfer */\n      0xffffffffffffffffffffffffffffffffffffffff\n      and\n        /* \"RPS.sol\":2418:2443  account1.transfer(reward) */\n      0x08fc\n        /* \"RPS.sol\":2436:2442  reward */\n      sload(0x01)\n        /* \"RPS.sol\":2418:2443  account1.transfer(reward) */\n      swap1\n      dup2\n      iszero\n      mul\n      swap1\n      mload(0x40)\n      0x00\n      mload(0x40)\n      dup1\n      dup4\n      sub\n      dup2\n      dup6\n      dup9\n      dup9\n      call\n      swap4\n      pop\n      pop\n      pop\n      pop\n      iszero\n      dup1\n      iszero\n      tag_154\n      jumpi\n      returndatasize\n      0x00\n      dup1\n      returndatacopy\n      revert(0x00, returndatasize)\n    tag_154:\n      pop\n        /* \"RPS.sol\":2243:2477  if ((p1Choice + 1) % 5 == p0Choice || (p1Choice + 3) % 5 == p0Choice) {... */\n    tag_152:\n        /* \"RPS.sol\":2102:2477  if (p0Choice == p1Choice) {... */\n    tag_142:\n        /* \"RPS.sol\":2496:2497  0 */\n      0x00\n        /* \"RPS.sol\":2487:2493  reward */\n      0x01\n        /* \"RPS.sol\":2487:2497  reward = 0 */\n      dup2\n      swap1\n      sstore\n      pop\n        /* \"RPS.sol\":1873:2505  {... */\n      pop\n      pop\n      pop\n      pop\n        /* \"RPS.sol\":1835:2505  function _checkWinnerAndPay() private {... */\n      jump\t// out\n        /* \"#utility.yul\":7:84   */\n    tag_155:\n        /* \"#utility.yul\":44:51   */\n      0x00\n        /* \"#utility.yul\":73:78   */\n      dup2\n        /* \"#utility.yul\":62:78   */\n      swap1\n      pop\n        /* \"#utility.yul\":7:84   */\n      swap2\n      swap1\n      pop\n      jump\t// out\n        /* \"#utility.yul\":90:208   */\n    tag_156:\n        /* \"#utility.yul\":177:201   */\n      tag_180\n        /* \"#utility.yul\":195:200   */\n      dup2\n        /* \"#utility.yul\":177:201   */\n      tag_155\n      jump\t// in\n    tag_180:\n        /* \"#utility.yul\":172:175   */\n      dup3\n        /* \"#utility.yul\":165:202   */\n      mstore\n        /* \"#utility.yul\":90:208   */\n      pop\n      pop\n      jump\t// out\n        /* \"#utility.yul\":214:436   */\n    tag_19:\n        /* \"#utility.yul\":307:311   */\n      0x00\n        /* \"#utility.yul\":345:347   */\n      0x20\n        /* \"#utility.yul\":334:343   */\n      dup3\n        /* \"#utility.yul\":330:348   */\n      add\n        /* \"#utility.yul\":322:348   */\n      swap1\n      pop\n        /* \"#utility.yul\":358:429   */\n      tag_182\n        /* \"#utility.yul\":426:427   */\n      0x00\n        /* \"#utility.yul\":415:424   */\n      dup4\n        /* \"#utility.yul\":411:428   */\n      add\n        /* \"#utility.yul\":402:408   */\n      dup5\n        /* \"#utility.yul\":358:429   */\n      tag_156\n      jump\t// in\n    tag_182:\n        /* \"#utility.yul\":214:436   */\n      swap3\n      swap2\n      pop\n      pop\n      jump\t// out\n        /* \"#utility.yul\":523:640   */\n    tag_158:\n        /* \"#utility.yul\":632:633   */\n      0x00\n        /* \"#utility.yul\":629:630   */\n      dup1\n        /* \"#utility.yul\":622:634   */\n      revert\n        /* \"#utility.yul\":769:895   */\n    tag_160:\n        /* \"#utility.yul\":806:813   */\n      0x00\n        /* \"#utility.yul\":846:888   */\n      0xffffffffffffffffffffffffffffffffffffffff\n        /* \"#utility.yul\":839:844   */\n      dup3\n        /* \"#utility.yul\":835:889   */\n      and\n        /* \"#utility.yul\":824:889   */\n      swap1\n      pop\n        /* \"#utility.yul\":769:895   */\n      swap2\n      swap1\n      pop\n      jump\t// out\n        /* \"#utility.yul\":901:997   */\n    tag_161:\n        /* \"#utility.yul\":938:945   */\n      0x00\n        /* \"#utility.yul\":967:991   */\n      tag_188\n        /* \"#utility.yul\":985:990   */\n      dup3\n        /* \"#utility.yul\":967:991   */\n      tag_160\n      jump\t// in\n    tag_188:\n        /* \"#utility.yul\":956:991   */\n      swap1\n      pop\n        /* \"#utility.yul\":901:997   */\n      swap2\n      swap1\n      pop\n      jump\t// out\n        /* \"#utility.yul\":1003:1125   */\n    tag_162:\n        /* \"#utility.yul\":1076:1100   */\n      tag_190\n        /* \"#utility.yul\":1094:1099   */\n      dup2\n        /* \"#utility.yul\":1076:1100   */\n      tag_161\n      jump\t// in\n    tag_190:\n        /* \"#utility.yul\":1069:1074   */\n      dup2\n        /* \"#utility.yul\":1066:1101   */\n      eq\n        /* \"#utility.yul\":1056:1119   */\n      tag_191\n      jumpi\n        /* \"#utility.yul\":1115:1116   */\n      0x00\n        /* \"#utility.yul\":1112:1113   */\n      dup1\n        /* \"#utility.yul\":1105:1117   */\n      revert\n        /* \"#utility.yul\":1056:1119   */\n    tag_191:\n        /* \"#utility.yul\":1003:1125   */\n      pop\n      jump\t// out\n        /* \"#utility.yul\":1131:1270   */\n    tag_163:\n        /* \"#utility.yul\":1177:1182   */\n      0x00\n        /* \"#utility.yul\":1215:1221   */\n      dup2\n        /* \"#utility.yul\":1202:1222   */\n      calldataload\n        /* \"#utility.yul\":1193:1222   */\n      swap1\n      pop\n        /* \"#utility.yul\":1231:1264   */\n      tag_193\n        /* \"#utility.yul\":1258:1263   */\n      dup2\n        /* \"#utility.yul\":1231:1264   */\n      tag_162\n      jump\t// in\n    tag_193:\n        /* \"#utility.yul\":1131:1270   */\n      swap3\n      swap2\n      pop\n      pop\n      jump\t// out\n        /* \"#utility.yul\":1276:1605   */\n    tag_23:\n        /* \"#utility.yul\":1335:1341   */\n      0x00\n        /* \"#utility.yul\":1384:1386   */\n      0x20\n        /* \"#utility.yul\":1372:1381   */\n      dup3\n        /* \"#utility.yul\":1363:1370   */\n      dup5\n        /* \"#utility.yul\":1359:1382   */\n      sub\n        /* \"#utility.yul\":1355:1387   */\n      slt\n        /* \"#utility.yul\":1352:1471   */\n      iszero\n      tag_195\n      jumpi\n        /* \"#utility.yul\":1390:1469   */\n      tag_196\n      tag_158\n      jump\t// in\n    tag_196:\n        /* \"#utility.yul\":1352:1471   */\n    tag_195:\n        /* \"#utility.yul\":1510:1511   */\n      0x00\n        /* \"#utility.yul\":1535:1588   */\n      tag_197\n        /* \"#utility.yul\":1580:1587   */\n      dup5\n        /* \"#utility.yul\":1571:1577   */\n      dup3\n        /* \"#utility.yul\":1560:1569   */\n      dup6\n        /* \"#utility.yul\":1556:1578   */\n      add\n        /* \"#utility.yul\":1535:1588   */\n      tag_163\n      jump\t// in\n    tag_197:\n        /* \"#utility.yul\":1525:1588   */\n      swap2\n      pop\n        /* \"#utility.yul\":1481:1598   */\n      pop\n        /* \"#utility.yul\":1276:1605   */\n      swap3\n      swap2\n      pop\n      pop\n      jump\t// out\n        /* \"#utility.yul\":1611:1701   */\n    tag_164:\n        /* \"#utility.yul\":1645:1652   */\n      0x00\n        /* \"#utility.yul\":1688:1693   */\n      dup2\n        /* \"#utility.yul\":1681:1694   */\n      iszero\n        /* \"#utility.yul\":1674:1695   */\n      iszero\n        /* \"#utility.yul\":1663:1695   */\n      swap1\n      pop\n        /* \"#utility.yul\":1611:1701   */\n      swap2\n      swap1\n      pop\n      jump\t// out\n        /* \"#utility.yul\":1707:1816   */\n    tag_165:\n        /* \"#utility.yul\":1788:1809   */\n      tag_200\n        /* \"#utility.yul\":1803:1808   */\n      dup2\n        /* \"#utility.yul\":1788:1809   */\n      tag_164\n      jump\t// in\n    tag_200:\n        /* \"#utility.yul\":1783:1786   */\n      dup3\n        /* \"#utility.yul\":1776:1810   */\n      mstore\n        /* \"#utility.yul\":1707:1816   */\n      pop\n      pop\n      jump\t// out\n        /* \"#utility.yul\":1822:2032   */\n    tag_26:\n        /* \"#utility.yul\":1909:1913   */\n      0x00\n        /* \"#utility.yul\":1947:1949   */\n      0x20\n        /* \"#utility.yul\":1936:1945   */\n      dup3\n        /* \"#utility.yul\":1932:1950   */\n      add\n        /* \"#utility.yul\":1924:1950   */\n      swap1\n      pop\n        /* \"#utility.yul\":1960:2025   */\n      tag_202\n        /* \"#utility.yul\":2022:2023   */\n      0x00\n        /* \"#utility.yul\":2011:2020   */\n      dup4\n        /* \"#utility.yul\":2007:2024   */\n      add\n        /* \"#utility.yul\":1998:2004   */\n      dup5\n        /* \"#utility.yul\":1960:2025   */\n      tag_165\n      jump\t// in\n    tag_202:\n        /* \"#utility.yul\":1822:2032   */\n      swap3\n      swap2\n      pop\n      pop\n      jump\t// out\n        /* \"#utility.yul\":2038:2098   */\n    tag_166:\n        /* \"#utility.yul\":2066:2069   */\n      0x00\n        /* \"#utility.yul\":2087:2092   */\n      dup2\n        /* \"#utility.yul\":2080:2092   */\n      swap1\n      pop\n        /* \"#utility.yul\":2038:2098   */\n      swap2\n      swap1\n      pop\n      jump\t// out\n        /* \"#utility.yul\":2104:2246   */\n    tag_167:\n        /* \"#utility.yul\":2154:2163   */\n      0x00\n        /* \"#utility.yul\":2187:2240   */\n      tag_205\n        /* \"#utility.yul\":2205:2239   */\n      tag_206\n        /* \"#utility.yul\":2214:2238   */\n      tag_207\n        /* \"#utility.yul\":2232:2237   */\n      dup5\n        /* \"#utility.yul\":2214:2238   */\n      tag_160\n      jump\t// in\n    tag_207:\n        /* \"#utility.yul\":2205:2239   */\n      tag_166\n      jump\t// in\n    tag_206:\n        /* \"#utility.yul\":2187:2240   */\n      tag_160\n      jump\t// in\n    tag_205:\n        /* \"#utility.yul\":2174:2240   */\n      swap1\n      pop\n        /* \"#utility.yul\":2104:2246   */\n      swap2\n      swap1\n      pop\n      jump\t// out\n        /* \"#utility.yul\":2252:2378   */\n    tag_168:\n        /* \"#utility.yul\":2302:2311   */\n      0x00\n        /* \"#utility.yul\":2335:2372   */\n      tag_209\n        /* \"#utility.yul\":2366:2371   */\n      dup3\n        /* \"#utility.yul\":2335:2372   */\n      tag_167\n      jump\t// in\n    tag_209:\n        /* \"#utility.yul\":2322:2372   */\n      swap1\n      pop\n        /* \"#utility.yul\":2252:2378   */\n      swap2\n      swap1\n      pop\n      jump\t// out\n        /* \"#utility.yul\":2384:2526   */\n    tag_169:\n        /* \"#utility.yul\":2450:2459   */\n      0x00\n        /* \"#utility.yul\":2483:2520   */\n      tag_211\n        /* \"#utility.yul\":2514:2519   */\n      dup3\n        /* \"#utility.yul\":2483:2520   */\n      tag_168\n      jump\t// in\n    tag_211:\n        /* \"#utility.yul\":2470:2520   */\n      swap1\n      pop\n        /* \"#utility.yul\":2384:2526   */\n      swap2\n      swap1\n      pop\n      jump\t// out\n        /* \"#utility.yul\":2532:2695   */\n    tag_170:\n        /* \"#utility.yul\":2635:2688   */\n      tag_213\n        /* \"#utility.yul\":2682:2687   */\n      dup2\n        /* \"#utility.yul\":2635:2688   */\n      tag_169\n      jump\t// in\n    tag_213:\n        /* \"#utility.yul\":2630:2633   */\n      dup3\n        /* \"#utility.yul\":2623:2689   */\n      mstore\n        /* \"#utility.yul\":2532:2695   */\n      pop\n      pop\n      jump\t// out\n        /* \"#utility.yul\":2701:2955   */\n    tag_37:\n        /* \"#utility.yul\":2810:2814   */\n      0x00\n        /* \"#utility.yul\":2848:2850   */\n      0x20\n        /* \"#utility.yul\":2837:2846   */\n      dup3\n        /* \"#utility.yul\":2833:2851   */\n      add\n        /* \"#utility.yul\":2825:2851   */\n      swap1\n      pop\n        /* \"#utility.yul\":2861:2948   */\n      tag_215\n        /* \"#utility.yul\":2945:2946   */\n      0x00\n        /* \"#utility.yul\":2934:2943   */\n      dup4\n        /* \"#utility.yul\":2930:2947   */\n      add\n        /* \"#utility.yul\":2921:2927   */\n      dup5\n        /* \"#utility.yul\":2861:2948   */\n      tag_170\n      jump\t// in\n    tag_215:\n        /* \"#utility.yul\":2701:2955   */\n      swap3\n      swap2\n      pop\n      pop\n      jump\t// out\n        /* \"#utility.yul\":2961:3083   */\n    tag_171:\n        /* \"#utility.yul\":3034:3058   */\n      tag_217\n        /* \"#utility.yul\":3052:3057   */\n      dup2\n        /* \"#utility.yul\":3034:3058   */\n      tag_155\n      jump\t// in\n    tag_217:\n        /* \"#utility.yul\":3027:3032   */\n      dup2\n        /* \"#utility.yul\":3024:3059   */\n      eq\n        /* \"#utility.yul\":3014:3077   */\n      tag_218\n      jumpi\n        /* \"#utility.yul\":3073:3074   */\n      0x00\n        /* \"#utility.yul\":3070:3071   */\n      dup1\n        /* \"#utility.yul\":3063:3075   */\n      revert\n        /* \"#utility.yul\":3014:3077   */\n    tag_218:\n        /* \"#utility.yul\":2961:3083   */\n      pop\n      jump\t// out\n        /* \"#utility.yul\":3089:3228   */\n    tag_172:\n        /* \"#utility.yul\":3135:3140   */\n      0x00\n        /* \"#utility.yul\":3173:3179   */\n      dup2\n        /* \"#utility.yul\":3160:3180   */\n      calldataload\n        /* \"#utility.yul\":3151:3180   */\n      swap1\n      pop\n        /* \"#utility.yul\":3189:3222   */\n      tag_220\n        /* \"#utility.yul\":3216:3221   */\n      dup2\n        /* \"#utility.yul\":3189:3222   */\n      tag_171\n      jump\t// in\n    tag_220:\n        /* \"#utility.yul\":3089:3228   */\n      swap3\n      swap2\n      pop\n      pop\n      jump\t// out\n        /* \"#utility.yul\":3234:3563   */\n    tag_61:\n        /* \"#utility.yul\":3293:3299   */\n      0x00\n        /* \"#utility.yul\":3342:3344   */\n      0x20\n        /* \"#utility.yul\":3330:3339   */\n      dup3\n        /* \"#utility.yul\":3321:3328   */\n      dup5\n        /* \"#utility.yul\":3317:3340   */\n      sub\n        /* \"#utility.yul\":3313:3345   */\n      slt\n        /* \"#utility.yul\":3310:3429   */\n      iszero\n      tag_222\n      jumpi\n        /* \"#utility.yul\":3348:3427   */\n      tag_223\n      tag_158\n      jump\t// in\n    tag_223:\n        /* \"#utility.yul\":3310:3429   */\n    tag_222:\n        /* \"#utility.yul\":3468:3469   */\n      0x00\n        /* \"#utility.yul\":3493:3546   */\n      tag_224\n        /* \"#utility.yul\":3538:3545   */\n      dup5\n        /* \"#utility.yul\":3529:3535   */\n      dup3\n        /* \"#utility.yul\":3518:3527   */\n      dup6\n        /* \"#utility.yul\":3514:3536   */\n      add\n        /* \"#utility.yul\":3493:3546   */\n      tag_172\n      jump\t// in\n    tag_224:\n        /* \"#utility.yul\":3483:3546   */\n      swap2\n      pop\n        /* \"#utility.yul\":3439:3556   */\n      pop\n        /* \"#utility.yul\":3234:3563   */\n      swap3\n      swap2\n      pop\n      pop\n      jump\t// out\n        /* \"#utility.yul\":3569:3687   */\n    tag_173:\n        /* \"#utility.yul\":3656:3680   */\n      tag_226\n        /* \"#utility.yul\":3674:3679   */\n      dup2\n        /* \"#utility.yul\":3656:3680   */\n      tag_161\n      jump\t// in\n    tag_226:\n        /* \"#utility.yul\":3651:3654   */\n      dup3\n        /* \"#utility.yul\":3644:3681   */\n      mstore\n        /* \"#utility.yul\":3569:3687   */\n      pop\n      pop\n      jump\t// out\n        /* \"#utility.yul\":3693:3915   */\n    tag_68:\n        /* \"#utility.yul\":3786:3790   */\n      0x00\n        /* \"#utility.yul\":3824:3826   */\n      0x20\n        /* \"#utility.yul\":3813:3822   */\n      dup3\n        /* \"#utility.yul\":3809:3827   */\n      add\n        /* \"#utility.yul\":3801:3827   */\n      swap1\n      pop\n        /* \"#utility.yul\":3837:3908   */\n      tag_228\n        /* \"#utility.yul\":3905:3906   */\n      0x00\n        /* \"#utility.yul\":3894:3903   */\n      dup4\n        /* \"#utility.yul\":3890:3907   */\n      add\n        /* \"#utility.yul\":3881:3887   */\n      dup5\n        /* \"#utility.yul\":3837:3908   */\n      tag_173\n      jump\t// in\n    tag_228:\n        /* \"#utility.yul\":3693:3915   */\n      swap3\n      swap2\n      pop\n      pop\n      jump\t// out\n        /* \"#utility.yul\":3921:4101   */\n    tag_174:\n        /* \"#utility.yul\":3969:4046   */\n      0x4e487b7100000000000000000000000000000000000000000000000000000000\n        /* \"#utility.yul\":3966:3967   */\n      0x00\n        /* \"#utility.yul\":3959:4047   */\n      mstore\n        /* \"#utility.yul\":4066:4070   */\n      0x11\n        /* \"#utility.yul\":4063:4064   */\n      0x04\n        /* \"#utility.yul\":4056:4071   */\n      mstore\n        /* \"#utility.yul\":4090:4094   */\n      0x24\n        /* \"#utility.yul\":4087:4088   */\n      0x00\n        /* \"#utility.yul\":4080:4095   */\n      revert\n        /* \"#utility.yul\":4107:4298   */\n    tag_75:\n        /* \"#utility.yul\":4147:4150   */\n      0x00\n        /* \"#utility.yul\":4166:4186   */\n      tag_231\n        /* \"#utility.yul\":4184:4185   */\n      dup3\n        /* \"#utility.yul\":4166:4186   */\n      tag_155\n      jump\t// in\n    tag_231:\n        /* \"#utility.yul\":4161:4186   */\n      swap2\n      pop\n        /* \"#utility.yul\":4200:4220   */\n      tag_232\n        /* \"#utility.yul\":4218:4219   */\n      dup4\n        /* \"#utility.yul\":4200:4220   */\n      tag_155\n      jump\t// in\n    tag_232:\n        /* \"#utility.yul\":4195:4220   */\n      swap3\n      pop\n        /* \"#utility.yul\":4243:4244   */\n      dup3\n        /* \"#utility.yul\":4240:4241   */\n      dup3\n        /* \"#utility.yul\":4236:4245   */\n      add\n        /* \"#utility.yul\":4229:4245   */\n      swap1\n      pop\n        /* \"#utility.yul\":4264:4267   */\n      dup1\n        /* \"#utility.yul\":4261:4262   */\n      dup3\n        /* \"#utility.yul\":4258:4268   */\n      gt\n        /* \"#utility.yul\":4255:4291   */\n      iszero\n      tag_233\n      jumpi\n        /* \"#utility.yul\":4271:4289   */\n      tag_234\n      tag_174\n      jump\t// in\n    tag_234:\n        /* \"#utility.yul\":4255:4291   */\n    tag_233:\n        /* \"#utility.yul\":4107:4298   */\n      swap3\n      swap2\n      pop\n      pop\n      jump\t// out\n        /* \"#utility.yul\":4304:4537   */\n    tag_78:\n        /* \"#utility.yul\":4343:4346   */\n      0x00\n        /* \"#utility.yul\":4366:4390   */\n      tag_236\n        /* \"#utility.yul\":4384:4389   */\n      dup3\n        /* \"#utility.yul\":4366:4390   */\n      tag_155\n      jump\t// in\n    tag_236:\n        /* \"#utility.yul\":4357:4390   */\n      swap2\n      pop\n        /* \"#utility.yul\":4412:4478   */\n      0xffffffffffffffffffffffffffffffffffffffffffffffffffffffffffffffff\n        /* \"#utility.yul\":4405:4410   */\n      dup3\n        /* \"#utility.yul\":4402:4479   */\n      sub\n        /* \"#utility.yul\":4399:4502   */\n      tag_237\n      jumpi\n        /* \"#utility.yul\":4482:4500   */\n      tag_238\n      tag_174\n      jump\t// in\n    tag_238:\n        /* \"#utility.yul\":4399:4502   */\n    tag_237:\n        /* \"#utility.yul\":4529:4530   */\n      0x01\n        /* \"#utility.yul\":4522:4527   */\n      dup3\n        /* \"#utility.yul\":4518:4531   */\n      add\n        /* \"#utility.yul\":4511:4531   */\n      swap1\n      pop\n        /* \"#utility.yul\":4304:4537   */\n      swap2\n      swap1\n      pop\n      jump\t// out\n        /* \"#utility.yul\":4543:4723   */\n    tag_89:\n        /* \"#utility.yul\":4591:4668   */\n      0x4e487b7100000000000000000000000000000000000000000000000000000000\n        /* \"#utility.yul\":4588:4589   */\n      0x00\n        /* \"#utility.yul\":4581:4669   */\n      mstore\n        /* \"#utility.yul\":4688:4692   */\n      0x32\n        /* \"#utility.yul\":4685:4686   */\n      0x04\n        /* \"#utility.yul\":4678:4693   */\n      mstore\n        /* \"#utility.yul\":4712:4716   */\n      0x24\n        /* \"#utility.yul\":4709:4710   */\n      0x00\n        /* \"#utility.yul\":4702:4717   */\n      revert\n        /* \"#utility.yul\":4729:4872   */\n    tag_175:\n        /* \"#utility.yul\":4786:4791   */\n      0x00\n        /* \"#utility.yul\":4817:4823   */\n      dup2\n        /* \"#utility.yul\":4811:4824   */\n      mload\n        /* \"#utility.yul\":4802:4824   */\n      swap1\n      pop\n        /* \"#utility.yul\":4833:4866   */\n      tag_241\n        /* \"#utility.yul\":4860:4865   */\n      dup2\n        /* \"#utility.yul\":4833:4866   */\n      tag_171\n      jump\t// in\n    tag_241:\n        /* \"#utility.yul\":4729:4872   */\n      swap3\n      swap2\n      pop\n      pop\n      jump\t// out\n        /* \"#utility.yul\":4878:5229   */\n    tag_96:\n        /* \"#utility.yul\":4948:4954   */\n      0x00\n        /* \"#utility.yul\":4997:4999   */\n      0x20\n        /* \"#utility.yul\":4985:4994   */\n      dup3\n        /* \"#utility.yul\":4976:4983   */\n      dup5\n        /* \"#utility.yul\":4972:4995   */\n      sub\n        /* \"#utility.yul\":4968:5000   */\n      slt\n        /* \"#utility.yul\":4965:5084   */\n      iszero\n      tag_243\n      jumpi\n        /* \"#utility.yul\":5003:5082   */\n      tag_244\n      tag_158\n      jump\t// in\n    tag_244:\n        /* \"#utility.yul\":4965:5084   */\n    tag_243:\n        /* \"#utility.yul\":5123:5124   */\n      0x00\n        /* \"#utility.yul\":5148:5212   */\n      tag_245\n        /* \"#utility.yul\":5204:5211   */\n      dup5\n        /* \"#utility.yul\":5195:5201   */\n      dup3\n        /* \"#utility.yul\":5184:5193   */\n      dup6\n        /* \"#utility.yul\":5180:5202   */\n      add\n        /* \"#utility.yul\":5148:5212   */\n      tag_175\n      jump\t// in\n    tag_245:\n        /* \"#utility.yul\":5138:5212   */\n      swap2\n      pop\n        /* \"#utility.yul\":5094:5222   */\n      pop\n        /* \"#utility.yul\":4878:5229   */\n      swap3\n      swap2\n      pop\n      pop\n      jump\t// out\n        /* \"#utility.yul\":5235:5415   */\n    tag_176:\n        /* \"#utility.yul\":5283:5360   */\n      0x4e487b7100000000000000000000000000000000000000000000000000000000\n        /* \"#utility.yul\":5280:5281   */\n      0x00\n        /* \"#utility.yul\":5273:5361   */\n      mstore\n        /* \"#utility.yul\":5380:5384   */\n      0x12\n        /* \"#utility.yul\":5377:5378   */\n      0x04\n        /* \"#utility.yul\":5370:5385   */\n      mstore\n        /* \"#utility.yul\":5404:5408   */\n      0x24\n        /* \"#utility.yul\":5401:5402   */\n      0x00\n        /* \"#utility.yul\":5394:5409   */\n      revert\n        /* \"#utility.yul\":5421:5606   */\n    tag_136:\n        /* \"#utility.yul\":5461:5462   */\n      0x00\n        /* \"#utility.yul\":5478:5498   */\n      tag_248\n        /* \"#utility.yul\":5496:5497   */\n      dup3\n        /* \"#utility.yul\":5478:5498   */\n      tag_155\n      jump\t// in\n    tag_248:\n        /* \"#utility.yul\":5473:5498   */\n      swap2\n      pop\n        /* \"#utility.yul\":5512:5532   */\n      tag_249\n        /* \"#utility.yul\":5530:5531   */\n      dup4\n        /* \"#utility.yul\":5512:5532   */\n      tag_155\n      jump\t// in\n    tag_249:\n        /* \"#utility.yul\":5507:5532   */\n      swap3\n      pop\n        /* \"#utility.yul\":5551:5552   */\n      dup3\n        /* \"#utility.yul\":5541:5576   */\n      tag_250\n      jumpi\n        /* \"#utility.yul\":5556:5574   */\n      tag_251\n      tag_176\n      jump\t// in\n    tag_251:\n        /* \"#utility.yul\":5541:5576   */\n    tag_250:\n        /* \"#utility.yul\":5598:5599   */\n      dup3\n        /* \"#utility.yul\":5595:5596   */\n      dup3\n        /* \"#utility.yul\":5591:5600   */\n      div\n        /* \"#utility.yul\":5586:5600   */\n      swap1\n      pop\n        /* \"#utility.yul\":5421:5606   */\n      swap3\n      swap2\n      pop\n      pop\n      jump\t// out\n        /* \"#utility.yul\":5612:5788   */\n    tag_145:\n        /* \"#utility.yul\":5644:5645   */\n      0x00\n        /* \"#utility.yul\":5661:5681   */\n      tag_253\n        /* \"#utility.yul\":5679:5680   */\n      dup3\n        /* \"#utility.yul\":5661:5681   */\n      tag_155\n      jump\t// in\n    tag_253:\n        /* \"#utility.yul\":5656:5681   */\n      swap2\n      pop\n        /* \"#utility.yul\":5695:5715   */\n      tag_254\n        /* \"#utility.yul\":5713:5714   */\n      dup4\n        /* \"#utility.yul\":5695:5715   */\n      tag_155\n      jump\t// in\n    tag_254:\n        /* \"#utility.yul\":5690:5715   */\n      swap3\n      pop\n        /* \"#utility.yul\":5734:5735   */\n      dup3\n        /* \"#utility.yul\":5724:5759   */\n      tag_255\n      jumpi\n        /* \"#utility.yul\":5739:5757   */\n      tag_256\n      tag_176\n      jump\t// in\n    tag_256:\n        /* \"#utility.yul\":5724:5759   */\n    tag_255:\n        /* \"#utility.yul\":5780:5781   */\n      dup3\n        /* \"#utility.yul\":5777:5778   */\n      dup3\n        /* \"#utility.yul\":5773:5782   */\n      mod\n        /* \"#utility.yul\":5768:5782   */\n      swap1\n      pop\n        /* \"#utility.yul\":5612:5788   */\n      swap3\n      swap2\n      pop\n      pop\n      jump\t// out\n\n    auxdata: 0xa2646970667358221220411354834ec2c8e7ece4a64d7a22f3ba01f7e28c908916961d4c9130a7e699b364736f6c634300081a0033\n}\n\nsub_1: assembly {\n        /* \"TimeUnit.sol\":136:1086  contract TimeUnit { ... */\n      mstore(0x40, 0x80)\n      callvalue\n      dup1\n      iszero\n      tag_1\n      jumpi\n      0x00\n      dup1\n      revert\n    tag_1:\n      pop\n      dataSize(sub_0)\n      dup1\n      dataOffset(sub_0)\n      0x00\n      codecopy\n      0x00\n      return\n    stop\n\n    sub_0: assembly {\n            /* \"TimeUnit.sol\":136:1086  contract TimeUnit { ... */\n          mstore(0x40, 0x80)\n          callvalue\n          dup1\n          iszero\n          tag_1\n          jumpi\n          0x00\n          dup1\n          revert\n        tag_1:\n          pop\n          jumpi(tag_2, lt(calldatasize, 0x04))\n          shr(0xe0, calldataload(0x00))\n          dup1\n          0x78e97925\n          eq\n          tag_3\n          jumpi\n          dup1\n          0xa63f7c53\n          eq\n          tag_4\n          jumpi\n          dup1\n          0xbc06b8cd\n          eq\n          tag_5\n          jumpi\n          dup1\n          0xd97c8416\n          eq\n          tag_6\n          jumpi\n        tag_2:\n          0x00\n          dup1\n          revert\n            /* \"TimeUnit.sol\":307:331  uint256 public startTime */\n        tag_3:\n          tag_7\n          tag_8\n          jump\t// in\n        tag_7:\n          mload(0x40)\n          tag_9\n          swap2\n          swap1\n          tag_10\n          jump\t// in\n        tag_9:\n          mload(0x40)\n          dup1\n          swap2\n          sub\n          swap1\n          return\n            /* \"TimeUnit.sol\":379:452  function setStartTime() public { ... */\n        tag_4:\n          tag_11\n          tag_12\n          jump\t// in\n        tag_11:\n          stop\n            /* \"TimeUnit.sol\":576:683  function elapsedSeconds() public view returns (uint256) { ... */\n        tag_5:\n          tag_13\n          tag_14\n          jump\t// in\n        tag_13:\n          mload(0x40)\n          tag_15\n          swap2\n          swap1\n          tag_10\n          jump\t// in\n        tag_15:\n          mload(0x40)\n          dup1\n          swap2\n          sub\n          swap1\n          return\n            /* \"TimeUnit.sol\":799:1082  function elapsedMinutes() public view returns (uint256) { ... */\n        tag_6:\n          tag_16\n          tag_17\n          jump\t// in\n        tag_16:\n          mload(0x40)\n          tag_18\n          swap2\n          swap1\n          tag_10\n          jump\t// in\n        tag_18:\n          mload(0x40)\n          dup1\n          swap2\n          sub\n          swap1\n          return\n            /* \"TimeUnit.sol\":307:331  uint256 public startTime */\n        tag_8:\n          sload(0x00)\n          dup2\n          jump\t// out\n            /* \"TimeUnit.sol\":379:452  function setStartTime() public { ... */\n        tag_12:\n            /* \"TimeUnit.sol\":430:445  block.timestamp */\n          timestamp\n            /* \"TimeUnit.sol\":418:427  startTime */\n          0x00\n            /* \"TimeUnit.sol\":418:445  startTime = block.timestamp */\n          dup2\n          swap1\n          sstore\n          pop\n            /* \"TimeUnit.sol\":379:452  function setStartTime() public { ... */\n          jump\t// out\n            /* \"TimeUnit.sol\":576:683  function elapsedSeconds() public view returns (uint256) { ... */\n        tag_14:\n            /* \"TimeUnit.sol\":623:630  uint256 */\n          0x00\n            /* \"TimeUnit.sol\":666:675  startTime */\n          dup1\n          sload\n            /* \"TimeUnit.sol\":648:663  block.timestamp */\n          timestamp\n            /* \"TimeUnit.sol\":648:675  block.timestamp - startTime */\n          tag_21\n          swap2\n          swap1\n          tag_22\n          jump\t// in\n        tag_21:\n            /* \"TimeUnit.sol\":640:676  return (block.timestamp - startTime) */\n          swap1\n          pop\n            /* \"TimeUnit.sol\":576:683  function elapsedSeconds() public view returns (uint256) { ... */\n          swap1\n          jump\t// out\n            /* \"TimeUnit.sol\":799:1082  function elapsedMinutes() public view returns (uint256) { ... */\n        tag_17:\n            /* \"TimeUnit.sol\":846:853  uint256 */\n          0x00\n            /* \"TimeUnit.sol\":1066:1075  1 minutes */\n          0x3c\n            /* \"TimeUnit.sol\":1053:1062  startTime */\n          sload(0x00)\n            /* \"TimeUnit.sol\":1035:1050  block.timestamp */\n          timestamp\n            /* \"TimeUnit.sol\":1035:1062  block.timestamp - startTime */\n          tag_24\n          swap2\n          swap1\n          tag_22\n          jump\t// in\n        tag_24:\n            /* \"TimeUnit.sol\":1034:1075  (block.timestamp - startTime) / 1 minutes */\n          tag_25\n          swap2\n          swap1\n          tag_26\n          jump\t// in\n        tag_25:\n            /* \"TimeUnit.sol\":1027:1075  return (block.timestamp - startTime) / 1 minutes */\n          swap1\n          pop\n            /* \"TimeUnit.sol\":799:1082  function elapsedMinutes() public view returns (uint256) { ... */\n          swap1\n          jump\t// out\n            /* \"#utility.yul\":7:84   */\n        tag_27:\n            /* \"#utility.yul\":44:51   */\n          0x00\n            /* \"#utility.yul\":73:78   */\n          dup2\n            /* \"#utility.yul\":62:78   */\n          swap1\n          pop\n            /* \"#utility.yul\":7:84   */\n          swap2\n          swap1\n          pop\n          jump\t// out\n            /* \"#utility.yul\":90:208   */\n        tag_28:\n            /* \"#utility.yul\":177:201   */\n          tag_34\n            /* \"#utility.yul\":195:200   */\n          dup2\n            /* \"#utility.yul\":177:201   */\n          tag_27\n          jump\t// in\n        tag_34:\n            /* \"#utility.yul\":172:175   */\n          dup3\n            /* \"#utility.yul\":165:202   */\n          mstore\n            /* \"#utility.yul\":90:208   */\n          pop\n          pop\n          jump\t// out\n            /* \"#utility.yul\":214:436   */\n        tag_10:\n            /* \"#utility.yul\":307:311   */\n          0x00\n            /* \"#utility.yul\":345:347   */\n          0x20\n            /* \"#utility.yul\":334:343   */\n          dup3\n            /* \"#utility.yul\":330:348   */\n          add\n            /* \"#utility.yul\":322:348   */\n          swap1\n          pop\n            /* \"#utility.yul\":358:429   */\n          tag_36\n            /* \"#utility.yul\":426:427   */\n          0x00\n            /* \"#utility.yul\":415:424   */\n          dup4\n            /* \"#utility.yul\":411:428   */\n          add\n            /* \"#utility.yul\":402:408   */\n          dup5\n            /* \"#utility.yul\":358:429   */\n          tag_28\n          jump\t// in\n        tag_36:\n            /* \"#utility.yul\":214:436   */\n          swap3\n          swap2\n          pop\n          pop\n          jump\t// out\n            /* \"#utility.yul\":442:622   */\n        tag_29:\n            /* \"#utility.yul\":490:567   */\n          0x4e487b7100000000000000000000000000000000000000000000000000000000\n            /* \"#utility.yul\":487:488   */\n          0x00\n            /* \"#utility.yul\":480:568   */\n          mstore\n            /* \"#utility.yul\":587:591   */\n          0x11\n            /* \"#utility.yul\":584:585   */\n          0x04\n            /* \"#utility.yul\":577:592   */\n          mstore\n            /* \"#utility.yul\":611:615   */\n          0x24\n            /* \"#utility.yul\":608:609   */\n          0x00\n            /* \"#utility.yul\":601:616   */\n          revert\n            /* \"#utility.yul\":628:822   */\n        tag_22:\n            /* \"#utility.yul\":668:672   */\n          0x00\n            /* \"#utility.yul\":688:708   */\n          tag_39\n            /* \"#utility.yul\":706:707   */\n          dup3\n            /* \"#utility.yul\":688:708   */\n          tag_27\n          jump\t// in\n        tag_39:\n            /* \"#utility.yul\":683:708   */\n          swap2\n          pop\n            /* \"#utility.yul\":722:742   */\n          tag_40\n            /* \"#utility.yul\":740:741   */\n          dup4\n            /* \"#utility.yul\":722:742   */\n          tag_27\n          jump\t// in\n        tag_40:\n            /* \"#utility.yul\":717:742   */\n          swap3\n          pop\n            /* \"#utility.yul\":766:767   */\n          dup3\n            /* \"#utility.yul\":763:764   */\n          dup3\n            /* \"#utility.yul\":759:768   */\n          sub\n            /* \"#utility.yul\":751:768   */\n          swap1\n          pop\n            /* \"#utility.yul\":790:791   */\n          dup2\n            /* \"#utility.yul\":784:788   */\n          dup2\n            /* \"#utility.yul\":781:792   */\n          gt\n            /* \"#utility.yul\":778:815   */\n          iszero\n          tag_41\n          jumpi\n            /* \"#utility.yul\":795:813   */\n          tag_42\n          tag_29\n          jump\t// in\n        tag_42:\n            /* \"#utility.yul\":778:815   */\n        tag_41:\n            /* \"#utility.yul\":628:822   */\n          swap3\n          swap2\n          pop\n          pop\n          jump\t// out\n            /* \"#utility.yul\":828:1008   */\n        tag_30:\n            /* \"#utility.yul\":876:953   */\n          0x4e487b7100000000000000000000000000000000000000000000000000000000\n            /* \"#utility.yul\":873:874   */\n          0x00\n            /* \"#utility.yul\":866:954   */\n          mstore\n            /* \"#utility.yul\":973:977   */\n          0x12\n            /* \"#utility.yul\":970:971   */\n          0x04\n            /* \"#utility.yul\":963:978   */\n          mstore\n            /* \"#utility.yul\":997:1001   */\n          0x24\n            /* \"#utility.yul\":994:995   */\n          0x00\n            /* \"#utility.yul\":987:1002   */\n          revert\n            /* \"#utility.yul\":1014:1199   */\n        tag_26:\n            /* \"#utility.yul\":1054:1055   */\n          0x00\n            /* \"#utility.yul\":1071:1091   */\n          tag_45\n            /* \"#utility.yul\":1089:1090   */\n          dup3\n            /* \"#utility.yul\":1071:1091   */\n          tag_27\n          jump\t// in\n        tag_45:\n            /* \"#utility.yul\":1066:1091   */\n          swap2\n          pop\n            /* \"#utility.yul\":1105:1125   */\n          tag_46\n            /* \"#utility.yul\":1123:1124   */\n          dup4\n            /* \"#utility.yul\":1105:1125   */\n          tag_27\n          jump\t// in\n        tag_46:\n            /* \"#utility.yul\":1100:1125   */\n          swap3\n          pop\n            /* \"#utility.yul\":1144:1145   */\n          dup3\n            /* \"#utility.yul\":1134:1169   */\n          tag_47\n          jumpi\n            /* \"#utility.yul\":1149:1167   */\n          tag_48\n          tag_30\n          jump\t// in\n        tag_48:\n            /* \"#utility.yul\":1134:1169   */\n        tag_47:\n            /* \"#utility.yul\":1191:1192   */\n          dup3\n            /* \"#utility.yul\":1188:1189   */\n          dup3\n            /* \"#utility.yul\":1184:1193   */\n          div\n            /* \"#utility.yul\":1179:1193   */\n          swap1\n          pop\n            /* \"#utility.yul\":1014:1199   */\n          swap3\n          swap2\n          pop\n          pop\n          jump\t// out\n\n        auxdata: 0xa2646970667358221220aac731c651a41091e78c4c68ca2cde2e708ec23868c1bbf8979319bbf0b1f7c164736f6c634300081a0033\n    }\n}\n",
				"bytecode": {
					"linkReferences": {},
					"object": "60806040525f80555f6001555f60055560405161001b906101bc565b604051809103905ff080158015610034573d5f803e3d5ffd5b5060065f6101000a81548173ffffffffffffffffffffffffffffffffffffffff021916908373ffffffffffffffffffffffffffffffffffffffff16021790555060016007556040518060800160405280735b38da6a701c568545dcfcb03fcb875f56beddc473ffffffffffffffffffffffffffffffffffffffff1673ffffffffffffffffffffffffffffffffffffffff16815260200173ab8483f64d9c6d1ecf9b849ae677dd3315835cb273ffffffffffffffffffffffffffffffffffffffff1673ffffffffffffffffffffffffffffffffffffffff168152602001734b20993bc481177ec7e8f571cecae8a9e22c02db73ffffffffffffffffffffffffffffffffffffffff1673ffffffffffffffffffffffffffffffffffffffff1681526020017378731d3ca6b7e34ac0f824c42a7cc18a495cabab73ffffffffffffffffffffffffffffffffffffffff1673ffffffffffffffffffffffffffffffffffffffff1681525060089060046101aa9291906101c9565b503480156101b6575f80fd5b50610260565b610231806111c483390190565b8260048101928215610234579160200282015b82811115610233578251825f6101000a81548173ffffffffffffffffffffffffffffffffffffffff021916908373ffffffffffffffffffffffffffffffffffffffff160217905550916020019190600101906101dc565b5b5090506102419190610245565b5090565b5b8082111561025c575f815f905550600101610246565b5090565b610f578061026d5f395ff3fe6080604052600436106100a6575f3560e01c806390d5d0c31161006357806390d5d0c314610198578063a040478d146101c2578063ad4e0407146101fe578063b778650314610228578063ce6e1c4e1461023e578063f71d96cb14610266576100a6565b8063086f7815146100aa578063190cf745146100d4578063228cb7331461011057806327b5db8a1461013a5780633c6a7f9b14610144578063614d85e11461016e575b5f80fd5b3480156100b5575f80fd5b506100be6102a2565b6040516100cb9190610bbb565b60405180910390f35b3480156100df575f80fd5b506100fa60048036038101906100f59190610c32565b6102a8565b6040516101079190610c77565b60405180910390f35b34801561011b575f80fd5b506101246102c5565b6040516101319190610bbb565b60405180910390f35b6101426102cb565b005b34801561014f575f80fd5b50610158610466565b6040516101659190610ceb565b60405180910390f35b348015610179575f80fd5b5061018261048b565b60405161018f9190610bbb565b60405180910390f35b3480156101a3575f80fd5b506101ac610491565b6040516101b99190610bbb565b60405180910390f35b3480156101cd575f80fd5b506101e860048036038101906101e39190610c32565b610496565b6040516101f59190610bbb565b60405180910390f35b348015610209575f80fd5b506102126104ab565b60405161021f9190610c77565b60405180910390f35b348015610233575f80fd5b5061023c610540565b005b348015610249575f80fd5b50610264600480360381019061025f9190610d2e565b610716565b005b348015610271575f80fd5b5061028c60048036038101906102879190610d2e565b61085e565b6040516102999190610d68565b60405180910390f35b60055481565b6003602052805f5260405f205f915054906101000a900460ff1681565b60015481565b60025f54106102d8575f80fd5b6102e06104ab565b6102e8575f80fd5b670de0b6b3a764000034146102fb575f80fd5b3460015f82825461030c9190610dae565b92505081905550600160035f3373ffffffffffffffffffffffffffffffffffffffff1673ffffffffffffffffffffffffffffffffffffffff1681526020019081526020015f205f6101000a81548160ff021916908315150217905550600433908060018154018082558091505060019003905f5260205f20015f9091909190916101000a81548173ffffffffffffffffffffffffffffffffffffffff021916908373ffffffffffffffffffffffffffffffffffffffff1602179055505f808154809291906103d990610de1565b919050555060015f54036104645760065f9054906101000a900473ffffffffffffffffffffffffffffffffffffffff1673ffffffffffffffffffffffffffffffffffffffff1663a63f7c536040518163ffffffff1660e01b81526004015f604051808303815f87803b15801561044d575f80fd5b505af115801561045f573d5f803e3d5ffd5b505050505b565b60065f9054906101000a900473ffffffffffffffffffffffffffffffffffffffff1681565b60075481565b5f5481565b6002602052805f5260405f205f915090505481565b5f805f90505b600481101561053857600881600481106104ce576104cd610e28565b5b015f9054906101000a900473ffffffffffffffffffffffffffffffffffffffff1673ffffffffffffffffffffffffffffffffffffffff163373ffffffffffffffffffffffffffffffffffffffff160361052b57600191505061053d565b80806001019150506104b1565b505f90505b90565b60075460065f9054906101000a900473ffffffffffffffffffffffffffffffffffffffff1673ffffffffffffffffffffffffffffffffffffffff1663d97c84166040518163ffffffff1660e01b8152600401602060405180830381865afa1580156105ad573d5f803e3d5ffd5b505050506040513d601f19601f820116820180604052508101906105d19190610e69565b03610714575f5b60028110156107125760035f600483815481106105f8576105f7610e28565b5b905f5260205f20015f9054906101000a900473ffffffffffffffffffffffffffffffffffffffff1673ffffffffffffffffffffffffffffffffffffffff1673ffffffffffffffffffffffffffffffffffffffff1681526020019081526020015f205f9054906101000a900460ff16610705575f6004828154811061067f5761067e610e28565b5b905f5260205f20015f9054906101000a900473ffffffffffffffffffffffffffffffffffffffff1690508073ffffffffffffffffffffffffffffffffffffffff166108fc60015490811502906040515f60405180830381858888f193505050501580156106ee573d5f803e3d5ffd5b505f6005819055505f80819055505f600181905550505b80806001019150506105d8565b505b565b60025f5414610723575f80fd5b60035f3373ffffffffffffffffffffffffffffffffffffffff1673ffffffffffffffffffffffffffffffffffffffff1681526020019081526020015f205f9054906101000a900460ff16610775575f80fd5b5f8110158015610786575060048111155b61078e575f80fd5b8060025f3373ffffffffffffffffffffffffffffffffffffffff1673ffffffffffffffffffffffffffffffffffffffff1681526020019081526020015f20819055505f60035f3373ffffffffffffffffffffffffffffffffffffffff1673ffffffffffffffffffffffffffffffffffffffff1681526020019081526020015f205f6101000a81548160ff02191690831515021790555060055f81548092919061083690610de1565b919050555060026005540361085b575f6005819055505f808190555061085a610899565b5b50565b6004818154811061086d575f80fd5b905f5260205f20015f915054906101000a900473ffffffffffffffffffffffffffffffffffffffff1681565b5f60025f60045f815481106108b1576108b0610e28565b5b905f5260205f20015f9054906101000a900473ffffffffffffffffffffffffffffffffffffffff1673ffffffffffffffffffffffffffffffffffffffff1673ffffffffffffffffffffffffffffffffffffffff1681526020019081526020015f205490505f60025f600460018154811061092e5761092d610e28565b5b905f5260205f20015f9054906101000a900473ffffffffffffffffffffffffffffffffffffffff1673ffffffffffffffffffffffffffffffffffffffff1673ffffffffffffffffffffffffffffffffffffffff1681526020019081526020015f205490505f60045f815481106109a7576109a6610e28565b5b905f5260205f20015f9054906101000a900473ffffffffffffffffffffffffffffffffffffffff1690505f60046001815481106109e7576109e6610e28565b5b905f5260205f20015f9054906101000a900473ffffffffffffffffffffffffffffffffffffffff169050828403610ac1578173ffffffffffffffffffffffffffffffffffffffff166108fc6002600154610a419190610ec1565b90811502906040515f60405180830381858888f19350505050158015610a69573d5f803e3d5ffd5b508073ffffffffffffffffffffffffffffffffffffffff166108fc6002600154610a939190610ec1565b90811502906040515f60405180830381858888f19350505050158015610abb573d5f803e3d5ffd5b50610b96565b836005600185610ad19190610dae565b610adb9190610ef1565b1480610afe5750836005600385610af29190610dae565b610afc9190610ef1565b145b15610b4e578173ffffffffffffffffffffffffffffffffffffffff166108fc60015490811502906040515f60405180830381858888f19350505050158015610b48573d5f803e3d5ffd5b50610b95565b8073ffffffffffffffffffffffffffffffffffffffff166108fc60015490811502906040515f60405180830381858888f19350505050158015610b93573d5f803e3d5ffd5b505b5b5f60018190555050505050565b5f819050919050565b610bb581610ba3565b82525050565b5f602082019050610bce5f830184610bac565b92915050565b5f80fd5b5f73ffffffffffffffffffffffffffffffffffffffff82169050919050565b5f610c0182610bd8565b9050919050565b610c1181610bf7565b8114610c1b575f80fd5b50565b5f81359050610c2c81610c08565b92915050565b5f60208284031215610c4757610c46610bd4565b5b5f610c5484828501610c1e565b91505092915050565b5f8115159050919050565b610c7181610c5d565b82525050565b5f602082019050610c8a5f830184610c68565b92915050565b5f819050919050565b5f610cb3610cae610ca984610bd8565b610c90565b610bd8565b9050919050565b5f610cc482610c99565b9050919050565b5f610cd582610cba565b9050919050565b610ce581610ccb565b82525050565b5f602082019050610cfe5f830184610cdc565b92915050565b610d0d81610ba3565b8114610d17575f80fd5b50565b5f81359050610d2881610d04565b92915050565b5f60208284031215610d4357610d42610bd4565b5b5f610d5084828501610d1a565b91505092915050565b610d6281610bf7565b82525050565b5f602082019050610d7b5f830184610d59565b92915050565b7f4e487b71000000000000000000000000000000000000000000000000000000005f52601160045260245ffd5b5f610db882610ba3565b9150610dc383610ba3565b9250828201905080821115610ddb57610dda610d81565b5b92915050565b5f610deb82610ba3565b91507fffffffffffffffffffffffffffffffffffffffffffffffffffffffffffffffff8203610e1d57610e1c610d81565b5b600182019050919050565b7f4e487b71000000000000000000000000000000000000000000000000000000005f52603260045260245ffd5b5f81519050610e6381610d04565b92915050565b5f60208284031215610e7e57610e7d610bd4565b5b5f610e8b84828501610e55565b91505092915050565b7f4e487b71000000000000000000000000000000000000000000000000000000005f52601260045260245ffd5b5f610ecb82610ba3565b9150610ed683610ba3565b925082610ee657610ee5610e94565b5b828204905092915050565b5f610efb82610ba3565b9150610f0683610ba3565b925082610f1657610f15610e94565b5b82820690509291505056fea2646970667358221220411354834ec2c8e7ece4a64d7a22f3ba01f7e28c908916961d4c9130a7e699b364736f6c634300081a00336080604052348015600e575f80fd5b506102158061001c5f395ff3fe608060405234801561000f575f80fd5b506004361061004a575f3560e01c806378e979251461004e578063a63f7c531461006c578063bc06b8cd14610076578063d97c841614610094575b5f80fd5b6100566100b2565b6040516100639190610109565b60405180910390f35b6100746100b7565b005b61007e6100bf565b60405161008b9190610109565b60405180910390f35b61009c6100d2565b6040516100a99190610109565b60405180910390f35b5f5481565b425f81905550565b5f8054426100cd919061014f565b905090565b5f603c5f54426100e2919061014f565b6100ec91906101af565b905090565b5f819050919050565b610103816100f1565b82525050565b5f60208201905061011c5f8301846100fa565b92915050565b7f4e487b71000000000000000000000000000000000000000000000000000000005f52601160045260245ffd5b5f610159826100f1565b9150610164836100f1565b925082820390508181111561017c5761017b610122565b5b92915050565b7f4e487b71000000000000000000000000000000000000000000000000000000005f52601260045260245ffd5b5f6101b9826100f1565b91506101c4836100f1565b9250826101d4576101d3610182565b5b82820490509291505056fea2646970667358221220aac731c651a41091e78c4c68ca2cde2e708ec23868c1bbf8979319bbf0b1f7c164736f6c634300081a0033",
					"opcodes": "PUSH1 0x80 PUSH1 0x40 MSTORE PUSH0 DUP1 SSTORE PUSH0 PUSH1 0x1 SSTORE PUSH0 PUSH1 0x5 SSTORE PUSH1 0x40 MLOAD PUSH2 0x1B SWAP1 PUSH2 0x1BC JUMP JUMPDEST PUSH1 0x40 MLOAD DUP1 SWAP2 SUB SWAP1 PUSH0 CREATE DUP1 ISZERO DUP1 ISZERO PUSH2 0x34 JUMPI RETURNDATASIZE PUSH0 DUP1 RETURNDATACOPY RETURNDATASIZE PUSH0 REVERT JUMPDEST POP PUSH1 0x6 PUSH0 PUSH2 0x100 EXP DUP2 SLOAD DUP2 PUSH20 0xFFFFFFFFFFFFFFFFFFFFFFFFFFFFFFFFFFFFFFFF MUL NOT AND SWAP1 DUP4 PUSH20 0xFFFFFFFFFFFFFFFFFFFFFFFFFFFFFFFFFFFFFFFF AND MUL OR SWAP1 SSTORE POP PUSH1 0x1 PUSH1 0x7 SSTORE PUSH1 0x40 MLOAD DUP1 PUSH1 0x80 ADD PUSH1 0x40 MSTORE DUP1 PUSH20 0x5B38DA6A701C568545DCFCB03FCB875F56BEDDC4 PUSH20 0xFFFFFFFFFFFFFFFFFFFFFFFFFFFFFFFFFFFFFFFF AND PUSH20 0xFFFFFFFFFFFFFFFFFFFFFFFFFFFFFFFFFFFFFFFF AND DUP2 MSTORE PUSH1 0x20 ADD PUSH20 0xAB8483F64D9C6D1ECF9B849AE677DD3315835CB2 PUSH20 0xFFFFFFFFFFFFFFFFFFFFFFFFFFFFFFFFFFFFFFFF AND PUSH20 0xFFFFFFFFFFFFFFFFFFFFFFFFFFFFFFFFFFFFFFFF AND DUP2 MSTORE PUSH1 0x20 ADD PUSH20 0x4B20993BC481177EC7E8F571CECAE8A9E22C02DB PUSH20 0xFFFFFFFFFFFFFFFFFFFFFFFFFFFFFFFFFFFFFFFF AND PUSH20 0xFFFFFFFFFFFFFFFFFFFFFFFFFFFFFFFFFFFFFFFF AND DUP2 MSTORE PUSH1 0x20 ADD PUSH20 0x78731D3CA6B7E34AC0F824C42A7CC18A495CABAB PUSH20 0xFFFFFFFFFFFFFFFFFFFFFFFFFFFFFFFFFFFFFFFF AND PUSH20 0xFFFFFFFFFFFFFFFFFFFFFFFFFFFFFFFFFFFFFFFF AND DUP2 MSTORE POP PUSH1 0x8 SWAP1 PUSH1 0x4 PUSH2 0x1AA SWAP3 SWAP2 SWAP1 PUSH2 0x1C9 JUMP JUMPDEST POP CALLVALUE DUP1 ISZERO PUSH2 0x1B6 JUMPI PUSH0 DUP1 REVERT JUMPDEST POP PUSH2 0x260 JUMP JUMPDEST PUSH2 0x231 DUP1 PUSH2 0x11C4 DUP4 CODECOPY ADD SWAP1 JUMP JUMPDEST DUP3 PUSH1 0x4 DUP2 ADD SWAP3 DUP3 ISZERO PUSH2 0x234 JUMPI SWAP2 PUSH1 0x20 MUL DUP3 ADD JUMPDEST DUP3 DUP2 GT ISZERO PUSH2 0x233 JUMPI DUP3 MLOAD DUP3 PUSH0 PUSH2 0x100 EXP DUP2 SLOAD DUP2 PUSH20 0xFFFFFFFFFFFFFFFFFFFFFFFFFFFFFFFFFFFFFFFF MUL NOT AND SWAP1 DUP4 PUSH20 0xFFFFFFFFFFFFFFFFFFFFFFFFFFFFFFFFFFFFFFFF AND MUL OR SWAP1 SSTORE POP SWAP2 PUSH1 0x20 ADD SWAP2 SWAP1 PUSH1 0x1 ADD SWAP1 PUSH2 0x1DC JUMP JUMPDEST JUMPDEST POP SWAP1 POP PUSH2 0x241 SWAP2 SWAP1 PUSH2 0x245 JUMP JUMPDEST POP SWAP1 JUMP JUMPDEST JUMPDEST DUP1 DUP3 GT ISZERO PUSH2 0x25C JUMPI PUSH0 DUP2 PUSH0 SWAP1 SSTORE POP PUSH1 0x1 ADD PUSH2 0x246 JUMP JUMPDEST POP SWAP1 JUMP JUMPDEST PUSH2 0xF57 DUP1 PUSH2 0x26D PUSH0 CODECOPY PUSH0 RETURN INVALID PUSH1 0x80 PUSH1 0x40 MSTORE PUSH1 0x4 CALLDATASIZE LT PUSH2 0xA6 JUMPI PUSH0 CALLDATALOAD PUSH1 0xE0 SHR DUP1 PUSH4 0x90D5D0C3 GT PUSH2 0x63 JUMPI DUP1 PUSH4 0x90D5D0C3 EQ PUSH2 0x198 JUMPI DUP1 PUSH4 0xA040478D EQ PUSH2 0x1C2 JUMPI DUP1 PUSH4 0xAD4E0407 EQ PUSH2 0x1FE JUMPI DUP1 PUSH4 0xB7786503 EQ PUSH2 0x228 JUMPI DUP1 PUSH4 0xCE6E1C4E EQ PUSH2 0x23E JUMPI DUP1 PUSH4 0xF71D96CB EQ PUSH2 0x266 JUMPI PUSH2 0xA6 JUMP JUMPDEST DUP1 PUSH4 0x86F7815 EQ PUSH2 0xAA JUMPI DUP1 PUSH4 0x190CF745 EQ PUSH2 0xD4 JUMPI DUP1 PUSH4 0x228CB733 EQ PUSH2 0x110 JUMPI DUP1 PUSH4 0x27B5DB8A EQ PUSH2 0x13A JUMPI DUP1 PUSH4 0x3C6A7F9B EQ PUSH2 0x144 JUMPI DUP1 PUSH4 0x614D85E1 EQ PUSH2 0x16E JUMPI JUMPDEST PUSH0 DUP1 REVERT JUMPDEST CALLVALUE DUP1 ISZERO PUSH2 0xB5 JUMPI PUSH0 DUP1 REVERT JUMPDEST POP PUSH2 0xBE PUSH2 0x2A2 JUMP JUMPDEST PUSH1 0x40 MLOAD PUSH2 0xCB SWAP2 SWAP1 PUSH2 0xBBB JUMP JUMPDEST PUSH1 0x40 MLOAD DUP1 SWAP2 SUB SWAP1 RETURN JUMPDEST CALLVALUE DUP1 ISZERO PUSH2 0xDF JUMPI PUSH0 DUP1 REVERT JUMPDEST POP PUSH2 0xFA PUSH1 0x4 DUP1 CALLDATASIZE SUB DUP2 ADD SWAP1 PUSH2 0xF5 SWAP2 SWAP1 PUSH2 0xC32 JUMP JUMPDEST PUSH2 0x2A8 JUMP JUMPDEST PUSH1 0x40 MLOAD PUSH2 0x107 SWAP2 SWAP1 PUSH2 0xC77 JUMP JUMPDEST PUSH1 0x40 MLOAD DUP1 SWAP2 SUB SWAP1 RETURN JUMPDEST CALLVALUE DUP1 ISZERO PUSH2 0x11B JUMPI PUSH0 DUP1 REVERT JUMPDEST POP PUSH2 0x124 PUSH2 0x2C5 JUMP JUMPDEST PUSH1 0x40 MLOAD PUSH2 0x131 SWAP2 SWAP1 PUSH2 0xBBB JUMP JUMPDEST PUSH1 0x40 MLOAD DUP1 SWAP2 SUB SWAP1 RETURN JUMPDEST PUSH2 0x142 PUSH2 0x2CB JUMP JUMPDEST STOP JUMPDEST CALLVALUE DUP1 ISZERO PUSH2 0x14F JUMPI PUSH0 DUP1 REVERT JUMPDEST POP PUSH2 0x158 PUSH2 0x466 JUMP JUMPDEST PUSH1 0x40 MLOAD PUSH2 0x165 SWAP2 SWAP1 PUSH2 0xCEB JUMP JUMPDEST PUSH1 0x40 MLOAD DUP1 SWAP2 SUB SWAP1 RETURN JUMPDEST CALLVALUE DUP1 ISZERO PUSH2 0x179 JUMPI PUSH0 DUP1 REVERT JUMPDEST POP PUSH2 0x182 PUSH2 0x48B JUMP JUMPDEST PUSH1 0x40 MLOAD PUSH2 0x18F SWAP2 SWAP1 PUSH2 0xBBB JUMP JUMPDEST PUSH1 0x40 MLOAD DUP1 SWAP2 SUB SWAP1 RETURN JUMPDEST CALLVALUE DUP1 ISZERO PUSH2 0x1A3 JUMPI PUSH0 DUP1 REVERT JUMPDEST POP PUSH2 0x1AC PUSH2 0x491 JUMP JUMPDEST PUSH1 0x40 MLOAD PUSH2 0x1B9 SWAP2 SWAP1 PUSH2 0xBBB JUMP JUMPDEST PUSH1 0x40 MLOAD DUP1 SWAP2 SUB SWAP1 RETURN JUMPDEST CALLVALUE DUP1 ISZERO PUSH2 0x1CD JUMPI PUSH0 DUP1 REVERT JUMPDEST POP PUSH2 0x1E8 PUSH1 0x4 DUP1 CALLDATASIZE SUB DUP2 ADD SWAP1 PUSH2 0x1E3 SWAP2 SWAP1 PUSH2 0xC32 JUMP JUMPDEST PUSH2 0x496 JUMP JUMPDEST PUSH1 0x40 MLOAD PUSH2 0x1F5 SWAP2 SWAP1 PUSH2 0xBBB JUMP JUMPDEST PUSH1 0x40 MLOAD DUP1 SWAP2 SUB SWAP1 RETURN JUMPDEST CALLVALUE DUP1 ISZERO PUSH2 0x209 JUMPI PUSH0 DUP1 REVERT JUMPDEST POP PUSH2 0x212 PUSH2 0x4AB JUMP JUMPDEST PUSH1 0x40 MLOAD PUSH2 0x21F SWAP2 SWAP1 PUSH2 0xC77 JUMP JUMPDEST PUSH1 0x40 MLOAD DUP1 SWAP2 SUB SWAP1 RETURN JUMPDEST CALLVALUE DUP1 ISZERO PUSH2 0x233 JUMPI PUSH0 DUP1 REVERT JUMPDEST POP PUSH2 0x23C PUSH2 0x540 JUMP JUMPDEST STOP JUMPDEST CALLVALUE DUP1 ISZERO PUSH2 0x249 JUMPI PUSH0 DUP1 REVERT JUMPDEST POP PUSH2 0x264 PUSH1 0x4 DUP1 CALLDATASIZE SUB DUP2 ADD SWAP1 PUSH2 0x25F SWAP2 SWAP1 PUSH2 0xD2E JUMP JUMPDEST PUSH2 0x716 JUMP JUMPDEST STOP JUMPDEST CALLVALUE DUP1 ISZERO PUSH2 0x271 JUMPI PUSH0 DUP1 REVERT JUMPDEST POP PUSH2 0x28C PUSH1 0x4 DUP1 CALLDATASIZE SUB DUP2 ADD SWAP1 PUSH2 0x287 SWAP2 SWAP1 PUSH2 0xD2E JUMP JUMPDEST PUSH2 0x85E JUMP JUMPDEST PUSH1 0x40 MLOAD PUSH2 0x299 SWAP2 SWAP1 PUSH2 0xD68 JUMP JUMPDEST PUSH1 0x40 MLOAD DUP1 SWAP2 SUB SWAP1 RETURN JUMPDEST PUSH1 0x5 SLOAD DUP2 JUMP JUMPDEST PUSH1 0x3 PUSH1 0x20 MSTORE DUP1 PUSH0 MSTORE PUSH1 0x40 PUSH0 KECCAK256 PUSH0 SWAP2 POP SLOAD SWAP1 PUSH2 0x100 EXP SWAP1 DIV PUSH1 0xFF AND DUP2 JUMP JUMPDEST PUSH1 0x1 SLOAD DUP2 JUMP JUMPDEST PUSH1 0x2 PUSH0 SLOAD LT PUSH2 0x2D8 JUMPI PUSH0 DUP1 REVERT JUMPDEST PUSH2 0x2E0 PUSH2 0x4AB JUMP JUMPDEST PUSH2 0x2E8 JUMPI PUSH0 DUP1 REVERT JUMPDEST PUSH8 0xDE0B6B3A7640000 CALLVALUE EQ PUSH2 0x2FB JUMPI PUSH0 DUP1 REVERT JUMPDEST CALLVALUE PUSH1 0x1 PUSH0 DUP3 DUP3 SLOAD PUSH2 0x30C SWAP2 SWAP1 PUSH2 0xDAE JUMP JUMPDEST SWAP3 POP POP DUP2 SWAP1 SSTORE POP PUSH1 0x1 PUSH1 0x3 PUSH0 CALLER PUSH20 0xFFFFFFFFFFFFFFFFFFFFFFFFFFFFFFFFFFFFFFFF AND PUSH20 0xFFFFFFFFFFFFFFFFFFFFFFFFFFFFFFFFFFFFFFFF AND DUP2 MSTORE PUSH1 0x20 ADD SWAP1 DUP2 MSTORE PUSH1 0x20 ADD PUSH0 KECCAK256 PUSH0 PUSH2 0x100 EXP DUP2 SLOAD DUP2 PUSH1 0xFF MUL NOT AND SWAP1 DUP4 ISZERO ISZERO MUL OR SWAP1 SSTORE POP PUSH1 0x4 CALLER SWAP1 DUP1 PUSH1 0x1 DUP2 SLOAD ADD DUP1 DUP3 SSTORE DUP1 SWAP2 POP POP PUSH1 0x1 SWAP1 SUB SWAP1 PUSH0 MSTORE PUSH1 0x20 PUSH0 KECCAK256 ADD PUSH0 SWAP1 SWAP2 SWAP1 SWAP2 SWAP1 SWAP2 PUSH2 0x100 EXP DUP2 SLOAD DUP2 PUSH20 0xFFFFFFFFFFFFFFFFFFFFFFFFFFFFFFFFFFFFFFFF MUL NOT AND SWAP1 DUP4 PUSH20 0xFFFFFFFFFFFFFFFFFFFFFFFFFFFFFFFFFFFFFFFF AND MUL OR SWAP1 SSTORE POP PUSH0 DUP1 DUP2 SLOAD DUP1 SWAP3 SWAP2 SWAP1 PUSH2 0x3D9 SWAP1 PUSH2 0xDE1 JUMP JUMPDEST SWAP2 SWAP1 POP SSTORE POP PUSH1 0x1 PUSH0 SLOAD SUB PUSH2 0x464 JUMPI PUSH1 0x6 PUSH0 SWAP1 SLOAD SWAP1 PUSH2 0x100 EXP SWAP1 DIV PUSH20 0xFFFFFFFFFFFFFFFFFFFFFFFFFFFFFFFFFFFFFFFF AND PUSH20 0xFFFFFFFFFFFFFFFFFFFFFFFFFFFFFFFFFFFFFFFF AND PUSH4 0xA63F7C53 PUSH1 0x40 MLOAD DUP2 PUSH4 0xFFFFFFFF AND PUSH1 0xE0 SHL DUP2 MSTORE PUSH1 0x4 ADD PUSH0 PUSH1 0x40 MLOAD DUP1 DUP4 SUB DUP2 PUSH0 DUP8 DUP1 EXTCODESIZE ISZERO DUP1 ISZERO PUSH2 0x44D JUMPI PUSH0 DUP1 REVERT JUMPDEST POP GAS CALL ISZERO DUP1 ISZERO PUSH2 0x45F JUMPI RETURNDATASIZE PUSH0 DUP1 RETURNDATACOPY RETURNDATASIZE PUSH0 REVERT JUMPDEST POP POP POP POP JUMPDEST JUMP JUMPDEST PUSH1 0x6 PUSH0 SWAP1 SLOAD SWAP1 PUSH2 0x100 EXP SWAP1 DIV PUSH20 0xFFFFFFFFFFFFFFFFFFFFFFFFFFFFFFFFFFFFFFFF AND DUP2 JUMP JUMPDEST PUSH1 0x7 SLOAD DUP2 JUMP JUMPDEST PUSH0 SLOAD DUP2 JUMP JUMPDEST PUSH1 0x2 PUSH1 0x20 MSTORE DUP1 PUSH0 MSTORE PUSH1 0x40 PUSH0 KECCAK256 PUSH0 SWAP2 POP SWAP1 POP SLOAD DUP2 JUMP JUMPDEST PUSH0 DUP1 PUSH0 SWAP1 POP JUMPDEST PUSH1 0x4 DUP2 LT ISZERO PUSH2 0x538 JUMPI PUSH1 0x8 DUP2 PUSH1 0x4 DUP2 LT PUSH2 0x4CE JUMPI PUSH2 0x4CD PUSH2 0xE28 JUMP JUMPDEST JUMPDEST ADD PUSH0 SWAP1 SLOAD SWAP1 PUSH2 0x100 EXP SWAP1 DIV PUSH20 0xFFFFFFFFFFFFFFFFFFFFFFFFFFFFFFFFFFFFFFFF AND PUSH20 0xFFFFFFFFFFFFFFFFFFFFFFFFFFFFFFFFFFFFFFFF AND CALLER PUSH20 0xFFFFFFFFFFFFFFFFFFFFFFFFFFFFFFFFFFFFFFFF AND SUB PUSH2 0x52B JUMPI PUSH1 0x1 SWAP2 POP POP PUSH2 0x53D JUMP JUMPDEST DUP1 DUP1 PUSH1 0x1 ADD SWAP2 POP POP PUSH2 0x4B1 JUMP JUMPDEST POP PUSH0 SWAP1 POP JUMPDEST SWAP1 JUMP JUMPDEST PUSH1 0x7 SLOAD PUSH1 0x6 PUSH0 SWAP1 SLOAD SWAP1 PUSH2 0x100 EXP SWAP1 DIV PUSH20 0xFFFFFFFFFFFFFFFFFFFFFFFFFFFFFFFFFFFFFFFF AND PUSH20 0xFFFFFFFFFFFFFFFFFFFFFFFFFFFFFFFFFFFFFFFF AND PUSH4 0xD97C8416 PUSH1 0x40 MLOAD DUP2 PUSH4 0xFFFFFFFF AND PUSH1 0xE0 SHL DUP2 MSTORE PUSH1 0x4 ADD PUSH1 0x20 PUSH1 0x40 MLOAD DUP1 DUP4 SUB DUP2 DUP7 GAS STATICCALL ISZERO DUP1 ISZERO PUSH2 0x5AD JUMPI RETURNDATASIZE PUSH0 DUP1 RETURNDATACOPY RETURNDATASIZE PUSH0 REVERT JUMPDEST POP POP POP POP PUSH1 0x40 MLOAD RETURNDATASIZE PUSH1 0x1F NOT PUSH1 0x1F DUP3 ADD AND DUP3 ADD DUP1 PUSH1 0x40 MSTORE POP DUP2 ADD SWAP1 PUSH2 0x5D1 SWAP2 SWAP1 PUSH2 0xE69 JUMP JUMPDEST SUB PUSH2 0x714 JUMPI PUSH0 JUMPDEST PUSH1 0x2 DUP2 LT ISZERO PUSH2 0x712 JUMPI PUSH1 0x3 PUSH0 PUSH1 0x4 DUP4 DUP2 SLOAD DUP2 LT PUSH2 0x5F8 JUMPI PUSH2 0x5F7 PUSH2 0xE28 JUMP JUMPDEST JUMPDEST SWAP1 PUSH0 MSTORE PUSH1 0x20 PUSH0 KECCAK256 ADD PUSH0 SWAP1 SLOAD SWAP1 PUSH2 0x100 EXP SWAP1 DIV PUSH20 0xFFFFFFFFFFFFFFFFFFFFFFFFFFFFFFFFFFFFFFFF AND PUSH20 0xFFFFFFFFFFFFFFFFFFFFFFFFFFFFFFFFFFFFFFFF AND PUSH20 0xFFFFFFFFFFFFFFFFFFFFFFFFFFFFFFFFFFFFFFFF AND DUP2 MSTORE PUSH1 0x20 ADD SWAP1 DUP2 MSTORE PUSH1 0x20 ADD PUSH0 KECCAK256 PUSH0 SWAP1 SLOAD SWAP1 PUSH2 0x100 EXP SWAP1 DIV PUSH1 0xFF AND PUSH2 0x705 JUMPI PUSH0 PUSH1 0x4 DUP3 DUP2 SLOAD DUP2 LT PUSH2 0x67F JUMPI PUSH2 0x67E PUSH2 0xE28 JUMP JUMPDEST JUMPDEST SWAP1 PUSH0 MSTORE PUSH1 0x20 PUSH0 KECCAK256 ADD PUSH0 SWAP1 SLOAD SWAP1 PUSH2 0x100 EXP SWAP1 DIV PUSH20 0xFFFFFFFFFFFFFFFFFFFFFFFFFFFFFFFFFFFFFFFF AND SWAP1 POP DUP1 PUSH20 0xFFFFFFFFFFFFFFFFFFFFFFFFFFFFFFFFFFFFFFFF AND PUSH2 0x8FC PUSH1 0x1 SLOAD SWAP1 DUP2 ISZERO MUL SWAP1 PUSH1 0x40 MLOAD PUSH0 PUSH1 0x40 MLOAD DUP1 DUP4 SUB DUP2 DUP6 DUP9 DUP9 CALL SWAP4 POP POP POP POP ISZERO DUP1 ISZERO PUSH2 0x6EE JUMPI RETURNDATASIZE PUSH0 DUP1 RETURNDATACOPY RETURNDATASIZE PUSH0 REVERT JUMPDEST POP PUSH0 PUSH1 0x5 DUP2 SWAP1 SSTORE POP PUSH0 DUP1 DUP2 SWAP1 SSTORE POP PUSH0 PUSH1 0x1 DUP2 SWAP1 SSTORE POP POP JUMPDEST DUP1 DUP1 PUSH1 0x1 ADD SWAP2 POP POP PUSH2 0x5D8 JUMP JUMPDEST POP JUMPDEST JUMP JUMPDEST PUSH1 0x2 PUSH0 SLOAD EQ PUSH2 0x723 JUMPI PUSH0 DUP1 REVERT JUMPDEST PUSH1 0x3 PUSH0 CALLER PUSH20 0xFFFFFFFFFFFFFFFFFFFFFFFFFFFFFFFFFFFFFFFF AND PUSH20 0xFFFFFFFFFFFFFFFFFFFFFFFFFFFFFFFFFFFFFFFF AND DUP2 MSTORE PUSH1 0x20 ADD SWAP1 DUP2 MSTORE PUSH1 0x20 ADD PUSH0 KECCAK256 PUSH0 SWAP1 SLOAD SWAP1 PUSH2 0x100 EXP SWAP1 DIV PUSH1 0xFF AND PUSH2 0x775 JUMPI PUSH0 DUP1 REVERT JUMPDEST PUSH0 DUP2 LT ISZERO DUP1 ISZERO PUSH2 0x786 JUMPI POP PUSH1 0x4 DUP2 GT ISZERO JUMPDEST PUSH2 0x78E JUMPI PUSH0 DUP1 REVERT JUMPDEST DUP1 PUSH1 0x2 PUSH0 CALLER PUSH20 0xFFFFFFFFFFFFFFFFFFFFFFFFFFFFFFFFFFFFFFFF AND PUSH20 0xFFFFFFFFFFFFFFFFFFFFFFFFFFFFFFFFFFFFFFFF AND DUP2 MSTORE PUSH1 0x20 ADD SWAP1 DUP2 MSTORE PUSH1 0x20 ADD PUSH0 KECCAK256 DUP2 SWAP1 SSTORE POP PUSH0 PUSH1 0x3 PUSH0 CALLER PUSH20 0xFFFFFFFFFFFFFFFFFFFFFFFFFFFFFFFFFFFFFFFF AND PUSH20 0xFFFFFFFFFFFFFFFFFFFFFFFFFFFFFFFFFFFFFFFF AND DUP2 MSTORE PUSH1 0x20 ADD SWAP1 DUP2 MSTORE PUSH1 0x20 ADD PUSH0 KECCAK256 PUSH0 PUSH2 0x100 EXP DUP2 SLOAD DUP2 PUSH1 0xFF MUL NOT AND SWAP1 DUP4 ISZERO ISZERO MUL OR SWAP1 SSTORE POP PUSH1 0x5 PUSH0 DUP2 SLOAD DUP1 SWAP3 SWAP2 SWAP1 PUSH2 0x836 SWAP1 PUSH2 0xDE1 JUMP JUMPDEST SWAP2 SWAP1 POP SSTORE POP PUSH1 0x2 PUSH1 0x5 SLOAD SUB PUSH2 0x85B JUMPI PUSH0 PUSH1 0x5 DUP2 SWAP1 SSTORE POP PUSH0 DUP1 DUP2 SWAP1 SSTORE POP PUSH2 0x85A PUSH2 0x899 JUMP JUMPDEST JUMPDEST POP JUMP JUMPDEST PUSH1 0x4 DUP2 DUP2 SLOAD DUP2 LT PUSH2 0x86D JUMPI PUSH0 DUP1 REVERT JUMPDEST SWAP1 PUSH0 MSTORE PUSH1 0x20 PUSH0 KECCAK256 ADD PUSH0 SWAP2 POP SLOAD SWAP1 PUSH2 0x100 EXP SWAP1 DIV PUSH20 0xFFFFFFFFFFFFFFFFFFFFFFFFFFFFFFFFFFFFFFFF AND DUP2 JUMP JUMPDEST PUSH0 PUSH1 0x2 PUSH0 PUSH1 0x4 PUSH0 DUP2 SLOAD DUP2 LT PUSH2 0x8B1 JUMPI PUSH2 0x8B0 PUSH2 0xE28 JUMP JUMPDEST JUMPDEST SWAP1 PUSH0 MSTORE PUSH1 0x20 PUSH0 KECCAK256 ADD PUSH0 SWAP1 SLOAD SWAP1 PUSH2 0x100 EXP SWAP1 DIV PUSH20 0xFFFFFFFFFFFFFFFFFFFFFFFFFFFFFFFFFFFFFFFF AND PUSH20 0xFFFFFFFFFFFFFFFFFFFFFFFFFFFFFFFFFFFFFFFF AND PUSH20 0xFFFFFFFFFFFFFFFFFFFFFFFFFFFFFFFFFFFFFFFF AND DUP2 MSTORE PUSH1 0x20 ADD SWAP1 DUP2 MSTORE PUSH1 0x20 ADD PUSH0 KECCAK256 SLOAD SWAP1 POP PUSH0 PUSH1 0x2 PUSH0 PUSH1 0x4 PUSH1 0x1 DUP2 SLOAD DUP2 LT PUSH2 0x92E JUMPI PUSH2 0x92D PUSH2 0xE28 JUMP JUMPDEST JUMPDEST SWAP1 PUSH0 MSTORE PUSH1 0x20 PUSH0 KECCAK256 ADD PUSH0 SWAP1 SLOAD SWAP1 PUSH2 0x100 EXP SWAP1 DIV PUSH20 0xFFFFFFFFFFFFFFFFFFFFFFFFFFFFFFFFFFFFFFFF AND PUSH20 0xFFFFFFFFFFFFFFFFFFFFFFFFFFFFFFFFFFFFFFFF AND PUSH20 0xFFFFFFFFFFFFFFFFFFFFFFFFFFFFFFFFFFFFFFFF AND DUP2 MSTORE PUSH1 0x20 ADD SWAP1 DUP2 MSTORE PUSH1 0x20 ADD PUSH0 KECCAK256 SLOAD SWAP1 POP PUSH0 PUSH1 0x4 PUSH0 DUP2 SLOAD DUP2 LT PUSH2 0x9A7 JUMPI PUSH2 0x9A6 PUSH2 0xE28 JUMP JUMPDEST JUMPDEST SWAP1 PUSH0 MSTORE PUSH1 0x20 PUSH0 KECCAK256 ADD PUSH0 SWAP1 SLOAD SWAP1 PUSH2 0x100 EXP SWAP1 DIV PUSH20 0xFFFFFFFFFFFFFFFFFFFFFFFFFFFFFFFFFFFFFFFF AND SWAP1 POP PUSH0 PUSH1 0x4 PUSH1 0x1 DUP2 SLOAD DUP2 LT PUSH2 0x9E7 JUMPI PUSH2 0x9E6 PUSH2 0xE28 JUMP JUMPDEST JUMPDEST SWAP1 PUSH0 MSTORE PUSH1 0x20 PUSH0 KECCAK256 ADD PUSH0 SWAP1 SLOAD SWAP1 PUSH2 0x100 EXP SWAP1 DIV PUSH20 0xFFFFFFFFFFFFFFFFFFFFFFFFFFFFFFFFFFFFFFFF AND SWAP1 POP DUP3 DUP5 SUB PUSH2 0xAC1 JUMPI DUP2 PUSH20 0xFFFFFFFFFFFFFFFFFFFFFFFFFFFFFFFFFFFFFFFF AND PUSH2 0x8FC PUSH1 0x2 PUSH1 0x1 SLOAD PUSH2 0xA41 SWAP2 SWAP1 PUSH2 0xEC1 JUMP JUMPDEST SWAP1 DUP2 ISZERO MUL SWAP1 PUSH1 0x40 MLOAD PUSH0 PUSH1 0x40 MLOAD DUP1 DUP4 SUB DUP2 DUP6 DUP9 DUP9 CALL SWAP4 POP POP POP POP ISZERO DUP1 ISZERO PUSH2 0xA69 JUMPI RETURNDATASIZE PUSH0 DUP1 RETURNDATACOPY RETURNDATASIZE PUSH0 REVERT JUMPDEST POP DUP1 PUSH20 0xFFFFFFFFFFFFFFFFFFFFFFFFFFFFFFFFFFFFFFFF AND PUSH2 0x8FC PUSH1 0x2 PUSH1 0x1 SLOAD PUSH2 0xA93 SWAP2 SWAP1 PUSH2 0xEC1 JUMP JUMPDEST SWAP1 DUP2 ISZERO MUL SWAP1 PUSH1 0x40 MLOAD PUSH0 PUSH1 0x40 MLOAD DUP1 DUP4 SUB DUP2 DUP6 DUP9 DUP9 CALL SWAP4 POP POP POP POP ISZERO DUP1 ISZERO PUSH2 0xABB JUMPI RETURNDATASIZE PUSH0 DUP1 RETURNDATACOPY RETURNDATASIZE PUSH0 REVERT JUMPDEST POP PUSH2 0xB96 JUMP JUMPDEST DUP4 PUSH1 0x5 PUSH1 0x1 DUP6 PUSH2 0xAD1 SWAP2 SWAP1 PUSH2 0xDAE JUMP JUMPDEST PUSH2 0xADB SWAP2 SWAP1 PUSH2 0xEF1 JUMP JUMPDEST EQ DUP1 PUSH2 0xAFE JUMPI POP DUP4 PUSH1 0x5 PUSH1 0x3 DUP6 PUSH2 0xAF2 SWAP2 SWAP1 PUSH2 0xDAE JUMP JUMPDEST PUSH2 0xAFC SWAP2 SWAP1 PUSH2 0xEF1 JUMP JUMPDEST EQ JUMPDEST ISZERO PUSH2 0xB4E JUMPI DUP2 PUSH20 0xFFFFFFFFFFFFFFFFFFFFFFFFFFFFFFFFFFFFFFFF AND PUSH2 0x8FC PUSH1 0x1 SLOAD SWAP1 DUP2 ISZERO MUL SWAP1 PUSH1 0x40 MLOAD PUSH0 PUSH1 0x40 MLOAD DUP1 DUP4 SUB DUP2 DUP6 DUP9 DUP9 CALL SWAP4 POP POP POP POP ISZERO DUP1 ISZERO PUSH2 0xB48 JUMPI RETURNDATASIZE PUSH0 DUP1 RETURNDATACOPY RETURNDATASIZE PUSH0 REVERT JUMPDEST POP PUSH2 0xB95 JUMP JUMPDEST DUP1 PUSH20 0xFFFFFFFFFFFFFFFFFFFFFFFFFFFFFFFFFFFFFFFF AND PUSH2 0x8FC PUSH1 0x1 SLOAD SWAP1 DUP2 ISZERO MUL SWAP1 PUSH1 0x40 MLOAD PUSH0 PUSH1 0x40 MLOAD DUP1 DUP4 SUB DUP2 DUP6 DUP9 DUP9 CALL SWAP4 POP POP POP POP ISZERO DUP1 ISZERO PUSH2 0xB93 JUMPI RETURNDATASIZE PUSH0 DUP1 RETURNDATACOPY RETURNDATASIZE PUSH0 REVERT JUMPDEST POP JUMPDEST JUMPDEST PUSH0 PUSH1 0x1 DUP2 SWAP1 SSTORE POP POP POP POP POP JUMP JUMPDEST PUSH0 DUP2 SWAP1 POP SWAP2 SWAP1 POP JUMP JUMPDEST PUSH2 0xBB5 DUP2 PUSH2 0xBA3 JUMP JUMPDEST DUP3 MSTORE POP POP JUMP JUMPDEST PUSH0 PUSH1 0x20 DUP3 ADD SWAP1 POP PUSH2 0xBCE PUSH0 DUP4 ADD DUP5 PUSH2 0xBAC JUMP JUMPDEST SWAP3 SWAP2 POP POP JUMP JUMPDEST PUSH0 DUP1 REVERT JUMPDEST PUSH0 PUSH20 0xFFFFFFFFFFFFFFFFFFFFFFFFFFFFFFFFFFFFFFFF DUP3 AND SWAP1 POP SWAP2 SWAP1 POP JUMP JUMPDEST PUSH0 PUSH2 0xC01 DUP3 PUSH2 0xBD8 JUMP JUMPDEST SWAP1 POP SWAP2 SWAP1 POP JUMP JUMPDEST PUSH2 0xC11 DUP2 PUSH2 0xBF7 JUMP JUMPDEST DUP2 EQ PUSH2 0xC1B JUMPI PUSH0 DUP1 REVERT JUMPDEST POP JUMP JUMPDEST PUSH0 DUP2 CALLDATALOAD SWAP1 POP PUSH2 0xC2C DUP2 PUSH2 0xC08 JUMP JUMPDEST SWAP3 SWAP2 POP POP JUMP JUMPDEST PUSH0 PUSH1 0x20 DUP3 DUP5 SUB SLT ISZERO PUSH2 0xC47 JUMPI PUSH2 0xC46 PUSH2 0xBD4 JUMP JUMPDEST JUMPDEST PUSH0 PUSH2 0xC54 DUP5 DUP3 DUP6 ADD PUSH2 0xC1E JUMP JUMPDEST SWAP2 POP POP SWAP3 SWAP2 POP POP JUMP JUMPDEST PUSH0 DUP2 ISZERO ISZERO SWAP1 POP SWAP2 SWAP1 POP JUMP JUMPDEST PUSH2 0xC71 DUP2 PUSH2 0xC5D JUMP JUMPDEST DUP3 MSTORE POP POP JUMP JUMPDEST PUSH0 PUSH1 0x20 DUP3 ADD SWAP1 POP PUSH2 0xC8A PUSH0 DUP4 ADD DUP5 PUSH2 0xC68 JUMP JUMPDEST SWAP3 SWAP2 POP POP JUMP JUMPDEST PUSH0 DUP2 SWAP1 POP SWAP2 SWAP1 POP JUMP JUMPDEST PUSH0 PUSH2 0xCB3 PUSH2 0xCAE PUSH2 0xCA9 DUP5 PUSH2 0xBD8 JUMP JUMPDEST PUSH2 0xC90 JUMP JUMPDEST PUSH2 0xBD8 JUMP JUMPDEST SWAP1 POP SWAP2 SWAP1 POP JUMP JUMPDEST PUSH0 PUSH2 0xCC4 DUP3 PUSH2 0xC99 JUMP JUMPDEST SWAP1 POP SWAP2 SWAP1 POP JUMP JUMPDEST PUSH0 PUSH2 0xCD5 DUP3 PUSH2 0xCBA JUMP JUMPDEST SWAP1 POP SWAP2 SWAP1 POP JUMP JUMPDEST PUSH2 0xCE5 DUP2 PUSH2 0xCCB JUMP JUMPDEST DUP3 MSTORE POP POP JUMP JUMPDEST PUSH0 PUSH1 0x20 DUP3 ADD SWAP1 POP PUSH2 0xCFE PUSH0 DUP4 ADD DUP5 PUSH2 0xCDC JUMP JUMPDEST SWAP3 SWAP2 POP POP JUMP JUMPDEST PUSH2 0xD0D DUP2 PUSH2 0xBA3 JUMP JUMPDEST DUP2 EQ PUSH2 0xD17 JUMPI PUSH0 DUP1 REVERT JUMPDEST POP JUMP JUMPDEST PUSH0 DUP2 CALLDATALOAD SWAP1 POP PUSH2 0xD28 DUP2 PUSH2 0xD04 JUMP JUMPDEST SWAP3 SWAP2 POP POP JUMP JUMPDEST PUSH0 PUSH1 0x20 DUP3 DUP5 SUB SLT ISZERO PUSH2 0xD43 JUMPI PUSH2 0xD42 PUSH2 0xBD4 JUMP JUMPDEST JUMPDEST PUSH0 PUSH2 0xD50 DUP5 DUP3 DUP6 ADD PUSH2 0xD1A JUMP JUMPDEST SWAP2 POP POP SWAP3 SWAP2 POP POP JUMP JUMPDEST PUSH2 0xD62 DUP2 PUSH2 0xBF7 JUMP JUMPDEST DUP3 MSTORE POP POP JUMP JUMPDEST PUSH0 PUSH1 0x20 DUP3 ADD SWAP1 POP PUSH2 0xD7B PUSH0 DUP4 ADD DUP5 PUSH2 0xD59 JUMP JUMPDEST SWAP3 SWAP2 POP POP JUMP JUMPDEST PUSH32 0x4E487B7100000000000000000000000000000000000000000000000000000000 PUSH0 MSTORE PUSH1 0x11 PUSH1 0x4 MSTORE PUSH1 0x24 PUSH0 REVERT JUMPDEST PUSH0 PUSH2 0xDB8 DUP3 PUSH2 0xBA3 JUMP JUMPDEST SWAP2 POP PUSH2 0xDC3 DUP4 PUSH2 0xBA3 JUMP JUMPDEST SWAP3 POP DUP3 DUP3 ADD SWAP1 POP DUP1 DUP3 GT ISZERO PUSH2 0xDDB JUMPI PUSH2 0xDDA PUSH2 0xD81 JUMP JUMPDEST JUMPDEST SWAP3 SWAP2 POP POP JUMP JUMPDEST PUSH0 PUSH2 0xDEB DUP3 PUSH2 0xBA3 JUMP JUMPDEST SWAP2 POP PUSH32 0xFFFFFFFFFFFFFFFFFFFFFFFFFFFFFFFFFFFFFFFFFFFFFFFFFFFFFFFFFFFFFFFF DUP3 SUB PUSH2 0xE1D JUMPI PUSH2 0xE1C PUSH2 0xD81 JUMP JUMPDEST JUMPDEST PUSH1 0x1 DUP3 ADD SWAP1 POP SWAP2 SWAP1 POP JUMP JUMPDEST PUSH32 0x4E487B7100000000000000000000000000000000000000000000000000000000 PUSH0 MSTORE PUSH1 0x32 PUSH1 0x4 MSTORE PUSH1 0x24 PUSH0 REVERT JUMPDEST PUSH0 DUP2 MLOAD SWAP1 POP PUSH2 0xE63 DUP2 PUSH2 0xD04 JUMP JUMPDEST SWAP3 SWAP2 POP POP JUMP JUMPDEST PUSH0 PUSH1 0x20 DUP3 DUP5 SUB SLT ISZERO PUSH2 0xE7E JUMPI PUSH2 0xE7D PUSH2 0xBD4 JUMP JUMPDEST JUMPDEST PUSH0 PUSH2 0xE8B DUP5 DUP3 DUP6 ADD PUSH2 0xE55 JUMP JUMPDEST SWAP2 POP POP SWAP3 SWAP2 POP POP JUMP JUMPDEST PUSH32 0x4E487B7100000000000000000000000000000000000000000000000000000000 PUSH0 MSTORE PUSH1 0x12 PUSH1 0x4 MSTORE PUSH1 0x24 PUSH0 REVERT JUMPDEST PUSH0 PUSH2 0xECB DUP3 PUSH2 0xBA3 JUMP JUMPDEST SWAP2 POP PUSH2 0xED6 DUP4 PUSH2 0xBA3 JUMP JUMPDEST SWAP3 POP DUP3 PUSH2 0xEE6 JUMPI PUSH2 0xEE5 PUSH2 0xE94 JUMP JUMPDEST JUMPDEST DUP3 DUP3 DIV SWAP1 POP SWAP3 SWAP2 POP POP JUMP JUMPDEST PUSH0 PUSH2 0xEFB DUP3 PUSH2 0xBA3 JUMP JUMPDEST SWAP2 POP PUSH2 0xF06 DUP4 PUSH2 0xBA3 JUMP JUMPDEST SWAP3 POP DUP3 PUSH2 0xF16 JUMPI PUSH2 0xF15 PUSH2 0xE94 JUMP JUMPDEST JUMPDEST DUP3 DUP3 MOD SWAP1 POP SWAP3 SWAP2 POP POP JUMP INVALID LOG2 PUSH5 0x6970667358 0x22 SLT KECCAK256 COINBASE SGT SLOAD DUP4 0x4E 0xC2 0xC8 0xE7 0xEC 0xE4 0xA6 0x4D PUSH27 0x22F3BA01F7E28C908916961D4C9130A7E699B364736F6C63430008 BYTE STOP CALLER PUSH1 0x80 PUSH1 0x40 MSTORE CALLVALUE DUP1 ISZERO PUSH1 0xE JUMPI PUSH0 DUP1 REVERT JUMPDEST POP PUSH2 0x215 DUP1 PUSH2 0x1C PUSH0 CODECOPY PUSH0 RETURN INVALID PUSH1 0x80 PUSH1 0x40 MSTORE CALLVALUE DUP1 ISZERO PUSH2 0xF JUMPI PUSH0 DUP1 REVERT JUMPDEST POP PUSH1 0x4 CALLDATASIZE LT PUSH2 0x4A JUMPI PUSH0 CALLDATALOAD PUSH1 0xE0 SHR DUP1 PUSH4 0x78E97925 EQ PUSH2 0x4E JUMPI DUP1 PUSH4 0xA63F7C53 EQ PUSH2 0x6C JUMPI DUP1 PUSH4 0xBC06B8CD EQ PUSH2 0x76 JUMPI DUP1 PUSH4 0xD97C8416 EQ PUSH2 0x94 JUMPI JUMPDEST PUSH0 DUP1 REVERT JUMPDEST PUSH2 0x56 PUSH2 0xB2 JUMP JUMPDEST PUSH1 0x40 MLOAD PUSH2 0x63 SWAP2 SWAP1 PUSH2 0x109 JUMP JUMPDEST PUSH1 0x40 MLOAD DUP1 SWAP2 SUB SWAP1 RETURN JUMPDEST PUSH2 0x74 PUSH2 0xB7 JUMP JUMPDEST STOP JUMPDEST PUSH2 0x7E PUSH2 0xBF JUMP JUMPDEST PUSH1 0x40 MLOAD PUSH2 0x8B SWAP2 SWAP1 PUSH2 0x109 JUMP JUMPDEST PUSH1 0x40 MLOAD DUP1 SWAP2 SUB SWAP1 RETURN JUMPDEST PUSH2 0x9C PUSH2 0xD2 JUMP JUMPDEST PUSH1 0x40 MLOAD PUSH2 0xA9 SWAP2 SWAP1 PUSH2 0x109 JUMP JUMPDEST PUSH1 0x40 MLOAD DUP1 SWAP2 SUB SWAP1 RETURN JUMPDEST PUSH0 SLOAD DUP2 JUMP JUMPDEST TIMESTAMP PUSH0 DUP2 SWAP1 SSTORE POP JUMP JUMPDEST PUSH0 DUP1 SLOAD TIMESTAMP PUSH2 0xCD SWAP2 SWAP1 PUSH2 0x14F JUMP JUMPDEST SWAP1 POP SWAP1 JUMP JUMPDEST PUSH0 PUSH1 0x3C PUSH0 SLOAD TIMESTAMP PUSH2 0xE2 SWAP2 SWAP1 PUSH2 0x14F JUMP JUMPDEST PUSH2 0xEC SWAP2 SWAP1 PUSH2 0x1AF JUMP JUMPDEST SWAP1 POP SWAP1 JUMP JUMPDEST PUSH0 DUP2 SWAP1 POP SWAP2 SWAP1 POP JUMP JUMPDEST PUSH2 0x103 DUP2 PUSH2 0xF1 JUMP JUMPDEST DUP3 MSTORE POP POP JUMP JUMPDEST PUSH0 PUSH1 0x20 DUP3 ADD SWAP1 POP PUSH2 0x11C PUSH0 DUP4 ADD DUP5 PUSH2 0xFA JUMP JUMPDEST SWAP3 SWAP2 POP POP JUMP JUMPDEST PUSH32 0x4E487B7100000000000000000000000000000000000000000000000000000000 PUSH0 MSTORE PUSH1 0x11 PUSH1 0x4 MSTORE PUSH1 0x24 PUSH0 REVERT JUMPDEST PUSH0 PUSH2 0x159 DUP3 PUSH2 0xF1 JUMP JUMPDEST SWAP2 POP PUSH2 0x164 DUP4 PUSH2 0xF1 JUMP JUMPDEST SWAP3 POP DUP3 DUP3 SUB SWAP1 POP DUP2 DUP2 GT ISZERO PUSH2 0x17C JUMPI PUSH2 0x17B PUSH2 0x122 JUMP JUMPDEST JUMPDEST SWAP3 SWAP2 POP POP JUMP JUMPDEST PUSH32 0x4E487B7100000000000000000000000000000000000000000000000000000000 PUSH0 MSTORE PUSH1 0x12 PUSH1 0x4 MSTORE PUSH1 0x24 PUSH0 REVERT JUMPDEST PUSH0 PUSH2 0x1B9 DUP3 PUSH2 0xF1 JUMP JUMPDEST SWAP2 POP PUSH2 0x1C4 DUP4 PUSH2 0xF1 JUMP JUMPDEST SWAP3 POP DUP3 PUSH2 0x1D4 JUMPI PUSH2 0x1D3 PUSH2 0x182 JUMP JUMPDEST JUMPDEST DUP3 DUP3 DIV SWAP1 POP SWAP3 SWAP2 POP POP JUMP INVALID LOG2 PUSH5 0x6970667358 0x22 SLT KECCAK256 0xAA 0xC7 BALANCE 0xC6 MLOAD LOG4 LT SWAP2 0xE7 DUP13 0x4C PUSH9 0xCA2CDE2E708EC23868 0xC1 0xBB 0xF8 SWAP8 SWAP4 NOT 0xBB CREATE 0xB1 0xF7 0xC1 PUSH5 0x736F6C6343 STOP ADDMOD BYTE STOP CALLER "
				},
				"gasEstimates": {
					"creation": {
						"codeDepositCost": "785400",
						"executionCost": "infinite",
						"totalCost": "infinite"
					},
					"external": {
						"addPlayer()": "infinite",
						"checkTimeOut()": "infinite",
						"getValid()": "infinite",
						"input(uint256)": "infinite",
						"numInput()": "2426",
						"numPlayer()": "2424",
						"player_choice(address)": "2824",
						"player_not_played(address)": "2856",
						"players(uint256)": "5054",
						"reward()": "2470",
						"timeOut()": "2536",
						"timeUnit()": "infinite"
					},
					"internal": {
						"_checkWinnerAndPay()": "infinite"
					}
				},
				"methodIdentifiers": {
					"addPlayer()": "27b5db8a",
					"checkTimeOut()": "b7786503",
					"getValid()": "ad4e0407",
					"input(uint256)": "ce6e1c4e",
					"numInput()": "086f7815",
					"numPlayer()": "90d5d0c3",
					"player_choice(address)": "a040478d",
					"player_not_played(address)": "190cf745",
					"players(uint256)": "f71d96cb",
					"reward()": "228cb733",
					"timeOut()": "614d85e1",
					"timeUnit()": "3c6a7f9b"
				}
			},
			"storageLayout": {
				"storage": [
					{
						"astId": 206,
						"contract": "RPS.sol:RPS",
						"label": "numPlayer",
						"offset": 0,
						"slot": "0",
						"type": "t_uint256"
					},
					{
						"astId": 209,
						"contract": "RPS.sol:RPS",
						"label": "reward",
						"offset": 0,
						"slot": "1",
						"type": "t_uint256"
					},
					{
						"astId": 213,
						"contract": "RPS.sol:RPS",
						"label": "player_choice",
						"offset": 0,
						"slot": "2",
						"type": "t_mapping(t_address,t_uint256)"
					},
					{
						"astId": 217,
						"contract": "RPS.sol:RPS",
						"label": "player_not_played",
						"offset": 0,
						"slot": "3",
						"type": "t_mapping(t_address,t_bool)"
					},
					{
						"astId": 220,
						"contract": "RPS.sol:RPS",
						"label": "players",
						"offset": 0,
						"slot": "4",
						"type": "t_array(t_address)dyn_storage"
					},
					{
						"astId": 223,
						"contract": "RPS.sol:RPS",
						"label": "numInput",
						"offset": 0,
						"slot": "5",
						"type": "t_uint256"
					},
					{
						"astId": 230,
						"contract": "RPS.sol:RPS",
						"label": "timeUnit",
						"offset": 0,
						"slot": "6",
						"type": "t_contract(TimeUnit)582"
					},
					{
						"astId": 233,
						"contract": "RPS.sol:RPS",
						"label": "timeOut",
						"offset": 0,
						"slot": "7",
						"type": "t_uint256"
					},
					{
						"astId": 242,
						"contract": "RPS.sol:RPS",
						"label": "playerAccept",
						"offset": 0,
						"slot": "8",
						"type": "t_array(t_address)4_storage"
					}
				],
				"types": {
					"t_address": {
						"encoding": "inplace",
						"label": "address",
						"numberOfBytes": "20"
					},
					"t_array(t_address)4_storage": {
						"base": "t_address",
						"encoding": "inplace",
						"label": "address[4]",
						"numberOfBytes": "128"
					},
					"t_array(t_address)dyn_storage": {
						"base": "t_address",
						"encoding": "dynamic_array",
						"label": "address[]",
						"numberOfBytes": "32"
					},
					"t_bool": {
						"encoding": "inplace",
						"label": "bool",
						"numberOfBytes": "1"
					},
					"t_contract(TimeUnit)582": {
						"encoding": "inplace",
						"label": "contract TimeUnit",
						"numberOfBytes": "20"
					},
					"t_mapping(t_address,t_bool)": {
						"encoding": "mapping",
						"key": "t_address",
						"label": "mapping(address => bool)",
						"numberOfBytes": "32",
						"value": "t_bool"
					},
					"t_mapping(t_address,t_uint256)": {
						"encoding": "mapping",
						"key": "t_address",
						"label": "mapping(address => uint256)",
						"numberOfBytes": "32",
						"value": "t_uint256"
					},
					"t_uint256": {
						"encoding": "inplace",
						"label": "uint256",
						"numberOfBytes": "32"
					}
				}
			},
			"userdoc": {
				"kind": "user",
				"methods": {},
				"version": 1
			}
		}
	}
}