{
	"RPS.sol": {
		"RPS": {
			"abi": [
				{
					"inputs": [],
					"name": "addPlayer",
					"outputs": [],
					"stateMutability": "payable",
					"type": "function"
				},
				{
					"inputs": [],
					"name": "checkTimeOut",
					"outputs": [],
					"stateMutability": "nonpayable",
					"type": "function"
				},
				{
					"inputs": [
						{
							"internalType": "uint256",
							"name": "randomNumber",
							"type": "uint256"
						},
						{
							"internalType": "uint256",
							"name": "choice",
							"type": "uint256"
						}
					],
					"name": "getChoiceHash",
					"outputs": [
						{
							"internalType": "bytes32",
							"name": "",
							"type": "bytes32"
						}
					],
					"stateMutability": "view",
					"type": "function"
				},
				{
					"inputs": [
						{
							"internalType": "bytes32",
							"name": "choiceHash",
							"type": "bytes32"
						}
					],
					"name": "inputCommit",
					"outputs": [],
					"stateMutability": "nonpayable",
					"type": "function"
				},
				{
					"inputs": [
						{
							"internalType": "uint256",
							"name": "randomNumber",
							"type": "uint256"
						},
						{
							"internalType": "uint256",
							"name": "choice",
							"type": "uint256"
						}
					],
					"name": "inputReveal",
					"outputs": [],
					"stateMutability": "nonpayable",
					"type": "function"
				},
				{
					"inputs": [],
					"name": "numInput",
					"outputs": [
						{
							"internalType": "uint256",
							"name": "",
							"type": "uint256"
						}
					],
					"stateMutability": "view",
					"type": "function"
				},
				{
					"inputs": [],
					"name": "numInputReveal",
					"outputs": [
						{
							"internalType": "uint256",
							"name": "",
							"type": "uint256"
						}
					],
					"stateMutability": "view",
					"type": "function"
				},
				{
					"inputs": [],
					"name": "numPlayer",
					"outputs": [
						{
							"internalType": "uint256",
							"name": "",
							"type": "uint256"
						}
					],
					"stateMutability": "view",
					"type": "function"
				},
				{
					"inputs": [
						{
							"internalType": "address",
							"name": "",
							"type": "address"
						}
					],
					"name": "player_not_played",
					"outputs": [
						{
							"internalType": "bool",
							"name": "",
							"type": "bool"
						}
					],
					"stateMutability": "view",
					"type": "function"
				},
				{
					"inputs": [
						{
							"internalType": "uint256",
							"name": "",
							"type": "uint256"
						}
					],
					"name": "players",
					"outputs": [
						{
							"internalType": "address",
							"name": "",
							"type": "address"
						}
					],
					"stateMutability": "view",
					"type": "function"
				},
				{
					"inputs": [],
					"name": "reward",
					"outputs": [
						{
							"internalType": "uint256",
							"name": "",
							"type": "uint256"
						}
					],
					"stateMutability": "view",
					"type": "function"
				}
			],
			"devdoc": {
				"kind": "dev",
				"methods": {},
				"version": 1
			},
			"evm": {
				"assembly": "    /* \"RPS.sol\":132:4325  contract RPS {... */\n  mstore(0x40, 0x80)\n    /* \"RPS.sol\":176:177  0 */\n  0x00\n    /* \"RPS.sol\":152:177  uint public numPlayer = 0 */\n  dup1\n  sstore\n    /* \"RPS.sol\":205:206  0 */\n  0x00\n    /* \"RPS.sol\":184:206  uint public reward = 0 */\n  0x01\n  sstore\n    /* \"RPS.sol\":242:243  0 */\n  0x00\n    /* \"RPS.sol\":213:243  uint public numInputReveal = 0 */\n  0x02\n  sstore\n    /* \"RPS.sol\":476:477  0 */\n  0x00\n    /* \"RPS.sol\":453:477  uint public numInput = 0 */\n  0x07\n  sstore\n    /* \"RPS.sol\":514:528  new TimeUnit() */\n  mload(0x40)\n  tag_1\n  swap1\n  tag_2\n  jump\t// in\ntag_1:\n  mload(0x40)\n  dup1\n  swap2\n  sub\n  swap1\n  0x00\n  create\n  dup1\n  iszero\n  dup1\n  iszero\n  tag_3\n  jumpi\n  returndatasize\n  0x00\n  dup1\n  returndatacopy\n  revert(0x00, returndatasize)\ntag_3:\n  pop\n    /* \"RPS.sol\":486:528  TimeUnit private timeUnit = new TimeUnit() */\n  0x08\n  exp(0x0100, 0x00)\n  dup2\n  sload\n  dup2\n  0xffffffffffffffffffffffffffffffffffffffff\n  mul\n  not\n  and\n  swap1\n  dup4\n  0xffffffffffffffffffffffffffffffffffffffff\n  and\n  mul\n  or\n  swap1\n  sstore\n  pop\n    /* \"RPS.sol\":558:559  1 */\n  0x01\n    /* \"RPS.sol\":535:559  uint private timeOut = 1 */\n  0x09\n  sstore\n    /* \"RPS.sol\":602:620  new CommitReveal() */\n  mload(0x40)\n  tag_4\n  swap1\n  tag_5\n  jump\t// in\ntag_4:\n  mload(0x40)\n  dup1\n  swap2\n  sub\n  swap1\n  0x00\n  create\n  dup1\n  iszero\n  dup1\n  iszero\n  tag_6\n  jumpi\n  returndatasize\n  0x00\n  dup1\n  returndatacopy\n  revert(0x00, returndatasize)\ntag_6:\n  pop\n    /* \"RPS.sol\":566:620  CommitReveal private commitReveal = new CommitReveal() */\n  0x0a\n  exp(0x0100, 0x00)\n  dup2\n  sload\n  dup2\n  0xffffffffffffffffffffffffffffffffffffffff\n  mul\n  not\n  and\n  swap1\n  dup4\n  0xffffffffffffffffffffffffffffffffffffffff\n  and\n  mul\n  or\n  swap1\n  sstore\n  pop\n    /* \"RPS.sol\":629:882  address[4] private playerAccept = [... */\n  mload(0x40)\n  dup1\n  0x80\n  add\n  0x40\n  mstore\n  dup1\n    /* \"RPS.sol\":674:716  0x5B38Da6a701c568545dCfcB03FcB875f56beddC4 */\n  0x5b38da6a701c568545dcfcb03fcb875f56beddc4\n    /* \"RPS.sol\":629:882  address[4] private playerAccept = [... */\n  0xffffffffffffffffffffffffffffffffffffffff\n  and\n  0xffffffffffffffffffffffffffffffffffffffff\n  and\n  dup2\n  mstore\n  0x20\n  add\n    /* \"RPS.sol\":727:769  0xAb8483F64d9C6d1EcF9b849Ae677dD3315835cb2 */\n  0xab8483f64d9c6d1ecf9b849ae677dd3315835cb2\n    /* \"RPS.sol\":629:882  address[4] private playerAccept = [... */\n  0xffffffffffffffffffffffffffffffffffffffff\n  and\n  0xffffffffffffffffffffffffffffffffffffffff\n  and\n  dup2\n  mstore\n  0x20\n  add\n    /* \"RPS.sol\":780:822  0x4B20993Bc481177ec7E8f571ceCaE8A9e22C02db */\n  0x4b20993bc481177ec7e8f571cecae8a9e22c02db\n    /* \"RPS.sol\":629:882  address[4] private playerAccept = [... */\n  0xffffffffffffffffffffffffffffffffffffffff\n  and\n  0xffffffffffffffffffffffffffffffffffffffff\n  and\n  dup2\n  mstore\n  0x20\n  add\n    /* \"RPS.sol\":833:875  0x78731D3Ca6b7E34aC0F824c42a7cC18A495cabaB */\n  0x78731d3ca6b7e34ac0f824c42a7cc18a495cabab\n    /* \"RPS.sol\":629:882  address[4] private playerAccept = [... */\n  0xffffffffffffffffffffffffffffffffffffffff\n  and\n  0xffffffffffffffffffffffffffffffffffffffff\n  and\n  dup2\n  mstore\n  pop\n  0x0b\n  swap1\n  0x04\n  tag_7\n  swap3\n  swap2\n  swap1\n  tag_8\n  jump\t// in\ntag_7:\n  pop\n    /* \"RPS.sol\":132:4325  contract RPS {... */\n  callvalue\n  dup1\n  iszero\n  tag_9\n  jumpi\n  0x00\n  dup1\n  revert\ntag_9:\n  pop\n  jump(tag_10)\ntag_2:\n  dataSize(sub_1)\n  dup1\n  dataOffset(sub_1)\n  dup4\n  codecopy\n  add\n  swap1\n  jump\t// out\ntag_5:\n  dataSize(sub_2)\n  dup1\n  dataOffset(sub_2)\n  dup4\n  codecopy\n  add\n  swap1\n  jump\t// out\ntag_8:\n  dup3\n  0x04\n  dup2\n  add\n  swap3\n  dup3\n  iszero\n  tag_11\n  jumpi\n  swap2\n  0x20\n  mul\n  dup3\n  add\ntag_12:\n  dup3\n  dup2\n  gt\n  iszero\n  tag_13\n  jumpi\n  dup3\n  mload\n  dup3\n  exp(0x0100, 0x00)\n  dup2\n  sload\n  dup2\n  0xffffffffffffffffffffffffffffffffffffffff\n  mul\n  not\n  and\n  swap1\n  dup4\n  0xffffffffffffffffffffffffffffffffffffffff\n  and\n  mul\n  or\n  swap1\n  sstore\n  pop\n  swap2\n  0x20\n  add\n  swap2\n  swap1\n  0x01\n  add\n  swap1\n  jump(tag_12)\ntag_13:\ntag_11:\n  pop\n  swap1\n  pop\n  tag_14\n  swap2\n  swap1\n  tag_15\n  jump\t// in\ntag_14:\n  pop\n  swap1\n  jump\t// out\ntag_15:\ntag_16:\n  dup1\n  dup3\n  gt\n  iszero\n  tag_17\n  jumpi\n  0x00\n  dup2\n  0x00\n  swap1\n  sstore\n  pop\n  0x01\n  add\n  jump(tag_16)\ntag_17:\n  pop\n  swap1\n  jump\t// out\ntag_10:\n  dataSize(sub_0)\n  dup1\n  dataOffset(sub_0)\n  0x00\n  codecopy\n  0x00\n  return\nstop\n\nsub_0: assembly {\n        /* \"RPS.sol\":132:4325  contract RPS {... */\n      mstore(0x40, 0x80)\n      jumpi(tag_1, lt(calldatasize, 0x04))\n      shr(0xe0, calldataload(0x00))\n      dup1\n      0x7661f2b1\n      gt\n      tag_13\n      jumpi\n      dup1\n      0x7661f2b1\n      eq\n      tag_7\n      jumpi\n      dup1\n      0x84bdb0e6\n      eq\n      tag_8\n      jumpi\n      dup1\n      0x90d5d0c3\n      eq\n      tag_9\n      jumpi\n      dup1\n      0xa9c6921a\n      eq\n      tag_10\n      jumpi\n      dup1\n      0xb7786503\n      eq\n      tag_11\n      jumpi\n      dup1\n      0xf71d96cb\n      eq\n      tag_12\n      jumpi\n      jump(tag_1)\n    tag_13:\n      dup1\n      0x086f7815\n      eq\n      tag_2\n      jumpi\n      dup1\n      0x190cf745\n      eq\n      tag_3\n      jumpi\n      dup1\n      0x228cb733\n      eq\n      tag_4\n      jumpi\n      dup1\n      0x27b5db8a\n      eq\n      tag_5\n      jumpi\n      dup1\n      0x4a8232b0\n      eq\n      tag_6\n      jumpi\n    tag_1:\n      0x00\n      dup1\n      revert\n        /* \"RPS.sol\":453:477  uint public numInput = 0 */\n    tag_2:\n      callvalue\n      dup1\n      iszero\n      tag_14\n      jumpi\n      0x00\n      dup1\n      revert\n    tag_14:\n      pop\n      tag_15\n      tag_16\n      jump\t// in\n    tag_15:\n      mload(0x40)\n      tag_17\n      swap2\n      swap1\n      tag_18\n      jump\t// in\n    tag_17:\n      mload(0x40)\n      dup1\n      swap2\n      sub\n      swap1\n      return\n        /* \"RPS.sol\":366:415  mapping(address => bool) public player_not_played */\n    tag_3:\n      callvalue\n      dup1\n      iszero\n      tag_19\n      jumpi\n      0x00\n      dup1\n      revert\n    tag_19:\n      pop\n      tag_20\n      0x04\n      dup1\n      calldatasize\n      sub\n      dup2\n      add\n      swap1\n      tag_21\n      swap2\n      swap1\n      tag_22\n      jump\t// in\n    tag_21:\n      tag_23\n      jump\t// in\n    tag_20:\n      mload(0x40)\n      tag_24\n      swap2\n      swap1\n      tag_25\n      jump\t// in\n    tag_24:\n      mload(0x40)\n      dup1\n      swap2\n      sub\n      swap1\n      return\n        /* \"RPS.sol\":184:206  uint public reward = 0 */\n    tag_4:\n      callvalue\n      dup1\n      iszero\n      tag_26\n      jumpi\n      0x00\n      dup1\n      revert\n    tag_26:\n      pop\n      tag_27\n      tag_28\n      jump\t// in\n    tag_27:\n      mload(0x40)\n      tag_29\n      swap2\n      swap1\n      tag_18\n      jump\t// in\n    tag_29:\n      mload(0x40)\n      dup1\n      swap2\n      sub\n      swap1\n      return\n        /* \"RPS.sol\":1127:1492  function addPlayer() public payable {... */\n    tag_5:\n      tag_30\n      tag_31\n      jump\t// in\n    tag_30:\n      stop\n        /* \"RPS.sol\":213:243  uint public numInputReveal = 0 */\n    tag_6:\n      callvalue\n      dup1\n      iszero\n      tag_32\n      jumpi\n      0x00\n      dup1\n      revert\n    tag_32:\n      pop\n      tag_33\n      tag_34\n      jump\t// in\n    tag_33:\n      mload(0x40)\n      tag_35\n      swap2\n      swap1\n      tag_18\n      jump\t// in\n    tag_35:\n      mload(0x40)\n      dup1\n      swap2\n      sub\n      swap1\n      return\n        /* \"RPS.sol\":1500:1746  function getChoiceHash(uint randomNumber, uint choice) public view returns (bytes32) {... */\n    tag_7:\n      callvalue\n      dup1\n      iszero\n      tag_36\n      jumpi\n      0x00\n      dup1\n      revert\n    tag_36:\n      pop\n      tag_37\n      0x04\n      dup1\n      calldatasize\n      sub\n      dup2\n      add\n      swap1\n      tag_38\n      swap2\n      swap1\n      tag_39\n      jump\t// in\n    tag_38:\n      tag_40\n      jump\t// in\n    tag_37:\n      mload(0x40)\n      tag_41\n      swap2\n      swap1\n      tag_42\n      jump\t// in\n    tag_41:\n      mload(0x40)\n      dup1\n      swap2\n      sub\n      swap1\n      return\n        /* \"RPS.sol\":2070:2683  function inputReveal(uint randomNumber, uint choice) public {... */\n    tag_8:\n      callvalue\n      dup1\n      iszero\n      tag_43\n      jumpi\n      0x00\n      dup1\n      revert\n    tag_43:\n      pop\n      tag_44\n      0x04\n      dup1\n      calldatasize\n      sub\n      dup2\n      add\n      swap1\n      tag_45\n      swap2\n      swap1\n      tag_39\n      jump\t// in\n    tag_45:\n      tag_46\n      jump\t// in\n    tag_44:\n      stop\n        /* \"RPS.sol\":152:177  uint public numPlayer = 0 */\n    tag_9:\n      callvalue\n      dup1\n      iszero\n      tag_47\n      jumpi\n      0x00\n      dup1\n      revert\n    tag_47:\n      pop\n      tag_48\n      tag_49\n      jump\t// in\n    tag_48:\n      mload(0x40)\n      tag_50\n      swap2\n      swap1\n      tag_18\n      jump\t// in\n    tag_50:\n      mload(0x40)\n      dup1\n      swap2\n      sub\n      swap1\n      return\n        /* \"RPS.sol\":1754:2060  function inputCommit(bytes32 choiceHash) public {... */\n    tag_10:\n      callvalue\n      dup1\n      iszero\n      tag_51\n      jumpi\n      0x00\n      dup1\n      revert\n    tag_51:\n      pop\n      tag_52\n      0x04\n      dup1\n      calldatasize\n      sub\n      dup2\n      add\n      swap1\n      tag_53\n      swap2\n      swap1\n      tag_54\n      jump\t// in\n    tag_53:\n      tag_55\n      jump\t// in\n    tag_52:\n      stop\n        /* \"RPS.sol\":3449:4322  function checkTimeOut() public {... */\n    tag_11:\n      callvalue\n      dup1\n      iszero\n      tag_56\n      jumpi\n      0x00\n      dup1\n      revert\n    tag_56:\n      pop\n      tag_57\n      tag_58\n      jump\t// in\n    tag_57:\n      stop\n        /* \"RPS.sol\":422:446  address[] public players */\n    tag_12:\n      callvalue\n      dup1\n      iszero\n      tag_59\n      jumpi\n      0x00\n      dup1\n      revert\n    tag_59:\n      pop\n      tag_60\n      0x04\n      dup1\n      calldatasize\n      sub\n      dup2\n      add\n      swap1\n      tag_61\n      swap2\n      swap1\n      tag_62\n      jump\t// in\n    tag_61:\n      tag_63\n      jump\t// in\n    tag_60:\n      mload(0x40)\n      tag_64\n      swap2\n      swap1\n      tag_65\n      jump\t// in\n    tag_64:\n      mload(0x40)\n      dup1\n      swap2\n      sub\n      swap1\n      return\n        /* \"RPS.sol\":453:477  uint public numInput = 0 */\n    tag_16:\n      sload(0x07)\n      dup2\n      jump\t// out\n        /* \"RPS.sol\":366:415  mapping(address => bool) public player_not_played */\n    tag_23:\n      mstore(0x20, 0x05)\n      dup1\n      0x00\n      mstore\n      keccak256(0x00, 0x40)\n      0x00\n      swap2\n      pop\n      sload\n      swap1\n      0x0100\n      exp\n      swap1\n      div\n      0xff\n      and\n      dup2\n      jump\t// out\n        /* \"RPS.sol\":184:206  uint public reward = 0 */\n    tag_28:\n      sload(0x01)\n      dup2\n      jump\t// out\n        /* \"RPS.sol\":1127:1492  function addPlayer() public payable {... */\n    tag_31:\n        /* \"RPS.sol\":1194:1195  2 */\n      0x02\n        /* \"RPS.sol\":1182:1191  numPlayer */\n      sload(0x00)\n        /* \"RPS.sol\":1182:1195  numPlayer < 2 */\n      lt\n        /* \"RPS.sol\":1174:1196  require(numPlayer < 2) */\n      tag_67\n      jumpi\n      0x00\n      dup1\n      revert\n    tag_67:\n        /* \"RPS.sol\":1215:1225  getValid() */\n      tag_68\n        /* \"RPS.sol\":1215:1223  getValid */\n      tag_69\n        /* \"RPS.sol\":1215:1225  getValid() */\n      jump\t// in\n    tag_68:\n        /* \"RPS.sol\":1207:1226  require(getValid()) */\n      tag_70\n      jumpi\n      0x00\n      dup1\n      revert\n    tag_70:\n        /* \"RPS.sol\":1258:1265  1 ether */\n      0x0de0b6b3a7640000\n        /* \"RPS.sol\":1245:1254  msg.value */\n      callvalue\n        /* \"RPS.sol\":1245:1265  msg.value == 1 ether */\n      eq\n        /* \"RPS.sol\":1237:1266  require(msg.value == 1 ether) */\n      tag_71\n      jumpi\n      0x00\n      dup1\n      revert\n    tag_71:\n        /* \"RPS.sol\":1289:1298  msg.value */\n      callvalue\n        /* \"RPS.sol\":1279:1285  reward */\n      0x01\n      0x00\n        /* \"RPS.sol\":1279:1298  reward += msg.value */\n      dup3\n      dup3\n      sload\n      tag_72\n      swap2\n      swap1\n      tag_73\n      jump\t// in\n    tag_72:\n      swap3\n      pop\n      pop\n      dup2\n      swap1\n      sstore\n      pop\n        /* \"RPS.sol\":1341:1345  true */\n      0x01\n        /* \"RPS.sol\":1309:1326  player_not_played */\n      0x05\n        /* \"RPS.sol\":1309:1338  player_not_played[msg.sender] */\n      0x00\n        /* \"RPS.sol\":1327:1337  msg.sender */\n      caller\n        /* \"RPS.sol\":1309:1338  player_not_played[msg.sender] */\n      0xffffffffffffffffffffffffffffffffffffffff\n      and\n      0xffffffffffffffffffffffffffffffffffffffff\n      and\n      dup2\n      mstore\n      0x20\n      add\n      swap1\n      dup2\n      mstore\n      0x20\n      add\n      0x00\n      keccak256\n      0x00\n        /* \"RPS.sol\":1309:1345  player_not_played[msg.sender] = true */\n      0x0100\n      exp\n      dup2\n      sload\n      dup2\n      0xff\n      mul\n      not\n      and\n      swap1\n      dup4\n      iszero\n      iszero\n      mul\n      or\n      swap1\n      sstore\n      pop\n        /* \"RPS.sol\":1356:1363  players */\n      0x06\n        /* \"RPS.sol\":1369:1379  msg.sender */\n      caller\n        /* \"RPS.sol\":1356:1380  players.push(msg.sender) */\n      swap1\n      dup1\n      0x01\n      dup2\n      sload\n      add\n      dup1\n      dup3\n      sstore\n      dup1\n      swap2\n      pop\n      pop\n      0x01\n      swap1\n      sub\n      swap1\n      0x00\n      mstore\n      keccak256(0x00, 0x20)\n      add\n      0x00\n      swap1\n      swap2\n      swap1\n      swap2\n      swap1\n      swap2\n      0x0100\n      exp\n      dup2\n      sload\n      dup2\n      0xffffffffffffffffffffffffffffffffffffffff\n      mul\n      not\n      and\n      swap1\n      dup4\n      0xffffffffffffffffffffffffffffffffffffffff\n      and\n      mul\n      or\n      swap1\n      sstore\n      pop\n        /* \"RPS.sol\":1391:1400  numPlayer */\n      0x00\n      dup1\n        /* \"RPS.sol\":1391:1402  numPlayer++ */\n      dup2\n      sload\n      dup1\n      swap3\n      swap2\n      swap1\n      tag_75\n      swap1\n      tag_76\n      jump\t// in\n    tag_75:\n      swap2\n      swap1\n      pop\n      sstore\n      pop\n        /* \"RPS.sol\":1432:1433  1 */\n      0x01\n        /* \"RPS.sol\":1419:1428  numPlayer */\n      sload(0x00)\n        /* \"RPS.sol\":1419:1433  numPlayer == 1 */\n      sub\n        /* \"RPS.sol\":1415:1485  if (numPlayer == 1) {... */\n      tag_77\n      jumpi\n        /* \"RPS.sol\":1450:1458  timeUnit */\n      0x08\n      0x00\n      swap1\n      sload\n      swap1\n      0x0100\n      exp\n      swap1\n      div\n      0xffffffffffffffffffffffffffffffffffffffff\n      and\n        /* \"RPS.sol\":1450:1471  timeUnit.setStartTime */\n      0xffffffffffffffffffffffffffffffffffffffff\n      and\n      0xa63f7c53\n        /* \"RPS.sol\":1450:1473  timeUnit.setStartTime() */\n      mload(0x40)\n      dup2\n      0xffffffff\n      and\n      0xe0\n      shl\n      dup2\n      mstore\n      0x04\n      add\n      0x00\n      mload(0x40)\n      dup1\n      dup4\n      sub\n      dup2\n      0x00\n      dup8\n      dup1\n      extcodesize\n      iszero\n      dup1\n      iszero\n      tag_78\n      jumpi\n      0x00\n      dup1\n      revert\n    tag_78:\n      pop\n      gas\n      call\n      iszero\n      dup1\n      iszero\n      tag_80\n      jumpi\n      returndatasize\n      0x00\n      dup1\n      returndatacopy\n      revert(0x00, returndatasize)\n    tag_80:\n      pop\n      pop\n      pop\n      pop\n        /* \"RPS.sol\":1415:1485  if (numPlayer == 1) {... */\n    tag_77:\n        /* \"RPS.sol\":1127:1492  function addPlayer() public payable {... */\n      jump\t// out\n        /* \"RPS.sol\":213:243  uint public numInputReveal = 0 */\n    tag_34:\n      sload(0x02)\n      dup2\n      jump\t// out\n        /* \"RPS.sol\":1500:1746  function getChoiceHash(uint randomNumber, uint choice) public view returns (bytes32) {... */\n    tag_40:\n        /* \"RPS.sol\":1576:1583  bytes32 */\n      0x00\n        /* \"RPS.sol\":1596:1608  bytes32 Hash */\n      dup1\n        /* \"RPS.sol\":1638:1650  randomNumber */\n      dup4\n        /* \"RPS.sol\":1652:1658  choice */\n      dup4\n        /* \"RPS.sol\":1621:1659  abi.encodePacked(randomNumber, choice) */\n      add(0x20, mload(0x40))\n      tag_82\n      swap3\n      swap2\n      swap1\n      tag_83\n      jump\t// in\n    tag_82:\n      mload(0x40)\n      0x20\n      dup2\n      dup4\n      sub\n      sub\n      dup2\n      mstore\n      swap1\n      0x40\n      mstore\n        /* \"RPS.sol\":1611:1660  keccak256(abi.encodePacked(randomNumber, choice)) */\n      dup1\n      mload\n      swap1\n      0x20\n      add\n      keccak256\n        /* \"RPS.sol\":1596:1660  bytes32 Hash = keccak256(abi.encodePacked(randomNumber, choice)) */\n      swap1\n      pop\n        /* \"RPS.sol\":1671:1685  bytes32 result */\n      0x00\n        /* \"RPS.sol\":1688:1700  commitReveal */\n      0x0a\n      0x00\n      swap1\n      sload\n      swap1\n      0x0100\n      exp\n      swap1\n      div\n      0xffffffffffffffffffffffffffffffffffffffff\n      and\n        /* \"RPS.sol\":1688:1708  commitReveal.getHash */\n      0xffffffffffffffffffffffffffffffffffffffff\n      and\n      0x3cf5040a\n        /* \"RPS.sol\":1709:1713  Hash */\n      dup4\n        /* \"RPS.sol\":1688:1714  commitReveal.getHash(Hash) */\n      mload(0x40)\n      dup3\n      0xffffffff\n      and\n      0xe0\n      shl\n      dup2\n      mstore\n      0x04\n      add\n      tag_84\n      swap2\n      swap1\n      tag_42\n      jump\t// in\n    tag_84:\n      0x20\n      mload(0x40)\n      dup1\n      dup4\n      sub\n      dup2\n      dup7\n      gas\n      staticcall\n      iszero\n      dup1\n      iszero\n      tag_86\n      jumpi\n      returndatasize\n      0x00\n      dup1\n      returndatacopy\n      revert(0x00, returndatasize)\n    tag_86:\n      pop\n      pop\n      pop\n      pop\n      mload(0x40)\n      returndatasize\n      not(0x1f)\n      0x1f\n      dup3\n      add\n      and\n      dup3\n      add\n      dup1\n      0x40\n      mstore\n      pop\n      dup2\n      add\n      swap1\n      tag_87\n      swap2\n      swap1\n      tag_88\n      jump\t// in\n    tag_87:\n        /* \"RPS.sol\":1671:1714  bytes32 result = commitReveal.getHash(Hash) */\n      swap1\n      pop\n        /* \"RPS.sol\":1732:1738  result */\n      dup1\n        /* \"RPS.sol\":1725:1738  return result */\n      swap3\n      pop\n      pop\n      pop\n        /* \"RPS.sol\":1500:1746  function getChoiceHash(uint randomNumber, uint choice) public view returns (bytes32) {... */\n      swap3\n      swap2\n      pop\n      pop\n      jump\t// out\n        /* \"RPS.sol\":2070:2683  function inputReveal(uint randomNumber, uint choice) public {... */\n    tag_46:\n        /* \"RPS.sol\":2161:2162  2 */\n      0x02\n        /* \"RPS.sol\":2149:2157  numInput */\n      sload(0x07)\n        /* \"RPS.sol\":2149:2162  numInput == 2 */\n      eq\n        /* \"RPS.sol\":2141:2163  require(numInput == 2) */\n      tag_90\n      jumpi\n      0x00\n      dup1\n      revert\n    tag_90:\n        /* \"RPS.sol\":2184:2202  bytes32 choiceHash */\n      0x00\n        /* \"RPS.sol\":2232:2244  randomNumber */\n      dup3\n        /* \"RPS.sol\":2246:2252  choice */\n      dup3\n        /* \"RPS.sol\":2215:2253  abi.encodePacked(randomNumber, choice) */\n      add(0x20, mload(0x40))\n      tag_91\n      swap3\n      swap2\n      swap1\n      tag_83\n      jump\t// in\n    tag_91:\n      mload(0x40)\n      0x20\n      dup2\n      dup4\n      sub\n      sub\n      dup2\n      mstore\n      swap1\n      0x40\n      mstore\n        /* \"RPS.sol\":2205:2254  keccak256(abi.encodePacked(randomNumber, choice)) */\n      dup1\n      mload\n      swap1\n      0x20\n      add\n      keccak256\n        /* \"RPS.sol\":2184:2254  bytes32 choiceHash = keccak256(abi.encodePacked(randomNumber, choice)) */\n      swap1\n      pop\n        /* \"RPS.sol\":2275:2287  commitReveal */\n      0x0a\n      0x00\n      swap1\n      sload\n      swap1\n      0x0100\n      exp\n      swap1\n      div\n      0xffffffffffffffffffffffffffffffffffffffff\n      and\n        /* \"RPS.sol\":2275:2294  commitReveal.reveal */\n      0xffffffffffffffffffffffffffffffffffffffff\n      and\n      0x701fd0f1\n        /* \"RPS.sol\":2295:2305  choiceHash */\n      dup3\n        /* \"RPS.sol\":2275:2306  commitReveal.reveal(choiceHash) */\n      mload(0x40)\n      dup3\n      0xffffffff\n      and\n      0xe0\n      shl\n      dup2\n      mstore\n      0x04\n      add\n      tag_92\n      swap2\n      swap1\n      tag_42\n      jump\t// in\n    tag_92:\n      0x00\n      mload(0x40)\n      dup1\n      dup4\n      sub\n      dup2\n      0x00\n      dup8\n      dup1\n      extcodesize\n      iszero\n      dup1\n      iszero\n      tag_93\n      jumpi\n      0x00\n      dup1\n      revert\n    tag_93:\n      pop\n      gas\n      call\n      iszero\n      dup1\n      iszero\n      tag_95\n      jumpi\n      returndatasize\n      0x00\n      dup1\n      returndatacopy\n      revert(0x00, returndatasize)\n    tag_95:\n      pop\n      pop\n      pop\n      pop\n        /* \"RPS.sol\":2327:2346  uint revealedChoice */\n      0x00\n        /* \"RPS.sol\":2355:2361  choice */\n      dup3\n        /* \"RPS.sol\":2327:2362  uint revealedChoice = uint8(choice) */\n      0xff\n      and\n      swap1\n      pop\n        /* \"RPS.sol\":2399:2400  4 */\n      0x04\n        /* \"RPS.sol\":2381:2395  revealedChoice */\n      dup2\n        /* \"RPS.sol\":2381:2400  revealedChoice <= 4 */\n      gt\n      iszero\n        /* \"RPS.sol\":2381:2423  revealedChoice <= 4 && revealedChoice >= 0 */\n      dup1\n      iszero\n      tag_96\n      jumpi\n      pop\n        /* \"RPS.sol\":2422:2423  0 */\n      0x00\n        /* \"RPS.sol\":2404:2418  revealedChoice */\n      dup2\n        /* \"RPS.sol\":2404:2423  revealedChoice >= 0 */\n      lt\n      iszero\n        /* \"RPS.sol\":2381:2423  revealedChoice <= 4 && revealedChoice >= 0 */\n    tag_96:\n        /* \"RPS.sol\":2373:2424  require(revealedChoice <= 4 && revealedChoice >= 0) */\n      tag_97\n      jumpi\n      0x00\n      dup1\n      revert\n    tag_97:\n        /* \"RPS.sol\":2463:2477  revealedChoice */\n      dup1\n        /* \"RPS.sol\":2435:2448  player_choice */\n      0x04\n        /* \"RPS.sol\":2435:2460  player_choice[msg.sender] */\n      0x00\n        /* \"RPS.sol\":2449:2459  msg.sender */\n      caller\n        /* \"RPS.sol\":2435:2460  player_choice[msg.sender] */\n      0xffffffffffffffffffffffffffffffffffffffff\n      and\n      0xffffffffffffffffffffffffffffffffffffffff\n      and\n      dup2\n      mstore\n      0x20\n      add\n      swap1\n      dup2\n      mstore\n      0x20\n      add\n      0x00\n      keccak256\n        /* \"RPS.sol\":2435:2477  player_choice[msg.sender] = revealedChoice */\n      dup2\n      swap1\n      sstore\n      pop\n        /* \"RPS.sol\":2488:2502  numInputReveal */\n      0x02\n      0x00\n        /* \"RPS.sol\":2488:2504  numInputReveal++ */\n      dup2\n      sload\n      dup1\n      swap3\n      swap2\n      swap1\n      tag_98\n      swap1\n      tag_76\n      jump\t// in\n    tag_98:\n      swap2\n      swap1\n      pop\n      sstore\n      pop\n        /* \"RPS.sol\":2539:2540  2 */\n      0x02\n        /* \"RPS.sol\":2521:2535  numInputReveal */\n      dup1\n      sload\n        /* \"RPS.sol\":2521:2540  numInputReveal == 2 */\n      sub\n        /* \"RPS.sol\":2517:2676  if (numInputReveal == 2) {... */\n      tag_99\n      jumpi\n        /* \"RPS.sol\":2574:2575  0 */\n      0x00\n        /* \"RPS.sol\":2557:2571  numInputReveal */\n      0x02\n        /* \"RPS.sol\":2557:2575  numInputReveal = 0 */\n      dup2\n      swap1\n      sstore\n      pop\n        /* \"RPS.sol\":2601:2602  0 */\n      0x00\n        /* \"RPS.sol\":2590:2598  numInput */\n      0x07\n        /* \"RPS.sol\":2590:2602  numInput = 0 */\n      dup2\n      swap1\n      sstore\n      pop\n        /* \"RPS.sol\":2629:2630  0 */\n      0x00\n        /* \"RPS.sol\":2617:2626  numPlayer */\n      dup1\n        /* \"RPS.sol\":2617:2630  numPlayer = 0 */\n      dup2\n      swap1\n      sstore\n      pop\n        /* \"RPS.sol\":2645:2664  checkWinnerAndPay() */\n      tag_100\n        /* \"RPS.sol\":2645:2662  checkWinnerAndPay */\n      tag_101\n        /* \"RPS.sol\":2645:2664  checkWinnerAndPay() */\n      jump\t// in\n    tag_100:\n        /* \"RPS.sol\":2517:2676  if (numInputReveal == 2) {... */\n    tag_99:\n        /* \"RPS.sol\":2130:2683  {... */\n      pop\n      pop\n        /* \"RPS.sol\":2070:2683  function inputReveal(uint randomNumber, uint choice) public {... */\n      pop\n      pop\n      jump\t// out\n        /* \"RPS.sol\":152:177  uint public numPlayer = 0 */\n    tag_49:\n      sload(0x00)\n      dup2\n      jump\t// out\n        /* \"RPS.sol\":1754:2060  function inputCommit(bytes32 choiceHash) public {... */\n    tag_55:\n        /* \"RPS.sol\":1834:1835  2 */\n      0x02\n        /* \"RPS.sol\":1821:1830  numPlayer */\n      sload(0x00)\n        /* \"RPS.sol\":1821:1835  numPlayer == 2 */\n      eq\n        /* \"RPS.sol\":1813:1836  require(numPlayer == 2) */\n      tag_103\n      jumpi\n      0x00\n      dup1\n      revert\n    tag_103:\n        /* \"RPS.sol\":1855:1872  player_not_played */\n      0x05\n        /* \"RPS.sol\":1855:1884  player_not_played[msg.sender] */\n      0x00\n        /* \"RPS.sol\":1873:1883  msg.sender */\n      caller\n        /* \"RPS.sol\":1855:1884  player_not_played[msg.sender] */\n      0xffffffffffffffffffffffffffffffffffffffff\n      and\n      0xffffffffffffffffffffffffffffffffffffffff\n      and\n      dup2\n      mstore\n      0x20\n      add\n      swap1\n      dup2\n      mstore\n      0x20\n      add\n      0x00\n      keccak256\n      0x00\n      swap1\n      sload\n      swap1\n      0x0100\n      exp\n      swap1\n      div\n      0xff\n      and\n        /* \"RPS.sol\":1847:1885  require(player_not_played[msg.sender]) */\n      tag_104\n      jumpi\n      0x00\n      dup1\n      revert\n    tag_104:\n        /* \"RPS.sol\":1896:1908  commitReveal */\n      0x0a\n      0x00\n      swap1\n      sload\n      swap1\n      0x0100\n      exp\n      swap1\n      div\n      0xffffffffffffffffffffffffffffffffffffffff\n      and\n        /* \"RPS.sol\":1896:1915  commitReveal.commit */\n      0xffffffffffffffffffffffffffffffffffffffff\n      and\n      0xf14fcbc8\n        /* \"RPS.sol\":1916:1926  choiceHash */\n      dup3\n        /* \"RPS.sol\":1896:1927  commitReveal.commit(choiceHash) */\n      mload(0x40)\n      dup3\n      0xffffffff\n      and\n      0xe0\n      shl\n      dup2\n      mstore\n      0x04\n      add\n      tag_105\n      swap2\n      swap1\n      tag_42\n      jump\t// in\n    tag_105:\n      0x00\n      mload(0x40)\n      dup1\n      dup4\n      sub\n      dup2\n      0x00\n      dup8\n      dup1\n      extcodesize\n      iszero\n      dup1\n      iszero\n      tag_106\n      jumpi\n      0x00\n      dup1\n      revert\n    tag_106:\n      pop\n      gas\n      call\n      iszero\n      dup1\n      iszero\n      tag_108\n      jumpi\n      returndatasize\n      0x00\n      dup1\n      returndatacopy\n      revert(0x00, returndatasize)\n    tag_108:\n      pop\n      pop\n      pop\n      pop\n        /* \"RPS.sol\":1973:1983  choiceHash */\n      dup1\n        /* \"RPS.sol\":1938:1958  player_choice_commit */\n      0x03\n        /* \"RPS.sol\":1938:1970  player_choice_commit[msg.sender] */\n      0x00\n        /* \"RPS.sol\":1959:1969  msg.sender */\n      caller\n        /* \"RPS.sol\":1938:1970  player_choice_commit[msg.sender] */\n      0xffffffffffffffffffffffffffffffffffffffff\n      and\n      0xffffffffffffffffffffffffffffffffffffffff\n      and\n      dup2\n      mstore\n      0x20\n      add\n      swap1\n      dup2\n      mstore\n      0x20\n      add\n      0x00\n      keccak256\n        /* \"RPS.sol\":1938:1983  player_choice_commit[msg.sender] = choiceHash */\n      dup2\n      swap1\n      sstore\n      pop\n        /* \"RPS.sol\":2026:2031  false */\n      0x00\n        /* \"RPS.sol\":1994:2011  player_not_played */\n      0x05\n        /* \"RPS.sol\":1994:2023  player_not_played[msg.sender] */\n      0x00\n        /* \"RPS.sol\":2012:2022  msg.sender */\n      caller\n        /* \"RPS.sol\":1994:2023  player_not_played[msg.sender] */\n      0xffffffffffffffffffffffffffffffffffffffff\n      and\n      0xffffffffffffffffffffffffffffffffffffffff\n      and\n      dup2\n      mstore\n      0x20\n      add\n      swap1\n      dup2\n      mstore\n      0x20\n      add\n      0x00\n      keccak256\n      0x00\n        /* \"RPS.sol\":1994:2031  player_not_played[msg.sender] = false */\n      0x0100\n      exp\n      dup2\n      sload\n      dup2\n      0xff\n      mul\n      not\n      and\n      swap1\n      dup4\n      iszero\n      iszero\n      mul\n      or\n      swap1\n      sstore\n      pop\n        /* \"RPS.sol\":2042:2050  numInput */\n      0x07\n      0x00\n        /* \"RPS.sol\":2042:2052  numInput++ */\n      dup2\n      sload\n      dup1\n      swap3\n      swap2\n      swap1\n      tag_109\n      swap1\n      tag_76\n      jump\t// in\n    tag_109:\n      swap2\n      swap1\n      pop\n      sstore\n      pop\n        /* \"RPS.sol\":1754:2060  function inputCommit(bytes32 choiceHash) public {... */\n      pop\n      jump\t// out\n        /* \"RPS.sol\":3449:4322  function checkTimeOut() public {... */\n    tag_58:\n        /* \"RPS.sol\":3524:3531  timeOut */\n      sload(0x09)\n        /* \"RPS.sol\":3495:3503  timeUnit */\n      0x08\n      0x00\n      swap1\n      sload\n      swap1\n      0x0100\n      exp\n      swap1\n      div\n      0xffffffffffffffffffffffffffffffffffffffff\n      and\n        /* \"RPS.sol\":3495:3518  timeUnit.elapsedMinutes */\n      0xffffffffffffffffffffffffffffffffffffffff\n      and\n      0xd97c8416\n        /* \"RPS.sol\":3495:3520  timeUnit.elapsedMinutes() */\n      mload(0x40)\n      dup2\n      0xffffffff\n      and\n      0xe0\n      shl\n      dup2\n      mstore\n      0x04\n      add\n      0x20\n      mload(0x40)\n      dup1\n      dup4\n      sub\n      dup2\n      dup7\n      gas\n      staticcall\n      iszero\n      dup1\n      iszero\n      tag_112\n      jumpi\n      returndatasize\n      0x00\n      dup1\n      returndatacopy\n      revert(0x00, returndatasize)\n    tag_112:\n      pop\n      pop\n      pop\n      pop\n      mload(0x40)\n      returndatasize\n      not(0x1f)\n      0x1f\n      dup3\n      add\n      and\n      dup3\n      add\n      dup1\n      0x40\n      mstore\n      pop\n      dup2\n      add\n      swap1\n      tag_113\n      swap2\n      swap1\n      tag_114\n      jump\t// in\n    tag_113:\n        /* \"RPS.sol\":3495:3531  timeUnit.elapsedMinutes() >= timeOut */\n      lt\n        /* \"RPS.sol\":3491:4315  if (timeUnit.elapsedMinutes() >= timeOut) {... */\n      tag_115\n      jumpi\n        /* \"RPS.sol\":3570:3571  1 */\n      0x01\n        /* \"RPS.sol\":3552:3559  players */\n      0x06\n        /* \"RPS.sol\":3552:3566  players.length */\n      dup1\n      sload\n      swap1\n      pop\n        /* \"RPS.sol\":3552:3571  players.length == 1 */\n      sub\n        /* \"RPS.sol\":3548:4278  if (players.length == 1) {... */\n      tag_116\n      jumpi\n        /* \"RPS.sol\":3592:3615  address payable account */\n      0x00\n        /* \"RPS.sol\":3626:3633  players */\n      0x06\n        /* \"RPS.sol\":3634:3635  0 */\n      0x00\n        /* \"RPS.sol\":3626:3636  players[0] */\n      dup2\n      sload\n      dup2\n      lt\n      tag_117\n      jumpi\n      tag_118\n      tag_119\n      jump\t// in\n    tag_118:\n    tag_117:\n      swap1\n      0x00\n      mstore\n      keccak256(0x00, 0x20)\n      add\n      0x00\n      swap1\n      sload\n      swap1\n      0x0100\n      exp\n      swap1\n      div\n      0xffffffffffffffffffffffffffffffffffffffff\n      and\n        /* \"RPS.sol\":3592:3637  address payable account = payable(players[0]) */\n      swap1\n      pop\n        /* \"RPS.sol\":3656:3663  account */\n      dup1\n        /* \"RPS.sol\":3656:3672  account.transfer */\n      0xffffffffffffffffffffffffffffffffffffffff\n      and\n        /* \"RPS.sol\":3656:3680  account.transfer(reward) */\n      0x08fc\n        /* \"RPS.sol\":3673:3679  reward */\n      sload(0x01)\n        /* \"RPS.sol\":3656:3680  account.transfer(reward) */\n      swap1\n      dup2\n      iszero\n      mul\n      swap1\n      mload(0x40)\n      0x00\n      mload(0x40)\n      dup1\n      dup4\n      sub\n      dup2\n      dup6\n      dup9\n      dup9\n      call\n      swap4\n      pop\n      pop\n      pop\n      pop\n      iszero\n      dup1\n      iszero\n      tag_122\n      jumpi\n      returndatasize\n      0x00\n      dup1\n      returndatacopy\n      revert(0x00, returndatasize)\n    tag_122:\n      pop\n        /* \"RPS.sol\":3573:3696  {... */\n      pop\n        /* \"RPS.sol\":3548:4278  if (players.length == 1) {... */\n      jump(tag_123)\n    tag_116:\n        /* \"RPS.sol\":3719:3720  2 */\n      0x02\n        /* \"RPS.sol\":3706:3715  numPlayer */\n      sload(0x00)\n        /* \"RPS.sol\":3706:3720  numPlayer == 2 */\n      eq\n        /* \"RPS.sol\":3706:3737  numPlayer == 2 && numInput == 2 */\n      dup1\n      iszero\n      tag_124\n      jumpi\n      pop\n        /* \"RPS.sol\":3736:3737  2 */\n      0x02\n        /* \"RPS.sol\":3724:3732  numInput */\n      sload(0x07)\n        /* \"RPS.sol\":3724:3737  numInput == 2 */\n      eq\n        /* \"RPS.sol\":3706:3737  numPlayer == 2 && numInput == 2 */\n    tag_124:\n        /* \"RPS.sol\":3702:4278  if (numPlayer == 2 && numInput == 2) {... */\n      iszero\n      tag_125\n      jumpi\n        /* \"RPS.sol\":3758:3782  address payable account0 */\n      0x00\n        /* \"RPS.sol\":3793:3800  players */\n      0x06\n        /* \"RPS.sol\":3801:3802  0 */\n      0x00\n        /* \"RPS.sol\":3793:3803  players[0] */\n      dup2\n      sload\n      dup2\n      lt\n      tag_126\n      jumpi\n      tag_127\n      tag_119\n      jump\t// in\n    tag_127:\n    tag_126:\n      swap1\n      0x00\n      mstore\n      keccak256(0x00, 0x20)\n      add\n      0x00\n      swap1\n      sload\n      swap1\n      0x0100\n      exp\n      swap1\n      div\n      0xffffffffffffffffffffffffffffffffffffffff\n      and\n        /* \"RPS.sol\":3758:3804  address payable account0 = payable(players[0]) */\n      swap1\n      pop\n        /* \"RPS.sol\":3823:3847  address payable account1 */\n      0x00\n        /* \"RPS.sol\":3858:3865  players */\n      0x06\n        /* \"RPS.sol\":3866:3867  1 */\n      0x01\n        /* \"RPS.sol\":3858:3868  players[1] */\n      dup2\n      sload\n      dup2\n      lt\n      tag_129\n      jumpi\n      tag_130\n      tag_119\n      jump\t// in\n    tag_130:\n    tag_129:\n      swap1\n      0x00\n      mstore\n      keccak256(0x00, 0x20)\n      add\n      0x00\n      swap1\n      sload\n      swap1\n      0x0100\n      exp\n      swap1\n      div\n      0xffffffffffffffffffffffffffffffffffffffff\n      and\n        /* \"RPS.sol\":3823:3869  address payable account1 = payable(players[1]) */\n      swap1\n      pop\n        /* \"RPS.sol\":3888:3896  account0 */\n      dup2\n        /* \"RPS.sol\":3888:3905  account0.transfer */\n      0xffffffffffffffffffffffffffffffffffffffff\n      and\n        /* \"RPS.sol\":3888:3917  account0.transfer(reward / 2) */\n      0x08fc\n        /* \"RPS.sol\":3915:3916  2 */\n      0x02\n        /* \"RPS.sol\":3906:3912  reward */\n      sload(0x01)\n        /* \"RPS.sol\":3906:3916  reward / 2 */\n      tag_132\n      swap2\n      swap1\n      tag_133\n      jump\t// in\n    tag_132:\n        /* \"RPS.sol\":3888:3917  account0.transfer(reward / 2) */\n      swap1\n      dup2\n      iszero\n      mul\n      swap1\n      mload(0x40)\n      0x00\n      mload(0x40)\n      dup1\n      dup4\n      sub\n      dup2\n      dup6\n      dup9\n      dup9\n      call\n      swap4\n      pop\n      pop\n      pop\n      pop\n      iszero\n      dup1\n      iszero\n      tag_135\n      jumpi\n      returndatasize\n      0x00\n      dup1\n      returndatacopy\n      revert(0x00, returndatasize)\n    tag_135:\n      pop\n        /* \"RPS.sol\":3936:3944  account1 */\n      dup1\n        /* \"RPS.sol\":3936:3953  account1.transfer */\n      0xffffffffffffffffffffffffffffffffffffffff\n      and\n        /* \"RPS.sol\":3936:3965  account1.transfer(reward / 2) */\n      0x08fc\n        /* \"RPS.sol\":3963:3964  2 */\n      0x02\n        /* \"RPS.sol\":3954:3960  reward */\n      sload(0x01)\n        /* \"RPS.sol\":3954:3964  reward / 2 */\n      tag_136\n      swap2\n      swap1\n      tag_133\n      jump\t// in\n    tag_136:\n        /* \"RPS.sol\":3936:3965  account1.transfer(reward / 2) */\n      swap1\n      dup2\n      iszero\n      mul\n      swap1\n      mload(0x40)\n      0x00\n      mload(0x40)\n      dup1\n      dup4\n      sub\n      dup2\n      dup6\n      dup9\n      dup9\n      call\n      swap4\n      pop\n      pop\n      pop\n      pop\n      iszero\n      dup1\n      iszero\n      tag_138\n      jumpi\n      returndatasize\n      0x00\n      dup1\n      returndatacopy\n      revert(0x00, returndatasize)\n    tag_138:\n      pop\n        /* \"RPS.sol\":3739:3981  {... */\n      pop\n      pop\n        /* \"RPS.sol\":3702:4278  if (numPlayer == 2 && numInput == 2) {... */\n      jump(tag_139)\n    tag_125:\n        /* \"RPS.sol\":4011:4020  uint256 i */\n      0x00\n        /* \"RPS.sol\":4006:4263  for (uint256 i = 0; i < 2; i++) {... */\n    tag_140:\n        /* \"RPS.sol\":4030:4031  2 */\n      0x02\n        /* \"RPS.sol\":4026:4027  i */\n      dup2\n        /* \"RPS.sol\":4026:4031  i < 2 */\n      lt\n        /* \"RPS.sol\":4006:4263  for (uint256 i = 0; i < 2; i++) {... */\n      iszero\n      tag_141\n      jumpi\n        /* \"RPS.sol\":4066:4083  player_not_played */\n      0x05\n        /* \"RPS.sol\":4066:4095  player_not_played[players[i]] */\n      0x00\n        /* \"RPS.sol\":4084:4091  players */\n      0x06\n        /* \"RPS.sol\":4092:4093  i */\n      dup4\n        /* \"RPS.sol\":4084:4094  players[i] */\n      dup2\n      sload\n      dup2\n      lt\n      tag_143\n      jumpi\n      tag_144\n      tag_119\n      jump\t// in\n    tag_144:\n    tag_143:\n      swap1\n      0x00\n      mstore\n      keccak256(0x00, 0x20)\n      add\n      0x00\n      swap1\n      sload\n      swap1\n      0x0100\n      exp\n      swap1\n      div\n      0xffffffffffffffffffffffffffffffffffffffff\n      and\n        /* \"RPS.sol\":4066:4095  player_not_played[players[i]] */\n      0xffffffffffffffffffffffffffffffffffffffff\n      and\n      0xffffffffffffffffffffffffffffffffffffffff\n      and\n      dup2\n      mstore\n      0x20\n      add\n      swap1\n      dup2\n      mstore\n      0x20\n      add\n      0x00\n      keccak256\n      0x00\n      swap1\n      sload\n      swap1\n      0x0100\n      exp\n      swap1\n      div\n      0xff\n      and\n        /* \"RPS.sol\":4061:4244  if (!player_not_played[players[i]]) {... */\n      tag_146\n      jumpi\n        /* \"RPS.sol\":4124:4147  address payable account */\n      0x00\n        /* \"RPS.sol\":4158:4165  players */\n      0x06\n        /* \"RPS.sol\":4166:4167  i */\n      dup3\n        /* \"RPS.sol\":4158:4168  players[i] */\n      dup2\n      sload\n      dup2\n      lt\n      tag_147\n      jumpi\n      tag_148\n      tag_119\n      jump\t// in\n    tag_148:\n    tag_147:\n      swap1\n      0x00\n      mstore\n      keccak256(0x00, 0x20)\n      add\n      0x00\n      swap1\n      sload\n      swap1\n      0x0100\n      exp\n      swap1\n      div\n      0xffffffffffffffffffffffffffffffffffffffff\n      and\n        /* \"RPS.sol\":4124:4169  address payable account = payable(players[i]) */\n      swap1\n      pop\n        /* \"RPS.sol\":4196:4203  account */\n      dup1\n        /* \"RPS.sol\":4196:4212  account.transfer */\n      0xffffffffffffffffffffffffffffffffffffffff\n      and\n        /* \"RPS.sol\":4196:4220  account.transfer(reward) */\n      0x08fc\n        /* \"RPS.sol\":4213:4219  reward */\n      sload(0x01)\n        /* \"RPS.sol\":4196:4220  account.transfer(reward) */\n      swap1\n      dup2\n      iszero\n      mul\n      swap1\n      mload(0x40)\n      0x00\n      mload(0x40)\n      dup1\n      dup4\n      sub\n      dup2\n      dup6\n      dup9\n      dup9\n      call\n      swap4\n      pop\n      pop\n      pop\n      pop\n      iszero\n      dup1\n      iszero\n      tag_151\n      jumpi\n      returndatasize\n      0x00\n      dup1\n      returndatacopy\n      revert(0x00, returndatasize)\n    tag_151:\n      pop\n        /* \"RPS.sol\":4097:4244  {... */\n      pop\n        /* \"RPS.sol\":4061:4244  if (!player_not_played[players[i]]) {... */\n    tag_146:\n        /* \"RPS.sol\":4033:4036  i++ */\n      dup1\n      dup1\n      0x01\n      add\n      swap2\n      pop\n      pop\n        /* \"RPS.sol\":4006:4263  for (uint256 i = 0; i < 2; i++) {... */\n      jump(tag_140)\n    tag_141:\n      pop\n        /* \"RPS.sol\":3702:4278  if (numPlayer == 2 && numInput == 2) {... */\n    tag_139:\n        /* \"RPS.sol\":3548:4278  if (players.length == 1) {... */\n    tag_123:\n        /* \"RPS.sol\":4292:4303  resetGame() */\n      tag_152\n        /* \"RPS.sol\":4292:4301  resetGame */\n      tag_153\n        /* \"RPS.sol\":4292:4303  resetGame() */\n      jump\t// in\n    tag_152:\n        /* \"RPS.sol\":3491:4315  if (timeUnit.elapsedMinutes() >= timeOut) {... */\n    tag_115:\n        /* \"RPS.sol\":3449:4322  function checkTimeOut() public {... */\n      jump\t// out\n        /* \"RPS.sol\":422:446  address[] public players */\n    tag_63:\n      0x06\n      dup2\n      dup2\n      sload\n      dup2\n      lt\n      tag_154\n      jumpi\n      0x00\n      dup1\n      revert\n    tag_154:\n      swap1\n      0x00\n      mstore\n      keccak256(0x00, 0x20)\n      add\n      0x00\n      swap2\n      pop\n      sload\n      swap1\n      0x0100\n      exp\n      swap1\n      div\n      0xffffffffffffffffffffffffffffffffffffffff\n      and\n      dup2\n      jump\t// out\n        /* \"RPS.sol\":891:1119  function getValid() private view returns (bool) {... */\n    tag_69:\n        /* \"RPS.sol\":933:937  bool */\n      0x00\n        /* \"RPS.sol\":955:964  uint256 i */\n      dup1\n        /* \"RPS.sol\":967:968  0 */\n      0x00\n        /* \"RPS.sol\":955:968  uint256 i = 0 */\n      swap1\n      pop\n        /* \"RPS.sol\":950:1089  for (uint256 i = 0; i < 4; i++) {... */\n    tag_157:\n        /* \"RPS.sol\":974:975  4 */\n      0x04\n        /* \"RPS.sol\":970:971  i */\n      dup2\n        /* \"RPS.sol\":970:975  i < 4 */\n      lt\n        /* \"RPS.sol\":950:1089  for (uint256 i = 0; i < 4; i++) {... */\n      iszero\n      tag_158\n      jumpi\n        /* \"RPS.sol\":1015:1027  playerAccept */\n      0x0b\n        /* \"RPS.sol\":1028:1029  i */\n      dup2\n        /* \"RPS.sol\":1015:1030  playerAccept[i] */\n      0x04\n      dup2\n      lt\n      tag_160\n      jumpi\n      tag_161\n      tag_119\n      jump\t// in\n    tag_161:\n    tag_160:\n      add\n      0x00\n      swap1\n      sload\n      swap1\n      0x0100\n      exp\n      swap1\n      div\n      0xffffffffffffffffffffffffffffffffffffffff\n      and\n        /* \"RPS.sol\":1001:1030  msg.sender == playerAccept[i] */\n      0xffffffffffffffffffffffffffffffffffffffff\n      and\n        /* \"RPS.sol\":1001:1011  msg.sender */\n      caller\n        /* \"RPS.sol\":1001:1030  msg.sender == playerAccept[i] */\n      0xffffffffffffffffffffffffffffffffffffffff\n      and\n      sub\n        /* \"RPS.sol\":997:1078  if (msg.sender == playerAccept[i]) {... */\n      tag_163\n      jumpi\n        /* \"RPS.sol\":1058:1062  true */\n      0x01\n        /* \"RPS.sol\":1051:1062  return true */\n      swap2\n      pop\n      pop\n      jump(tag_156)\n        /* \"RPS.sol\":997:1078  if (msg.sender == playerAccept[i]) {... */\n    tag_163:\n        /* \"RPS.sol\":977:980  i++ */\n      dup1\n      dup1\n      0x01\n      add\n      swap2\n      pop\n      pop\n        /* \"RPS.sol\":950:1089  for (uint256 i = 0; i < 4; i++) {... */\n      jump(tag_157)\n    tag_158:\n      pop\n        /* \"RPS.sol\":1106:1111  false */\n      0x00\n        /* \"RPS.sol\":1099:1111  return false */\n      swap1\n      pop\n        /* \"RPS.sol\":891:1119  function getValid() private view returns (bool) {... */\n    tag_156:\n      swap1\n      jump\t// out\n        /* \"RPS.sol\":2693:3303  function checkWinnerAndPay() private {... */\n    tag_101:\n        /* \"RPS.sol\":2741:2754  uint p0Choice */\n      0x00\n        /* \"RPS.sol\":2757:2770  player_choice */\n      0x04\n        /* \"RPS.sol\":2757:2782  player_choice[players[0]] */\n      0x00\n        /* \"RPS.sol\":2771:2778  players */\n      0x06\n        /* \"RPS.sol\":2779:2780  0 */\n      0x00\n        /* \"RPS.sol\":2771:2781  players[0] */\n      dup2\n      sload\n      dup2\n      lt\n      tag_165\n      jumpi\n      tag_166\n      tag_119\n      jump\t// in\n    tag_166:\n    tag_165:\n      swap1\n      0x00\n      mstore\n      keccak256(0x00, 0x20)\n      add\n      0x00\n      swap1\n      sload\n      swap1\n      0x0100\n      exp\n      swap1\n      div\n      0xffffffffffffffffffffffffffffffffffffffff\n      and\n        /* \"RPS.sol\":2757:2782  player_choice[players[0]] */\n      0xffffffffffffffffffffffffffffffffffffffff\n      and\n      0xffffffffffffffffffffffffffffffffffffffff\n      and\n      dup2\n      mstore\n      0x20\n      add\n      swap1\n      dup2\n      mstore\n      0x20\n      add\n      0x00\n      keccak256\n      sload\n        /* \"RPS.sol\":2741:2782  uint p0Choice = player_choice[players[0]] */\n      swap1\n      pop\n        /* \"RPS.sol\":2793:2806  uint p1Choice */\n      0x00\n        /* \"RPS.sol\":2809:2822  player_choice */\n      0x04\n        /* \"RPS.sol\":2809:2834  player_choice[players[1]] */\n      0x00\n        /* \"RPS.sol\":2823:2830  players */\n      0x06\n        /* \"RPS.sol\":2831:2832  1 */\n      0x01\n        /* \"RPS.sol\":2823:2833  players[1] */\n      dup2\n      sload\n      dup2\n      lt\n      tag_168\n      jumpi\n      tag_169\n      tag_119\n      jump\t// in\n    tag_169:\n    tag_168:\n      swap1\n      0x00\n      mstore\n      keccak256(0x00, 0x20)\n      add\n      0x00\n      swap1\n      sload\n      swap1\n      0x0100\n      exp\n      swap1\n      div\n      0xffffffffffffffffffffffffffffffffffffffff\n      and\n        /* \"RPS.sol\":2809:2834  player_choice[players[1]] */\n      0xffffffffffffffffffffffffffffffffffffffff\n      and\n      0xffffffffffffffffffffffffffffffffffffffff\n      and\n      dup2\n      mstore\n      0x20\n      add\n      swap1\n      dup2\n      mstore\n      0x20\n      add\n      0x00\n      keccak256\n      sload\n        /* \"RPS.sol\":2793:2834  uint p1Choice = player_choice[players[1]] */\n      swap1\n      pop\n        /* \"RPS.sol\":2845:2869  address payable account0 */\n      0x00\n        /* \"RPS.sol\":2880:2887  players */\n      0x06\n        /* \"RPS.sol\":2888:2889  0 */\n      0x00\n        /* \"RPS.sol\":2880:2890  players[0] */\n      dup2\n      sload\n      dup2\n      lt\n      tag_171\n      jumpi\n      tag_172\n      tag_119\n      jump\t// in\n    tag_172:\n    tag_171:\n      swap1\n      0x00\n      mstore\n      keccak256(0x00, 0x20)\n      add\n      0x00\n      swap1\n      sload\n      swap1\n      0x0100\n      exp\n      swap1\n      div\n      0xffffffffffffffffffffffffffffffffffffffff\n      and\n        /* \"RPS.sol\":2845:2891  address payable account0 = payable(players[0]) */\n      swap1\n      pop\n        /* \"RPS.sol\":2902:2926  address payable account1 */\n      0x00\n        /* \"RPS.sol\":2937:2944  players */\n      0x06\n        /* \"RPS.sol\":2945:2946  1 */\n      0x01\n        /* \"RPS.sol\":2937:2947  players[1] */\n      dup2\n      sload\n      dup2\n      lt\n      tag_174\n      jumpi\n      tag_175\n      tag_119\n      jump\t// in\n    tag_175:\n    tag_174:\n      swap1\n      0x00\n      mstore\n      keccak256(0x00, 0x20)\n      add\n      0x00\n      swap1\n      sload\n      swap1\n      0x0100\n      exp\n      swap1\n      div\n      0xffffffffffffffffffffffffffffffffffffffff\n      and\n        /* \"RPS.sol\":2902:2948  address payable account1 = payable(players[1]) */\n      swap1\n      pop\n        /* \"RPS.sol\":2977:2985  p1Choice */\n      dup3\n        /* \"RPS.sol\":2965:2973  p0Choice */\n      dup5\n        /* \"RPS.sol\":2965:2985  p0Choice == p1Choice */\n      sub\n        /* \"RPS.sol\":2961:3273  if (p0Choice == p1Choice) {... */\n      tag_177\n      jumpi\n        /* \"RPS.sol\":3002:3010  account0 */\n      dup2\n        /* \"RPS.sol\":3002:3019  account0.transfer */\n      0xffffffffffffffffffffffffffffffffffffffff\n      and\n        /* \"RPS.sol\":3002:3031  account0.transfer(reward / 2) */\n      0x08fc\n        /* \"RPS.sol\":3029:3030  2 */\n      0x02\n        /* \"RPS.sol\":3020:3026  reward */\n      sload(0x01)\n        /* \"RPS.sol\":3020:3030  reward / 2 */\n      tag_178\n      swap2\n      swap1\n      tag_133\n      jump\t// in\n    tag_178:\n        /* \"RPS.sol\":3002:3031  account0.transfer(reward / 2) */\n      swap1\n      dup2\n      iszero\n      mul\n      swap1\n      mload(0x40)\n      0x00\n      mload(0x40)\n      dup1\n      dup4\n      sub\n      dup2\n      dup6\n      dup9\n      dup9\n      call\n      swap4\n      pop\n      pop\n      pop\n      pop\n      iszero\n      dup1\n      iszero\n      tag_180\n      jumpi\n      returndatasize\n      0x00\n      dup1\n      returndatacopy\n      revert(0x00, returndatasize)\n    tag_180:\n      pop\n        /* \"RPS.sol\":3046:3054  account1 */\n      dup1\n        /* \"RPS.sol\":3046:3063  account1.transfer */\n      0xffffffffffffffffffffffffffffffffffffffff\n      and\n        /* \"RPS.sol\":3046:3075  account1.transfer(reward / 2) */\n      0x08fc\n        /* \"RPS.sol\":3073:3074  2 */\n      0x02\n        /* \"RPS.sol\":3064:3070  reward */\n      sload(0x01)\n        /* \"RPS.sol\":3064:3074  reward / 2 */\n      tag_181\n      swap2\n      swap1\n      tag_133\n      jump\t// in\n    tag_181:\n        /* \"RPS.sol\":3046:3075  account1.transfer(reward / 2) */\n      swap1\n      dup2\n      iszero\n      mul\n      swap1\n      mload(0x40)\n      0x00\n      mload(0x40)\n      dup1\n      dup4\n      sub\n      dup2\n      dup6\n      dup9\n      dup9\n      call\n      swap4\n      pop\n      pop\n      pop\n      pop\n      iszero\n      dup1\n      iszero\n      tag_183\n      jumpi\n      returndatasize\n      0x00\n      dup1\n      returndatacopy\n      revert(0x00, returndatasize)\n    tag_183:\n      pop\n        /* \"RPS.sol\":2961:3273  if (p0Choice == p1Choice) {... */\n      jump(tag_184)\n    tag_177:\n        /* \"RPS.sol\":3119:3127  p0Choice */\n      dup4\n        /* \"RPS.sol\":3114:3115  5 */\n      0x05\n        /* \"RPS.sol\":3109:3110  1 */\n      0x01\n        /* \"RPS.sol\":3098:3106  p1Choice */\n      dup6\n        /* \"RPS.sol\":3098:3110  p1Choice + 1 */\n      tag_185\n      swap2\n      swap1\n      tag_73\n      jump\t// in\n    tag_185:\n        /* \"RPS.sol\":3097:3115  (p1Choice + 1) % 5 */\n      tag_186\n      swap2\n      swap1\n      tag_187\n      jump\t// in\n    tag_186:\n        /* \"RPS.sol\":3097:3127  (p1Choice + 1) % 5 == p0Choice */\n      eq\n        /* \"RPS.sol\":3097:3161  (p1Choice + 1) % 5 == p0Choice || (p1Choice + 3) % 5 == p0Choice */\n      dup1\n      tag_188\n      jumpi\n      pop\n        /* \"RPS.sol\":3153:3161  p0Choice */\n      dup4\n        /* \"RPS.sol\":3148:3149  5 */\n      0x05\n        /* \"RPS.sol\":3143:3144  3 */\n      0x03\n        /* \"RPS.sol\":3132:3140  p1Choice */\n      dup6\n        /* \"RPS.sol\":3132:3144  p1Choice + 3 */\n      tag_189\n      swap2\n      swap1\n      tag_73\n      jump\t// in\n    tag_189:\n        /* \"RPS.sol\":3131:3149  (p1Choice + 3) % 5 */\n      tag_190\n      swap2\n      swap1\n      tag_187\n      jump\t// in\n    tag_190:\n        /* \"RPS.sol\":3131:3161  (p1Choice + 3) % 5 == p0Choice */\n      eq\n        /* \"RPS.sol\":3097:3161  (p1Choice + 1) % 5 == p0Choice || (p1Choice + 3) % 5 == p0Choice */\n    tag_188:\n        /* \"RPS.sol\":3093:3273  if ((p1Choice + 1) % 5 == p0Choice || (p1Choice + 3) % 5 == p0Choice) {... */\n      iszero\n      tag_191\n      jumpi\n        /* \"RPS.sol\":3178:3186  account0 */\n      dup2\n        /* \"RPS.sol\":3178:3195  account0.transfer */\n      0xffffffffffffffffffffffffffffffffffffffff\n      and\n        /* \"RPS.sol\":3178:3203  account0.transfer(reward) */\n      0x08fc\n        /* \"RPS.sol\":3196:3202  reward */\n      sload(0x01)\n        /* \"RPS.sol\":3178:3203  account0.transfer(reward) */\n      swap1\n      dup2\n      iszero\n      mul\n      swap1\n      mload(0x40)\n      0x00\n      mload(0x40)\n      dup1\n      dup4\n      sub\n      dup2\n      dup6\n      dup9\n      dup9\n      call\n      swap4\n      pop\n      pop\n      pop\n      pop\n      iszero\n      dup1\n      iszero\n      tag_193\n      jumpi\n      returndatasize\n      0x00\n      dup1\n      returndatacopy\n      revert(0x00, returndatasize)\n    tag_193:\n      pop\n        /* \"RPS.sol\":3093:3273  if ((p1Choice + 1) % 5 == p0Choice || (p1Choice + 3) % 5 == p0Choice) {... */\n      jump(tag_194)\n    tag_191:\n        /* \"RPS.sol\":3236:3244  account1 */\n      dup1\n        /* \"RPS.sol\":3236:3253  account1.transfer */\n      0xffffffffffffffffffffffffffffffffffffffff\n      and\n        /* \"RPS.sol\":3236:3261  account1.transfer(reward) */\n      0x08fc\n        /* \"RPS.sol\":3254:3260  reward */\n      sload(0x01)\n        /* \"RPS.sol\":3236:3261  account1.transfer(reward) */\n      swap1\n      dup2\n      iszero\n      mul\n      swap1\n      mload(0x40)\n      0x00\n      mload(0x40)\n      dup1\n      dup4\n      sub\n      dup2\n      dup6\n      dup9\n      dup9\n      call\n      swap4\n      pop\n      pop\n      pop\n      pop\n      iszero\n      dup1\n      iszero\n      tag_196\n      jumpi\n      returndatasize\n      0x00\n      dup1\n      returndatacopy\n      revert(0x00, returndatasize)\n    tag_196:\n      pop\n        /* \"RPS.sol\":3093:3273  if ((p1Choice + 1) % 5 == p0Choice || (p1Choice + 3) % 5 == p0Choice) {... */\n    tag_194:\n        /* \"RPS.sol\":2961:3273  if (p0Choice == p1Choice) {... */\n    tag_184:\n        /* \"RPS.sol\":3294:3295  0 */\n      0x00\n        /* \"RPS.sol\":3285:3291  reward */\n      0x01\n        /* \"RPS.sol\":3285:3295  reward = 0 */\n      dup2\n      swap1\n      sstore\n      pop\n        /* \"RPS.sol\":2730:3303  {... */\n      pop\n      pop\n      pop\n      pop\n        /* \"RPS.sol\":2693:3303  function checkWinnerAndPay() private {... */\n      jump\t// out\n        /* \"RPS.sol\":3311:3441  function resetGame() private {... */\n    tag_153:\n        /* \"RPS.sol\":3358:3365  players */\n      0x06\n      0x00\n        /* \"RPS.sol\":3351:3365  delete players */\n      tag_198\n      swap2\n      swap1\n      tag_199\n      jump\t// in\n    tag_198:\n        /* \"RPS.sol\":3387:3388  0 */\n      0x00\n        /* \"RPS.sol\":3376:3384  numInput */\n      0x07\n        /* \"RPS.sol\":3376:3388  numInput = 0 */\n      dup2\n      swap1\n      sstore\n      pop\n        /* \"RPS.sol\":3411:3412  0 */\n      0x00\n        /* \"RPS.sol\":3399:3408  numPlayer */\n      dup1\n        /* \"RPS.sol\":3399:3412  numPlayer = 0 */\n      dup2\n      swap1\n      sstore\n      pop\n        /* \"RPS.sol\":3432:3433  0 */\n      0x00\n        /* \"RPS.sol\":3423:3429  reward */\n      0x01\n        /* \"RPS.sol\":3423:3433  reward = 0 */\n      dup2\n      swap1\n      sstore\n      pop\n        /* \"RPS.sol\":3311:3441  function resetGame() private {... */\n      jump\t// out\n    tag_199:\n      pop\n      dup1\n      sload\n      0x00\n      dup3\n      sstore\n      swap1\n      0x00\n      mstore\n      keccak256(0x00, 0x20)\n      swap1\n      dup2\n      add\n      swap1\n      tag_201\n      swap2\n      swap1\n      tag_202\n      jump\t// in\n    tag_201:\n      pop\n      jump\t// out\n    tag_202:\n    tag_203:\n      dup1\n      dup3\n      gt\n      iszero\n      tag_204\n      jumpi\n      0x00\n      dup2\n      0x00\n      swap1\n      sstore\n      pop\n      0x01\n      add\n      jump(tag_203)\n    tag_204:\n      pop\n      swap1\n      jump\t// out\n        /* \"#utility.yul\":7:84   */\n    tag_205:\n        /* \"#utility.yul\":44:51   */\n      0x00\n        /* \"#utility.yul\":73:78   */\n      dup2\n        /* \"#utility.yul\":62:78   */\n      swap1\n      pop\n        /* \"#utility.yul\":7:84   */\n      swap2\n      swap1\n      pop\n      jump\t// out\n        /* \"#utility.yul\":90:208   */\n    tag_206:\n        /* \"#utility.yul\":177:201   */\n      tag_232\n        /* \"#utility.yul\":195:200   */\n      dup2\n        /* \"#utility.yul\":177:201   */\n      tag_205\n      jump\t// in\n    tag_232:\n        /* \"#utility.yul\":172:175   */\n      dup3\n        /* \"#utility.yul\":165:202   */\n      mstore\n        /* \"#utility.yul\":90:208   */\n      pop\n      pop\n      jump\t// out\n        /* \"#utility.yul\":214:436   */\n    tag_18:\n        /* \"#utility.yul\":307:311   */\n      0x00\n        /* \"#utility.yul\":345:347   */\n      0x20\n        /* \"#utility.yul\":334:343   */\n      dup3\n        /* \"#utility.yul\":330:348   */\n      add\n        /* \"#utility.yul\":322:348   */\n      swap1\n      pop\n        /* \"#utility.yul\":358:429   */\n      tag_234\n        /* \"#utility.yul\":426:427   */\n      0x00\n        /* \"#utility.yul\":415:424   */\n      dup4\n        /* \"#utility.yul\":411:428   */\n      add\n        /* \"#utility.yul\":402:408   */\n      dup5\n        /* \"#utility.yul\":358:429   */\n      tag_206\n      jump\t// in\n    tag_234:\n        /* \"#utility.yul\":214:436   */\n      swap3\n      swap2\n      pop\n      pop\n      jump\t// out\n        /* \"#utility.yul\":523:640   */\n    tag_208:\n        /* \"#utility.yul\":632:633   */\n      0x00\n        /* \"#utility.yul\":629:630   */\n      dup1\n        /* \"#utility.yul\":622:634   */\n      revert\n        /* \"#utility.yul\":769:895   */\n    tag_210:\n        /* \"#utility.yul\":806:813   */\n      0x00\n        /* \"#utility.yul\":846:888   */\n      0xffffffffffffffffffffffffffffffffffffffff\n        /* \"#utility.yul\":839:844   */\n      dup3\n        /* \"#utility.yul\":835:889   */\n      and\n        /* \"#utility.yul\":824:889   */\n      swap1\n      pop\n        /* \"#utility.yul\":769:895   */\n      swap2\n      swap1\n      pop\n      jump\t// out\n        /* \"#utility.yul\":901:997   */\n    tag_211:\n        /* \"#utility.yul\":938:945   */\n      0x00\n        /* \"#utility.yul\":967:991   */\n      tag_240\n        /* \"#utility.yul\":985:990   */\n      dup3\n        /* \"#utility.yul\":967:991   */\n      tag_210\n      jump\t// in\n    tag_240:\n        /* \"#utility.yul\":956:991   */\n      swap1\n      pop\n        /* \"#utility.yul\":901:997   */\n      swap2\n      swap1\n      pop\n      jump\t// out\n        /* \"#utility.yul\":1003:1125   */\n    tag_212:\n        /* \"#utility.yul\":1076:1100   */\n      tag_242\n        /* \"#utility.yul\":1094:1099   */\n      dup2\n        /* \"#utility.yul\":1076:1100   */\n      tag_211\n      jump\t// in\n    tag_242:\n        /* \"#utility.yul\":1069:1074   */\n      dup2\n        /* \"#utility.yul\":1066:1101   */\n      eq\n        /* \"#utility.yul\":1056:1119   */\n      tag_243\n      jumpi\n        /* \"#utility.yul\":1115:1116   */\n      0x00\n        /* \"#utility.yul\":1112:1113   */\n      dup1\n        /* \"#utility.yul\":1105:1117   */\n      revert\n        /* \"#utility.yul\":1056:1119   */\n    tag_243:\n        /* \"#utility.yul\":1003:1125   */\n      pop\n      jump\t// out\n        /* \"#utility.yul\":1131:1270   */\n    tag_213:\n        /* \"#utility.yul\":1177:1182   */\n      0x00\n        /* \"#utility.yul\":1215:1221   */\n      dup2\n        /* \"#utility.yul\":1202:1222   */\n      calldataload\n        /* \"#utility.yul\":1193:1222   */\n      swap1\n      pop\n        /* \"#utility.yul\":1231:1264   */\n      tag_245\n        /* \"#utility.yul\":1258:1263   */\n      dup2\n        /* \"#utility.yul\":1231:1264   */\n      tag_212\n      jump\t// in\n    tag_245:\n        /* \"#utility.yul\":1131:1270   */\n      swap3\n      swap2\n      pop\n      pop\n      jump\t// out\n        /* \"#utility.yul\":1276:1605   */\n    tag_22:\n        /* \"#utility.yul\":1335:1341   */\n      0x00\n        /* \"#utility.yul\":1384:1386   */\n      0x20\n        /* \"#utility.yul\":1372:1381   */\n      dup3\n        /* \"#utility.yul\":1363:1370   */\n      dup5\n        /* \"#utility.yul\":1359:1382   */\n      sub\n        /* \"#utility.yul\":1355:1387   */\n      slt\n        /* \"#utility.yul\":1352:1471   */\n      iszero\n      tag_247\n      jumpi\n        /* \"#utility.yul\":1390:1469   */\n      tag_248\n      tag_208\n      jump\t// in\n    tag_248:\n        /* \"#utility.yul\":1352:1471   */\n    tag_247:\n        /* \"#utility.yul\":1510:1511   */\n      0x00\n        /* \"#utility.yul\":1535:1588   */\n      tag_249\n        /* \"#utility.yul\":1580:1587   */\n      dup5\n        /* \"#utility.yul\":1571:1577   */\n      dup3\n        /* \"#utility.yul\":1560:1569   */\n      dup6\n        /* \"#utility.yul\":1556:1578   */\n      add\n        /* \"#utility.yul\":1535:1588   */\n      tag_213\n      jump\t// in\n    tag_249:\n        /* \"#utility.yul\":1525:1588   */\n      swap2\n      pop\n        /* \"#utility.yul\":1481:1598   */\n      pop\n        /* \"#utility.yul\":1276:1605   */\n      swap3\n      swap2\n      pop\n      pop\n      jump\t// out\n        /* \"#utility.yul\":1611:1701   */\n    tag_214:\n        /* \"#utility.yul\":1645:1652   */\n      0x00\n        /* \"#utility.yul\":1688:1693   */\n      dup2\n        /* \"#utility.yul\":1681:1694   */\n      iszero\n        /* \"#utility.yul\":1674:1695   */\n      iszero\n        /* \"#utility.yul\":1663:1695   */\n      swap1\n      pop\n        /* \"#utility.yul\":1611:1701   */\n      swap2\n      swap1\n      pop\n      jump\t// out\n        /* \"#utility.yul\":1707:1816   */\n    tag_215:\n        /* \"#utility.yul\":1788:1809   */\n      tag_252\n        /* \"#utility.yul\":1803:1808   */\n      dup2\n        /* \"#utility.yul\":1788:1809   */\n      tag_214\n      jump\t// in\n    tag_252:\n        /* \"#utility.yul\":1783:1786   */\n      dup3\n        /* \"#utility.yul\":1776:1810   */\n      mstore\n        /* \"#utility.yul\":1707:1816   */\n      pop\n      pop\n      jump\t// out\n        /* \"#utility.yul\":1822:2032   */\n    tag_25:\n        /* \"#utility.yul\":1909:1913   */\n      0x00\n        /* \"#utility.yul\":1947:1949   */\n      0x20\n        /* \"#utility.yul\":1936:1945   */\n      dup3\n        /* \"#utility.yul\":1932:1950   */\n      add\n        /* \"#utility.yul\":1924:1950   */\n      swap1\n      pop\n        /* \"#utility.yul\":1960:2025   */\n      tag_254\n        /* \"#utility.yul\":2022:2023   */\n      0x00\n        /* \"#utility.yul\":2011:2020   */\n      dup4\n        /* \"#utility.yul\":2007:2024   */\n      add\n        /* \"#utility.yul\":1998:2004   */\n      dup5\n        /* \"#utility.yul\":1960:2025   */\n      tag_215\n      jump\t// in\n    tag_254:\n        /* \"#utility.yul\":1822:2032   */\n      swap3\n      swap2\n      pop\n      pop\n      jump\t// out\n        /* \"#utility.yul\":2038:2160   */\n    tag_216:\n        /* \"#utility.yul\":2111:2135   */\n      tag_256\n        /* \"#utility.yul\":2129:2134   */\n      dup2\n        /* \"#utility.yul\":2111:2135   */\n      tag_205\n      jump\t// in\n    tag_256:\n        /* \"#utility.yul\":2104:2109   */\n      dup2\n        /* \"#utility.yul\":2101:2136   */\n      eq\n        /* \"#utility.yul\":2091:2154   */\n      tag_257\n      jumpi\n        /* \"#utility.yul\":2150:2151   */\n      0x00\n        /* \"#utility.yul\":2147:2148   */\n      dup1\n        /* \"#utility.yul\":2140:2152   */\n      revert\n        /* \"#utility.yul\":2091:2154   */\n    tag_257:\n        /* \"#utility.yul\":2038:2160   */\n      pop\n      jump\t// out\n        /* \"#utility.yul\":2166:2305   */\n    tag_217:\n        /* \"#utility.yul\":2212:2217   */\n      0x00\n        /* \"#utility.yul\":2250:2256   */\n      dup2\n        /* \"#utility.yul\":2237:2257   */\n      calldataload\n        /* \"#utility.yul\":2228:2257   */\n      swap1\n      pop\n        /* \"#utility.yul\":2266:2299   */\n      tag_259\n        /* \"#utility.yul\":2293:2298   */\n      dup2\n        /* \"#utility.yul\":2266:2299   */\n      tag_216\n      jump\t// in\n    tag_259:\n        /* \"#utility.yul\":2166:2305   */\n      swap3\n      swap2\n      pop\n      pop\n      jump\t// out\n        /* \"#utility.yul\":2311:2785   */\n    tag_39:\n        /* \"#utility.yul\":2379:2385   */\n      0x00\n        /* \"#utility.yul\":2387:2393   */\n      dup1\n        /* \"#utility.yul\":2436:2438   */\n      0x40\n        /* \"#utility.yul\":2424:2433   */\n      dup4\n        /* \"#utility.yul\":2415:2422   */\n      dup6\n        /* \"#utility.yul\":2411:2434   */\n      sub\n        /* \"#utility.yul\":2407:2439   */\n      slt\n        /* \"#utility.yul\":2404:2523   */\n      iszero\n      tag_261\n      jumpi\n        /* \"#utility.yul\":2442:2521   */\n      tag_262\n      tag_208\n      jump\t// in\n    tag_262:\n        /* \"#utility.yul\":2404:2523   */\n    tag_261:\n        /* \"#utility.yul\":2562:2563   */\n      0x00\n        /* \"#utility.yul\":2587:2640   */\n      tag_263\n        /* \"#utility.yul\":2632:2639   */\n      dup6\n        /* \"#utility.yul\":2623:2629   */\n      dup3\n        /* \"#utility.yul\":2612:2621   */\n      dup7\n        /* \"#utility.yul\":2608:2630   */\n      add\n        /* \"#utility.yul\":2587:2640   */\n      tag_217\n      jump\t// in\n    tag_263:\n        /* \"#utility.yul\":2577:2640   */\n      swap3\n      pop\n        /* \"#utility.yul\":2533:2650   */\n      pop\n        /* \"#utility.yul\":2689:2691   */\n      0x20\n        /* \"#utility.yul\":2715:2768   */\n      tag_264\n        /* \"#utility.yul\":2760:2767   */\n      dup6\n        /* \"#utility.yul\":2751:2757   */\n      dup3\n        /* \"#utility.yul\":2740:2749   */\n      dup7\n        /* \"#utility.yul\":2736:2758   */\n      add\n        /* \"#utility.yul\":2715:2768   */\n      tag_217\n      jump\t// in\n    tag_264:\n        /* \"#utility.yul\":2705:2768   */\n      swap2\n      pop\n        /* \"#utility.yul\":2660:2778   */\n      pop\n        /* \"#utility.yul\":2311:2785   */\n      swap3\n      pop\n      swap3\n      swap1\n      pop\n      jump\t// out\n        /* \"#utility.yul\":2791:2868   */\n    tag_218:\n        /* \"#utility.yul\":2828:2835   */\n      0x00\n        /* \"#utility.yul\":2857:2862   */\n      dup2\n        /* \"#utility.yul\":2846:2862   */\n      swap1\n      pop\n        /* \"#utility.yul\":2791:2868   */\n      swap2\n      swap1\n      pop\n      jump\t// out\n        /* \"#utility.yul\":2874:2992   */\n    tag_219:\n        /* \"#utility.yul\":2961:2985   */\n      tag_267\n        /* \"#utility.yul\":2979:2984   */\n      dup2\n        /* \"#utility.yul\":2961:2985   */\n      tag_218\n      jump\t// in\n    tag_267:\n        /* \"#utility.yul\":2956:2959   */\n      dup3\n        /* \"#utility.yul\":2949:2986   */\n      mstore\n        /* \"#utility.yul\":2874:2992   */\n      pop\n      pop\n      jump\t// out\n        /* \"#utility.yul\":2998:3220   */\n    tag_42:\n        /* \"#utility.yul\":3091:3095   */\n      0x00\n        /* \"#utility.yul\":3129:3131   */\n      0x20\n        /* \"#utility.yul\":3118:3127   */\n      dup3\n        /* \"#utility.yul\":3114:3132   */\n      add\n        /* \"#utility.yul\":3106:3132   */\n      swap1\n      pop\n        /* \"#utility.yul\":3142:3213   */\n      tag_269\n        /* \"#utility.yul\":3210:3211   */\n      0x00\n        /* \"#utility.yul\":3199:3208   */\n      dup4\n        /* \"#utility.yul\":3195:3212   */\n      add\n        /* \"#utility.yul\":3186:3192   */\n      dup5\n        /* \"#utility.yul\":3142:3213   */\n      tag_219\n      jump\t// in\n    tag_269:\n        /* \"#utility.yul\":2998:3220   */\n      swap3\n      swap2\n      pop\n      pop\n      jump\t// out\n        /* \"#utility.yul\":3226:3348   */\n    tag_220:\n        /* \"#utility.yul\":3299:3323   */\n      tag_271\n        /* \"#utility.yul\":3317:3322   */\n      dup2\n        /* \"#utility.yul\":3299:3323   */\n      tag_218\n      jump\t// in\n    tag_271:\n        /* \"#utility.yul\":3292:3297   */\n      dup2\n        /* \"#utility.yul\":3289:3324   */\n      eq\n        /* \"#utility.yul\":3279:3342   */\n      tag_272\n      jumpi\n        /* \"#utility.yul\":3338:3339   */\n      0x00\n        /* \"#utility.yul\":3335:3336   */\n      dup1\n        /* \"#utility.yul\":3328:3340   */\n      revert\n        /* \"#utility.yul\":3279:3342   */\n    tag_272:\n        /* \"#utility.yul\":3226:3348   */\n      pop\n      jump\t// out\n        /* \"#utility.yul\":3354:3493   */\n    tag_221:\n        /* \"#utility.yul\":3400:3405   */\n      0x00\n        /* \"#utility.yul\":3438:3444   */\n      dup2\n        /* \"#utility.yul\":3425:3445   */\n      calldataload\n        /* \"#utility.yul\":3416:3445   */\n      swap1\n      pop\n        /* \"#utility.yul\":3454:3487   */\n      tag_274\n        /* \"#utility.yul\":3481:3486   */\n      dup2\n        /* \"#utility.yul\":3454:3487   */\n      tag_220\n      jump\t// in\n    tag_274:\n        /* \"#utility.yul\":3354:3493   */\n      swap3\n      swap2\n      pop\n      pop\n      jump\t// out\n        /* \"#utility.yul\":3499:3828   */\n    tag_54:\n        /* \"#utility.yul\":3558:3564   */\n      0x00\n        /* \"#utility.yul\":3607:3609   */\n      0x20\n        /* \"#utility.yul\":3595:3604   */\n      dup3\n        /* \"#utility.yul\":3586:3593   */\n      dup5\n        /* \"#utility.yul\":3582:3605   */\n      sub\n        /* \"#utility.yul\":3578:3610   */\n      slt\n        /* \"#utility.yul\":3575:3694   */\n      iszero\n      tag_276\n      jumpi\n        /* \"#utility.yul\":3613:3692   */\n      tag_277\n      tag_208\n      jump\t// in\n    tag_277:\n        /* \"#utility.yul\":3575:3694   */\n    tag_276:\n        /* \"#utility.yul\":3733:3734   */\n      0x00\n        /* \"#utility.yul\":3758:3811   */\n      tag_278\n        /* \"#utility.yul\":3803:3810   */\n      dup5\n        /* \"#utility.yul\":3794:3800   */\n      dup3\n        /* \"#utility.yul\":3783:3792   */\n      dup6\n        /* \"#utility.yul\":3779:3801   */\n      add\n        /* \"#utility.yul\":3758:3811   */\n      tag_221\n      jump\t// in\n    tag_278:\n        /* \"#utility.yul\":3748:3811   */\n      swap2\n      pop\n        /* \"#utility.yul\":3704:3821   */\n      pop\n        /* \"#utility.yul\":3499:3828   */\n      swap3\n      swap2\n      pop\n      pop\n      jump\t// out\n        /* \"#utility.yul\":3834:4163   */\n    tag_62:\n        /* \"#utility.yul\":3893:3899   */\n      0x00\n        /* \"#utility.yul\":3942:3944   */\n      0x20\n        /* \"#utility.yul\":3930:3939   */\n      dup3\n        /* \"#utility.yul\":3921:3928   */\n      dup5\n        /* \"#utility.yul\":3917:3940   */\n      sub\n        /* \"#utility.yul\":3913:3945   */\n      slt\n        /* \"#utility.yul\":3910:4029   */\n      iszero\n      tag_280\n      jumpi\n        /* \"#utility.yul\":3948:4027   */\n      tag_281\n      tag_208\n      jump\t// in\n    tag_281:\n        /* \"#utility.yul\":3910:4029   */\n    tag_280:\n        /* \"#utility.yul\":4068:4069   */\n      0x00\n        /* \"#utility.yul\":4093:4146   */\n      tag_282\n        /* \"#utility.yul\":4138:4145   */\n      dup5\n        /* \"#utility.yul\":4129:4135   */\n      dup3\n        /* \"#utility.yul\":4118:4127   */\n      dup6\n        /* \"#utility.yul\":4114:4136   */\n      add\n        /* \"#utility.yul\":4093:4146   */\n      tag_217\n      jump\t// in\n    tag_282:\n        /* \"#utility.yul\":4083:4146   */\n      swap2\n      pop\n        /* \"#utility.yul\":4039:4156   */\n      pop\n        /* \"#utility.yul\":3834:4163   */\n      swap3\n      swap2\n      pop\n      pop\n      jump\t// out\n        /* \"#utility.yul\":4169:4287   */\n    tag_222:\n        /* \"#utility.yul\":4256:4280   */\n      tag_284\n        /* \"#utility.yul\":4274:4279   */\n      dup2\n        /* \"#utility.yul\":4256:4280   */\n      tag_211\n      jump\t// in\n    tag_284:\n        /* \"#utility.yul\":4251:4254   */\n      dup3\n        /* \"#utility.yul\":4244:4281   */\n      mstore\n        /* \"#utility.yul\":4169:4287   */\n      pop\n      pop\n      jump\t// out\n        /* \"#utility.yul\":4293:4515   */\n    tag_65:\n        /* \"#utility.yul\":4386:4390   */\n      0x00\n        /* \"#utility.yul\":4424:4426   */\n      0x20\n        /* \"#utility.yul\":4413:4422   */\n      dup3\n        /* \"#utility.yul\":4409:4427   */\n      add\n        /* \"#utility.yul\":4401:4427   */\n      swap1\n      pop\n        /* \"#utility.yul\":4437:4508   */\n      tag_286\n        /* \"#utility.yul\":4505:4506   */\n      0x00\n        /* \"#utility.yul\":4494:4503   */\n      dup4\n        /* \"#utility.yul\":4490:4507   */\n      add\n        /* \"#utility.yul\":4481:4487   */\n      dup5\n        /* \"#utility.yul\":4437:4508   */\n      tag_222\n      jump\t// in\n    tag_286:\n        /* \"#utility.yul\":4293:4515   */\n      swap3\n      swap2\n      pop\n      pop\n      jump\t// out\n        /* \"#utility.yul\":4521:4701   */\n    tag_223:\n        /* \"#utility.yul\":4569:4646   */\n      0x4e487b7100000000000000000000000000000000000000000000000000000000\n        /* \"#utility.yul\":4566:4567   */\n      0x00\n        /* \"#utility.yul\":4559:4647   */\n      mstore\n        /* \"#utility.yul\":4666:4670   */\n      0x11\n        /* \"#utility.yul\":4663:4664   */\n      0x04\n        /* \"#utility.yul\":4656:4671   */\n      mstore\n        /* \"#utility.yul\":4690:4694   */\n      0x24\n        /* \"#utility.yul\":4687:4688   */\n      0x00\n        /* \"#utility.yul\":4680:4695   */\n      revert\n        /* \"#utility.yul\":4707:4898   */\n    tag_73:\n        /* \"#utility.yul\":4747:4750   */\n      0x00\n        /* \"#utility.yul\":4766:4786   */\n      tag_289\n        /* \"#utility.yul\":4784:4785   */\n      dup3\n        /* \"#utility.yul\":4766:4786   */\n      tag_205\n      jump\t// in\n    tag_289:\n        /* \"#utility.yul\":4761:4786   */\n      swap2\n      pop\n        /* \"#utility.yul\":4800:4820   */\n      tag_290\n        /* \"#utility.yul\":4818:4819   */\n      dup4\n        /* \"#utility.yul\":4800:4820   */\n      tag_205\n      jump\t// in\n    tag_290:\n        /* \"#utility.yul\":4795:4820   */\n      swap3\n      pop\n        /* \"#utility.yul\":4843:4844   */\n      dup3\n        /* \"#utility.yul\":4840:4841   */\n      dup3\n        /* \"#utility.yul\":4836:4845   */\n      add\n        /* \"#utility.yul\":4829:4845   */\n      swap1\n      pop\n        /* \"#utility.yul\":4864:4867   */\n      dup1\n        /* \"#utility.yul\":4861:4862   */\n      dup3\n        /* \"#utility.yul\":4858:4868   */\n      gt\n        /* \"#utility.yul\":4855:4891   */\n      iszero\n      tag_291\n      jumpi\n        /* \"#utility.yul\":4871:4889   */\n      tag_292\n      tag_223\n      jump\t// in\n    tag_292:\n        /* \"#utility.yul\":4855:4891   */\n    tag_291:\n        /* \"#utility.yul\":4707:4898   */\n      swap3\n      swap2\n      pop\n      pop\n      jump\t// out\n        /* \"#utility.yul\":4904:5137   */\n    tag_76:\n        /* \"#utility.yul\":4943:4946   */\n      0x00\n        /* \"#utility.yul\":4966:4990   */\n      tag_294\n        /* \"#utility.yul\":4984:4989   */\n      dup3\n        /* \"#utility.yul\":4966:4990   */\n      tag_205\n      jump\t// in\n    tag_294:\n        /* \"#utility.yul\":4957:4990   */\n      swap2\n      pop\n        /* \"#utility.yul\":5012:5078   */\n      0xffffffffffffffffffffffffffffffffffffffffffffffffffffffffffffffff\n        /* \"#utility.yul\":5005:5010   */\n      dup3\n        /* \"#utility.yul\":5002:5079   */\n      sub\n        /* \"#utility.yul\":4999:5102   */\n      tag_295\n      jumpi\n        /* \"#utility.yul\":5082:5100   */\n      tag_296\n      tag_223\n      jump\t// in\n    tag_296:\n        /* \"#utility.yul\":4999:5102   */\n    tag_295:\n        /* \"#utility.yul\":5129:5130   */\n      0x01\n        /* \"#utility.yul\":5122:5127   */\n      dup3\n        /* \"#utility.yul\":5118:5131   */\n      add\n        /* \"#utility.yul\":5111:5131   */\n      swap1\n      pop\n        /* \"#utility.yul\":4904:5137   */\n      swap2\n      swap1\n      pop\n      jump\t// out\n        /* \"#utility.yul\":5143:5222   */\n    tag_224:\n        /* \"#utility.yul\":5182:5189   */\n      0x00\n        /* \"#utility.yul\":5211:5216   */\n      dup2\n        /* \"#utility.yul\":5200:5216   */\n      swap1\n      pop\n        /* \"#utility.yul\":5143:5222   */\n      swap2\n      swap1\n      pop\n      jump\t// out\n        /* \"#utility.yul\":5228:5385   */\n    tag_225:\n        /* \"#utility.yul\":5333:5378   */\n      tag_299\n        /* \"#utility.yul\":5353:5377   */\n      tag_300\n        /* \"#utility.yul\":5371:5376   */\n      dup3\n        /* \"#utility.yul\":5353:5377   */\n      tag_205\n      jump\t// in\n    tag_300:\n        /* \"#utility.yul\":5333:5378   */\n      tag_224\n      jump\t// in\n    tag_299:\n        /* \"#utility.yul\":5328:5331   */\n      dup3\n        /* \"#utility.yul\":5321:5379   */\n      mstore\n        /* \"#utility.yul\":5228:5385   */\n      pop\n      pop\n      jump\t// out\n        /* \"#utility.yul\":5391:5788   */\n    tag_83:\n        /* \"#utility.yul\":5531:5534   */\n      0x00\n        /* \"#utility.yul\":5546:5621   */\n      tag_302\n        /* \"#utility.yul\":5617:5620   */\n      dup3\n        /* \"#utility.yul\":5608:5614   */\n      dup6\n        /* \"#utility.yul\":5546:5621   */\n      tag_225\n      jump\t// in\n    tag_302:\n        /* \"#utility.yul\":5646:5648   */\n      0x20\n        /* \"#utility.yul\":5641:5644   */\n      dup3\n        /* \"#utility.yul\":5637:5649   */\n      add\n        /* \"#utility.yul\":5630:5649   */\n      swap2\n      pop\n        /* \"#utility.yul\":5659:5734   */\n      tag_303\n        /* \"#utility.yul\":5730:5733   */\n      dup3\n        /* \"#utility.yul\":5721:5727   */\n      dup5\n        /* \"#utility.yul\":5659:5734   */\n      tag_225\n      jump\t// in\n    tag_303:\n        /* \"#utility.yul\":5759:5761   */\n      0x20\n        /* \"#utility.yul\":5754:5757   */\n      dup3\n        /* \"#utility.yul\":5750:5762   */\n      add\n        /* \"#utility.yul\":5743:5762   */\n      swap2\n      pop\n        /* \"#utility.yul\":5779:5782   */\n      dup2\n        /* \"#utility.yul\":5772:5782   */\n      swap1\n      pop\n        /* \"#utility.yul\":5391:5788   */\n      swap4\n      swap3\n      pop\n      pop\n      pop\n      jump\t// out\n        /* \"#utility.yul\":5794:5937   */\n    tag_226:\n        /* \"#utility.yul\":5851:5856   */\n      0x00\n        /* \"#utility.yul\":5882:5888   */\n      dup2\n        /* \"#utility.yul\":5876:5889   */\n      mload\n        /* \"#utility.yul\":5867:5889   */\n      swap1\n      pop\n        /* \"#utility.yul\":5898:5931   */\n      tag_305\n        /* \"#utility.yul\":5925:5930   */\n      dup2\n        /* \"#utility.yul\":5898:5931   */\n      tag_220\n      jump\t// in\n    tag_305:\n        /* \"#utility.yul\":5794:5937   */\n      swap3\n      swap2\n      pop\n      pop\n      jump\t// out\n        /* \"#utility.yul\":5943:6294   */\n    tag_88:\n        /* \"#utility.yul\":6013:6019   */\n      0x00\n        /* \"#utility.yul\":6062:6064   */\n      0x20\n        /* \"#utility.yul\":6050:6059   */\n      dup3\n        /* \"#utility.yul\":6041:6048   */\n      dup5\n        /* \"#utility.yul\":6037:6060   */\n      sub\n        /* \"#utility.yul\":6033:6065   */\n      slt\n        /* \"#utility.yul\":6030:6149   */\n      iszero\n      tag_307\n      jumpi\n        /* \"#utility.yul\":6068:6147   */\n      tag_308\n      tag_208\n      jump\t// in\n    tag_308:\n        /* \"#utility.yul\":6030:6149   */\n    tag_307:\n        /* \"#utility.yul\":6188:6189   */\n      0x00\n        /* \"#utility.yul\":6213:6277   */\n      tag_309\n        /* \"#utility.yul\":6269:6276   */\n      dup5\n        /* \"#utility.yul\":6260:6266   */\n      dup3\n        /* \"#utility.yul\":6249:6258   */\n      dup6\n        /* \"#utility.yul\":6245:6267   */\n      add\n        /* \"#utility.yul\":6213:6277   */\n      tag_226\n      jump\t// in\n    tag_309:\n        /* \"#utility.yul\":6203:6277   */\n      swap2\n      pop\n        /* \"#utility.yul\":6159:6287   */\n      pop\n        /* \"#utility.yul\":5943:6294   */\n      swap3\n      swap2\n      pop\n      pop\n      jump\t// out\n        /* \"#utility.yul\":6300:6443   */\n    tag_227:\n        /* \"#utility.yul\":6357:6362   */\n      0x00\n        /* \"#utility.yul\":6388:6394   */\n      dup2\n        /* \"#utility.yul\":6382:6395   */\n      mload\n        /* \"#utility.yul\":6373:6395   */\n      swap1\n      pop\n        /* \"#utility.yul\":6404:6437   */\n      tag_311\n        /* \"#utility.yul\":6431:6436   */\n      dup2\n        /* \"#utility.yul\":6404:6437   */\n      tag_216\n      jump\t// in\n    tag_311:\n        /* \"#utility.yul\":6300:6443   */\n      swap3\n      swap2\n      pop\n      pop\n      jump\t// out\n        /* \"#utility.yul\":6449:6800   */\n    tag_114:\n        /* \"#utility.yul\":6519:6525   */\n      0x00\n        /* \"#utility.yul\":6568:6570   */\n      0x20\n        /* \"#utility.yul\":6556:6565   */\n      dup3\n        /* \"#utility.yul\":6547:6554   */\n      dup5\n        /* \"#utility.yul\":6543:6566   */\n      sub\n        /* \"#utility.yul\":6539:6571   */\n      slt\n        /* \"#utility.yul\":6536:6655   */\n      iszero\n      tag_313\n      jumpi\n        /* \"#utility.yul\":6574:6653   */\n      tag_314\n      tag_208\n      jump\t// in\n    tag_314:\n        /* \"#utility.yul\":6536:6655   */\n    tag_313:\n        /* \"#utility.yul\":6694:6695   */\n      0x00\n        /* \"#utility.yul\":6719:6783   */\n      tag_315\n        /* \"#utility.yul\":6775:6782   */\n      dup5\n        /* \"#utility.yul\":6766:6772   */\n      dup3\n        /* \"#utility.yul\":6755:6764   */\n      dup6\n        /* \"#utility.yul\":6751:6773   */\n      add\n        /* \"#utility.yul\":6719:6783   */\n      tag_227\n      jump\t// in\n    tag_315:\n        /* \"#utility.yul\":6709:6783   */\n      swap2\n      pop\n        /* \"#utility.yul\":6665:6793   */\n      pop\n        /* \"#utility.yul\":6449:6800   */\n      swap3\n      swap2\n      pop\n      pop\n      jump\t// out\n        /* \"#utility.yul\":6806:6986   */\n    tag_119:\n        /* \"#utility.yul\":6854:6931   */\n      0x4e487b7100000000000000000000000000000000000000000000000000000000\n        /* \"#utility.yul\":6851:6852   */\n      0x00\n        /* \"#utility.yul\":6844:6932   */\n      mstore\n        /* \"#utility.yul\":6951:6955   */\n      0x32\n        /* \"#utility.yul\":6948:6949   */\n      0x04\n        /* \"#utility.yul\":6941:6956   */\n      mstore\n        /* \"#utility.yul\":6975:6979   */\n      0x24\n        /* \"#utility.yul\":6972:6973   */\n      0x00\n        /* \"#utility.yul\":6965:6980   */\n      revert\n        /* \"#utility.yul\":6992:7172   */\n    tag_228:\n        /* \"#utility.yul\":7040:7117   */\n      0x4e487b7100000000000000000000000000000000000000000000000000000000\n        /* \"#utility.yul\":7037:7038   */\n      0x00\n        /* \"#utility.yul\":7030:7118   */\n      mstore\n        /* \"#utility.yul\":7137:7141   */\n      0x12\n        /* \"#utility.yul\":7134:7135   */\n      0x04\n        /* \"#utility.yul\":7127:7142   */\n      mstore\n        /* \"#utility.yul\":7161:7165   */\n      0x24\n        /* \"#utility.yul\":7158:7159   */\n      0x00\n        /* \"#utility.yul\":7151:7166   */\n      revert\n        /* \"#utility.yul\":7178:7363   */\n    tag_133:\n        /* \"#utility.yul\":7218:7219   */\n      0x00\n        /* \"#utility.yul\":7235:7255   */\n      tag_319\n        /* \"#utility.yul\":7253:7254   */\n      dup3\n        /* \"#utility.yul\":7235:7255   */\n      tag_205\n      jump\t// in\n    tag_319:\n        /* \"#utility.yul\":7230:7255   */\n      swap2\n      pop\n        /* \"#utility.yul\":7269:7289   */\n      tag_320\n        /* \"#utility.yul\":7287:7288   */\n      dup4\n        /* \"#utility.yul\":7269:7289   */\n      tag_205\n      jump\t// in\n    tag_320:\n        /* \"#utility.yul\":7264:7289   */\n      swap3\n      pop\n        /* \"#utility.yul\":7308:7309   */\n      dup3\n        /* \"#utility.yul\":7298:7333   */\n      tag_321\n      jumpi\n        /* \"#utility.yul\":7313:7331   */\n      tag_322\n      tag_228\n      jump\t// in\n    tag_322:\n        /* \"#utility.yul\":7298:7333   */\n    tag_321:\n        /* \"#utility.yul\":7355:7356   */\n      dup3\n        /* \"#utility.yul\":7352:7353   */\n      dup3\n        /* \"#utility.yul\":7348:7357   */\n      div\n        /* \"#utility.yul\":7343:7357   */\n      swap1\n      pop\n        /* \"#utility.yul\":7178:7363   */\n      swap3\n      swap2\n      pop\n      pop\n      jump\t// out\n        /* \"#utility.yul\":7369:7545   */\n    tag_187:\n        /* \"#utility.yul\":7401:7402   */\n      0x00\n        /* \"#utility.yul\":7418:7438   */\n      tag_324\n        /* \"#utility.yul\":7436:7437   */\n      dup3\n        /* \"#utility.yul\":7418:7438   */\n      tag_205\n      jump\t// in\n    tag_324:\n        /* \"#utility.yul\":7413:7438   */\n      swap2\n      pop\n        /* \"#utility.yul\":7452:7472   */\n      tag_325\n        /* \"#utility.yul\":7470:7471   */\n      dup4\n        /* \"#utility.yul\":7452:7472   */\n      tag_205\n      jump\t// in\n    tag_325:\n        /* \"#utility.yul\":7447:7472   */\n      swap3\n      pop\n        /* \"#utility.yul\":7491:7492   */\n      dup3\n        /* \"#utility.yul\":7481:7516   */\n      tag_326\n      jumpi\n        /* \"#utility.yul\":7496:7514   */\n      tag_327\n      tag_228\n      jump\t// in\n    tag_327:\n        /* \"#utility.yul\":7481:7516   */\n    tag_326:\n        /* \"#utility.yul\":7537:7538   */\n      dup3\n        /* \"#utility.yul\":7534:7535   */\n      dup3\n        /* \"#utility.yul\":7530:7539   */\n      mod\n        /* \"#utility.yul\":7525:7539   */\n      swap1\n      pop\n        /* \"#utility.yul\":7369:7545   */\n      swap3\n      swap2\n      pop\n      pop\n      jump\t// out\n\n    auxdata: 0xa2646970667358221220b2a3e706674359b0bb40e5d667c6e6acaf132d1ac21d3dfac2ec90e6e223805664736f6c634300081a0033\n}\n\nsub_1: assembly {\n        /* \"TimeUnit.sol\":136:1086  contract TimeUnit { ... */\n      mstore(0x40, 0x80)\n      callvalue\n      dup1\n      iszero\n      tag_1\n      jumpi\n      0x00\n      dup1\n      revert\n    tag_1:\n      pop\n      dataSize(sub_0)\n      dup1\n      dataOffset(sub_0)\n      0x00\n      codecopy\n      0x00\n      return\n    stop\n\n    sub_0: assembly {\n            /* \"TimeUnit.sol\":136:1086  contract TimeUnit { ... */\n          mstore(0x40, 0x80)\n          callvalue\n          dup1\n          iszero\n          tag_1\n          jumpi\n          0x00\n          dup1\n          revert\n        tag_1:\n          pop\n          jumpi(tag_2, lt(calldatasize, 0x04))\n          shr(0xe0, calldataload(0x00))\n          dup1\n          0x78e97925\n          eq\n          tag_3\n          jumpi\n          dup1\n          0xa63f7c53\n          eq\n          tag_4\n          jumpi\n          dup1\n          0xbc06b8cd\n          eq\n          tag_5\n          jumpi\n          dup1\n          0xd97c8416\n          eq\n          tag_6\n          jumpi\n        tag_2:\n          0x00\n          dup1\n          revert\n            /* \"TimeUnit.sol\":307:331  uint256 public startTime */\n        tag_3:\n          tag_7\n          tag_8\n          jump\t// in\n        tag_7:\n          mload(0x40)\n          tag_9\n          swap2\n          swap1\n          tag_10\n          jump\t// in\n        tag_9:\n          mload(0x40)\n          dup1\n          swap2\n          sub\n          swap1\n          return\n            /* \"TimeUnit.sol\":379:452  function setStartTime() public { ... */\n        tag_4:\n          tag_11\n          tag_12\n          jump\t// in\n        tag_11:\n          stop\n            /* \"TimeUnit.sol\":576:683  function elapsedSeconds() public view returns (uint256) { ... */\n        tag_5:\n          tag_13\n          tag_14\n          jump\t// in\n        tag_13:\n          mload(0x40)\n          tag_15\n          swap2\n          swap1\n          tag_10\n          jump\t// in\n        tag_15:\n          mload(0x40)\n          dup1\n          swap2\n          sub\n          swap1\n          return\n            /* \"TimeUnit.sol\":799:1082  function elapsedMinutes() public view returns (uint256) { ... */\n        tag_6:\n          tag_16\n          tag_17\n          jump\t// in\n        tag_16:\n          mload(0x40)\n          tag_18\n          swap2\n          swap1\n          tag_10\n          jump\t// in\n        tag_18:\n          mload(0x40)\n          dup1\n          swap2\n          sub\n          swap1\n          return\n            /* \"TimeUnit.sol\":307:331  uint256 public startTime */\n        tag_8:\n          sload(0x00)\n          dup2\n          jump\t// out\n            /* \"TimeUnit.sol\":379:452  function setStartTime() public { ... */\n        tag_12:\n            /* \"TimeUnit.sol\":430:445  block.timestamp */\n          timestamp\n            /* \"TimeUnit.sol\":418:427  startTime */\n          0x00\n            /* \"TimeUnit.sol\":418:445  startTime = block.timestamp */\n          dup2\n          swap1\n          sstore\n          pop\n            /* \"TimeUnit.sol\":379:452  function setStartTime() public { ... */\n          jump\t// out\n            /* \"TimeUnit.sol\":576:683  function elapsedSeconds() public view returns (uint256) { ... */\n        tag_14:\n            /* \"TimeUnit.sol\":623:630  uint256 */\n          0x00\n            /* \"TimeUnit.sol\":666:675  startTime */\n          dup1\n          sload\n            /* \"TimeUnit.sol\":648:663  block.timestamp */\n          timestamp\n            /* \"TimeUnit.sol\":648:675  block.timestamp - startTime */\n          tag_21\n          swap2\n          swap1\n          tag_22\n          jump\t// in\n        tag_21:\n            /* \"TimeUnit.sol\":640:676  return (block.timestamp - startTime) */\n          swap1\n          pop\n            /* \"TimeUnit.sol\":576:683  function elapsedSeconds() public view returns (uint256) { ... */\n          swap1\n          jump\t// out\n            /* \"TimeUnit.sol\":799:1082  function elapsedMinutes() public view returns (uint256) { ... */\n        tag_17:\n            /* \"TimeUnit.sol\":846:853  uint256 */\n          0x00\n            /* \"TimeUnit.sol\":1066:1075  1 minutes */\n          0x3c\n            /* \"TimeUnit.sol\":1053:1062  startTime */\n          sload(0x00)\n            /* \"TimeUnit.sol\":1035:1050  block.timestamp */\n          timestamp\n            /* \"TimeUnit.sol\":1035:1062  block.timestamp - startTime */\n          tag_24\n          swap2\n          swap1\n          tag_22\n          jump\t// in\n        tag_24:\n            /* \"TimeUnit.sol\":1034:1075  (block.timestamp - startTime) / 1 minutes */\n          tag_25\n          swap2\n          swap1\n          tag_26\n          jump\t// in\n        tag_25:\n            /* \"TimeUnit.sol\":1027:1075  return (block.timestamp - startTime) / 1 minutes */\n          swap1\n          pop\n            /* \"TimeUnit.sol\":799:1082  function elapsedMinutes() public view returns (uint256) { ... */\n          swap1\n          jump\t// out\n            /* \"#utility.yul\":7:84   */\n        tag_27:\n            /* \"#utility.yul\":44:51   */\n          0x00\n            /* \"#utility.yul\":73:78   */\n          dup2\n            /* \"#utility.yul\":62:78   */\n          swap1\n          pop\n            /* \"#utility.yul\":7:84   */\n          swap2\n          swap1\n          pop\n          jump\t// out\n            /* \"#utility.yul\":90:208   */\n        tag_28:\n            /* \"#utility.yul\":177:201   */\n          tag_34\n            /* \"#utility.yul\":195:200   */\n          dup2\n            /* \"#utility.yul\":177:201   */\n          tag_27\n          jump\t// in\n        tag_34:\n            /* \"#utility.yul\":172:175   */\n          dup3\n            /* \"#utility.yul\":165:202   */\n          mstore\n            /* \"#utility.yul\":90:208   */\n          pop\n          pop\n          jump\t// out\n            /* \"#utility.yul\":214:436   */\n        tag_10:\n            /* \"#utility.yul\":307:311   */\n          0x00\n            /* \"#utility.yul\":345:347   */\n          0x20\n            /* \"#utility.yul\":334:343   */\n          dup3\n            /* \"#utility.yul\":330:348   */\n          add\n            /* \"#utility.yul\":322:348   */\n          swap1\n          pop\n            /* \"#utility.yul\":358:429   */\n          tag_36\n            /* \"#utility.yul\":426:427   */\n          0x00\n            /* \"#utility.yul\":415:424   */\n          dup4\n            /* \"#utility.yul\":411:428   */\n          add\n            /* \"#utility.yul\":402:408   */\n          dup5\n            /* \"#utility.yul\":358:429   */\n          tag_28\n          jump\t// in\n        tag_36:\n            /* \"#utility.yul\":214:436   */\n          swap3\n          swap2\n          pop\n          pop\n          jump\t// out\n            /* \"#utility.yul\":442:622   */\n        tag_29:\n            /* \"#utility.yul\":490:567   */\n          0x4e487b7100000000000000000000000000000000000000000000000000000000\n            /* \"#utility.yul\":487:488   */\n          0x00\n            /* \"#utility.yul\":480:568   */\n          mstore\n            /* \"#utility.yul\":587:591   */\n          0x11\n            /* \"#utility.yul\":584:585   */\n          0x04\n            /* \"#utility.yul\":577:592   */\n          mstore\n            /* \"#utility.yul\":611:615   */\n          0x24\n            /* \"#utility.yul\":608:609   */\n          0x00\n            /* \"#utility.yul\":601:616   */\n          revert\n            /* \"#utility.yul\":628:822   */\n        tag_22:\n            /* \"#utility.yul\":668:672   */\n          0x00\n            /* \"#utility.yul\":688:708   */\n          tag_39\n            /* \"#utility.yul\":706:707   */\n          dup3\n            /* \"#utility.yul\":688:708   */\n          tag_27\n          jump\t// in\n        tag_39:\n            /* \"#utility.yul\":683:708   */\n          swap2\n          pop\n            /* \"#utility.yul\":722:742   */\n          tag_40\n            /* \"#utility.yul\":740:741   */\n          dup4\n            /* \"#utility.yul\":722:742   */\n          tag_27\n          jump\t// in\n        tag_40:\n            /* \"#utility.yul\":717:742   */\n          swap3\n          pop\n            /* \"#utility.yul\":766:767   */\n          dup3\n            /* \"#utility.yul\":763:764   */\n          dup3\n            /* \"#utility.yul\":759:768   */\n          sub\n            /* \"#utility.yul\":751:768   */\n          swap1\n          pop\n            /* \"#utility.yul\":790:791   */\n          dup2\n            /* \"#utility.yul\":784:788   */\n          dup2\n            /* \"#utility.yul\":781:792   */\n          gt\n            /* \"#utility.yul\":778:815   */\n          iszero\n          tag_41\n          jumpi\n            /* \"#utility.yul\":795:813   */\n          tag_42\n          tag_29\n          jump\t// in\n        tag_42:\n            /* \"#utility.yul\":778:815   */\n        tag_41:\n            /* \"#utility.yul\":628:822   */\n          swap3\n          swap2\n          pop\n          pop\n          jump\t// out\n            /* \"#utility.yul\":828:1008   */\n        tag_30:\n            /* \"#utility.yul\":876:953   */\n          0x4e487b7100000000000000000000000000000000000000000000000000000000\n            /* \"#utility.yul\":873:874   */\n          0x00\n            /* \"#utility.yul\":866:954   */\n          mstore\n            /* \"#utility.yul\":973:977   */\n          0x12\n            /* \"#utility.yul\":970:971   */\n          0x04\n            /* \"#utility.yul\":963:978   */\n          mstore\n            /* \"#utility.yul\":997:1001   */\n          0x24\n            /* \"#utility.yul\":994:995   */\n          0x00\n            /* \"#utility.yul\":987:1002   */\n          revert\n            /* \"#utility.yul\":1014:1199   */\n        tag_26:\n            /* \"#utility.yul\":1054:1055   */\n          0x00\n            /* \"#utility.yul\":1071:1091   */\n          tag_45\n            /* \"#utility.yul\":1089:1090   */\n          dup3\n            /* \"#utility.yul\":1071:1091   */\n          tag_27\n          jump\t// in\n        tag_45:\n            /* \"#utility.yul\":1066:1091   */\n          swap2\n          pop\n            /* \"#utility.yul\":1105:1125   */\n          tag_46\n            /* \"#utility.yul\":1123:1124   */\n          dup4\n            /* \"#utility.yul\":1105:1125   */\n          tag_27\n          jump\t// in\n        tag_46:\n            /* \"#utility.yul\":1100:1125   */\n          swap3\n          pop\n            /* \"#utility.yul\":1144:1145   */\n          dup3\n            /* \"#utility.yul\":1134:1169   */\n          tag_47\n          jumpi\n            /* \"#utility.yul\":1149:1167   */\n          tag_48\n          tag_30\n          jump\t// in\n        tag_48:\n            /* \"#utility.yul\":1134:1169   */\n        tag_47:\n            /* \"#utility.yul\":1191:1192   */\n          dup3\n            /* \"#utility.yul\":1188:1189   */\n          dup3\n            /* \"#utility.yul\":1184:1193   */\n          div\n            /* \"#utility.yul\":1179:1193   */\n          swap1\n          pop\n            /* \"#utility.yul\":1014:1199   */\n          swap3\n          swap2\n          pop\n          pop\n          jump\t// out\n\n        auxdata: 0xa2646970667358221220aac731c651a41091e78c4c68ca2cde2e708ec23868c1bbf8979319bbf0b1f7c164736f6c634300081a0033\n    }\n}\n\nsub_2: assembly {\n        /* \"CommitReveal.sol\":70:1928  contract CommitReveal {... */\n      mstore(0x40, 0x80)\n        /* \"CommitReveal.sol\":116:119  100 */\n      0x64\n        /* \"CommitReveal.sol\":97:119  uint8 public max = 100 */\n      0x00\n      dup1\n      0x0100\n      exp\n      dup2\n      sload\n      dup2\n      0xff\n      mul\n      not\n      and\n      swap1\n      dup4\n      0xff\n      and\n      mul\n      or\n      swap1\n      sstore\n      pop\n        /* \"CommitReveal.sol\":70:1928  contract CommitReveal {... */\n      callvalue\n      dup1\n      iszero\n      tag_1\n      jumpi\n      0x00\n      dup1\n      revert\n    tag_1:\n      pop\n      dataSize(sub_0)\n      dup1\n      dataOffset(sub_0)\n      0x00\n      codecopy\n      0x00\n      return\n    stop\n\n    sub_0: assembly {\n            /* \"CommitReveal.sol\":70:1928  contract CommitReveal {... */\n          mstore(0x40, 0x80)\n          callvalue\n          dup1\n          iszero\n          tag_1\n          jumpi\n          0x00\n          dup1\n          revert\n        tag_1:\n          pop\n          jumpi(tag_2, lt(calldatasize, 0x04))\n          shr(0xe0, calldataload(0x00))\n          dup1\n          0x3cf5040a\n          eq\n          tag_3\n          jumpi\n          dup1\n          0x6ac5db19\n          eq\n          tag_4\n          jumpi\n          dup1\n          0x701fd0f1\n          eq\n          tag_5\n          jumpi\n          dup1\n          0x7b43a8e6\n          eq\n          tag_6\n          jumpi\n          dup1\n          0xf14fcbc8\n          eq\n          tag_7\n          jumpi\n        tag_2:\n          0x00\n          dup1\n          revert\n            /* \"CommitReveal.sol\":1816:1926  function getHash(bytes32 data) public pure returns(bytes32){... */\n        tag_3:\n          tag_8\n          0x04\n          dup1\n          calldatasize\n          sub\n          dup2\n          add\n          swap1\n          tag_9\n          swap2\n          swap1\n          tag_10\n          jump\t// in\n        tag_9:\n          tag_11\n          jump\t// in\n        tag_8:\n          mload(0x40)\n          tag_12\n          swap2\n          swap1\n          tag_13\n          jump\t// in\n        tag_12:\n          mload(0x40)\n          dup1\n          swap2\n          sub\n          swap1\n          return\n            /* \"CommitReveal.sol\":97:119  uint8 public max = 100 */\n        tag_4:\n          tag_14\n          tag_15\n          jump\t// in\n        tag_14:\n          mload(0x40)\n          tag_16\n          swap2\n          swap1\n          tag_17\n          jump\t// in\n        tag_16:\n          mload(0x40)\n          dup1\n          swap2\n          sub\n          swap1\n          return\n            /* \"CommitReveal.sol\":594:1743  function reveal(bytes32 revealHash) public {... */\n        tag_5:\n          tag_18\n          0x04\n          dup1\n          calldatasize\n          sub\n          dup2\n          add\n          swap1\n          tag_19\n          swap2\n          swap1\n          tag_10\n          jump\t// in\n        tag_19:\n          tag_20\n          jump\t// in\n        tag_18:\n          stop\n            /* \"CommitReveal.sol\":204:246  mapping (address => Commit) public commits */\n        tag_6:\n          tag_21\n          0x04\n          dup1\n          calldatasize\n          sub\n          dup2\n          add\n          swap1\n          tag_22\n          swap2\n          swap1\n          tag_23\n          jump\t// in\n        tag_22:\n          tag_24\n          jump\t// in\n        tag_21:\n          mload(0x40)\n          tag_25\n          swap4\n          swap3\n          swap2\n          swap1\n          tag_26\n          jump\t// in\n        tag_25:\n          mload(0x40)\n          dup1\n          swap2\n          sub\n          swap1\n          return\n            /* \"CommitReveal.sol\":251:522  function commit(bytes32 dataHash) public {... */\n        tag_7:\n          tag_27\n          0x04\n          dup1\n          calldatasize\n          sub\n          dup2\n          add\n          swap1\n          tag_28\n          swap2\n          swap1\n          tag_10\n          jump\t// in\n        tag_28:\n          tag_29\n          jump\t// in\n        tag_27:\n          stop\n            /* \"CommitReveal.sol\":1816:1926  function getHash(bytes32 data) public pure returns(bytes32){... */\n        tag_11:\n            /* \"CommitReveal.sol\":1867:1874  bytes32 */\n          0x00\n            /* \"CommitReveal.sol\":1915:1919  data */\n          dup2\n            /* \"CommitReveal.sol\":1898:1920  abi.encodePacked(data) */\n          add(0x20, mload(0x40))\n          tag_31\n          swap2\n          swap1\n          tag_32\n          jump\t// in\n        tag_31:\n          mload(0x40)\n          0x20\n          dup2\n          dup4\n          sub\n          sub\n          dup2\n          mstore\n          swap1\n          0x40\n          mstore\n            /* \"CommitReveal.sol\":1888:1921  keccak256(abi.encodePacked(data)) */\n          dup1\n          mload\n          swap1\n          0x20\n          add\n          keccak256\n            /* \"CommitReveal.sol\":1881:1921  return keccak256(abi.encodePacked(data)) */\n          swap1\n          pop\n            /* \"CommitReveal.sol\":1816:1926  function getHash(bytes32 data) public pure returns(bytes32){... */\n          swap2\n          swap1\n          pop\n          jump\t// out\n            /* \"CommitReveal.sol\":97:119  uint8 public max = 100 */\n        tag_15:\n          0x00\n          dup1\n          sload\n          swap1\n          0x0100\n          exp\n          swap1\n          div\n          0xff\n          and\n          dup2\n          jump\t// out\n            /* \"CommitReveal.sol\":594:1743  function reveal(bytes32 revealHash) public {... */\n        tag_20:\n            /* \"CommitReveal.sol\":748:753  false */\n          0x00\n            /* \"CommitReveal.sol\":718:753  commits[msg.sender].revealed==false */\n          iszero\n          iszero\n            /* \"CommitReveal.sol\":718:725  commits */\n          0x01\n            /* \"CommitReveal.sol\":718:737  commits[msg.sender] */\n          0x00\n            /* \"CommitReveal.sol\":726:736  msg.sender */\n          caller\n            /* \"CommitReveal.sol\":718:737  commits[msg.sender] */\n          0xffffffffffffffffffffffffffffffffffffffff\n          and\n          0xffffffffffffffffffffffffffffffffffffffff\n          and\n          dup2\n          mstore\n          0x20\n          add\n          swap1\n          dup2\n          mstore\n          0x20\n          add\n          0x00\n          keccak256\n            /* \"CommitReveal.sol\":718:746  commits[msg.sender].revealed */\n          0x01\n          add\n          0x08\n          swap1\n          sload\n          swap1\n          0x0100\n          exp\n          swap1\n          div\n          0xff\n          and\n            /* \"CommitReveal.sol\":718:753  commits[msg.sender].revealed==false */\n          iszero\n          iszero\n          eq\n            /* \"CommitReveal.sol\":710:795  require(commits[msg.sender].revealed==false,\"CommitReveal::reveal: Already revealed\") */\n          tag_34\n          jumpi\n          mload(0x40)\n          0x08c379a000000000000000000000000000000000000000000000000000000000\n          dup2\n          mstore\n          0x04\n          add\n          tag_35\n          swap1\n          tag_36\n          jump\t// in\n        tag_35:\n          mload(0x40)\n          dup1\n          swap2\n          sub\n          swap1\n          revert\n        tag_34:\n            /* \"CommitReveal.sol\":830:834  true */\n          0x01\n            /* \"CommitReveal.sol\":801:808  commits */\n          dup1\n            /* \"CommitReveal.sol\":801:820  commits[msg.sender] */\n          0x00\n            /* \"CommitReveal.sol\":809:819  msg.sender */\n          caller\n            /* \"CommitReveal.sol\":801:820  commits[msg.sender] */\n          0xffffffffffffffffffffffffffffffffffffffff\n          and\n          0xffffffffffffffffffffffffffffffffffffffff\n          and\n          dup2\n          mstore\n          0x20\n          add\n          swap1\n          dup2\n          mstore\n          0x20\n          add\n          0x00\n          keccak256\n            /* \"CommitReveal.sol\":801:829  commits[msg.sender].revealed */\n          0x01\n          add\n          0x08\n            /* \"CommitReveal.sol\":801:834  commits[msg.sender].revealed=true */\n          0x0100\n          exp\n          dup2\n          sload\n          dup2\n          0xff\n          mul\n          not\n          and\n          swap1\n          dup4\n          iszero\n          iszero\n          mul\n          or\n          swap1\n          sstore\n          pop\n            /* \"CommitReveal.sol\":924:931  commits */\n          0x01\n            /* \"CommitReveal.sol\":924:943  commits[msg.sender] */\n          0x00\n            /* \"CommitReveal.sol\":932:942  msg.sender */\n          caller\n            /* \"CommitReveal.sol\":924:943  commits[msg.sender] */\n          0xffffffffffffffffffffffffffffffffffffffff\n          and\n          0xffffffffffffffffffffffffffffffffffffffff\n          and\n          dup2\n          mstore\n          0x20\n          add\n          swap1\n          dup2\n          mstore\n          0x20\n          add\n          0x00\n          keccak256\n            /* \"CommitReveal.sol\":924:950  commits[msg.sender].commit */\n          0x00\n          add\n          sload\n            /* \"CommitReveal.sol\":903:922  getHash(revealHash) */\n          tag_37\n            /* \"CommitReveal.sol\":911:921  revealHash */\n          dup3\n            /* \"CommitReveal.sol\":903:910  getHash */\n          tag_11\n            /* \"CommitReveal.sol\":903:922  getHash(revealHash) */\n          jump\t// in\n        tag_37:\n            /* \"CommitReveal.sol\":903:950  getHash(revealHash)==commits[msg.sender].commit */\n          eq\n            /* \"CommitReveal.sol\":895:1011  require(getHash(revealHash)==commits[msg.sender].commit,\"CommitReveal::reveal: Revealed hash does not match commit\") */\n          tag_38\n          jumpi\n          mload(0x40)\n          0x08c379a000000000000000000000000000000000000000000000000000000000\n          dup2\n          mstore\n          0x04\n          add\n          tag_39\n          swap1\n          tag_40\n          jump\t// in\n        tag_39:\n          mload(0x40)\n          dup1\n          swap2\n          sub\n          swap1\n          revert\n        tag_38:\n            /* \"CommitReveal.sol\":1117:1124  commits */\n          0x01\n            /* \"CommitReveal.sol\":1117:1136  commits[msg.sender] */\n          0x00\n            /* \"CommitReveal.sol\":1125:1135  msg.sender */\n          caller\n            /* \"CommitReveal.sol\":1117:1136  commits[msg.sender] */\n          0xffffffffffffffffffffffffffffffffffffffff\n          and\n          0xffffffffffffffffffffffffffffffffffffffff\n          and\n          dup2\n          mstore\n          0x20\n          add\n          swap1\n          dup2\n          mstore\n          0x20\n          add\n          0x00\n          keccak256\n            /* \"CommitReveal.sol\":1117:1142  commits[msg.sender].block */\n          0x01\n          add\n          0x00\n          swap1\n          sload\n          swap1\n          0x0100\n          exp\n          swap1\n          div\n          0xffffffffffffffff\n          and\n            /* \"CommitReveal.sol\":1096:1142  uint64(block.number)>commits[msg.sender].block */\n          0xffffffffffffffff\n          and\n            /* \"CommitReveal.sol\":1103:1115  block.number */\n          number\n            /* \"CommitReveal.sol\":1096:1142  uint64(block.number)>commits[msg.sender].block */\n          0xffffffffffffffff\n          and\n          gt\n            /* \"CommitReveal.sol\":1088:1212  require(uint64(block.number)>commits[msg.sender].block,\"CommitReveal::reveal: Reveal and commit happened on the same block\") */\n          tag_41\n          jumpi\n          mload(0x40)\n          0x08c379a000000000000000000000000000000000000000000000000000000000\n          dup2\n          mstore\n          0x04\n          add\n          tag_42\n          swap1\n          tag_43\n          jump\t// in\n        tag_42:\n          mload(0x40)\n          dup1\n          swap2\n          sub\n          swap1\n          revert\n        tag_41:\n            /* \"CommitReveal.sol\":1329:1332  250 */\n          0xfa\n            /* \"CommitReveal.sol\":1303:1310  commits */\n          0x01\n            /* \"CommitReveal.sol\":1303:1322  commits[msg.sender] */\n          0x00\n            /* \"CommitReveal.sol\":1311:1321  msg.sender */\n          caller\n            /* \"CommitReveal.sol\":1303:1322  commits[msg.sender] */\n          0xffffffffffffffffffffffffffffffffffffffff\n          and\n          0xffffffffffffffffffffffffffffffffffffffff\n          and\n          dup2\n          mstore\n          0x20\n          add\n          swap1\n          dup2\n          mstore\n          0x20\n          add\n          0x00\n          keccak256\n            /* \"CommitReveal.sol\":1303:1328  commits[msg.sender].block */\n          0x01\n          add\n          0x00\n          swap1\n          sload\n          swap1\n          0x0100\n          exp\n          swap1\n          div\n          0xffffffffffffffff\n          and\n            /* \"CommitReveal.sol\":1303:1332  commits[msg.sender].block+250 */\n          tag_44\n          swap2\n          swap1\n          tag_45\n          jump\t// in\n        tag_44:\n            /* \"CommitReveal.sol\":1281:1332  uint64(block.number)<=commits[msg.sender].block+250 */\n          0xffffffffffffffff\n          and\n            /* \"CommitReveal.sol\":1288:1300  block.number */\n          number\n            /* \"CommitReveal.sol\":1281:1332  uint64(block.number)<=commits[msg.sender].block+250 */\n          0xffffffffffffffff\n          and\n          gt\n          iszero\n            /* \"CommitReveal.sol\":1273:1375  require(uint64(block.number)<=commits[msg.sender].block+250,\"CommitReveal::reveal: Revealed too late\") */\n          tag_46\n          jumpi\n          mload(0x40)\n          0x08c379a000000000000000000000000000000000000000000000000000000000\n          dup2\n          mstore\n          0x04\n          add\n          tag_47\n          swap1\n          tag_48\n          jump\t// in\n        tag_47:\n          mload(0x40)\n          dup1\n          swap2\n          sub\n          swap1\n          revert\n        tag_46:\n            /* \"CommitReveal.sol\":1448:1465  bytes32 blockHash */\n          0x00\n            /* \"CommitReveal.sol\":1478:1485  commits */\n          0x01\n            /* \"CommitReveal.sol\":1478:1497  commits[msg.sender] */\n          0x00\n            /* \"CommitReveal.sol\":1486:1496  msg.sender */\n          caller\n            /* \"CommitReveal.sol\":1478:1497  commits[msg.sender] */\n          0xffffffffffffffffffffffffffffffffffffffff\n          and\n          0xffffffffffffffffffffffffffffffffffffffff\n          and\n          dup2\n          mstore\n          0x20\n          add\n          swap1\n          dup2\n          mstore\n          0x20\n          add\n          0x00\n          keccak256\n            /* \"CommitReveal.sol\":1478:1503  commits[msg.sender].block */\n          0x01\n          add\n          0x00\n          swap1\n          sload\n          swap1\n          0x0100\n          exp\n          swap1\n          div\n          0xffffffffffffffff\n          and\n            /* \"CommitReveal.sol\":1468:1504  blockhash(commits[msg.sender].block) */\n          0xffffffffffffffff\n          and\n          blockhash\n            /* \"CommitReveal.sol\":1448:1504  bytes32 blockHash = blockhash(commits[msg.sender].block) */\n          swap1\n          pop\n            /* \"CommitReveal.sol\":1614:1625  uint random */\n          0x00\n            /* \"CommitReveal.sol\":1684:1687  max */\n          dup1\n          0x00\n          swap1\n          sload\n          swap1\n          0x0100\n          exp\n          swap1\n          div\n          0xff\n          and\n            /* \"CommitReveal.sol\":1628:1687  uint(keccak256(abi.encodePacked(blockHash,revealHash)))%max */\n          0xff\n          and\n            /* \"CommitReveal.sol\":1660:1669  blockHash */\n          dup3\n            /* \"CommitReveal.sol\":1670:1680  revealHash */\n          dup5\n            /* \"CommitReveal.sol\":1643:1681  abi.encodePacked(blockHash,revealHash) */\n          add(0x20, mload(0x40))\n          tag_49\n          swap3\n          swap2\n          swap1\n          tag_50\n          jump\t// in\n        tag_49:\n          mload(0x40)\n          0x20\n          dup2\n          dup4\n          sub\n          sub\n          dup2\n          mstore\n          swap1\n          0x40\n          mstore\n            /* \"CommitReveal.sol\":1633:1682  keccak256(abi.encodePacked(blockHash,revealHash)) */\n          dup1\n          mload\n          swap1\n          0x20\n          add\n          keccak256\n            /* \"CommitReveal.sol\":1628:1683  uint(keccak256(abi.encodePacked(blockHash,revealHash))) */\n          0x00\n          shr\n            /* \"CommitReveal.sol\":1628:1687  uint(keccak256(abi.encodePacked(blockHash,revealHash)))%max */\n          tag_51\n          swap2\n          swap1\n          tag_52\n          jump\t// in\n        tag_51:\n            /* \"CommitReveal.sol\":1614:1687  uint random = uint(keccak256(abi.encodePacked(blockHash,revealHash)))%max */\n          swap1\n          pop\n            /* \"CommitReveal.sol\":1698:1738  RevealHash(msg.sender,revealHash,random) */\n          0xbc016dd1cadeaefcb851af7a0a93532e0023d536894b730801f7bcfe7065bcc2\n            /* \"CommitReveal.sol\":1709:1719  msg.sender */\n          caller\n            /* \"CommitReveal.sol\":1720:1730  revealHash */\n          dup5\n            /* \"CommitReveal.sol\":1731:1737  random */\n          dup4\n            /* \"CommitReveal.sol\":1698:1738  RevealHash(msg.sender,revealHash,random) */\n          mload(0x40)\n          tag_53\n          swap4\n          swap3\n          swap2\n          swap1\n          tag_54\n          jump\t// in\n        tag_53:\n          mload(0x40)\n          dup1\n          swap2\n          sub\n          swap1\n          log1\n            /* \"CommitReveal.sol\":637:1743  {... */\n          pop\n          pop\n            /* \"CommitReveal.sol\":594:1743  function reveal(bytes32 revealHash) public {... */\n          pop\n          jump\t// out\n            /* \"CommitReveal.sol\":204:246  mapping (address => Commit) public commits */\n        tag_24:\n          mstore(0x20, 0x01)\n          dup1\n          0x00\n          mstore\n          keccak256(0x00, 0x40)\n          0x00\n          swap2\n          pop\n          swap1\n          pop\n          dup1\n          0x00\n          add\n          sload\n          swap1\n          dup1\n          0x01\n          add\n          0x00\n          swap1\n          sload\n          swap1\n          0x0100\n          exp\n          swap1\n          div\n          0xffffffffffffffff\n          and\n          swap1\n          dup1\n          0x01\n          add\n          0x08\n          swap1\n          sload\n          swap1\n          0x0100\n          exp\n          swap1\n          div\n          0xff\n          and\n          swap1\n          pop\n          dup4\n          jump\t// out\n            /* \"CommitReveal.sol\":251:522  function commit(bytes32 dataHash) public {... */\n        tag_29:\n            /* \"CommitReveal.sol\":327:335  dataHash */\n          dup1\n            /* \"CommitReveal.sol\":298:305  commits */\n          0x01\n            /* \"CommitReveal.sol\":298:317  commits[msg.sender] */\n          0x00\n            /* \"CommitReveal.sol\":306:316  msg.sender */\n          caller\n            /* \"CommitReveal.sol\":298:317  commits[msg.sender] */\n          0xffffffffffffffffffffffffffffffffffffffff\n          and\n          0xffffffffffffffffffffffffffffffffffffffff\n          and\n          dup2\n          mstore\n          0x20\n          add\n          swap1\n          dup2\n          mstore\n          0x20\n          add\n          0x00\n          keccak256\n            /* \"CommitReveal.sol\":298:324  commits[msg.sender].commit */\n          0x00\n          add\n            /* \"CommitReveal.sol\":298:335  commits[msg.sender].commit = dataHash */\n          dup2\n          swap1\n          sstore\n          pop\n            /* \"CommitReveal.sol\":376:388  block.number */\n          number\n            /* \"CommitReveal.sol\":341:348  commits */\n          0x01\n            /* \"CommitReveal.sol\":341:360  commits[msg.sender] */\n          0x00\n            /* \"CommitReveal.sol\":349:359  msg.sender */\n          caller\n            /* \"CommitReveal.sol\":341:360  commits[msg.sender] */\n          0xffffffffffffffffffffffffffffffffffffffff\n          and\n          0xffffffffffffffffffffffffffffffffffffffff\n          and\n          dup2\n          mstore\n          0x20\n          add\n          swap1\n          dup2\n          mstore\n          0x20\n          add\n          0x00\n          keccak256\n            /* \"CommitReveal.sol\":341:366  commits[msg.sender].block */\n          0x01\n          add\n          0x00\n            /* \"CommitReveal.sol\":341:389  commits[msg.sender].block = uint64(block.number) */\n          0x0100\n          exp\n          dup2\n          sload\n          dup2\n          0xffffffffffffffff\n          mul\n          not\n          and\n          swap1\n          dup4\n          0xffffffffffffffff\n          and\n          mul\n          or\n          swap1\n          sstore\n          pop\n            /* \"CommitReveal.sol\":426:431  false */\n          0x00\n            /* \"CommitReveal.sol\":395:402  commits */\n          0x01\n            /* \"CommitReveal.sol\":395:414  commits[msg.sender] */\n          0x00\n            /* \"CommitReveal.sol\":403:413  msg.sender */\n          caller\n            /* \"CommitReveal.sol\":395:414  commits[msg.sender] */\n          0xffffffffffffffffffffffffffffffffffffffff\n          and\n          0xffffffffffffffffffffffffffffffffffffffff\n          and\n          dup2\n          mstore\n          0x20\n          add\n          swap1\n          dup2\n          mstore\n          0x20\n          add\n          0x00\n          keccak256\n            /* \"CommitReveal.sol\":395:423  commits[msg.sender].revealed */\n          0x01\n          add\n          0x08\n            /* \"CommitReveal.sol\":395:431  commits[msg.sender].revealed = false */\n          0x0100\n          exp\n          dup2\n          sload\n          dup2\n          0xff\n          mul\n          not\n          and\n          swap1\n          dup4\n          iszero\n          iszero\n          mul\n          or\n          swap1\n          sstore\n          pop\n            /* \"CommitReveal.sol\":442:517  CommitHash(msg.sender,commits[msg.sender].commit,commits[msg.sender].block) */\n          0x3c1a1f8f38335b17f751c6da4ba7d1865f26b3997535176f5080de9fad891603\n            /* \"CommitReveal.sol\":453:463  msg.sender */\n          caller\n            /* \"CommitReveal.sol\":464:471  commits */\n          0x01\n            /* \"CommitReveal.sol\":464:483  commits[msg.sender] */\n          0x00\n            /* \"CommitReveal.sol\":472:482  msg.sender */\n          caller\n            /* \"CommitReveal.sol\":464:483  commits[msg.sender] */\n          0xffffffffffffffffffffffffffffffffffffffff\n          and\n          0xffffffffffffffffffffffffffffffffffffffff\n          and\n          dup2\n          mstore\n          0x20\n          add\n          swap1\n          dup2\n          mstore\n          0x20\n          add\n          0x00\n          keccak256\n            /* \"CommitReveal.sol\":464:490  commits[msg.sender].commit */\n          0x00\n          add\n          sload\n            /* \"CommitReveal.sol\":491:498  commits */\n          0x01\n            /* \"CommitReveal.sol\":491:510  commits[msg.sender] */\n          0x00\n            /* \"CommitReveal.sol\":499:509  msg.sender */\n          caller\n            /* \"CommitReveal.sol\":491:510  commits[msg.sender] */\n          0xffffffffffffffffffffffffffffffffffffffff\n          and\n          0xffffffffffffffffffffffffffffffffffffffff\n          and\n          dup2\n          mstore\n          0x20\n          add\n          swap1\n          dup2\n          mstore\n          0x20\n          add\n          0x00\n          keccak256\n            /* \"CommitReveal.sol\":491:516  commits[msg.sender].block */\n          0x01\n          add\n          0x00\n          swap1\n          sload\n          swap1\n          0x0100\n          exp\n          swap1\n          div\n          0xffffffffffffffff\n          and\n            /* \"CommitReveal.sol\":442:517  CommitHash(msg.sender,commits[msg.sender].commit,commits[msg.sender].block) */\n          mload(0x40)\n          tag_56\n          swap4\n          swap3\n          swap2\n          swap1\n          tag_57\n          jump\t// in\n        tag_56:\n          mload(0x40)\n          dup1\n          swap2\n          sub\n          swap1\n          log1\n            /* \"CommitReveal.sol\":251:522  function commit(bytes32 dataHash) public {... */\n          pop\n          jump\t// out\n            /* \"#utility.yul\":88:205   */\n        tag_59:\n            /* \"#utility.yul\":197:198   */\n          0x00\n            /* \"#utility.yul\":194:195   */\n          dup1\n            /* \"#utility.yul\":187:199   */\n          revert\n            /* \"#utility.yul\":334:411   */\n        tag_61:\n            /* \"#utility.yul\":371:378   */\n          0x00\n            /* \"#utility.yul\":400:405   */\n          dup2\n            /* \"#utility.yul\":389:405   */\n          swap1\n          pop\n            /* \"#utility.yul\":334:411   */\n          swap2\n          swap1\n          pop\n          jump\t// out\n            /* \"#utility.yul\":417:539   */\n        tag_62:\n            /* \"#utility.yul\":490:514   */\n          tag_97\n            /* \"#utility.yul\":508:513   */\n          dup2\n            /* \"#utility.yul\":490:514   */\n          tag_61\n          jump\t// in\n        tag_97:\n            /* \"#utility.yul\":483:488   */\n          dup2\n            /* \"#utility.yul\":480:515   */\n          eq\n            /* \"#utility.yul\":470:533   */\n          tag_98\n          jumpi\n            /* \"#utility.yul\":529:530   */\n          0x00\n            /* \"#utility.yul\":526:527   */\n          dup1\n            /* \"#utility.yul\":519:531   */\n          revert\n            /* \"#utility.yul\":470:533   */\n        tag_98:\n            /* \"#utility.yul\":417:539   */\n          pop\n          jump\t// out\n            /* \"#utility.yul\":545:684   */\n        tag_63:\n            /* \"#utility.yul\":591:596   */\n          0x00\n            /* \"#utility.yul\":629:635   */\n          dup2\n            /* \"#utility.yul\":616:636   */\n          calldataload\n            /* \"#utility.yul\":607:636   */\n          swap1\n          pop\n            /* \"#utility.yul\":645:678   */\n          tag_100\n            /* \"#utility.yul\":672:677   */\n          dup2\n            /* \"#utility.yul\":645:678   */\n          tag_62\n          jump\t// in\n        tag_100:\n            /* \"#utility.yul\":545:684   */\n          swap3\n          swap2\n          pop\n          pop\n          jump\t// out\n            /* \"#utility.yul\":690:1019   */\n        tag_10:\n            /* \"#utility.yul\":749:755   */\n          0x00\n            /* \"#utility.yul\":798:800   */\n          0x20\n            /* \"#utility.yul\":786:795   */\n          dup3\n            /* \"#utility.yul\":777:784   */\n          dup5\n            /* \"#utility.yul\":773:796   */\n          sub\n            /* \"#utility.yul\":769:801   */\n          slt\n            /* \"#utility.yul\":766:885   */\n          iszero\n          tag_102\n          jumpi\n            /* \"#utility.yul\":804:883   */\n          tag_103\n          tag_59\n          jump\t// in\n        tag_103:\n            /* \"#utility.yul\":766:885   */\n        tag_102:\n            /* \"#utility.yul\":924:925   */\n          0x00\n            /* \"#utility.yul\":949:1002   */\n          tag_104\n            /* \"#utility.yul\":994:1001   */\n          dup5\n            /* \"#utility.yul\":985:991   */\n          dup3\n            /* \"#utility.yul\":974:983   */\n          dup6\n            /* \"#utility.yul\":970:992   */\n          add\n            /* \"#utility.yul\":949:1002   */\n          tag_63\n          jump\t// in\n        tag_104:\n            /* \"#utility.yul\":939:1002   */\n          swap2\n          pop\n            /* \"#utility.yul\":895:1012   */\n          pop\n            /* \"#utility.yul\":690:1019   */\n          swap3\n          swap2\n          pop\n          pop\n          jump\t// out\n            /* \"#utility.yul\":1025:1143   */\n        tag_64:\n            /* \"#utility.yul\":1112:1136   */\n          tag_106\n            /* \"#utility.yul\":1130:1135   */\n          dup2\n            /* \"#utility.yul\":1112:1136   */\n          tag_61\n          jump\t// in\n        tag_106:\n            /* \"#utility.yul\":1107:1110   */\n          dup3\n            /* \"#utility.yul\":1100:1137   */\n          mstore\n            /* \"#utility.yul\":1025:1143   */\n          pop\n          pop\n          jump\t// out\n            /* \"#utility.yul\":1149:1371   */\n        tag_13:\n            /* \"#utility.yul\":1242:1246   */\n          0x00\n            /* \"#utility.yul\":1280:1282   */\n          0x20\n            /* \"#utility.yul\":1269:1278   */\n          dup3\n            /* \"#utility.yul\":1265:1283   */\n          add\n            /* \"#utility.yul\":1257:1283   */\n          swap1\n          pop\n            /* \"#utility.yul\":1293:1364   */\n          tag_108\n            /* \"#utility.yul\":1361:1362   */\n          0x00\n            /* \"#utility.yul\":1350:1359   */\n          dup4\n            /* \"#utility.yul\":1346:1363   */\n          add\n            /* \"#utility.yul\":1337:1343   */\n          dup5\n            /* \"#utility.yul\":1293:1364   */\n          tag_64\n          jump\t// in\n        tag_108:\n            /* \"#utility.yul\":1149:1371   */\n          swap3\n          swap2\n          pop\n          pop\n          jump\t// out\n            /* \"#utility.yul\":1377:1463   */\n        tag_65:\n            /* \"#utility.yul\":1412:1419   */\n          0x00\n            /* \"#utility.yul\":1452:1456   */\n          0xff\n            /* \"#utility.yul\":1445:1450   */\n          dup3\n            /* \"#utility.yul\":1441:1457   */\n          and\n            /* \"#utility.yul\":1430:1457   */\n          swap1\n          pop\n            /* \"#utility.yul\":1377:1463   */\n          swap2\n          swap1\n          pop\n          jump\t// out\n            /* \"#utility.yul\":1469:1581   */\n        tag_66:\n            /* \"#utility.yul\":1552:1574   */\n          tag_111\n            /* \"#utility.yul\":1568:1573   */\n          dup2\n            /* \"#utility.yul\":1552:1574   */\n          tag_65\n          jump\t// in\n        tag_111:\n            /* \"#utility.yul\":1547:1550   */\n          dup3\n            /* \"#utility.yul\":1540:1575   */\n          mstore\n            /* \"#utility.yul\":1469:1581   */\n          pop\n          pop\n          jump\t// out\n            /* \"#utility.yul\":1587:1801   */\n        tag_17:\n            /* \"#utility.yul\":1676:1680   */\n          0x00\n            /* \"#utility.yul\":1714:1716   */\n          0x20\n            /* \"#utility.yul\":1703:1712   */\n          dup3\n            /* \"#utility.yul\":1699:1717   */\n          add\n            /* \"#utility.yul\":1691:1717   */\n          swap1\n          pop\n            /* \"#utility.yul\":1727:1794   */\n          tag_113\n            /* \"#utility.yul\":1791:1792   */\n          0x00\n            /* \"#utility.yul\":1780:1789   */\n          dup4\n            /* \"#utility.yul\":1776:1793   */\n          add\n            /* \"#utility.yul\":1767:1773   */\n          dup5\n            /* \"#utility.yul\":1727:1794   */\n          tag_66\n          jump\t// in\n        tag_113:\n            /* \"#utility.yul\":1587:1801   */\n          swap3\n          swap2\n          pop\n          pop\n          jump\t// out\n            /* \"#utility.yul\":1807:1933   */\n        tag_67:\n            /* \"#utility.yul\":1844:1851   */\n          0x00\n            /* \"#utility.yul\":1884:1926   */\n          0xffffffffffffffffffffffffffffffffffffffff\n            /* \"#utility.yul\":1877:1882   */\n          dup3\n            /* \"#utility.yul\":1873:1927   */\n          and\n            /* \"#utility.yul\":1862:1927   */\n          swap1\n          pop\n            /* \"#utility.yul\":1807:1933   */\n          swap2\n          swap1\n          pop\n          jump\t// out\n            /* \"#utility.yul\":1939:2035   */\n        tag_68:\n            /* \"#utility.yul\":1976:1983   */\n          0x00\n            /* \"#utility.yul\":2005:2029   */\n          tag_116\n            /* \"#utility.yul\":2023:2028   */\n          dup3\n            /* \"#utility.yul\":2005:2029   */\n          tag_67\n          jump\t// in\n        tag_116:\n            /* \"#utility.yul\":1994:2029   */\n          swap1\n          pop\n            /* \"#utility.yul\":1939:2035   */\n          swap2\n          swap1\n          pop\n          jump\t// out\n            /* \"#utility.yul\":2041:2163   */\n        tag_69:\n            /* \"#utility.yul\":2114:2138   */\n          tag_118\n            /* \"#utility.yul\":2132:2137   */\n          dup2\n            /* \"#utility.yul\":2114:2138   */\n          tag_68\n          jump\t// in\n        tag_118:\n            /* \"#utility.yul\":2107:2112   */\n          dup2\n            /* \"#utility.yul\":2104:2139   */\n          eq\n            /* \"#utility.yul\":2094:2157   */\n          tag_119\n          jumpi\n            /* \"#utility.yul\":2153:2154   */\n          0x00\n            /* \"#utility.yul\":2150:2151   */\n          dup1\n            /* \"#utility.yul\":2143:2155   */\n          revert\n            /* \"#utility.yul\":2094:2157   */\n        tag_119:\n            /* \"#utility.yul\":2041:2163   */\n          pop\n          jump\t// out\n            /* \"#utility.yul\":2169:2308   */\n        tag_70:\n            /* \"#utility.yul\":2215:2220   */\n          0x00\n            /* \"#utility.yul\":2253:2259   */\n          dup2\n            /* \"#utility.yul\":2240:2260   */\n          calldataload\n            /* \"#utility.yul\":2231:2260   */\n          swap1\n          pop\n            /* \"#utility.yul\":2269:2302   */\n          tag_121\n            /* \"#utility.yul\":2296:2301   */\n          dup2\n            /* \"#utility.yul\":2269:2302   */\n          tag_69\n          jump\t// in\n        tag_121:\n            /* \"#utility.yul\":2169:2308   */\n          swap3\n          swap2\n          pop\n          pop\n          jump\t// out\n            /* \"#utility.yul\":2314:2643   */\n        tag_23:\n            /* \"#utility.yul\":2373:2379   */\n          0x00\n            /* \"#utility.yul\":2422:2424   */\n          0x20\n            /* \"#utility.yul\":2410:2419   */\n          dup3\n            /* \"#utility.yul\":2401:2408   */\n          dup5\n            /* \"#utility.yul\":2397:2420   */\n          sub\n            /* \"#utility.yul\":2393:2425   */\n          slt\n            /* \"#utility.yul\":2390:2509   */\n          iszero\n          tag_123\n          jumpi\n            /* \"#utility.yul\":2428:2507   */\n          tag_124\n          tag_59\n          jump\t// in\n        tag_124:\n            /* \"#utility.yul\":2390:2509   */\n        tag_123:\n            /* \"#utility.yul\":2548:2549   */\n          0x00\n            /* \"#utility.yul\":2573:2626   */\n          tag_125\n            /* \"#utility.yul\":2618:2625   */\n          dup5\n            /* \"#utility.yul\":2609:2615   */\n          dup3\n            /* \"#utility.yul\":2598:2607   */\n          dup6\n            /* \"#utility.yul\":2594:2616   */\n          add\n            /* \"#utility.yul\":2573:2626   */\n          tag_70\n          jump\t// in\n        tag_125:\n            /* \"#utility.yul\":2563:2626   */\n          swap2\n          pop\n            /* \"#utility.yul\":2519:2636   */\n          pop\n            /* \"#utility.yul\":2314:2643   */\n          swap3\n          swap2\n          pop\n          pop\n          jump\t// out\n            /* \"#utility.yul\":2649:2750   */\n        tag_71:\n            /* \"#utility.yul\":2685:2692   */\n          0x00\n            /* \"#utility.yul\":2725:2743   */\n          0xffffffffffffffff\n            /* \"#utility.yul\":2718:2723   */\n          dup3\n            /* \"#utility.yul\":2714:2744   */\n          and\n            /* \"#utility.yul\":2703:2744   */\n          swap1\n          pop\n            /* \"#utility.yul\":2649:2750   */\n          swap2\n          swap1\n          pop\n          jump\t// out\n            /* \"#utility.yul\":2756:2871   */\n        tag_72:\n            /* \"#utility.yul\":2841:2864   */\n          tag_128\n            /* \"#utility.yul\":2858:2863   */\n          dup2\n            /* \"#utility.yul\":2841:2864   */\n          tag_71\n          jump\t// in\n        tag_128:\n            /* \"#utility.yul\":2836:2839   */\n          dup3\n            /* \"#utility.yul\":2829:2865   */\n          mstore\n            /* \"#utility.yul\":2756:2871   */\n          pop\n          pop\n          jump\t// out\n            /* \"#utility.yul\":2877:2967   */\n        tag_73:\n            /* \"#utility.yul\":2911:2918   */\n          0x00\n            /* \"#utility.yul\":2954:2959   */\n          dup2\n            /* \"#utility.yul\":2947:2960   */\n          iszero\n            /* \"#utility.yul\":2940:2961   */\n          iszero\n            /* \"#utility.yul\":2929:2961   */\n          swap1\n          pop\n            /* \"#utility.yul\":2877:2967   */\n          swap2\n          swap1\n          pop\n          jump\t// out\n            /* \"#utility.yul\":2973:3082   */\n        tag_74:\n            /* \"#utility.yul\":3054:3075   */\n          tag_131\n            /* \"#utility.yul\":3069:3074   */\n          dup2\n            /* \"#utility.yul\":3054:3075   */\n          tag_73\n          jump\t// in\n        tag_131:\n            /* \"#utility.yul\":3049:3052   */\n          dup3\n            /* \"#utility.yul\":3042:3076   */\n          mstore\n            /* \"#utility.yul\":2973:3082   */\n          pop\n          pop\n          jump\t// out\n            /* \"#utility.yul\":3088:3514   */\n        tag_26:\n            /* \"#utility.yul\":3229:3233   */\n          0x00\n            /* \"#utility.yul\":3267:3269   */\n          0x60\n            /* \"#utility.yul\":3256:3265   */\n          dup3\n            /* \"#utility.yul\":3252:3270   */\n          add\n            /* \"#utility.yul\":3244:3270   */\n          swap1\n          pop\n            /* \"#utility.yul\":3280:3351   */\n          tag_133\n            /* \"#utility.yul\":3348:3349   */\n          0x00\n            /* \"#utility.yul\":3337:3346   */\n          dup4\n            /* \"#utility.yul\":3333:3350   */\n          add\n            /* \"#utility.yul\":3324:3330   */\n          dup7\n            /* \"#utility.yul\":3280:3351   */\n          tag_64\n          jump\t// in\n        tag_133:\n            /* \"#utility.yul\":3361:3431   */\n          tag_134\n            /* \"#utility.yul\":3427:3429   */\n          0x20\n            /* \"#utility.yul\":3416:3425   */\n          dup4\n            /* \"#utility.yul\":3412:3430   */\n          add\n            /* \"#utility.yul\":3403:3409   */\n          dup6\n            /* \"#utility.yul\":3361:3431   */\n          tag_72\n          jump\t// in\n        tag_134:\n            /* \"#utility.yul\":3441:3507   */\n          tag_135\n            /* \"#utility.yul\":3503:3505   */\n          0x40\n            /* \"#utility.yul\":3492:3501   */\n          dup4\n            /* \"#utility.yul\":3488:3506   */\n          add\n            /* \"#utility.yul\":3479:3485   */\n          dup5\n            /* \"#utility.yul\":3441:3507   */\n          tag_74\n          jump\t// in\n        tag_135:\n            /* \"#utility.yul\":3088:3514   */\n          swap5\n          swap4\n          pop\n          pop\n          pop\n          pop\n          jump\t// out\n            /* \"#utility.yul\":3520:3599   */\n        tag_75:\n            /* \"#utility.yul\":3559:3566   */\n          0x00\n            /* \"#utility.yul\":3588:3593   */\n          dup2\n            /* \"#utility.yul\":3577:3593   */\n          swap1\n          pop\n            /* \"#utility.yul\":3520:3599   */\n          swap2\n          swap1\n          pop\n          jump\t// out\n            /* \"#utility.yul\":3605:3762   */\n        tag_76:\n            /* \"#utility.yul\":3710:3755   */\n          tag_138\n            /* \"#utility.yul\":3730:3754   */\n          tag_139\n            /* \"#utility.yul\":3748:3753   */\n          dup3\n            /* \"#utility.yul\":3730:3754   */\n          tag_61\n          jump\t// in\n        tag_139:\n            /* \"#utility.yul\":3710:3755   */\n          tag_75\n          jump\t// in\n        tag_138:\n            /* \"#utility.yul\":3705:3708   */\n          dup3\n            /* \"#utility.yul\":3698:3756   */\n          mstore\n            /* \"#utility.yul\":3605:3762   */\n          pop\n          pop\n          jump\t// out\n            /* \"#utility.yul\":3768:4024   */\n        tag_32:\n            /* \"#utility.yul\":3880:3883   */\n          0x00\n            /* \"#utility.yul\":3895:3970   */\n          tag_141\n            /* \"#utility.yul\":3966:3969   */\n          dup3\n            /* \"#utility.yul\":3957:3963   */\n          dup5\n            /* \"#utility.yul\":3895:3970   */\n          tag_76\n          jump\t// in\n        tag_141:\n            /* \"#utility.yul\":3995:3997   */\n          0x20\n            /* \"#utility.yul\":3990:3993   */\n          dup3\n            /* \"#utility.yul\":3986:3998   */\n          add\n            /* \"#utility.yul\":3979:3998   */\n          swap2\n          pop\n            /* \"#utility.yul\":4015:4018   */\n          dup2\n            /* \"#utility.yul\":4008:4018   */\n          swap1\n          pop\n            /* \"#utility.yul\":3768:4024   */\n          swap3\n          swap2\n          pop\n          pop\n          jump\t// out\n            /* \"#utility.yul\":4030:4199   */\n        tag_77:\n            /* \"#utility.yul\":4114:4125   */\n          0x00\n            /* \"#utility.yul\":4148:4154   */\n          dup3\n            /* \"#utility.yul\":4143:4146   */\n          dup3\n            /* \"#utility.yul\":4136:4155   */\n          mstore\n            /* \"#utility.yul\":4188:4192   */\n          0x20\n            /* \"#utility.yul\":4183:4186   */\n          dup3\n            /* \"#utility.yul\":4179:4193   */\n          add\n            /* \"#utility.yul\":4164:4193   */\n          swap1\n          pop\n            /* \"#utility.yul\":4030:4199   */\n          swap3\n          swap2\n          pop\n          pop\n          jump\t// out\n            /* \"#utility.yul\":4205:4430   */\n        tag_78:\n            /* \"#utility.yul\":4345:4379   */\n          0x436f6d6d697452657665616c3a3a72657665616c3a20416c7265616479207265\n            /* \"#utility.yul\":4341:4342   */\n          0x00\n            /* \"#utility.yul\":4333:4339   */\n          dup3\n            /* \"#utility.yul\":4329:4343   */\n          add\n            /* \"#utility.yul\":4322:4380   */\n          mstore\n            /* \"#utility.yul\":4414:4422   */\n          0x7665616c65640000000000000000000000000000000000000000000000000000\n            /* \"#utility.yul\":4409:4411   */\n          0x20\n            /* \"#utility.yul\":4401:4407   */\n          dup3\n            /* \"#utility.yul\":4397:4412   */\n          add\n            /* \"#utility.yul\":4390:4423   */\n          mstore\n            /* \"#utility.yul\":4205:4430   */\n          pop\n          jump\t// out\n            /* \"#utility.yul\":4436:4802   */\n        tag_79:\n            /* \"#utility.yul\":4578:4581   */\n          0x00\n            /* \"#utility.yul\":4599:4666   */\n          tag_145\n            /* \"#utility.yul\":4663:4665   */\n          0x26\n            /* \"#utility.yul\":4658:4661   */\n          dup4\n            /* \"#utility.yul\":4599:4666   */\n          tag_77\n          jump\t// in\n        tag_145:\n            /* \"#utility.yul\":4592:4666   */\n          swap2\n          pop\n            /* \"#utility.yul\":4675:4768   */\n          tag_146\n            /* \"#utility.yul\":4764:4767   */\n          dup3\n            /* \"#utility.yul\":4675:4768   */\n          tag_78\n          jump\t// in\n        tag_146:\n            /* \"#utility.yul\":4793:4795   */\n          0x40\n            /* \"#utility.yul\":4788:4791   */\n          dup3\n            /* \"#utility.yul\":4784:4796   */\n          add\n            /* \"#utility.yul\":4777:4796   */\n          swap1\n          pop\n            /* \"#utility.yul\":4436:4802   */\n          swap2\n          swap1\n          pop\n          jump\t// out\n            /* \"#utility.yul\":4808:5227   */\n        tag_36:\n            /* \"#utility.yul\":4974:4978   */\n          0x00\n            /* \"#utility.yul\":5012:5014   */\n          0x20\n            /* \"#utility.yul\":5001:5010   */\n          dup3\n            /* \"#utility.yul\":4997:5015   */\n          add\n            /* \"#utility.yul\":4989:5015   */\n          swap1\n          pop\n            /* \"#utility.yul\":5061:5070   */\n          dup2\n            /* \"#utility.yul\":5055:5059   */\n          dup2\n            /* \"#utility.yul\":5051:5071   */\n          sub\n            /* \"#utility.yul\":5047:5048   */\n          0x00\n            /* \"#utility.yul\":5036:5045   */\n          dup4\n            /* \"#utility.yul\":5032:5049   */\n          add\n            /* \"#utility.yul\":5025:5072   */\n          mstore\n            /* \"#utility.yul\":5089:5220   */\n          tag_148\n            /* \"#utility.yul\":5215:5219   */\n          dup2\n            /* \"#utility.yul\":5089:5220   */\n          tag_79\n          jump\t// in\n        tag_148:\n            /* \"#utility.yul\":5081:5220   */\n          swap1\n          pop\n            /* \"#utility.yul\":4808:5227   */\n          swap2\n          swap1\n          pop\n          jump\t// out\n            /* \"#utility.yul\":5233:5477   */\n        tag_80:\n            /* \"#utility.yul\":5373:5407   */\n          0x436f6d6d697452657665616c3a3a72657665616c3a2052657665616c65642068\n            /* \"#utility.yul\":5369:5370   */\n          0x00\n            /* \"#utility.yul\":5361:5367   */\n          dup3\n            /* \"#utility.yul\":5357:5371   */\n          add\n            /* \"#utility.yul\":5350:5408   */\n          mstore\n            /* \"#utility.yul\":5442:5469   */\n          0x61736820646f6573206e6f74206d6174636820636f6d6d697400000000000000\n            /* \"#utility.yul\":5437:5439   */\n          0x20\n            /* \"#utility.yul\":5429:5435   */\n          dup3\n            /* \"#utility.yul\":5425:5440   */\n          add\n            /* \"#utility.yul\":5418:5470   */\n          mstore\n            /* \"#utility.yul\":5233:5477   */\n          pop\n          jump\t// out\n            /* \"#utility.yul\":5483:5849   */\n        tag_81:\n            /* \"#utility.yul\":5625:5628   */\n          0x00\n            /* \"#utility.yul\":5646:5713   */\n          tag_151\n            /* \"#utility.yul\":5710:5712   */\n          0x39\n            /* \"#utility.yul\":5705:5708   */\n          dup4\n            /* \"#utility.yul\":5646:5713   */\n          tag_77\n          jump\t// in\n        tag_151:\n            /* \"#utility.yul\":5639:5713   */\n          swap2\n          pop\n            /* \"#utility.yul\":5722:5815   */\n          tag_152\n            /* \"#utility.yul\":5811:5814   */\n          dup3\n            /* \"#utility.yul\":5722:5815   */\n          tag_80\n          jump\t// in\n        tag_152:\n            /* \"#utility.yul\":5840:5842   */\n          0x40\n            /* \"#utility.yul\":5835:5838   */\n          dup3\n            /* \"#utility.yul\":5831:5843   */\n          add\n            /* \"#utility.yul\":5824:5843   */\n          swap1\n          pop\n            /* \"#utility.yul\":5483:5849   */\n          swap2\n          swap1\n          pop\n          jump\t// out\n            /* \"#utility.yul\":5855:6274   */\n        tag_40:\n            /* \"#utility.yul\":6021:6025   */\n          0x00\n            /* \"#utility.yul\":6059:6061   */\n          0x20\n            /* \"#utility.yul\":6048:6057   */\n          dup3\n            /* \"#utility.yul\":6044:6062   */\n          add\n            /* \"#utility.yul\":6036:6062   */\n          swap1\n          pop\n            /* \"#utility.yul\":6108:6117   */\n          dup2\n            /* \"#utility.yul\":6102:6106   */\n          dup2\n            /* \"#utility.yul\":6098:6118   */\n          sub\n            /* \"#utility.yul\":6094:6095   */\n          0x00\n            /* \"#utility.yul\":6083:6092   */\n          dup4\n            /* \"#utility.yul\":6079:6096   */\n          add\n            /* \"#utility.yul\":6072:6119   */\n          mstore\n            /* \"#utility.yul\":6136:6267   */\n          tag_154\n            /* \"#utility.yul\":6262:6266   */\n          dup2\n            /* \"#utility.yul\":6136:6267   */\n          tag_81\n          jump\t// in\n        tag_154:\n            /* \"#utility.yul\":6128:6267   */\n          swap1\n          pop\n            /* \"#utility.yul\":5855:6274   */\n          swap2\n          swap1\n          pop\n          jump\t// out\n            /* \"#utility.yul\":6280:6570   */\n        tag_82:\n            /* \"#utility.yul\":6420:6454   */\n          0x436f6d6d697452657665616c3a3a72657665616c3a2052657665616c20616e64\n            /* \"#utility.yul\":6416:6417   */\n          0x00\n            /* \"#utility.yul\":6408:6414   */\n          dup3\n            /* \"#utility.yul\":6404:6418   */\n          add\n            /* \"#utility.yul\":6397:6455   */\n          mstore\n            /* \"#utility.yul\":6489:6523   */\n          0x20636f6d6d69742068617070656e6564206f6e207468652073616d6520626c6f\n            /* \"#utility.yul\":6484:6486   */\n          0x20\n            /* \"#utility.yul\":6476:6482   */\n          dup3\n            /* \"#utility.yul\":6472:6487   */\n          add\n            /* \"#utility.yul\":6465:6524   */\n          mstore\n            /* \"#utility.yul\":6558:6562   */\n          0x636b000000000000000000000000000000000000000000000000000000000000\n            /* \"#utility.yul\":6553:6555   */\n          0x40\n            /* \"#utility.yul\":6545:6551   */\n          dup3\n            /* \"#utility.yul\":6541:6556   */\n          add\n            /* \"#utility.yul\":6534:6563   */\n          mstore\n            /* \"#utility.yul\":6280:6570   */\n          pop\n          jump\t// out\n            /* \"#utility.yul\":6576:6942   */\n        tag_83:\n            /* \"#utility.yul\":6718:6721   */\n          0x00\n            /* \"#utility.yul\":6739:6806   */\n          tag_157\n            /* \"#utility.yul\":6803:6805   */\n          0x42\n            /* \"#utility.yul\":6798:6801   */\n          dup4\n            /* \"#utility.yul\":6739:6806   */\n          tag_77\n          jump\t// in\n        tag_157:\n            /* \"#utility.yul\":6732:6806   */\n          swap2\n          pop\n            /* \"#utility.yul\":6815:6908   */\n          tag_158\n            /* \"#utility.yul\":6904:6907   */\n          dup3\n            /* \"#utility.yul\":6815:6908   */\n          tag_82\n          jump\t// in\n        tag_158:\n            /* \"#utility.yul\":6933:6935   */\n          0x60\n            /* \"#utility.yul\":6928:6931   */\n          dup3\n            /* \"#utility.yul\":6924:6936   */\n          add\n            /* \"#utility.yul\":6917:6936   */\n          swap1\n          pop\n            /* \"#utility.yul\":6576:6942   */\n          swap2\n          swap1\n          pop\n          jump\t// out\n            /* \"#utility.yul\":6948:7367   */\n        tag_43:\n            /* \"#utility.yul\":7114:7118   */\n          0x00\n            /* \"#utility.yul\":7152:7154   */\n          0x20\n            /* \"#utility.yul\":7141:7150   */\n          dup3\n            /* \"#utility.yul\":7137:7155   */\n          add\n            /* \"#utility.yul\":7129:7155   */\n          swap1\n          pop\n            /* \"#utility.yul\":7201:7210   */\n          dup2\n            /* \"#utility.yul\":7195:7199   */\n          dup2\n            /* \"#utility.yul\":7191:7211   */\n          sub\n            /* \"#utility.yul\":7187:7188   */\n          0x00\n            /* \"#utility.yul\":7176:7185   */\n          dup4\n            /* \"#utility.yul\":7172:7189   */\n          add\n            /* \"#utility.yul\":7165:7212   */\n          mstore\n            /* \"#utility.yul\":7229:7360   */\n          tag_160\n            /* \"#utility.yul\":7355:7359   */\n          dup2\n            /* \"#utility.yul\":7229:7360   */\n          tag_83\n          jump\t// in\n        tag_160:\n            /* \"#utility.yul\":7221:7360   */\n          swap1\n          pop\n            /* \"#utility.yul\":6948:7367   */\n          swap2\n          swap1\n          pop\n          jump\t// out\n            /* \"#utility.yul\":7373:7553   */\n        tag_84:\n            /* \"#utility.yul\":7421:7498   */\n          0x4e487b7100000000000000000000000000000000000000000000000000000000\n            /* \"#utility.yul\":7418:7419   */\n          0x00\n            /* \"#utility.yul\":7411:7499   */\n          mstore\n            /* \"#utility.yul\":7518:7522   */\n          0x11\n            /* \"#utility.yul\":7515:7516   */\n          0x04\n            /* \"#utility.yul\":7508:7523   */\n          mstore\n            /* \"#utility.yul\":7542:7546   */\n          0x24\n            /* \"#utility.yul\":7539:7540   */\n          0x00\n            /* \"#utility.yul\":7532:7547   */\n          revert\n            /* \"#utility.yul\":7559:7764   */\n        tag_45:\n            /* \"#utility.yul\":7598:7601   */\n          0x00\n            /* \"#utility.yul\":7617:7636   */\n          tag_163\n            /* \"#utility.yul\":7634:7635   */\n          dup3\n            /* \"#utility.yul\":7617:7636   */\n          tag_71\n          jump\t// in\n        tag_163:\n            /* \"#utility.yul\":7612:7636   */\n          swap2\n          pop\n            /* \"#utility.yul\":7650:7669   */\n          tag_164\n            /* \"#utility.yul\":7667:7668   */\n          dup4\n            /* \"#utility.yul\":7650:7669   */\n          tag_71\n          jump\t// in\n        tag_164:\n            /* \"#utility.yul\":7645:7669   */\n          swap3\n          pop\n            /* \"#utility.yul\":7692:7693   */\n          dup3\n            /* \"#utility.yul\":7689:7690   */\n          dup3\n            /* \"#utility.yul\":7685:7694   */\n          add\n            /* \"#utility.yul\":7678:7694   */\n          swap1\n          pop\n            /* \"#utility.yul\":7715:7733   */\n          0xffffffffffffffff\n            /* \"#utility.yul\":7710:7713   */\n          dup2\n            /* \"#utility.yul\":7707:7734   */\n          gt\n            /* \"#utility.yul\":7704:7757   */\n          iszero\n          tag_165\n          jumpi\n            /* \"#utility.yul\":7737:7755   */\n          tag_166\n          tag_84\n          jump\t// in\n        tag_166:\n            /* \"#utility.yul\":7704:7757   */\n        tag_165:\n            /* \"#utility.yul\":7559:7764   */\n          swap3\n          swap2\n          pop\n          pop\n          jump\t// out\n            /* \"#utility.yul\":7770:7996   */\n        tag_85:\n            /* \"#utility.yul\":7910:7944   */\n          0x436f6d6d697452657665616c3a3a72657665616c3a2052657665616c65642074\n            /* \"#utility.yul\":7906:7907   */\n          0x00\n            /* \"#utility.yul\":7898:7904   */\n          dup3\n            /* \"#utility.yul\":7894:7908   */\n          add\n            /* \"#utility.yul\":7887:7945   */\n          mstore\n            /* \"#utility.yul\":7979:7988   */\n          0x6f6f206c61746500000000000000000000000000000000000000000000000000\n            /* \"#utility.yul\":7974:7976   */\n          0x20\n            /* \"#utility.yul\":7966:7972   */\n          dup3\n            /* \"#utility.yul\":7962:7977   */\n          add\n            /* \"#utility.yul\":7955:7989   */\n          mstore\n            /* \"#utility.yul\":7770:7996   */\n          pop\n          jump\t// out\n            /* \"#utility.yul\":8002:8368   */\n        tag_86:\n            /* \"#utility.yul\":8144:8147   */\n          0x00\n            /* \"#utility.yul\":8165:8232   */\n          tag_169\n            /* \"#utility.yul\":8229:8231   */\n          0x27\n            /* \"#utility.yul\":8224:8227   */\n          dup4\n            /* \"#utility.yul\":8165:8232   */\n          tag_77\n          jump\t// in\n        tag_169:\n            /* \"#utility.yul\":8158:8232   */\n          swap2\n          pop\n            /* \"#utility.yul\":8241:8334   */\n          tag_170\n            /* \"#utility.yul\":8330:8333   */\n          dup3\n            /* \"#utility.yul\":8241:8334   */\n          tag_85\n          jump\t// in\n        tag_170:\n            /* \"#utility.yul\":8359:8361   */\n          0x40\n            /* \"#utility.yul\":8354:8357   */\n          dup3\n            /* \"#utility.yul\":8350:8362   */\n          add\n            /* \"#utility.yul\":8343:8362   */\n          swap1\n          pop\n            /* \"#utility.yul\":8002:8368   */\n          swap2\n          swap1\n          pop\n          jump\t// out\n            /* \"#utility.yul\":8374:8793   */\n        tag_48:\n            /* \"#utility.yul\":8540:8544   */\n          0x00\n            /* \"#utility.yul\":8578:8580   */\n          0x20\n            /* \"#utility.yul\":8567:8576   */\n          dup3\n            /* \"#utility.yul\":8563:8581   */\n          add\n            /* \"#utility.yul\":8555:8581   */\n          swap1\n          pop\n            /* \"#utility.yul\":8627:8636   */\n          dup2\n            /* \"#utility.yul\":8621:8625   */\n          dup2\n            /* \"#utility.yul\":8617:8637   */\n          sub\n            /* \"#utility.yul\":8613:8614   */\n          0x00\n            /* \"#utility.yul\":8602:8611   */\n          dup4\n            /* \"#utility.yul\":8598:8615   */\n          add\n            /* \"#utility.yul\":8591:8638   */\n          mstore\n            /* \"#utility.yul\":8655:8786   */\n          tag_172\n            /* \"#utility.yul\":8781:8785   */\n          dup2\n            /* \"#utility.yul\":8655:8786   */\n          tag_86\n          jump\t// in\n        tag_172:\n            /* \"#utility.yul\":8647:8786   */\n          swap1\n          pop\n            /* \"#utility.yul\":8374:8793   */\n          swap2\n          swap1\n          pop\n          jump\t// out\n            /* \"#utility.yul\":8799:9196   */\n        tag_50:\n            /* \"#utility.yul\":8939:8942   */\n          0x00\n            /* \"#utility.yul\":8954:9029   */\n          tag_174\n            /* \"#utility.yul\":9025:9028   */\n          dup3\n            /* \"#utility.yul\":9016:9022   */\n          dup6\n            /* \"#utility.yul\":8954:9029   */\n          tag_76\n          jump\t// in\n        tag_174:\n            /* \"#utility.yul\":9054:9056   */\n          0x20\n            /* \"#utility.yul\":9049:9052   */\n          dup3\n            /* \"#utility.yul\":9045:9057   */\n          add\n            /* \"#utility.yul\":9038:9057   */\n          swap2\n          pop\n            /* \"#utility.yul\":9067:9142   */\n          tag_175\n            /* \"#utility.yul\":9138:9141   */\n          dup3\n            /* \"#utility.yul\":9129:9135   */\n          dup5\n            /* \"#utility.yul\":9067:9142   */\n          tag_76\n          jump\t// in\n        tag_175:\n            /* \"#utility.yul\":9167:9169   */\n          0x20\n            /* \"#utility.yul\":9162:9165   */\n          dup3\n            /* \"#utility.yul\":9158:9170   */\n          add\n            /* \"#utility.yul\":9151:9170   */\n          swap2\n          pop\n            /* \"#utility.yul\":9187:9190   */\n          dup2\n            /* \"#utility.yul\":9180:9190   */\n          swap1\n          pop\n            /* \"#utility.yul\":8799:9196   */\n          swap4\n          swap3\n          pop\n          pop\n          pop\n          jump\t// out\n            /* \"#utility.yul\":9202:9279   */\n        tag_87:\n            /* \"#utility.yul\":9239:9246   */\n          0x00\n            /* \"#utility.yul\":9268:9273   */\n          dup2\n            /* \"#utility.yul\":9257:9273   */\n          swap1\n          pop\n            /* \"#utility.yul\":9202:9279   */\n          swap2\n          swap1\n          pop\n          jump\t// out\n            /* \"#utility.yul\":9285:9465   */\n        tag_88:\n            /* \"#utility.yul\":9333:9410   */\n          0x4e487b7100000000000000000000000000000000000000000000000000000000\n            /* \"#utility.yul\":9330:9331   */\n          0x00\n            /* \"#utility.yul\":9323:9411   */\n          mstore\n            /* \"#utility.yul\":9430:9434   */\n          0x12\n            /* \"#utility.yul\":9427:9428   */\n          0x04\n            /* \"#utility.yul\":9420:9435   */\n          mstore\n            /* \"#utility.yul\":9454:9458   */\n          0x24\n            /* \"#utility.yul\":9451:9452   */\n          0x00\n            /* \"#utility.yul\":9444:9459   */\n          revert\n            /* \"#utility.yul\":9471:9647   */\n        tag_52:\n            /* \"#utility.yul\":9503:9504   */\n          0x00\n            /* \"#utility.yul\":9520:9540   */\n          tag_179\n            /* \"#utility.yul\":9538:9539   */\n          dup3\n            /* \"#utility.yul\":9520:9540   */\n          tag_87\n          jump\t// in\n        tag_179:\n            /* \"#utility.yul\":9515:9540   */\n          swap2\n          pop\n            /* \"#utility.yul\":9554:9574   */\n          tag_180\n            /* \"#utility.yul\":9572:9573   */\n          dup4\n            /* \"#utility.yul\":9554:9574   */\n          tag_87\n          jump\t// in\n        tag_180:\n            /* \"#utility.yul\":9549:9574   */\n          swap3\n          pop\n            /* \"#utility.yul\":9593:9594   */\n          dup3\n            /* \"#utility.yul\":9583:9618   */\n          tag_181\n          jumpi\n            /* \"#utility.yul\":9598:9616   */\n          tag_182\n          tag_88\n          jump\t// in\n        tag_182:\n            /* \"#utility.yul\":9583:9618   */\n        tag_181:\n            /* \"#utility.yul\":9639:9640   */\n          dup3\n            /* \"#utility.yul\":9636:9637   */\n          dup3\n            /* \"#utility.yul\":9632:9641   */\n          mod\n            /* \"#utility.yul\":9627:9641   */\n          swap1\n          pop\n            /* \"#utility.yul\":9471:9647   */\n          swap3\n          swap2\n          pop\n          pop\n          jump\t// out\n            /* \"#utility.yul\":9653:9771   */\n        tag_89:\n            /* \"#utility.yul\":9740:9764   */\n          tag_184\n            /* \"#utility.yul\":9758:9763   */\n          dup2\n            /* \"#utility.yul\":9740:9764   */\n          tag_68\n          jump\t// in\n        tag_184:\n            /* \"#utility.yul\":9735:9738   */\n          dup3\n            /* \"#utility.yul\":9728:9765   */\n          mstore\n            /* \"#utility.yul\":9653:9771   */\n          pop\n          pop\n          jump\t// out\n            /* \"#utility.yul\":9777:9895   */\n        tag_90:\n            /* \"#utility.yul\":9864:9888   */\n          tag_186\n            /* \"#utility.yul\":9882:9887   */\n          dup2\n            /* \"#utility.yul\":9864:9888   */\n          tag_87\n          jump\t// in\n        tag_186:\n            /* \"#utility.yul\":9859:9862   */\n          dup3\n            /* \"#utility.yul\":9852:9889   */\n          mstore\n            /* \"#utility.yul\":9777:9895   */\n          pop\n          pop\n          jump\t// out\n            /* \"#utility.yul\":9901:10343   */\n        tag_54:\n            /* \"#utility.yul\":10050:10054   */\n          0x00\n            /* \"#utility.yul\":10088:10090   */\n          0x60\n            /* \"#utility.yul\":10077:10086   */\n          dup3\n            /* \"#utility.yul\":10073:10091   */\n          add\n            /* \"#utility.yul\":10065:10091   */\n          swap1\n          pop\n            /* \"#utility.yul\":10101:10172   */\n          tag_188\n            /* \"#utility.yul\":10169:10170   */\n          0x00\n            /* \"#utility.yul\":10158:10167   */\n          dup4\n            /* \"#utility.yul\":10154:10171   */\n          add\n            /* \"#utility.yul\":10145:10151   */\n          dup7\n            /* \"#utility.yul\":10101:10172   */\n          tag_89\n          jump\t// in\n        tag_188:\n            /* \"#utility.yul\":10182:10254   */\n          tag_189\n            /* \"#utility.yul\":10250:10252   */\n          0x20\n            /* \"#utility.yul\":10239:10248   */\n          dup4\n            /* \"#utility.yul\":10235:10253   */\n          add\n            /* \"#utility.yul\":10226:10232   */\n          dup6\n            /* \"#utility.yul\":10182:10254   */\n          tag_64\n          jump\t// in\n        tag_189:\n            /* \"#utility.yul\":10264:10336   */\n          tag_190\n            /* \"#utility.yul\":10332:10334   */\n          0x40\n            /* \"#utility.yul\":10321:10330   */\n          dup4\n            /* \"#utility.yul\":10317:10335   */\n          add\n            /* \"#utility.yul\":10308:10314   */\n          dup5\n            /* \"#utility.yul\":10264:10336   */\n          tag_90\n          jump\t// in\n        tag_190:\n            /* \"#utility.yul\":9901:10343   */\n          swap5\n          swap4\n          pop\n          pop\n          pop\n          pop\n          jump\t// out\n            /* \"#utility.yul\":10349:10787   */\n        tag_57:\n            /* \"#utility.yul\":10496:10500   */\n          0x00\n            /* \"#utility.yul\":10534:10536   */\n          0x60\n            /* \"#utility.yul\":10523:10532   */\n          dup3\n            /* \"#utility.yul\":10519:10537   */\n          add\n            /* \"#utility.yul\":10511:10537   */\n          swap1\n          pop\n            /* \"#utility.yul\":10547:10618   */\n          tag_192\n            /* \"#utility.yul\":10615:10616   */\n          0x00\n            /* \"#utility.yul\":10604:10613   */\n          dup4\n            /* \"#utility.yul\":10600:10617   */\n          add\n            /* \"#utility.yul\":10591:10597   */\n          dup7\n            /* \"#utility.yul\":10547:10618   */\n          tag_89\n          jump\t// in\n        tag_192:\n            /* \"#utility.yul\":10628:10700   */\n          tag_193\n            /* \"#utility.yul\":10696:10698   */\n          0x20\n            /* \"#utility.yul\":10685:10694   */\n          dup4\n            /* \"#utility.yul\":10681:10699   */\n          add\n            /* \"#utility.yul\":10672:10678   */\n          dup6\n            /* \"#utility.yul\":10628:10700   */\n          tag_64\n          jump\t// in\n        tag_193:\n            /* \"#utility.yul\":10710:10780   */\n          tag_194\n            /* \"#utility.yul\":10776:10778   */\n          0x40\n            /* \"#utility.yul\":10765:10774   */\n          dup4\n            /* \"#utility.yul\":10761:10779   */\n          add\n            /* \"#utility.yul\":10752:10758   */\n          dup5\n            /* \"#utility.yul\":10710:10780   */\n          tag_72\n          jump\t// in\n        tag_194:\n            /* \"#utility.yul\":10349:10787   */\n          swap5\n          swap4\n          pop\n          pop\n          pop\n          pop\n          jump\t// out\n\n        auxdata: 0xa26469706673582212201eafc90a77e60daf17aa211974ece341ffd58201ca08dfba4a59a1a10bff5ee064736f6c634300081a0033\n    }\n}\n",
				"bytecode": {
					"linkReferences": {},
					"object": "60806040525f80555f6001555f6002555f60075560405161001f90610225565b604051809103905ff080158015610038573d5f803e3d5ffd5b5060085f6101000a81548173ffffffffffffffffffffffffffffffffffffffff021916908373ffffffffffffffffffffffffffffffffffffffff160217905550600160095560405161008990610232565b604051809103905ff0801580156100a2573d5f803e3d5ffd5b50600a5f6101000a81548173ffffffffffffffffffffffffffffffffffffffff021916908373ffffffffffffffffffffffffffffffffffffffff1602179055506040518060800160405280735b38da6a701c568545dcfcb03fcb875f56beddc473ffffffffffffffffffffffffffffffffffffffff1673ffffffffffffffffffffffffffffffffffffffff16815260200173ab8483f64d9c6d1ecf9b849ae677dd3315835cb273ffffffffffffffffffffffffffffffffffffffff1673ffffffffffffffffffffffffffffffffffffffff168152602001734b20993bc481177ec7e8f571cecae8a9e22c02db73ffffffffffffffffffffffffffffffffffffffff1673ffffffffffffffffffffffffffffffffffffffff1681526020017378731d3ca6b7e34ac0f824c42a7cc18a495cabab73ffffffffffffffffffffffffffffffffffffffff1673ffffffffffffffffffffffffffffffffffffffff16815250600b90600461021392919061023f565b5034801561021f575f80fd5b506102d6565b6102318061175783390190565b610d6f8061198883390190565b82600481019282156102aa579160200282015b828111156102a9578251825f6101000a81548173ffffffffffffffffffffffffffffffffffffffff021916908373ffffffffffffffffffffffffffffffffffffffff16021790555091602001919060010190610252565b5b5090506102b791906102bb565b5090565b5b808211156102d2575f815f9055506001016102bc565b5090565b611474806102e35f395ff3fe60806040526004361061009b575f3560e01c80637661f2b1116100635780637661f2b11461016357806384bdb0e61461019f57806390d5d0c3146101c7578063a9c6921a146101f1578063b778650314610219578063f71d96cb1461022f5761009b565b8063086f78151461009f578063190cf745146100c9578063228cb7331461010557806327b5db8a1461012f5780634a8232b014610139575b5f80fd5b3480156100aa575f80fd5b506100b361026b565b6040516100c09190610ffe565b60405180910390f35b3480156100d4575f80fd5b506100ef60048036038101906100ea9190611075565b610271565b6040516100fc91906110ba565b60405180910390f35b348015610110575f80fd5b5061011961028e565b6040516101269190610ffe565b60405180910390f35b610137610294565b005b348015610144575f80fd5b5061014d61042f565b60405161015a9190610ffe565b60405180910390f35b34801561016e575f80fd5b50610189600480360381019061018491906110fd565b610435565b6040516101969190611153565b60405180910390f35b3480156101aa575f80fd5b506101c560048036038101906101c091906110fd565b610509565b005b3480156101d2575f80fd5b506101db61066f565b6040516101e89190610ffe565b60405180910390f35b3480156101fc575f80fd5b5061021760048036038101906102129190611196565b610674565b005b348015610224575f80fd5b5061022d61080a565b005b34801561023a575f80fd5b50610255600480360381019061025091906111c1565b610bb0565b60405161026291906111fb565b60405180910390f35b60075481565b6005602052805f5260405f205f915054906101000a900460ff1681565b60015481565b60025f54106102a1575f80fd5b6102a9610beb565b6102b1575f80fd5b670de0b6b3a764000034146102c4575f80fd5b3460015f8282546102d59190611241565b92505081905550600160055f3373ffffffffffffffffffffffffffffffffffffffff1673ffffffffffffffffffffffffffffffffffffffff1681526020019081526020015f205f6101000a81548160ff021916908315150217905550600633908060018154018082558091505060019003905f5260205f20015f9091909190916101000a81548173ffffffffffffffffffffffffffffffffffffffff021916908373ffffffffffffffffffffffffffffffffffffffff1602179055505f808154809291906103a290611274565b919050555060015f540361042d5760085f9054906101000a900473ffffffffffffffffffffffffffffffffffffffff1673ffffffffffffffffffffffffffffffffffffffff1663a63f7c536040518163ffffffff1660e01b81526004015f604051808303815f87803b158015610416575f80fd5b505af1158015610428573d5f803e3d5ffd5b505050505b565b60025481565b5f80838360405160200161044a9291906112db565b6040516020818303038152906040528051906020012090505f600a5f9054906101000a900473ffffffffffffffffffffffffffffffffffffffff1673ffffffffffffffffffffffffffffffffffffffff16633cf5040a836040518263ffffffff1660e01b81526004016104bd9190611153565b602060405180830381865afa1580156104d8573d5f803e3d5ffd5b505050506040513d601f19601f820116820180604052508101906104fc919061131a565b9050809250505092915050565b600260075414610517575f80fd5b5f828260405160200161052b9291906112db565b604051602081830303815290604052805190602001209050600a5f9054906101000a900473ffffffffffffffffffffffffffffffffffffffff1673ffffffffffffffffffffffffffffffffffffffff1663701fd0f1826040518263ffffffff1660e01b815260040161059d9190611153565b5f604051808303815f87803b1580156105b4575f80fd5b505af11580156105c6573d5f803e3d5ffd5b505050505f8260ff169050600481111580156105e257505f8110155b6105ea575f80fd5b8060045f3373ffffffffffffffffffffffffffffffffffffffff1673ffffffffffffffffffffffffffffffffffffffff1681526020019081526020015f208190555060025f81548092919061063e90611274565b91905055506002805403610669575f6002819055505f6007819055505f8081905550610668610c80565b5b50505050565b5f5481565b60025f5414610681575f80fd5b60055f3373ffffffffffffffffffffffffffffffffffffffff1673ffffffffffffffffffffffffffffffffffffffff1681526020019081526020015f205f9054906101000a900460ff166106d3575f80fd5b600a5f9054906101000a900473ffffffffffffffffffffffffffffffffffffffff1673ffffffffffffffffffffffffffffffffffffffff1663f14fcbc8826040518263ffffffff1660e01b815260040161072d9190611153565b5f604051808303815f87803b158015610744575f80fd5b505af1158015610756573d5f803e3d5ffd5b505050508060035f3373ffffffffffffffffffffffffffffffffffffffff1673ffffffffffffffffffffffffffffffffffffffff1681526020019081526020015f20819055505f60055f3373ffffffffffffffffffffffffffffffffffffffff1673ffffffffffffffffffffffffffffffffffffffff1681526020019081526020015f205f6101000a81548160ff02191690831515021790555060075f81548092919061080290611274565b919050555050565b60095460085f9054906101000a900473ffffffffffffffffffffffffffffffffffffffff1673ffffffffffffffffffffffffffffffffffffffff1663d97c84166040518163ffffffff1660e01b8152600401602060405180830381865afa158015610877573d5f803e3d5ffd5b505050506040513d601f19601f8201168201806040525081019061089b9190611359565b10610bae57600160068054905003610938575f60065f815481106108c2576108c1611384565b5b905f5260205f20015f9054906101000a900473ffffffffffffffffffffffffffffffffffffffff1690508073ffffffffffffffffffffffffffffffffffffffff166108fc60015490811502906040515f60405180830381858888f19350505050158015610931573d5f803e3d5ffd5b5050610ba5565b60025f5414801561094b57506002600754145b15610a7a575f60065f8154811061096557610964611384565b5b905f5260205f20015f9054906101000a900473ffffffffffffffffffffffffffffffffffffffff1690505f60066001815481106109a5576109a4611384565b5b905f5260205f20015f9054906101000a900473ffffffffffffffffffffffffffffffffffffffff1690508173ffffffffffffffffffffffffffffffffffffffff166108fc60026001546109f891906113de565b90811502906040515f60405180830381858888f19350505050158015610a20573d5f803e3d5ffd5b508073ffffffffffffffffffffffffffffffffffffffff166108fc6002600154610a4a91906113de565b90811502906040515f60405180830381858888f19350505050158015610a72573d5f803e3d5ffd5b505050610ba4565b5f5b6002811015610ba25760055f60068381548110610a9c57610a9b611384565b5b905f5260205f20015f9054906101000a900473ffffffffffffffffffffffffffffffffffffffff1673ffffffffffffffffffffffffffffffffffffffff1673ffffffffffffffffffffffffffffffffffffffff1681526020019081526020015f205f9054906101000a900460ff16610b95575f60068281548110610b2357610b22611384565b5b905f5260205f20015f9054906101000a900473ffffffffffffffffffffffffffffffffffffffff1690508073ffffffffffffffffffffffffffffffffffffffff166108fc60015490811502906040515f60405180830381858888f19350505050158015610b92573d5f803e3d5ffd5b50505b8080600101915050610a7c565b505b5b610bad610f8a565b5b565b60068181548110610bbf575f80fd5b905f5260205f20015f915054906101000a900473ffffffffffffffffffffffffffffffffffffffff1681565b5f805f90505b6004811015610c7857600b8160048110610c0e57610c0d611384565b5b015f9054906101000a900473ffffffffffffffffffffffffffffffffffffffff1673ffffffffffffffffffffffffffffffffffffffff163373ffffffffffffffffffffffffffffffffffffffff1603610c6b576001915050610c7d565b8080600101915050610bf1565b505f90505b90565b5f60045f60065f81548110610c9857610c97611384565b5b905f5260205f20015f9054906101000a900473ffffffffffffffffffffffffffffffffffffffff1673ffffffffffffffffffffffffffffffffffffffff1673ffffffffffffffffffffffffffffffffffffffff1681526020019081526020015f205490505f60045f6006600181548110610d1557610d14611384565b5b905f5260205f20015f9054906101000a900473ffffffffffffffffffffffffffffffffffffffff1673ffffffffffffffffffffffffffffffffffffffff1673ffffffffffffffffffffffffffffffffffffffff1681526020019081526020015f205490505f60065f81548110610d8e57610d8d611384565b5b905f5260205f20015f9054906101000a900473ffffffffffffffffffffffffffffffffffffffff1690505f6006600181548110610dce57610dcd611384565b5b905f5260205f20015f9054906101000a900473ffffffffffffffffffffffffffffffffffffffff169050828403610ea8578173ffffffffffffffffffffffffffffffffffffffff166108fc6002600154610e2891906113de565b90811502906040515f60405180830381858888f19350505050158015610e50573d5f803e3d5ffd5b508073ffffffffffffffffffffffffffffffffffffffff166108fc6002600154610e7a91906113de565b90811502906040515f60405180830381858888f19350505050158015610ea2573d5f803e3d5ffd5b50610f7d565b836005600185610eb89190611241565b610ec2919061140e565b1480610ee55750836005600385610ed99190611241565b610ee3919061140e565b145b15610f35578173ffffffffffffffffffffffffffffffffffffffff166108fc60015490811502906040515f60405180830381858888f19350505050158015610f2f573d5f803e3d5ffd5b50610f7c565b8073ffffffffffffffffffffffffffffffffffffffff166108fc60015490811502906040515f60405180830381858888f19350505050158015610f7a573d5f803e3d5ffd5b505b5b5f60018190555050505050565b60065f610f979190610fad565b5f6007819055505f80819055505f600181905550565b5080545f8255905f5260205f2090810190610fc89190610fcb565b50565b5b80821115610fe2575f815f905550600101610fcc565b5090565b5f819050919050565b610ff881610fe6565b82525050565b5f6020820190506110115f830184610fef565b92915050565b5f80fd5b5f73ffffffffffffffffffffffffffffffffffffffff82169050919050565b5f6110448261101b565b9050919050565b6110548161103a565b811461105e575f80fd5b50565b5f8135905061106f8161104b565b92915050565b5f6020828403121561108a57611089611017565b5b5f61109784828501611061565b91505092915050565b5f8115159050919050565b6110b4816110a0565b82525050565b5f6020820190506110cd5f8301846110ab565b92915050565b6110dc81610fe6565b81146110e6575f80fd5b50565b5f813590506110f7816110d3565b92915050565b5f806040838503121561111357611112611017565b5b5f611120858286016110e9565b9250506020611131858286016110e9565b9150509250929050565b5f819050919050565b61114d8161113b565b82525050565b5f6020820190506111665f830184611144565b92915050565b6111758161113b565b811461117f575f80fd5b50565b5f813590506111908161116c565b92915050565b5f602082840312156111ab576111aa611017565b5b5f6111b884828501611182565b91505092915050565b5f602082840312156111d6576111d5611017565b5b5f6111e3848285016110e9565b91505092915050565b6111f58161103a565b82525050565b5f60208201905061120e5f8301846111ec565b92915050565b7f4e487b71000000000000000000000000000000000000000000000000000000005f52601160045260245ffd5b5f61124b82610fe6565b915061125683610fe6565b925082820190508082111561126e5761126d611214565b5b92915050565b5f61127e82610fe6565b91507fffffffffffffffffffffffffffffffffffffffffffffffffffffffffffffffff82036112b0576112af611214565b5b600182019050919050565b5f819050919050565b6112d56112d082610fe6565b6112bb565b82525050565b5f6112e682856112c4565b6020820191506112f682846112c4565b6020820191508190509392505050565b5f815190506113148161116c565b92915050565b5f6020828403121561132f5761132e611017565b5b5f61133c84828501611306565b91505092915050565b5f81519050611353816110d3565b92915050565b5f6020828403121561136e5761136d611017565b5b5f61137b84828501611345565b91505092915050565b7f4e487b71000000000000000000000000000000000000000000000000000000005f52603260045260245ffd5b7f4e487b71000000000000000000000000000000000000000000000000000000005f52601260045260245ffd5b5f6113e882610fe6565b91506113f383610fe6565b925082611403576114026113b1565b5b828204905092915050565b5f61141882610fe6565b915061142383610fe6565b925082611433576114326113b1565b5b82820690509291505056fea2646970667358221220b2a3e706674359b0bb40e5d667c6e6acaf132d1ac21d3dfac2ec90e6e223805664736f6c634300081a00336080604052348015600e575f80fd5b506102158061001c5f395ff3fe608060405234801561000f575f80fd5b506004361061004a575f3560e01c806378e979251461004e578063a63f7c531461006c578063bc06b8cd14610076578063d97c841614610094575b5f80fd5b6100566100b2565b6040516100639190610109565b60405180910390f35b6100746100b7565b005b61007e6100bf565b60405161008b9190610109565b60405180910390f35b61009c6100d2565b6040516100a99190610109565b60405180910390f35b5f5481565b425f81905550565b5f8054426100cd919061014f565b905090565b5f603c5f54426100e2919061014f565b6100ec91906101af565b905090565b5f819050919050565b610103816100f1565b82525050565b5f60208201905061011c5f8301846100fa565b92915050565b7f4e487b71000000000000000000000000000000000000000000000000000000005f52601160045260245ffd5b5f610159826100f1565b9150610164836100f1565b925082820390508181111561017c5761017b610122565b5b92915050565b7f4e487b71000000000000000000000000000000000000000000000000000000005f52601260045260245ffd5b5f6101b9826100f1565b91506101c4836100f1565b9250826101d4576101d3610182565b5b82820490509291505056fea2646970667358221220aac731c651a41091e78c4c68ca2cde2e708ec23868c1bbf8979319bbf0b1f7c164736f6c634300081a0033608060405260645f806101000a81548160ff021916908360ff1602179055503480156028575f80fd5b50610d39806100365f395ff3fe608060405234801561000f575f80fd5b5060043610610055575f3560e01c80633cf5040a146100595780636ac5db1914610089578063701fd0f1146100a75780637b43a8e6146100c3578063f14fcbc8146100f5575b5f80fd5b610073600480360381019061006e919061075d565b610111565b6040516100809190610797565b60405180910390f35b610091610140565b60405161009e91906107cb565b60405180910390f35b6100c160048036038101906100bc919061075d565b610150565b005b6100dd60048036038101906100d8919061083e565b61050e565b6040516100ec939291906108a5565b60405180910390f35b61010f600480360381019061010a919061075d565b610554565b005b5f8160405160200161012391906108fa565b604051602081830303815290604052805190602001209050919050565b5f8054906101000a900460ff1681565b5f151560015f3373ffffffffffffffffffffffffffffffffffffffff1673ffffffffffffffffffffffffffffffffffffffff1681526020019081526020015f2060010160089054906101000a900460ff161515146101e3576040517f08c379a00000000000000000000000000000000000000000000000000000000081526004016101da90610994565b60405180910390fd5b6001805f3373ffffffffffffffffffffffffffffffffffffffff1673ffffffffffffffffffffffffffffffffffffffff1681526020019081526020015f2060010160086101000a81548160ff02191690831515021790555060015f3373ffffffffffffffffffffffffffffffffffffffff1673ffffffffffffffffffffffffffffffffffffffff1681526020019081526020015f205f015461028482610111565b146102c4576040517f08c379a00000000000000000000000000000000000000000000000000000000081526004016102bb90610a22565b60405180910390fd5b60015f3373ffffffffffffffffffffffffffffffffffffffff1673ffffffffffffffffffffffffffffffffffffffff1681526020019081526020015f206001015f9054906101000a900467ffffffffffffffff1667ffffffffffffffff164367ffffffffffffffff161161036d576040517f08c379a000000000000000000000000000000000000000000000000000000000815260040161036490610ad6565b60405180910390fd5b60fa60015f3373ffffffffffffffffffffffffffffffffffffffff1673ffffffffffffffffffffffffffffffffffffffff1681526020019081526020015f206001015f9054906101000a900467ffffffffffffffff166103cd9190610b21565b67ffffffffffffffff164367ffffffffffffffff161115610423576040517f08c379a000000000000000000000000000000000000000000000000000000000815260040161041a90610bcc565b60405180910390fd5b5f60015f3373ffffffffffffffffffffffffffffffffffffffff1673ffffffffffffffffffffffffffffffffffffffff1681526020019081526020015f206001015f9054906101000a900467ffffffffffffffff1667ffffffffffffffff164090505f805f9054906101000a900460ff1660ff1682846040516020016104aa929190610bea565b604051602081830303815290604052805190602001205f1c6104cc9190610c4b565b90507fbc016dd1cadeaefcb851af7a0a93532e0023d536894b730801f7bcfe7065bcc233848360405161050193929190610c99565b60405180910390a1505050565b6001602052805f5260405f205f91509050805f015490806001015f9054906101000a900467ffffffffffffffff16908060010160089054906101000a900460ff16905083565b8060015f3373ffffffffffffffffffffffffffffffffffffffff1673ffffffffffffffffffffffffffffffffffffffff1681526020019081526020015f205f01819055504360015f3373ffffffffffffffffffffffffffffffffffffffff1673ffffffffffffffffffffffffffffffffffffffff1681526020019081526020015f206001015f6101000a81548167ffffffffffffffff021916908367ffffffffffffffff1602179055505f60015f3373ffffffffffffffffffffffffffffffffffffffff1673ffffffffffffffffffffffffffffffffffffffff1681526020019081526020015f2060010160086101000a81548160ff0219169083151502179055507f3c1a1f8f38335b17f751c6da4ba7d1865f26b3997535176f5080de9fad8916033360015f3373ffffffffffffffffffffffffffffffffffffffff1673ffffffffffffffffffffffffffffffffffffffff1681526020019081526020015f205f015460015f3373ffffffffffffffffffffffffffffffffffffffff1673ffffffffffffffffffffffffffffffffffffffff1681526020019081526020015f206001015f9054906101000a900467ffffffffffffffff1660405161071b93929190610cce565b60405180910390a150565b5f80fd5b5f819050919050565b61073c8161072a565b8114610746575f80fd5b50565b5f8135905061075781610733565b92915050565b5f6020828403121561077257610771610726565b5b5f61077f84828501610749565b91505092915050565b6107918161072a565b82525050565b5f6020820190506107aa5f830184610788565b92915050565b5f60ff82169050919050565b6107c5816107b0565b82525050565b5f6020820190506107de5f8301846107bc565b92915050565b5f73ffffffffffffffffffffffffffffffffffffffff82169050919050565b5f61080d826107e4565b9050919050565b61081d81610803565b8114610827575f80fd5b50565b5f8135905061083881610814565b92915050565b5f6020828403121561085357610852610726565b5b5f6108608482850161082a565b91505092915050565b5f67ffffffffffffffff82169050919050565b61088581610869565b82525050565b5f8115159050919050565b61089f8161088b565b82525050565b5f6060820190506108b85f830186610788565b6108c5602083018561087c565b6108d26040830184610896565b949350505050565b5f819050919050565b6108f46108ef8261072a565b6108da565b82525050565b5f61090582846108e3565b60208201915081905092915050565b5f82825260208201905092915050565b7f436f6d6d697452657665616c3a3a72657665616c3a20416c72656164792072655f8201527f7665616c65640000000000000000000000000000000000000000000000000000602082015250565b5f61097e602683610914565b915061098982610924565b604082019050919050565b5f6020820190508181035f8301526109ab81610972565b9050919050565b7f436f6d6d697452657665616c3a3a72657665616c3a2052657665616c656420685f8201527f61736820646f6573206e6f74206d6174636820636f6d6d697400000000000000602082015250565b5f610a0c603983610914565b9150610a17826109b2565b604082019050919050565b5f6020820190508181035f830152610a3981610a00565b9050919050565b7f436f6d6d697452657665616c3a3a72657665616c3a2052657665616c20616e645f8201527f20636f6d6d69742068617070656e6564206f6e207468652073616d6520626c6f60208201527f636b000000000000000000000000000000000000000000000000000000000000604082015250565b5f610ac0604283610914565b9150610acb82610a40565b606082019050919050565b5f6020820190508181035f830152610aed81610ab4565b9050919050565b7f4e487b71000000000000000000000000000000000000000000000000000000005f52601160045260245ffd5b5f610b2b82610869565b9150610b3683610869565b9250828201905067ffffffffffffffff811115610b5657610b55610af4565b5b92915050565b7f436f6d6d697452657665616c3a3a72657665616c3a2052657665616c656420745f8201527f6f6f206c61746500000000000000000000000000000000000000000000000000602082015250565b5f610bb6602783610914565b9150610bc182610b5c565b604082019050919050565b5f6020820190508181035f830152610be381610baa565b9050919050565b5f610bf582856108e3565b602082019150610c0582846108e3565b6020820191508190509392505050565b5f819050919050565b7f4e487b71000000000000000000000000000000000000000000000000000000005f52601260045260245ffd5b5f610c5582610c15565b9150610c6083610c15565b925082610c7057610c6f610c1e565b5b828206905092915050565b610c8481610803565b82525050565b610c9381610c15565b82525050565b5f606082019050610cac5f830186610c7b565b610cb96020830185610788565b610cc66040830184610c8a565b949350505050565b5f606082019050610ce15f830186610c7b565b610cee6020830185610788565b610cfb604083018461087c565b94935050505056fea26469706673582212201eafc90a77e60daf17aa211974ece341ffd58201ca08dfba4a59a1a10bff5ee064736f6c634300081a0033",
					"opcodes": "PUSH1 0x80 PUSH1 0x40 MSTORE PUSH0 DUP1 SSTORE PUSH0 PUSH1 0x1 SSTORE PUSH0 PUSH1 0x2 SSTORE PUSH0 PUSH1 0x7 SSTORE PUSH1 0x40 MLOAD PUSH2 0x1F SWAP1 PUSH2 0x225 JUMP JUMPDEST PUSH1 0x40 MLOAD DUP1 SWAP2 SUB SWAP1 PUSH0 CREATE DUP1 ISZERO DUP1 ISZERO PUSH2 0x38 JUMPI RETURNDATASIZE PUSH0 DUP1 RETURNDATACOPY RETURNDATASIZE PUSH0 REVERT JUMPDEST POP PUSH1 0x8 PUSH0 PUSH2 0x100 EXP DUP2 SLOAD DUP2 PUSH20 0xFFFFFFFFFFFFFFFFFFFFFFFFFFFFFFFFFFFFFFFF MUL NOT AND SWAP1 DUP4 PUSH20 0xFFFFFFFFFFFFFFFFFFFFFFFFFFFFFFFFFFFFFFFF AND MUL OR SWAP1 SSTORE POP PUSH1 0x1 PUSH1 0x9 SSTORE PUSH1 0x40 MLOAD PUSH2 0x89 SWAP1 PUSH2 0x232 JUMP JUMPDEST PUSH1 0x40 MLOAD DUP1 SWAP2 SUB SWAP1 PUSH0 CREATE DUP1 ISZERO DUP1 ISZERO PUSH2 0xA2 JUMPI RETURNDATASIZE PUSH0 DUP1 RETURNDATACOPY RETURNDATASIZE PUSH0 REVERT JUMPDEST POP PUSH1 0xA PUSH0 PUSH2 0x100 EXP DUP2 SLOAD DUP2 PUSH20 0xFFFFFFFFFFFFFFFFFFFFFFFFFFFFFFFFFFFFFFFF MUL NOT AND SWAP1 DUP4 PUSH20 0xFFFFFFFFFFFFFFFFFFFFFFFFFFFFFFFFFFFFFFFF AND MUL OR SWAP1 SSTORE POP PUSH1 0x40 MLOAD DUP1 PUSH1 0x80 ADD PUSH1 0x40 MSTORE DUP1 PUSH20 0x5B38DA6A701C568545DCFCB03FCB875F56BEDDC4 PUSH20 0xFFFFFFFFFFFFFFFFFFFFFFFFFFFFFFFFFFFFFFFF AND PUSH20 0xFFFFFFFFFFFFFFFFFFFFFFFFFFFFFFFFFFFFFFFF AND DUP2 MSTORE PUSH1 0x20 ADD PUSH20 0xAB8483F64D9C6D1ECF9B849AE677DD3315835CB2 PUSH20 0xFFFFFFFFFFFFFFFFFFFFFFFFFFFFFFFFFFFFFFFF AND PUSH20 0xFFFFFFFFFFFFFFFFFFFFFFFFFFFFFFFFFFFFFFFF AND DUP2 MSTORE PUSH1 0x20 ADD PUSH20 0x4B20993BC481177EC7E8F571CECAE8A9E22C02DB PUSH20 0xFFFFFFFFFFFFFFFFFFFFFFFFFFFFFFFFFFFFFFFF AND PUSH20 0xFFFFFFFFFFFFFFFFFFFFFFFFFFFFFFFFFFFFFFFF AND DUP2 MSTORE PUSH1 0x20 ADD PUSH20 0x78731D3CA6B7E34AC0F824C42A7CC18A495CABAB PUSH20 0xFFFFFFFFFFFFFFFFFFFFFFFFFFFFFFFFFFFFFFFF AND PUSH20 0xFFFFFFFFFFFFFFFFFFFFFFFFFFFFFFFFFFFFFFFF AND DUP2 MSTORE POP PUSH1 0xB SWAP1 PUSH1 0x4 PUSH2 0x213 SWAP3 SWAP2 SWAP1 PUSH2 0x23F JUMP JUMPDEST POP CALLVALUE DUP1 ISZERO PUSH2 0x21F JUMPI PUSH0 DUP1 REVERT JUMPDEST POP PUSH2 0x2D6 JUMP JUMPDEST PUSH2 0x231 DUP1 PUSH2 0x1757 DUP4 CODECOPY ADD SWAP1 JUMP JUMPDEST PUSH2 0xD6F DUP1 PUSH2 0x1988 DUP4 CODECOPY ADD SWAP1 JUMP JUMPDEST DUP3 PUSH1 0x4 DUP2 ADD SWAP3 DUP3 ISZERO PUSH2 0x2AA JUMPI SWAP2 PUSH1 0x20 MUL DUP3 ADD JUMPDEST DUP3 DUP2 GT ISZERO PUSH2 0x2A9 JUMPI DUP3 MLOAD DUP3 PUSH0 PUSH2 0x100 EXP DUP2 SLOAD DUP2 PUSH20 0xFFFFFFFFFFFFFFFFFFFFFFFFFFFFFFFFFFFFFFFF MUL NOT AND SWAP1 DUP4 PUSH20 0xFFFFFFFFFFFFFFFFFFFFFFFFFFFFFFFFFFFFFFFF AND MUL OR SWAP1 SSTORE POP SWAP2 PUSH1 0x20 ADD SWAP2 SWAP1 PUSH1 0x1 ADD SWAP1 PUSH2 0x252 JUMP JUMPDEST JUMPDEST POP SWAP1 POP PUSH2 0x2B7 SWAP2 SWAP1 PUSH2 0x2BB JUMP JUMPDEST POP SWAP1 JUMP JUMPDEST JUMPDEST DUP1 DUP3 GT ISZERO PUSH2 0x2D2 JUMPI PUSH0 DUP2 PUSH0 SWAP1 SSTORE POP PUSH1 0x1 ADD PUSH2 0x2BC JUMP JUMPDEST POP SWAP1 JUMP JUMPDEST PUSH2 0x1474 DUP1 PUSH2 0x2E3 PUSH0 CODECOPY PUSH0 RETURN INVALID PUSH1 0x80 PUSH1 0x40 MSTORE PUSH1 0x4 CALLDATASIZE LT PUSH2 0x9B JUMPI PUSH0 CALLDATALOAD PUSH1 0xE0 SHR DUP1 PUSH4 0x7661F2B1 GT PUSH2 0x63 JUMPI DUP1 PUSH4 0x7661F2B1 EQ PUSH2 0x163 JUMPI DUP1 PUSH4 0x84BDB0E6 EQ PUSH2 0x19F JUMPI DUP1 PUSH4 0x90D5D0C3 EQ PUSH2 0x1C7 JUMPI DUP1 PUSH4 0xA9C6921A EQ PUSH2 0x1F1 JUMPI DUP1 PUSH4 0xB7786503 EQ PUSH2 0x219 JUMPI DUP1 PUSH4 0xF71D96CB EQ PUSH2 0x22F JUMPI PUSH2 0x9B JUMP JUMPDEST DUP1 PUSH4 0x86F7815 EQ PUSH2 0x9F JUMPI DUP1 PUSH4 0x190CF745 EQ PUSH2 0xC9 JUMPI DUP1 PUSH4 0x228CB733 EQ PUSH2 0x105 JUMPI DUP1 PUSH4 0x27B5DB8A EQ PUSH2 0x12F JUMPI DUP1 PUSH4 0x4A8232B0 EQ PUSH2 0x139 JUMPI JUMPDEST PUSH0 DUP1 REVERT JUMPDEST CALLVALUE DUP1 ISZERO PUSH2 0xAA JUMPI PUSH0 DUP1 REVERT JUMPDEST POP PUSH2 0xB3 PUSH2 0x26B JUMP JUMPDEST PUSH1 0x40 MLOAD PUSH2 0xC0 SWAP2 SWAP1 PUSH2 0xFFE JUMP JUMPDEST PUSH1 0x40 MLOAD DUP1 SWAP2 SUB SWAP1 RETURN JUMPDEST CALLVALUE DUP1 ISZERO PUSH2 0xD4 JUMPI PUSH0 DUP1 REVERT JUMPDEST POP PUSH2 0xEF PUSH1 0x4 DUP1 CALLDATASIZE SUB DUP2 ADD SWAP1 PUSH2 0xEA SWAP2 SWAP1 PUSH2 0x1075 JUMP JUMPDEST PUSH2 0x271 JUMP JUMPDEST PUSH1 0x40 MLOAD PUSH2 0xFC SWAP2 SWAP1 PUSH2 0x10BA JUMP JUMPDEST PUSH1 0x40 MLOAD DUP1 SWAP2 SUB SWAP1 RETURN JUMPDEST CALLVALUE DUP1 ISZERO PUSH2 0x110 JUMPI PUSH0 DUP1 REVERT JUMPDEST POP PUSH2 0x119 PUSH2 0x28E JUMP JUMPDEST PUSH1 0x40 MLOAD PUSH2 0x126 SWAP2 SWAP1 PUSH2 0xFFE JUMP JUMPDEST PUSH1 0x40 MLOAD DUP1 SWAP2 SUB SWAP1 RETURN JUMPDEST PUSH2 0x137 PUSH2 0x294 JUMP JUMPDEST STOP JUMPDEST CALLVALUE DUP1 ISZERO PUSH2 0x144 JUMPI PUSH0 DUP1 REVERT JUMPDEST POP PUSH2 0x14D PUSH2 0x42F JUMP JUMPDEST PUSH1 0x40 MLOAD PUSH2 0x15A SWAP2 SWAP1 PUSH2 0xFFE JUMP JUMPDEST PUSH1 0x40 MLOAD DUP1 SWAP2 SUB SWAP1 RETURN JUMPDEST CALLVALUE DUP1 ISZERO PUSH2 0x16E JUMPI PUSH0 DUP1 REVERT JUMPDEST POP PUSH2 0x189 PUSH1 0x4 DUP1 CALLDATASIZE SUB DUP2 ADD SWAP1 PUSH2 0x184 SWAP2 SWAP1 PUSH2 0x10FD JUMP JUMPDEST PUSH2 0x435 JUMP JUMPDEST PUSH1 0x40 MLOAD PUSH2 0x196 SWAP2 SWAP1 PUSH2 0x1153 JUMP JUMPDEST PUSH1 0x40 MLOAD DUP1 SWAP2 SUB SWAP1 RETURN JUMPDEST CALLVALUE DUP1 ISZERO PUSH2 0x1AA JUMPI PUSH0 DUP1 REVERT JUMPDEST POP PUSH2 0x1C5 PUSH1 0x4 DUP1 CALLDATASIZE SUB DUP2 ADD SWAP1 PUSH2 0x1C0 SWAP2 SWAP1 PUSH2 0x10FD JUMP JUMPDEST PUSH2 0x509 JUMP JUMPDEST STOP JUMPDEST CALLVALUE DUP1 ISZERO PUSH2 0x1D2 JUMPI PUSH0 DUP1 REVERT JUMPDEST POP PUSH2 0x1DB PUSH2 0x66F JUMP JUMPDEST PUSH1 0x40 MLOAD PUSH2 0x1E8 SWAP2 SWAP1 PUSH2 0xFFE JUMP JUMPDEST PUSH1 0x40 MLOAD DUP1 SWAP2 SUB SWAP1 RETURN JUMPDEST CALLVALUE DUP1 ISZERO PUSH2 0x1FC JUMPI PUSH0 DUP1 REVERT JUMPDEST POP PUSH2 0x217 PUSH1 0x4 DUP1 CALLDATASIZE SUB DUP2 ADD SWAP1 PUSH2 0x212 SWAP2 SWAP1 PUSH2 0x1196 JUMP JUMPDEST PUSH2 0x674 JUMP JUMPDEST STOP JUMPDEST CALLVALUE DUP1 ISZERO PUSH2 0x224 JUMPI PUSH0 DUP1 REVERT JUMPDEST POP PUSH2 0x22D PUSH2 0x80A JUMP JUMPDEST STOP JUMPDEST CALLVALUE DUP1 ISZERO PUSH2 0x23A JUMPI PUSH0 DUP1 REVERT JUMPDEST POP PUSH2 0x255 PUSH1 0x4 DUP1 CALLDATASIZE SUB DUP2 ADD SWAP1 PUSH2 0x250 SWAP2 SWAP1 PUSH2 0x11C1 JUMP JUMPDEST PUSH2 0xBB0 JUMP JUMPDEST PUSH1 0x40 MLOAD PUSH2 0x262 SWAP2 SWAP1 PUSH2 0x11FB JUMP JUMPDEST PUSH1 0x40 MLOAD DUP1 SWAP2 SUB SWAP1 RETURN JUMPDEST PUSH1 0x7 SLOAD DUP2 JUMP JUMPDEST PUSH1 0x5 PUSH1 0x20 MSTORE DUP1 PUSH0 MSTORE PUSH1 0x40 PUSH0 KECCAK256 PUSH0 SWAP2 POP SLOAD SWAP1 PUSH2 0x100 EXP SWAP1 DIV PUSH1 0xFF AND DUP2 JUMP JUMPDEST PUSH1 0x1 SLOAD DUP2 JUMP JUMPDEST PUSH1 0x2 PUSH0 SLOAD LT PUSH2 0x2A1 JUMPI PUSH0 DUP1 REVERT JUMPDEST PUSH2 0x2A9 PUSH2 0xBEB JUMP JUMPDEST PUSH2 0x2B1 JUMPI PUSH0 DUP1 REVERT JUMPDEST PUSH8 0xDE0B6B3A7640000 CALLVALUE EQ PUSH2 0x2C4 JUMPI PUSH0 DUP1 REVERT JUMPDEST CALLVALUE PUSH1 0x1 PUSH0 DUP3 DUP3 SLOAD PUSH2 0x2D5 SWAP2 SWAP1 PUSH2 0x1241 JUMP JUMPDEST SWAP3 POP POP DUP2 SWAP1 SSTORE POP PUSH1 0x1 PUSH1 0x5 PUSH0 CALLER PUSH20 0xFFFFFFFFFFFFFFFFFFFFFFFFFFFFFFFFFFFFFFFF AND PUSH20 0xFFFFFFFFFFFFFFFFFFFFFFFFFFFFFFFFFFFFFFFF AND DUP2 MSTORE PUSH1 0x20 ADD SWAP1 DUP2 MSTORE PUSH1 0x20 ADD PUSH0 KECCAK256 PUSH0 PUSH2 0x100 EXP DUP2 SLOAD DUP2 PUSH1 0xFF MUL NOT AND SWAP1 DUP4 ISZERO ISZERO MUL OR SWAP1 SSTORE POP PUSH1 0x6 CALLER SWAP1 DUP1 PUSH1 0x1 DUP2 SLOAD ADD DUP1 DUP3 SSTORE DUP1 SWAP2 POP POP PUSH1 0x1 SWAP1 SUB SWAP1 PUSH0 MSTORE PUSH1 0x20 PUSH0 KECCAK256 ADD PUSH0 SWAP1 SWAP2 SWAP1 SWAP2 SWAP1 SWAP2 PUSH2 0x100 EXP DUP2 SLOAD DUP2 PUSH20 0xFFFFFFFFFFFFFFFFFFFFFFFFFFFFFFFFFFFFFFFF MUL NOT AND SWAP1 DUP4 PUSH20 0xFFFFFFFFFFFFFFFFFFFFFFFFFFFFFFFFFFFFFFFF AND MUL OR SWAP1 SSTORE POP PUSH0 DUP1 DUP2 SLOAD DUP1 SWAP3 SWAP2 SWAP1 PUSH2 0x3A2 SWAP1 PUSH2 0x1274 JUMP JUMPDEST SWAP2 SWAP1 POP SSTORE POP PUSH1 0x1 PUSH0 SLOAD SUB PUSH2 0x42D JUMPI PUSH1 0x8 PUSH0 SWAP1 SLOAD SWAP1 PUSH2 0x100 EXP SWAP1 DIV PUSH20 0xFFFFFFFFFFFFFFFFFFFFFFFFFFFFFFFFFFFFFFFF AND PUSH20 0xFFFFFFFFFFFFFFFFFFFFFFFFFFFFFFFFFFFFFFFF AND PUSH4 0xA63F7C53 PUSH1 0x40 MLOAD DUP2 PUSH4 0xFFFFFFFF AND PUSH1 0xE0 SHL DUP2 MSTORE PUSH1 0x4 ADD PUSH0 PUSH1 0x40 MLOAD DUP1 DUP4 SUB DUP2 PUSH0 DUP8 DUP1 EXTCODESIZE ISZERO DUP1 ISZERO PUSH2 0x416 JUMPI PUSH0 DUP1 REVERT JUMPDEST POP GAS CALL ISZERO DUP1 ISZERO PUSH2 0x428 JUMPI RETURNDATASIZE PUSH0 DUP1 RETURNDATACOPY RETURNDATASIZE PUSH0 REVERT JUMPDEST POP POP POP POP JUMPDEST JUMP JUMPDEST PUSH1 0x2 SLOAD DUP2 JUMP JUMPDEST PUSH0 DUP1 DUP4 DUP4 PUSH1 0x40 MLOAD PUSH1 0x20 ADD PUSH2 0x44A SWAP3 SWAP2 SWAP1 PUSH2 0x12DB JUMP JUMPDEST PUSH1 0x40 MLOAD PUSH1 0x20 DUP2 DUP4 SUB SUB DUP2 MSTORE SWAP1 PUSH1 0x40 MSTORE DUP1 MLOAD SWAP1 PUSH1 0x20 ADD KECCAK256 SWAP1 POP PUSH0 PUSH1 0xA PUSH0 SWAP1 SLOAD SWAP1 PUSH2 0x100 EXP SWAP1 DIV PUSH20 0xFFFFFFFFFFFFFFFFFFFFFFFFFFFFFFFFFFFFFFFF AND PUSH20 0xFFFFFFFFFFFFFFFFFFFFFFFFFFFFFFFFFFFFFFFF AND PUSH4 0x3CF5040A DUP4 PUSH1 0x40 MLOAD DUP3 PUSH4 0xFFFFFFFF AND PUSH1 0xE0 SHL DUP2 MSTORE PUSH1 0x4 ADD PUSH2 0x4BD SWAP2 SWAP1 PUSH2 0x1153 JUMP JUMPDEST PUSH1 0x20 PUSH1 0x40 MLOAD DUP1 DUP4 SUB DUP2 DUP7 GAS STATICCALL ISZERO DUP1 ISZERO PUSH2 0x4D8 JUMPI RETURNDATASIZE PUSH0 DUP1 RETURNDATACOPY RETURNDATASIZE PUSH0 REVERT JUMPDEST POP POP POP POP PUSH1 0x40 MLOAD RETURNDATASIZE PUSH1 0x1F NOT PUSH1 0x1F DUP3 ADD AND DUP3 ADD DUP1 PUSH1 0x40 MSTORE POP DUP2 ADD SWAP1 PUSH2 0x4FC SWAP2 SWAP1 PUSH2 0x131A JUMP JUMPDEST SWAP1 POP DUP1 SWAP3 POP POP POP SWAP3 SWAP2 POP POP JUMP JUMPDEST PUSH1 0x2 PUSH1 0x7 SLOAD EQ PUSH2 0x517 JUMPI PUSH0 DUP1 REVERT JUMPDEST PUSH0 DUP3 DUP3 PUSH1 0x40 MLOAD PUSH1 0x20 ADD PUSH2 0x52B SWAP3 SWAP2 SWAP1 PUSH2 0x12DB JUMP JUMPDEST PUSH1 0x40 MLOAD PUSH1 0x20 DUP2 DUP4 SUB SUB DUP2 MSTORE SWAP1 PUSH1 0x40 MSTORE DUP1 MLOAD SWAP1 PUSH1 0x20 ADD KECCAK256 SWAP1 POP PUSH1 0xA PUSH0 SWAP1 SLOAD SWAP1 PUSH2 0x100 EXP SWAP1 DIV PUSH20 0xFFFFFFFFFFFFFFFFFFFFFFFFFFFFFFFFFFFFFFFF AND PUSH20 0xFFFFFFFFFFFFFFFFFFFFFFFFFFFFFFFFFFFFFFFF AND PUSH4 0x701FD0F1 DUP3 PUSH1 0x40 MLOAD DUP3 PUSH4 0xFFFFFFFF AND PUSH1 0xE0 SHL DUP2 MSTORE PUSH1 0x4 ADD PUSH2 0x59D SWAP2 SWAP1 PUSH2 0x1153 JUMP JUMPDEST PUSH0 PUSH1 0x40 MLOAD DUP1 DUP4 SUB DUP2 PUSH0 DUP8 DUP1 EXTCODESIZE ISZERO DUP1 ISZERO PUSH2 0x5B4 JUMPI PUSH0 DUP1 REVERT JUMPDEST POP GAS CALL ISZERO DUP1 ISZERO PUSH2 0x5C6 JUMPI RETURNDATASIZE PUSH0 DUP1 RETURNDATACOPY RETURNDATASIZE PUSH0 REVERT JUMPDEST POP POP POP POP PUSH0 DUP3 PUSH1 0xFF AND SWAP1 POP PUSH1 0x4 DUP2 GT ISZERO DUP1 ISZERO PUSH2 0x5E2 JUMPI POP PUSH0 DUP2 LT ISZERO JUMPDEST PUSH2 0x5EA JUMPI PUSH0 DUP1 REVERT JUMPDEST DUP1 PUSH1 0x4 PUSH0 CALLER PUSH20 0xFFFFFFFFFFFFFFFFFFFFFFFFFFFFFFFFFFFFFFFF AND PUSH20 0xFFFFFFFFFFFFFFFFFFFFFFFFFFFFFFFFFFFFFFFF AND DUP2 MSTORE PUSH1 0x20 ADD SWAP1 DUP2 MSTORE PUSH1 0x20 ADD PUSH0 KECCAK256 DUP2 SWAP1 SSTORE POP PUSH1 0x2 PUSH0 DUP2 SLOAD DUP1 SWAP3 SWAP2 SWAP1 PUSH2 0x63E SWAP1 PUSH2 0x1274 JUMP JUMPDEST SWAP2 SWAP1 POP SSTORE POP PUSH1 0x2 DUP1 SLOAD SUB PUSH2 0x669 JUMPI PUSH0 PUSH1 0x2 DUP2 SWAP1 SSTORE POP PUSH0 PUSH1 0x7 DUP2 SWAP1 SSTORE POP PUSH0 DUP1 DUP2 SWAP1 SSTORE POP PUSH2 0x668 PUSH2 0xC80 JUMP JUMPDEST JUMPDEST POP POP POP POP JUMP JUMPDEST PUSH0 SLOAD DUP2 JUMP JUMPDEST PUSH1 0x2 PUSH0 SLOAD EQ PUSH2 0x681 JUMPI PUSH0 DUP1 REVERT JUMPDEST PUSH1 0x5 PUSH0 CALLER PUSH20 0xFFFFFFFFFFFFFFFFFFFFFFFFFFFFFFFFFFFFFFFF AND PUSH20 0xFFFFFFFFFFFFFFFFFFFFFFFFFFFFFFFFFFFFFFFF AND DUP2 MSTORE PUSH1 0x20 ADD SWAP1 DUP2 MSTORE PUSH1 0x20 ADD PUSH0 KECCAK256 PUSH0 SWAP1 SLOAD SWAP1 PUSH2 0x100 EXP SWAP1 DIV PUSH1 0xFF AND PUSH2 0x6D3 JUMPI PUSH0 DUP1 REVERT JUMPDEST PUSH1 0xA PUSH0 SWAP1 SLOAD SWAP1 PUSH2 0x100 EXP SWAP1 DIV PUSH20 0xFFFFFFFFFFFFFFFFFFFFFFFFFFFFFFFFFFFFFFFF AND PUSH20 0xFFFFFFFFFFFFFFFFFFFFFFFFFFFFFFFFFFFFFFFF AND PUSH4 0xF14FCBC8 DUP3 PUSH1 0x40 MLOAD DUP3 PUSH4 0xFFFFFFFF AND PUSH1 0xE0 SHL DUP2 MSTORE PUSH1 0x4 ADD PUSH2 0x72D SWAP2 SWAP1 PUSH2 0x1153 JUMP JUMPDEST PUSH0 PUSH1 0x40 MLOAD DUP1 DUP4 SUB DUP2 PUSH0 DUP8 DUP1 EXTCODESIZE ISZERO DUP1 ISZERO PUSH2 0x744 JUMPI PUSH0 DUP1 REVERT JUMPDEST POP GAS CALL ISZERO DUP1 ISZERO PUSH2 0x756 JUMPI RETURNDATASIZE PUSH0 DUP1 RETURNDATACOPY RETURNDATASIZE PUSH0 REVERT JUMPDEST POP POP POP POP DUP1 PUSH1 0x3 PUSH0 CALLER PUSH20 0xFFFFFFFFFFFFFFFFFFFFFFFFFFFFFFFFFFFFFFFF AND PUSH20 0xFFFFFFFFFFFFFFFFFFFFFFFFFFFFFFFFFFFFFFFF AND DUP2 MSTORE PUSH1 0x20 ADD SWAP1 DUP2 MSTORE PUSH1 0x20 ADD PUSH0 KECCAK256 DUP2 SWAP1 SSTORE POP PUSH0 PUSH1 0x5 PUSH0 CALLER PUSH20 0xFFFFFFFFFFFFFFFFFFFFFFFFFFFFFFFFFFFFFFFF AND PUSH20 0xFFFFFFFFFFFFFFFFFFFFFFFFFFFFFFFFFFFFFFFF AND DUP2 MSTORE PUSH1 0x20 ADD SWAP1 DUP2 MSTORE PUSH1 0x20 ADD PUSH0 KECCAK256 PUSH0 PUSH2 0x100 EXP DUP2 SLOAD DUP2 PUSH1 0xFF MUL NOT AND SWAP1 DUP4 ISZERO ISZERO MUL OR SWAP1 SSTORE POP PUSH1 0x7 PUSH0 DUP2 SLOAD DUP1 SWAP3 SWAP2 SWAP1 PUSH2 0x802 SWAP1 PUSH2 0x1274 JUMP JUMPDEST SWAP2 SWAP1 POP SSTORE POP POP JUMP JUMPDEST PUSH1 0x9 SLOAD PUSH1 0x8 PUSH0 SWAP1 SLOAD SWAP1 PUSH2 0x100 EXP SWAP1 DIV PUSH20 0xFFFFFFFFFFFFFFFFFFFFFFFFFFFFFFFFFFFFFFFF AND PUSH20 0xFFFFFFFFFFFFFFFFFFFFFFFFFFFFFFFFFFFFFFFF AND PUSH4 0xD97C8416 PUSH1 0x40 MLOAD DUP2 PUSH4 0xFFFFFFFF AND PUSH1 0xE0 SHL DUP2 MSTORE PUSH1 0x4 ADD PUSH1 0x20 PUSH1 0x40 MLOAD DUP1 DUP4 SUB DUP2 DUP7 GAS STATICCALL ISZERO DUP1 ISZERO PUSH2 0x877 JUMPI RETURNDATASIZE PUSH0 DUP1 RETURNDATACOPY RETURNDATASIZE PUSH0 REVERT JUMPDEST POP POP POP POP PUSH1 0x40 MLOAD RETURNDATASIZE PUSH1 0x1F NOT PUSH1 0x1F DUP3 ADD AND DUP3 ADD DUP1 PUSH1 0x40 MSTORE POP DUP2 ADD SWAP1 PUSH2 0x89B SWAP2 SWAP1 PUSH2 0x1359 JUMP JUMPDEST LT PUSH2 0xBAE JUMPI PUSH1 0x1 PUSH1 0x6 DUP1 SLOAD SWAP1 POP SUB PUSH2 0x938 JUMPI PUSH0 PUSH1 0x6 PUSH0 DUP2 SLOAD DUP2 LT PUSH2 0x8C2 JUMPI PUSH2 0x8C1 PUSH2 0x1384 JUMP JUMPDEST JUMPDEST SWAP1 PUSH0 MSTORE PUSH1 0x20 PUSH0 KECCAK256 ADD PUSH0 SWAP1 SLOAD SWAP1 PUSH2 0x100 EXP SWAP1 DIV PUSH20 0xFFFFFFFFFFFFFFFFFFFFFFFFFFFFFFFFFFFFFFFF AND SWAP1 POP DUP1 PUSH20 0xFFFFFFFFFFFFFFFFFFFFFFFFFFFFFFFFFFFFFFFF AND PUSH2 0x8FC PUSH1 0x1 SLOAD SWAP1 DUP2 ISZERO MUL SWAP1 PUSH1 0x40 MLOAD PUSH0 PUSH1 0x40 MLOAD DUP1 DUP4 SUB DUP2 DUP6 DUP9 DUP9 CALL SWAP4 POP POP POP POP ISZERO DUP1 ISZERO PUSH2 0x931 JUMPI RETURNDATASIZE PUSH0 DUP1 RETURNDATACOPY RETURNDATASIZE PUSH0 REVERT JUMPDEST POP POP PUSH2 0xBA5 JUMP JUMPDEST PUSH1 0x2 PUSH0 SLOAD EQ DUP1 ISZERO PUSH2 0x94B JUMPI POP PUSH1 0x2 PUSH1 0x7 SLOAD EQ JUMPDEST ISZERO PUSH2 0xA7A JUMPI PUSH0 PUSH1 0x6 PUSH0 DUP2 SLOAD DUP2 LT PUSH2 0x965 JUMPI PUSH2 0x964 PUSH2 0x1384 JUMP JUMPDEST JUMPDEST SWAP1 PUSH0 MSTORE PUSH1 0x20 PUSH0 KECCAK256 ADD PUSH0 SWAP1 SLOAD SWAP1 PUSH2 0x100 EXP SWAP1 DIV PUSH20 0xFFFFFFFFFFFFFFFFFFFFFFFFFFFFFFFFFFFFFFFF AND SWAP1 POP PUSH0 PUSH1 0x6 PUSH1 0x1 DUP2 SLOAD DUP2 LT PUSH2 0x9A5 JUMPI PUSH2 0x9A4 PUSH2 0x1384 JUMP JUMPDEST JUMPDEST SWAP1 PUSH0 MSTORE PUSH1 0x20 PUSH0 KECCAK256 ADD PUSH0 SWAP1 SLOAD SWAP1 PUSH2 0x100 EXP SWAP1 DIV PUSH20 0xFFFFFFFFFFFFFFFFFFFFFFFFFFFFFFFFFFFFFFFF AND SWAP1 POP DUP2 PUSH20 0xFFFFFFFFFFFFFFFFFFFFFFFFFFFFFFFFFFFFFFFF AND PUSH2 0x8FC PUSH1 0x2 PUSH1 0x1 SLOAD PUSH2 0x9F8 SWAP2 SWAP1 PUSH2 0x13DE JUMP JUMPDEST SWAP1 DUP2 ISZERO MUL SWAP1 PUSH1 0x40 MLOAD PUSH0 PUSH1 0x40 MLOAD DUP1 DUP4 SUB DUP2 DUP6 DUP9 DUP9 CALL SWAP4 POP POP POP POP ISZERO DUP1 ISZERO PUSH2 0xA20 JUMPI RETURNDATASIZE PUSH0 DUP1 RETURNDATACOPY RETURNDATASIZE PUSH0 REVERT JUMPDEST POP DUP1 PUSH20 0xFFFFFFFFFFFFFFFFFFFFFFFFFFFFFFFFFFFFFFFF AND PUSH2 0x8FC PUSH1 0x2 PUSH1 0x1 SLOAD PUSH2 0xA4A SWAP2 SWAP1 PUSH2 0x13DE JUMP JUMPDEST SWAP1 DUP2 ISZERO MUL SWAP1 PUSH1 0x40 MLOAD PUSH0 PUSH1 0x40 MLOAD DUP1 DUP4 SUB DUP2 DUP6 DUP9 DUP9 CALL SWAP4 POP POP POP POP ISZERO DUP1 ISZERO PUSH2 0xA72 JUMPI RETURNDATASIZE PUSH0 DUP1 RETURNDATACOPY RETURNDATASIZE PUSH0 REVERT JUMPDEST POP POP POP PUSH2 0xBA4 JUMP JUMPDEST PUSH0 JUMPDEST PUSH1 0x2 DUP2 LT ISZERO PUSH2 0xBA2 JUMPI PUSH1 0x5 PUSH0 PUSH1 0x6 DUP4 DUP2 SLOAD DUP2 LT PUSH2 0xA9C JUMPI PUSH2 0xA9B PUSH2 0x1384 JUMP JUMPDEST JUMPDEST SWAP1 PUSH0 MSTORE PUSH1 0x20 PUSH0 KECCAK256 ADD PUSH0 SWAP1 SLOAD SWAP1 PUSH2 0x100 EXP SWAP1 DIV PUSH20 0xFFFFFFFFFFFFFFFFFFFFFFFFFFFFFFFFFFFFFFFF AND PUSH20 0xFFFFFFFFFFFFFFFFFFFFFFFFFFFFFFFFFFFFFFFF AND PUSH20 0xFFFFFFFFFFFFFFFFFFFFFFFFFFFFFFFFFFFFFFFF AND DUP2 MSTORE PUSH1 0x20 ADD SWAP1 DUP2 MSTORE PUSH1 0x20 ADD PUSH0 KECCAK256 PUSH0 SWAP1 SLOAD SWAP1 PUSH2 0x100 EXP SWAP1 DIV PUSH1 0xFF AND PUSH2 0xB95 JUMPI PUSH0 PUSH1 0x6 DUP3 DUP2 SLOAD DUP2 LT PUSH2 0xB23 JUMPI PUSH2 0xB22 PUSH2 0x1384 JUMP JUMPDEST JUMPDEST SWAP1 PUSH0 MSTORE PUSH1 0x20 PUSH0 KECCAK256 ADD PUSH0 SWAP1 SLOAD SWAP1 PUSH2 0x100 EXP SWAP1 DIV PUSH20 0xFFFFFFFFFFFFFFFFFFFFFFFFFFFFFFFFFFFFFFFF AND SWAP1 POP DUP1 PUSH20 0xFFFFFFFFFFFFFFFFFFFFFFFFFFFFFFFFFFFFFFFF AND PUSH2 0x8FC PUSH1 0x1 SLOAD SWAP1 DUP2 ISZERO MUL SWAP1 PUSH1 0x40 MLOAD PUSH0 PUSH1 0x40 MLOAD DUP1 DUP4 SUB DUP2 DUP6 DUP9 DUP9 CALL SWAP4 POP POP POP POP ISZERO DUP1 ISZERO PUSH2 0xB92 JUMPI RETURNDATASIZE PUSH0 DUP1 RETURNDATACOPY RETURNDATASIZE PUSH0 REVERT JUMPDEST POP POP JUMPDEST DUP1 DUP1 PUSH1 0x1 ADD SWAP2 POP POP PUSH2 0xA7C JUMP JUMPDEST POP JUMPDEST JUMPDEST PUSH2 0xBAD PUSH2 0xF8A JUMP JUMPDEST JUMPDEST JUMP JUMPDEST PUSH1 0x6 DUP2 DUP2 SLOAD DUP2 LT PUSH2 0xBBF JUMPI PUSH0 DUP1 REVERT JUMPDEST SWAP1 PUSH0 MSTORE PUSH1 0x20 PUSH0 KECCAK256 ADD PUSH0 SWAP2 POP SLOAD SWAP1 PUSH2 0x100 EXP SWAP1 DIV PUSH20 0xFFFFFFFFFFFFFFFFFFFFFFFFFFFFFFFFFFFFFFFF AND DUP2 JUMP JUMPDEST PUSH0 DUP1 PUSH0 SWAP1 POP JUMPDEST PUSH1 0x4 DUP2 LT ISZERO PUSH2 0xC78 JUMPI PUSH1 0xB DUP2 PUSH1 0x4 DUP2 LT PUSH2 0xC0E JUMPI PUSH2 0xC0D PUSH2 0x1384 JUMP JUMPDEST JUMPDEST ADD PUSH0 SWAP1 SLOAD SWAP1 PUSH2 0x100 EXP SWAP1 DIV PUSH20 0xFFFFFFFFFFFFFFFFFFFFFFFFFFFFFFFFFFFFFFFF AND PUSH20 0xFFFFFFFFFFFFFFFFFFFFFFFFFFFFFFFFFFFFFFFF AND CALLER PUSH20 0xFFFFFFFFFFFFFFFFFFFFFFFFFFFFFFFFFFFFFFFF AND SUB PUSH2 0xC6B JUMPI PUSH1 0x1 SWAP2 POP POP PUSH2 0xC7D JUMP JUMPDEST DUP1 DUP1 PUSH1 0x1 ADD SWAP2 POP POP PUSH2 0xBF1 JUMP JUMPDEST POP PUSH0 SWAP1 POP JUMPDEST SWAP1 JUMP JUMPDEST PUSH0 PUSH1 0x4 PUSH0 PUSH1 0x6 PUSH0 DUP2 SLOAD DUP2 LT PUSH2 0xC98 JUMPI PUSH2 0xC97 PUSH2 0x1384 JUMP JUMPDEST JUMPDEST SWAP1 PUSH0 MSTORE PUSH1 0x20 PUSH0 KECCAK256 ADD PUSH0 SWAP1 SLOAD SWAP1 PUSH2 0x100 EXP SWAP1 DIV PUSH20 0xFFFFFFFFFFFFFFFFFFFFFFFFFFFFFFFFFFFFFFFF AND PUSH20 0xFFFFFFFFFFFFFFFFFFFFFFFFFFFFFFFFFFFFFFFF AND PUSH20 0xFFFFFFFFFFFFFFFFFFFFFFFFFFFFFFFFFFFFFFFF AND DUP2 MSTORE PUSH1 0x20 ADD SWAP1 DUP2 MSTORE PUSH1 0x20 ADD PUSH0 KECCAK256 SLOAD SWAP1 POP PUSH0 PUSH1 0x4 PUSH0 PUSH1 0x6 PUSH1 0x1 DUP2 SLOAD DUP2 LT PUSH2 0xD15 JUMPI PUSH2 0xD14 PUSH2 0x1384 JUMP JUMPDEST JUMPDEST SWAP1 PUSH0 MSTORE PUSH1 0x20 PUSH0 KECCAK256 ADD PUSH0 SWAP1 SLOAD SWAP1 PUSH2 0x100 EXP SWAP1 DIV PUSH20 0xFFFFFFFFFFFFFFFFFFFFFFFFFFFFFFFFFFFFFFFF AND PUSH20 0xFFFFFFFFFFFFFFFFFFFFFFFFFFFFFFFFFFFFFFFF AND PUSH20 0xFFFFFFFFFFFFFFFFFFFFFFFFFFFFFFFFFFFFFFFF AND DUP2 MSTORE PUSH1 0x20 ADD SWAP1 DUP2 MSTORE PUSH1 0x20 ADD PUSH0 KECCAK256 SLOAD SWAP1 POP PUSH0 PUSH1 0x6 PUSH0 DUP2 SLOAD DUP2 LT PUSH2 0xD8E JUMPI PUSH2 0xD8D PUSH2 0x1384 JUMP JUMPDEST JUMPDEST SWAP1 PUSH0 MSTORE PUSH1 0x20 PUSH0 KECCAK256 ADD PUSH0 SWAP1 SLOAD SWAP1 PUSH2 0x100 EXP SWAP1 DIV PUSH20 0xFFFFFFFFFFFFFFFFFFFFFFFFFFFFFFFFFFFFFFFF AND SWAP1 POP PUSH0 PUSH1 0x6 PUSH1 0x1 DUP2 SLOAD DUP2 LT PUSH2 0xDCE JUMPI PUSH2 0xDCD PUSH2 0x1384 JUMP JUMPDEST JUMPDEST SWAP1 PUSH0 MSTORE PUSH1 0x20 PUSH0 KECCAK256 ADD PUSH0 SWAP1 SLOAD SWAP1 PUSH2 0x100 EXP SWAP1 DIV PUSH20 0xFFFFFFFFFFFFFFFFFFFFFFFFFFFFFFFFFFFFFFFF AND SWAP1 POP DUP3 DUP5 SUB PUSH2 0xEA8 JUMPI DUP2 PUSH20 0xFFFFFFFFFFFFFFFFFFFFFFFFFFFFFFFFFFFFFFFF AND PUSH2 0x8FC PUSH1 0x2 PUSH1 0x1 SLOAD PUSH2 0xE28 SWAP2 SWAP1 PUSH2 0x13DE JUMP JUMPDEST SWAP1 DUP2 ISZERO MUL SWAP1 PUSH1 0x40 MLOAD PUSH0 PUSH1 0x40 MLOAD DUP1 DUP4 SUB DUP2 DUP6 DUP9 DUP9 CALL SWAP4 POP POP POP POP ISZERO DUP1 ISZERO PUSH2 0xE50 JUMPI RETURNDATASIZE PUSH0 DUP1 RETURNDATACOPY RETURNDATASIZE PUSH0 REVERT JUMPDEST POP DUP1 PUSH20 0xFFFFFFFFFFFFFFFFFFFFFFFFFFFFFFFFFFFFFFFF AND PUSH2 0x8FC PUSH1 0x2 PUSH1 0x1 SLOAD PUSH2 0xE7A SWAP2 SWAP1 PUSH2 0x13DE JUMP JUMPDEST SWAP1 DUP2 ISZERO MUL SWAP1 PUSH1 0x40 MLOAD PUSH0 PUSH1 0x40 MLOAD DUP1 DUP4 SUB DUP2 DUP6 DUP9 DUP9 CALL SWAP4 POP POP POP POP ISZERO DUP1 ISZERO PUSH2 0xEA2 JUMPI RETURNDATASIZE PUSH0 DUP1 RETURNDATACOPY RETURNDATASIZE PUSH0 REVERT JUMPDEST POP PUSH2 0xF7D JUMP JUMPDEST DUP4 PUSH1 0x5 PUSH1 0x1 DUP6 PUSH2 0xEB8 SWAP2 SWAP1 PUSH2 0x1241 JUMP JUMPDEST PUSH2 0xEC2 SWAP2 SWAP1 PUSH2 0x140E JUMP JUMPDEST EQ DUP1 PUSH2 0xEE5 JUMPI POP DUP4 PUSH1 0x5 PUSH1 0x3 DUP6 PUSH2 0xED9 SWAP2 SWAP1 PUSH2 0x1241 JUMP JUMPDEST PUSH2 0xEE3 SWAP2 SWAP1 PUSH2 0x140E JUMP JUMPDEST EQ JUMPDEST ISZERO PUSH2 0xF35 JUMPI DUP2 PUSH20 0xFFFFFFFFFFFFFFFFFFFFFFFFFFFFFFFFFFFFFFFF AND PUSH2 0x8FC PUSH1 0x1 SLOAD SWAP1 DUP2 ISZERO MUL SWAP1 PUSH1 0x40 MLOAD PUSH0 PUSH1 0x40 MLOAD DUP1 DUP4 SUB DUP2 DUP6 DUP9 DUP9 CALL SWAP4 POP POP POP POP ISZERO DUP1 ISZERO PUSH2 0xF2F JUMPI RETURNDATASIZE PUSH0 DUP1 RETURNDATACOPY RETURNDATASIZE PUSH0 REVERT JUMPDEST POP PUSH2 0xF7C JUMP JUMPDEST DUP1 PUSH20 0xFFFFFFFFFFFFFFFFFFFFFFFFFFFFFFFFFFFFFFFF AND PUSH2 0x8FC PUSH1 0x1 SLOAD SWAP1 DUP2 ISZERO MUL SWAP1 PUSH1 0x40 MLOAD PUSH0 PUSH1 0x40 MLOAD DUP1 DUP4 SUB DUP2 DUP6 DUP9 DUP9 CALL SWAP4 POP POP POP POP ISZERO DUP1 ISZERO PUSH2 0xF7A JUMPI RETURNDATASIZE PUSH0 DUP1 RETURNDATACOPY RETURNDATASIZE PUSH0 REVERT JUMPDEST POP JUMPDEST JUMPDEST PUSH0 PUSH1 0x1 DUP2 SWAP1 SSTORE POP POP POP POP POP JUMP JUMPDEST PUSH1 0x6 PUSH0 PUSH2 0xF97 SWAP2 SWAP1 PUSH2 0xFAD JUMP JUMPDEST PUSH0 PUSH1 0x7 DUP2 SWAP1 SSTORE POP PUSH0 DUP1 DUP2 SWAP1 SSTORE POP PUSH0 PUSH1 0x1 DUP2 SWAP1 SSTORE POP JUMP JUMPDEST POP DUP1 SLOAD PUSH0 DUP3 SSTORE SWAP1 PUSH0 MSTORE PUSH1 0x20 PUSH0 KECCAK256 SWAP1 DUP2 ADD SWAP1 PUSH2 0xFC8 SWAP2 SWAP1 PUSH2 0xFCB JUMP JUMPDEST POP JUMP JUMPDEST JUMPDEST DUP1 DUP3 GT ISZERO PUSH2 0xFE2 JUMPI PUSH0 DUP2 PUSH0 SWAP1 SSTORE POP PUSH1 0x1 ADD PUSH2 0xFCC JUMP JUMPDEST POP SWAP1 JUMP JUMPDEST PUSH0 DUP2 SWAP1 POP SWAP2 SWAP1 POP JUMP JUMPDEST PUSH2 0xFF8 DUP2 PUSH2 0xFE6 JUMP JUMPDEST DUP3 MSTORE POP POP JUMP JUMPDEST PUSH0 PUSH1 0x20 DUP3 ADD SWAP1 POP PUSH2 0x1011 PUSH0 DUP4 ADD DUP5 PUSH2 0xFEF JUMP JUMPDEST SWAP3 SWAP2 POP POP JUMP JUMPDEST PUSH0 DUP1 REVERT JUMPDEST PUSH0 PUSH20 0xFFFFFFFFFFFFFFFFFFFFFFFFFFFFFFFFFFFFFFFF DUP3 AND SWAP1 POP SWAP2 SWAP1 POP JUMP JUMPDEST PUSH0 PUSH2 0x1044 DUP3 PUSH2 0x101B JUMP JUMPDEST SWAP1 POP SWAP2 SWAP1 POP JUMP JUMPDEST PUSH2 0x1054 DUP2 PUSH2 0x103A JUMP JUMPDEST DUP2 EQ PUSH2 0x105E JUMPI PUSH0 DUP1 REVERT JUMPDEST POP JUMP JUMPDEST PUSH0 DUP2 CALLDATALOAD SWAP1 POP PUSH2 0x106F DUP2 PUSH2 0x104B JUMP JUMPDEST SWAP3 SWAP2 POP POP JUMP JUMPDEST PUSH0 PUSH1 0x20 DUP3 DUP5 SUB SLT ISZERO PUSH2 0x108A JUMPI PUSH2 0x1089 PUSH2 0x1017 JUMP JUMPDEST JUMPDEST PUSH0 PUSH2 0x1097 DUP5 DUP3 DUP6 ADD PUSH2 0x1061 JUMP JUMPDEST SWAP2 POP POP SWAP3 SWAP2 POP POP JUMP JUMPDEST PUSH0 DUP2 ISZERO ISZERO SWAP1 POP SWAP2 SWAP1 POP JUMP JUMPDEST PUSH2 0x10B4 DUP2 PUSH2 0x10A0 JUMP JUMPDEST DUP3 MSTORE POP POP JUMP JUMPDEST PUSH0 PUSH1 0x20 DUP3 ADD SWAP1 POP PUSH2 0x10CD PUSH0 DUP4 ADD DUP5 PUSH2 0x10AB JUMP JUMPDEST SWAP3 SWAP2 POP POP JUMP JUMPDEST PUSH2 0x10DC DUP2 PUSH2 0xFE6 JUMP JUMPDEST DUP2 EQ PUSH2 0x10E6 JUMPI PUSH0 DUP1 REVERT JUMPDEST POP JUMP JUMPDEST PUSH0 DUP2 CALLDATALOAD SWAP1 POP PUSH2 0x10F7 DUP2 PUSH2 0x10D3 JUMP JUMPDEST SWAP3 SWAP2 POP POP JUMP JUMPDEST PUSH0 DUP1 PUSH1 0x40 DUP4 DUP6 SUB SLT ISZERO PUSH2 0x1113 JUMPI PUSH2 0x1112 PUSH2 0x1017 JUMP JUMPDEST JUMPDEST PUSH0 PUSH2 0x1120 DUP6 DUP3 DUP7 ADD PUSH2 0x10E9 JUMP JUMPDEST SWAP3 POP POP PUSH1 0x20 PUSH2 0x1131 DUP6 DUP3 DUP7 ADD PUSH2 0x10E9 JUMP JUMPDEST SWAP2 POP POP SWAP3 POP SWAP3 SWAP1 POP JUMP JUMPDEST PUSH0 DUP2 SWAP1 POP SWAP2 SWAP1 POP JUMP JUMPDEST PUSH2 0x114D DUP2 PUSH2 0x113B JUMP JUMPDEST DUP3 MSTORE POP POP JUMP JUMPDEST PUSH0 PUSH1 0x20 DUP3 ADD SWAP1 POP PUSH2 0x1166 PUSH0 DUP4 ADD DUP5 PUSH2 0x1144 JUMP JUMPDEST SWAP3 SWAP2 POP POP JUMP JUMPDEST PUSH2 0x1175 DUP2 PUSH2 0x113B JUMP JUMPDEST DUP2 EQ PUSH2 0x117F JUMPI PUSH0 DUP1 REVERT JUMPDEST POP JUMP JUMPDEST PUSH0 DUP2 CALLDATALOAD SWAP1 POP PUSH2 0x1190 DUP2 PUSH2 0x116C JUMP JUMPDEST SWAP3 SWAP2 POP POP JUMP JUMPDEST PUSH0 PUSH1 0x20 DUP3 DUP5 SUB SLT ISZERO PUSH2 0x11AB JUMPI PUSH2 0x11AA PUSH2 0x1017 JUMP JUMPDEST JUMPDEST PUSH0 PUSH2 0x11B8 DUP5 DUP3 DUP6 ADD PUSH2 0x1182 JUMP JUMPDEST SWAP2 POP POP SWAP3 SWAP2 POP POP JUMP JUMPDEST PUSH0 PUSH1 0x20 DUP3 DUP5 SUB SLT ISZERO PUSH2 0x11D6 JUMPI PUSH2 0x11D5 PUSH2 0x1017 JUMP JUMPDEST JUMPDEST PUSH0 PUSH2 0x11E3 DUP5 DUP3 DUP6 ADD PUSH2 0x10E9 JUMP JUMPDEST SWAP2 POP POP SWAP3 SWAP2 POP POP JUMP JUMPDEST PUSH2 0x11F5 DUP2 PUSH2 0x103A JUMP JUMPDEST DUP3 MSTORE POP POP JUMP JUMPDEST PUSH0 PUSH1 0x20 DUP3 ADD SWAP1 POP PUSH2 0x120E PUSH0 DUP4 ADD DUP5 PUSH2 0x11EC JUMP JUMPDEST SWAP3 SWAP2 POP POP JUMP JUMPDEST PUSH32 0x4E487B7100000000000000000000000000000000000000000000000000000000 PUSH0 MSTORE PUSH1 0x11 PUSH1 0x4 MSTORE PUSH1 0x24 PUSH0 REVERT JUMPDEST PUSH0 PUSH2 0x124B DUP3 PUSH2 0xFE6 JUMP JUMPDEST SWAP2 POP PUSH2 0x1256 DUP4 PUSH2 0xFE6 JUMP JUMPDEST SWAP3 POP DUP3 DUP3 ADD SWAP1 POP DUP1 DUP3 GT ISZERO PUSH2 0x126E JUMPI PUSH2 0x126D PUSH2 0x1214 JUMP JUMPDEST JUMPDEST SWAP3 SWAP2 POP POP JUMP JUMPDEST PUSH0 PUSH2 0x127E DUP3 PUSH2 0xFE6 JUMP JUMPDEST SWAP2 POP PUSH32 0xFFFFFFFFFFFFFFFFFFFFFFFFFFFFFFFFFFFFFFFFFFFFFFFFFFFFFFFFFFFFFFFF DUP3 SUB PUSH2 0x12B0 JUMPI PUSH2 0x12AF PUSH2 0x1214 JUMP JUMPDEST JUMPDEST PUSH1 0x1 DUP3 ADD SWAP1 POP SWAP2 SWAP1 POP JUMP JUMPDEST PUSH0 DUP2 SWAP1 POP SWAP2 SWAP1 POP JUMP JUMPDEST PUSH2 0x12D5 PUSH2 0x12D0 DUP3 PUSH2 0xFE6 JUMP JUMPDEST PUSH2 0x12BB JUMP JUMPDEST DUP3 MSTORE POP POP JUMP JUMPDEST PUSH0 PUSH2 0x12E6 DUP3 DUP6 PUSH2 0x12C4 JUMP JUMPDEST PUSH1 0x20 DUP3 ADD SWAP2 POP PUSH2 0x12F6 DUP3 DUP5 PUSH2 0x12C4 JUMP JUMPDEST PUSH1 0x20 DUP3 ADD SWAP2 POP DUP2 SWAP1 POP SWAP4 SWAP3 POP POP POP JUMP JUMPDEST PUSH0 DUP2 MLOAD SWAP1 POP PUSH2 0x1314 DUP2 PUSH2 0x116C JUMP JUMPDEST SWAP3 SWAP2 POP POP JUMP JUMPDEST PUSH0 PUSH1 0x20 DUP3 DUP5 SUB SLT ISZERO PUSH2 0x132F JUMPI PUSH2 0x132E PUSH2 0x1017 JUMP JUMPDEST JUMPDEST PUSH0 PUSH2 0x133C DUP5 DUP3 DUP6 ADD PUSH2 0x1306 JUMP JUMPDEST SWAP2 POP POP SWAP3 SWAP2 POP POP JUMP JUMPDEST PUSH0 DUP2 MLOAD SWAP1 POP PUSH2 0x1353 DUP2 PUSH2 0x10D3 JUMP JUMPDEST SWAP3 SWAP2 POP POP JUMP JUMPDEST PUSH0 PUSH1 0x20 DUP3 DUP5 SUB SLT ISZERO PUSH2 0x136E JUMPI PUSH2 0x136D PUSH2 0x1017 JUMP JUMPDEST JUMPDEST PUSH0 PUSH2 0x137B DUP5 DUP3 DUP6 ADD PUSH2 0x1345 JUMP JUMPDEST SWAP2 POP POP SWAP3 SWAP2 POP POP JUMP JUMPDEST PUSH32 0x4E487B7100000000000000000000000000000000000000000000000000000000 PUSH0 MSTORE PUSH1 0x32 PUSH1 0x4 MSTORE PUSH1 0x24 PUSH0 REVERT JUMPDEST PUSH32 0x4E487B7100000000000000000000000000000000000000000000000000000000 PUSH0 MSTORE PUSH1 0x12 PUSH1 0x4 MSTORE PUSH1 0x24 PUSH0 REVERT JUMPDEST PUSH0 PUSH2 0x13E8 DUP3 PUSH2 0xFE6 JUMP JUMPDEST SWAP2 POP PUSH2 0x13F3 DUP4 PUSH2 0xFE6 JUMP JUMPDEST SWAP3 POP DUP3 PUSH2 0x1403 JUMPI PUSH2 0x1402 PUSH2 0x13B1 JUMP JUMPDEST JUMPDEST DUP3 DUP3 DIV SWAP1 POP SWAP3 SWAP2 POP POP JUMP JUMPDEST PUSH0 PUSH2 0x1418 DUP3 PUSH2 0xFE6 JUMP JUMPDEST SWAP2 POP PUSH2 0x1423 DUP4 PUSH2 0xFE6 JUMP JUMPDEST SWAP3 POP DUP3 PUSH2 0x1433 JUMPI PUSH2 0x1432 PUSH2 0x13B1 JUMP JUMPDEST JUMPDEST DUP3 DUP3 MOD SWAP1 POP SWAP3 SWAP2 POP POP JUMP INVALID LOG2 PUSH5 0x6970667358 0x22 SLT KECCAK256 0xB2 LOG3 0xE7 MOD PUSH8 0x4359B0BB40E5D667 0xC6 0xE6 0xAC 0xAF SGT 0x2D BYTE 0xC2 SAR RETURNDATASIZE STATICCALL 0xC2 0xEC SWAP1 0xE6 0xE2 0x23 DUP1 JUMP PUSH5 0x736F6C6343 STOP ADDMOD BYTE STOP CALLER PUSH1 0x80 PUSH1 0x40 MSTORE CALLVALUE DUP1 ISZERO PUSH1 0xE JUMPI PUSH0 DUP1 REVERT JUMPDEST POP PUSH2 0x215 DUP1 PUSH2 0x1C PUSH0 CODECOPY PUSH0 RETURN INVALID PUSH1 0x80 PUSH1 0x40 MSTORE CALLVALUE DUP1 ISZERO PUSH2 0xF JUMPI PUSH0 DUP1 REVERT JUMPDEST POP PUSH1 0x4 CALLDATASIZE LT PUSH2 0x4A JUMPI PUSH0 CALLDATALOAD PUSH1 0xE0 SHR DUP1 PUSH4 0x78E97925 EQ PUSH2 0x4E JUMPI DUP1 PUSH4 0xA63F7C53 EQ PUSH2 0x6C JUMPI DUP1 PUSH4 0xBC06B8CD EQ PUSH2 0x76 JUMPI DUP1 PUSH4 0xD97C8416 EQ PUSH2 0x94 JUMPI JUMPDEST PUSH0 DUP1 REVERT JUMPDEST PUSH2 0x56 PUSH2 0xB2 JUMP JUMPDEST PUSH1 0x40 MLOAD PUSH2 0x63 SWAP2 SWAP1 PUSH2 0x109 JUMP JUMPDEST PUSH1 0x40 MLOAD DUP1 SWAP2 SUB SWAP1 RETURN JUMPDEST PUSH2 0x74 PUSH2 0xB7 JUMP JUMPDEST STOP JUMPDEST PUSH2 0x7E PUSH2 0xBF JUMP JUMPDEST PUSH1 0x40 MLOAD PUSH2 0x8B SWAP2 SWAP1 PUSH2 0x109 JUMP JUMPDEST PUSH1 0x40 MLOAD DUP1 SWAP2 SUB SWAP1 RETURN JUMPDEST PUSH2 0x9C PUSH2 0xD2 JUMP JUMPDEST PUSH1 0x40 MLOAD PUSH2 0xA9 SWAP2 SWAP1 PUSH2 0x109 JUMP JUMPDEST PUSH1 0x40 MLOAD DUP1 SWAP2 SUB SWAP1 RETURN JUMPDEST PUSH0 SLOAD DUP2 JUMP JUMPDEST TIMESTAMP PUSH0 DUP2 SWAP1 SSTORE POP JUMP JUMPDEST PUSH0 DUP1 SLOAD TIMESTAMP PUSH2 0xCD SWAP2 SWAP1 PUSH2 0x14F JUMP JUMPDEST SWAP1 POP SWAP1 JUMP JUMPDEST PUSH0 PUSH1 0x3C PUSH0 SLOAD TIMESTAMP PUSH2 0xE2 SWAP2 SWAP1 PUSH2 0x14F JUMP JUMPDEST PUSH2 0xEC SWAP2 SWAP1 PUSH2 0x1AF JUMP JUMPDEST SWAP1 POP SWAP1 JUMP JUMPDEST PUSH0 DUP2 SWAP1 POP SWAP2 SWAP1 POP JUMP JUMPDEST PUSH2 0x103 DUP2 PUSH2 0xF1 JUMP JUMPDEST DUP3 MSTORE POP POP JUMP JUMPDEST PUSH0 PUSH1 0x20 DUP3 ADD SWAP1 POP PUSH2 0x11C PUSH0 DUP4 ADD DUP5 PUSH2 0xFA JUMP JUMPDEST SWAP3 SWAP2 POP POP JUMP JUMPDEST PUSH32 0x4E487B7100000000000000000000000000000000000000000000000000000000 PUSH0 MSTORE PUSH1 0x11 PUSH1 0x4 MSTORE PUSH1 0x24 PUSH0 REVERT JUMPDEST PUSH0 PUSH2 0x159 DUP3 PUSH2 0xF1 JUMP JUMPDEST SWAP2 POP PUSH2 0x164 DUP4 PUSH2 0xF1 JUMP JUMPDEST SWAP3 POP DUP3 DUP3 SUB SWAP1 POP DUP2 DUP2 GT ISZERO PUSH2 0x17C JUMPI PUSH2 0x17B PUSH2 0x122 JUMP JUMPDEST JUMPDEST SWAP3 SWAP2 POP POP JUMP JUMPDEST PUSH32 0x4E487B7100000000000000000000000000000000000000000000000000000000 PUSH0 MSTORE PUSH1 0x12 PUSH1 0x4 MSTORE PUSH1 0x24 PUSH0 REVERT JUMPDEST PUSH0 PUSH2 0x1B9 DUP3 PUSH2 0xF1 JUMP JUMPDEST SWAP2 POP PUSH2 0x1C4 DUP4 PUSH2 0xF1 JUMP JUMPDEST SWAP3 POP DUP3 PUSH2 0x1D4 JUMPI PUSH2 0x1D3 PUSH2 0x182 JUMP JUMPDEST JUMPDEST DUP3 DUP3 DIV SWAP1 POP SWAP3 SWAP2 POP POP JUMP INVALID LOG2 PUSH5 0x6970667358 0x22 SLT KECCAK256 0xAA 0xC7 BALANCE 0xC6 MLOAD LOG4 LT SWAP2 0xE7 DUP13 0x4C PUSH9 0xCA2CDE2E708EC23868 0xC1 0xBB 0xF8 SWAP8 SWAP4 NOT 0xBB CREATE 0xB1 0xF7 0xC1 PUSH5 0x736F6C6343 STOP ADDMOD BYTE STOP CALLER PUSH1 0x80 PUSH1 0x40 MSTORE PUSH1 0x64 PUSH0 DUP1 PUSH2 0x100 EXP DUP2 SLOAD DUP2 PUSH1 0xFF MUL NOT AND SWAP1 DUP4 PUSH1 0xFF AND MUL OR SWAP1 SSTORE POP CALLVALUE DUP1 ISZERO PUSH1 0x28 JUMPI PUSH0 DUP1 REVERT JUMPDEST POP PUSH2 0xD39 DUP1 PUSH2 0x36 PUSH0 CODECOPY PUSH0 RETURN INVALID PUSH1 0x80 PUSH1 0x40 MSTORE CALLVALUE DUP1 ISZERO PUSH2 0xF JUMPI PUSH0 DUP1 REVERT JUMPDEST POP PUSH1 0x4 CALLDATASIZE LT PUSH2 0x55 JUMPI PUSH0 CALLDATALOAD PUSH1 0xE0 SHR DUP1 PUSH4 0x3CF5040A EQ PUSH2 0x59 JUMPI DUP1 PUSH4 0x6AC5DB19 EQ PUSH2 0x89 JUMPI DUP1 PUSH4 0x701FD0F1 EQ PUSH2 0xA7 JUMPI DUP1 PUSH4 0x7B43A8E6 EQ PUSH2 0xC3 JUMPI DUP1 PUSH4 0xF14FCBC8 EQ PUSH2 0xF5 JUMPI JUMPDEST PUSH0 DUP1 REVERT JUMPDEST PUSH2 0x73 PUSH1 0x4 DUP1 CALLDATASIZE SUB DUP2 ADD SWAP1 PUSH2 0x6E SWAP2 SWAP1 PUSH2 0x75D JUMP JUMPDEST PUSH2 0x111 JUMP JUMPDEST PUSH1 0x40 MLOAD PUSH2 0x80 SWAP2 SWAP1 PUSH2 0x797 JUMP JUMPDEST PUSH1 0x40 MLOAD DUP1 SWAP2 SUB SWAP1 RETURN JUMPDEST PUSH2 0x91 PUSH2 0x140 JUMP JUMPDEST PUSH1 0x40 MLOAD PUSH2 0x9E SWAP2 SWAP1 PUSH2 0x7CB JUMP JUMPDEST PUSH1 0x40 MLOAD DUP1 SWAP2 SUB SWAP1 RETURN JUMPDEST PUSH2 0xC1 PUSH1 0x4 DUP1 CALLDATASIZE SUB DUP2 ADD SWAP1 PUSH2 0xBC SWAP2 SWAP1 PUSH2 0x75D JUMP JUMPDEST PUSH2 0x150 JUMP JUMPDEST STOP JUMPDEST PUSH2 0xDD PUSH1 0x4 DUP1 CALLDATASIZE SUB DUP2 ADD SWAP1 PUSH2 0xD8 SWAP2 SWAP1 PUSH2 0x83E JUMP JUMPDEST PUSH2 0x50E JUMP JUMPDEST PUSH1 0x40 MLOAD PUSH2 0xEC SWAP4 SWAP3 SWAP2 SWAP1 PUSH2 0x8A5 JUMP JUMPDEST PUSH1 0x40 MLOAD DUP1 SWAP2 SUB SWAP1 RETURN JUMPDEST PUSH2 0x10F PUSH1 0x4 DUP1 CALLDATASIZE SUB DUP2 ADD SWAP1 PUSH2 0x10A SWAP2 SWAP1 PUSH2 0x75D JUMP JUMPDEST PUSH2 0x554 JUMP JUMPDEST STOP JUMPDEST PUSH0 DUP2 PUSH1 0x40 MLOAD PUSH1 0x20 ADD PUSH2 0x123 SWAP2 SWAP1 PUSH2 0x8FA JUMP JUMPDEST PUSH1 0x40 MLOAD PUSH1 0x20 DUP2 DUP4 SUB SUB DUP2 MSTORE SWAP1 PUSH1 0x40 MSTORE DUP1 MLOAD SWAP1 PUSH1 0x20 ADD KECCAK256 SWAP1 POP SWAP2 SWAP1 POP JUMP JUMPDEST PUSH0 DUP1 SLOAD SWAP1 PUSH2 0x100 EXP SWAP1 DIV PUSH1 0xFF AND DUP2 JUMP JUMPDEST PUSH0 ISZERO ISZERO PUSH1 0x1 PUSH0 CALLER PUSH20 0xFFFFFFFFFFFFFFFFFFFFFFFFFFFFFFFFFFFFFFFF AND PUSH20 0xFFFFFFFFFFFFFFFFFFFFFFFFFFFFFFFFFFFFFFFF AND DUP2 MSTORE PUSH1 0x20 ADD SWAP1 DUP2 MSTORE PUSH1 0x20 ADD PUSH0 KECCAK256 PUSH1 0x1 ADD PUSH1 0x8 SWAP1 SLOAD SWAP1 PUSH2 0x100 EXP SWAP1 DIV PUSH1 0xFF AND ISZERO ISZERO EQ PUSH2 0x1E3 JUMPI PUSH1 0x40 MLOAD PUSH32 0x8C379A000000000000000000000000000000000000000000000000000000000 DUP2 MSTORE PUSH1 0x4 ADD PUSH2 0x1DA SWAP1 PUSH2 0x994 JUMP JUMPDEST PUSH1 0x40 MLOAD DUP1 SWAP2 SUB SWAP1 REVERT JUMPDEST PUSH1 0x1 DUP1 PUSH0 CALLER PUSH20 0xFFFFFFFFFFFFFFFFFFFFFFFFFFFFFFFFFFFFFFFF AND PUSH20 0xFFFFFFFFFFFFFFFFFFFFFFFFFFFFFFFFFFFFFFFF AND DUP2 MSTORE PUSH1 0x20 ADD SWAP1 DUP2 MSTORE PUSH1 0x20 ADD PUSH0 KECCAK256 PUSH1 0x1 ADD PUSH1 0x8 PUSH2 0x100 EXP DUP2 SLOAD DUP2 PUSH1 0xFF MUL NOT AND SWAP1 DUP4 ISZERO ISZERO MUL OR SWAP1 SSTORE POP PUSH1 0x1 PUSH0 CALLER PUSH20 0xFFFFFFFFFFFFFFFFFFFFFFFFFFFFFFFFFFFFFFFF AND PUSH20 0xFFFFFFFFFFFFFFFFFFFFFFFFFFFFFFFFFFFFFFFF AND DUP2 MSTORE PUSH1 0x20 ADD SWAP1 DUP2 MSTORE PUSH1 0x20 ADD PUSH0 KECCAK256 PUSH0 ADD SLOAD PUSH2 0x284 DUP3 PUSH2 0x111 JUMP JUMPDEST EQ PUSH2 0x2C4 JUMPI PUSH1 0x40 MLOAD PUSH32 0x8C379A000000000000000000000000000000000000000000000000000000000 DUP2 MSTORE PUSH1 0x4 ADD PUSH2 0x2BB SWAP1 PUSH2 0xA22 JUMP JUMPDEST PUSH1 0x40 MLOAD DUP1 SWAP2 SUB SWAP1 REVERT JUMPDEST PUSH1 0x1 PUSH0 CALLER PUSH20 0xFFFFFFFFFFFFFFFFFFFFFFFFFFFFFFFFFFFFFFFF AND PUSH20 0xFFFFFFFFFFFFFFFFFFFFFFFFFFFFFFFFFFFFFFFF AND DUP2 MSTORE PUSH1 0x20 ADD SWAP1 DUP2 MSTORE PUSH1 0x20 ADD PUSH0 KECCAK256 PUSH1 0x1 ADD PUSH0 SWAP1 SLOAD SWAP1 PUSH2 0x100 EXP SWAP1 DIV PUSH8 0xFFFFFFFFFFFFFFFF AND PUSH8 0xFFFFFFFFFFFFFFFF AND NUMBER PUSH8 0xFFFFFFFFFFFFFFFF AND GT PUSH2 0x36D JUMPI PUSH1 0x40 MLOAD PUSH32 0x8C379A000000000000000000000000000000000000000000000000000000000 DUP2 MSTORE PUSH1 0x4 ADD PUSH2 0x364 SWAP1 PUSH2 0xAD6 JUMP JUMPDEST PUSH1 0x40 MLOAD DUP1 SWAP2 SUB SWAP1 REVERT JUMPDEST PUSH1 0xFA PUSH1 0x1 PUSH0 CALLER PUSH20 0xFFFFFFFFFFFFFFFFFFFFFFFFFFFFFFFFFFFFFFFF AND PUSH20 0xFFFFFFFFFFFFFFFFFFFFFFFFFFFFFFFFFFFFFFFF AND DUP2 MSTORE PUSH1 0x20 ADD SWAP1 DUP2 MSTORE PUSH1 0x20 ADD PUSH0 KECCAK256 PUSH1 0x1 ADD PUSH0 SWAP1 SLOAD SWAP1 PUSH2 0x100 EXP SWAP1 DIV PUSH8 0xFFFFFFFFFFFFFFFF AND PUSH2 0x3CD SWAP2 SWAP1 PUSH2 0xB21 JUMP JUMPDEST PUSH8 0xFFFFFFFFFFFFFFFF AND NUMBER PUSH8 0xFFFFFFFFFFFFFFFF AND GT ISZERO PUSH2 0x423 JUMPI PUSH1 0x40 MLOAD PUSH32 0x8C379A000000000000000000000000000000000000000000000000000000000 DUP2 MSTORE PUSH1 0x4 ADD PUSH2 0x41A SWAP1 PUSH2 0xBCC JUMP JUMPDEST PUSH1 0x40 MLOAD DUP1 SWAP2 SUB SWAP1 REVERT JUMPDEST PUSH0 PUSH1 0x1 PUSH0 CALLER PUSH20 0xFFFFFFFFFFFFFFFFFFFFFFFFFFFFFFFFFFFFFFFF AND PUSH20 0xFFFFFFFFFFFFFFFFFFFFFFFFFFFFFFFFFFFFFFFF AND DUP2 MSTORE PUSH1 0x20 ADD SWAP1 DUP2 MSTORE PUSH1 0x20 ADD PUSH0 KECCAK256 PUSH1 0x1 ADD PUSH0 SWAP1 SLOAD SWAP1 PUSH2 0x100 EXP SWAP1 DIV PUSH8 0xFFFFFFFFFFFFFFFF AND PUSH8 0xFFFFFFFFFFFFFFFF AND BLOCKHASH SWAP1 POP PUSH0 DUP1 PUSH0 SWAP1 SLOAD SWAP1 PUSH2 0x100 EXP SWAP1 DIV PUSH1 0xFF AND PUSH1 0xFF AND DUP3 DUP5 PUSH1 0x40 MLOAD PUSH1 0x20 ADD PUSH2 0x4AA SWAP3 SWAP2 SWAP1 PUSH2 0xBEA JUMP JUMPDEST PUSH1 0x40 MLOAD PUSH1 0x20 DUP2 DUP4 SUB SUB DUP2 MSTORE SWAP1 PUSH1 0x40 MSTORE DUP1 MLOAD SWAP1 PUSH1 0x20 ADD KECCAK256 PUSH0 SHR PUSH2 0x4CC SWAP2 SWAP1 PUSH2 0xC4B JUMP JUMPDEST SWAP1 POP PUSH32 0xBC016DD1CADEAEFCB851AF7A0A93532E0023D536894B730801F7BCFE7065BCC2 CALLER DUP5 DUP4 PUSH1 0x40 MLOAD PUSH2 0x501 SWAP4 SWAP3 SWAP2 SWAP1 PUSH2 0xC99 JUMP JUMPDEST PUSH1 0x40 MLOAD DUP1 SWAP2 SUB SWAP1 LOG1 POP POP POP JUMP JUMPDEST PUSH1 0x1 PUSH1 0x20 MSTORE DUP1 PUSH0 MSTORE PUSH1 0x40 PUSH0 KECCAK256 PUSH0 SWAP2 POP SWAP1 POP DUP1 PUSH0 ADD SLOAD SWAP1 DUP1 PUSH1 0x1 ADD PUSH0 SWAP1 SLOAD SWAP1 PUSH2 0x100 EXP SWAP1 DIV PUSH8 0xFFFFFFFFFFFFFFFF AND SWAP1 DUP1 PUSH1 0x1 ADD PUSH1 0x8 SWAP1 SLOAD SWAP1 PUSH2 0x100 EXP SWAP1 DIV PUSH1 0xFF AND SWAP1 POP DUP4 JUMP JUMPDEST DUP1 PUSH1 0x1 PUSH0 CALLER PUSH20 0xFFFFFFFFFFFFFFFFFFFFFFFFFFFFFFFFFFFFFFFF AND PUSH20 0xFFFFFFFFFFFFFFFFFFFFFFFFFFFFFFFFFFFFFFFF AND DUP2 MSTORE PUSH1 0x20 ADD SWAP1 DUP2 MSTORE PUSH1 0x20 ADD PUSH0 KECCAK256 PUSH0 ADD DUP2 SWAP1 SSTORE POP NUMBER PUSH1 0x1 PUSH0 CALLER PUSH20 0xFFFFFFFFFFFFFFFFFFFFFFFFFFFFFFFFFFFFFFFF AND PUSH20 0xFFFFFFFFFFFFFFFFFFFFFFFFFFFFFFFFFFFFFFFF AND DUP2 MSTORE PUSH1 0x20 ADD SWAP1 DUP2 MSTORE PUSH1 0x20 ADD PUSH0 KECCAK256 PUSH1 0x1 ADD PUSH0 PUSH2 0x100 EXP DUP2 SLOAD DUP2 PUSH8 0xFFFFFFFFFFFFFFFF MUL NOT AND SWAP1 DUP4 PUSH8 0xFFFFFFFFFFFFFFFF AND MUL OR SWAP1 SSTORE POP PUSH0 PUSH1 0x1 PUSH0 CALLER PUSH20 0xFFFFFFFFFFFFFFFFFFFFFFFFFFFFFFFFFFFFFFFF AND PUSH20 0xFFFFFFFFFFFFFFFFFFFFFFFFFFFFFFFFFFFFFFFF AND DUP2 MSTORE PUSH1 0x20 ADD SWAP1 DUP2 MSTORE PUSH1 0x20 ADD PUSH0 KECCAK256 PUSH1 0x1 ADD PUSH1 0x8 PUSH2 0x100 EXP DUP2 SLOAD DUP2 PUSH1 0xFF MUL NOT AND SWAP1 DUP4 ISZERO ISZERO MUL OR SWAP1 SSTORE POP PUSH32 0x3C1A1F8F38335B17F751C6DA4BA7D1865F26B3997535176F5080DE9FAD891603 CALLER PUSH1 0x1 PUSH0 CALLER PUSH20 0xFFFFFFFFFFFFFFFFFFFFFFFFFFFFFFFFFFFFFFFF AND PUSH20 0xFFFFFFFFFFFFFFFFFFFFFFFFFFFFFFFFFFFFFFFF AND DUP2 MSTORE PUSH1 0x20 ADD SWAP1 DUP2 MSTORE PUSH1 0x20 ADD PUSH0 KECCAK256 PUSH0 ADD SLOAD PUSH1 0x1 PUSH0 CALLER PUSH20 0xFFFFFFFFFFFFFFFFFFFFFFFFFFFFFFFFFFFFFFFF AND PUSH20 0xFFFFFFFFFFFFFFFFFFFFFFFFFFFFFFFFFFFFFFFF AND DUP2 MSTORE PUSH1 0x20 ADD SWAP1 DUP2 MSTORE PUSH1 0x20 ADD PUSH0 KECCAK256 PUSH1 0x1 ADD PUSH0 SWAP1 SLOAD SWAP1 PUSH2 0x100 EXP SWAP1 DIV PUSH8 0xFFFFFFFFFFFFFFFF AND PUSH1 0x40 MLOAD PUSH2 0x71B SWAP4 SWAP3 SWAP2 SWAP1 PUSH2 0xCCE JUMP JUMPDEST PUSH1 0x40 MLOAD DUP1 SWAP2 SUB SWAP1 LOG1 POP JUMP JUMPDEST PUSH0 DUP1 REVERT JUMPDEST PUSH0 DUP2 SWAP1 POP SWAP2 SWAP1 POP JUMP JUMPDEST PUSH2 0x73C DUP2 PUSH2 0x72A JUMP JUMPDEST DUP2 EQ PUSH2 0x746 JUMPI PUSH0 DUP1 REVERT JUMPDEST POP JUMP JUMPDEST PUSH0 DUP2 CALLDATALOAD SWAP1 POP PUSH2 0x757 DUP2 PUSH2 0x733 JUMP JUMPDEST SWAP3 SWAP2 POP POP JUMP JUMPDEST PUSH0 PUSH1 0x20 DUP3 DUP5 SUB SLT ISZERO PUSH2 0x772 JUMPI PUSH2 0x771 PUSH2 0x726 JUMP JUMPDEST JUMPDEST PUSH0 PUSH2 0x77F DUP5 DUP3 DUP6 ADD PUSH2 0x749 JUMP JUMPDEST SWAP2 POP POP SWAP3 SWAP2 POP POP JUMP JUMPDEST PUSH2 0x791 DUP2 PUSH2 0x72A JUMP JUMPDEST DUP3 MSTORE POP POP JUMP JUMPDEST PUSH0 PUSH1 0x20 DUP3 ADD SWAP1 POP PUSH2 0x7AA PUSH0 DUP4 ADD DUP5 PUSH2 0x788 JUMP JUMPDEST SWAP3 SWAP2 POP POP JUMP JUMPDEST PUSH0 PUSH1 0xFF DUP3 AND SWAP1 POP SWAP2 SWAP1 POP JUMP JUMPDEST PUSH2 0x7C5 DUP2 PUSH2 0x7B0 JUMP JUMPDEST DUP3 MSTORE POP POP JUMP JUMPDEST PUSH0 PUSH1 0x20 DUP3 ADD SWAP1 POP PUSH2 0x7DE PUSH0 DUP4 ADD DUP5 PUSH2 0x7BC JUMP JUMPDEST SWAP3 SWAP2 POP POP JUMP JUMPDEST PUSH0 PUSH20 0xFFFFFFFFFFFFFFFFFFFFFFFFFFFFFFFFFFFFFFFF DUP3 AND SWAP1 POP SWAP2 SWAP1 POP JUMP JUMPDEST PUSH0 PUSH2 0x80D DUP3 PUSH2 0x7E4 JUMP JUMPDEST SWAP1 POP SWAP2 SWAP1 POP JUMP JUMPDEST PUSH2 0x81D DUP2 PUSH2 0x803 JUMP JUMPDEST DUP2 EQ PUSH2 0x827 JUMPI PUSH0 DUP1 REVERT JUMPDEST POP JUMP JUMPDEST PUSH0 DUP2 CALLDATALOAD SWAP1 POP PUSH2 0x838 DUP2 PUSH2 0x814 JUMP JUMPDEST SWAP3 SWAP2 POP POP JUMP JUMPDEST PUSH0 PUSH1 0x20 DUP3 DUP5 SUB SLT ISZERO PUSH2 0x853 JUMPI PUSH2 0x852 PUSH2 0x726 JUMP JUMPDEST JUMPDEST PUSH0 PUSH2 0x860 DUP5 DUP3 DUP6 ADD PUSH2 0x82A JUMP JUMPDEST SWAP2 POP POP SWAP3 SWAP2 POP POP JUMP JUMPDEST PUSH0 PUSH8 0xFFFFFFFFFFFFFFFF DUP3 AND SWAP1 POP SWAP2 SWAP1 POP JUMP JUMPDEST PUSH2 0x885 DUP2 PUSH2 0x869 JUMP JUMPDEST DUP3 MSTORE POP POP JUMP JUMPDEST PUSH0 DUP2 ISZERO ISZERO SWAP1 POP SWAP2 SWAP1 POP JUMP JUMPDEST PUSH2 0x89F DUP2 PUSH2 0x88B JUMP JUMPDEST DUP3 MSTORE POP POP JUMP JUMPDEST PUSH0 PUSH1 0x60 DUP3 ADD SWAP1 POP PUSH2 0x8B8 PUSH0 DUP4 ADD DUP7 PUSH2 0x788 JUMP JUMPDEST PUSH2 0x8C5 PUSH1 0x20 DUP4 ADD DUP6 PUSH2 0x87C JUMP JUMPDEST PUSH2 0x8D2 PUSH1 0x40 DUP4 ADD DUP5 PUSH2 0x896 JUMP JUMPDEST SWAP5 SWAP4 POP POP POP POP JUMP JUMPDEST PUSH0 DUP2 SWAP1 POP SWAP2 SWAP1 POP JUMP JUMPDEST PUSH2 0x8F4 PUSH2 0x8EF DUP3 PUSH2 0x72A JUMP JUMPDEST PUSH2 0x8DA JUMP JUMPDEST DUP3 MSTORE POP POP JUMP JUMPDEST PUSH0 PUSH2 0x905 DUP3 DUP5 PUSH2 0x8E3 JUMP JUMPDEST PUSH1 0x20 DUP3 ADD SWAP2 POP DUP2 SWAP1 POP SWAP3 SWAP2 POP POP JUMP JUMPDEST PUSH0 DUP3 DUP3 MSTORE PUSH1 0x20 DUP3 ADD SWAP1 POP SWAP3 SWAP2 POP POP JUMP JUMPDEST PUSH32 0x436F6D6D697452657665616C3A3A72657665616C3A20416C7265616479207265 PUSH0 DUP3 ADD MSTORE PUSH32 0x7665616C65640000000000000000000000000000000000000000000000000000 PUSH1 0x20 DUP3 ADD MSTORE POP JUMP JUMPDEST PUSH0 PUSH2 0x97E PUSH1 0x26 DUP4 PUSH2 0x914 JUMP JUMPDEST SWAP2 POP PUSH2 0x989 DUP3 PUSH2 0x924 JUMP JUMPDEST PUSH1 0x40 DUP3 ADD SWAP1 POP SWAP2 SWAP1 POP JUMP JUMPDEST PUSH0 PUSH1 0x20 DUP3 ADD SWAP1 POP DUP2 DUP2 SUB PUSH0 DUP4 ADD MSTORE PUSH2 0x9AB DUP2 PUSH2 0x972 JUMP JUMPDEST SWAP1 POP SWAP2 SWAP1 POP JUMP JUMPDEST PUSH32 0x436F6D6D697452657665616C3A3A72657665616C3A2052657665616C65642068 PUSH0 DUP3 ADD MSTORE PUSH32 0x61736820646F6573206E6F74206D6174636820636F6D6D697400000000000000 PUSH1 0x20 DUP3 ADD MSTORE POP JUMP JUMPDEST PUSH0 PUSH2 0xA0C PUSH1 0x39 DUP4 PUSH2 0x914 JUMP JUMPDEST SWAP2 POP PUSH2 0xA17 DUP3 PUSH2 0x9B2 JUMP JUMPDEST PUSH1 0x40 DUP3 ADD SWAP1 POP SWAP2 SWAP1 POP JUMP JUMPDEST PUSH0 PUSH1 0x20 DUP3 ADD SWAP1 POP DUP2 DUP2 SUB PUSH0 DUP4 ADD MSTORE PUSH2 0xA39 DUP2 PUSH2 0xA00 JUMP JUMPDEST SWAP1 POP SWAP2 SWAP1 POP JUMP JUMPDEST PUSH32 0x436F6D6D697452657665616C3A3A72657665616C3A2052657665616C20616E64 PUSH0 DUP3 ADD MSTORE PUSH32 0x20636F6D6D69742068617070656E6564206F6E207468652073616D6520626C6F PUSH1 0x20 DUP3 ADD MSTORE PUSH32 0x636B000000000000000000000000000000000000000000000000000000000000 PUSH1 0x40 DUP3 ADD MSTORE POP JUMP JUMPDEST PUSH0 PUSH2 0xAC0 PUSH1 0x42 DUP4 PUSH2 0x914 JUMP JUMPDEST SWAP2 POP PUSH2 0xACB DUP3 PUSH2 0xA40 JUMP JUMPDEST PUSH1 0x60 DUP3 ADD SWAP1 POP SWAP2 SWAP1 POP JUMP JUMPDEST PUSH0 PUSH1 0x20 DUP3 ADD SWAP1 POP DUP2 DUP2 SUB PUSH0 DUP4 ADD MSTORE PUSH2 0xAED DUP2 PUSH2 0xAB4 JUMP JUMPDEST SWAP1 POP SWAP2 SWAP1 POP JUMP JUMPDEST PUSH32 0x4E487B7100000000000000000000000000000000000000000000000000000000 PUSH0 MSTORE PUSH1 0x11 PUSH1 0x4 MSTORE PUSH1 0x24 PUSH0 REVERT JUMPDEST PUSH0 PUSH2 0xB2B DUP3 PUSH2 0x869 JUMP JUMPDEST SWAP2 POP PUSH2 0xB36 DUP4 PUSH2 0x869 JUMP JUMPDEST SWAP3 POP DUP3 DUP3 ADD SWAP1 POP PUSH8 0xFFFFFFFFFFFFFFFF DUP2 GT ISZERO PUSH2 0xB56 JUMPI PUSH2 0xB55 PUSH2 0xAF4 JUMP JUMPDEST JUMPDEST SWAP3 SWAP2 POP POP JUMP JUMPDEST PUSH32 0x436F6D6D697452657665616C3A3A72657665616C3A2052657665616C65642074 PUSH0 DUP3 ADD MSTORE PUSH32 0x6F6F206C61746500000000000000000000000000000000000000000000000000 PUSH1 0x20 DUP3 ADD MSTORE POP JUMP JUMPDEST PUSH0 PUSH2 0xBB6 PUSH1 0x27 DUP4 PUSH2 0x914 JUMP JUMPDEST SWAP2 POP PUSH2 0xBC1 DUP3 PUSH2 0xB5C JUMP JUMPDEST PUSH1 0x40 DUP3 ADD SWAP1 POP SWAP2 SWAP1 POP JUMP JUMPDEST PUSH0 PUSH1 0x20 DUP3 ADD SWAP1 POP DUP2 DUP2 SUB PUSH0 DUP4 ADD MSTORE PUSH2 0xBE3 DUP2 PUSH2 0xBAA JUMP JUMPDEST SWAP1 POP SWAP2 SWAP1 POP JUMP JUMPDEST PUSH0 PUSH2 0xBF5 DUP3 DUP6 PUSH2 0x8E3 JUMP JUMPDEST PUSH1 0x20 DUP3 ADD SWAP2 POP PUSH2 0xC05 DUP3 DUP5 PUSH2 0x8E3 JUMP JUMPDEST PUSH1 0x20 DUP3 ADD SWAP2 POP DUP2 SWAP1 POP SWAP4 SWAP3 POP POP POP JUMP JUMPDEST PUSH0 DUP2 SWAP1 POP SWAP2 SWAP1 POP JUMP JUMPDEST PUSH32 0x4E487B7100000000000000000000000000000000000000000000000000000000 PUSH0 MSTORE PUSH1 0x12 PUSH1 0x4 MSTORE PUSH1 0x24 PUSH0 REVERT JUMPDEST PUSH0 PUSH2 0xC55 DUP3 PUSH2 0xC15 JUMP JUMPDEST SWAP2 POP PUSH2 0xC60 DUP4 PUSH2 0xC15 JUMP JUMPDEST SWAP3 POP DUP3 PUSH2 0xC70 JUMPI PUSH2 0xC6F PUSH2 0xC1E JUMP JUMPDEST JUMPDEST DUP3 DUP3 MOD SWAP1 POP SWAP3 SWAP2 POP POP JUMP JUMPDEST PUSH2 0xC84 DUP2 PUSH2 0x803 JUMP JUMPDEST DUP3 MSTORE POP POP JUMP JUMPDEST PUSH2 0xC93 DUP2 PUSH2 0xC15 JUMP JUMPDEST DUP3 MSTORE POP POP JUMP JUMPDEST PUSH0 PUSH1 0x60 DUP3 ADD SWAP1 POP PUSH2 0xCAC PUSH0 DUP4 ADD DUP7 PUSH2 0xC7B JUMP JUMPDEST PUSH2 0xCB9 PUSH1 0x20 DUP4 ADD DUP6 PUSH2 0x788 JUMP JUMPDEST PUSH2 0xCC6 PUSH1 0x40 DUP4 ADD DUP5 PUSH2 0xC8A JUMP JUMPDEST SWAP5 SWAP4 POP POP POP POP JUMP JUMPDEST PUSH0 PUSH1 0x60 DUP3 ADD SWAP1 POP PUSH2 0xCE1 PUSH0 DUP4 ADD DUP7 PUSH2 0xC7B JUMP JUMPDEST PUSH2 0xCEE PUSH1 0x20 DUP4 ADD DUP6 PUSH2 0x788 JUMP JUMPDEST PUSH2 0xCFB PUSH1 0x40 DUP4 ADD DUP5 PUSH2 0x87C JUMP JUMPDEST SWAP5 SWAP4 POP POP POP POP JUMP INVALID LOG2 PUSH5 0x6970667358 0x22 SLT KECCAK256 0x1E 0xAF 0xC9 EXP PUSH24 0xE60DAF17AA211974ECE341FFD58201CA08DFBA4A59A1A10B SELFDESTRUCT MCOPY 0xE0 PUSH5 0x736F6C6343 STOP ADDMOD BYTE STOP CALLER "
				},
				"gasEstimates": {
					"creation": {
						"codeDepositCost": "1047200",
						"executionCost": "infinite",
						"totalCost": "infinite"
					},
					"external": {
						"addPlayer()": "infinite",
						"checkTimeOut()": "infinite",
						"getChoiceHash(uint256,uint256)": "infinite",
						"inputCommit(bytes32)": "infinite",
						"inputReveal(uint256,uint256)": "infinite",
						"numInput()": "2426",
						"numInputReveal()": "2514",
						"numPlayer()": "2468",
						"player_not_played(address)": "2856",
						"players(uint256)": "5054",
						"reward()": "2470"
					},
					"internal": {
						"checkWinnerAndPay()": "infinite",
						"getValid()": "infinite",
						"resetGame()": "infinite"
					}
				},
				"methodIdentifiers": {
					"addPlayer()": "27b5db8a",
					"checkTimeOut()": "b7786503",
					"getChoiceHash(uint256,uint256)": "7661f2b1",
					"inputCommit(bytes32)": "a9c6921a",
					"inputReveal(uint256,uint256)": "84bdb0e6",
					"numInput()": "086f7815",
					"numInputReveal()": "4a8232b0",
					"numPlayer()": "90d5d0c3",
					"player_not_played(address)": "190cf745",
					"players(uint256)": "f71d96cb",
					"reward()": "228cb733"
				}
			},
			"storageLayout": {
				"storage": [
					{
						"astId": 206,
						"contract": "RPS.sol:RPS",
						"label": "numPlayer",
						"offset": 0,
						"slot": "0",
						"type": "t_uint256"
					},
					{
						"astId": 209,
						"contract": "RPS.sol:RPS",
						"label": "reward",
						"offset": 0,
						"slot": "1",
						"type": "t_uint256"
					},
					{
						"astId": 212,
						"contract": "RPS.sol:RPS",
						"label": "numInputReveal",
						"offset": 0,
						"slot": "2",
						"type": "t_uint256"
					},
					{
						"astId": 216,
						"contract": "RPS.sol:RPS",
						"label": "player_choice_commit",
						"offset": 0,
						"slot": "3",
						"type": "t_mapping(t_address,t_bytes32)"
					},
					{
						"astId": 220,
						"contract": "RPS.sol:RPS",
						"label": "player_choice",
						"offset": 0,
						"slot": "4",
						"type": "t_mapping(t_address,t_uint256)"
					},
					{
						"astId": 224,
						"contract": "RPS.sol:RPS",
						"label": "player_not_played",
						"offset": 0,
						"slot": "5",
						"type": "t_mapping(t_address,t_bool)"
					},
					{
						"astId": 227,
						"contract": "RPS.sol:RPS",
						"label": "players",
						"offset": 0,
						"slot": "6",
						"type": "t_array(t_address)dyn_storage"
					},
					{
						"astId": 230,
						"contract": "RPS.sol:RPS",
						"label": "numInput",
						"offset": 0,
						"slot": "7",
						"type": "t_uint256"
					},
					{
						"astId": 237,
						"contract": "RPS.sol:RPS",
						"label": "timeUnit",
						"offset": 0,
						"slot": "8",
						"type": "t_contract(TimeUnit)757"
					},
					{
						"astId": 240,
						"contract": "RPS.sol:RPS",
						"label": "timeOut",
						"offset": 0,
						"slot": "9",
						"type": "t_uint256"
					},
					{
						"astId": 247,
						"contract": "RPS.sol:RPS",
						"label": "commitReveal",
						"offset": 0,
						"slot": "10",
						"type": "t_contract(CommitReveal)199"
					},
					{
						"astId": 256,
						"contract": "RPS.sol:RPS",
						"label": "playerAccept",
						"offset": 0,
						"slot": "11",
						"type": "t_array(t_address)4_storage"
					}
				],
				"types": {
					"t_address": {
						"encoding": "inplace",
						"label": "address",
						"numberOfBytes": "20"
					},
					"t_array(t_address)4_storage": {
						"base": "t_address",
						"encoding": "inplace",
						"label": "address[4]",
						"numberOfBytes": "128"
					},
					"t_array(t_address)dyn_storage": {
						"base": "t_address",
						"encoding": "dynamic_array",
						"label": "address[]",
						"numberOfBytes": "32"
					},
					"t_bool": {
						"encoding": "inplace",
						"label": "bool",
						"numberOfBytes": "1"
					},
					"t_bytes32": {
						"encoding": "inplace",
						"label": "bytes32",
						"numberOfBytes": "32"
					},
					"t_contract(CommitReveal)199": {
						"encoding": "inplace",
						"label": "contract CommitReveal",
						"numberOfBytes": "20"
					},
					"t_contract(TimeUnit)757": {
						"encoding": "inplace",
						"label": "contract TimeUnit",
						"numberOfBytes": "20"
					},
					"t_mapping(t_address,t_bool)": {
						"encoding": "mapping",
						"key": "t_address",
						"label": "mapping(address => bool)",
						"numberOfBytes": "32",
						"value": "t_bool"
					},
					"t_mapping(t_address,t_bytes32)": {
						"encoding": "mapping",
						"key": "t_address",
						"label": "mapping(address => bytes32)",
						"numberOfBytes": "32",
						"value": "t_bytes32"
					},
					"t_mapping(t_address,t_uint256)": {
						"encoding": "mapping",
						"key": "t_address",
						"label": "mapping(address => uint256)",
						"numberOfBytes": "32",
						"value": "t_uint256"
					},
					"t_uint256": {
						"encoding": "inplace",
						"label": "uint256",
						"numberOfBytes": "32"
					}
				}
			},
			"userdoc": {
				"kind": "user",
				"methods": {},
				"version": 1
			}
		}
	}
}