{
	"RPS.sol": {
		"RPS": {
			"abi": [
				{
					"inputs": [],
					"name": "addPlayer",
					"outputs": [],
					"stateMutability": "payable",
					"type": "function"
				},
				{
					"inputs": [],
					"name": "checkTimeOut",
					"outputs": [],
					"stateMutability": "nonpayable",
					"type": "function"
				},
				{
					"inputs": [],
					"name": "commitReveal",
					"outputs": [
						{
							"internalType": "contract CommitReveal",
							"name": "",
							"type": "address"
						}
					],
					"stateMutability": "view",
					"type": "function"
				},
				{
					"inputs": [
						{
							"internalType": "bytes32",
							"name": "choiceHash",
							"type": "bytes32"
						}
					],
					"name": "input",
					"outputs": [],
					"stateMutability": "nonpayable",
					"type": "function"
				},
				{
					"inputs": [],
					"name": "numInput",
					"outputs": [
						{
							"internalType": "uint256",
							"name": "",
							"type": "uint256"
						}
					],
					"stateMutability": "view",
					"type": "function"
				},
				{
					"inputs": [],
					"name": "numPlayer",
					"outputs": [
						{
							"internalType": "uint256",
							"name": "",
							"type": "uint256"
						}
					],
					"stateMutability": "view",
					"type": "function"
				},
				{
					"inputs": [
						{
							"internalType": "address",
							"name": "",
							"type": "address"
						}
					],
					"name": "player_not_played",
					"outputs": [
						{
							"internalType": "bool",
							"name": "",
							"type": "bool"
						}
					],
					"stateMutability": "view",
					"type": "function"
				},
				{
					"inputs": [
						{
							"internalType": "uint256",
							"name": "",
							"type": "uint256"
						}
					],
					"name": "players",
					"outputs": [
						{
							"internalType": "address",
							"name": "",
							"type": "address"
						}
					],
					"stateMutability": "view",
					"type": "function"
				},
				{
					"inputs": [],
					"name": "reward",
					"outputs": [
						{
							"internalType": "uint256",
							"name": "",
							"type": "uint256"
						}
					],
					"stateMutability": "view",
					"type": "function"
				}
			],
			"devdoc": {
				"kind": "dev",
				"methods": {},
				"version": 1
			},
			"evm": {
				"assembly": "    /* \"RPS.sol\":132:3800  contract RPS {... */\n  mstore(0x40, 0x80)\n    /* \"RPS.sol\":176:177  0 */\n  0x00\n    /* \"RPS.sol\":152:177  uint public numPlayer = 0 */\n  dup1\n  sstore\n    /* \"RPS.sol\":205:206  0 */\n  0x00\n    /* \"RPS.sol\":184:206  uint public reward = 0 */\n  0x01\n  sstore\n    /* \"RPS.sol\":439:440  0 */\n  0x00\n    /* \"RPS.sol\":416:440  uint public numInput = 0 */\n  0x06\n  sstore\n    /* \"RPS.sol\":477:491  new TimeUnit() */\n  mload(0x40)\n  tag_1\n  swap1\n  tag_2\n  jump\t// in\ntag_1:\n  mload(0x40)\n  dup1\n  swap2\n  sub\n  swap1\n  0x00\n  create\n  dup1\n  iszero\n  dup1\n  iszero\n  tag_3\n  jumpi\n  returndatasize\n  0x00\n  dup1\n  returndatacopy\n  revert(0x00, returndatasize)\ntag_3:\n  pop\n    /* \"RPS.sol\":449:491  TimeUnit private timeUnit = new TimeUnit() */\n  0x07\n  exp(0x0100, 0x00)\n  dup2\n  sload\n  dup2\n  0xffffffffffffffffffffffffffffffffffffffff\n  mul\n  not\n  and\n  swap1\n  dup4\n  0xffffffffffffffffffffffffffffffffffffffff\n  and\n  mul\n  or\n  swap1\n  sstore\n  pop\n    /* \"RPS.sol\":521:522  1 */\n  0x01\n    /* \"RPS.sol\":498:522  uint private timeOut = 1 */\n  0x08\n  sstore\n    /* \"RPS.sol\":564:582  new CommitReveal() */\n  mload(0x40)\n  tag_4\n  swap1\n  tag_5\n  jump\t// in\ntag_4:\n  mload(0x40)\n  dup1\n  swap2\n  sub\n  swap1\n  0x00\n  create\n  dup1\n  iszero\n  dup1\n  iszero\n  tag_6\n  jumpi\n  returndatasize\n  0x00\n  dup1\n  returndatacopy\n  revert(0x00, returndatasize)\ntag_6:\n  pop\n    /* \"RPS.sol\":529:582  CommitReveal public commitReveal = new CommitReveal() */\n  0x09\n  exp(0x0100, 0x00)\n  dup2\n  sload\n  dup2\n  0xffffffffffffffffffffffffffffffffffffffff\n  mul\n  not\n  and\n  swap1\n  dup4\n  0xffffffffffffffffffffffffffffffffffffffff\n  and\n  mul\n  or\n  swap1\n  sstore\n  pop\n    /* \"RPS.sol\":591:844  address[4] private playerAccept = [... */\n  mload(0x40)\n  dup1\n  0x80\n  add\n  0x40\n  mstore\n  dup1\n    /* \"RPS.sol\":636:678  0x5B38Da6a701c568545dCfcB03FcB875f56beddC4 */\n  0x5b38da6a701c568545dcfcb03fcb875f56beddc4\n    /* \"RPS.sol\":591:844  address[4] private playerAccept = [... */\n  0xffffffffffffffffffffffffffffffffffffffff\n  and\n  0xffffffffffffffffffffffffffffffffffffffff\n  and\n  dup2\n  mstore\n  0x20\n  add\n    /* \"RPS.sol\":689:731  0xAb8483F64d9C6d1EcF9b849Ae677dD3315835cb2 */\n  0xab8483f64d9c6d1ecf9b849ae677dd3315835cb2\n    /* \"RPS.sol\":591:844  address[4] private playerAccept = [... */\n  0xffffffffffffffffffffffffffffffffffffffff\n  and\n  0xffffffffffffffffffffffffffffffffffffffff\n  and\n  dup2\n  mstore\n  0x20\n  add\n    /* \"RPS.sol\":742:784  0x4B20993Bc481177ec7E8f571ceCaE8A9e22C02db */\n  0x4b20993bc481177ec7e8f571cecae8a9e22c02db\n    /* \"RPS.sol\":591:844  address[4] private playerAccept = [... */\n  0xffffffffffffffffffffffffffffffffffffffff\n  and\n  0xffffffffffffffffffffffffffffffffffffffff\n  and\n  dup2\n  mstore\n  0x20\n  add\n    /* \"RPS.sol\":795:837  0x78731D3Ca6b7E34aC0F824c42a7cC18A495cabaB */\n  0x78731d3ca6b7e34ac0f824c42a7cc18a495cabab\n    /* \"RPS.sol\":591:844  address[4] private playerAccept = [... */\n  0xffffffffffffffffffffffffffffffffffffffff\n  and\n  0xffffffffffffffffffffffffffffffffffffffff\n  and\n  dup2\n  mstore\n  pop\n  0x0a\n  swap1\n  0x04\n  tag_7\n  swap3\n  swap2\n  swap1\n  tag_8\n  jump\t// in\ntag_7:\n  pop\n    /* \"RPS.sol\":132:3800  contract RPS {... */\n  callvalue\n  dup1\n  iszero\n  tag_9\n  jumpi\n  0x00\n  dup1\n  revert\ntag_9:\n  pop\n  jump(tag_10)\ntag_2:\n  dataSize(sub_1)\n  dup1\n  dataOffset(sub_1)\n  dup4\n  codecopy\n  add\n  swap1\n  jump\t// out\ntag_5:\n  dataSize(sub_2)\n  dup1\n  dataOffset(sub_2)\n  dup4\n  codecopy\n  add\n  swap1\n  jump\t// out\ntag_8:\n  dup3\n  0x04\n  dup2\n  add\n  swap3\n  dup3\n  iszero\n  tag_11\n  jumpi\n  swap2\n  0x20\n  mul\n  dup3\n  add\ntag_12:\n  dup3\n  dup2\n  gt\n  iszero\n  tag_13\n  jumpi\n  dup3\n  mload\n  dup3\n  exp(0x0100, 0x00)\n  dup2\n  sload\n  dup2\n  0xffffffffffffffffffffffffffffffffffffffff\n  mul\n  not\n  and\n  swap1\n  dup4\n  0xffffffffffffffffffffffffffffffffffffffff\n  and\n  mul\n  or\n  swap1\n  sstore\n  pop\n  swap2\n  0x20\n  add\n  swap2\n  swap1\n  0x01\n  add\n  swap1\n  jump(tag_12)\ntag_13:\ntag_11:\n  pop\n  swap1\n  pop\n  tag_14\n  swap2\n  swap1\n  tag_15\n  jump\t// in\ntag_14:\n  pop\n  swap1\n  jump\t// out\ntag_15:\ntag_16:\n  dup1\n  dup3\n  gt\n  iszero\n  tag_17\n  jumpi\n  0x00\n  dup2\n  0x00\n  swap1\n  sstore\n  pop\n  0x01\n  add\n  jump(tag_16)\ntag_17:\n  pop\n  swap1\n  jump\t// out\ntag_10:\n  dataSize(sub_0)\n  dup1\n  dataOffset(sub_0)\n  0x00\n  codecopy\n  0x00\n  return\nstop\n\nsub_0: assembly {\n        /* \"RPS.sol\":132:3800  contract RPS {... */\n      mstore(0x40, 0x80)\n      jumpi(tag_1, lt(calldatasize, 0x04))\n      shr(0xe0, calldataload(0x00))\n      dup1\n      0x90d5d0c3\n      gt\n      tag_11\n      jumpi\n      dup1\n      0x90d5d0c3\n      eq\n      tag_6\n      jumpi\n      dup1\n      0x9d7b3f2d\n      eq\n      tag_7\n      jumpi\n      dup1\n      0xb7786503\n      eq\n      tag_8\n      jumpi\n      dup1\n      0xd891f969\n      eq\n      tag_9\n      jumpi\n      dup1\n      0xf71d96cb\n      eq\n      tag_10\n      jumpi\n      jump(tag_1)\n    tag_11:\n      dup1\n      0x086f7815\n      eq\n      tag_2\n      jumpi\n      dup1\n      0x190cf745\n      eq\n      tag_3\n      jumpi\n      dup1\n      0x228cb733\n      eq\n      tag_4\n      jumpi\n      dup1\n      0x27b5db8a\n      eq\n      tag_5\n      jumpi\n    tag_1:\n      0x00\n      dup1\n      revert\n        /* \"RPS.sol\":416:440  uint public numInput = 0 */\n    tag_2:\n      callvalue\n      dup1\n      iszero\n      tag_12\n      jumpi\n      0x00\n      dup1\n      revert\n    tag_12:\n      pop\n      tag_13\n      tag_14\n      jump\t// in\n    tag_13:\n      mload(0x40)\n      tag_15\n      swap2\n      swap1\n      tag_16\n      jump\t// in\n    tag_15:\n      mload(0x40)\n      dup1\n      swap2\n      sub\n      swap1\n      return\n        /* \"RPS.sol\":329:378  mapping(address => bool) public player_not_played */\n    tag_3:\n      callvalue\n      dup1\n      iszero\n      tag_17\n      jumpi\n      0x00\n      dup1\n      revert\n    tag_17:\n      pop\n      tag_18\n      0x04\n      dup1\n      calldatasize\n      sub\n      dup2\n      add\n      swap1\n      tag_19\n      swap2\n      swap1\n      tag_20\n      jump\t// in\n    tag_19:\n      tag_21\n      jump\t// in\n    tag_18:\n      mload(0x40)\n      tag_22\n      swap2\n      swap1\n      tag_23\n      jump\t// in\n    tag_22:\n      mload(0x40)\n      dup1\n      swap2\n      sub\n      swap1\n      return\n        /* \"RPS.sol\":184:206  uint public reward = 0 */\n    tag_4:\n      callvalue\n      dup1\n      iszero\n      tag_24\n      jumpi\n      0x00\n      dup1\n      revert\n    tag_24:\n      pop\n      tag_25\n      tag_26\n      jump\t// in\n    tag_25:\n      mload(0x40)\n      tag_27\n      swap2\n      swap1\n      tag_16\n      jump\t// in\n    tag_27:\n      mload(0x40)\n      dup1\n      swap2\n      sub\n      swap1\n      return\n        /* \"RPS.sol\":1089:1454  function addPlayer() public payable {... */\n    tag_5:\n      tag_28\n      tag_29\n      jump\t// in\n    tag_28:\n      stop\n        /* \"RPS.sol\":152:177  uint public numPlayer = 0 */\n    tag_6:\n      callvalue\n      dup1\n      iszero\n      tag_30\n      jumpi\n      0x00\n      dup1\n      revert\n    tag_30:\n      pop\n      tag_31\n      tag_32\n      jump\t// in\n    tag_31:\n      mload(0x40)\n      tag_33\n      swap2\n      swap1\n      tag_16\n      jump\t// in\n    tag_33:\n      mload(0x40)\n      dup1\n      swap2\n      sub\n      swap1\n      return\n        /* \"RPS.sol\":529:582  CommitReveal public commitReveal = new CommitReveal() */\n    tag_7:\n      callvalue\n      dup1\n      iszero\n      tag_34\n      jumpi\n      0x00\n      dup1\n      revert\n    tag_34:\n      pop\n      tag_35\n      tag_36\n      jump\t// in\n    tag_35:\n      mload(0x40)\n      tag_37\n      swap2\n      swap1\n      tag_38\n      jump\t// in\n    tag_37:\n      mload(0x40)\n      dup1\n      swap2\n      sub\n      swap1\n      return\n        /* \"RPS.sol\":2924:3797  function checkTimeOut() public {... */\n    tag_8:\n      callvalue\n      dup1\n      iszero\n      tag_39\n      jumpi\n      0x00\n      dup1\n      revert\n    tag_39:\n      pop\n      tag_40\n      tag_41\n      jump\t// in\n    tag_40:\n      stop\n        /* \"RPS.sol\":1462:2151  function input(bytes32 choiceHash) public {... */\n    tag_9:\n      callvalue\n      dup1\n      iszero\n      tag_42\n      jumpi\n      0x00\n      dup1\n      revert\n    tag_42:\n      pop\n      tag_43\n      0x04\n      dup1\n      calldatasize\n      sub\n      dup2\n      add\n      swap1\n      tag_44\n      swap2\n      swap1\n      tag_45\n      jump\t// in\n    tag_44:\n      tag_46\n      jump\t// in\n    tag_43:\n      stop\n        /* \"RPS.sol\":385:409  address[] public players */\n    tag_10:\n      callvalue\n      dup1\n      iszero\n      tag_47\n      jumpi\n      0x00\n      dup1\n      revert\n    tag_47:\n      pop\n      tag_48\n      0x04\n      dup1\n      calldatasize\n      sub\n      dup2\n      add\n      swap1\n      tag_49\n      swap2\n      swap1\n      tag_50\n      jump\t// in\n    tag_49:\n      tag_51\n      jump\t// in\n    tag_48:\n      mload(0x40)\n      tag_52\n      swap2\n      swap1\n      tag_53\n      jump\t// in\n    tag_52:\n      mload(0x40)\n      dup1\n      swap2\n      sub\n      swap1\n      return\n        /* \"RPS.sol\":416:440  uint public numInput = 0 */\n    tag_14:\n      sload(0x06)\n      dup2\n      jump\t// out\n        /* \"RPS.sol\":329:378  mapping(address => bool) public player_not_played */\n    tag_21:\n      mstore(0x20, 0x04)\n      dup1\n      0x00\n      mstore\n      keccak256(0x00, 0x40)\n      0x00\n      swap2\n      pop\n      sload\n      swap1\n      0x0100\n      exp\n      swap1\n      div\n      0xff\n      and\n      dup2\n      jump\t// out\n        /* \"RPS.sol\":184:206  uint public reward = 0 */\n    tag_26:\n      sload(0x01)\n      dup2\n      jump\t// out\n        /* \"RPS.sol\":1089:1454  function addPlayer() public payable {... */\n    tag_29:\n        /* \"RPS.sol\":1156:1157  2 */\n      0x02\n        /* \"RPS.sol\":1144:1153  numPlayer */\n      sload(0x00)\n        /* \"RPS.sol\":1144:1157  numPlayer < 2 */\n      lt\n        /* \"RPS.sol\":1136:1158  require(numPlayer < 2) */\n      tag_55\n      jumpi\n      0x00\n      dup1\n      revert\n    tag_55:\n        /* \"RPS.sol\":1177:1187  getValid() */\n      tag_56\n        /* \"RPS.sol\":1177:1185  getValid */\n      tag_57\n        /* \"RPS.sol\":1177:1187  getValid() */\n      jump\t// in\n    tag_56:\n        /* \"RPS.sol\":1169:1188  require(getValid()) */\n      tag_58\n      jumpi\n      0x00\n      dup1\n      revert\n    tag_58:\n        /* \"RPS.sol\":1220:1227  1 ether */\n      0x0de0b6b3a7640000\n        /* \"RPS.sol\":1207:1216  msg.value */\n      callvalue\n        /* \"RPS.sol\":1207:1227  msg.value == 1 ether */\n      eq\n        /* \"RPS.sol\":1199:1228  require(msg.value == 1 ether) */\n      tag_59\n      jumpi\n      0x00\n      dup1\n      revert\n    tag_59:\n        /* \"RPS.sol\":1251:1260  msg.value */\n      callvalue\n        /* \"RPS.sol\":1241:1247  reward */\n      0x01\n      0x00\n        /* \"RPS.sol\":1241:1260  reward += msg.value */\n      dup3\n      dup3\n      sload\n      tag_60\n      swap2\n      swap1\n      tag_61\n      jump\t// in\n    tag_60:\n      swap3\n      pop\n      pop\n      dup2\n      swap1\n      sstore\n      pop\n        /* \"RPS.sol\":1303:1307  true */\n      0x01\n        /* \"RPS.sol\":1271:1288  player_not_played */\n      0x04\n        /* \"RPS.sol\":1271:1300  player_not_played[msg.sender] */\n      0x00\n        /* \"RPS.sol\":1289:1299  msg.sender */\n      caller\n        /* \"RPS.sol\":1271:1300  player_not_played[msg.sender] */\n      0xffffffffffffffffffffffffffffffffffffffff\n      and\n      0xffffffffffffffffffffffffffffffffffffffff\n      and\n      dup2\n      mstore\n      0x20\n      add\n      swap1\n      dup2\n      mstore\n      0x20\n      add\n      0x00\n      keccak256\n      0x00\n        /* \"RPS.sol\":1271:1307  player_not_played[msg.sender] = true */\n      0x0100\n      exp\n      dup2\n      sload\n      dup2\n      0xff\n      mul\n      not\n      and\n      swap1\n      dup4\n      iszero\n      iszero\n      mul\n      or\n      swap1\n      sstore\n      pop\n        /* \"RPS.sol\":1318:1325  players */\n      0x05\n        /* \"RPS.sol\":1331:1341  msg.sender */\n      caller\n        /* \"RPS.sol\":1318:1342  players.push(msg.sender) */\n      swap1\n      dup1\n      0x01\n      dup2\n      sload\n      add\n      dup1\n      dup3\n      sstore\n      dup1\n      swap2\n      pop\n      pop\n      0x01\n      swap1\n      sub\n      swap1\n      0x00\n      mstore\n      keccak256(0x00, 0x20)\n      add\n      0x00\n      swap1\n      swap2\n      swap1\n      swap2\n      swap1\n      swap2\n      0x0100\n      exp\n      dup2\n      sload\n      dup2\n      0xffffffffffffffffffffffffffffffffffffffff\n      mul\n      not\n      and\n      swap1\n      dup4\n      0xffffffffffffffffffffffffffffffffffffffff\n      and\n      mul\n      or\n      swap1\n      sstore\n      pop\n        /* \"RPS.sol\":1353:1362  numPlayer */\n      0x00\n      dup1\n        /* \"RPS.sol\":1353:1364  numPlayer++ */\n      dup2\n      sload\n      dup1\n      swap3\n      swap2\n      swap1\n      tag_63\n      swap1\n      tag_64\n      jump\t// in\n    tag_63:\n      swap2\n      swap1\n      pop\n      sstore\n      pop\n        /* \"RPS.sol\":1394:1395  1 */\n      0x01\n        /* \"RPS.sol\":1381:1390  numPlayer */\n      sload(0x00)\n        /* \"RPS.sol\":1381:1395  numPlayer == 1 */\n      sub\n        /* \"RPS.sol\":1377:1447  if (numPlayer == 1) {... */\n      tag_65\n      jumpi\n        /* \"RPS.sol\":1412:1420  timeUnit */\n      0x07\n      0x00\n      swap1\n      sload\n      swap1\n      0x0100\n      exp\n      swap1\n      div\n      0xffffffffffffffffffffffffffffffffffffffff\n      and\n        /* \"RPS.sol\":1412:1433  timeUnit.setStartTime */\n      0xffffffffffffffffffffffffffffffffffffffff\n      and\n      0xa63f7c53\n        /* \"RPS.sol\":1412:1435  timeUnit.setStartTime() */\n      mload(0x40)\n      dup2\n      0xffffffff\n      and\n      0xe0\n      shl\n      dup2\n      mstore\n      0x04\n      add\n      0x00\n      mload(0x40)\n      dup1\n      dup4\n      sub\n      dup2\n      0x00\n      dup8\n      dup1\n      extcodesize\n      iszero\n      dup1\n      iszero\n      tag_66\n      jumpi\n      0x00\n      dup1\n      revert\n    tag_66:\n      pop\n      gas\n      call\n      iszero\n      dup1\n      iszero\n      tag_68\n      jumpi\n      returndatasize\n      0x00\n      dup1\n      returndatacopy\n      revert(0x00, returndatasize)\n    tag_68:\n      pop\n      pop\n      pop\n      pop\n        /* \"RPS.sol\":1377:1447  if (numPlayer == 1) {... */\n    tag_65:\n        /* \"RPS.sol\":1089:1454  function addPlayer() public payable {... */\n      jump\t// out\n        /* \"RPS.sol\":152:177  uint public numPlayer = 0 */\n    tag_32:\n      sload(0x00)\n      dup2\n      jump\t// out\n        /* \"RPS.sol\":529:582  CommitReveal public commitReveal = new CommitReveal() */\n    tag_36:\n      0x09\n      0x00\n      swap1\n      sload\n      swap1\n      0x0100\n      exp\n      swap1\n      div\n      0xffffffffffffffffffffffffffffffffffffffff\n      and\n      dup2\n      jump\t// out\n        /* \"RPS.sol\":2924:3797  function checkTimeOut() public {... */\n    tag_41:\n        /* \"RPS.sol\":2999:3006  timeOut */\n      sload(0x08)\n        /* \"RPS.sol\":2970:2978  timeUnit */\n      0x07\n      0x00\n      swap1\n      sload\n      swap1\n      0x0100\n      exp\n      swap1\n      div\n      0xffffffffffffffffffffffffffffffffffffffff\n      and\n        /* \"RPS.sol\":2970:2993  timeUnit.elapsedMinutes */\n      0xffffffffffffffffffffffffffffffffffffffff\n      and\n      0xd97c8416\n        /* \"RPS.sol\":2970:2995  timeUnit.elapsedMinutes() */\n      mload(0x40)\n      dup2\n      0xffffffff\n      and\n      0xe0\n      shl\n      dup2\n      mstore\n      0x04\n      add\n      0x20\n      mload(0x40)\n      dup1\n      dup4\n      sub\n      dup2\n      dup7\n      gas\n      staticcall\n      iszero\n      dup1\n      iszero\n      tag_71\n      jumpi\n      returndatasize\n      0x00\n      dup1\n      returndatacopy\n      revert(0x00, returndatasize)\n    tag_71:\n      pop\n      pop\n      pop\n      pop\n      mload(0x40)\n      returndatasize\n      not(0x1f)\n      0x1f\n      dup3\n      add\n      and\n      dup3\n      add\n      dup1\n      0x40\n      mstore\n      pop\n      dup2\n      add\n      swap1\n      tag_72\n      swap2\n      swap1\n      tag_73\n      jump\t// in\n    tag_72:\n        /* \"RPS.sol\":2970:3006  timeUnit.elapsedMinutes() >= timeOut */\n      lt\n        /* \"RPS.sol\":2966:3790  if (timeUnit.elapsedMinutes() >= timeOut) {... */\n      tag_74\n      jumpi\n        /* \"RPS.sol\":3045:3046  1 */\n      0x01\n        /* \"RPS.sol\":3027:3034  players */\n      0x05\n        /* \"RPS.sol\":3027:3041  players.length */\n      dup1\n      sload\n      swap1\n      pop\n        /* \"RPS.sol\":3027:3046  players.length == 1 */\n      sub\n        /* \"RPS.sol\":3023:3753  if (players.length == 1) {... */\n      tag_75\n      jumpi\n        /* \"RPS.sol\":3067:3090  address payable account */\n      0x00\n        /* \"RPS.sol\":3101:3108  players */\n      0x05\n        /* \"RPS.sol\":3109:3110  0 */\n      0x00\n        /* \"RPS.sol\":3101:3111  players[0] */\n      dup2\n      sload\n      dup2\n      lt\n      tag_76\n      jumpi\n      tag_77\n      tag_78\n      jump\t// in\n    tag_77:\n    tag_76:\n      swap1\n      0x00\n      mstore\n      keccak256(0x00, 0x20)\n      add\n      0x00\n      swap1\n      sload\n      swap1\n      0x0100\n      exp\n      swap1\n      div\n      0xffffffffffffffffffffffffffffffffffffffff\n      and\n        /* \"RPS.sol\":3067:3112  address payable account = payable(players[0]) */\n      swap1\n      pop\n        /* \"RPS.sol\":3131:3138  account */\n      dup1\n        /* \"RPS.sol\":3131:3147  account.transfer */\n      0xffffffffffffffffffffffffffffffffffffffff\n      and\n        /* \"RPS.sol\":3131:3155  account.transfer(reward) */\n      0x08fc\n        /* \"RPS.sol\":3148:3154  reward */\n      sload(0x01)\n        /* \"RPS.sol\":3131:3155  account.transfer(reward) */\n      swap1\n      dup2\n      iszero\n      mul\n      swap1\n      mload(0x40)\n      0x00\n      mload(0x40)\n      dup1\n      dup4\n      sub\n      dup2\n      dup6\n      dup9\n      dup9\n      call\n      swap4\n      pop\n      pop\n      pop\n      pop\n      iszero\n      dup1\n      iszero\n      tag_81\n      jumpi\n      returndatasize\n      0x00\n      dup1\n      returndatacopy\n      revert(0x00, returndatasize)\n    tag_81:\n      pop\n        /* \"RPS.sol\":3048:3171  {... */\n      pop\n        /* \"RPS.sol\":3023:3753  if (players.length == 1) {... */\n      jump(tag_82)\n    tag_75:\n        /* \"RPS.sol\":3194:3195  2 */\n      0x02\n        /* \"RPS.sol\":3181:3190  numPlayer */\n      sload(0x00)\n        /* \"RPS.sol\":3181:3195  numPlayer == 2 */\n      eq\n        /* \"RPS.sol\":3181:3212  numPlayer == 2 && numInput == 2 */\n      dup1\n      iszero\n      tag_83\n      jumpi\n      pop\n        /* \"RPS.sol\":3211:3212  2 */\n      0x02\n        /* \"RPS.sol\":3199:3207  numInput */\n      sload(0x06)\n        /* \"RPS.sol\":3199:3212  numInput == 2 */\n      eq\n        /* \"RPS.sol\":3181:3212  numPlayer == 2 && numInput == 2 */\n    tag_83:\n        /* \"RPS.sol\":3177:3753  if (numPlayer == 2 && numInput == 2) {... */\n      iszero\n      tag_84\n      jumpi\n        /* \"RPS.sol\":3233:3257  address payable account0 */\n      0x00\n        /* \"RPS.sol\":3268:3275  players */\n      0x05\n        /* \"RPS.sol\":3276:3277  0 */\n      0x00\n        /* \"RPS.sol\":3268:3278  players[0] */\n      dup2\n      sload\n      dup2\n      lt\n      tag_85\n      jumpi\n      tag_86\n      tag_78\n      jump\t// in\n    tag_86:\n    tag_85:\n      swap1\n      0x00\n      mstore\n      keccak256(0x00, 0x20)\n      add\n      0x00\n      swap1\n      sload\n      swap1\n      0x0100\n      exp\n      swap1\n      div\n      0xffffffffffffffffffffffffffffffffffffffff\n      and\n        /* \"RPS.sol\":3233:3279  address payable account0 = payable(players[0]) */\n      swap1\n      pop\n        /* \"RPS.sol\":3298:3322  address payable account1 */\n      0x00\n        /* \"RPS.sol\":3333:3340  players */\n      0x05\n        /* \"RPS.sol\":3341:3342  1 */\n      0x01\n        /* \"RPS.sol\":3333:3343  players[1] */\n      dup2\n      sload\n      dup2\n      lt\n      tag_88\n      jumpi\n      tag_89\n      tag_78\n      jump\t// in\n    tag_89:\n    tag_88:\n      swap1\n      0x00\n      mstore\n      keccak256(0x00, 0x20)\n      add\n      0x00\n      swap1\n      sload\n      swap1\n      0x0100\n      exp\n      swap1\n      div\n      0xffffffffffffffffffffffffffffffffffffffff\n      and\n        /* \"RPS.sol\":3298:3344  address payable account1 = payable(players[1]) */\n      swap1\n      pop\n        /* \"RPS.sol\":3363:3371  account0 */\n      dup2\n        /* \"RPS.sol\":3363:3380  account0.transfer */\n      0xffffffffffffffffffffffffffffffffffffffff\n      and\n        /* \"RPS.sol\":3363:3392  account0.transfer(reward / 2) */\n      0x08fc\n        /* \"RPS.sol\":3390:3391  2 */\n      0x02\n        /* \"RPS.sol\":3381:3387  reward */\n      sload(0x01)\n        /* \"RPS.sol\":3381:3391  reward / 2 */\n      tag_91\n      swap2\n      swap1\n      tag_92\n      jump\t// in\n    tag_91:\n        /* \"RPS.sol\":3363:3392  account0.transfer(reward / 2) */\n      swap1\n      dup2\n      iszero\n      mul\n      swap1\n      mload(0x40)\n      0x00\n      mload(0x40)\n      dup1\n      dup4\n      sub\n      dup2\n      dup6\n      dup9\n      dup9\n      call\n      swap4\n      pop\n      pop\n      pop\n      pop\n      iszero\n      dup1\n      iszero\n      tag_94\n      jumpi\n      returndatasize\n      0x00\n      dup1\n      returndatacopy\n      revert(0x00, returndatasize)\n    tag_94:\n      pop\n        /* \"RPS.sol\":3411:3419  account1 */\n      dup1\n        /* \"RPS.sol\":3411:3428  account1.transfer */\n      0xffffffffffffffffffffffffffffffffffffffff\n      and\n        /* \"RPS.sol\":3411:3440  account1.transfer(reward / 2) */\n      0x08fc\n        /* \"RPS.sol\":3438:3439  2 */\n      0x02\n        /* \"RPS.sol\":3429:3435  reward */\n      sload(0x01)\n        /* \"RPS.sol\":3429:3439  reward / 2 */\n      tag_95\n      swap2\n      swap1\n      tag_92\n      jump\t// in\n    tag_95:\n        /* \"RPS.sol\":3411:3440  account1.transfer(reward / 2) */\n      swap1\n      dup2\n      iszero\n      mul\n      swap1\n      mload(0x40)\n      0x00\n      mload(0x40)\n      dup1\n      dup4\n      sub\n      dup2\n      dup6\n      dup9\n      dup9\n      call\n      swap4\n      pop\n      pop\n      pop\n      pop\n      iszero\n      dup1\n      iszero\n      tag_97\n      jumpi\n      returndatasize\n      0x00\n      dup1\n      returndatacopy\n      revert(0x00, returndatasize)\n    tag_97:\n      pop\n        /* \"RPS.sol\":3214:3456  {... */\n      pop\n      pop\n        /* \"RPS.sol\":3177:3753  if (numPlayer == 2 && numInput == 2) {... */\n      jump(tag_98)\n    tag_84:\n        /* \"RPS.sol\":3486:3495  uint256 i */\n      0x00\n        /* \"RPS.sol\":3481:3738  for (uint256 i = 0; i < 2; i++) {... */\n    tag_99:\n        /* \"RPS.sol\":3505:3506  2 */\n      0x02\n        /* \"RPS.sol\":3501:3502  i */\n      dup2\n        /* \"RPS.sol\":3501:3506  i < 2 */\n      lt\n        /* \"RPS.sol\":3481:3738  for (uint256 i = 0; i < 2; i++) {... */\n      iszero\n      tag_100\n      jumpi\n        /* \"RPS.sol\":3541:3558  player_not_played */\n      0x04\n        /* \"RPS.sol\":3541:3570  player_not_played[players[i]] */\n      0x00\n        /* \"RPS.sol\":3559:3566  players */\n      0x05\n        /* \"RPS.sol\":3567:3568  i */\n      dup4\n        /* \"RPS.sol\":3559:3569  players[i] */\n      dup2\n      sload\n      dup2\n      lt\n      tag_102\n      jumpi\n      tag_103\n      tag_78\n      jump\t// in\n    tag_103:\n    tag_102:\n      swap1\n      0x00\n      mstore\n      keccak256(0x00, 0x20)\n      add\n      0x00\n      swap1\n      sload\n      swap1\n      0x0100\n      exp\n      swap1\n      div\n      0xffffffffffffffffffffffffffffffffffffffff\n      and\n        /* \"RPS.sol\":3541:3570  player_not_played[players[i]] */\n      0xffffffffffffffffffffffffffffffffffffffff\n      and\n      0xffffffffffffffffffffffffffffffffffffffff\n      and\n      dup2\n      mstore\n      0x20\n      add\n      swap1\n      dup2\n      mstore\n      0x20\n      add\n      0x00\n      keccak256\n      0x00\n      swap1\n      sload\n      swap1\n      0x0100\n      exp\n      swap1\n      div\n      0xff\n      and\n        /* \"RPS.sol\":3536:3719  if (!player_not_played[players[i]]) {... */\n      tag_105\n      jumpi\n        /* \"RPS.sol\":3599:3622  address payable account */\n      0x00\n        /* \"RPS.sol\":3633:3640  players */\n      0x05\n        /* \"RPS.sol\":3641:3642  i */\n      dup3\n        /* \"RPS.sol\":3633:3643  players[i] */\n      dup2\n      sload\n      dup2\n      lt\n      tag_106\n      jumpi\n      tag_107\n      tag_78\n      jump\t// in\n    tag_107:\n    tag_106:\n      swap1\n      0x00\n      mstore\n      keccak256(0x00, 0x20)\n      add\n      0x00\n      swap1\n      sload\n      swap1\n      0x0100\n      exp\n      swap1\n      div\n      0xffffffffffffffffffffffffffffffffffffffff\n      and\n        /* \"RPS.sol\":3599:3644  address payable account = payable(players[i]) */\n      swap1\n      pop\n        /* \"RPS.sol\":3671:3678  account */\n      dup1\n        /* \"RPS.sol\":3671:3687  account.transfer */\n      0xffffffffffffffffffffffffffffffffffffffff\n      and\n        /* \"RPS.sol\":3671:3695  account.transfer(reward) */\n      0x08fc\n        /* \"RPS.sol\":3688:3694  reward */\n      sload(0x01)\n        /* \"RPS.sol\":3671:3695  account.transfer(reward) */\n      swap1\n      dup2\n      iszero\n      mul\n      swap1\n      mload(0x40)\n      0x00\n      mload(0x40)\n      dup1\n      dup4\n      sub\n      dup2\n      dup6\n      dup9\n      dup9\n      call\n      swap4\n      pop\n      pop\n      pop\n      pop\n      iszero\n      dup1\n      iszero\n      tag_110\n      jumpi\n      returndatasize\n      0x00\n      dup1\n      returndatacopy\n      revert(0x00, returndatasize)\n    tag_110:\n      pop\n        /* \"RPS.sol\":3572:3719  {... */\n      pop\n        /* \"RPS.sol\":3536:3719  if (!player_not_played[players[i]]) {... */\n    tag_105:\n        /* \"RPS.sol\":3508:3511  i++ */\n      dup1\n      dup1\n      0x01\n      add\n      swap2\n      pop\n      pop\n        /* \"RPS.sol\":3481:3738  for (uint256 i = 0; i < 2; i++) {... */\n      jump(tag_99)\n    tag_100:\n      pop\n        /* \"RPS.sol\":3177:3753  if (numPlayer == 2 && numInput == 2) {... */\n    tag_98:\n        /* \"RPS.sol\":3023:3753  if (players.length == 1) {... */\n    tag_82:\n        /* \"RPS.sol\":3767:3778  resetGame() */\n      tag_111\n        /* \"RPS.sol\":3767:3776  resetGame */\n      tag_112\n        /* \"RPS.sol\":3767:3778  resetGame() */\n      jump\t// in\n    tag_111:\n        /* \"RPS.sol\":2966:3790  if (timeUnit.elapsedMinutes() >= timeOut) {... */\n    tag_74:\n        /* \"RPS.sol\":2924:3797  function checkTimeOut() public {... */\n      jump\t// out\n        /* \"RPS.sol\":1462:2151  function input(bytes32 choiceHash) public {... */\n    tag_46:\n        /* \"RPS.sol\":1536:1537  2 */\n      0x02\n        /* \"RPS.sol\":1523:1532  numPlayer */\n      sload(0x00)\n        /* \"RPS.sol\":1523:1537  numPlayer == 2 */\n      eq\n        /* \"RPS.sol\":1515:1538  require(numPlayer == 2) */\n      tag_114\n      jumpi\n      0x00\n      dup1\n      revert\n    tag_114:\n        /* \"RPS.sol\":1557:1574  player_not_played */\n      0x04\n        /* \"RPS.sol\":1557:1586  player_not_played[msg.sender] */\n      0x00\n        /* \"RPS.sol\":1575:1585  msg.sender */\n      caller\n        /* \"RPS.sol\":1557:1586  player_not_played[msg.sender] */\n      0xffffffffffffffffffffffffffffffffffffffff\n      and\n      0xffffffffffffffffffffffffffffffffffffffff\n      and\n      dup2\n      mstore\n      0x20\n      add\n      swap1\n      dup2\n      mstore\n      0x20\n      add\n      0x00\n      keccak256\n      0x00\n      swap1\n      sload\n      swap1\n      0x0100\n      exp\n      swap1\n      div\n      0xff\n      and\n        /* \"RPS.sol\":1549:1587  require(player_not_played[msg.sender]) */\n      tag_115\n      jumpi\n      0x00\n      dup1\n      revert\n    tag_115:\n        /* \"RPS.sol\":1608:1619  uint choice */\n      0x00\n        /* \"RPS.sol\":1641:1642  5 */\n      0x05\n        /* \"RPS.sol\":1627:1637  choiceHash */\n      dup3\n        /* \"RPS.sol\":1622:1638  uint(choiceHash) */\n      0x00\n      shr\n        /* \"RPS.sol\":1622:1642  uint(choiceHash) % 5 */\n      tag_116\n      swap2\n      swap1\n      tag_117\n      jump\t// in\n    tag_116:\n        /* \"RPS.sol\":1608:1642  uint choice = uint(choiceHash) % 5 */\n      swap1\n      pop\n        /* \"RPS.sol\":1685:1686  0 */\n      0x00\n        /* \"RPS.sol\":1675:1681  choice */\n      dup2\n        /* \"RPS.sol\":1675:1686  choice == 0 */\n      eq\n        /* \"RPS.sol\":1675:1701  choice == 0 || choice == 1 */\n      dup1\n      tag_118\n      jumpi\n      pop\n        /* \"RPS.sol\":1700:1701  1 */\n      0x01\n        /* \"RPS.sol\":1690:1696  choice */\n      dup2\n        /* \"RPS.sol\":1690:1701  choice == 1 */\n      eq\n        /* \"RPS.sol\":1675:1701  choice == 0 || choice == 1 */\n    tag_118:\n        /* \"RPS.sol\":1675:1716  choice == 0 || choice == 1 || choice == 2 */\n      dup1\n      tag_119\n      jumpi\n      pop\n        /* \"RPS.sol\":1715:1716  2 */\n      0x02\n        /* \"RPS.sol\":1705:1711  choice */\n      dup2\n        /* \"RPS.sol\":1705:1716  choice == 2 */\n      eq\n        /* \"RPS.sol\":1675:1716  choice == 0 || choice == 1 || choice == 2 */\n    tag_119:\n        /* \"RPS.sol\":1675:1731  choice == 0 || choice == 1 || choice == 2 || choice == 3 */\n      dup1\n      tag_120\n      jumpi\n      pop\n        /* \"RPS.sol\":1730:1731  3 */\n      0x03\n        /* \"RPS.sol\":1720:1726  choice */\n      dup2\n        /* \"RPS.sol\":1720:1731  choice == 3 */\n      eq\n        /* \"RPS.sol\":1675:1731  choice == 0 || choice == 1 || choice == 2 || choice == 3 */\n    tag_120:\n        /* \"RPS.sol\":1675:1746  choice == 0 || choice == 1 || choice == 2 || choice == 3 || choice == 4 */\n      dup1\n      tag_121\n      jumpi\n      pop\n        /* \"RPS.sol\":1745:1746  4 */\n      0x04\n        /* \"RPS.sol\":1735:1741  choice */\n      dup2\n        /* \"RPS.sol\":1735:1746  choice == 4 */\n      eq\n        /* \"RPS.sol\":1675:1746  choice == 0 || choice == 1 || choice == 2 || choice == 3 || choice == 4 */\n    tag_121:\n        /* \"RPS.sol\":1653:1788  require(... */\n      tag_122\n      jumpi\n      mload(0x40)\n      0x08c379a000000000000000000000000000000000000000000000000000000000\n      dup2\n      mstore\n      0x04\n      add\n      tag_123\n      swap1\n      tag_124\n      jump\t// in\n    tag_123:\n      mload(0x40)\n      dup1\n      swap2\n      sub\n      swap1\n      revert\n    tag_122:\n        /* \"RPS.sol\":1809:1821  commitReveal */\n      0x09\n      0x00\n      swap1\n      sload\n      swap1\n      0x0100\n      exp\n      swap1\n      div\n      0xffffffffffffffffffffffffffffffffffffffff\n      and\n        /* \"RPS.sol\":1809:1828  commitReveal.commit */\n      0xffffffffffffffffffffffffffffffffffffffff\n      and\n      0xf14fcbc8\n        /* \"RPS.sol\":1829:1839  choiceHash */\n      dup4\n        /* \"RPS.sol\":1809:1840  commitReveal.commit(choiceHash) */\n      mload(0x40)\n      dup3\n      0xffffffff\n      and\n      0xe0\n      shl\n      dup2\n      mstore\n      0x04\n      add\n      tag_125\n      swap2\n      swap1\n      tag_126\n      jump\t// in\n    tag_125:\n      0x00\n      mload(0x40)\n      dup1\n      dup4\n      sub\n      dup2\n      0x00\n      dup8\n      dup1\n      extcodesize\n      iszero\n      dup1\n      iszero\n      tag_127\n      jumpi\n      0x00\n      dup1\n      revert\n    tag_127:\n      pop\n      gas\n      call\n      iszero\n      dup1\n      iszero\n      tag_129\n      jumpi\n      returndatasize\n      0x00\n      dup1\n      returndatacopy\n      revert(0x00, returndatasize)\n    tag_129:\n      pop\n      pop\n      pop\n      pop\n        /* \"RPS.sol\":1886:1896  choiceHash */\n      dup2\n        /* \"RPS.sol\":1851:1871  player_choice_commit */\n      0x02\n        /* \"RPS.sol\":1851:1883  player_choice_commit[msg.sender] */\n      0x00\n        /* \"RPS.sol\":1872:1882  msg.sender */\n      caller\n        /* \"RPS.sol\":1851:1883  player_choice_commit[msg.sender] */\n      0xffffffffffffffffffffffffffffffffffffffff\n      and\n      0xffffffffffffffffffffffffffffffffffffffff\n      and\n      dup2\n      mstore\n      0x20\n      add\n      swap1\n      dup2\n      mstore\n      0x20\n      add\n      0x00\n      keccak256\n        /* \"RPS.sol\":1851:1896  player_choice_commit[msg.sender] = choiceHash */\n      dup2\n      swap1\n      sstore\n      pop\n        /* \"RPS.sol\":1935:1941  choice */\n      dup1\n        /* \"RPS.sol\":1907:1920  player_choice */\n      0x03\n        /* \"RPS.sol\":1907:1932  player_choice[msg.sender] */\n      0x00\n        /* \"RPS.sol\":1921:1931  msg.sender */\n      caller\n        /* \"RPS.sol\":1907:1932  player_choice[msg.sender] */\n      0xffffffffffffffffffffffffffffffffffffffff\n      and\n      0xffffffffffffffffffffffffffffffffffffffff\n      and\n      dup2\n      mstore\n      0x20\n      add\n      swap1\n      dup2\n      mstore\n      0x20\n      add\n      0x00\n      keccak256\n        /* \"RPS.sol\":1907:1941  player_choice[msg.sender] = choice */\n      dup2\n      swap1\n      sstore\n      pop\n        /* \"RPS.sol\":1984:1989  false */\n      0x00\n        /* \"RPS.sol\":1952:1969  player_not_played */\n      0x04\n        /* \"RPS.sol\":1952:1981  player_not_played[msg.sender] */\n      0x00\n        /* \"RPS.sol\":1970:1980  msg.sender */\n      caller\n        /* \"RPS.sol\":1952:1981  player_not_played[msg.sender] */\n      0xffffffffffffffffffffffffffffffffffffffff\n      and\n      0xffffffffffffffffffffffffffffffffffffffff\n      and\n      dup2\n      mstore\n      0x20\n      add\n      swap1\n      dup2\n      mstore\n      0x20\n      add\n      0x00\n      keccak256\n      0x00\n        /* \"RPS.sol\":1952:1989  player_not_played[msg.sender] = false */\n      0x0100\n      exp\n      dup2\n      sload\n      dup2\n      0xff\n      mul\n      not\n      and\n      swap1\n      dup4\n      iszero\n      iszero\n      mul\n      or\n      swap1\n      sstore\n      pop\n        /* \"RPS.sol\":2000:2008  numInput */\n      0x06\n      0x00\n        /* \"RPS.sol\":2000:2010  numInput++ */\n      dup2\n      sload\n      dup1\n      swap3\n      swap2\n      swap1\n      tag_130\n      swap1\n      tag_64\n      jump\t// in\n    tag_130:\n      swap2\n      swap1\n      pop\n      sstore\n      pop\n        /* \"RPS.sol\":2039:2040  2 */\n      0x02\n        /* \"RPS.sol\":2027:2035  numInput */\n      sload(0x06)\n        /* \"RPS.sol\":2027:2040  numInput == 2 */\n      sub\n        /* \"RPS.sol\":2023:2144  if (numInput == 2) {... */\n      tag_131\n      jumpi\n        /* \"RPS.sol\":2068:2069  0 */\n      0x00\n        /* \"RPS.sol\":2057:2065  numInput */\n      0x06\n        /* \"RPS.sol\":2057:2069  numInput = 0 */\n      dup2\n      swap1\n      sstore\n      pop\n        /* \"RPS.sol\":2096:2097  0 */\n      0x00\n        /* \"RPS.sol\":2084:2093  numPlayer */\n      dup1\n        /* \"RPS.sol\":2084:2097  numPlayer = 0 */\n      dup2\n      swap1\n      sstore\n      pop\n        /* \"RPS.sol\":2112:2132  _checkWinnerAndPay() */\n      tag_132\n        /* \"RPS.sol\":2112:2130  _checkWinnerAndPay */\n      tag_133\n        /* \"RPS.sol\":2112:2132  _checkWinnerAndPay() */\n      jump\t// in\n    tag_132:\n        /* \"RPS.sol\":2023:2144  if (numInput == 2) {... */\n    tag_131:\n        /* \"RPS.sol\":1504:2151  {... */\n      pop\n        /* \"RPS.sol\":1462:2151  function input(bytes32 choiceHash) public {... */\n      pop\n      jump\t// out\n        /* \"RPS.sol\":385:409  address[] public players */\n    tag_51:\n      0x05\n      dup2\n      dup2\n      sload\n      dup2\n      lt\n      tag_134\n      jumpi\n      0x00\n      dup1\n      revert\n    tag_134:\n      swap1\n      0x00\n      mstore\n      keccak256(0x00, 0x20)\n      add\n      0x00\n      swap2\n      pop\n      sload\n      swap1\n      0x0100\n      exp\n      swap1\n      div\n      0xffffffffffffffffffffffffffffffffffffffff\n      and\n      dup2\n      jump\t// out\n        /* \"RPS.sol\":853:1081  function getValid() private view returns (bool) {... */\n    tag_57:\n        /* \"RPS.sol\":895:899  bool */\n      0x00\n        /* \"RPS.sol\":917:926  uint256 i */\n      dup1\n        /* \"RPS.sol\":929:930  0 */\n      0x00\n        /* \"RPS.sol\":917:930  uint256 i = 0 */\n      swap1\n      pop\n        /* \"RPS.sol\":912:1051  for (uint256 i = 0; i < 4; i++) {... */\n    tag_137:\n        /* \"RPS.sol\":936:937  4 */\n      0x04\n        /* \"RPS.sol\":932:933  i */\n      dup2\n        /* \"RPS.sol\":932:937  i < 4 */\n      lt\n        /* \"RPS.sol\":912:1051  for (uint256 i = 0; i < 4; i++) {... */\n      iszero\n      tag_138\n      jumpi\n        /* \"RPS.sol\":977:989  playerAccept */\n      0x0a\n        /* \"RPS.sol\":990:991  i */\n      dup2\n        /* \"RPS.sol\":977:992  playerAccept[i] */\n      0x04\n      dup2\n      lt\n      tag_140\n      jumpi\n      tag_141\n      tag_78\n      jump\t// in\n    tag_141:\n    tag_140:\n      add\n      0x00\n      swap1\n      sload\n      swap1\n      0x0100\n      exp\n      swap1\n      div\n      0xffffffffffffffffffffffffffffffffffffffff\n      and\n        /* \"RPS.sol\":963:992  msg.sender == playerAccept[i] */\n      0xffffffffffffffffffffffffffffffffffffffff\n      and\n        /* \"RPS.sol\":963:973  msg.sender */\n      caller\n        /* \"RPS.sol\":963:992  msg.sender == playerAccept[i] */\n      0xffffffffffffffffffffffffffffffffffffffff\n      and\n      sub\n        /* \"RPS.sol\":959:1040  if (msg.sender == playerAccept[i]) {... */\n      tag_143\n      jumpi\n        /* \"RPS.sol\":1020:1024  true */\n      0x01\n        /* \"RPS.sol\":1013:1024  return true */\n      swap2\n      pop\n      pop\n      jump(tag_136)\n        /* \"RPS.sol\":959:1040  if (msg.sender == playerAccept[i]) {... */\n    tag_143:\n        /* \"RPS.sol\":939:942  i++ */\n      dup1\n      dup1\n      0x01\n      add\n      swap2\n      pop\n      pop\n        /* \"RPS.sol\":912:1051  for (uint256 i = 0; i < 4; i++) {... */\n      jump(tag_137)\n    tag_138:\n      pop\n        /* \"RPS.sol\":1068:1073  false */\n      0x00\n        /* \"RPS.sol\":1061:1073  return false */\n      swap1\n      pop\n        /* \"RPS.sol\":853:1081  function getValid() private view returns (bool) {... */\n    tag_136:\n      swap1\n      jump\t// out\n        /* \"RPS.sol\":2786:2916  function resetGame() private {... */\n    tag_112:\n        /* \"RPS.sol\":2833:2840  players */\n      0x05\n      0x00\n        /* \"RPS.sol\":2826:2840  delete players */\n      tag_145\n      swap2\n      swap1\n      tag_146\n      jump\t// in\n    tag_145:\n        /* \"RPS.sol\":2862:2863  0 */\n      0x00\n        /* \"RPS.sol\":2851:2859  numInput */\n      0x06\n        /* \"RPS.sol\":2851:2863  numInput = 0 */\n      dup2\n      swap1\n      sstore\n      pop\n        /* \"RPS.sol\":2886:2887  0 */\n      0x00\n        /* \"RPS.sol\":2874:2883  numPlayer */\n      dup1\n        /* \"RPS.sol\":2874:2887  numPlayer = 0 */\n      dup2\n      swap1\n      sstore\n      pop\n        /* \"RPS.sol\":2907:2908  0 */\n      0x00\n        /* \"RPS.sol\":2898:2904  reward */\n      0x01\n        /* \"RPS.sol\":2898:2908  reward = 0 */\n      dup2\n      swap1\n      sstore\n      pop\n        /* \"RPS.sol\":2786:2916  function resetGame() private {... */\n      jump\t// out\n        /* \"RPS.sol\":2159:2778  function _checkWinnerAndPay() private {... */\n    tag_133:\n        /* \"RPS.sol\":2208:2221  uint p0Choice */\n      0x00\n        /* \"RPS.sol\":2224:2237  player_choice */\n      0x03\n        /* \"RPS.sol\":2224:2249  player_choice[players[0]] */\n      0x00\n        /* \"RPS.sol\":2238:2245  players */\n      0x05\n        /* \"RPS.sol\":2246:2247  0 */\n      0x00\n        /* \"RPS.sol\":2238:2248  players[0] */\n      dup2\n      sload\n      dup2\n      lt\n      tag_148\n      jumpi\n      tag_149\n      tag_78\n      jump\t// in\n    tag_149:\n    tag_148:\n      swap1\n      0x00\n      mstore\n      keccak256(0x00, 0x20)\n      add\n      0x00\n      swap1\n      sload\n      swap1\n      0x0100\n      exp\n      swap1\n      div\n      0xffffffffffffffffffffffffffffffffffffffff\n      and\n        /* \"RPS.sol\":2224:2249  player_choice[players[0]] */\n      0xffffffffffffffffffffffffffffffffffffffff\n      and\n      0xffffffffffffffffffffffffffffffffffffffff\n      and\n      dup2\n      mstore\n      0x20\n      add\n      swap1\n      dup2\n      mstore\n      0x20\n      add\n      0x00\n      keccak256\n      sload\n        /* \"RPS.sol\":2208:2249  uint p0Choice = player_choice[players[0]] */\n      swap1\n      pop\n        /* \"RPS.sol\":2260:2273  uint p1Choice */\n      0x00\n        /* \"RPS.sol\":2276:2289  player_choice */\n      0x03\n        /* \"RPS.sol\":2276:2301  player_choice[players[1]] */\n      0x00\n        /* \"RPS.sol\":2290:2297  players */\n      0x05\n        /* \"RPS.sol\":2298:2299  1 */\n      0x01\n        /* \"RPS.sol\":2290:2300  players[1] */\n      dup2\n      sload\n      dup2\n      lt\n      tag_151\n      jumpi\n      tag_152\n      tag_78\n      jump\t// in\n    tag_152:\n    tag_151:\n      swap1\n      0x00\n      mstore\n      keccak256(0x00, 0x20)\n      add\n      0x00\n      swap1\n      sload\n      swap1\n      0x0100\n      exp\n      swap1\n      div\n      0xffffffffffffffffffffffffffffffffffffffff\n      and\n        /* \"RPS.sol\":2276:2301  player_choice[players[1]] */\n      0xffffffffffffffffffffffffffffffffffffffff\n      and\n      0xffffffffffffffffffffffffffffffffffffffff\n      and\n      dup2\n      mstore\n      0x20\n      add\n      swap1\n      dup2\n      mstore\n      0x20\n      add\n      0x00\n      keccak256\n      sload\n        /* \"RPS.sol\":2260:2301  uint p1Choice = player_choice[players[1]] */\n      swap1\n      pop\n        /* \"RPS.sol\":2312:2336  address payable account0 */\n      0x00\n        /* \"RPS.sol\":2347:2354  players */\n      0x05\n        /* \"RPS.sol\":2355:2356  0 */\n      0x00\n        /* \"RPS.sol\":2347:2357  players[0] */\n      dup2\n      sload\n      dup2\n      lt\n      tag_154\n      jumpi\n      tag_155\n      tag_78\n      jump\t// in\n    tag_155:\n    tag_154:\n      swap1\n      0x00\n      mstore\n      keccak256(0x00, 0x20)\n      add\n      0x00\n      swap1\n      sload\n      swap1\n      0x0100\n      exp\n      swap1\n      div\n      0xffffffffffffffffffffffffffffffffffffffff\n      and\n        /* \"RPS.sol\":2312:2358  address payable account0 = payable(players[0]) */\n      swap1\n      pop\n        /* \"RPS.sol\":2369:2393  address payable account1 */\n      0x00\n        /* \"RPS.sol\":2404:2411  players */\n      0x05\n        /* \"RPS.sol\":2412:2413  1 */\n      0x01\n        /* \"RPS.sol\":2404:2414  players[1] */\n      dup2\n      sload\n      dup2\n      lt\n      tag_157\n      jumpi\n      tag_158\n      tag_78\n      jump\t// in\n    tag_158:\n    tag_157:\n      swap1\n      0x00\n      mstore\n      keccak256(0x00, 0x20)\n      add\n      0x00\n      swap1\n      sload\n      swap1\n      0x0100\n      exp\n      swap1\n      div\n      0xffffffffffffffffffffffffffffffffffffffff\n      and\n        /* \"RPS.sol\":2369:2415  address payable account1 = payable(players[1]) */\n      swap1\n      pop\n        /* \"RPS.sol\":2444:2452  p1Choice */\n      dup3\n        /* \"RPS.sol\":2432:2440  p0Choice */\n      dup5\n        /* \"RPS.sol\":2432:2452  p0Choice == p1Choice */\n      sub\n        /* \"RPS.sol\":2428:2740  if (p0Choice == p1Choice) {... */\n      tag_160\n      jumpi\n        /* \"RPS.sol\":2469:2477  account0 */\n      dup2\n        /* \"RPS.sol\":2469:2486  account0.transfer */\n      0xffffffffffffffffffffffffffffffffffffffff\n      and\n        /* \"RPS.sol\":2469:2498  account0.transfer(reward / 2) */\n      0x08fc\n        /* \"RPS.sol\":2496:2497  2 */\n      0x02\n        /* \"RPS.sol\":2487:2493  reward */\n      sload(0x01)\n        /* \"RPS.sol\":2487:2497  reward / 2 */\n      tag_161\n      swap2\n      swap1\n      tag_92\n      jump\t// in\n    tag_161:\n        /* \"RPS.sol\":2469:2498  account0.transfer(reward / 2) */\n      swap1\n      dup2\n      iszero\n      mul\n      swap1\n      mload(0x40)\n      0x00\n      mload(0x40)\n      dup1\n      dup4\n      sub\n      dup2\n      dup6\n      dup9\n      dup9\n      call\n      swap4\n      pop\n      pop\n      pop\n      pop\n      iszero\n      dup1\n      iszero\n      tag_163\n      jumpi\n      returndatasize\n      0x00\n      dup1\n      returndatacopy\n      revert(0x00, returndatasize)\n    tag_163:\n      pop\n        /* \"RPS.sol\":2513:2521  account1 */\n      dup1\n        /* \"RPS.sol\":2513:2530  account1.transfer */\n      0xffffffffffffffffffffffffffffffffffffffff\n      and\n        /* \"RPS.sol\":2513:2542  account1.transfer(reward / 2) */\n      0x08fc\n        /* \"RPS.sol\":2540:2541  2 */\n      0x02\n        /* \"RPS.sol\":2531:2537  reward */\n      sload(0x01)\n        /* \"RPS.sol\":2531:2541  reward / 2 */\n      tag_164\n      swap2\n      swap1\n      tag_92\n      jump\t// in\n    tag_164:\n        /* \"RPS.sol\":2513:2542  account1.transfer(reward / 2) */\n      swap1\n      dup2\n      iszero\n      mul\n      swap1\n      mload(0x40)\n      0x00\n      mload(0x40)\n      dup1\n      dup4\n      sub\n      dup2\n      dup6\n      dup9\n      dup9\n      call\n      swap4\n      pop\n      pop\n      pop\n      pop\n      iszero\n      dup1\n      iszero\n      tag_166\n      jumpi\n      returndatasize\n      0x00\n      dup1\n      returndatacopy\n      revert(0x00, returndatasize)\n    tag_166:\n      pop\n        /* \"RPS.sol\":2428:2740  if (p0Choice == p1Choice) {... */\n      jump(tag_167)\n    tag_160:\n        /* \"RPS.sol\":2586:2594  p0Choice */\n      dup4\n        /* \"RPS.sol\":2581:2582  5 */\n      0x05\n        /* \"RPS.sol\":2576:2577  1 */\n      0x01\n        /* \"RPS.sol\":2565:2573  p1Choice */\n      dup6\n        /* \"RPS.sol\":2565:2577  p1Choice + 1 */\n      tag_168\n      swap2\n      swap1\n      tag_61\n      jump\t// in\n    tag_168:\n        /* \"RPS.sol\":2564:2582  (p1Choice + 1) % 5 */\n      tag_169\n      swap2\n      swap1\n      tag_117\n      jump\t// in\n    tag_169:\n        /* \"RPS.sol\":2564:2594  (p1Choice + 1) % 5 == p0Choice */\n      eq\n        /* \"RPS.sol\":2564:2628  (p1Choice + 1) % 5 == p0Choice || (p1Choice + 3) % 5 == p0Choice */\n      dup1\n      tag_170\n      jumpi\n      pop\n        /* \"RPS.sol\":2620:2628  p0Choice */\n      dup4\n        /* \"RPS.sol\":2615:2616  5 */\n      0x05\n        /* \"RPS.sol\":2610:2611  3 */\n      0x03\n        /* \"RPS.sol\":2599:2607  p1Choice */\n      dup6\n        /* \"RPS.sol\":2599:2611  p1Choice + 3 */\n      tag_171\n      swap2\n      swap1\n      tag_61\n      jump\t// in\n    tag_171:\n        /* \"RPS.sol\":2598:2616  (p1Choice + 3) % 5 */\n      tag_172\n      swap2\n      swap1\n      tag_117\n      jump\t// in\n    tag_172:\n        /* \"RPS.sol\":2598:2628  (p1Choice + 3) % 5 == p0Choice */\n      eq\n        /* \"RPS.sol\":2564:2628  (p1Choice + 1) % 5 == p0Choice || (p1Choice + 3) % 5 == p0Choice */\n    tag_170:\n        /* \"RPS.sol\":2560:2740  if ((p1Choice + 1) % 5 == p0Choice || (p1Choice + 3) % 5 == p0Choice) {... */\n      iszero\n      tag_173\n      jumpi\n        /* \"RPS.sol\":2645:2653  account0 */\n      dup2\n        /* \"RPS.sol\":2645:2662  account0.transfer */\n      0xffffffffffffffffffffffffffffffffffffffff\n      and\n        /* \"RPS.sol\":2645:2670  account0.transfer(reward) */\n      0x08fc\n        /* \"RPS.sol\":2663:2669  reward */\n      sload(0x01)\n        /* \"RPS.sol\":2645:2670  account0.transfer(reward) */\n      swap1\n      dup2\n      iszero\n      mul\n      swap1\n      mload(0x40)\n      0x00\n      mload(0x40)\n      dup1\n      dup4\n      sub\n      dup2\n      dup6\n      dup9\n      dup9\n      call\n      swap4\n      pop\n      pop\n      pop\n      pop\n      iszero\n      dup1\n      iszero\n      tag_175\n      jumpi\n      returndatasize\n      0x00\n      dup1\n      returndatacopy\n      revert(0x00, returndatasize)\n    tag_175:\n      pop\n        /* \"RPS.sol\":2560:2740  if ((p1Choice + 1) % 5 == p0Choice || (p1Choice + 3) % 5 == p0Choice) {... */\n      jump(tag_176)\n    tag_173:\n        /* \"RPS.sol\":2703:2711  account1 */\n      dup1\n        /* \"RPS.sol\":2703:2720  account1.transfer */\n      0xffffffffffffffffffffffffffffffffffffffff\n      and\n        /* \"RPS.sol\":2703:2728  account1.transfer(reward) */\n      0x08fc\n        /* \"RPS.sol\":2721:2727  reward */\n      sload(0x01)\n        /* \"RPS.sol\":2703:2728  account1.transfer(reward) */\n      swap1\n      dup2\n      iszero\n      mul\n      swap1\n      mload(0x40)\n      0x00\n      mload(0x40)\n      dup1\n      dup4\n      sub\n      dup2\n      dup6\n      dup9\n      dup9\n      call\n      swap4\n      pop\n      pop\n      pop\n      pop\n      iszero\n      dup1\n      iszero\n      tag_178\n      jumpi\n      returndatasize\n      0x00\n      dup1\n      returndatacopy\n      revert(0x00, returndatasize)\n    tag_178:\n      pop\n        /* \"RPS.sol\":2560:2740  if ((p1Choice + 1) % 5 == p0Choice || (p1Choice + 3) % 5 == p0Choice) {... */\n    tag_176:\n        /* \"RPS.sol\":2428:2740  if (p0Choice == p1Choice) {... */\n    tag_167:\n        /* \"RPS.sol\":2769:2770  0 */\n      0x00\n        /* \"RPS.sol\":2760:2766  reward */\n      0x01\n        /* \"RPS.sol\":2760:2770  reward = 0 */\n      dup2\n      swap1\n      sstore\n      pop\n        /* \"RPS.sol\":2197:2778  {... */\n      pop\n      pop\n      pop\n      pop\n        /* \"RPS.sol\":2159:2778  function _checkWinnerAndPay() private {... */\n      jump\t// out\n    tag_146:\n      pop\n      dup1\n      sload\n      0x00\n      dup3\n      sstore\n      swap1\n      0x00\n      mstore\n      keccak256(0x00, 0x20)\n      swap1\n      dup2\n      add\n      swap1\n      tag_180\n      swap2\n      swap1\n      tag_181\n      jump\t// in\n    tag_180:\n      pop\n      jump\t// out\n    tag_181:\n    tag_182:\n      dup1\n      dup3\n      gt\n      iszero\n      tag_183\n      jumpi\n      0x00\n      dup2\n      0x00\n      swap1\n      sstore\n      pop\n      0x01\n      add\n      jump(tag_182)\n    tag_183:\n      pop\n      swap1\n      jump\t// out\n        /* \"#utility.yul\":7:84   */\n    tag_184:\n        /* \"#utility.yul\":44:51   */\n      0x00\n        /* \"#utility.yul\":73:78   */\n      dup2\n        /* \"#utility.yul\":62:78   */\n      swap1\n      pop\n        /* \"#utility.yul\":7:84   */\n      swap2\n      swap1\n      pop\n      jump\t// out\n        /* \"#utility.yul\":90:208   */\n    tag_185:\n        /* \"#utility.yul\":177:201   */\n      tag_216\n        /* \"#utility.yul\":195:200   */\n      dup2\n        /* \"#utility.yul\":177:201   */\n      tag_184\n      jump\t// in\n    tag_216:\n        /* \"#utility.yul\":172:175   */\n      dup3\n        /* \"#utility.yul\":165:202   */\n      mstore\n        /* \"#utility.yul\":90:208   */\n      pop\n      pop\n      jump\t// out\n        /* \"#utility.yul\":214:436   */\n    tag_16:\n        /* \"#utility.yul\":307:311   */\n      0x00\n        /* \"#utility.yul\":345:347   */\n      0x20\n        /* \"#utility.yul\":334:343   */\n      dup3\n        /* \"#utility.yul\":330:348   */\n      add\n        /* \"#utility.yul\":322:348   */\n      swap1\n      pop\n        /* \"#utility.yul\":358:429   */\n      tag_218\n        /* \"#utility.yul\":426:427   */\n      0x00\n        /* \"#utility.yul\":415:424   */\n      dup4\n        /* \"#utility.yul\":411:428   */\n      add\n        /* \"#utility.yul\":402:408   */\n      dup5\n        /* \"#utility.yul\":358:429   */\n      tag_185\n      jump\t// in\n    tag_218:\n        /* \"#utility.yul\":214:436   */\n      swap3\n      swap2\n      pop\n      pop\n      jump\t// out\n        /* \"#utility.yul\":523:640   */\n    tag_187:\n        /* \"#utility.yul\":632:633   */\n      0x00\n        /* \"#utility.yul\":629:630   */\n      dup1\n        /* \"#utility.yul\":622:634   */\n      revert\n        /* \"#utility.yul\":769:895   */\n    tag_189:\n        /* \"#utility.yul\":806:813   */\n      0x00\n        /* \"#utility.yul\":846:888   */\n      0xffffffffffffffffffffffffffffffffffffffff\n        /* \"#utility.yul\":839:844   */\n      dup3\n        /* \"#utility.yul\":835:889   */\n      and\n        /* \"#utility.yul\":824:889   */\n      swap1\n      pop\n        /* \"#utility.yul\":769:895   */\n      swap2\n      swap1\n      pop\n      jump\t// out\n        /* \"#utility.yul\":901:997   */\n    tag_190:\n        /* \"#utility.yul\":938:945   */\n      0x00\n        /* \"#utility.yul\":967:991   */\n      tag_224\n        /* \"#utility.yul\":985:990   */\n      dup3\n        /* \"#utility.yul\":967:991   */\n      tag_189\n      jump\t// in\n    tag_224:\n        /* \"#utility.yul\":956:991   */\n      swap1\n      pop\n        /* \"#utility.yul\":901:997   */\n      swap2\n      swap1\n      pop\n      jump\t// out\n        /* \"#utility.yul\":1003:1125   */\n    tag_191:\n        /* \"#utility.yul\":1076:1100   */\n      tag_226\n        /* \"#utility.yul\":1094:1099   */\n      dup2\n        /* \"#utility.yul\":1076:1100   */\n      tag_190\n      jump\t// in\n    tag_226:\n        /* \"#utility.yul\":1069:1074   */\n      dup2\n        /* \"#utility.yul\":1066:1101   */\n      eq\n        /* \"#utility.yul\":1056:1119   */\n      tag_227\n      jumpi\n        /* \"#utility.yul\":1115:1116   */\n      0x00\n        /* \"#utility.yul\":1112:1113   */\n      dup1\n        /* \"#utility.yul\":1105:1117   */\n      revert\n        /* \"#utility.yul\":1056:1119   */\n    tag_227:\n        /* \"#utility.yul\":1003:1125   */\n      pop\n      jump\t// out\n        /* \"#utility.yul\":1131:1270   */\n    tag_192:\n        /* \"#utility.yul\":1177:1182   */\n      0x00\n        /* \"#utility.yul\":1215:1221   */\n      dup2\n        /* \"#utility.yul\":1202:1222   */\n      calldataload\n        /* \"#utility.yul\":1193:1222   */\n      swap1\n      pop\n        /* \"#utility.yul\":1231:1264   */\n      tag_229\n        /* \"#utility.yul\":1258:1263   */\n      dup2\n        /* \"#utility.yul\":1231:1264   */\n      tag_191\n      jump\t// in\n    tag_229:\n        /* \"#utility.yul\":1131:1270   */\n      swap3\n      swap2\n      pop\n      pop\n      jump\t// out\n        /* \"#utility.yul\":1276:1605   */\n    tag_20:\n        /* \"#utility.yul\":1335:1341   */\n      0x00\n        /* \"#utility.yul\":1384:1386   */\n      0x20\n        /* \"#utility.yul\":1372:1381   */\n      dup3\n        /* \"#utility.yul\":1363:1370   */\n      dup5\n        /* \"#utility.yul\":1359:1382   */\n      sub\n        /* \"#utility.yul\":1355:1387   */\n      slt\n        /* \"#utility.yul\":1352:1471   */\n      iszero\n      tag_231\n      jumpi\n        /* \"#utility.yul\":1390:1469   */\n      tag_232\n      tag_187\n      jump\t// in\n    tag_232:\n        /* \"#utility.yul\":1352:1471   */\n    tag_231:\n        /* \"#utility.yul\":1510:1511   */\n      0x00\n        /* \"#utility.yul\":1535:1588   */\n      tag_233\n        /* \"#utility.yul\":1580:1587   */\n      dup5\n        /* \"#utility.yul\":1571:1577   */\n      dup3\n        /* \"#utility.yul\":1560:1569   */\n      dup6\n        /* \"#utility.yul\":1556:1578   */\n      add\n        /* \"#utility.yul\":1535:1588   */\n      tag_192\n      jump\t// in\n    tag_233:\n        /* \"#utility.yul\":1525:1588   */\n      swap2\n      pop\n        /* \"#utility.yul\":1481:1598   */\n      pop\n        /* \"#utility.yul\":1276:1605   */\n      swap3\n      swap2\n      pop\n      pop\n      jump\t// out\n        /* \"#utility.yul\":1611:1701   */\n    tag_193:\n        /* \"#utility.yul\":1645:1652   */\n      0x00\n        /* \"#utility.yul\":1688:1693   */\n      dup2\n        /* \"#utility.yul\":1681:1694   */\n      iszero\n        /* \"#utility.yul\":1674:1695   */\n      iszero\n        /* \"#utility.yul\":1663:1695   */\n      swap1\n      pop\n        /* \"#utility.yul\":1611:1701   */\n      swap2\n      swap1\n      pop\n      jump\t// out\n        /* \"#utility.yul\":1707:1816   */\n    tag_194:\n        /* \"#utility.yul\":1788:1809   */\n      tag_236\n        /* \"#utility.yul\":1803:1808   */\n      dup2\n        /* \"#utility.yul\":1788:1809   */\n      tag_193\n      jump\t// in\n    tag_236:\n        /* \"#utility.yul\":1783:1786   */\n      dup3\n        /* \"#utility.yul\":1776:1810   */\n      mstore\n        /* \"#utility.yul\":1707:1816   */\n      pop\n      pop\n      jump\t// out\n        /* \"#utility.yul\":1822:2032   */\n    tag_23:\n        /* \"#utility.yul\":1909:1913   */\n      0x00\n        /* \"#utility.yul\":1947:1949   */\n      0x20\n        /* \"#utility.yul\":1936:1945   */\n      dup3\n        /* \"#utility.yul\":1932:1950   */\n      add\n        /* \"#utility.yul\":1924:1950   */\n      swap1\n      pop\n        /* \"#utility.yul\":1960:2025   */\n      tag_238\n        /* \"#utility.yul\":2022:2023   */\n      0x00\n        /* \"#utility.yul\":2011:2020   */\n      dup4\n        /* \"#utility.yul\":2007:2024   */\n      add\n        /* \"#utility.yul\":1998:2004   */\n      dup5\n        /* \"#utility.yul\":1960:2025   */\n      tag_194\n      jump\t// in\n    tag_238:\n        /* \"#utility.yul\":1822:2032   */\n      swap3\n      swap2\n      pop\n      pop\n      jump\t// out\n        /* \"#utility.yul\":2038:2098   */\n    tag_195:\n        /* \"#utility.yul\":2066:2069   */\n      0x00\n        /* \"#utility.yul\":2087:2092   */\n      dup2\n        /* \"#utility.yul\":2080:2092   */\n      swap1\n      pop\n        /* \"#utility.yul\":2038:2098   */\n      swap2\n      swap1\n      pop\n      jump\t// out\n        /* \"#utility.yul\":2104:2246   */\n    tag_196:\n        /* \"#utility.yul\":2154:2163   */\n      0x00\n        /* \"#utility.yul\":2187:2240   */\n      tag_241\n        /* \"#utility.yul\":2205:2239   */\n      tag_242\n        /* \"#utility.yul\":2214:2238   */\n      tag_243\n        /* \"#utility.yul\":2232:2237   */\n      dup5\n        /* \"#utility.yul\":2214:2238   */\n      tag_189\n      jump\t// in\n    tag_243:\n        /* \"#utility.yul\":2205:2239   */\n      tag_195\n      jump\t// in\n    tag_242:\n        /* \"#utility.yul\":2187:2240   */\n      tag_189\n      jump\t// in\n    tag_241:\n        /* \"#utility.yul\":2174:2240   */\n      swap1\n      pop\n        /* \"#utility.yul\":2104:2246   */\n      swap2\n      swap1\n      pop\n      jump\t// out\n        /* \"#utility.yul\":2252:2378   */\n    tag_197:\n        /* \"#utility.yul\":2302:2311   */\n      0x00\n        /* \"#utility.yul\":2335:2372   */\n      tag_245\n        /* \"#utility.yul\":2366:2371   */\n      dup3\n        /* \"#utility.yul\":2335:2372   */\n      tag_196\n      jump\t// in\n    tag_245:\n        /* \"#utility.yul\":2322:2372   */\n      swap1\n      pop\n        /* \"#utility.yul\":2252:2378   */\n      swap2\n      swap1\n      pop\n      jump\t// out\n        /* \"#utility.yul\":2384:2530   */\n    tag_198:\n        /* \"#utility.yul\":2454:2463   */\n      0x00\n        /* \"#utility.yul\":2487:2524   */\n      tag_247\n        /* \"#utility.yul\":2518:2523   */\n      dup3\n        /* \"#utility.yul\":2487:2524   */\n      tag_197\n      jump\t// in\n    tag_247:\n        /* \"#utility.yul\":2474:2524   */\n      swap1\n      pop\n        /* \"#utility.yul\":2384:2530   */\n      swap2\n      swap1\n      pop\n      jump\t// out\n        /* \"#utility.yul\":2536:2707   */\n    tag_199:\n        /* \"#utility.yul\":2643:2700   */\n      tag_249\n        /* \"#utility.yul\":2694:2699   */\n      dup2\n        /* \"#utility.yul\":2643:2700   */\n      tag_198\n      jump\t// in\n    tag_249:\n        /* \"#utility.yul\":2638:2641   */\n      dup3\n        /* \"#utility.yul\":2631:2701   */\n      mstore\n        /* \"#utility.yul\":2536:2707   */\n      pop\n      pop\n      jump\t// out\n        /* \"#utility.yul\":2713:2975   */\n    tag_38:\n        /* \"#utility.yul\":2826:2830   */\n      0x00\n        /* \"#utility.yul\":2864:2866   */\n      0x20\n        /* \"#utility.yul\":2853:2862   */\n      dup3\n        /* \"#utility.yul\":2849:2867   */\n      add\n        /* \"#utility.yul\":2841:2867   */\n      swap1\n      pop\n        /* \"#utility.yul\":2877:2968   */\n      tag_251\n        /* \"#utility.yul\":2965:2966   */\n      0x00\n        /* \"#utility.yul\":2954:2963   */\n      dup4\n        /* \"#utility.yul\":2950:2967   */\n      add\n        /* \"#utility.yul\":2941:2947   */\n      dup5\n        /* \"#utility.yul\":2877:2968   */\n      tag_199\n      jump\t// in\n    tag_251:\n        /* \"#utility.yul\":2713:2975   */\n      swap3\n      swap2\n      pop\n      pop\n      jump\t// out\n        /* \"#utility.yul\":2981:3058   */\n    tag_200:\n        /* \"#utility.yul\":3018:3025   */\n      0x00\n        /* \"#utility.yul\":3047:3052   */\n      dup2\n        /* \"#utility.yul\":3036:3052   */\n      swap1\n      pop\n        /* \"#utility.yul\":2981:3058   */\n      swap2\n      swap1\n      pop\n      jump\t// out\n        /* \"#utility.yul\":3064:3186   */\n    tag_201:\n        /* \"#utility.yul\":3137:3161   */\n      tag_254\n        /* \"#utility.yul\":3155:3160   */\n      dup2\n        /* \"#utility.yul\":3137:3161   */\n      tag_200\n      jump\t// in\n    tag_254:\n        /* \"#utility.yul\":3130:3135   */\n      dup2\n        /* \"#utility.yul\":3127:3162   */\n      eq\n        /* \"#utility.yul\":3117:3180   */\n      tag_255\n      jumpi\n        /* \"#utility.yul\":3176:3177   */\n      0x00\n        /* \"#utility.yul\":3173:3174   */\n      dup1\n        /* \"#utility.yul\":3166:3178   */\n      revert\n        /* \"#utility.yul\":3117:3180   */\n    tag_255:\n        /* \"#utility.yul\":3064:3186   */\n      pop\n      jump\t// out\n        /* \"#utility.yul\":3192:3331   */\n    tag_202:\n        /* \"#utility.yul\":3238:3243   */\n      0x00\n        /* \"#utility.yul\":3276:3282   */\n      dup2\n        /* \"#utility.yul\":3263:3283   */\n      calldataload\n        /* \"#utility.yul\":3254:3283   */\n      swap1\n      pop\n        /* \"#utility.yul\":3292:3325   */\n      tag_257\n        /* \"#utility.yul\":3319:3324   */\n      dup2\n        /* \"#utility.yul\":3292:3325   */\n      tag_201\n      jump\t// in\n    tag_257:\n        /* \"#utility.yul\":3192:3331   */\n      swap3\n      swap2\n      pop\n      pop\n      jump\t// out\n        /* \"#utility.yul\":3337:3666   */\n    tag_45:\n        /* \"#utility.yul\":3396:3402   */\n      0x00\n        /* \"#utility.yul\":3445:3447   */\n      0x20\n        /* \"#utility.yul\":3433:3442   */\n      dup3\n        /* \"#utility.yul\":3424:3431   */\n      dup5\n        /* \"#utility.yul\":3420:3443   */\n      sub\n        /* \"#utility.yul\":3416:3448   */\n      slt\n        /* \"#utility.yul\":3413:3532   */\n      iszero\n      tag_259\n      jumpi\n        /* \"#utility.yul\":3451:3530   */\n      tag_260\n      tag_187\n      jump\t// in\n    tag_260:\n        /* \"#utility.yul\":3413:3532   */\n    tag_259:\n        /* \"#utility.yul\":3571:3572   */\n      0x00\n        /* \"#utility.yul\":3596:3649   */\n      tag_261\n        /* \"#utility.yul\":3641:3648   */\n      dup5\n        /* \"#utility.yul\":3632:3638   */\n      dup3\n        /* \"#utility.yul\":3621:3630   */\n      dup6\n        /* \"#utility.yul\":3617:3639   */\n      add\n        /* \"#utility.yul\":3596:3649   */\n      tag_202\n      jump\t// in\n    tag_261:\n        /* \"#utility.yul\":3586:3649   */\n      swap2\n      pop\n        /* \"#utility.yul\":3542:3659   */\n      pop\n        /* \"#utility.yul\":3337:3666   */\n      swap3\n      swap2\n      pop\n      pop\n      jump\t// out\n        /* \"#utility.yul\":3672:3794   */\n    tag_203:\n        /* \"#utility.yul\":3745:3769   */\n      tag_263\n        /* \"#utility.yul\":3763:3768   */\n      dup2\n        /* \"#utility.yul\":3745:3769   */\n      tag_184\n      jump\t// in\n    tag_263:\n        /* \"#utility.yul\":3738:3743   */\n      dup2\n        /* \"#utility.yul\":3735:3770   */\n      eq\n        /* \"#utility.yul\":3725:3788   */\n      tag_264\n      jumpi\n        /* \"#utility.yul\":3784:3785   */\n      0x00\n        /* \"#utility.yul\":3781:3782   */\n      dup1\n        /* \"#utility.yul\":3774:3786   */\n      revert\n        /* \"#utility.yul\":3725:3788   */\n    tag_264:\n        /* \"#utility.yul\":3672:3794   */\n      pop\n      jump\t// out\n        /* \"#utility.yul\":3800:3939   */\n    tag_204:\n        /* \"#utility.yul\":3846:3851   */\n      0x00\n        /* \"#utility.yul\":3884:3890   */\n      dup2\n        /* \"#utility.yul\":3871:3891   */\n      calldataload\n        /* \"#utility.yul\":3862:3891   */\n      swap1\n      pop\n        /* \"#utility.yul\":3900:3933   */\n      tag_266\n        /* \"#utility.yul\":3927:3932   */\n      dup2\n        /* \"#utility.yul\":3900:3933   */\n      tag_203\n      jump\t// in\n    tag_266:\n        /* \"#utility.yul\":3800:3939   */\n      swap3\n      swap2\n      pop\n      pop\n      jump\t// out\n        /* \"#utility.yul\":3945:4274   */\n    tag_50:\n        /* \"#utility.yul\":4004:4010   */\n      0x00\n        /* \"#utility.yul\":4053:4055   */\n      0x20\n        /* \"#utility.yul\":4041:4050   */\n      dup3\n        /* \"#utility.yul\":4032:4039   */\n      dup5\n        /* \"#utility.yul\":4028:4051   */\n      sub\n        /* \"#utility.yul\":4024:4056   */\n      slt\n        /* \"#utility.yul\":4021:4140   */\n      iszero\n      tag_268\n      jumpi\n        /* \"#utility.yul\":4059:4138   */\n      tag_269\n      tag_187\n      jump\t// in\n    tag_269:\n        /* \"#utility.yul\":4021:4140   */\n    tag_268:\n        /* \"#utility.yul\":4179:4180   */\n      0x00\n        /* \"#utility.yul\":4204:4257   */\n      tag_270\n        /* \"#utility.yul\":4249:4256   */\n      dup5\n        /* \"#utility.yul\":4240:4246   */\n      dup3\n        /* \"#utility.yul\":4229:4238   */\n      dup6\n        /* \"#utility.yul\":4225:4247   */\n      add\n        /* \"#utility.yul\":4204:4257   */\n      tag_204\n      jump\t// in\n    tag_270:\n        /* \"#utility.yul\":4194:4257   */\n      swap2\n      pop\n        /* \"#utility.yul\":4150:4267   */\n      pop\n        /* \"#utility.yul\":3945:4274   */\n      swap3\n      swap2\n      pop\n      pop\n      jump\t// out\n        /* \"#utility.yul\":4280:4398   */\n    tag_205:\n        /* \"#utility.yul\":4367:4391   */\n      tag_272\n        /* \"#utility.yul\":4385:4390   */\n      dup2\n        /* \"#utility.yul\":4367:4391   */\n      tag_190\n      jump\t// in\n    tag_272:\n        /* \"#utility.yul\":4362:4365   */\n      dup3\n        /* \"#utility.yul\":4355:4392   */\n      mstore\n        /* \"#utility.yul\":4280:4398   */\n      pop\n      pop\n      jump\t// out\n        /* \"#utility.yul\":4404:4626   */\n    tag_53:\n        /* \"#utility.yul\":4497:4501   */\n      0x00\n        /* \"#utility.yul\":4535:4537   */\n      0x20\n        /* \"#utility.yul\":4524:4533   */\n      dup3\n        /* \"#utility.yul\":4520:4538   */\n      add\n        /* \"#utility.yul\":4512:4538   */\n      swap1\n      pop\n        /* \"#utility.yul\":4548:4619   */\n      tag_274\n        /* \"#utility.yul\":4616:4617   */\n      0x00\n        /* \"#utility.yul\":4605:4614   */\n      dup4\n        /* \"#utility.yul\":4601:4618   */\n      add\n        /* \"#utility.yul\":4592:4598   */\n      dup5\n        /* \"#utility.yul\":4548:4619   */\n      tag_205\n      jump\t// in\n    tag_274:\n        /* \"#utility.yul\":4404:4626   */\n      swap3\n      swap2\n      pop\n      pop\n      jump\t// out\n        /* \"#utility.yul\":4632:4812   */\n    tag_206:\n        /* \"#utility.yul\":4680:4757   */\n      0x4e487b7100000000000000000000000000000000000000000000000000000000\n        /* \"#utility.yul\":4677:4678   */\n      0x00\n        /* \"#utility.yul\":4670:4758   */\n      mstore\n        /* \"#utility.yul\":4777:4781   */\n      0x11\n        /* \"#utility.yul\":4774:4775   */\n      0x04\n        /* \"#utility.yul\":4767:4782   */\n      mstore\n        /* \"#utility.yul\":4801:4805   */\n      0x24\n        /* \"#utility.yul\":4798:4799   */\n      0x00\n        /* \"#utility.yul\":4791:4806   */\n      revert\n        /* \"#utility.yul\":4818:5009   */\n    tag_61:\n        /* \"#utility.yul\":4858:4861   */\n      0x00\n        /* \"#utility.yul\":4877:4897   */\n      tag_277\n        /* \"#utility.yul\":4895:4896   */\n      dup3\n        /* \"#utility.yul\":4877:4897   */\n      tag_184\n      jump\t// in\n    tag_277:\n        /* \"#utility.yul\":4872:4897   */\n      swap2\n      pop\n        /* \"#utility.yul\":4911:4931   */\n      tag_278\n        /* \"#utility.yul\":4929:4930   */\n      dup4\n        /* \"#utility.yul\":4911:4931   */\n      tag_184\n      jump\t// in\n    tag_278:\n        /* \"#utility.yul\":4906:4931   */\n      swap3\n      pop\n        /* \"#utility.yul\":4954:4955   */\n      dup3\n        /* \"#utility.yul\":4951:4952   */\n      dup3\n        /* \"#utility.yul\":4947:4956   */\n      add\n        /* \"#utility.yul\":4940:4956   */\n      swap1\n      pop\n        /* \"#utility.yul\":4975:4978   */\n      dup1\n        /* \"#utility.yul\":4972:4973   */\n      dup3\n        /* \"#utility.yul\":4969:4979   */\n      gt\n        /* \"#utility.yul\":4966:5002   */\n      iszero\n      tag_279\n      jumpi\n        /* \"#utility.yul\":4982:5000   */\n      tag_280\n      tag_206\n      jump\t// in\n    tag_280:\n        /* \"#utility.yul\":4966:5002   */\n    tag_279:\n        /* \"#utility.yul\":4818:5009   */\n      swap3\n      swap2\n      pop\n      pop\n      jump\t// out\n        /* \"#utility.yul\":5015:5248   */\n    tag_64:\n        /* \"#utility.yul\":5054:5057   */\n      0x00\n        /* \"#utility.yul\":5077:5101   */\n      tag_282\n        /* \"#utility.yul\":5095:5100   */\n      dup3\n        /* \"#utility.yul\":5077:5101   */\n      tag_184\n      jump\t// in\n    tag_282:\n        /* \"#utility.yul\":5068:5101   */\n      swap2\n      pop\n        /* \"#utility.yul\":5123:5189   */\n      0xffffffffffffffffffffffffffffffffffffffffffffffffffffffffffffffff\n        /* \"#utility.yul\":5116:5121   */\n      dup3\n        /* \"#utility.yul\":5113:5190   */\n      sub\n        /* \"#utility.yul\":5110:5213   */\n      tag_283\n      jumpi\n        /* \"#utility.yul\":5193:5211   */\n      tag_284\n      tag_206\n      jump\t// in\n    tag_284:\n        /* \"#utility.yul\":5110:5213   */\n    tag_283:\n        /* \"#utility.yul\":5240:5241   */\n      0x01\n        /* \"#utility.yul\":5233:5238   */\n      dup3\n        /* \"#utility.yul\":5229:5242   */\n      add\n        /* \"#utility.yul\":5222:5242   */\n      swap1\n      pop\n        /* \"#utility.yul\":5015:5248   */\n      swap2\n      swap1\n      pop\n      jump\t// out\n        /* \"#utility.yul\":5254:5397   */\n    tag_207:\n        /* \"#utility.yul\":5311:5316   */\n      0x00\n        /* \"#utility.yul\":5342:5348   */\n      dup2\n        /* \"#utility.yul\":5336:5349   */\n      mload\n        /* \"#utility.yul\":5327:5349   */\n      swap1\n      pop\n        /* \"#utility.yul\":5358:5391   */\n      tag_286\n        /* \"#utility.yul\":5385:5390   */\n      dup2\n        /* \"#utility.yul\":5358:5391   */\n      tag_203\n      jump\t// in\n    tag_286:\n        /* \"#utility.yul\":5254:5397   */\n      swap3\n      swap2\n      pop\n      pop\n      jump\t// out\n        /* \"#utility.yul\":5403:5754   */\n    tag_73:\n        /* \"#utility.yul\":5473:5479   */\n      0x00\n        /* \"#utility.yul\":5522:5524   */\n      0x20\n        /* \"#utility.yul\":5510:5519   */\n      dup3\n        /* \"#utility.yul\":5501:5508   */\n      dup5\n        /* \"#utility.yul\":5497:5520   */\n      sub\n        /* \"#utility.yul\":5493:5525   */\n      slt\n        /* \"#utility.yul\":5490:5609   */\n      iszero\n      tag_288\n      jumpi\n        /* \"#utility.yul\":5528:5607   */\n      tag_289\n      tag_187\n      jump\t// in\n    tag_289:\n        /* \"#utility.yul\":5490:5609   */\n    tag_288:\n        /* \"#utility.yul\":5648:5649   */\n      0x00\n        /* \"#utility.yul\":5673:5737   */\n      tag_290\n        /* \"#utility.yul\":5729:5736   */\n      dup5\n        /* \"#utility.yul\":5720:5726   */\n      dup3\n        /* \"#utility.yul\":5709:5718   */\n      dup6\n        /* \"#utility.yul\":5705:5727   */\n      add\n        /* \"#utility.yul\":5673:5737   */\n      tag_207\n      jump\t// in\n    tag_290:\n        /* \"#utility.yul\":5663:5737   */\n      swap2\n      pop\n        /* \"#utility.yul\":5619:5747   */\n      pop\n        /* \"#utility.yul\":5403:5754   */\n      swap3\n      swap2\n      pop\n      pop\n      jump\t// out\n        /* \"#utility.yul\":5760:5940   */\n    tag_78:\n        /* \"#utility.yul\":5808:5885   */\n      0x4e487b7100000000000000000000000000000000000000000000000000000000\n        /* \"#utility.yul\":5805:5806   */\n      0x00\n        /* \"#utility.yul\":5798:5886   */\n      mstore\n        /* \"#utility.yul\":5905:5909   */\n      0x32\n        /* \"#utility.yul\":5902:5903   */\n      0x04\n        /* \"#utility.yul\":5895:5910   */\n      mstore\n        /* \"#utility.yul\":5929:5933   */\n      0x24\n        /* \"#utility.yul\":5926:5927   */\n      0x00\n        /* \"#utility.yul\":5919:5934   */\n      revert\n        /* \"#utility.yul\":5946:6126   */\n    tag_208:\n        /* \"#utility.yul\":5994:6071   */\n      0x4e487b7100000000000000000000000000000000000000000000000000000000\n        /* \"#utility.yul\":5991:5992   */\n      0x00\n        /* \"#utility.yul\":5984:6072   */\n      mstore\n        /* \"#utility.yul\":6091:6095   */\n      0x12\n        /* \"#utility.yul\":6088:6089   */\n      0x04\n        /* \"#utility.yul\":6081:6096   */\n      mstore\n        /* \"#utility.yul\":6115:6119   */\n      0x24\n        /* \"#utility.yul\":6112:6113   */\n      0x00\n        /* \"#utility.yul\":6105:6120   */\n      revert\n        /* \"#utility.yul\":6132:6317   */\n    tag_92:\n        /* \"#utility.yul\":6172:6173   */\n      0x00\n        /* \"#utility.yul\":6189:6209   */\n      tag_294\n        /* \"#utility.yul\":6207:6208   */\n      dup3\n        /* \"#utility.yul\":6189:6209   */\n      tag_184\n      jump\t// in\n    tag_294:\n        /* \"#utility.yul\":6184:6209   */\n      swap2\n      pop\n        /* \"#utility.yul\":6223:6243   */\n      tag_295\n        /* \"#utility.yul\":6241:6242   */\n      dup4\n        /* \"#utility.yul\":6223:6243   */\n      tag_184\n      jump\t// in\n    tag_295:\n        /* \"#utility.yul\":6218:6243   */\n      swap3\n      pop\n        /* \"#utility.yul\":6262:6263   */\n      dup3\n        /* \"#utility.yul\":6252:6287   */\n      tag_296\n      jumpi\n        /* \"#utility.yul\":6267:6285   */\n      tag_297\n      tag_208\n      jump\t// in\n    tag_297:\n        /* \"#utility.yul\":6252:6287   */\n    tag_296:\n        /* \"#utility.yul\":6309:6310   */\n      dup3\n        /* \"#utility.yul\":6306:6307   */\n      dup3\n        /* \"#utility.yul\":6302:6311   */\n      div\n        /* \"#utility.yul\":6297:6311   */\n      swap1\n      pop\n        /* \"#utility.yul\":6132:6317   */\n      swap3\n      swap2\n      pop\n      pop\n      jump\t// out\n        /* \"#utility.yul\":6323:6499   */\n    tag_117:\n        /* \"#utility.yul\":6355:6356   */\n      0x00\n        /* \"#utility.yul\":6372:6392   */\n      tag_299\n        /* \"#utility.yul\":6390:6391   */\n      dup3\n        /* \"#utility.yul\":6372:6392   */\n      tag_184\n      jump\t// in\n    tag_299:\n        /* \"#utility.yul\":6367:6392   */\n      swap2\n      pop\n        /* \"#utility.yul\":6406:6426   */\n      tag_300\n        /* \"#utility.yul\":6424:6425   */\n      dup4\n        /* \"#utility.yul\":6406:6426   */\n      tag_184\n      jump\t// in\n    tag_300:\n        /* \"#utility.yul\":6401:6426   */\n      swap3\n      pop\n        /* \"#utility.yul\":6445:6446   */\n      dup3\n        /* \"#utility.yul\":6435:6470   */\n      tag_301\n      jumpi\n        /* \"#utility.yul\":6450:6468   */\n      tag_302\n      tag_208\n      jump\t// in\n    tag_302:\n        /* \"#utility.yul\":6435:6470   */\n    tag_301:\n        /* \"#utility.yul\":6491:6492   */\n      dup3\n        /* \"#utility.yul\":6488:6489   */\n      dup3\n        /* \"#utility.yul\":6484:6493   */\n      mod\n        /* \"#utility.yul\":6479:6493   */\n      swap1\n      pop\n        /* \"#utility.yul\":6323:6499   */\n      swap3\n      swap2\n      pop\n      pop\n      jump\t// out\n        /* \"#utility.yul\":6505:6674   */\n    tag_209:\n        /* \"#utility.yul\":6589:6600   */\n      0x00\n        /* \"#utility.yul\":6623:6629   */\n      dup3\n        /* \"#utility.yul\":6618:6621   */\n      dup3\n        /* \"#utility.yul\":6611:6630   */\n      mstore\n        /* \"#utility.yul\":6663:6667   */\n      0x20\n        /* \"#utility.yul\":6658:6661   */\n      dup3\n        /* \"#utility.yul\":6654:6668   */\n      add\n        /* \"#utility.yul\":6639:6668   */\n      swap1\n      pop\n        /* \"#utility.yul\":6505:6674   */\n      swap3\n      swap2\n      pop\n      pop\n      jump\t// out\n        /* \"#utility.yul\":6680:6844   */\n    tag_210:\n        /* \"#utility.yul\":6820:6836   */\n      0x496e76616c69642063686f696365000000000000000000000000000000000000\n        /* \"#utility.yul\":6816:6817   */\n      0x00\n        /* \"#utility.yul\":6808:6814   */\n      dup3\n        /* \"#utility.yul\":6804:6818   */\n      add\n        /* \"#utility.yul\":6797:6837   */\n      mstore\n        /* \"#utility.yul\":6680:6844   */\n      pop\n      jump\t// out\n        /* \"#utility.yul\":6850:7216   */\n    tag_211:\n        /* \"#utility.yul\":6992:6995   */\n      0x00\n        /* \"#utility.yul\":7013:7080   */\n      tag_306\n        /* \"#utility.yul\":7077:7079   */\n      0x0e\n        /* \"#utility.yul\":7072:7075   */\n      dup4\n        /* \"#utility.yul\":7013:7080   */\n      tag_209\n      jump\t// in\n    tag_306:\n        /* \"#utility.yul\":7006:7080   */\n      swap2\n      pop\n        /* \"#utility.yul\":7089:7182   */\n      tag_307\n        /* \"#utility.yul\":7178:7181   */\n      dup3\n        /* \"#utility.yul\":7089:7182   */\n      tag_210\n      jump\t// in\n    tag_307:\n        /* \"#utility.yul\":7207:7209   */\n      0x20\n        /* \"#utility.yul\":7202:7205   */\n      dup3\n        /* \"#utility.yul\":7198:7210   */\n      add\n        /* \"#utility.yul\":7191:7210   */\n      swap1\n      pop\n        /* \"#utility.yul\":6850:7216   */\n      swap2\n      swap1\n      pop\n      jump\t// out\n        /* \"#utility.yul\":7222:7641   */\n    tag_124:\n        /* \"#utility.yul\":7388:7392   */\n      0x00\n        /* \"#utility.yul\":7426:7428   */\n      0x20\n        /* \"#utility.yul\":7415:7424   */\n      dup3\n        /* \"#utility.yul\":7411:7429   */\n      add\n        /* \"#utility.yul\":7403:7429   */\n      swap1\n      pop\n        /* \"#utility.yul\":7475:7484   */\n      dup2\n        /* \"#utility.yul\":7469:7473   */\n      dup2\n        /* \"#utility.yul\":7465:7485   */\n      sub\n        /* \"#utility.yul\":7461:7462   */\n      0x00\n        /* \"#utility.yul\":7450:7459   */\n      dup4\n        /* \"#utility.yul\":7446:7463   */\n      add\n        /* \"#utility.yul\":7439:7486   */\n      mstore\n        /* \"#utility.yul\":7503:7634   */\n      tag_309\n        /* \"#utility.yul\":7629:7633   */\n      dup2\n        /* \"#utility.yul\":7503:7634   */\n      tag_211\n      jump\t// in\n    tag_309:\n        /* \"#utility.yul\":7495:7634   */\n      swap1\n      pop\n        /* \"#utility.yul\":7222:7641   */\n      swap2\n      swap1\n      pop\n      jump\t// out\n        /* \"#utility.yul\":7647:7765   */\n    tag_212:\n        /* \"#utility.yul\":7734:7758   */\n      tag_311\n        /* \"#utility.yul\":7752:7757   */\n      dup2\n        /* \"#utility.yul\":7734:7758   */\n      tag_200\n      jump\t// in\n    tag_311:\n        /* \"#utility.yul\":7729:7732   */\n      dup3\n        /* \"#utility.yul\":7722:7759   */\n      mstore\n        /* \"#utility.yul\":7647:7765   */\n      pop\n      pop\n      jump\t// out\n        /* \"#utility.yul\":7771:7993   */\n    tag_126:\n        /* \"#utility.yul\":7864:7868   */\n      0x00\n        /* \"#utility.yul\":7902:7904   */\n      0x20\n        /* \"#utility.yul\":7891:7900   */\n      dup3\n        /* \"#utility.yul\":7887:7905   */\n      add\n        /* \"#utility.yul\":7879:7905   */\n      swap1\n      pop\n        /* \"#utility.yul\":7915:7986   */\n      tag_313\n        /* \"#utility.yul\":7983:7984   */\n      0x00\n        /* \"#utility.yul\":7972:7981   */\n      dup4\n        /* \"#utility.yul\":7968:7985   */\n      add\n        /* \"#utility.yul\":7959:7965   */\n      dup5\n        /* \"#utility.yul\":7915:7986   */\n      tag_212\n      jump\t// in\n    tag_313:\n        /* \"#utility.yul\":7771:7993   */\n      swap3\n      swap2\n      pop\n      pop\n      jump\t// out\n\n    auxdata: 0xa2646970667358221220506a5130f7c61a859d3e34ca50521bbb74a933d9a3bbe2d5e0281d87ddf4c1ce64736f6c634300081a0033\n}\n\nsub_1: assembly {\n        /* \"TimeUnit.sol\":136:1086  contract TimeUnit { ... */\n      mstore(0x40, 0x80)\n      callvalue\n      dup1\n      iszero\n      tag_1\n      jumpi\n      0x00\n      dup1\n      revert\n    tag_1:\n      pop\n      dataSize(sub_0)\n      dup1\n      dataOffset(sub_0)\n      0x00\n      codecopy\n      0x00\n      return\n    stop\n\n    sub_0: assembly {\n            /* \"TimeUnit.sol\":136:1086  contract TimeUnit { ... */\n          mstore(0x40, 0x80)\n          callvalue\n          dup1\n          iszero\n          tag_1\n          jumpi\n          0x00\n          dup1\n          revert\n        tag_1:\n          pop\n          jumpi(tag_2, lt(calldatasize, 0x04))\n          shr(0xe0, calldataload(0x00))\n          dup1\n          0x78e97925\n          eq\n          tag_3\n          jumpi\n          dup1\n          0xa63f7c53\n          eq\n          tag_4\n          jumpi\n          dup1\n          0xbc06b8cd\n          eq\n          tag_5\n          jumpi\n          dup1\n          0xd97c8416\n          eq\n          tag_6\n          jumpi\n        tag_2:\n          0x00\n          dup1\n          revert\n            /* \"TimeUnit.sol\":307:331  uint256 public startTime */\n        tag_3:\n          tag_7\n          tag_8\n          jump\t// in\n        tag_7:\n          mload(0x40)\n          tag_9\n          swap2\n          swap1\n          tag_10\n          jump\t// in\n        tag_9:\n          mload(0x40)\n          dup1\n          swap2\n          sub\n          swap1\n          return\n            /* \"TimeUnit.sol\":379:452  function setStartTime() public { ... */\n        tag_4:\n          tag_11\n          tag_12\n          jump\t// in\n        tag_11:\n          stop\n            /* \"TimeUnit.sol\":576:683  function elapsedSeconds() public view returns (uint256) { ... */\n        tag_5:\n          tag_13\n          tag_14\n          jump\t// in\n        tag_13:\n          mload(0x40)\n          tag_15\n          swap2\n          swap1\n          tag_10\n          jump\t// in\n        tag_15:\n          mload(0x40)\n          dup1\n          swap2\n          sub\n          swap1\n          return\n            /* \"TimeUnit.sol\":799:1082  function elapsedMinutes() public view returns (uint256) { ... */\n        tag_6:\n          tag_16\n          tag_17\n          jump\t// in\n        tag_16:\n          mload(0x40)\n          tag_18\n          swap2\n          swap1\n          tag_10\n          jump\t// in\n        tag_18:\n          mload(0x40)\n          dup1\n          swap2\n          sub\n          swap1\n          return\n            /* \"TimeUnit.sol\":307:331  uint256 public startTime */\n        tag_8:\n          sload(0x00)\n          dup2\n          jump\t// out\n            /* \"TimeUnit.sol\":379:452  function setStartTime() public { ... */\n        tag_12:\n            /* \"TimeUnit.sol\":430:445  block.timestamp */\n          timestamp\n            /* \"TimeUnit.sol\":418:427  startTime */\n          0x00\n            /* \"TimeUnit.sol\":418:445  startTime = block.timestamp */\n          dup2\n          swap1\n          sstore\n          pop\n            /* \"TimeUnit.sol\":379:452  function setStartTime() public { ... */\n          jump\t// out\n            /* \"TimeUnit.sol\":576:683  function elapsedSeconds() public view returns (uint256) { ... */\n        tag_14:\n            /* \"TimeUnit.sol\":623:630  uint256 */\n          0x00\n            /* \"TimeUnit.sol\":666:675  startTime */\n          dup1\n          sload\n            /* \"TimeUnit.sol\":648:663  block.timestamp */\n          timestamp\n            /* \"TimeUnit.sol\":648:675  block.timestamp - startTime */\n          tag_21\n          swap2\n          swap1\n          tag_22\n          jump\t// in\n        tag_21:\n            /* \"TimeUnit.sol\":640:676  return (block.timestamp - startTime) */\n          swap1\n          pop\n            /* \"TimeUnit.sol\":576:683  function elapsedSeconds() public view returns (uint256) { ... */\n          swap1\n          jump\t// out\n            /* \"TimeUnit.sol\":799:1082  function elapsedMinutes() public view returns (uint256) { ... */\n        tag_17:\n            /* \"TimeUnit.sol\":846:853  uint256 */\n          0x00\n            /* \"TimeUnit.sol\":1066:1075  1 minutes */\n          0x3c\n            /* \"TimeUnit.sol\":1053:1062  startTime */\n          sload(0x00)\n            /* \"TimeUnit.sol\":1035:1050  block.timestamp */\n          timestamp\n            /* \"TimeUnit.sol\":1035:1062  block.timestamp - startTime */\n          tag_24\n          swap2\n          swap1\n          tag_22\n          jump\t// in\n        tag_24:\n            /* \"TimeUnit.sol\":1034:1075  (block.timestamp - startTime) / 1 minutes */\n          tag_25\n          swap2\n          swap1\n          tag_26\n          jump\t// in\n        tag_25:\n            /* \"TimeUnit.sol\":1027:1075  return (block.timestamp - startTime) / 1 minutes */\n          swap1\n          pop\n            /* \"TimeUnit.sol\":799:1082  function elapsedMinutes() public view returns (uint256) { ... */\n          swap1\n          jump\t// out\n            /* \"#utility.yul\":7:84   */\n        tag_27:\n            /* \"#utility.yul\":44:51   */\n          0x00\n            /* \"#utility.yul\":73:78   */\n          dup2\n            /* \"#utility.yul\":62:78   */\n          swap1\n          pop\n            /* \"#utility.yul\":7:84   */\n          swap2\n          swap1\n          pop\n          jump\t// out\n            /* \"#utility.yul\":90:208   */\n        tag_28:\n            /* \"#utility.yul\":177:201   */\n          tag_34\n            /* \"#utility.yul\":195:200   */\n          dup2\n            /* \"#utility.yul\":177:201   */\n          tag_27\n          jump\t// in\n        tag_34:\n            /* \"#utility.yul\":172:175   */\n          dup3\n            /* \"#utility.yul\":165:202   */\n          mstore\n            /* \"#utility.yul\":90:208   */\n          pop\n          pop\n          jump\t// out\n            /* \"#utility.yul\":214:436   */\n        tag_10:\n            /* \"#utility.yul\":307:311   */\n          0x00\n            /* \"#utility.yul\":345:347   */\n          0x20\n            /* \"#utility.yul\":334:343   */\n          dup3\n            /* \"#utility.yul\":330:348   */\n          add\n            /* \"#utility.yul\":322:348   */\n          swap1\n          pop\n            /* \"#utility.yul\":358:429   */\n          tag_36\n            /* \"#utility.yul\":426:427   */\n          0x00\n            /* \"#utility.yul\":415:424   */\n          dup4\n            /* \"#utility.yul\":411:428   */\n          add\n            /* \"#utility.yul\":402:408   */\n          dup5\n            /* \"#utility.yul\":358:429   */\n          tag_28\n          jump\t// in\n        tag_36:\n            /* \"#utility.yul\":214:436   */\n          swap3\n          swap2\n          pop\n          pop\n          jump\t// out\n            /* \"#utility.yul\":442:622   */\n        tag_29:\n            /* \"#utility.yul\":490:567   */\n          0x4e487b7100000000000000000000000000000000000000000000000000000000\n            /* \"#utility.yul\":487:488   */\n          0x00\n            /* \"#utility.yul\":480:568   */\n          mstore\n            /* \"#utility.yul\":587:591   */\n          0x11\n            /* \"#utility.yul\":584:585   */\n          0x04\n            /* \"#utility.yul\":577:592   */\n          mstore\n            /* \"#utility.yul\":611:615   */\n          0x24\n            /* \"#utility.yul\":608:609   */\n          0x00\n            /* \"#utility.yul\":601:616   */\n          revert\n            /* \"#utility.yul\":628:822   */\n        tag_22:\n            /* \"#utility.yul\":668:672   */\n          0x00\n            /* \"#utility.yul\":688:708   */\n          tag_39\n            /* \"#utility.yul\":706:707   */\n          dup3\n            /* \"#utility.yul\":688:708   */\n          tag_27\n          jump\t// in\n        tag_39:\n            /* \"#utility.yul\":683:708   */\n          swap2\n          pop\n            /* \"#utility.yul\":722:742   */\n          tag_40\n            /* \"#utility.yul\":740:741   */\n          dup4\n            /* \"#utility.yul\":722:742   */\n          tag_27\n          jump\t// in\n        tag_40:\n            /* \"#utility.yul\":717:742   */\n          swap3\n          pop\n            /* \"#utility.yul\":766:767   */\n          dup3\n            /* \"#utility.yul\":763:764   */\n          dup3\n            /* \"#utility.yul\":759:768   */\n          sub\n            /* \"#utility.yul\":751:768   */\n          swap1\n          pop\n            /* \"#utility.yul\":790:791   */\n          dup2\n            /* \"#utility.yul\":784:788   */\n          dup2\n            /* \"#utility.yul\":781:792   */\n          gt\n            /* \"#utility.yul\":778:815   */\n          iszero\n          tag_41\n          jumpi\n            /* \"#utility.yul\":795:813   */\n          tag_42\n          tag_29\n          jump\t// in\n        tag_42:\n            /* \"#utility.yul\":778:815   */\n        tag_41:\n            /* \"#utility.yul\":628:822   */\n          swap3\n          swap2\n          pop\n          pop\n          jump\t// out\n            /* \"#utility.yul\":828:1008   */\n        tag_30:\n            /* \"#utility.yul\":876:953   */\n          0x4e487b7100000000000000000000000000000000000000000000000000000000\n            /* \"#utility.yul\":873:874   */\n          0x00\n            /* \"#utility.yul\":866:954   */\n          mstore\n            /* \"#utility.yul\":973:977   */\n          0x12\n            /* \"#utility.yul\":970:971   */\n          0x04\n            /* \"#utility.yul\":963:978   */\n          mstore\n            /* \"#utility.yul\":997:1001   */\n          0x24\n            /* \"#utility.yul\":994:995   */\n          0x00\n            /* \"#utility.yul\":987:1002   */\n          revert\n            /* \"#utility.yul\":1014:1199   */\n        tag_26:\n            /* \"#utility.yul\":1054:1055   */\n          0x00\n            /* \"#utility.yul\":1071:1091   */\n          tag_45\n            /* \"#utility.yul\":1089:1090   */\n          dup3\n            /* \"#utility.yul\":1071:1091   */\n          tag_27\n          jump\t// in\n        tag_45:\n            /* \"#utility.yul\":1066:1091   */\n          swap2\n          pop\n            /* \"#utility.yul\":1105:1125   */\n          tag_46\n            /* \"#utility.yul\":1123:1124   */\n          dup4\n            /* \"#utility.yul\":1105:1125   */\n          tag_27\n          jump\t// in\n        tag_46:\n            /* \"#utility.yul\":1100:1125   */\n          swap3\n          pop\n            /* \"#utility.yul\":1144:1145   */\n          dup3\n            /* \"#utility.yul\":1134:1169   */\n          tag_47\n          jumpi\n            /* \"#utility.yul\":1149:1167   */\n          tag_48\n          tag_30\n          jump\t// in\n        tag_48:\n            /* \"#utility.yul\":1134:1169   */\n        tag_47:\n            /* \"#utility.yul\":1191:1192   */\n          dup3\n            /* \"#utility.yul\":1188:1189   */\n          dup3\n            /* \"#utility.yul\":1184:1193   */\n          div\n            /* \"#utility.yul\":1179:1193   */\n          swap1\n          pop\n            /* \"#utility.yul\":1014:1199   */\n          swap3\n          swap2\n          pop\n          pop\n          jump\t// out\n\n        auxdata: 0xa2646970667358221220aac731c651a41091e78c4c68ca2cde2e708ec23868c1bbf8979319bbf0b1f7c164736f6c634300081a0033\n    }\n}\n\nsub_2: assembly {\n        /* \"CommitReveal.sol\":70:1928  contract CommitReveal {... */\n      mstore(0x40, 0x80)\n        /* \"CommitReveal.sol\":116:119  100 */\n      0x64\n        /* \"CommitReveal.sol\":97:119  uint8 public max = 100 */\n      0x00\n      dup1\n      0x0100\n      exp\n      dup2\n      sload\n      dup2\n      0xff\n      mul\n      not\n      and\n      swap1\n      dup4\n      0xff\n      and\n      mul\n      or\n      swap1\n      sstore\n      pop\n        /* \"CommitReveal.sol\":70:1928  contract CommitReveal {... */\n      callvalue\n      dup1\n      iszero\n      tag_1\n      jumpi\n      0x00\n      dup1\n      revert\n    tag_1:\n      pop\n      dataSize(sub_0)\n      dup1\n      dataOffset(sub_0)\n      0x00\n      codecopy\n      0x00\n      return\n    stop\n\n    sub_0: assembly {\n            /* \"CommitReveal.sol\":70:1928  contract CommitReveal {... */\n          mstore(0x40, 0x80)\n          callvalue\n          dup1\n          iszero\n          tag_1\n          jumpi\n          0x00\n          dup1\n          revert\n        tag_1:\n          pop\n          jumpi(tag_2, lt(calldatasize, 0x04))\n          shr(0xe0, calldataload(0x00))\n          dup1\n          0x3cf5040a\n          eq\n          tag_3\n          jumpi\n          dup1\n          0x6ac5db19\n          eq\n          tag_4\n          jumpi\n          dup1\n          0x701fd0f1\n          eq\n          tag_5\n          jumpi\n          dup1\n          0x7b43a8e6\n          eq\n          tag_6\n          jumpi\n          dup1\n          0xf14fcbc8\n          eq\n          tag_7\n          jumpi\n        tag_2:\n          0x00\n          dup1\n          revert\n            /* \"CommitReveal.sol\":1816:1926  function getHash(bytes32 data) public pure returns(bytes32){... */\n        tag_3:\n          tag_8\n          0x04\n          dup1\n          calldatasize\n          sub\n          dup2\n          add\n          swap1\n          tag_9\n          swap2\n          swap1\n          tag_10\n          jump\t// in\n        tag_9:\n          tag_11\n          jump\t// in\n        tag_8:\n          mload(0x40)\n          tag_12\n          swap2\n          swap1\n          tag_13\n          jump\t// in\n        tag_12:\n          mload(0x40)\n          dup1\n          swap2\n          sub\n          swap1\n          return\n            /* \"CommitReveal.sol\":97:119  uint8 public max = 100 */\n        tag_4:\n          tag_14\n          tag_15\n          jump\t// in\n        tag_14:\n          mload(0x40)\n          tag_16\n          swap2\n          swap1\n          tag_17\n          jump\t// in\n        tag_16:\n          mload(0x40)\n          dup1\n          swap2\n          sub\n          swap1\n          return\n            /* \"CommitReveal.sol\":594:1743  function reveal(bytes32 revealHash) public {... */\n        tag_5:\n          tag_18\n          0x04\n          dup1\n          calldatasize\n          sub\n          dup2\n          add\n          swap1\n          tag_19\n          swap2\n          swap1\n          tag_10\n          jump\t// in\n        tag_19:\n          tag_20\n          jump\t// in\n        tag_18:\n          stop\n            /* \"CommitReveal.sol\":204:246  mapping (address => Commit) public commits */\n        tag_6:\n          tag_21\n          0x04\n          dup1\n          calldatasize\n          sub\n          dup2\n          add\n          swap1\n          tag_22\n          swap2\n          swap1\n          tag_23\n          jump\t// in\n        tag_22:\n          tag_24\n          jump\t// in\n        tag_21:\n          mload(0x40)\n          tag_25\n          swap4\n          swap3\n          swap2\n          swap1\n          tag_26\n          jump\t// in\n        tag_25:\n          mload(0x40)\n          dup1\n          swap2\n          sub\n          swap1\n          return\n            /* \"CommitReveal.sol\":251:522  function commit(bytes32 dataHash) public {... */\n        tag_7:\n          tag_27\n          0x04\n          dup1\n          calldatasize\n          sub\n          dup2\n          add\n          swap1\n          tag_28\n          swap2\n          swap1\n          tag_10\n          jump\t// in\n        tag_28:\n          tag_29\n          jump\t// in\n        tag_27:\n          stop\n            /* \"CommitReveal.sol\":1816:1926  function getHash(bytes32 data) public pure returns(bytes32){... */\n        tag_11:\n            /* \"CommitReveal.sol\":1867:1874  bytes32 */\n          0x00\n            /* \"CommitReveal.sol\":1915:1919  data */\n          dup2\n            /* \"CommitReveal.sol\":1898:1920  abi.encodePacked(data) */\n          add(0x20, mload(0x40))\n          tag_31\n          swap2\n          swap1\n          tag_32\n          jump\t// in\n        tag_31:\n          mload(0x40)\n          0x20\n          dup2\n          dup4\n          sub\n          sub\n          dup2\n          mstore\n          swap1\n          0x40\n          mstore\n            /* \"CommitReveal.sol\":1888:1921  keccak256(abi.encodePacked(data)) */\n          dup1\n          mload\n          swap1\n          0x20\n          add\n          keccak256\n            /* \"CommitReveal.sol\":1881:1921  return keccak256(abi.encodePacked(data)) */\n          swap1\n          pop\n            /* \"CommitReveal.sol\":1816:1926  function getHash(bytes32 data) public pure returns(bytes32){... */\n          swap2\n          swap1\n          pop\n          jump\t// out\n            /* \"CommitReveal.sol\":97:119  uint8 public max = 100 */\n        tag_15:\n          0x00\n          dup1\n          sload\n          swap1\n          0x0100\n          exp\n          swap1\n          div\n          0xff\n          and\n          dup2\n          jump\t// out\n            /* \"CommitReveal.sol\":594:1743  function reveal(bytes32 revealHash) public {... */\n        tag_20:\n            /* \"CommitReveal.sol\":748:753  false */\n          0x00\n            /* \"CommitReveal.sol\":718:753  commits[msg.sender].revealed==false */\n          iszero\n          iszero\n            /* \"CommitReveal.sol\":718:725  commits */\n          0x01\n            /* \"CommitReveal.sol\":718:737  commits[msg.sender] */\n          0x00\n            /* \"CommitReveal.sol\":726:736  msg.sender */\n          caller\n            /* \"CommitReveal.sol\":718:737  commits[msg.sender] */\n          0xffffffffffffffffffffffffffffffffffffffff\n          and\n          0xffffffffffffffffffffffffffffffffffffffff\n          and\n          dup2\n          mstore\n          0x20\n          add\n          swap1\n          dup2\n          mstore\n          0x20\n          add\n          0x00\n          keccak256\n            /* \"CommitReveal.sol\":718:746  commits[msg.sender].revealed */\n          0x01\n          add\n          0x08\n          swap1\n          sload\n          swap1\n          0x0100\n          exp\n          swap1\n          div\n          0xff\n          and\n            /* \"CommitReveal.sol\":718:753  commits[msg.sender].revealed==false */\n          iszero\n          iszero\n          eq\n            /* \"CommitReveal.sol\":710:795  require(commits[msg.sender].revealed==false,\"CommitReveal::reveal: Already revealed\") */\n          tag_34\n          jumpi\n          mload(0x40)\n          0x08c379a000000000000000000000000000000000000000000000000000000000\n          dup2\n          mstore\n          0x04\n          add\n          tag_35\n          swap1\n          tag_36\n          jump\t// in\n        tag_35:\n          mload(0x40)\n          dup1\n          swap2\n          sub\n          swap1\n          revert\n        tag_34:\n            /* \"CommitReveal.sol\":830:834  true */\n          0x01\n            /* \"CommitReveal.sol\":801:808  commits */\n          dup1\n            /* \"CommitReveal.sol\":801:820  commits[msg.sender] */\n          0x00\n            /* \"CommitReveal.sol\":809:819  msg.sender */\n          caller\n            /* \"CommitReveal.sol\":801:820  commits[msg.sender] */\n          0xffffffffffffffffffffffffffffffffffffffff\n          and\n          0xffffffffffffffffffffffffffffffffffffffff\n          and\n          dup2\n          mstore\n          0x20\n          add\n          swap1\n          dup2\n          mstore\n          0x20\n          add\n          0x00\n          keccak256\n            /* \"CommitReveal.sol\":801:829  commits[msg.sender].revealed */\n          0x01\n          add\n          0x08\n            /* \"CommitReveal.sol\":801:834  commits[msg.sender].revealed=true */\n          0x0100\n          exp\n          dup2\n          sload\n          dup2\n          0xff\n          mul\n          not\n          and\n          swap1\n          dup4\n          iszero\n          iszero\n          mul\n          or\n          swap1\n          sstore\n          pop\n            /* \"CommitReveal.sol\":924:931  commits */\n          0x01\n            /* \"CommitReveal.sol\":924:943  commits[msg.sender] */\n          0x00\n            /* \"CommitReveal.sol\":932:942  msg.sender */\n          caller\n            /* \"CommitReveal.sol\":924:943  commits[msg.sender] */\n          0xffffffffffffffffffffffffffffffffffffffff\n          and\n          0xffffffffffffffffffffffffffffffffffffffff\n          and\n          dup2\n          mstore\n          0x20\n          add\n          swap1\n          dup2\n          mstore\n          0x20\n          add\n          0x00\n          keccak256\n            /* \"CommitReveal.sol\":924:950  commits[msg.sender].commit */\n          0x00\n          add\n          sload\n            /* \"CommitReveal.sol\":903:922  getHash(revealHash) */\n          tag_37\n            /* \"CommitReveal.sol\":911:921  revealHash */\n          dup3\n            /* \"CommitReveal.sol\":903:910  getHash */\n          tag_11\n            /* \"CommitReveal.sol\":903:922  getHash(revealHash) */\n          jump\t// in\n        tag_37:\n            /* \"CommitReveal.sol\":903:950  getHash(revealHash)==commits[msg.sender].commit */\n          eq\n            /* \"CommitReveal.sol\":895:1011  require(getHash(revealHash)==commits[msg.sender].commit,\"CommitReveal::reveal: Revealed hash does not match commit\") */\n          tag_38\n          jumpi\n          mload(0x40)\n          0x08c379a000000000000000000000000000000000000000000000000000000000\n          dup2\n          mstore\n          0x04\n          add\n          tag_39\n          swap1\n          tag_40\n          jump\t// in\n        tag_39:\n          mload(0x40)\n          dup1\n          swap2\n          sub\n          swap1\n          revert\n        tag_38:\n            /* \"CommitReveal.sol\":1117:1124  commits */\n          0x01\n            /* \"CommitReveal.sol\":1117:1136  commits[msg.sender] */\n          0x00\n            /* \"CommitReveal.sol\":1125:1135  msg.sender */\n          caller\n            /* \"CommitReveal.sol\":1117:1136  commits[msg.sender] */\n          0xffffffffffffffffffffffffffffffffffffffff\n          and\n          0xffffffffffffffffffffffffffffffffffffffff\n          and\n          dup2\n          mstore\n          0x20\n          add\n          swap1\n          dup2\n          mstore\n          0x20\n          add\n          0x00\n          keccak256\n            /* \"CommitReveal.sol\":1117:1142  commits[msg.sender].block */\n          0x01\n          add\n          0x00\n          swap1\n          sload\n          swap1\n          0x0100\n          exp\n          swap1\n          div\n          0xffffffffffffffff\n          and\n            /* \"CommitReveal.sol\":1096:1142  uint64(block.number)>commits[msg.sender].block */\n          0xffffffffffffffff\n          and\n            /* \"CommitReveal.sol\":1103:1115  block.number */\n          number\n            /* \"CommitReveal.sol\":1096:1142  uint64(block.number)>commits[msg.sender].block */\n          0xffffffffffffffff\n          and\n          gt\n            /* \"CommitReveal.sol\":1088:1212  require(uint64(block.number)>commits[msg.sender].block,\"CommitReveal::reveal: Reveal and commit happened on the same block\") */\n          tag_41\n          jumpi\n          mload(0x40)\n          0x08c379a000000000000000000000000000000000000000000000000000000000\n          dup2\n          mstore\n          0x04\n          add\n          tag_42\n          swap1\n          tag_43\n          jump\t// in\n        tag_42:\n          mload(0x40)\n          dup1\n          swap2\n          sub\n          swap1\n          revert\n        tag_41:\n            /* \"CommitReveal.sol\":1329:1332  250 */\n          0xfa\n            /* \"CommitReveal.sol\":1303:1310  commits */\n          0x01\n            /* \"CommitReveal.sol\":1303:1322  commits[msg.sender] */\n          0x00\n            /* \"CommitReveal.sol\":1311:1321  msg.sender */\n          caller\n            /* \"CommitReveal.sol\":1303:1322  commits[msg.sender] */\n          0xffffffffffffffffffffffffffffffffffffffff\n          and\n          0xffffffffffffffffffffffffffffffffffffffff\n          and\n          dup2\n          mstore\n          0x20\n          add\n          swap1\n          dup2\n          mstore\n          0x20\n          add\n          0x00\n          keccak256\n            /* \"CommitReveal.sol\":1303:1328  commits[msg.sender].block */\n          0x01\n          add\n          0x00\n          swap1\n          sload\n          swap1\n          0x0100\n          exp\n          swap1\n          div\n          0xffffffffffffffff\n          and\n            /* \"CommitReveal.sol\":1303:1332  commits[msg.sender].block+250 */\n          tag_44\n          swap2\n          swap1\n          tag_45\n          jump\t// in\n        tag_44:\n            /* \"CommitReveal.sol\":1281:1332  uint64(block.number)<=commits[msg.sender].block+250 */\n          0xffffffffffffffff\n          and\n            /* \"CommitReveal.sol\":1288:1300  block.number */\n          number\n            /* \"CommitReveal.sol\":1281:1332  uint64(block.number)<=commits[msg.sender].block+250 */\n          0xffffffffffffffff\n          and\n          gt\n          iszero\n            /* \"CommitReveal.sol\":1273:1375  require(uint64(block.number)<=commits[msg.sender].block+250,\"CommitReveal::reveal: Revealed too late\") */\n          tag_46\n          jumpi\n          mload(0x40)\n          0x08c379a000000000000000000000000000000000000000000000000000000000\n          dup2\n          mstore\n          0x04\n          add\n          tag_47\n          swap1\n          tag_48\n          jump\t// in\n        tag_47:\n          mload(0x40)\n          dup1\n          swap2\n          sub\n          swap1\n          revert\n        tag_46:\n            /* \"CommitReveal.sol\":1448:1465  bytes32 blockHash */\n          0x00\n            /* \"CommitReveal.sol\":1478:1485  commits */\n          0x01\n            /* \"CommitReveal.sol\":1478:1497  commits[msg.sender] */\n          0x00\n            /* \"CommitReveal.sol\":1486:1496  msg.sender */\n          caller\n            /* \"CommitReveal.sol\":1478:1497  commits[msg.sender] */\n          0xffffffffffffffffffffffffffffffffffffffff\n          and\n          0xffffffffffffffffffffffffffffffffffffffff\n          and\n          dup2\n          mstore\n          0x20\n          add\n          swap1\n          dup2\n          mstore\n          0x20\n          add\n          0x00\n          keccak256\n            /* \"CommitReveal.sol\":1478:1503  commits[msg.sender].block */\n          0x01\n          add\n          0x00\n          swap1\n          sload\n          swap1\n          0x0100\n          exp\n          swap1\n          div\n          0xffffffffffffffff\n          and\n            /* \"CommitReveal.sol\":1468:1504  blockhash(commits[msg.sender].block) */\n          0xffffffffffffffff\n          and\n          blockhash\n            /* \"CommitReveal.sol\":1448:1504  bytes32 blockHash = blockhash(commits[msg.sender].block) */\n          swap1\n          pop\n            /* \"CommitReveal.sol\":1614:1625  uint random */\n          0x00\n            /* \"CommitReveal.sol\":1684:1687  max */\n          dup1\n          0x00\n          swap1\n          sload\n          swap1\n          0x0100\n          exp\n          swap1\n          div\n          0xff\n          and\n            /* \"CommitReveal.sol\":1628:1687  uint(keccak256(abi.encodePacked(blockHash,revealHash)))%max */\n          0xff\n          and\n            /* \"CommitReveal.sol\":1660:1669  blockHash */\n          dup3\n            /* \"CommitReveal.sol\":1670:1680  revealHash */\n          dup5\n            /* \"CommitReveal.sol\":1643:1681  abi.encodePacked(blockHash,revealHash) */\n          add(0x20, mload(0x40))\n          tag_49\n          swap3\n          swap2\n          swap1\n          tag_50\n          jump\t// in\n        tag_49:\n          mload(0x40)\n          0x20\n          dup2\n          dup4\n          sub\n          sub\n          dup2\n          mstore\n          swap1\n          0x40\n          mstore\n            /* \"CommitReveal.sol\":1633:1682  keccak256(abi.encodePacked(blockHash,revealHash)) */\n          dup1\n          mload\n          swap1\n          0x20\n          add\n          keccak256\n            /* \"CommitReveal.sol\":1628:1683  uint(keccak256(abi.encodePacked(blockHash,revealHash))) */\n          0x00\n          shr\n            /* \"CommitReveal.sol\":1628:1687  uint(keccak256(abi.encodePacked(blockHash,revealHash)))%max */\n          tag_51\n          swap2\n          swap1\n          tag_52\n          jump\t// in\n        tag_51:\n            /* \"CommitReveal.sol\":1614:1687  uint random = uint(keccak256(abi.encodePacked(blockHash,revealHash)))%max */\n          swap1\n          pop\n            /* \"CommitReveal.sol\":1698:1738  RevealHash(msg.sender,revealHash,random) */\n          0xbc016dd1cadeaefcb851af7a0a93532e0023d536894b730801f7bcfe7065bcc2\n            /* \"CommitReveal.sol\":1709:1719  msg.sender */\n          caller\n            /* \"CommitReveal.sol\":1720:1730  revealHash */\n          dup5\n            /* \"CommitReveal.sol\":1731:1737  random */\n          dup4\n            /* \"CommitReveal.sol\":1698:1738  RevealHash(msg.sender,revealHash,random) */\n          mload(0x40)\n          tag_53\n          swap4\n          swap3\n          swap2\n          swap1\n          tag_54\n          jump\t// in\n        tag_53:\n          mload(0x40)\n          dup1\n          swap2\n          sub\n          swap1\n          log1\n            /* \"CommitReveal.sol\":637:1743  {... */\n          pop\n          pop\n            /* \"CommitReveal.sol\":594:1743  function reveal(bytes32 revealHash) public {... */\n          pop\n          jump\t// out\n            /* \"CommitReveal.sol\":204:246  mapping (address => Commit) public commits */\n        tag_24:\n          mstore(0x20, 0x01)\n          dup1\n          0x00\n          mstore\n          keccak256(0x00, 0x40)\n          0x00\n          swap2\n          pop\n          swap1\n          pop\n          dup1\n          0x00\n          add\n          sload\n          swap1\n          dup1\n          0x01\n          add\n          0x00\n          swap1\n          sload\n          swap1\n          0x0100\n          exp\n          swap1\n          div\n          0xffffffffffffffff\n          and\n          swap1\n          dup1\n          0x01\n          add\n          0x08\n          swap1\n          sload\n          swap1\n          0x0100\n          exp\n          swap1\n          div\n          0xff\n          and\n          swap1\n          pop\n          dup4\n          jump\t// out\n            /* \"CommitReveal.sol\":251:522  function commit(bytes32 dataHash) public {... */\n        tag_29:\n            /* \"CommitReveal.sol\":327:335  dataHash */\n          dup1\n            /* \"CommitReveal.sol\":298:305  commits */\n          0x01\n            /* \"CommitReveal.sol\":298:317  commits[msg.sender] */\n          0x00\n            /* \"CommitReveal.sol\":306:316  msg.sender */\n          caller\n            /* \"CommitReveal.sol\":298:317  commits[msg.sender] */\n          0xffffffffffffffffffffffffffffffffffffffff\n          and\n          0xffffffffffffffffffffffffffffffffffffffff\n          and\n          dup2\n          mstore\n          0x20\n          add\n          swap1\n          dup2\n          mstore\n          0x20\n          add\n          0x00\n          keccak256\n            /* \"CommitReveal.sol\":298:324  commits[msg.sender].commit */\n          0x00\n          add\n            /* \"CommitReveal.sol\":298:335  commits[msg.sender].commit = dataHash */\n          dup2\n          swap1\n          sstore\n          pop\n            /* \"CommitReveal.sol\":376:388  block.number */\n          number\n            /* \"CommitReveal.sol\":341:348  commits */\n          0x01\n            /* \"CommitReveal.sol\":341:360  commits[msg.sender] */\n          0x00\n            /* \"CommitReveal.sol\":349:359  msg.sender */\n          caller\n            /* \"CommitReveal.sol\":341:360  commits[msg.sender] */\n          0xffffffffffffffffffffffffffffffffffffffff\n          and\n          0xffffffffffffffffffffffffffffffffffffffff\n          and\n          dup2\n          mstore\n          0x20\n          add\n          swap1\n          dup2\n          mstore\n          0x20\n          add\n          0x00\n          keccak256\n            /* \"CommitReveal.sol\":341:366  commits[msg.sender].block */\n          0x01\n          add\n          0x00\n            /* \"CommitReveal.sol\":341:389  commits[msg.sender].block = uint64(block.number) */\n          0x0100\n          exp\n          dup2\n          sload\n          dup2\n          0xffffffffffffffff\n          mul\n          not\n          and\n          swap1\n          dup4\n          0xffffffffffffffff\n          and\n          mul\n          or\n          swap1\n          sstore\n          pop\n            /* \"CommitReveal.sol\":426:431  false */\n          0x00\n            /* \"CommitReveal.sol\":395:402  commits */\n          0x01\n            /* \"CommitReveal.sol\":395:414  commits[msg.sender] */\n          0x00\n            /* \"CommitReveal.sol\":403:413  msg.sender */\n          caller\n            /* \"CommitReveal.sol\":395:414  commits[msg.sender] */\n          0xffffffffffffffffffffffffffffffffffffffff\n          and\n          0xffffffffffffffffffffffffffffffffffffffff\n          and\n          dup2\n          mstore\n          0x20\n          add\n          swap1\n          dup2\n          mstore\n          0x20\n          add\n          0x00\n          keccak256\n            /* \"CommitReveal.sol\":395:423  commits[msg.sender].revealed */\n          0x01\n          add\n          0x08\n            /* \"CommitReveal.sol\":395:431  commits[msg.sender].revealed = false */\n          0x0100\n          exp\n          dup2\n          sload\n          dup2\n          0xff\n          mul\n          not\n          and\n          swap1\n          dup4\n          iszero\n          iszero\n          mul\n          or\n          swap1\n          sstore\n          pop\n            /* \"CommitReveal.sol\":442:517  CommitHash(msg.sender,commits[msg.sender].commit,commits[msg.sender].block) */\n          0x3c1a1f8f38335b17f751c6da4ba7d1865f26b3997535176f5080de9fad891603\n            /* \"CommitReveal.sol\":453:463  msg.sender */\n          caller\n            /* \"CommitReveal.sol\":464:471  commits */\n          0x01\n            /* \"CommitReveal.sol\":464:483  commits[msg.sender] */\n          0x00\n            /* \"CommitReveal.sol\":472:482  msg.sender */\n          caller\n            /* \"CommitReveal.sol\":464:483  commits[msg.sender] */\n          0xffffffffffffffffffffffffffffffffffffffff\n          and\n          0xffffffffffffffffffffffffffffffffffffffff\n          and\n          dup2\n          mstore\n          0x20\n          add\n          swap1\n          dup2\n          mstore\n          0x20\n          add\n          0x00\n          keccak256\n            /* \"CommitReveal.sol\":464:490  commits[msg.sender].commit */\n          0x00\n          add\n          sload\n            /* \"CommitReveal.sol\":491:498  commits */\n          0x01\n            /* \"CommitReveal.sol\":491:510  commits[msg.sender] */\n          0x00\n            /* \"CommitReveal.sol\":499:509  msg.sender */\n          caller\n            /* \"CommitReveal.sol\":491:510  commits[msg.sender] */\n          0xffffffffffffffffffffffffffffffffffffffff\n          and\n          0xffffffffffffffffffffffffffffffffffffffff\n          and\n          dup2\n          mstore\n          0x20\n          add\n          swap1\n          dup2\n          mstore\n          0x20\n          add\n          0x00\n          keccak256\n            /* \"CommitReveal.sol\":491:516  commits[msg.sender].block */\n          0x01\n          add\n          0x00\n          swap1\n          sload\n          swap1\n          0x0100\n          exp\n          swap1\n          div\n          0xffffffffffffffff\n          and\n            /* \"CommitReveal.sol\":442:517  CommitHash(msg.sender,commits[msg.sender].commit,commits[msg.sender].block) */\n          mload(0x40)\n          tag_56\n          swap4\n          swap3\n          swap2\n          swap1\n          tag_57\n          jump\t// in\n        tag_56:\n          mload(0x40)\n          dup1\n          swap2\n          sub\n          swap1\n          log1\n            /* \"CommitReveal.sol\":251:522  function commit(bytes32 dataHash) public {... */\n          pop\n          jump\t// out\n            /* \"#utility.yul\":88:205   */\n        tag_59:\n            /* \"#utility.yul\":197:198   */\n          0x00\n            /* \"#utility.yul\":194:195   */\n          dup1\n            /* \"#utility.yul\":187:199   */\n          revert\n            /* \"#utility.yul\":334:411   */\n        tag_61:\n            /* \"#utility.yul\":371:378   */\n          0x00\n            /* \"#utility.yul\":400:405   */\n          dup2\n            /* \"#utility.yul\":389:405   */\n          swap1\n          pop\n            /* \"#utility.yul\":334:411   */\n          swap2\n          swap1\n          pop\n          jump\t// out\n            /* \"#utility.yul\":417:539   */\n        tag_62:\n            /* \"#utility.yul\":490:514   */\n          tag_97\n            /* \"#utility.yul\":508:513   */\n          dup2\n            /* \"#utility.yul\":490:514   */\n          tag_61\n          jump\t// in\n        tag_97:\n            /* \"#utility.yul\":483:488   */\n          dup2\n            /* \"#utility.yul\":480:515   */\n          eq\n            /* \"#utility.yul\":470:533   */\n          tag_98\n          jumpi\n            /* \"#utility.yul\":529:530   */\n          0x00\n            /* \"#utility.yul\":526:527   */\n          dup1\n            /* \"#utility.yul\":519:531   */\n          revert\n            /* \"#utility.yul\":470:533   */\n        tag_98:\n            /* \"#utility.yul\":417:539   */\n          pop\n          jump\t// out\n            /* \"#utility.yul\":545:684   */\n        tag_63:\n            /* \"#utility.yul\":591:596   */\n          0x00\n            /* \"#utility.yul\":629:635   */\n          dup2\n            /* \"#utility.yul\":616:636   */\n          calldataload\n            /* \"#utility.yul\":607:636   */\n          swap1\n          pop\n            /* \"#utility.yul\":645:678   */\n          tag_100\n            /* \"#utility.yul\":672:677   */\n          dup2\n            /* \"#utility.yul\":645:678   */\n          tag_62\n          jump\t// in\n        tag_100:\n            /* \"#utility.yul\":545:684   */\n          swap3\n          swap2\n          pop\n          pop\n          jump\t// out\n            /* \"#utility.yul\":690:1019   */\n        tag_10:\n            /* \"#utility.yul\":749:755   */\n          0x00\n            /* \"#utility.yul\":798:800   */\n          0x20\n            /* \"#utility.yul\":786:795   */\n          dup3\n            /* \"#utility.yul\":777:784   */\n          dup5\n            /* \"#utility.yul\":773:796   */\n          sub\n            /* \"#utility.yul\":769:801   */\n          slt\n            /* \"#utility.yul\":766:885   */\n          iszero\n          tag_102\n          jumpi\n            /* \"#utility.yul\":804:883   */\n          tag_103\n          tag_59\n          jump\t// in\n        tag_103:\n            /* \"#utility.yul\":766:885   */\n        tag_102:\n            /* \"#utility.yul\":924:925   */\n          0x00\n            /* \"#utility.yul\":949:1002   */\n          tag_104\n            /* \"#utility.yul\":994:1001   */\n          dup5\n            /* \"#utility.yul\":985:991   */\n          dup3\n            /* \"#utility.yul\":974:983   */\n          dup6\n            /* \"#utility.yul\":970:992   */\n          add\n            /* \"#utility.yul\":949:1002   */\n          tag_63\n          jump\t// in\n        tag_104:\n            /* \"#utility.yul\":939:1002   */\n          swap2\n          pop\n            /* \"#utility.yul\":895:1012   */\n          pop\n            /* \"#utility.yul\":690:1019   */\n          swap3\n          swap2\n          pop\n          pop\n          jump\t// out\n            /* \"#utility.yul\":1025:1143   */\n        tag_64:\n            /* \"#utility.yul\":1112:1136   */\n          tag_106\n            /* \"#utility.yul\":1130:1135   */\n          dup2\n            /* \"#utility.yul\":1112:1136   */\n          tag_61\n          jump\t// in\n        tag_106:\n            /* \"#utility.yul\":1107:1110   */\n          dup3\n            /* \"#utility.yul\":1100:1137   */\n          mstore\n            /* \"#utility.yul\":1025:1143   */\n          pop\n          pop\n          jump\t// out\n            /* \"#utility.yul\":1149:1371   */\n        tag_13:\n            /* \"#utility.yul\":1242:1246   */\n          0x00\n            /* \"#utility.yul\":1280:1282   */\n          0x20\n            /* \"#utility.yul\":1269:1278   */\n          dup3\n            /* \"#utility.yul\":1265:1283   */\n          add\n            /* \"#utility.yul\":1257:1283   */\n          swap1\n          pop\n            /* \"#utility.yul\":1293:1364   */\n          tag_108\n            /* \"#utility.yul\":1361:1362   */\n          0x00\n            /* \"#utility.yul\":1350:1359   */\n          dup4\n            /* \"#utility.yul\":1346:1363   */\n          add\n            /* \"#utility.yul\":1337:1343   */\n          dup5\n            /* \"#utility.yul\":1293:1364   */\n          tag_64\n          jump\t// in\n        tag_108:\n            /* \"#utility.yul\":1149:1371   */\n          swap3\n          swap2\n          pop\n          pop\n          jump\t// out\n            /* \"#utility.yul\":1377:1463   */\n        tag_65:\n            /* \"#utility.yul\":1412:1419   */\n          0x00\n            /* \"#utility.yul\":1452:1456   */\n          0xff\n            /* \"#utility.yul\":1445:1450   */\n          dup3\n            /* \"#utility.yul\":1441:1457   */\n          and\n            /* \"#utility.yul\":1430:1457   */\n          swap1\n          pop\n            /* \"#utility.yul\":1377:1463   */\n          swap2\n          swap1\n          pop\n          jump\t// out\n            /* \"#utility.yul\":1469:1581   */\n        tag_66:\n            /* \"#utility.yul\":1552:1574   */\n          tag_111\n            /* \"#utility.yul\":1568:1573   */\n          dup2\n            /* \"#utility.yul\":1552:1574   */\n          tag_65\n          jump\t// in\n        tag_111:\n            /* \"#utility.yul\":1547:1550   */\n          dup3\n            /* \"#utility.yul\":1540:1575   */\n          mstore\n            /* \"#utility.yul\":1469:1581   */\n          pop\n          pop\n          jump\t// out\n            /* \"#utility.yul\":1587:1801   */\n        tag_17:\n            /* \"#utility.yul\":1676:1680   */\n          0x00\n            /* \"#utility.yul\":1714:1716   */\n          0x20\n            /* \"#utility.yul\":1703:1712   */\n          dup3\n            /* \"#utility.yul\":1699:1717   */\n          add\n            /* \"#utility.yul\":1691:1717   */\n          swap1\n          pop\n            /* \"#utility.yul\":1727:1794   */\n          tag_113\n            /* \"#utility.yul\":1791:1792   */\n          0x00\n            /* \"#utility.yul\":1780:1789   */\n          dup4\n            /* \"#utility.yul\":1776:1793   */\n          add\n            /* \"#utility.yul\":1767:1773   */\n          dup5\n            /* \"#utility.yul\":1727:1794   */\n          tag_66\n          jump\t// in\n        tag_113:\n            /* \"#utility.yul\":1587:1801   */\n          swap3\n          swap2\n          pop\n          pop\n          jump\t// out\n            /* \"#utility.yul\":1807:1933   */\n        tag_67:\n            /* \"#utility.yul\":1844:1851   */\n          0x00\n            /* \"#utility.yul\":1884:1926   */\n          0xffffffffffffffffffffffffffffffffffffffff\n            /* \"#utility.yul\":1877:1882   */\n          dup3\n            /* \"#utility.yul\":1873:1927   */\n          and\n            /* \"#utility.yul\":1862:1927   */\n          swap1\n          pop\n            /* \"#utility.yul\":1807:1933   */\n          swap2\n          swap1\n          pop\n          jump\t// out\n            /* \"#utility.yul\":1939:2035   */\n        tag_68:\n            /* \"#utility.yul\":1976:1983   */\n          0x00\n            /* \"#utility.yul\":2005:2029   */\n          tag_116\n            /* \"#utility.yul\":2023:2028   */\n          dup3\n            /* \"#utility.yul\":2005:2029   */\n          tag_67\n          jump\t// in\n        tag_116:\n            /* \"#utility.yul\":1994:2029   */\n          swap1\n          pop\n            /* \"#utility.yul\":1939:2035   */\n          swap2\n          swap1\n          pop\n          jump\t// out\n            /* \"#utility.yul\":2041:2163   */\n        tag_69:\n            /* \"#utility.yul\":2114:2138   */\n          tag_118\n            /* \"#utility.yul\":2132:2137   */\n          dup2\n            /* \"#utility.yul\":2114:2138   */\n          tag_68\n          jump\t// in\n        tag_118:\n            /* \"#utility.yul\":2107:2112   */\n          dup2\n            /* \"#utility.yul\":2104:2139   */\n          eq\n            /* \"#utility.yul\":2094:2157   */\n          tag_119\n          jumpi\n            /* \"#utility.yul\":2153:2154   */\n          0x00\n            /* \"#utility.yul\":2150:2151   */\n          dup1\n            /* \"#utility.yul\":2143:2155   */\n          revert\n            /* \"#utility.yul\":2094:2157   */\n        tag_119:\n            /* \"#utility.yul\":2041:2163   */\n          pop\n          jump\t// out\n            /* \"#utility.yul\":2169:2308   */\n        tag_70:\n            /* \"#utility.yul\":2215:2220   */\n          0x00\n            /* \"#utility.yul\":2253:2259   */\n          dup2\n            /* \"#utility.yul\":2240:2260   */\n          calldataload\n            /* \"#utility.yul\":2231:2260   */\n          swap1\n          pop\n            /* \"#utility.yul\":2269:2302   */\n          tag_121\n            /* \"#utility.yul\":2296:2301   */\n          dup2\n            /* \"#utility.yul\":2269:2302   */\n          tag_69\n          jump\t// in\n        tag_121:\n            /* \"#utility.yul\":2169:2308   */\n          swap3\n          swap2\n          pop\n          pop\n          jump\t// out\n            /* \"#utility.yul\":2314:2643   */\n        tag_23:\n            /* \"#utility.yul\":2373:2379   */\n          0x00\n            /* \"#utility.yul\":2422:2424   */\n          0x20\n            /* \"#utility.yul\":2410:2419   */\n          dup3\n            /* \"#utility.yul\":2401:2408   */\n          dup5\n            /* \"#utility.yul\":2397:2420   */\n          sub\n            /* \"#utility.yul\":2393:2425   */\n          slt\n            /* \"#utility.yul\":2390:2509   */\n          iszero\n          tag_123\n          jumpi\n            /* \"#utility.yul\":2428:2507   */\n          tag_124\n          tag_59\n          jump\t// in\n        tag_124:\n            /* \"#utility.yul\":2390:2509   */\n        tag_123:\n            /* \"#utility.yul\":2548:2549   */\n          0x00\n            /* \"#utility.yul\":2573:2626   */\n          tag_125\n            /* \"#utility.yul\":2618:2625   */\n          dup5\n            /* \"#utility.yul\":2609:2615   */\n          dup3\n            /* \"#utility.yul\":2598:2607   */\n          dup6\n            /* \"#utility.yul\":2594:2616   */\n          add\n            /* \"#utility.yul\":2573:2626   */\n          tag_70\n          jump\t// in\n        tag_125:\n            /* \"#utility.yul\":2563:2626   */\n          swap2\n          pop\n            /* \"#utility.yul\":2519:2636   */\n          pop\n            /* \"#utility.yul\":2314:2643   */\n          swap3\n          swap2\n          pop\n          pop\n          jump\t// out\n            /* \"#utility.yul\":2649:2750   */\n        tag_71:\n            /* \"#utility.yul\":2685:2692   */\n          0x00\n            /* \"#utility.yul\":2725:2743   */\n          0xffffffffffffffff\n            /* \"#utility.yul\":2718:2723   */\n          dup3\n            /* \"#utility.yul\":2714:2744   */\n          and\n            /* \"#utility.yul\":2703:2744   */\n          swap1\n          pop\n            /* \"#utility.yul\":2649:2750   */\n          swap2\n          swap1\n          pop\n          jump\t// out\n            /* \"#utility.yul\":2756:2871   */\n        tag_72:\n            /* \"#utility.yul\":2841:2864   */\n          tag_128\n            /* \"#utility.yul\":2858:2863   */\n          dup2\n            /* \"#utility.yul\":2841:2864   */\n          tag_71\n          jump\t// in\n        tag_128:\n            /* \"#utility.yul\":2836:2839   */\n          dup3\n            /* \"#utility.yul\":2829:2865   */\n          mstore\n            /* \"#utility.yul\":2756:2871   */\n          pop\n          pop\n          jump\t// out\n            /* \"#utility.yul\":2877:2967   */\n        tag_73:\n            /* \"#utility.yul\":2911:2918   */\n          0x00\n            /* \"#utility.yul\":2954:2959   */\n          dup2\n            /* \"#utility.yul\":2947:2960   */\n          iszero\n            /* \"#utility.yul\":2940:2961   */\n          iszero\n            /* \"#utility.yul\":2929:2961   */\n          swap1\n          pop\n            /* \"#utility.yul\":2877:2967   */\n          swap2\n          swap1\n          pop\n          jump\t// out\n            /* \"#utility.yul\":2973:3082   */\n        tag_74:\n            /* \"#utility.yul\":3054:3075   */\n          tag_131\n            /* \"#utility.yul\":3069:3074   */\n          dup2\n            /* \"#utility.yul\":3054:3075   */\n          tag_73\n          jump\t// in\n        tag_131:\n            /* \"#utility.yul\":3049:3052   */\n          dup3\n            /* \"#utility.yul\":3042:3076   */\n          mstore\n            /* \"#utility.yul\":2973:3082   */\n          pop\n          pop\n          jump\t// out\n            /* \"#utility.yul\":3088:3514   */\n        tag_26:\n            /* \"#utility.yul\":3229:3233   */\n          0x00\n            /* \"#utility.yul\":3267:3269   */\n          0x60\n            /* \"#utility.yul\":3256:3265   */\n          dup3\n            /* \"#utility.yul\":3252:3270   */\n          add\n            /* \"#utility.yul\":3244:3270   */\n          swap1\n          pop\n            /* \"#utility.yul\":3280:3351   */\n          tag_133\n            /* \"#utility.yul\":3348:3349   */\n          0x00\n            /* \"#utility.yul\":3337:3346   */\n          dup4\n            /* \"#utility.yul\":3333:3350   */\n          add\n            /* \"#utility.yul\":3324:3330   */\n          dup7\n            /* \"#utility.yul\":3280:3351   */\n          tag_64\n          jump\t// in\n        tag_133:\n            /* \"#utility.yul\":3361:3431   */\n          tag_134\n            /* \"#utility.yul\":3427:3429   */\n          0x20\n            /* \"#utility.yul\":3416:3425   */\n          dup4\n            /* \"#utility.yul\":3412:3430   */\n          add\n            /* \"#utility.yul\":3403:3409   */\n          dup6\n            /* \"#utility.yul\":3361:3431   */\n          tag_72\n          jump\t// in\n        tag_134:\n            /* \"#utility.yul\":3441:3507   */\n          tag_135\n            /* \"#utility.yul\":3503:3505   */\n          0x40\n            /* \"#utility.yul\":3492:3501   */\n          dup4\n            /* \"#utility.yul\":3488:3506   */\n          add\n            /* \"#utility.yul\":3479:3485   */\n          dup5\n            /* \"#utility.yul\":3441:3507   */\n          tag_74\n          jump\t// in\n        tag_135:\n            /* \"#utility.yul\":3088:3514   */\n          swap5\n          swap4\n          pop\n          pop\n          pop\n          pop\n          jump\t// out\n            /* \"#utility.yul\":3520:3599   */\n        tag_75:\n            /* \"#utility.yul\":3559:3566   */\n          0x00\n            /* \"#utility.yul\":3588:3593   */\n          dup2\n            /* \"#utility.yul\":3577:3593   */\n          swap1\n          pop\n            /* \"#utility.yul\":3520:3599   */\n          swap2\n          swap1\n          pop\n          jump\t// out\n            /* \"#utility.yul\":3605:3762   */\n        tag_76:\n            /* \"#utility.yul\":3710:3755   */\n          tag_138\n            /* \"#utility.yul\":3730:3754   */\n          tag_139\n            /* \"#utility.yul\":3748:3753   */\n          dup3\n            /* \"#utility.yul\":3730:3754   */\n          tag_61\n          jump\t// in\n        tag_139:\n            /* \"#utility.yul\":3710:3755   */\n          tag_75\n          jump\t// in\n        tag_138:\n            /* \"#utility.yul\":3705:3708   */\n          dup3\n            /* \"#utility.yul\":3698:3756   */\n          mstore\n            /* \"#utility.yul\":3605:3762   */\n          pop\n          pop\n          jump\t// out\n            /* \"#utility.yul\":3768:4024   */\n        tag_32:\n            /* \"#utility.yul\":3880:3883   */\n          0x00\n            /* \"#utility.yul\":3895:3970   */\n          tag_141\n            /* \"#utility.yul\":3966:3969   */\n          dup3\n            /* \"#utility.yul\":3957:3963   */\n          dup5\n            /* \"#utility.yul\":3895:3970   */\n          tag_76\n          jump\t// in\n        tag_141:\n            /* \"#utility.yul\":3995:3997   */\n          0x20\n            /* \"#utility.yul\":3990:3993   */\n          dup3\n            /* \"#utility.yul\":3986:3998   */\n          add\n            /* \"#utility.yul\":3979:3998   */\n          swap2\n          pop\n            /* \"#utility.yul\":4015:4018   */\n          dup2\n            /* \"#utility.yul\":4008:4018   */\n          swap1\n          pop\n            /* \"#utility.yul\":3768:4024   */\n          swap3\n          swap2\n          pop\n          pop\n          jump\t// out\n            /* \"#utility.yul\":4030:4199   */\n        tag_77:\n            /* \"#utility.yul\":4114:4125   */\n          0x00\n            /* \"#utility.yul\":4148:4154   */\n          dup3\n            /* \"#utility.yul\":4143:4146   */\n          dup3\n            /* \"#utility.yul\":4136:4155   */\n          mstore\n            /* \"#utility.yul\":4188:4192   */\n          0x20\n            /* \"#utility.yul\":4183:4186   */\n          dup3\n            /* \"#utility.yul\":4179:4193   */\n          add\n            /* \"#utility.yul\":4164:4193   */\n          swap1\n          pop\n            /* \"#utility.yul\":4030:4199   */\n          swap3\n          swap2\n          pop\n          pop\n          jump\t// out\n            /* \"#utility.yul\":4205:4430   */\n        tag_78:\n            /* \"#utility.yul\":4345:4379   */\n          0x436f6d6d697452657665616c3a3a72657665616c3a20416c7265616479207265\n            /* \"#utility.yul\":4341:4342   */\n          0x00\n            /* \"#utility.yul\":4333:4339   */\n          dup3\n            /* \"#utility.yul\":4329:4343   */\n          add\n            /* \"#utility.yul\":4322:4380   */\n          mstore\n            /* \"#utility.yul\":4414:4422   */\n          0x7665616c65640000000000000000000000000000000000000000000000000000\n            /* \"#utility.yul\":4409:4411   */\n          0x20\n            /* \"#utility.yul\":4401:4407   */\n          dup3\n            /* \"#utility.yul\":4397:4412   */\n          add\n            /* \"#utility.yul\":4390:4423   */\n          mstore\n            /* \"#utility.yul\":4205:4430   */\n          pop\n          jump\t// out\n            /* \"#utility.yul\":4436:4802   */\n        tag_79:\n            /* \"#utility.yul\":4578:4581   */\n          0x00\n            /* \"#utility.yul\":4599:4666   */\n          tag_145\n            /* \"#utility.yul\":4663:4665   */\n          0x26\n            /* \"#utility.yul\":4658:4661   */\n          dup4\n            /* \"#utility.yul\":4599:4666   */\n          tag_77\n          jump\t// in\n        tag_145:\n            /* \"#utility.yul\":4592:4666   */\n          swap2\n          pop\n            /* \"#utility.yul\":4675:4768   */\n          tag_146\n            /* \"#utility.yul\":4764:4767   */\n          dup3\n            /* \"#utility.yul\":4675:4768   */\n          tag_78\n          jump\t// in\n        tag_146:\n            /* \"#utility.yul\":4793:4795   */\n          0x40\n            /* \"#utility.yul\":4788:4791   */\n          dup3\n            /* \"#utility.yul\":4784:4796   */\n          add\n            /* \"#utility.yul\":4777:4796   */\n          swap1\n          pop\n            /* \"#utility.yul\":4436:4802   */\n          swap2\n          swap1\n          pop\n          jump\t// out\n            /* \"#utility.yul\":4808:5227   */\n        tag_36:\n            /* \"#utility.yul\":4974:4978   */\n          0x00\n            /* \"#utility.yul\":5012:5014   */\n          0x20\n            /* \"#utility.yul\":5001:5010   */\n          dup3\n            /* \"#utility.yul\":4997:5015   */\n          add\n            /* \"#utility.yul\":4989:5015   */\n          swap1\n          pop\n            /* \"#utility.yul\":5061:5070   */\n          dup2\n            /* \"#utility.yul\":5055:5059   */\n          dup2\n            /* \"#utility.yul\":5051:5071   */\n          sub\n            /* \"#utility.yul\":5047:5048   */\n          0x00\n            /* \"#utility.yul\":5036:5045   */\n          dup4\n            /* \"#utility.yul\":5032:5049   */\n          add\n            /* \"#utility.yul\":5025:5072   */\n          mstore\n            /* \"#utility.yul\":5089:5220   */\n          tag_148\n            /* \"#utility.yul\":5215:5219   */\n          dup2\n            /* \"#utility.yul\":5089:5220   */\n          tag_79\n          jump\t// in\n        tag_148:\n            /* \"#utility.yul\":5081:5220   */\n          swap1\n          pop\n            /* \"#utility.yul\":4808:5227   */\n          swap2\n          swap1\n          pop\n          jump\t// out\n            /* \"#utility.yul\":5233:5477   */\n        tag_80:\n            /* \"#utility.yul\":5373:5407   */\n          0x436f6d6d697452657665616c3a3a72657665616c3a2052657665616c65642068\n            /* \"#utility.yul\":5369:5370   */\n          0x00\n            /* \"#utility.yul\":5361:5367   */\n          dup3\n            /* \"#utility.yul\":5357:5371   */\n          add\n            /* \"#utility.yul\":5350:5408   */\n          mstore\n            /* \"#utility.yul\":5442:5469   */\n          0x61736820646f6573206e6f74206d6174636820636f6d6d697400000000000000\n            /* \"#utility.yul\":5437:5439   */\n          0x20\n            /* \"#utility.yul\":5429:5435   */\n          dup3\n            /* \"#utility.yul\":5425:5440   */\n          add\n            /* \"#utility.yul\":5418:5470   */\n          mstore\n            /* \"#utility.yul\":5233:5477   */\n          pop\n          jump\t// out\n            /* \"#utility.yul\":5483:5849   */\n        tag_81:\n            /* \"#utility.yul\":5625:5628   */\n          0x00\n            /* \"#utility.yul\":5646:5713   */\n          tag_151\n            /* \"#utility.yul\":5710:5712   */\n          0x39\n            /* \"#utility.yul\":5705:5708   */\n          dup4\n            /* \"#utility.yul\":5646:5713   */\n          tag_77\n          jump\t// in\n        tag_151:\n            /* \"#utility.yul\":5639:5713   */\n          swap2\n          pop\n            /* \"#utility.yul\":5722:5815   */\n          tag_152\n            /* \"#utility.yul\":5811:5814   */\n          dup3\n            /* \"#utility.yul\":5722:5815   */\n          tag_80\n          jump\t// in\n        tag_152:\n            /* \"#utility.yul\":5840:5842   */\n          0x40\n            /* \"#utility.yul\":5835:5838   */\n          dup3\n            /* \"#utility.yul\":5831:5843   */\n          add\n            /* \"#utility.yul\":5824:5843   */\n          swap1\n          pop\n            /* \"#utility.yul\":5483:5849   */\n          swap2\n          swap1\n          pop\n          jump\t// out\n            /* \"#utility.yul\":5855:6274   */\n        tag_40:\n            /* \"#utility.yul\":6021:6025   */\n          0x00\n            /* \"#utility.yul\":6059:6061   */\n          0x20\n            /* \"#utility.yul\":6048:6057   */\n          dup3\n            /* \"#utility.yul\":6044:6062   */\n          add\n            /* \"#utility.yul\":6036:6062   */\n          swap1\n          pop\n            /* \"#utility.yul\":6108:6117   */\n          dup2\n            /* \"#utility.yul\":6102:6106   */\n          dup2\n            /* \"#utility.yul\":6098:6118   */\n          sub\n            /* \"#utility.yul\":6094:6095   */\n          0x00\n            /* \"#utility.yul\":6083:6092   */\n          dup4\n            /* \"#utility.yul\":6079:6096   */\n          add\n            /* \"#utility.yul\":6072:6119   */\n          mstore\n            /* \"#utility.yul\":6136:6267   */\n          tag_154\n            /* \"#utility.yul\":6262:6266   */\n          dup2\n            /* \"#utility.yul\":6136:6267   */\n          tag_81\n          jump\t// in\n        tag_154:\n            /* \"#utility.yul\":6128:6267   */\n          swap1\n          pop\n            /* \"#utility.yul\":5855:6274   */\n          swap2\n          swap1\n          pop\n          jump\t// out\n            /* \"#utility.yul\":6280:6570   */\n        tag_82:\n            /* \"#utility.yul\":6420:6454   */\n          0x436f6d6d697452657665616c3a3a72657665616c3a2052657665616c20616e64\n            /* \"#utility.yul\":6416:6417   */\n          0x00\n            /* \"#utility.yul\":6408:6414   */\n          dup3\n            /* \"#utility.yul\":6404:6418   */\n          add\n            /* \"#utility.yul\":6397:6455   */\n          mstore\n            /* \"#utility.yul\":6489:6523   */\n          0x20636f6d6d69742068617070656e6564206f6e207468652073616d6520626c6f\n            /* \"#utility.yul\":6484:6486   */\n          0x20\n            /* \"#utility.yul\":6476:6482   */\n          dup3\n            /* \"#utility.yul\":6472:6487   */\n          add\n            /* \"#utility.yul\":6465:6524   */\n          mstore\n            /* \"#utility.yul\":6558:6562   */\n          0x636b000000000000000000000000000000000000000000000000000000000000\n            /* \"#utility.yul\":6553:6555   */\n          0x40\n            /* \"#utility.yul\":6545:6551   */\n          dup3\n            /* \"#utility.yul\":6541:6556   */\n          add\n            /* \"#utility.yul\":6534:6563   */\n          mstore\n            /* \"#utility.yul\":6280:6570   */\n          pop\n          jump\t// out\n            /* \"#utility.yul\":6576:6942   */\n        tag_83:\n            /* \"#utility.yul\":6718:6721   */\n          0x00\n            /* \"#utility.yul\":6739:6806   */\n          tag_157\n            /* \"#utility.yul\":6803:6805   */\n          0x42\n            /* \"#utility.yul\":6798:6801   */\n          dup4\n            /* \"#utility.yul\":6739:6806   */\n          tag_77\n          jump\t// in\n        tag_157:\n            /* \"#utility.yul\":6732:6806   */\n          swap2\n          pop\n            /* \"#utility.yul\":6815:6908   */\n          tag_158\n            /* \"#utility.yul\":6904:6907   */\n          dup3\n            /* \"#utility.yul\":6815:6908   */\n          tag_82\n          jump\t// in\n        tag_158:\n            /* \"#utility.yul\":6933:6935   */\n          0x60\n            /* \"#utility.yul\":6928:6931   */\n          dup3\n            /* \"#utility.yul\":6924:6936   */\n          add\n            /* \"#utility.yul\":6917:6936   */\n          swap1\n          pop\n            /* \"#utility.yul\":6576:6942   */\n          swap2\n          swap1\n          pop\n          jump\t// out\n            /* \"#utility.yul\":6948:7367   */\n        tag_43:\n            /* \"#utility.yul\":7114:7118   */\n          0x00\n            /* \"#utility.yul\":7152:7154   */\n          0x20\n            /* \"#utility.yul\":7141:7150   */\n          dup3\n            /* \"#utility.yul\":7137:7155   */\n          add\n            /* \"#utility.yul\":7129:7155   */\n          swap1\n          pop\n            /* \"#utility.yul\":7201:7210   */\n          dup2\n            /* \"#utility.yul\":7195:7199   */\n          dup2\n            /* \"#utility.yul\":7191:7211   */\n          sub\n            /* \"#utility.yul\":7187:7188   */\n          0x00\n            /* \"#utility.yul\":7176:7185   */\n          dup4\n            /* \"#utility.yul\":7172:7189   */\n          add\n            /* \"#utility.yul\":7165:7212   */\n          mstore\n            /* \"#utility.yul\":7229:7360   */\n          tag_160\n            /* \"#utility.yul\":7355:7359   */\n          dup2\n            /* \"#utility.yul\":7229:7360   */\n          tag_83\n          jump\t// in\n        tag_160:\n            /* \"#utility.yul\":7221:7360   */\n          swap1\n          pop\n            /* \"#utility.yul\":6948:7367   */\n          swap2\n          swap1\n          pop\n          jump\t// out\n            /* \"#utility.yul\":7373:7553   */\n        tag_84:\n            /* \"#utility.yul\":7421:7498   */\n          0x4e487b7100000000000000000000000000000000000000000000000000000000\n            /* \"#utility.yul\":7418:7419   */\n          0x00\n            /* \"#utility.yul\":7411:7499   */\n          mstore\n            /* \"#utility.yul\":7518:7522   */\n          0x11\n            /* \"#utility.yul\":7515:7516   */\n          0x04\n            /* \"#utility.yul\":7508:7523   */\n          mstore\n            /* \"#utility.yul\":7542:7546   */\n          0x24\n            /* \"#utility.yul\":7539:7540   */\n          0x00\n            /* \"#utility.yul\":7532:7547   */\n          revert\n            /* \"#utility.yul\":7559:7764   */\n        tag_45:\n            /* \"#utility.yul\":7598:7601   */\n          0x00\n            /* \"#utility.yul\":7617:7636   */\n          tag_163\n            /* \"#utility.yul\":7634:7635   */\n          dup3\n            /* \"#utility.yul\":7617:7636   */\n          tag_71\n          jump\t// in\n        tag_163:\n            /* \"#utility.yul\":7612:7636   */\n          swap2\n          pop\n            /* \"#utility.yul\":7650:7669   */\n          tag_164\n            /* \"#utility.yul\":7667:7668   */\n          dup4\n            /* \"#utility.yul\":7650:7669   */\n          tag_71\n          jump\t// in\n        tag_164:\n            /* \"#utility.yul\":7645:7669   */\n          swap3\n          pop\n            /* \"#utility.yul\":7692:7693   */\n          dup3\n            /* \"#utility.yul\":7689:7690   */\n          dup3\n            /* \"#utility.yul\":7685:7694   */\n          add\n            /* \"#utility.yul\":7678:7694   */\n          swap1\n          pop\n            /* \"#utility.yul\":7715:7733   */\n          0xffffffffffffffff\n            /* \"#utility.yul\":7710:7713   */\n          dup2\n            /* \"#utility.yul\":7707:7734   */\n          gt\n            /* \"#utility.yul\":7704:7757   */\n          iszero\n          tag_165\n          jumpi\n            /* \"#utility.yul\":7737:7755   */\n          tag_166\n          tag_84\n          jump\t// in\n        tag_166:\n            /* \"#utility.yul\":7704:7757   */\n        tag_165:\n            /* \"#utility.yul\":7559:7764   */\n          swap3\n          swap2\n          pop\n          pop\n          jump\t// out\n            /* \"#utility.yul\":7770:7996   */\n        tag_85:\n            /* \"#utility.yul\":7910:7944   */\n          0x436f6d6d697452657665616c3a3a72657665616c3a2052657665616c65642074\n            /* \"#utility.yul\":7906:7907   */\n          0x00\n            /* \"#utility.yul\":7898:7904   */\n          dup3\n            /* \"#utility.yul\":7894:7908   */\n          add\n            /* \"#utility.yul\":7887:7945   */\n          mstore\n            /* \"#utility.yul\":7979:7988   */\n          0x6f6f206c61746500000000000000000000000000000000000000000000000000\n            /* \"#utility.yul\":7974:7976   */\n          0x20\n            /* \"#utility.yul\":7966:7972   */\n          dup3\n            /* \"#utility.yul\":7962:7977   */\n          add\n            /* \"#utility.yul\":7955:7989   */\n          mstore\n            /* \"#utility.yul\":7770:7996   */\n          pop\n          jump\t// out\n            /* \"#utility.yul\":8002:8368   */\n        tag_86:\n            /* \"#utility.yul\":8144:8147   */\n          0x00\n            /* \"#utility.yul\":8165:8232   */\n          tag_169\n            /* \"#utility.yul\":8229:8231   */\n          0x27\n            /* \"#utility.yul\":8224:8227   */\n          dup4\n            /* \"#utility.yul\":8165:8232   */\n          tag_77\n          jump\t// in\n        tag_169:\n            /* \"#utility.yul\":8158:8232   */\n          swap2\n          pop\n            /* \"#utility.yul\":8241:8334   */\n          tag_170\n            /* \"#utility.yul\":8330:8333   */\n          dup3\n            /* \"#utility.yul\":8241:8334   */\n          tag_85\n          jump\t// in\n        tag_170:\n            /* \"#utility.yul\":8359:8361   */\n          0x40\n            /* \"#utility.yul\":8354:8357   */\n          dup3\n            /* \"#utility.yul\":8350:8362   */\n          add\n            /* \"#utility.yul\":8343:8362   */\n          swap1\n          pop\n            /* \"#utility.yul\":8002:8368   */\n          swap2\n          swap1\n          pop\n          jump\t// out\n            /* \"#utility.yul\":8374:8793   */\n        tag_48:\n            /* \"#utility.yul\":8540:8544   */\n          0x00\n            /* \"#utility.yul\":8578:8580   */\n          0x20\n            /* \"#utility.yul\":8567:8576   */\n          dup3\n            /* \"#utility.yul\":8563:8581   */\n          add\n            /* \"#utility.yul\":8555:8581   */\n          swap1\n          pop\n            /* \"#utility.yul\":8627:8636   */\n          dup2\n            /* \"#utility.yul\":8621:8625   */\n          dup2\n            /* \"#utility.yul\":8617:8637   */\n          sub\n            /* \"#utility.yul\":8613:8614   */\n          0x00\n            /* \"#utility.yul\":8602:8611   */\n          dup4\n            /* \"#utility.yul\":8598:8615   */\n          add\n            /* \"#utility.yul\":8591:8638   */\n          mstore\n            /* \"#utility.yul\":8655:8786   */\n          tag_172\n            /* \"#utility.yul\":8781:8785   */\n          dup2\n            /* \"#utility.yul\":8655:8786   */\n          tag_86\n          jump\t// in\n        tag_172:\n            /* \"#utility.yul\":8647:8786   */\n          swap1\n          pop\n            /* \"#utility.yul\":8374:8793   */\n          swap2\n          swap1\n          pop\n          jump\t// out\n            /* \"#utility.yul\":8799:9196   */\n        tag_50:\n            /* \"#utility.yul\":8939:8942   */\n          0x00\n            /* \"#utility.yul\":8954:9029   */\n          tag_174\n            /* \"#utility.yul\":9025:9028   */\n          dup3\n            /* \"#utility.yul\":9016:9022   */\n          dup6\n            /* \"#utility.yul\":8954:9029   */\n          tag_76\n          jump\t// in\n        tag_174:\n            /* \"#utility.yul\":9054:9056   */\n          0x20\n            /* \"#utility.yul\":9049:9052   */\n          dup3\n            /* \"#utility.yul\":9045:9057   */\n          add\n            /* \"#utility.yul\":9038:9057   */\n          swap2\n          pop\n            /* \"#utility.yul\":9067:9142   */\n          tag_175\n            /* \"#utility.yul\":9138:9141   */\n          dup3\n            /* \"#utility.yul\":9129:9135   */\n          dup5\n            /* \"#utility.yul\":9067:9142   */\n          tag_76\n          jump\t// in\n        tag_175:\n            /* \"#utility.yul\":9167:9169   */\n          0x20\n            /* \"#utility.yul\":9162:9165   */\n          dup3\n            /* \"#utility.yul\":9158:9170   */\n          add\n            /* \"#utility.yul\":9151:9170   */\n          swap2\n          pop\n            /* \"#utility.yul\":9187:9190   */\n          dup2\n            /* \"#utility.yul\":9180:9190   */\n          swap1\n          pop\n            /* \"#utility.yul\":8799:9196   */\n          swap4\n          swap3\n          pop\n          pop\n          pop\n          jump\t// out\n            /* \"#utility.yul\":9202:9279   */\n        tag_87:\n            /* \"#utility.yul\":9239:9246   */\n          0x00\n            /* \"#utility.yul\":9268:9273   */\n          dup2\n            /* \"#utility.yul\":9257:9273   */\n          swap1\n          pop\n            /* \"#utility.yul\":9202:9279   */\n          swap2\n          swap1\n          pop\n          jump\t// out\n            /* \"#utility.yul\":9285:9465   */\n        tag_88:\n            /* \"#utility.yul\":9333:9410   */\n          0x4e487b7100000000000000000000000000000000000000000000000000000000\n            /* \"#utility.yul\":9330:9331   */\n          0x00\n            /* \"#utility.yul\":9323:9411   */\n          mstore\n            /* \"#utility.yul\":9430:9434   */\n          0x12\n            /* \"#utility.yul\":9427:9428   */\n          0x04\n            /* \"#utility.yul\":9420:9435   */\n          mstore\n            /* \"#utility.yul\":9454:9458   */\n          0x24\n            /* \"#utility.yul\":9451:9452   */\n          0x00\n            /* \"#utility.yul\":9444:9459   */\n          revert\n            /* \"#utility.yul\":9471:9647   */\n        tag_52:\n            /* \"#utility.yul\":9503:9504   */\n          0x00\n            /* \"#utility.yul\":9520:9540   */\n          tag_179\n            /* \"#utility.yul\":9538:9539   */\n          dup3\n            /* \"#utility.yul\":9520:9540   */\n          tag_87\n          jump\t// in\n        tag_179:\n            /* \"#utility.yul\":9515:9540   */\n          swap2\n          pop\n            /* \"#utility.yul\":9554:9574   */\n          tag_180\n            /* \"#utility.yul\":9572:9573   */\n          dup4\n            /* \"#utility.yul\":9554:9574   */\n          tag_87\n          jump\t// in\n        tag_180:\n            /* \"#utility.yul\":9549:9574   */\n          swap3\n          pop\n            /* \"#utility.yul\":9593:9594   */\n          dup3\n            /* \"#utility.yul\":9583:9618   */\n          tag_181\n          jumpi\n            /* \"#utility.yul\":9598:9616   */\n          tag_182\n          tag_88\n          jump\t// in\n        tag_182:\n            /* \"#utility.yul\":9583:9618   */\n        tag_181:\n            /* \"#utility.yul\":9639:9640   */\n          dup3\n            /* \"#utility.yul\":9636:9637   */\n          dup3\n            /* \"#utility.yul\":9632:9641   */\n          mod\n            /* \"#utility.yul\":9627:9641   */\n          swap1\n          pop\n            /* \"#utility.yul\":9471:9647   */\n          swap3\n          swap2\n          pop\n          pop\n          jump\t// out\n            /* \"#utility.yul\":9653:9771   */\n        tag_89:\n            /* \"#utility.yul\":9740:9764   */\n          tag_184\n            /* \"#utility.yul\":9758:9763   */\n          dup2\n            /* \"#utility.yul\":9740:9764   */\n          tag_68\n          jump\t// in\n        tag_184:\n            /* \"#utility.yul\":9735:9738   */\n          dup3\n            /* \"#utility.yul\":9728:9765   */\n          mstore\n            /* \"#utility.yul\":9653:9771   */\n          pop\n          pop\n          jump\t// out\n            /* \"#utility.yul\":9777:9895   */\n        tag_90:\n            /* \"#utility.yul\":9864:9888   */\n          tag_186\n            /* \"#utility.yul\":9882:9887   */\n          dup2\n            /* \"#utility.yul\":9864:9888   */\n          tag_87\n          jump\t// in\n        tag_186:\n            /* \"#utility.yul\":9859:9862   */\n          dup3\n            /* \"#utility.yul\":9852:9889   */\n          mstore\n            /* \"#utility.yul\":9777:9895   */\n          pop\n          pop\n          jump\t// out\n            /* \"#utility.yul\":9901:10343   */\n        tag_54:\n            /* \"#utility.yul\":10050:10054   */\n          0x00\n            /* \"#utility.yul\":10088:10090   */\n          0x60\n            /* \"#utility.yul\":10077:10086   */\n          dup3\n            /* \"#utility.yul\":10073:10091   */\n          add\n            /* \"#utility.yul\":10065:10091   */\n          swap1\n          pop\n            /* \"#utility.yul\":10101:10172   */\n          tag_188\n            /* \"#utility.yul\":10169:10170   */\n          0x00\n            /* \"#utility.yul\":10158:10167   */\n          dup4\n            /* \"#utility.yul\":10154:10171   */\n          add\n            /* \"#utility.yul\":10145:10151   */\n          dup7\n            /* \"#utility.yul\":10101:10172   */\n          tag_89\n          jump\t// in\n        tag_188:\n            /* \"#utility.yul\":10182:10254   */\n          tag_189\n            /* \"#utility.yul\":10250:10252   */\n          0x20\n            /* \"#utility.yul\":10239:10248   */\n          dup4\n            /* \"#utility.yul\":10235:10253   */\n          add\n            /* \"#utility.yul\":10226:10232   */\n          dup6\n            /* \"#utility.yul\":10182:10254   */\n          tag_64\n          jump\t// in\n        tag_189:\n            /* \"#utility.yul\":10264:10336   */\n          tag_190\n            /* \"#utility.yul\":10332:10334   */\n          0x40\n            /* \"#utility.yul\":10321:10330   */\n          dup4\n            /* \"#utility.yul\":10317:10335   */\n          add\n            /* \"#utility.yul\":10308:10314   */\n          dup5\n            /* \"#utility.yul\":10264:10336   */\n          tag_90\n          jump\t// in\n        tag_190:\n            /* \"#utility.yul\":9901:10343   */\n          swap5\n          swap4\n          pop\n          pop\n          pop\n          pop\n          jump\t// out\n            /* \"#utility.yul\":10349:10787   */\n        tag_57:\n            /* \"#utility.yul\":10496:10500   */\n          0x00\n            /* \"#utility.yul\":10534:10536   */\n          0x60\n            /* \"#utility.yul\":10523:10532   */\n          dup3\n            /* \"#utility.yul\":10519:10537   */\n          add\n            /* \"#utility.yul\":10511:10537   */\n          swap1\n          pop\n            /* \"#utility.yul\":10547:10618   */\n          tag_192\n            /* \"#utility.yul\":10615:10616   */\n          0x00\n            /* \"#utility.yul\":10604:10613   */\n          dup4\n            /* \"#utility.yul\":10600:10617   */\n          add\n            /* \"#utility.yul\":10591:10597   */\n          dup7\n            /* \"#utility.yul\":10547:10618   */\n          tag_89\n          jump\t// in\n        tag_192:\n            /* \"#utility.yul\":10628:10700   */\n          tag_193\n            /* \"#utility.yul\":10696:10698   */\n          0x20\n            /* \"#utility.yul\":10685:10694   */\n          dup4\n            /* \"#utility.yul\":10681:10699   */\n          add\n            /* \"#utility.yul\":10672:10678   */\n          dup6\n            /* \"#utility.yul\":10628:10700   */\n          tag_64\n          jump\t// in\n        tag_193:\n            /* \"#utility.yul\":10710:10780   */\n          tag_194\n            /* \"#utility.yul\":10776:10778   */\n          0x40\n            /* \"#utility.yul\":10765:10774   */\n          dup4\n            /* \"#utility.yul\":10761:10779   */\n          add\n            /* \"#utility.yul\":10752:10758   */\n          dup5\n            /* \"#utility.yul\":10710:10780   */\n          tag_72\n          jump\t// in\n        tag_194:\n            /* \"#utility.yul\":10349:10787   */\n          swap5\n          swap4\n          pop\n          pop\n          pop\n          pop\n          jump\t// out\n\n        auxdata: 0xa26469706673582212201eafc90a77e60daf17aa211974ece341ffd58201ca08dfba4a59a1a10bff5ee064736f6c634300081a0033\n    }\n}\n",
				"bytecode": {
					"linkReferences": {},
					"object": "60806040525f80555f6001555f60065560405161001b90610221565b604051809103905ff080158015610034573d5f803e3d5ffd5b5060075f6101000a81548173ffffffffffffffffffffffffffffffffffffffff021916908373ffffffffffffffffffffffffffffffffffffffff16021790555060016008556040516100859061022e565b604051809103905ff08015801561009e573d5f803e3d5ffd5b5060095f6101000a81548173ffffffffffffffffffffffffffffffffffffffff021916908373ffffffffffffffffffffffffffffffffffffffff1602179055506040518060800160405280735b38da6a701c568545dcfcb03fcb875f56beddc473ffffffffffffffffffffffffffffffffffffffff1673ffffffffffffffffffffffffffffffffffffffff16815260200173ab8483f64d9c6d1ecf9b849ae677dd3315835cb273ffffffffffffffffffffffffffffffffffffffff1673ffffffffffffffffffffffffffffffffffffffff168152602001734b20993bc481177ec7e8f571cecae8a9e22c02db73ffffffffffffffffffffffffffffffffffffffff1673ffffffffffffffffffffffffffffffffffffffff1681526020017378731d3ca6b7e34ac0f824c42a7cc18a495cabab73ffffffffffffffffffffffffffffffffffffffff1673ffffffffffffffffffffffffffffffffffffffff16815250600a90600461020f92919061023b565b5034801561021b575f80fd5b506102d2565b610231806115c583390190565b610d6f806117f683390190565b82600481019282156102a6579160200282015b828111156102a5578251825f6101000a81548173ffffffffffffffffffffffffffffffffffffffff021916908373ffffffffffffffffffffffffffffffffffffffff1602179055509160200191906001019061024e565b5b5090506102b391906102b7565b5090565b5b808211156102ce575f815f9055506001016102b8565b5090565b6112e6806102df5f395ff3fe608060405260043610610085575f3560e01c806390d5d0c31161005857806390d5d0c3146101235780639d7b3f2d1461014d578063b778650314610177578063d891f9691461018d578063f71d96cb146101b557610085565b8063086f781514610089578063190cf745146100b3578063228cb733146100ef57806327b5db8a14610119575b5f80fd5b348015610094575f80fd5b5061009d6101f1565b6040516100aa9190610e4c565b60405180910390f35b3480156100be575f80fd5b506100d960048036038101906100d49190610ec3565b6101f7565b6040516100e69190610f08565b60405180910390f35b3480156100fa575f80fd5b50610103610214565b6040516101109190610e4c565b60405180910390f35b61012161021a565b005b34801561012e575f80fd5b506101376103b5565b6040516101449190610e4c565b60405180910390f35b348015610158575f80fd5b506101616103ba565b60405161016e9190610f7c565b60405180910390f35b348015610182575f80fd5b5061018b6103df565b005b348015610198575f80fd5b506101b360048036038101906101ae9190610fc8565b610785565b005b3480156101c0575f80fd5b506101db60048036038101906101d6919061101d565b6109fe565b6040516101e89190611057565b60405180910390f35b60065481565b6004602052805f5260405f205f915054906101000a900460ff1681565b60015481565b60025f5410610227575f80fd5b61022f610a39565b610237575f80fd5b670de0b6b3a7640000341461024a575f80fd5b3460015f82825461025b919061109d565b92505081905550600160045f3373ffffffffffffffffffffffffffffffffffffffff1673ffffffffffffffffffffffffffffffffffffffff1681526020019081526020015f205f6101000a81548160ff021916908315150217905550600533908060018154018082558091505060019003905f5260205f20015f9091909190916101000a81548173ffffffffffffffffffffffffffffffffffffffff021916908373ffffffffffffffffffffffffffffffffffffffff1602179055505f80815480929190610328906110d0565b919050555060015f54036103b35760075f9054906101000a900473ffffffffffffffffffffffffffffffffffffffff1673ffffffffffffffffffffffffffffffffffffffff1663a63f7c536040518163ffffffff1660e01b81526004015f604051808303815f87803b15801561039c575f80fd5b505af11580156103ae573d5f803e3d5ffd5b505050505b565b5f5481565b60095f9054906101000a900473ffffffffffffffffffffffffffffffffffffffff1681565b60085460075f9054906101000a900473ffffffffffffffffffffffffffffffffffffffff1673ffffffffffffffffffffffffffffffffffffffff1663d97c84166040518163ffffffff1660e01b8152600401602060405180830381865afa15801561044c573d5f803e3d5ffd5b505050506040513d601f19601f82011682018060405250810190610470919061112b565b106107835760016005805490500361050d575f60055f8154811061049757610496611156565b5b905f5260205f20015f9054906101000a900473ffffffffffffffffffffffffffffffffffffffff1690508073ffffffffffffffffffffffffffffffffffffffff166108fc60015490811502906040515f60405180830381858888f19350505050158015610506573d5f803e3d5ffd5b505061077a565b60025f5414801561052057506002600654145b1561064f575f60055f8154811061053a57610539611156565b5b905f5260205f20015f9054906101000a900473ffffffffffffffffffffffffffffffffffffffff1690505f600560018154811061057a57610579611156565b5b905f5260205f20015f9054906101000a900473ffffffffffffffffffffffffffffffffffffffff1690508173ffffffffffffffffffffffffffffffffffffffff166108fc60026001546105cd91906111b0565b90811502906040515f60405180830381858888f193505050501580156105f5573d5f803e3d5ffd5b508073ffffffffffffffffffffffffffffffffffffffff166108fc600260015461061f91906111b0565b90811502906040515f60405180830381858888f19350505050158015610647573d5f803e3d5ffd5b505050610779565b5f5b60028110156107775760045f6005838154811061067157610670611156565b5b905f5260205f20015f9054906101000a900473ffffffffffffffffffffffffffffffffffffffff1673ffffffffffffffffffffffffffffffffffffffff1673ffffffffffffffffffffffffffffffffffffffff1681526020019081526020015f205f9054906101000a900460ff1661076a575f600582815481106106f8576106f7611156565b5b905f5260205f20015f9054906101000a900473ffffffffffffffffffffffffffffffffffffffff1690508073ffffffffffffffffffffffffffffffffffffffff166108fc60015490811502906040515f60405180830381858888f19350505050158015610767573d5f803e3d5ffd5b50505b8080600101915050610651565b505b5b610782610ace565b5b565b60025f5414610792575f80fd5b60045f3373ffffffffffffffffffffffffffffffffffffffff1673ffffffffffffffffffffffffffffffffffffffff1681526020019081526020015f205f9054906101000a900460ff166107e4575f80fd5b5f6005825f1c6107f491906111e0565b90505f8114806108045750600181145b8061080f5750600281145b8061081a5750600381145b806108255750600481145b610864576040517f08c379a000000000000000000000000000000000000000000000000000000000815260040161085b9061126a565b60405180910390fd5b60095f9054906101000a900473ffffffffffffffffffffffffffffffffffffffff1673ffffffffffffffffffffffffffffffffffffffff1663f14fcbc8836040518263ffffffff1660e01b81526004016108be9190611297565b5f604051808303815f87803b1580156108d5575f80fd5b505af11580156108e7573d5f803e3d5ffd5b505050508160025f3373ffffffffffffffffffffffffffffffffffffffff1673ffffffffffffffffffffffffffffffffffffffff1681526020019081526020015f20819055508060035f3373ffffffffffffffffffffffffffffffffffffffff1673ffffffffffffffffffffffffffffffffffffffff1681526020019081526020015f20819055505f60045f3373ffffffffffffffffffffffffffffffffffffffff1673ffffffffffffffffffffffffffffffffffffffff1681526020019081526020015f205f6101000a81548160ff02191690831515021790555060065f8154809291906109d5906110d0565b91905055506002600654036109fa575f6006819055505f80819055506109f9610af1565b5b5050565b60058181548110610a0d575f80fd5b905f5260205f20015f915054906101000a900473ffffffffffffffffffffffffffffffffffffffff1681565b5f805f90505b6004811015610ac657600a8160048110610a5c57610a5b611156565b5b015f9054906101000a900473ffffffffffffffffffffffffffffffffffffffff1673ffffffffffffffffffffffffffffffffffffffff163373ffffffffffffffffffffffffffffffffffffffff1603610ab9576001915050610acb565b8080600101915050610a3f565b505f90505b90565b60055f610adb9190610dfb565b5f6006819055505f80819055505f600181905550565b5f60035f60055f81548110610b0957610b08611156565b5b905f5260205f20015f9054906101000a900473ffffffffffffffffffffffffffffffffffffffff1673ffffffffffffffffffffffffffffffffffffffff1673ffffffffffffffffffffffffffffffffffffffff1681526020019081526020015f205490505f60035f6005600181548110610b8657610b85611156565b5b905f5260205f20015f9054906101000a900473ffffffffffffffffffffffffffffffffffffffff1673ffffffffffffffffffffffffffffffffffffffff1673ffffffffffffffffffffffffffffffffffffffff1681526020019081526020015f205490505f60055f81548110610bff57610bfe611156565b5b905f5260205f20015f9054906101000a900473ffffffffffffffffffffffffffffffffffffffff1690505f6005600181548110610c3f57610c3e611156565b5b905f5260205f20015f9054906101000a900473ffffffffffffffffffffffffffffffffffffffff169050828403610d19578173ffffffffffffffffffffffffffffffffffffffff166108fc6002600154610c9991906111b0565b90811502906040515f60405180830381858888f19350505050158015610cc1573d5f803e3d5ffd5b508073ffffffffffffffffffffffffffffffffffffffff166108fc6002600154610ceb91906111b0565b90811502906040515f60405180830381858888f19350505050158015610d13573d5f803e3d5ffd5b50610dee565b836005600185610d29919061109d565b610d3391906111e0565b1480610d565750836005600385610d4a919061109d565b610d5491906111e0565b145b15610da6578173ffffffffffffffffffffffffffffffffffffffff166108fc60015490811502906040515f60405180830381858888f19350505050158015610da0573d5f803e3d5ffd5b50610ded565b8073ffffffffffffffffffffffffffffffffffffffff166108fc60015490811502906040515f60405180830381858888f19350505050158015610deb573d5f803e3d5ffd5b505b5b5f60018190555050505050565b5080545f8255905f5260205f2090810190610e169190610e19565b50565b5b80821115610e30575f815f905550600101610e1a565b5090565b5f819050919050565b610e4681610e34565b82525050565b5f602082019050610e5f5f830184610e3d565b92915050565b5f80fd5b5f73ffffffffffffffffffffffffffffffffffffffff82169050919050565b5f610e9282610e69565b9050919050565b610ea281610e88565b8114610eac575f80fd5b50565b5f81359050610ebd81610e99565b92915050565b5f60208284031215610ed857610ed7610e65565b5b5f610ee584828501610eaf565b91505092915050565b5f8115159050919050565b610f0281610eee565b82525050565b5f602082019050610f1b5f830184610ef9565b92915050565b5f819050919050565b5f610f44610f3f610f3a84610e69565b610f21565b610e69565b9050919050565b5f610f5582610f2a565b9050919050565b5f610f6682610f4b565b9050919050565b610f7681610f5c565b82525050565b5f602082019050610f8f5f830184610f6d565b92915050565b5f819050919050565b610fa781610f95565b8114610fb1575f80fd5b50565b5f81359050610fc281610f9e565b92915050565b5f60208284031215610fdd57610fdc610e65565b5b5f610fea84828501610fb4565b91505092915050565b610ffc81610e34565b8114611006575f80fd5b50565b5f8135905061101781610ff3565b92915050565b5f6020828403121561103257611031610e65565b5b5f61103f84828501611009565b91505092915050565b61105181610e88565b82525050565b5f60208201905061106a5f830184611048565b92915050565b7f4e487b71000000000000000000000000000000000000000000000000000000005f52601160045260245ffd5b5f6110a782610e34565b91506110b283610e34565b92508282019050808211156110ca576110c9611070565b5b92915050565b5f6110da82610e34565b91507fffffffffffffffffffffffffffffffffffffffffffffffffffffffffffffffff820361110c5761110b611070565b5b600182019050919050565b5f8151905061112581610ff3565b92915050565b5f602082840312156111405761113f610e65565b5b5f61114d84828501611117565b91505092915050565b7f4e487b71000000000000000000000000000000000000000000000000000000005f52603260045260245ffd5b7f4e487b71000000000000000000000000000000000000000000000000000000005f52601260045260245ffd5b5f6111ba82610e34565b91506111c583610e34565b9250826111d5576111d4611183565b5b828204905092915050565b5f6111ea82610e34565b91506111f583610e34565b92508261120557611204611183565b5b828206905092915050565b5f82825260208201905092915050565b7f496e76616c69642063686f6963650000000000000000000000000000000000005f82015250565b5f611254600e83611210565b915061125f82611220565b602082019050919050565b5f6020820190508181035f83015261128181611248565b9050919050565b61129181610f95565b82525050565b5f6020820190506112aa5f830184611288565b9291505056fea2646970667358221220506a5130f7c61a859d3e34ca50521bbb74a933d9a3bbe2d5e0281d87ddf4c1ce64736f6c634300081a00336080604052348015600e575f80fd5b506102158061001c5f395ff3fe608060405234801561000f575f80fd5b506004361061004a575f3560e01c806378e979251461004e578063a63f7c531461006c578063bc06b8cd14610076578063d97c841614610094575b5f80fd5b6100566100b2565b6040516100639190610109565b60405180910390f35b6100746100b7565b005b61007e6100bf565b60405161008b9190610109565b60405180910390f35b61009c6100d2565b6040516100a99190610109565b60405180910390f35b5f5481565b425f81905550565b5f8054426100cd919061014f565b905090565b5f603c5f54426100e2919061014f565b6100ec91906101af565b905090565b5f819050919050565b610103816100f1565b82525050565b5f60208201905061011c5f8301846100fa565b92915050565b7f4e487b71000000000000000000000000000000000000000000000000000000005f52601160045260245ffd5b5f610159826100f1565b9150610164836100f1565b925082820390508181111561017c5761017b610122565b5b92915050565b7f4e487b71000000000000000000000000000000000000000000000000000000005f52601260045260245ffd5b5f6101b9826100f1565b91506101c4836100f1565b9250826101d4576101d3610182565b5b82820490509291505056fea2646970667358221220aac731c651a41091e78c4c68ca2cde2e708ec23868c1bbf8979319bbf0b1f7c164736f6c634300081a0033608060405260645f806101000a81548160ff021916908360ff1602179055503480156028575f80fd5b50610d39806100365f395ff3fe608060405234801561000f575f80fd5b5060043610610055575f3560e01c80633cf5040a146100595780636ac5db1914610089578063701fd0f1146100a75780637b43a8e6146100c3578063f14fcbc8146100f5575b5f80fd5b610073600480360381019061006e919061075d565b610111565b6040516100809190610797565b60405180910390f35b610091610140565b60405161009e91906107cb565b60405180910390f35b6100c160048036038101906100bc919061075d565b610150565b005b6100dd60048036038101906100d8919061083e565b61050e565b6040516100ec939291906108a5565b60405180910390f35b61010f600480360381019061010a919061075d565b610554565b005b5f8160405160200161012391906108fa565b604051602081830303815290604052805190602001209050919050565b5f8054906101000a900460ff1681565b5f151560015f3373ffffffffffffffffffffffffffffffffffffffff1673ffffffffffffffffffffffffffffffffffffffff1681526020019081526020015f2060010160089054906101000a900460ff161515146101e3576040517f08c379a00000000000000000000000000000000000000000000000000000000081526004016101da90610994565b60405180910390fd5b6001805f3373ffffffffffffffffffffffffffffffffffffffff1673ffffffffffffffffffffffffffffffffffffffff1681526020019081526020015f2060010160086101000a81548160ff02191690831515021790555060015f3373ffffffffffffffffffffffffffffffffffffffff1673ffffffffffffffffffffffffffffffffffffffff1681526020019081526020015f205f015461028482610111565b146102c4576040517f08c379a00000000000000000000000000000000000000000000000000000000081526004016102bb90610a22565b60405180910390fd5b60015f3373ffffffffffffffffffffffffffffffffffffffff1673ffffffffffffffffffffffffffffffffffffffff1681526020019081526020015f206001015f9054906101000a900467ffffffffffffffff1667ffffffffffffffff164367ffffffffffffffff161161036d576040517f08c379a000000000000000000000000000000000000000000000000000000000815260040161036490610ad6565b60405180910390fd5b60fa60015f3373ffffffffffffffffffffffffffffffffffffffff1673ffffffffffffffffffffffffffffffffffffffff1681526020019081526020015f206001015f9054906101000a900467ffffffffffffffff166103cd9190610b21565b67ffffffffffffffff164367ffffffffffffffff161115610423576040517f08c379a000000000000000000000000000000000000000000000000000000000815260040161041a90610bcc565b60405180910390fd5b5f60015f3373ffffffffffffffffffffffffffffffffffffffff1673ffffffffffffffffffffffffffffffffffffffff1681526020019081526020015f206001015f9054906101000a900467ffffffffffffffff1667ffffffffffffffff164090505f805f9054906101000a900460ff1660ff1682846040516020016104aa929190610bea565b604051602081830303815290604052805190602001205f1c6104cc9190610c4b565b90507fbc016dd1cadeaefcb851af7a0a93532e0023d536894b730801f7bcfe7065bcc233848360405161050193929190610c99565b60405180910390a1505050565b6001602052805f5260405f205f91509050805f015490806001015f9054906101000a900467ffffffffffffffff16908060010160089054906101000a900460ff16905083565b8060015f3373ffffffffffffffffffffffffffffffffffffffff1673ffffffffffffffffffffffffffffffffffffffff1681526020019081526020015f205f01819055504360015f3373ffffffffffffffffffffffffffffffffffffffff1673ffffffffffffffffffffffffffffffffffffffff1681526020019081526020015f206001015f6101000a81548167ffffffffffffffff021916908367ffffffffffffffff1602179055505f60015f3373ffffffffffffffffffffffffffffffffffffffff1673ffffffffffffffffffffffffffffffffffffffff1681526020019081526020015f2060010160086101000a81548160ff0219169083151502179055507f3c1a1f8f38335b17f751c6da4ba7d1865f26b3997535176f5080de9fad8916033360015f3373ffffffffffffffffffffffffffffffffffffffff1673ffffffffffffffffffffffffffffffffffffffff1681526020019081526020015f205f015460015f3373ffffffffffffffffffffffffffffffffffffffff1673ffffffffffffffffffffffffffffffffffffffff1681526020019081526020015f206001015f9054906101000a900467ffffffffffffffff1660405161071b93929190610cce565b60405180910390a150565b5f80fd5b5f819050919050565b61073c8161072a565b8114610746575f80fd5b50565b5f8135905061075781610733565b92915050565b5f6020828403121561077257610771610726565b5b5f61077f84828501610749565b91505092915050565b6107918161072a565b82525050565b5f6020820190506107aa5f830184610788565b92915050565b5f60ff82169050919050565b6107c5816107b0565b82525050565b5f6020820190506107de5f8301846107bc565b92915050565b5f73ffffffffffffffffffffffffffffffffffffffff82169050919050565b5f61080d826107e4565b9050919050565b61081d81610803565b8114610827575f80fd5b50565b5f8135905061083881610814565b92915050565b5f6020828403121561085357610852610726565b5b5f6108608482850161082a565b91505092915050565b5f67ffffffffffffffff82169050919050565b61088581610869565b82525050565b5f8115159050919050565b61089f8161088b565b82525050565b5f6060820190506108b85f830186610788565b6108c5602083018561087c565b6108d26040830184610896565b949350505050565b5f819050919050565b6108f46108ef8261072a565b6108da565b82525050565b5f61090582846108e3565b60208201915081905092915050565b5f82825260208201905092915050565b7f436f6d6d697452657665616c3a3a72657665616c3a20416c72656164792072655f8201527f7665616c65640000000000000000000000000000000000000000000000000000602082015250565b5f61097e602683610914565b915061098982610924565b604082019050919050565b5f6020820190508181035f8301526109ab81610972565b9050919050565b7f436f6d6d697452657665616c3a3a72657665616c3a2052657665616c656420685f8201527f61736820646f6573206e6f74206d6174636820636f6d6d697400000000000000602082015250565b5f610a0c603983610914565b9150610a17826109b2565b604082019050919050565b5f6020820190508181035f830152610a3981610a00565b9050919050565b7f436f6d6d697452657665616c3a3a72657665616c3a2052657665616c20616e645f8201527f20636f6d6d69742068617070656e6564206f6e207468652073616d6520626c6f60208201527f636b000000000000000000000000000000000000000000000000000000000000604082015250565b5f610ac0604283610914565b9150610acb82610a40565b606082019050919050565b5f6020820190508181035f830152610aed81610ab4565b9050919050565b7f4e487b71000000000000000000000000000000000000000000000000000000005f52601160045260245ffd5b5f610b2b82610869565b9150610b3683610869565b9250828201905067ffffffffffffffff811115610b5657610b55610af4565b5b92915050565b7f436f6d6d697452657665616c3a3a72657665616c3a2052657665616c656420745f8201527f6f6f206c61746500000000000000000000000000000000000000000000000000602082015250565b5f610bb6602783610914565b9150610bc182610b5c565b604082019050919050565b5f6020820190508181035f830152610be381610baa565b9050919050565b5f610bf582856108e3565b602082019150610c0582846108e3565b6020820191508190509392505050565b5f819050919050565b7f4e487b71000000000000000000000000000000000000000000000000000000005f52601260045260245ffd5b5f610c5582610c15565b9150610c6083610c15565b925082610c7057610c6f610c1e565b5b828206905092915050565b610c8481610803565b82525050565b610c9381610c15565b82525050565b5f606082019050610cac5f830186610c7b565b610cb96020830185610788565b610cc66040830184610c8a565b949350505050565b5f606082019050610ce15f830186610c7b565b610cee6020830185610788565b610cfb604083018461087c565b94935050505056fea26469706673582212201eafc90a77e60daf17aa211974ece341ffd58201ca08dfba4a59a1a10bff5ee064736f6c634300081a0033",
					"opcodes": "PUSH1 0x80 PUSH1 0x40 MSTORE PUSH0 DUP1 SSTORE PUSH0 PUSH1 0x1 SSTORE PUSH0 PUSH1 0x6 SSTORE PUSH1 0x40 MLOAD PUSH2 0x1B SWAP1 PUSH2 0x221 JUMP JUMPDEST PUSH1 0x40 MLOAD DUP1 SWAP2 SUB SWAP1 PUSH0 CREATE DUP1 ISZERO DUP1 ISZERO PUSH2 0x34 JUMPI RETURNDATASIZE PUSH0 DUP1 RETURNDATACOPY RETURNDATASIZE PUSH0 REVERT JUMPDEST POP PUSH1 0x7 PUSH0 PUSH2 0x100 EXP DUP2 SLOAD DUP2 PUSH20 0xFFFFFFFFFFFFFFFFFFFFFFFFFFFFFFFFFFFFFFFF MUL NOT AND SWAP1 DUP4 PUSH20 0xFFFFFFFFFFFFFFFFFFFFFFFFFFFFFFFFFFFFFFFF AND MUL OR SWAP1 SSTORE POP PUSH1 0x1 PUSH1 0x8 SSTORE PUSH1 0x40 MLOAD PUSH2 0x85 SWAP1 PUSH2 0x22E JUMP JUMPDEST PUSH1 0x40 MLOAD DUP1 SWAP2 SUB SWAP1 PUSH0 CREATE DUP1 ISZERO DUP1 ISZERO PUSH2 0x9E JUMPI RETURNDATASIZE PUSH0 DUP1 RETURNDATACOPY RETURNDATASIZE PUSH0 REVERT JUMPDEST POP PUSH1 0x9 PUSH0 PUSH2 0x100 EXP DUP2 SLOAD DUP2 PUSH20 0xFFFFFFFFFFFFFFFFFFFFFFFFFFFFFFFFFFFFFFFF MUL NOT AND SWAP1 DUP4 PUSH20 0xFFFFFFFFFFFFFFFFFFFFFFFFFFFFFFFFFFFFFFFF AND MUL OR SWAP1 SSTORE POP PUSH1 0x40 MLOAD DUP1 PUSH1 0x80 ADD PUSH1 0x40 MSTORE DUP1 PUSH20 0x5B38DA6A701C568545DCFCB03FCB875F56BEDDC4 PUSH20 0xFFFFFFFFFFFFFFFFFFFFFFFFFFFFFFFFFFFFFFFF AND PUSH20 0xFFFFFFFFFFFFFFFFFFFFFFFFFFFFFFFFFFFFFFFF AND DUP2 MSTORE PUSH1 0x20 ADD PUSH20 0xAB8483F64D9C6D1ECF9B849AE677DD3315835CB2 PUSH20 0xFFFFFFFFFFFFFFFFFFFFFFFFFFFFFFFFFFFFFFFF AND PUSH20 0xFFFFFFFFFFFFFFFFFFFFFFFFFFFFFFFFFFFFFFFF AND DUP2 MSTORE PUSH1 0x20 ADD PUSH20 0x4B20993BC481177EC7E8F571CECAE8A9E22C02DB PUSH20 0xFFFFFFFFFFFFFFFFFFFFFFFFFFFFFFFFFFFFFFFF AND PUSH20 0xFFFFFFFFFFFFFFFFFFFFFFFFFFFFFFFFFFFFFFFF AND DUP2 MSTORE PUSH1 0x20 ADD PUSH20 0x78731D3CA6B7E34AC0F824C42A7CC18A495CABAB PUSH20 0xFFFFFFFFFFFFFFFFFFFFFFFFFFFFFFFFFFFFFFFF AND PUSH20 0xFFFFFFFFFFFFFFFFFFFFFFFFFFFFFFFFFFFFFFFF AND DUP2 MSTORE POP PUSH1 0xA SWAP1 PUSH1 0x4 PUSH2 0x20F SWAP3 SWAP2 SWAP1 PUSH2 0x23B JUMP JUMPDEST POP CALLVALUE DUP1 ISZERO PUSH2 0x21B JUMPI PUSH0 DUP1 REVERT JUMPDEST POP PUSH2 0x2D2 JUMP JUMPDEST PUSH2 0x231 DUP1 PUSH2 0x15C5 DUP4 CODECOPY ADD SWAP1 JUMP JUMPDEST PUSH2 0xD6F DUP1 PUSH2 0x17F6 DUP4 CODECOPY ADD SWAP1 JUMP JUMPDEST DUP3 PUSH1 0x4 DUP2 ADD SWAP3 DUP3 ISZERO PUSH2 0x2A6 JUMPI SWAP2 PUSH1 0x20 MUL DUP3 ADD JUMPDEST DUP3 DUP2 GT ISZERO PUSH2 0x2A5 JUMPI DUP3 MLOAD DUP3 PUSH0 PUSH2 0x100 EXP DUP2 SLOAD DUP2 PUSH20 0xFFFFFFFFFFFFFFFFFFFFFFFFFFFFFFFFFFFFFFFF MUL NOT AND SWAP1 DUP4 PUSH20 0xFFFFFFFFFFFFFFFFFFFFFFFFFFFFFFFFFFFFFFFF AND MUL OR SWAP1 SSTORE POP SWAP2 PUSH1 0x20 ADD SWAP2 SWAP1 PUSH1 0x1 ADD SWAP1 PUSH2 0x24E JUMP JUMPDEST JUMPDEST POP SWAP1 POP PUSH2 0x2B3 SWAP2 SWAP1 PUSH2 0x2B7 JUMP JUMPDEST POP SWAP1 JUMP JUMPDEST JUMPDEST DUP1 DUP3 GT ISZERO PUSH2 0x2CE JUMPI PUSH0 DUP2 PUSH0 SWAP1 SSTORE POP PUSH1 0x1 ADD PUSH2 0x2B8 JUMP JUMPDEST POP SWAP1 JUMP JUMPDEST PUSH2 0x12E6 DUP1 PUSH2 0x2DF PUSH0 CODECOPY PUSH0 RETURN INVALID PUSH1 0x80 PUSH1 0x40 MSTORE PUSH1 0x4 CALLDATASIZE LT PUSH2 0x85 JUMPI PUSH0 CALLDATALOAD PUSH1 0xE0 SHR DUP1 PUSH4 0x90D5D0C3 GT PUSH2 0x58 JUMPI DUP1 PUSH4 0x90D5D0C3 EQ PUSH2 0x123 JUMPI DUP1 PUSH4 0x9D7B3F2D EQ PUSH2 0x14D JUMPI DUP1 PUSH4 0xB7786503 EQ PUSH2 0x177 JUMPI DUP1 PUSH4 0xD891F969 EQ PUSH2 0x18D JUMPI DUP1 PUSH4 0xF71D96CB EQ PUSH2 0x1B5 JUMPI PUSH2 0x85 JUMP JUMPDEST DUP1 PUSH4 0x86F7815 EQ PUSH2 0x89 JUMPI DUP1 PUSH4 0x190CF745 EQ PUSH2 0xB3 JUMPI DUP1 PUSH4 0x228CB733 EQ PUSH2 0xEF JUMPI DUP1 PUSH4 0x27B5DB8A EQ PUSH2 0x119 JUMPI JUMPDEST PUSH0 DUP1 REVERT JUMPDEST CALLVALUE DUP1 ISZERO PUSH2 0x94 JUMPI PUSH0 DUP1 REVERT JUMPDEST POP PUSH2 0x9D PUSH2 0x1F1 JUMP JUMPDEST PUSH1 0x40 MLOAD PUSH2 0xAA SWAP2 SWAP1 PUSH2 0xE4C JUMP JUMPDEST PUSH1 0x40 MLOAD DUP1 SWAP2 SUB SWAP1 RETURN JUMPDEST CALLVALUE DUP1 ISZERO PUSH2 0xBE JUMPI PUSH0 DUP1 REVERT JUMPDEST POP PUSH2 0xD9 PUSH1 0x4 DUP1 CALLDATASIZE SUB DUP2 ADD SWAP1 PUSH2 0xD4 SWAP2 SWAP1 PUSH2 0xEC3 JUMP JUMPDEST PUSH2 0x1F7 JUMP JUMPDEST PUSH1 0x40 MLOAD PUSH2 0xE6 SWAP2 SWAP1 PUSH2 0xF08 JUMP JUMPDEST PUSH1 0x40 MLOAD DUP1 SWAP2 SUB SWAP1 RETURN JUMPDEST CALLVALUE DUP1 ISZERO PUSH2 0xFA JUMPI PUSH0 DUP1 REVERT JUMPDEST POP PUSH2 0x103 PUSH2 0x214 JUMP JUMPDEST PUSH1 0x40 MLOAD PUSH2 0x110 SWAP2 SWAP1 PUSH2 0xE4C JUMP JUMPDEST PUSH1 0x40 MLOAD DUP1 SWAP2 SUB SWAP1 RETURN JUMPDEST PUSH2 0x121 PUSH2 0x21A JUMP JUMPDEST STOP JUMPDEST CALLVALUE DUP1 ISZERO PUSH2 0x12E JUMPI PUSH0 DUP1 REVERT JUMPDEST POP PUSH2 0x137 PUSH2 0x3B5 JUMP JUMPDEST PUSH1 0x40 MLOAD PUSH2 0x144 SWAP2 SWAP1 PUSH2 0xE4C JUMP JUMPDEST PUSH1 0x40 MLOAD DUP1 SWAP2 SUB SWAP1 RETURN JUMPDEST CALLVALUE DUP1 ISZERO PUSH2 0x158 JUMPI PUSH0 DUP1 REVERT JUMPDEST POP PUSH2 0x161 PUSH2 0x3BA JUMP JUMPDEST PUSH1 0x40 MLOAD PUSH2 0x16E SWAP2 SWAP1 PUSH2 0xF7C JUMP JUMPDEST PUSH1 0x40 MLOAD DUP1 SWAP2 SUB SWAP1 RETURN JUMPDEST CALLVALUE DUP1 ISZERO PUSH2 0x182 JUMPI PUSH0 DUP1 REVERT JUMPDEST POP PUSH2 0x18B PUSH2 0x3DF JUMP JUMPDEST STOP JUMPDEST CALLVALUE DUP1 ISZERO PUSH2 0x198 JUMPI PUSH0 DUP1 REVERT JUMPDEST POP PUSH2 0x1B3 PUSH1 0x4 DUP1 CALLDATASIZE SUB DUP2 ADD SWAP1 PUSH2 0x1AE SWAP2 SWAP1 PUSH2 0xFC8 JUMP JUMPDEST PUSH2 0x785 JUMP JUMPDEST STOP JUMPDEST CALLVALUE DUP1 ISZERO PUSH2 0x1C0 JUMPI PUSH0 DUP1 REVERT JUMPDEST POP PUSH2 0x1DB PUSH1 0x4 DUP1 CALLDATASIZE SUB DUP2 ADD SWAP1 PUSH2 0x1D6 SWAP2 SWAP1 PUSH2 0x101D JUMP JUMPDEST PUSH2 0x9FE JUMP JUMPDEST PUSH1 0x40 MLOAD PUSH2 0x1E8 SWAP2 SWAP1 PUSH2 0x1057 JUMP JUMPDEST PUSH1 0x40 MLOAD DUP1 SWAP2 SUB SWAP1 RETURN JUMPDEST PUSH1 0x6 SLOAD DUP2 JUMP JUMPDEST PUSH1 0x4 PUSH1 0x20 MSTORE DUP1 PUSH0 MSTORE PUSH1 0x40 PUSH0 KECCAK256 PUSH0 SWAP2 POP SLOAD SWAP1 PUSH2 0x100 EXP SWAP1 DIV PUSH1 0xFF AND DUP2 JUMP JUMPDEST PUSH1 0x1 SLOAD DUP2 JUMP JUMPDEST PUSH1 0x2 PUSH0 SLOAD LT PUSH2 0x227 JUMPI PUSH0 DUP1 REVERT JUMPDEST PUSH2 0x22F PUSH2 0xA39 JUMP JUMPDEST PUSH2 0x237 JUMPI PUSH0 DUP1 REVERT JUMPDEST PUSH8 0xDE0B6B3A7640000 CALLVALUE EQ PUSH2 0x24A JUMPI PUSH0 DUP1 REVERT JUMPDEST CALLVALUE PUSH1 0x1 PUSH0 DUP3 DUP3 SLOAD PUSH2 0x25B SWAP2 SWAP1 PUSH2 0x109D JUMP JUMPDEST SWAP3 POP POP DUP2 SWAP1 SSTORE POP PUSH1 0x1 PUSH1 0x4 PUSH0 CALLER PUSH20 0xFFFFFFFFFFFFFFFFFFFFFFFFFFFFFFFFFFFFFFFF AND PUSH20 0xFFFFFFFFFFFFFFFFFFFFFFFFFFFFFFFFFFFFFFFF AND DUP2 MSTORE PUSH1 0x20 ADD SWAP1 DUP2 MSTORE PUSH1 0x20 ADD PUSH0 KECCAK256 PUSH0 PUSH2 0x100 EXP DUP2 SLOAD DUP2 PUSH1 0xFF MUL NOT AND SWAP1 DUP4 ISZERO ISZERO MUL OR SWAP1 SSTORE POP PUSH1 0x5 CALLER SWAP1 DUP1 PUSH1 0x1 DUP2 SLOAD ADD DUP1 DUP3 SSTORE DUP1 SWAP2 POP POP PUSH1 0x1 SWAP1 SUB SWAP1 PUSH0 MSTORE PUSH1 0x20 PUSH0 KECCAK256 ADD PUSH0 SWAP1 SWAP2 SWAP1 SWAP2 SWAP1 SWAP2 PUSH2 0x100 EXP DUP2 SLOAD DUP2 PUSH20 0xFFFFFFFFFFFFFFFFFFFFFFFFFFFFFFFFFFFFFFFF MUL NOT AND SWAP1 DUP4 PUSH20 0xFFFFFFFFFFFFFFFFFFFFFFFFFFFFFFFFFFFFFFFF AND MUL OR SWAP1 SSTORE POP PUSH0 DUP1 DUP2 SLOAD DUP1 SWAP3 SWAP2 SWAP1 PUSH2 0x328 SWAP1 PUSH2 0x10D0 JUMP JUMPDEST SWAP2 SWAP1 POP SSTORE POP PUSH1 0x1 PUSH0 SLOAD SUB PUSH2 0x3B3 JUMPI PUSH1 0x7 PUSH0 SWAP1 SLOAD SWAP1 PUSH2 0x100 EXP SWAP1 DIV PUSH20 0xFFFFFFFFFFFFFFFFFFFFFFFFFFFFFFFFFFFFFFFF AND PUSH20 0xFFFFFFFFFFFFFFFFFFFFFFFFFFFFFFFFFFFFFFFF AND PUSH4 0xA63F7C53 PUSH1 0x40 MLOAD DUP2 PUSH4 0xFFFFFFFF AND PUSH1 0xE0 SHL DUP2 MSTORE PUSH1 0x4 ADD PUSH0 PUSH1 0x40 MLOAD DUP1 DUP4 SUB DUP2 PUSH0 DUP8 DUP1 EXTCODESIZE ISZERO DUP1 ISZERO PUSH2 0x39C JUMPI PUSH0 DUP1 REVERT JUMPDEST POP GAS CALL ISZERO DUP1 ISZERO PUSH2 0x3AE JUMPI RETURNDATASIZE PUSH0 DUP1 RETURNDATACOPY RETURNDATASIZE PUSH0 REVERT JUMPDEST POP POP POP POP JUMPDEST JUMP JUMPDEST PUSH0 SLOAD DUP2 JUMP JUMPDEST PUSH1 0x9 PUSH0 SWAP1 SLOAD SWAP1 PUSH2 0x100 EXP SWAP1 DIV PUSH20 0xFFFFFFFFFFFFFFFFFFFFFFFFFFFFFFFFFFFFFFFF AND DUP2 JUMP JUMPDEST PUSH1 0x8 SLOAD PUSH1 0x7 PUSH0 SWAP1 SLOAD SWAP1 PUSH2 0x100 EXP SWAP1 DIV PUSH20 0xFFFFFFFFFFFFFFFFFFFFFFFFFFFFFFFFFFFFFFFF AND PUSH20 0xFFFFFFFFFFFFFFFFFFFFFFFFFFFFFFFFFFFFFFFF AND PUSH4 0xD97C8416 PUSH1 0x40 MLOAD DUP2 PUSH4 0xFFFFFFFF AND PUSH1 0xE0 SHL DUP2 MSTORE PUSH1 0x4 ADD PUSH1 0x20 PUSH1 0x40 MLOAD DUP1 DUP4 SUB DUP2 DUP7 GAS STATICCALL ISZERO DUP1 ISZERO PUSH2 0x44C JUMPI RETURNDATASIZE PUSH0 DUP1 RETURNDATACOPY RETURNDATASIZE PUSH0 REVERT JUMPDEST POP POP POP POP PUSH1 0x40 MLOAD RETURNDATASIZE PUSH1 0x1F NOT PUSH1 0x1F DUP3 ADD AND DUP3 ADD DUP1 PUSH1 0x40 MSTORE POP DUP2 ADD SWAP1 PUSH2 0x470 SWAP2 SWAP1 PUSH2 0x112B JUMP JUMPDEST LT PUSH2 0x783 JUMPI PUSH1 0x1 PUSH1 0x5 DUP1 SLOAD SWAP1 POP SUB PUSH2 0x50D JUMPI PUSH0 PUSH1 0x5 PUSH0 DUP2 SLOAD DUP2 LT PUSH2 0x497 JUMPI PUSH2 0x496 PUSH2 0x1156 JUMP JUMPDEST JUMPDEST SWAP1 PUSH0 MSTORE PUSH1 0x20 PUSH0 KECCAK256 ADD PUSH0 SWAP1 SLOAD SWAP1 PUSH2 0x100 EXP SWAP1 DIV PUSH20 0xFFFFFFFFFFFFFFFFFFFFFFFFFFFFFFFFFFFFFFFF AND SWAP1 POP DUP1 PUSH20 0xFFFFFFFFFFFFFFFFFFFFFFFFFFFFFFFFFFFFFFFF AND PUSH2 0x8FC PUSH1 0x1 SLOAD SWAP1 DUP2 ISZERO MUL SWAP1 PUSH1 0x40 MLOAD PUSH0 PUSH1 0x40 MLOAD DUP1 DUP4 SUB DUP2 DUP6 DUP9 DUP9 CALL SWAP4 POP POP POP POP ISZERO DUP1 ISZERO PUSH2 0x506 JUMPI RETURNDATASIZE PUSH0 DUP1 RETURNDATACOPY RETURNDATASIZE PUSH0 REVERT JUMPDEST POP POP PUSH2 0x77A JUMP JUMPDEST PUSH1 0x2 PUSH0 SLOAD EQ DUP1 ISZERO PUSH2 0x520 JUMPI POP PUSH1 0x2 PUSH1 0x6 SLOAD EQ JUMPDEST ISZERO PUSH2 0x64F JUMPI PUSH0 PUSH1 0x5 PUSH0 DUP2 SLOAD DUP2 LT PUSH2 0x53A JUMPI PUSH2 0x539 PUSH2 0x1156 JUMP JUMPDEST JUMPDEST SWAP1 PUSH0 MSTORE PUSH1 0x20 PUSH0 KECCAK256 ADD PUSH0 SWAP1 SLOAD SWAP1 PUSH2 0x100 EXP SWAP1 DIV PUSH20 0xFFFFFFFFFFFFFFFFFFFFFFFFFFFFFFFFFFFFFFFF AND SWAP1 POP PUSH0 PUSH1 0x5 PUSH1 0x1 DUP2 SLOAD DUP2 LT PUSH2 0x57A JUMPI PUSH2 0x579 PUSH2 0x1156 JUMP JUMPDEST JUMPDEST SWAP1 PUSH0 MSTORE PUSH1 0x20 PUSH0 KECCAK256 ADD PUSH0 SWAP1 SLOAD SWAP1 PUSH2 0x100 EXP SWAP1 DIV PUSH20 0xFFFFFFFFFFFFFFFFFFFFFFFFFFFFFFFFFFFFFFFF AND SWAP1 POP DUP2 PUSH20 0xFFFFFFFFFFFFFFFFFFFFFFFFFFFFFFFFFFFFFFFF AND PUSH2 0x8FC PUSH1 0x2 PUSH1 0x1 SLOAD PUSH2 0x5CD SWAP2 SWAP1 PUSH2 0x11B0 JUMP JUMPDEST SWAP1 DUP2 ISZERO MUL SWAP1 PUSH1 0x40 MLOAD PUSH0 PUSH1 0x40 MLOAD DUP1 DUP4 SUB DUP2 DUP6 DUP9 DUP9 CALL SWAP4 POP POP POP POP ISZERO DUP1 ISZERO PUSH2 0x5F5 JUMPI RETURNDATASIZE PUSH0 DUP1 RETURNDATACOPY RETURNDATASIZE PUSH0 REVERT JUMPDEST POP DUP1 PUSH20 0xFFFFFFFFFFFFFFFFFFFFFFFFFFFFFFFFFFFFFFFF AND PUSH2 0x8FC PUSH1 0x2 PUSH1 0x1 SLOAD PUSH2 0x61F SWAP2 SWAP1 PUSH2 0x11B0 JUMP JUMPDEST SWAP1 DUP2 ISZERO MUL SWAP1 PUSH1 0x40 MLOAD PUSH0 PUSH1 0x40 MLOAD DUP1 DUP4 SUB DUP2 DUP6 DUP9 DUP9 CALL SWAP4 POP POP POP POP ISZERO DUP1 ISZERO PUSH2 0x647 JUMPI RETURNDATASIZE PUSH0 DUP1 RETURNDATACOPY RETURNDATASIZE PUSH0 REVERT JUMPDEST POP POP POP PUSH2 0x779 JUMP JUMPDEST PUSH0 JUMPDEST PUSH1 0x2 DUP2 LT ISZERO PUSH2 0x777 JUMPI PUSH1 0x4 PUSH0 PUSH1 0x5 DUP4 DUP2 SLOAD DUP2 LT PUSH2 0x671 JUMPI PUSH2 0x670 PUSH2 0x1156 JUMP JUMPDEST JUMPDEST SWAP1 PUSH0 MSTORE PUSH1 0x20 PUSH0 KECCAK256 ADD PUSH0 SWAP1 SLOAD SWAP1 PUSH2 0x100 EXP SWAP1 DIV PUSH20 0xFFFFFFFFFFFFFFFFFFFFFFFFFFFFFFFFFFFFFFFF AND PUSH20 0xFFFFFFFFFFFFFFFFFFFFFFFFFFFFFFFFFFFFFFFF AND PUSH20 0xFFFFFFFFFFFFFFFFFFFFFFFFFFFFFFFFFFFFFFFF AND DUP2 MSTORE PUSH1 0x20 ADD SWAP1 DUP2 MSTORE PUSH1 0x20 ADD PUSH0 KECCAK256 PUSH0 SWAP1 SLOAD SWAP1 PUSH2 0x100 EXP SWAP1 DIV PUSH1 0xFF AND PUSH2 0x76A JUMPI PUSH0 PUSH1 0x5 DUP3 DUP2 SLOAD DUP2 LT PUSH2 0x6F8 JUMPI PUSH2 0x6F7 PUSH2 0x1156 JUMP JUMPDEST JUMPDEST SWAP1 PUSH0 MSTORE PUSH1 0x20 PUSH0 KECCAK256 ADD PUSH0 SWAP1 SLOAD SWAP1 PUSH2 0x100 EXP SWAP1 DIV PUSH20 0xFFFFFFFFFFFFFFFFFFFFFFFFFFFFFFFFFFFFFFFF AND SWAP1 POP DUP1 PUSH20 0xFFFFFFFFFFFFFFFFFFFFFFFFFFFFFFFFFFFFFFFF AND PUSH2 0x8FC PUSH1 0x1 SLOAD SWAP1 DUP2 ISZERO MUL SWAP1 PUSH1 0x40 MLOAD PUSH0 PUSH1 0x40 MLOAD DUP1 DUP4 SUB DUP2 DUP6 DUP9 DUP9 CALL SWAP4 POP POP POP POP ISZERO DUP1 ISZERO PUSH2 0x767 JUMPI RETURNDATASIZE PUSH0 DUP1 RETURNDATACOPY RETURNDATASIZE PUSH0 REVERT JUMPDEST POP POP JUMPDEST DUP1 DUP1 PUSH1 0x1 ADD SWAP2 POP POP PUSH2 0x651 JUMP JUMPDEST POP JUMPDEST JUMPDEST PUSH2 0x782 PUSH2 0xACE JUMP JUMPDEST JUMPDEST JUMP JUMPDEST PUSH1 0x2 PUSH0 SLOAD EQ PUSH2 0x792 JUMPI PUSH0 DUP1 REVERT JUMPDEST PUSH1 0x4 PUSH0 CALLER PUSH20 0xFFFFFFFFFFFFFFFFFFFFFFFFFFFFFFFFFFFFFFFF AND PUSH20 0xFFFFFFFFFFFFFFFFFFFFFFFFFFFFFFFFFFFFFFFF AND DUP2 MSTORE PUSH1 0x20 ADD SWAP1 DUP2 MSTORE PUSH1 0x20 ADD PUSH0 KECCAK256 PUSH0 SWAP1 SLOAD SWAP1 PUSH2 0x100 EXP SWAP1 DIV PUSH1 0xFF AND PUSH2 0x7E4 JUMPI PUSH0 DUP1 REVERT JUMPDEST PUSH0 PUSH1 0x5 DUP3 PUSH0 SHR PUSH2 0x7F4 SWAP2 SWAP1 PUSH2 0x11E0 JUMP JUMPDEST SWAP1 POP PUSH0 DUP2 EQ DUP1 PUSH2 0x804 JUMPI POP PUSH1 0x1 DUP2 EQ JUMPDEST DUP1 PUSH2 0x80F JUMPI POP PUSH1 0x2 DUP2 EQ JUMPDEST DUP1 PUSH2 0x81A JUMPI POP PUSH1 0x3 DUP2 EQ JUMPDEST DUP1 PUSH2 0x825 JUMPI POP PUSH1 0x4 DUP2 EQ JUMPDEST PUSH2 0x864 JUMPI PUSH1 0x40 MLOAD PUSH32 0x8C379A000000000000000000000000000000000000000000000000000000000 DUP2 MSTORE PUSH1 0x4 ADD PUSH2 0x85B SWAP1 PUSH2 0x126A JUMP JUMPDEST PUSH1 0x40 MLOAD DUP1 SWAP2 SUB SWAP1 REVERT JUMPDEST PUSH1 0x9 PUSH0 SWAP1 SLOAD SWAP1 PUSH2 0x100 EXP SWAP1 DIV PUSH20 0xFFFFFFFFFFFFFFFFFFFFFFFFFFFFFFFFFFFFFFFF AND PUSH20 0xFFFFFFFFFFFFFFFFFFFFFFFFFFFFFFFFFFFFFFFF AND PUSH4 0xF14FCBC8 DUP4 PUSH1 0x40 MLOAD DUP3 PUSH4 0xFFFFFFFF AND PUSH1 0xE0 SHL DUP2 MSTORE PUSH1 0x4 ADD PUSH2 0x8BE SWAP2 SWAP1 PUSH2 0x1297 JUMP JUMPDEST PUSH0 PUSH1 0x40 MLOAD DUP1 DUP4 SUB DUP2 PUSH0 DUP8 DUP1 EXTCODESIZE ISZERO DUP1 ISZERO PUSH2 0x8D5 JUMPI PUSH0 DUP1 REVERT JUMPDEST POP GAS CALL ISZERO DUP1 ISZERO PUSH2 0x8E7 JUMPI RETURNDATASIZE PUSH0 DUP1 RETURNDATACOPY RETURNDATASIZE PUSH0 REVERT JUMPDEST POP POP POP POP DUP2 PUSH1 0x2 PUSH0 CALLER PUSH20 0xFFFFFFFFFFFFFFFFFFFFFFFFFFFFFFFFFFFFFFFF AND PUSH20 0xFFFFFFFFFFFFFFFFFFFFFFFFFFFFFFFFFFFFFFFF AND DUP2 MSTORE PUSH1 0x20 ADD SWAP1 DUP2 MSTORE PUSH1 0x20 ADD PUSH0 KECCAK256 DUP2 SWAP1 SSTORE POP DUP1 PUSH1 0x3 PUSH0 CALLER PUSH20 0xFFFFFFFFFFFFFFFFFFFFFFFFFFFFFFFFFFFFFFFF AND PUSH20 0xFFFFFFFFFFFFFFFFFFFFFFFFFFFFFFFFFFFFFFFF AND DUP2 MSTORE PUSH1 0x20 ADD SWAP1 DUP2 MSTORE PUSH1 0x20 ADD PUSH0 KECCAK256 DUP2 SWAP1 SSTORE POP PUSH0 PUSH1 0x4 PUSH0 CALLER PUSH20 0xFFFFFFFFFFFFFFFFFFFFFFFFFFFFFFFFFFFFFFFF AND PUSH20 0xFFFFFFFFFFFFFFFFFFFFFFFFFFFFFFFFFFFFFFFF AND DUP2 MSTORE PUSH1 0x20 ADD SWAP1 DUP2 MSTORE PUSH1 0x20 ADD PUSH0 KECCAK256 PUSH0 PUSH2 0x100 EXP DUP2 SLOAD DUP2 PUSH1 0xFF MUL NOT AND SWAP1 DUP4 ISZERO ISZERO MUL OR SWAP1 SSTORE POP PUSH1 0x6 PUSH0 DUP2 SLOAD DUP1 SWAP3 SWAP2 SWAP1 PUSH2 0x9D5 SWAP1 PUSH2 0x10D0 JUMP JUMPDEST SWAP2 SWAP1 POP SSTORE POP PUSH1 0x2 PUSH1 0x6 SLOAD SUB PUSH2 0x9FA JUMPI PUSH0 PUSH1 0x6 DUP2 SWAP1 SSTORE POP PUSH0 DUP1 DUP2 SWAP1 SSTORE POP PUSH2 0x9F9 PUSH2 0xAF1 JUMP JUMPDEST JUMPDEST POP POP JUMP JUMPDEST PUSH1 0x5 DUP2 DUP2 SLOAD DUP2 LT PUSH2 0xA0D JUMPI PUSH0 DUP1 REVERT JUMPDEST SWAP1 PUSH0 MSTORE PUSH1 0x20 PUSH0 KECCAK256 ADD PUSH0 SWAP2 POP SLOAD SWAP1 PUSH2 0x100 EXP SWAP1 DIV PUSH20 0xFFFFFFFFFFFFFFFFFFFFFFFFFFFFFFFFFFFFFFFF AND DUP2 JUMP JUMPDEST PUSH0 DUP1 PUSH0 SWAP1 POP JUMPDEST PUSH1 0x4 DUP2 LT ISZERO PUSH2 0xAC6 JUMPI PUSH1 0xA DUP2 PUSH1 0x4 DUP2 LT PUSH2 0xA5C JUMPI PUSH2 0xA5B PUSH2 0x1156 JUMP JUMPDEST JUMPDEST ADD PUSH0 SWAP1 SLOAD SWAP1 PUSH2 0x100 EXP SWAP1 DIV PUSH20 0xFFFFFFFFFFFFFFFFFFFFFFFFFFFFFFFFFFFFFFFF AND PUSH20 0xFFFFFFFFFFFFFFFFFFFFFFFFFFFFFFFFFFFFFFFF AND CALLER PUSH20 0xFFFFFFFFFFFFFFFFFFFFFFFFFFFFFFFFFFFFFFFF AND SUB PUSH2 0xAB9 JUMPI PUSH1 0x1 SWAP2 POP POP PUSH2 0xACB JUMP JUMPDEST DUP1 DUP1 PUSH1 0x1 ADD SWAP2 POP POP PUSH2 0xA3F JUMP JUMPDEST POP PUSH0 SWAP1 POP JUMPDEST SWAP1 JUMP JUMPDEST PUSH1 0x5 PUSH0 PUSH2 0xADB SWAP2 SWAP1 PUSH2 0xDFB JUMP JUMPDEST PUSH0 PUSH1 0x6 DUP2 SWAP1 SSTORE POP PUSH0 DUP1 DUP2 SWAP1 SSTORE POP PUSH0 PUSH1 0x1 DUP2 SWAP1 SSTORE POP JUMP JUMPDEST PUSH0 PUSH1 0x3 PUSH0 PUSH1 0x5 PUSH0 DUP2 SLOAD DUP2 LT PUSH2 0xB09 JUMPI PUSH2 0xB08 PUSH2 0x1156 JUMP JUMPDEST JUMPDEST SWAP1 PUSH0 MSTORE PUSH1 0x20 PUSH0 KECCAK256 ADD PUSH0 SWAP1 SLOAD SWAP1 PUSH2 0x100 EXP SWAP1 DIV PUSH20 0xFFFFFFFFFFFFFFFFFFFFFFFFFFFFFFFFFFFFFFFF AND PUSH20 0xFFFFFFFFFFFFFFFFFFFFFFFFFFFFFFFFFFFFFFFF AND PUSH20 0xFFFFFFFFFFFFFFFFFFFFFFFFFFFFFFFFFFFFFFFF AND DUP2 MSTORE PUSH1 0x20 ADD SWAP1 DUP2 MSTORE PUSH1 0x20 ADD PUSH0 KECCAK256 SLOAD SWAP1 POP PUSH0 PUSH1 0x3 PUSH0 PUSH1 0x5 PUSH1 0x1 DUP2 SLOAD DUP2 LT PUSH2 0xB86 JUMPI PUSH2 0xB85 PUSH2 0x1156 JUMP JUMPDEST JUMPDEST SWAP1 PUSH0 MSTORE PUSH1 0x20 PUSH0 KECCAK256 ADD PUSH0 SWAP1 SLOAD SWAP1 PUSH2 0x100 EXP SWAP1 DIV PUSH20 0xFFFFFFFFFFFFFFFFFFFFFFFFFFFFFFFFFFFFFFFF AND PUSH20 0xFFFFFFFFFFFFFFFFFFFFFFFFFFFFFFFFFFFFFFFF AND PUSH20 0xFFFFFFFFFFFFFFFFFFFFFFFFFFFFFFFFFFFFFFFF AND DUP2 MSTORE PUSH1 0x20 ADD SWAP1 DUP2 MSTORE PUSH1 0x20 ADD PUSH0 KECCAK256 SLOAD SWAP1 POP PUSH0 PUSH1 0x5 PUSH0 DUP2 SLOAD DUP2 LT PUSH2 0xBFF JUMPI PUSH2 0xBFE PUSH2 0x1156 JUMP JUMPDEST JUMPDEST SWAP1 PUSH0 MSTORE PUSH1 0x20 PUSH0 KECCAK256 ADD PUSH0 SWAP1 SLOAD SWAP1 PUSH2 0x100 EXP SWAP1 DIV PUSH20 0xFFFFFFFFFFFFFFFFFFFFFFFFFFFFFFFFFFFFFFFF AND SWAP1 POP PUSH0 PUSH1 0x5 PUSH1 0x1 DUP2 SLOAD DUP2 LT PUSH2 0xC3F JUMPI PUSH2 0xC3E PUSH2 0x1156 JUMP JUMPDEST JUMPDEST SWAP1 PUSH0 MSTORE PUSH1 0x20 PUSH0 KECCAK256 ADD PUSH0 SWAP1 SLOAD SWAP1 PUSH2 0x100 EXP SWAP1 DIV PUSH20 0xFFFFFFFFFFFFFFFFFFFFFFFFFFFFFFFFFFFFFFFF AND SWAP1 POP DUP3 DUP5 SUB PUSH2 0xD19 JUMPI DUP2 PUSH20 0xFFFFFFFFFFFFFFFFFFFFFFFFFFFFFFFFFFFFFFFF AND PUSH2 0x8FC PUSH1 0x2 PUSH1 0x1 SLOAD PUSH2 0xC99 SWAP2 SWAP1 PUSH2 0x11B0 JUMP JUMPDEST SWAP1 DUP2 ISZERO MUL SWAP1 PUSH1 0x40 MLOAD PUSH0 PUSH1 0x40 MLOAD DUP1 DUP4 SUB DUP2 DUP6 DUP9 DUP9 CALL SWAP4 POP POP POP POP ISZERO DUP1 ISZERO PUSH2 0xCC1 JUMPI RETURNDATASIZE PUSH0 DUP1 RETURNDATACOPY RETURNDATASIZE PUSH0 REVERT JUMPDEST POP DUP1 PUSH20 0xFFFFFFFFFFFFFFFFFFFFFFFFFFFFFFFFFFFFFFFF AND PUSH2 0x8FC PUSH1 0x2 PUSH1 0x1 SLOAD PUSH2 0xCEB SWAP2 SWAP1 PUSH2 0x11B0 JUMP JUMPDEST SWAP1 DUP2 ISZERO MUL SWAP1 PUSH1 0x40 MLOAD PUSH0 PUSH1 0x40 MLOAD DUP1 DUP4 SUB DUP2 DUP6 DUP9 DUP9 CALL SWAP4 POP POP POP POP ISZERO DUP1 ISZERO PUSH2 0xD13 JUMPI RETURNDATASIZE PUSH0 DUP1 RETURNDATACOPY RETURNDATASIZE PUSH0 REVERT JUMPDEST POP PUSH2 0xDEE JUMP JUMPDEST DUP4 PUSH1 0x5 PUSH1 0x1 DUP6 PUSH2 0xD29 SWAP2 SWAP1 PUSH2 0x109D JUMP JUMPDEST PUSH2 0xD33 SWAP2 SWAP1 PUSH2 0x11E0 JUMP JUMPDEST EQ DUP1 PUSH2 0xD56 JUMPI POP DUP4 PUSH1 0x5 PUSH1 0x3 DUP6 PUSH2 0xD4A SWAP2 SWAP1 PUSH2 0x109D JUMP JUMPDEST PUSH2 0xD54 SWAP2 SWAP1 PUSH2 0x11E0 JUMP JUMPDEST EQ JUMPDEST ISZERO PUSH2 0xDA6 JUMPI DUP2 PUSH20 0xFFFFFFFFFFFFFFFFFFFFFFFFFFFFFFFFFFFFFFFF AND PUSH2 0x8FC PUSH1 0x1 SLOAD SWAP1 DUP2 ISZERO MUL SWAP1 PUSH1 0x40 MLOAD PUSH0 PUSH1 0x40 MLOAD DUP1 DUP4 SUB DUP2 DUP6 DUP9 DUP9 CALL SWAP4 POP POP POP POP ISZERO DUP1 ISZERO PUSH2 0xDA0 JUMPI RETURNDATASIZE PUSH0 DUP1 RETURNDATACOPY RETURNDATASIZE PUSH0 REVERT JUMPDEST POP PUSH2 0xDED JUMP JUMPDEST DUP1 PUSH20 0xFFFFFFFFFFFFFFFFFFFFFFFFFFFFFFFFFFFFFFFF AND PUSH2 0x8FC PUSH1 0x1 SLOAD SWAP1 DUP2 ISZERO MUL SWAP1 PUSH1 0x40 MLOAD PUSH0 PUSH1 0x40 MLOAD DUP1 DUP4 SUB DUP2 DUP6 DUP9 DUP9 CALL SWAP4 POP POP POP POP ISZERO DUP1 ISZERO PUSH2 0xDEB JUMPI RETURNDATASIZE PUSH0 DUP1 RETURNDATACOPY RETURNDATASIZE PUSH0 REVERT JUMPDEST POP JUMPDEST JUMPDEST PUSH0 PUSH1 0x1 DUP2 SWAP1 SSTORE POP POP POP POP POP JUMP JUMPDEST POP DUP1 SLOAD PUSH0 DUP3 SSTORE SWAP1 PUSH0 MSTORE PUSH1 0x20 PUSH0 KECCAK256 SWAP1 DUP2 ADD SWAP1 PUSH2 0xE16 SWAP2 SWAP1 PUSH2 0xE19 JUMP JUMPDEST POP JUMP JUMPDEST JUMPDEST DUP1 DUP3 GT ISZERO PUSH2 0xE30 JUMPI PUSH0 DUP2 PUSH0 SWAP1 SSTORE POP PUSH1 0x1 ADD PUSH2 0xE1A JUMP JUMPDEST POP SWAP1 JUMP JUMPDEST PUSH0 DUP2 SWAP1 POP SWAP2 SWAP1 POP JUMP JUMPDEST PUSH2 0xE46 DUP2 PUSH2 0xE34 JUMP JUMPDEST DUP3 MSTORE POP POP JUMP JUMPDEST PUSH0 PUSH1 0x20 DUP3 ADD SWAP1 POP PUSH2 0xE5F PUSH0 DUP4 ADD DUP5 PUSH2 0xE3D JUMP JUMPDEST SWAP3 SWAP2 POP POP JUMP JUMPDEST PUSH0 DUP1 REVERT JUMPDEST PUSH0 PUSH20 0xFFFFFFFFFFFFFFFFFFFFFFFFFFFFFFFFFFFFFFFF DUP3 AND SWAP1 POP SWAP2 SWAP1 POP JUMP JUMPDEST PUSH0 PUSH2 0xE92 DUP3 PUSH2 0xE69 JUMP JUMPDEST SWAP1 POP SWAP2 SWAP1 POP JUMP JUMPDEST PUSH2 0xEA2 DUP2 PUSH2 0xE88 JUMP JUMPDEST DUP2 EQ PUSH2 0xEAC JUMPI PUSH0 DUP1 REVERT JUMPDEST POP JUMP JUMPDEST PUSH0 DUP2 CALLDATALOAD SWAP1 POP PUSH2 0xEBD DUP2 PUSH2 0xE99 JUMP JUMPDEST SWAP3 SWAP2 POP POP JUMP JUMPDEST PUSH0 PUSH1 0x20 DUP3 DUP5 SUB SLT ISZERO PUSH2 0xED8 JUMPI PUSH2 0xED7 PUSH2 0xE65 JUMP JUMPDEST JUMPDEST PUSH0 PUSH2 0xEE5 DUP5 DUP3 DUP6 ADD PUSH2 0xEAF JUMP JUMPDEST SWAP2 POP POP SWAP3 SWAP2 POP POP JUMP JUMPDEST PUSH0 DUP2 ISZERO ISZERO SWAP1 POP SWAP2 SWAP1 POP JUMP JUMPDEST PUSH2 0xF02 DUP2 PUSH2 0xEEE JUMP JUMPDEST DUP3 MSTORE POP POP JUMP JUMPDEST PUSH0 PUSH1 0x20 DUP3 ADD SWAP1 POP PUSH2 0xF1B PUSH0 DUP4 ADD DUP5 PUSH2 0xEF9 JUMP JUMPDEST SWAP3 SWAP2 POP POP JUMP JUMPDEST PUSH0 DUP2 SWAP1 POP SWAP2 SWAP1 POP JUMP JUMPDEST PUSH0 PUSH2 0xF44 PUSH2 0xF3F PUSH2 0xF3A DUP5 PUSH2 0xE69 JUMP JUMPDEST PUSH2 0xF21 JUMP JUMPDEST PUSH2 0xE69 JUMP JUMPDEST SWAP1 POP SWAP2 SWAP1 POP JUMP JUMPDEST PUSH0 PUSH2 0xF55 DUP3 PUSH2 0xF2A JUMP JUMPDEST SWAP1 POP SWAP2 SWAP1 POP JUMP JUMPDEST PUSH0 PUSH2 0xF66 DUP3 PUSH2 0xF4B JUMP JUMPDEST SWAP1 POP SWAP2 SWAP1 POP JUMP JUMPDEST PUSH2 0xF76 DUP2 PUSH2 0xF5C JUMP JUMPDEST DUP3 MSTORE POP POP JUMP JUMPDEST PUSH0 PUSH1 0x20 DUP3 ADD SWAP1 POP PUSH2 0xF8F PUSH0 DUP4 ADD DUP5 PUSH2 0xF6D JUMP JUMPDEST SWAP3 SWAP2 POP POP JUMP JUMPDEST PUSH0 DUP2 SWAP1 POP SWAP2 SWAP1 POP JUMP JUMPDEST PUSH2 0xFA7 DUP2 PUSH2 0xF95 JUMP JUMPDEST DUP2 EQ PUSH2 0xFB1 JUMPI PUSH0 DUP1 REVERT JUMPDEST POP JUMP JUMPDEST PUSH0 DUP2 CALLDATALOAD SWAP1 POP PUSH2 0xFC2 DUP2 PUSH2 0xF9E JUMP JUMPDEST SWAP3 SWAP2 POP POP JUMP JUMPDEST PUSH0 PUSH1 0x20 DUP3 DUP5 SUB SLT ISZERO PUSH2 0xFDD JUMPI PUSH2 0xFDC PUSH2 0xE65 JUMP JUMPDEST JUMPDEST PUSH0 PUSH2 0xFEA DUP5 DUP3 DUP6 ADD PUSH2 0xFB4 JUMP JUMPDEST SWAP2 POP POP SWAP3 SWAP2 POP POP JUMP JUMPDEST PUSH2 0xFFC DUP2 PUSH2 0xE34 JUMP JUMPDEST DUP2 EQ PUSH2 0x1006 JUMPI PUSH0 DUP1 REVERT JUMPDEST POP JUMP JUMPDEST PUSH0 DUP2 CALLDATALOAD SWAP1 POP PUSH2 0x1017 DUP2 PUSH2 0xFF3 JUMP JUMPDEST SWAP3 SWAP2 POP POP JUMP JUMPDEST PUSH0 PUSH1 0x20 DUP3 DUP5 SUB SLT ISZERO PUSH2 0x1032 JUMPI PUSH2 0x1031 PUSH2 0xE65 JUMP JUMPDEST JUMPDEST PUSH0 PUSH2 0x103F DUP5 DUP3 DUP6 ADD PUSH2 0x1009 JUMP JUMPDEST SWAP2 POP POP SWAP3 SWAP2 POP POP JUMP JUMPDEST PUSH2 0x1051 DUP2 PUSH2 0xE88 JUMP JUMPDEST DUP3 MSTORE POP POP JUMP JUMPDEST PUSH0 PUSH1 0x20 DUP3 ADD SWAP1 POP PUSH2 0x106A PUSH0 DUP4 ADD DUP5 PUSH2 0x1048 JUMP JUMPDEST SWAP3 SWAP2 POP POP JUMP JUMPDEST PUSH32 0x4E487B7100000000000000000000000000000000000000000000000000000000 PUSH0 MSTORE PUSH1 0x11 PUSH1 0x4 MSTORE PUSH1 0x24 PUSH0 REVERT JUMPDEST PUSH0 PUSH2 0x10A7 DUP3 PUSH2 0xE34 JUMP JUMPDEST SWAP2 POP PUSH2 0x10B2 DUP4 PUSH2 0xE34 JUMP JUMPDEST SWAP3 POP DUP3 DUP3 ADD SWAP1 POP DUP1 DUP3 GT ISZERO PUSH2 0x10CA JUMPI PUSH2 0x10C9 PUSH2 0x1070 JUMP JUMPDEST JUMPDEST SWAP3 SWAP2 POP POP JUMP JUMPDEST PUSH0 PUSH2 0x10DA DUP3 PUSH2 0xE34 JUMP JUMPDEST SWAP2 POP PUSH32 0xFFFFFFFFFFFFFFFFFFFFFFFFFFFFFFFFFFFFFFFFFFFFFFFFFFFFFFFFFFFFFFFF DUP3 SUB PUSH2 0x110C JUMPI PUSH2 0x110B PUSH2 0x1070 JUMP JUMPDEST JUMPDEST PUSH1 0x1 DUP3 ADD SWAP1 POP SWAP2 SWAP1 POP JUMP JUMPDEST PUSH0 DUP2 MLOAD SWAP1 POP PUSH2 0x1125 DUP2 PUSH2 0xFF3 JUMP JUMPDEST SWAP3 SWAP2 POP POP JUMP JUMPDEST PUSH0 PUSH1 0x20 DUP3 DUP5 SUB SLT ISZERO PUSH2 0x1140 JUMPI PUSH2 0x113F PUSH2 0xE65 JUMP JUMPDEST JUMPDEST PUSH0 PUSH2 0x114D DUP5 DUP3 DUP6 ADD PUSH2 0x1117 JUMP JUMPDEST SWAP2 POP POP SWAP3 SWAP2 POP POP JUMP JUMPDEST PUSH32 0x4E487B7100000000000000000000000000000000000000000000000000000000 PUSH0 MSTORE PUSH1 0x32 PUSH1 0x4 MSTORE PUSH1 0x24 PUSH0 REVERT JUMPDEST PUSH32 0x4E487B7100000000000000000000000000000000000000000000000000000000 PUSH0 MSTORE PUSH1 0x12 PUSH1 0x4 MSTORE PUSH1 0x24 PUSH0 REVERT JUMPDEST PUSH0 PUSH2 0x11BA DUP3 PUSH2 0xE34 JUMP JUMPDEST SWAP2 POP PUSH2 0x11C5 DUP4 PUSH2 0xE34 JUMP JUMPDEST SWAP3 POP DUP3 PUSH2 0x11D5 JUMPI PUSH2 0x11D4 PUSH2 0x1183 JUMP JUMPDEST JUMPDEST DUP3 DUP3 DIV SWAP1 POP SWAP3 SWAP2 POP POP JUMP JUMPDEST PUSH0 PUSH2 0x11EA DUP3 PUSH2 0xE34 JUMP JUMPDEST SWAP2 POP PUSH2 0x11F5 DUP4 PUSH2 0xE34 JUMP JUMPDEST SWAP3 POP DUP3 PUSH2 0x1205 JUMPI PUSH2 0x1204 PUSH2 0x1183 JUMP JUMPDEST JUMPDEST DUP3 DUP3 MOD SWAP1 POP SWAP3 SWAP2 POP POP JUMP JUMPDEST PUSH0 DUP3 DUP3 MSTORE PUSH1 0x20 DUP3 ADD SWAP1 POP SWAP3 SWAP2 POP POP JUMP JUMPDEST PUSH32 0x496E76616C69642063686F696365000000000000000000000000000000000000 PUSH0 DUP3 ADD MSTORE POP JUMP JUMPDEST PUSH0 PUSH2 0x1254 PUSH1 0xE DUP4 PUSH2 0x1210 JUMP JUMPDEST SWAP2 POP PUSH2 0x125F DUP3 PUSH2 0x1220 JUMP JUMPDEST PUSH1 0x20 DUP3 ADD SWAP1 POP SWAP2 SWAP1 POP JUMP JUMPDEST PUSH0 PUSH1 0x20 DUP3 ADD SWAP1 POP DUP2 DUP2 SUB PUSH0 DUP4 ADD MSTORE PUSH2 0x1281 DUP2 PUSH2 0x1248 JUMP JUMPDEST SWAP1 POP SWAP2 SWAP1 POP JUMP JUMPDEST PUSH2 0x1291 DUP2 PUSH2 0xF95 JUMP JUMPDEST DUP3 MSTORE POP POP JUMP JUMPDEST PUSH0 PUSH1 0x20 DUP3 ADD SWAP1 POP PUSH2 0x12AA PUSH0 DUP4 ADD DUP5 PUSH2 0x1288 JUMP JUMPDEST SWAP3 SWAP2 POP POP JUMP INVALID LOG2 PUSH5 0x6970667358 0x22 SLT KECCAK256 POP PUSH11 0x5130F7C61A859D3E34CA50 MSTORE SHL 0xBB PUSH21 0xA933D9A3BBE2D5E0281D87DDF4C1CE64736F6C6343 STOP ADDMOD BYTE STOP CALLER PUSH1 0x80 PUSH1 0x40 MSTORE CALLVALUE DUP1 ISZERO PUSH1 0xE JUMPI PUSH0 DUP1 REVERT JUMPDEST POP PUSH2 0x215 DUP1 PUSH2 0x1C PUSH0 CODECOPY PUSH0 RETURN INVALID PUSH1 0x80 PUSH1 0x40 MSTORE CALLVALUE DUP1 ISZERO PUSH2 0xF JUMPI PUSH0 DUP1 REVERT JUMPDEST POP PUSH1 0x4 CALLDATASIZE LT PUSH2 0x4A JUMPI PUSH0 CALLDATALOAD PUSH1 0xE0 SHR DUP1 PUSH4 0x78E97925 EQ PUSH2 0x4E JUMPI DUP1 PUSH4 0xA63F7C53 EQ PUSH2 0x6C JUMPI DUP1 PUSH4 0xBC06B8CD EQ PUSH2 0x76 JUMPI DUP1 PUSH4 0xD97C8416 EQ PUSH2 0x94 JUMPI JUMPDEST PUSH0 DUP1 REVERT JUMPDEST PUSH2 0x56 PUSH2 0xB2 JUMP JUMPDEST PUSH1 0x40 MLOAD PUSH2 0x63 SWAP2 SWAP1 PUSH2 0x109 JUMP JUMPDEST PUSH1 0x40 MLOAD DUP1 SWAP2 SUB SWAP1 RETURN JUMPDEST PUSH2 0x74 PUSH2 0xB7 JUMP JUMPDEST STOP JUMPDEST PUSH2 0x7E PUSH2 0xBF JUMP JUMPDEST PUSH1 0x40 MLOAD PUSH2 0x8B SWAP2 SWAP1 PUSH2 0x109 JUMP JUMPDEST PUSH1 0x40 MLOAD DUP1 SWAP2 SUB SWAP1 RETURN JUMPDEST PUSH2 0x9C PUSH2 0xD2 JUMP JUMPDEST PUSH1 0x40 MLOAD PUSH2 0xA9 SWAP2 SWAP1 PUSH2 0x109 JUMP JUMPDEST PUSH1 0x40 MLOAD DUP1 SWAP2 SUB SWAP1 RETURN JUMPDEST PUSH0 SLOAD DUP2 JUMP JUMPDEST TIMESTAMP PUSH0 DUP2 SWAP1 SSTORE POP JUMP JUMPDEST PUSH0 DUP1 SLOAD TIMESTAMP PUSH2 0xCD SWAP2 SWAP1 PUSH2 0x14F JUMP JUMPDEST SWAP1 POP SWAP1 JUMP JUMPDEST PUSH0 PUSH1 0x3C PUSH0 SLOAD TIMESTAMP PUSH2 0xE2 SWAP2 SWAP1 PUSH2 0x14F JUMP JUMPDEST PUSH2 0xEC SWAP2 SWAP1 PUSH2 0x1AF JUMP JUMPDEST SWAP1 POP SWAP1 JUMP JUMPDEST PUSH0 DUP2 SWAP1 POP SWAP2 SWAP1 POP JUMP JUMPDEST PUSH2 0x103 DUP2 PUSH2 0xF1 JUMP JUMPDEST DUP3 MSTORE POP POP JUMP JUMPDEST PUSH0 PUSH1 0x20 DUP3 ADD SWAP1 POP PUSH2 0x11C PUSH0 DUP4 ADD DUP5 PUSH2 0xFA JUMP JUMPDEST SWAP3 SWAP2 POP POP JUMP JUMPDEST PUSH32 0x4E487B7100000000000000000000000000000000000000000000000000000000 PUSH0 MSTORE PUSH1 0x11 PUSH1 0x4 MSTORE PUSH1 0x24 PUSH0 REVERT JUMPDEST PUSH0 PUSH2 0x159 DUP3 PUSH2 0xF1 JUMP JUMPDEST SWAP2 POP PUSH2 0x164 DUP4 PUSH2 0xF1 JUMP JUMPDEST SWAP3 POP DUP3 DUP3 SUB SWAP1 POP DUP2 DUP2 GT ISZERO PUSH2 0x17C JUMPI PUSH2 0x17B PUSH2 0x122 JUMP JUMPDEST JUMPDEST SWAP3 SWAP2 POP POP JUMP JUMPDEST PUSH32 0x4E487B7100000000000000000000000000000000000000000000000000000000 PUSH0 MSTORE PUSH1 0x12 PUSH1 0x4 MSTORE PUSH1 0x24 PUSH0 REVERT JUMPDEST PUSH0 PUSH2 0x1B9 DUP3 PUSH2 0xF1 JUMP JUMPDEST SWAP2 POP PUSH2 0x1C4 DUP4 PUSH2 0xF1 JUMP JUMPDEST SWAP3 POP DUP3 PUSH2 0x1D4 JUMPI PUSH2 0x1D3 PUSH2 0x182 JUMP JUMPDEST JUMPDEST DUP3 DUP3 DIV SWAP1 POP SWAP3 SWAP2 POP POP JUMP INVALID LOG2 PUSH5 0x6970667358 0x22 SLT KECCAK256 0xAA 0xC7 BALANCE 0xC6 MLOAD LOG4 LT SWAP2 0xE7 DUP13 0x4C PUSH9 0xCA2CDE2E708EC23868 0xC1 0xBB 0xF8 SWAP8 SWAP4 NOT 0xBB CREATE 0xB1 0xF7 0xC1 PUSH5 0x736F6C6343 STOP ADDMOD BYTE STOP CALLER PUSH1 0x80 PUSH1 0x40 MSTORE PUSH1 0x64 PUSH0 DUP1 PUSH2 0x100 EXP DUP2 SLOAD DUP2 PUSH1 0xFF MUL NOT AND SWAP1 DUP4 PUSH1 0xFF AND MUL OR SWAP1 SSTORE POP CALLVALUE DUP1 ISZERO PUSH1 0x28 JUMPI PUSH0 DUP1 REVERT JUMPDEST POP PUSH2 0xD39 DUP1 PUSH2 0x36 PUSH0 CODECOPY PUSH0 RETURN INVALID PUSH1 0x80 PUSH1 0x40 MSTORE CALLVALUE DUP1 ISZERO PUSH2 0xF JUMPI PUSH0 DUP1 REVERT JUMPDEST POP PUSH1 0x4 CALLDATASIZE LT PUSH2 0x55 JUMPI PUSH0 CALLDATALOAD PUSH1 0xE0 SHR DUP1 PUSH4 0x3CF5040A EQ PUSH2 0x59 JUMPI DUP1 PUSH4 0x6AC5DB19 EQ PUSH2 0x89 JUMPI DUP1 PUSH4 0x701FD0F1 EQ PUSH2 0xA7 JUMPI DUP1 PUSH4 0x7B43A8E6 EQ PUSH2 0xC3 JUMPI DUP1 PUSH4 0xF14FCBC8 EQ PUSH2 0xF5 JUMPI JUMPDEST PUSH0 DUP1 REVERT JUMPDEST PUSH2 0x73 PUSH1 0x4 DUP1 CALLDATASIZE SUB DUP2 ADD SWAP1 PUSH2 0x6E SWAP2 SWAP1 PUSH2 0x75D JUMP JUMPDEST PUSH2 0x111 JUMP JUMPDEST PUSH1 0x40 MLOAD PUSH2 0x80 SWAP2 SWAP1 PUSH2 0x797 JUMP JUMPDEST PUSH1 0x40 MLOAD DUP1 SWAP2 SUB SWAP1 RETURN JUMPDEST PUSH2 0x91 PUSH2 0x140 JUMP JUMPDEST PUSH1 0x40 MLOAD PUSH2 0x9E SWAP2 SWAP1 PUSH2 0x7CB JUMP JUMPDEST PUSH1 0x40 MLOAD DUP1 SWAP2 SUB SWAP1 RETURN JUMPDEST PUSH2 0xC1 PUSH1 0x4 DUP1 CALLDATASIZE SUB DUP2 ADD SWAP1 PUSH2 0xBC SWAP2 SWAP1 PUSH2 0x75D JUMP JUMPDEST PUSH2 0x150 JUMP JUMPDEST STOP JUMPDEST PUSH2 0xDD PUSH1 0x4 DUP1 CALLDATASIZE SUB DUP2 ADD SWAP1 PUSH2 0xD8 SWAP2 SWAP1 PUSH2 0x83E JUMP JUMPDEST PUSH2 0x50E JUMP JUMPDEST PUSH1 0x40 MLOAD PUSH2 0xEC SWAP4 SWAP3 SWAP2 SWAP1 PUSH2 0x8A5 JUMP JUMPDEST PUSH1 0x40 MLOAD DUP1 SWAP2 SUB SWAP1 RETURN JUMPDEST PUSH2 0x10F PUSH1 0x4 DUP1 CALLDATASIZE SUB DUP2 ADD SWAP1 PUSH2 0x10A SWAP2 SWAP1 PUSH2 0x75D JUMP JUMPDEST PUSH2 0x554 JUMP JUMPDEST STOP JUMPDEST PUSH0 DUP2 PUSH1 0x40 MLOAD PUSH1 0x20 ADD PUSH2 0x123 SWAP2 SWAP1 PUSH2 0x8FA JUMP JUMPDEST PUSH1 0x40 MLOAD PUSH1 0x20 DUP2 DUP4 SUB SUB DUP2 MSTORE SWAP1 PUSH1 0x40 MSTORE DUP1 MLOAD SWAP1 PUSH1 0x20 ADD KECCAK256 SWAP1 POP SWAP2 SWAP1 POP JUMP JUMPDEST PUSH0 DUP1 SLOAD SWAP1 PUSH2 0x100 EXP SWAP1 DIV PUSH1 0xFF AND DUP2 JUMP JUMPDEST PUSH0 ISZERO ISZERO PUSH1 0x1 PUSH0 CALLER PUSH20 0xFFFFFFFFFFFFFFFFFFFFFFFFFFFFFFFFFFFFFFFF AND PUSH20 0xFFFFFFFFFFFFFFFFFFFFFFFFFFFFFFFFFFFFFFFF AND DUP2 MSTORE PUSH1 0x20 ADD SWAP1 DUP2 MSTORE PUSH1 0x20 ADD PUSH0 KECCAK256 PUSH1 0x1 ADD PUSH1 0x8 SWAP1 SLOAD SWAP1 PUSH2 0x100 EXP SWAP1 DIV PUSH1 0xFF AND ISZERO ISZERO EQ PUSH2 0x1E3 JUMPI PUSH1 0x40 MLOAD PUSH32 0x8C379A000000000000000000000000000000000000000000000000000000000 DUP2 MSTORE PUSH1 0x4 ADD PUSH2 0x1DA SWAP1 PUSH2 0x994 JUMP JUMPDEST PUSH1 0x40 MLOAD DUP1 SWAP2 SUB SWAP1 REVERT JUMPDEST PUSH1 0x1 DUP1 PUSH0 CALLER PUSH20 0xFFFFFFFFFFFFFFFFFFFFFFFFFFFFFFFFFFFFFFFF AND PUSH20 0xFFFFFFFFFFFFFFFFFFFFFFFFFFFFFFFFFFFFFFFF AND DUP2 MSTORE PUSH1 0x20 ADD SWAP1 DUP2 MSTORE PUSH1 0x20 ADD PUSH0 KECCAK256 PUSH1 0x1 ADD PUSH1 0x8 PUSH2 0x100 EXP DUP2 SLOAD DUP2 PUSH1 0xFF MUL NOT AND SWAP1 DUP4 ISZERO ISZERO MUL OR SWAP1 SSTORE POP PUSH1 0x1 PUSH0 CALLER PUSH20 0xFFFFFFFFFFFFFFFFFFFFFFFFFFFFFFFFFFFFFFFF AND PUSH20 0xFFFFFFFFFFFFFFFFFFFFFFFFFFFFFFFFFFFFFFFF AND DUP2 MSTORE PUSH1 0x20 ADD SWAP1 DUP2 MSTORE PUSH1 0x20 ADD PUSH0 KECCAK256 PUSH0 ADD SLOAD PUSH2 0x284 DUP3 PUSH2 0x111 JUMP JUMPDEST EQ PUSH2 0x2C4 JUMPI PUSH1 0x40 MLOAD PUSH32 0x8C379A000000000000000000000000000000000000000000000000000000000 DUP2 MSTORE PUSH1 0x4 ADD PUSH2 0x2BB SWAP1 PUSH2 0xA22 JUMP JUMPDEST PUSH1 0x40 MLOAD DUP1 SWAP2 SUB SWAP1 REVERT JUMPDEST PUSH1 0x1 PUSH0 CALLER PUSH20 0xFFFFFFFFFFFFFFFFFFFFFFFFFFFFFFFFFFFFFFFF AND PUSH20 0xFFFFFFFFFFFFFFFFFFFFFFFFFFFFFFFFFFFFFFFF AND DUP2 MSTORE PUSH1 0x20 ADD SWAP1 DUP2 MSTORE PUSH1 0x20 ADD PUSH0 KECCAK256 PUSH1 0x1 ADD PUSH0 SWAP1 SLOAD SWAP1 PUSH2 0x100 EXP SWAP1 DIV PUSH8 0xFFFFFFFFFFFFFFFF AND PUSH8 0xFFFFFFFFFFFFFFFF AND NUMBER PUSH8 0xFFFFFFFFFFFFFFFF AND GT PUSH2 0x36D JUMPI PUSH1 0x40 MLOAD PUSH32 0x8C379A000000000000000000000000000000000000000000000000000000000 DUP2 MSTORE PUSH1 0x4 ADD PUSH2 0x364 SWAP1 PUSH2 0xAD6 JUMP JUMPDEST PUSH1 0x40 MLOAD DUP1 SWAP2 SUB SWAP1 REVERT JUMPDEST PUSH1 0xFA PUSH1 0x1 PUSH0 CALLER PUSH20 0xFFFFFFFFFFFFFFFFFFFFFFFFFFFFFFFFFFFFFFFF AND PUSH20 0xFFFFFFFFFFFFFFFFFFFFFFFFFFFFFFFFFFFFFFFF AND DUP2 MSTORE PUSH1 0x20 ADD SWAP1 DUP2 MSTORE PUSH1 0x20 ADD PUSH0 KECCAK256 PUSH1 0x1 ADD PUSH0 SWAP1 SLOAD SWAP1 PUSH2 0x100 EXP SWAP1 DIV PUSH8 0xFFFFFFFFFFFFFFFF AND PUSH2 0x3CD SWAP2 SWAP1 PUSH2 0xB21 JUMP JUMPDEST PUSH8 0xFFFFFFFFFFFFFFFF AND NUMBER PUSH8 0xFFFFFFFFFFFFFFFF AND GT ISZERO PUSH2 0x423 JUMPI PUSH1 0x40 MLOAD PUSH32 0x8C379A000000000000000000000000000000000000000000000000000000000 DUP2 MSTORE PUSH1 0x4 ADD PUSH2 0x41A SWAP1 PUSH2 0xBCC JUMP JUMPDEST PUSH1 0x40 MLOAD DUP1 SWAP2 SUB SWAP1 REVERT JUMPDEST PUSH0 PUSH1 0x1 PUSH0 CALLER PUSH20 0xFFFFFFFFFFFFFFFFFFFFFFFFFFFFFFFFFFFFFFFF AND PUSH20 0xFFFFFFFFFFFFFFFFFFFFFFFFFFFFFFFFFFFFFFFF AND DUP2 MSTORE PUSH1 0x20 ADD SWAP1 DUP2 MSTORE PUSH1 0x20 ADD PUSH0 KECCAK256 PUSH1 0x1 ADD PUSH0 SWAP1 SLOAD SWAP1 PUSH2 0x100 EXP SWAP1 DIV PUSH8 0xFFFFFFFFFFFFFFFF AND PUSH8 0xFFFFFFFFFFFFFFFF AND BLOCKHASH SWAP1 POP PUSH0 DUP1 PUSH0 SWAP1 SLOAD SWAP1 PUSH2 0x100 EXP SWAP1 DIV PUSH1 0xFF AND PUSH1 0xFF AND DUP3 DUP5 PUSH1 0x40 MLOAD PUSH1 0x20 ADD PUSH2 0x4AA SWAP3 SWAP2 SWAP1 PUSH2 0xBEA JUMP JUMPDEST PUSH1 0x40 MLOAD PUSH1 0x20 DUP2 DUP4 SUB SUB DUP2 MSTORE SWAP1 PUSH1 0x40 MSTORE DUP1 MLOAD SWAP1 PUSH1 0x20 ADD KECCAK256 PUSH0 SHR PUSH2 0x4CC SWAP2 SWAP1 PUSH2 0xC4B JUMP JUMPDEST SWAP1 POP PUSH32 0xBC016DD1CADEAEFCB851AF7A0A93532E0023D536894B730801F7BCFE7065BCC2 CALLER DUP5 DUP4 PUSH1 0x40 MLOAD PUSH2 0x501 SWAP4 SWAP3 SWAP2 SWAP1 PUSH2 0xC99 JUMP JUMPDEST PUSH1 0x40 MLOAD DUP1 SWAP2 SUB SWAP1 LOG1 POP POP POP JUMP JUMPDEST PUSH1 0x1 PUSH1 0x20 MSTORE DUP1 PUSH0 MSTORE PUSH1 0x40 PUSH0 KECCAK256 PUSH0 SWAP2 POP SWAP1 POP DUP1 PUSH0 ADD SLOAD SWAP1 DUP1 PUSH1 0x1 ADD PUSH0 SWAP1 SLOAD SWAP1 PUSH2 0x100 EXP SWAP1 DIV PUSH8 0xFFFFFFFFFFFFFFFF AND SWAP1 DUP1 PUSH1 0x1 ADD PUSH1 0x8 SWAP1 SLOAD SWAP1 PUSH2 0x100 EXP SWAP1 DIV PUSH1 0xFF AND SWAP1 POP DUP4 JUMP JUMPDEST DUP1 PUSH1 0x1 PUSH0 CALLER PUSH20 0xFFFFFFFFFFFFFFFFFFFFFFFFFFFFFFFFFFFFFFFF AND PUSH20 0xFFFFFFFFFFFFFFFFFFFFFFFFFFFFFFFFFFFFFFFF AND DUP2 MSTORE PUSH1 0x20 ADD SWAP1 DUP2 MSTORE PUSH1 0x20 ADD PUSH0 KECCAK256 PUSH0 ADD DUP2 SWAP1 SSTORE POP NUMBER PUSH1 0x1 PUSH0 CALLER PUSH20 0xFFFFFFFFFFFFFFFFFFFFFFFFFFFFFFFFFFFFFFFF AND PUSH20 0xFFFFFFFFFFFFFFFFFFFFFFFFFFFFFFFFFFFFFFFF AND DUP2 MSTORE PUSH1 0x20 ADD SWAP1 DUP2 MSTORE PUSH1 0x20 ADD PUSH0 KECCAK256 PUSH1 0x1 ADD PUSH0 PUSH2 0x100 EXP DUP2 SLOAD DUP2 PUSH8 0xFFFFFFFFFFFFFFFF MUL NOT AND SWAP1 DUP4 PUSH8 0xFFFFFFFFFFFFFFFF AND MUL OR SWAP1 SSTORE POP PUSH0 PUSH1 0x1 PUSH0 CALLER PUSH20 0xFFFFFFFFFFFFFFFFFFFFFFFFFFFFFFFFFFFFFFFF AND PUSH20 0xFFFFFFFFFFFFFFFFFFFFFFFFFFFFFFFFFFFFFFFF AND DUP2 MSTORE PUSH1 0x20 ADD SWAP1 DUP2 MSTORE PUSH1 0x20 ADD PUSH0 KECCAK256 PUSH1 0x1 ADD PUSH1 0x8 PUSH2 0x100 EXP DUP2 SLOAD DUP2 PUSH1 0xFF MUL NOT AND SWAP1 DUP4 ISZERO ISZERO MUL OR SWAP1 SSTORE POP PUSH32 0x3C1A1F8F38335B17F751C6DA4BA7D1865F26B3997535176F5080DE9FAD891603 CALLER PUSH1 0x1 PUSH0 CALLER PUSH20 0xFFFFFFFFFFFFFFFFFFFFFFFFFFFFFFFFFFFFFFFF AND PUSH20 0xFFFFFFFFFFFFFFFFFFFFFFFFFFFFFFFFFFFFFFFF AND DUP2 MSTORE PUSH1 0x20 ADD SWAP1 DUP2 MSTORE PUSH1 0x20 ADD PUSH0 KECCAK256 PUSH0 ADD SLOAD PUSH1 0x1 PUSH0 CALLER PUSH20 0xFFFFFFFFFFFFFFFFFFFFFFFFFFFFFFFFFFFFFFFF AND PUSH20 0xFFFFFFFFFFFFFFFFFFFFFFFFFFFFFFFFFFFFFFFF AND DUP2 MSTORE PUSH1 0x20 ADD SWAP1 DUP2 MSTORE PUSH1 0x20 ADD PUSH0 KECCAK256 PUSH1 0x1 ADD PUSH0 SWAP1 SLOAD SWAP1 PUSH2 0x100 EXP SWAP1 DIV PUSH8 0xFFFFFFFFFFFFFFFF AND PUSH1 0x40 MLOAD PUSH2 0x71B SWAP4 SWAP3 SWAP2 SWAP1 PUSH2 0xCCE JUMP JUMPDEST PUSH1 0x40 MLOAD DUP1 SWAP2 SUB SWAP1 LOG1 POP JUMP JUMPDEST PUSH0 DUP1 REVERT JUMPDEST PUSH0 DUP2 SWAP1 POP SWAP2 SWAP1 POP JUMP JUMPDEST PUSH2 0x73C DUP2 PUSH2 0x72A JUMP JUMPDEST DUP2 EQ PUSH2 0x746 JUMPI PUSH0 DUP1 REVERT JUMPDEST POP JUMP JUMPDEST PUSH0 DUP2 CALLDATALOAD SWAP1 POP PUSH2 0x757 DUP2 PUSH2 0x733 JUMP JUMPDEST SWAP3 SWAP2 POP POP JUMP JUMPDEST PUSH0 PUSH1 0x20 DUP3 DUP5 SUB SLT ISZERO PUSH2 0x772 JUMPI PUSH2 0x771 PUSH2 0x726 JUMP JUMPDEST JUMPDEST PUSH0 PUSH2 0x77F DUP5 DUP3 DUP6 ADD PUSH2 0x749 JUMP JUMPDEST SWAP2 POP POP SWAP3 SWAP2 POP POP JUMP JUMPDEST PUSH2 0x791 DUP2 PUSH2 0x72A JUMP JUMPDEST DUP3 MSTORE POP POP JUMP JUMPDEST PUSH0 PUSH1 0x20 DUP3 ADD SWAP1 POP PUSH2 0x7AA PUSH0 DUP4 ADD DUP5 PUSH2 0x788 JUMP JUMPDEST SWAP3 SWAP2 POP POP JUMP JUMPDEST PUSH0 PUSH1 0xFF DUP3 AND SWAP1 POP SWAP2 SWAP1 POP JUMP JUMPDEST PUSH2 0x7C5 DUP2 PUSH2 0x7B0 JUMP JUMPDEST DUP3 MSTORE POP POP JUMP JUMPDEST PUSH0 PUSH1 0x20 DUP3 ADD SWAP1 POP PUSH2 0x7DE PUSH0 DUP4 ADD DUP5 PUSH2 0x7BC JUMP JUMPDEST SWAP3 SWAP2 POP POP JUMP JUMPDEST PUSH0 PUSH20 0xFFFFFFFFFFFFFFFFFFFFFFFFFFFFFFFFFFFFFFFF DUP3 AND SWAP1 POP SWAP2 SWAP1 POP JUMP JUMPDEST PUSH0 PUSH2 0x80D DUP3 PUSH2 0x7E4 JUMP JUMPDEST SWAP1 POP SWAP2 SWAP1 POP JUMP JUMPDEST PUSH2 0x81D DUP2 PUSH2 0x803 JUMP JUMPDEST DUP2 EQ PUSH2 0x827 JUMPI PUSH0 DUP1 REVERT JUMPDEST POP JUMP JUMPDEST PUSH0 DUP2 CALLDATALOAD SWAP1 POP PUSH2 0x838 DUP2 PUSH2 0x814 JUMP JUMPDEST SWAP3 SWAP2 POP POP JUMP JUMPDEST PUSH0 PUSH1 0x20 DUP3 DUP5 SUB SLT ISZERO PUSH2 0x853 JUMPI PUSH2 0x852 PUSH2 0x726 JUMP JUMPDEST JUMPDEST PUSH0 PUSH2 0x860 DUP5 DUP3 DUP6 ADD PUSH2 0x82A JUMP JUMPDEST SWAP2 POP POP SWAP3 SWAP2 POP POP JUMP JUMPDEST PUSH0 PUSH8 0xFFFFFFFFFFFFFFFF DUP3 AND SWAP1 POP SWAP2 SWAP1 POP JUMP JUMPDEST PUSH2 0x885 DUP2 PUSH2 0x869 JUMP JUMPDEST DUP3 MSTORE POP POP JUMP JUMPDEST PUSH0 DUP2 ISZERO ISZERO SWAP1 POP SWAP2 SWAP1 POP JUMP JUMPDEST PUSH2 0x89F DUP2 PUSH2 0x88B JUMP JUMPDEST DUP3 MSTORE POP POP JUMP JUMPDEST PUSH0 PUSH1 0x60 DUP3 ADD SWAP1 POP PUSH2 0x8B8 PUSH0 DUP4 ADD DUP7 PUSH2 0x788 JUMP JUMPDEST PUSH2 0x8C5 PUSH1 0x20 DUP4 ADD DUP6 PUSH2 0x87C JUMP JUMPDEST PUSH2 0x8D2 PUSH1 0x40 DUP4 ADD DUP5 PUSH2 0x896 JUMP JUMPDEST SWAP5 SWAP4 POP POP POP POP JUMP JUMPDEST PUSH0 DUP2 SWAP1 POP SWAP2 SWAP1 POP JUMP JUMPDEST PUSH2 0x8F4 PUSH2 0x8EF DUP3 PUSH2 0x72A JUMP JUMPDEST PUSH2 0x8DA JUMP JUMPDEST DUP3 MSTORE POP POP JUMP JUMPDEST PUSH0 PUSH2 0x905 DUP3 DUP5 PUSH2 0x8E3 JUMP JUMPDEST PUSH1 0x20 DUP3 ADD SWAP2 POP DUP2 SWAP1 POP SWAP3 SWAP2 POP POP JUMP JUMPDEST PUSH0 DUP3 DUP3 MSTORE PUSH1 0x20 DUP3 ADD SWAP1 POP SWAP3 SWAP2 POP POP JUMP JUMPDEST PUSH32 0x436F6D6D697452657665616C3A3A72657665616C3A20416C7265616479207265 PUSH0 DUP3 ADD MSTORE PUSH32 0x7665616C65640000000000000000000000000000000000000000000000000000 PUSH1 0x20 DUP3 ADD MSTORE POP JUMP JUMPDEST PUSH0 PUSH2 0x97E PUSH1 0x26 DUP4 PUSH2 0x914 JUMP JUMPDEST SWAP2 POP PUSH2 0x989 DUP3 PUSH2 0x924 JUMP JUMPDEST PUSH1 0x40 DUP3 ADD SWAP1 POP SWAP2 SWAP1 POP JUMP JUMPDEST PUSH0 PUSH1 0x20 DUP3 ADD SWAP1 POP DUP2 DUP2 SUB PUSH0 DUP4 ADD MSTORE PUSH2 0x9AB DUP2 PUSH2 0x972 JUMP JUMPDEST SWAP1 POP SWAP2 SWAP1 POP JUMP JUMPDEST PUSH32 0x436F6D6D697452657665616C3A3A72657665616C3A2052657665616C65642068 PUSH0 DUP3 ADD MSTORE PUSH32 0x61736820646F6573206E6F74206D6174636820636F6D6D697400000000000000 PUSH1 0x20 DUP3 ADD MSTORE POP JUMP JUMPDEST PUSH0 PUSH2 0xA0C PUSH1 0x39 DUP4 PUSH2 0x914 JUMP JUMPDEST SWAP2 POP PUSH2 0xA17 DUP3 PUSH2 0x9B2 JUMP JUMPDEST PUSH1 0x40 DUP3 ADD SWAP1 POP SWAP2 SWAP1 POP JUMP JUMPDEST PUSH0 PUSH1 0x20 DUP3 ADD SWAP1 POP DUP2 DUP2 SUB PUSH0 DUP4 ADD MSTORE PUSH2 0xA39 DUP2 PUSH2 0xA00 JUMP JUMPDEST SWAP1 POP SWAP2 SWAP1 POP JUMP JUMPDEST PUSH32 0x436F6D6D697452657665616C3A3A72657665616C3A2052657665616C20616E64 PUSH0 DUP3 ADD MSTORE PUSH32 0x20636F6D6D69742068617070656E6564206F6E207468652073616D6520626C6F PUSH1 0x20 DUP3 ADD MSTORE PUSH32 0x636B000000000000000000000000000000000000000000000000000000000000 PUSH1 0x40 DUP3 ADD MSTORE POP JUMP JUMPDEST PUSH0 PUSH2 0xAC0 PUSH1 0x42 DUP4 PUSH2 0x914 JUMP JUMPDEST SWAP2 POP PUSH2 0xACB DUP3 PUSH2 0xA40 JUMP JUMPDEST PUSH1 0x60 DUP3 ADD SWAP1 POP SWAP2 SWAP1 POP JUMP JUMPDEST PUSH0 PUSH1 0x20 DUP3 ADD SWAP1 POP DUP2 DUP2 SUB PUSH0 DUP4 ADD MSTORE PUSH2 0xAED DUP2 PUSH2 0xAB4 JUMP JUMPDEST SWAP1 POP SWAP2 SWAP1 POP JUMP JUMPDEST PUSH32 0x4E487B7100000000000000000000000000000000000000000000000000000000 PUSH0 MSTORE PUSH1 0x11 PUSH1 0x4 MSTORE PUSH1 0x24 PUSH0 REVERT JUMPDEST PUSH0 PUSH2 0xB2B DUP3 PUSH2 0x869 JUMP JUMPDEST SWAP2 POP PUSH2 0xB36 DUP4 PUSH2 0x869 JUMP JUMPDEST SWAP3 POP DUP3 DUP3 ADD SWAP1 POP PUSH8 0xFFFFFFFFFFFFFFFF DUP2 GT ISZERO PUSH2 0xB56 JUMPI PUSH2 0xB55 PUSH2 0xAF4 JUMP JUMPDEST JUMPDEST SWAP3 SWAP2 POP POP JUMP JUMPDEST PUSH32 0x436F6D6D697452657665616C3A3A72657665616C3A2052657665616C65642074 PUSH0 DUP3 ADD MSTORE PUSH32 0x6F6F206C61746500000000000000000000000000000000000000000000000000 PUSH1 0x20 DUP3 ADD MSTORE POP JUMP JUMPDEST PUSH0 PUSH2 0xBB6 PUSH1 0x27 DUP4 PUSH2 0x914 JUMP JUMPDEST SWAP2 POP PUSH2 0xBC1 DUP3 PUSH2 0xB5C JUMP JUMPDEST PUSH1 0x40 DUP3 ADD SWAP1 POP SWAP2 SWAP1 POP JUMP JUMPDEST PUSH0 PUSH1 0x20 DUP3 ADD SWAP1 POP DUP2 DUP2 SUB PUSH0 DUP4 ADD MSTORE PUSH2 0xBE3 DUP2 PUSH2 0xBAA JUMP JUMPDEST SWAP1 POP SWAP2 SWAP1 POP JUMP JUMPDEST PUSH0 PUSH2 0xBF5 DUP3 DUP6 PUSH2 0x8E3 JUMP JUMPDEST PUSH1 0x20 DUP3 ADD SWAP2 POP PUSH2 0xC05 DUP3 DUP5 PUSH2 0x8E3 JUMP JUMPDEST PUSH1 0x20 DUP3 ADD SWAP2 POP DUP2 SWAP1 POP SWAP4 SWAP3 POP POP POP JUMP JUMPDEST PUSH0 DUP2 SWAP1 POP SWAP2 SWAP1 POP JUMP JUMPDEST PUSH32 0x4E487B7100000000000000000000000000000000000000000000000000000000 PUSH0 MSTORE PUSH1 0x12 PUSH1 0x4 MSTORE PUSH1 0x24 PUSH0 REVERT JUMPDEST PUSH0 PUSH2 0xC55 DUP3 PUSH2 0xC15 JUMP JUMPDEST SWAP2 POP PUSH2 0xC60 DUP4 PUSH2 0xC15 JUMP JUMPDEST SWAP3 POP DUP3 PUSH2 0xC70 JUMPI PUSH2 0xC6F PUSH2 0xC1E JUMP JUMPDEST JUMPDEST DUP3 DUP3 MOD SWAP1 POP SWAP3 SWAP2 POP POP JUMP JUMPDEST PUSH2 0xC84 DUP2 PUSH2 0x803 JUMP JUMPDEST DUP3 MSTORE POP POP JUMP JUMPDEST PUSH2 0xC93 DUP2 PUSH2 0xC15 JUMP JUMPDEST DUP3 MSTORE POP POP JUMP JUMPDEST PUSH0 PUSH1 0x60 DUP3 ADD SWAP1 POP PUSH2 0xCAC PUSH0 DUP4 ADD DUP7 PUSH2 0xC7B JUMP JUMPDEST PUSH2 0xCB9 PUSH1 0x20 DUP4 ADD DUP6 PUSH2 0x788 JUMP JUMPDEST PUSH2 0xCC6 PUSH1 0x40 DUP4 ADD DUP5 PUSH2 0xC8A JUMP JUMPDEST SWAP5 SWAP4 POP POP POP POP JUMP JUMPDEST PUSH0 PUSH1 0x60 DUP3 ADD SWAP1 POP PUSH2 0xCE1 PUSH0 DUP4 ADD DUP7 PUSH2 0xC7B JUMP JUMPDEST PUSH2 0xCEE PUSH1 0x20 DUP4 ADD DUP6 PUSH2 0x788 JUMP JUMPDEST PUSH2 0xCFB PUSH1 0x40 DUP4 ADD DUP5 PUSH2 0x87C JUMP JUMPDEST SWAP5 SWAP4 POP POP POP POP JUMP INVALID LOG2 PUSH5 0x6970667358 0x22 SLT KECCAK256 0x1E 0xAF 0xC9 EXP PUSH24 0xE60DAF17AA211974ECE341FFD58201CA08DFBA4A59A1A10B SELFDESTRUCT MCOPY 0xE0 PUSH5 0x736F6C6343 STOP ADDMOD BYTE STOP CALLER "
				},
				"gasEstimates": {
					"creation": {
						"codeDepositCost": "967600",
						"executionCost": "infinite",
						"totalCost": "infinite"
					},
					"external": {
						"addPlayer()": "infinite",
						"checkTimeOut()": "infinite",
						"commitReveal()": "infinite",
						"input(bytes32)": "infinite",
						"numInput()": "2426",
						"numPlayer()": "2424",
						"player_not_played(address)": "2856",
						"players(uint256)": "5032",
						"reward()": "2470"
					},
					"internal": {
						"_checkWinnerAndPay()": "infinite",
						"getValid()": "infinite",
						"resetGame()": "infinite"
					}
				},
				"methodIdentifiers": {
					"addPlayer()": "27b5db8a",
					"checkTimeOut()": "b7786503",
					"commitReveal()": "9d7b3f2d",
					"input(bytes32)": "d891f969",
					"numInput()": "086f7815",
					"numPlayer()": "90d5d0c3",
					"player_not_played(address)": "190cf745",
					"players(uint256)": "f71d96cb",
					"reward()": "228cb733"
				}
			},
			"storageLayout": {
				"storage": [
					{
						"astId": 206,
						"contract": "RPS.sol:RPS",
						"label": "numPlayer",
						"offset": 0,
						"slot": "0",
						"type": "t_uint256"
					},
					{
						"astId": 209,
						"contract": "RPS.sol:RPS",
						"label": "reward",
						"offset": 0,
						"slot": "1",
						"type": "t_uint256"
					},
					{
						"astId": 213,
						"contract": "RPS.sol:RPS",
						"label": "player_choice_commit",
						"offset": 0,
						"slot": "2",
						"type": "t_mapping(t_address,t_bytes32)"
					},
					{
						"astId": 217,
						"contract": "RPS.sol:RPS",
						"label": "player_choice",
						"offset": 0,
						"slot": "3",
						"type": "t_mapping(t_address,t_uint256)"
					},
					{
						"astId": 221,
						"contract": "RPS.sol:RPS",
						"label": "player_not_played",
						"offset": 0,
						"slot": "4",
						"type": "t_mapping(t_address,t_bool)"
					},
					{
						"astId": 224,
						"contract": "RPS.sol:RPS",
						"label": "players",
						"offset": 0,
						"slot": "5",
						"type": "t_array(t_address)dyn_storage"
					},
					{
						"astId": 227,
						"contract": "RPS.sol:RPS",
						"label": "numInput",
						"offset": 0,
						"slot": "6",
						"type": "t_uint256"
					},
					{
						"astId": 234,
						"contract": "RPS.sol:RPS",
						"label": "timeUnit",
						"offset": 0,
						"slot": "7",
						"type": "t_contract(TimeUnit)703"
					},
					{
						"astId": 237,
						"contract": "RPS.sol:RPS",
						"label": "timeOut",
						"offset": 0,
						"slot": "8",
						"type": "t_uint256"
					},
					{
						"astId": 244,
						"contract": "RPS.sol:RPS",
						"label": "commitReveal",
						"offset": 0,
						"slot": "9",
						"type": "t_contract(CommitReveal)199"
					},
					{
						"astId": 253,
						"contract": "RPS.sol:RPS",
						"label": "playerAccept",
						"offset": 0,
						"slot": "10",
						"type": "t_array(t_address)4_storage"
					}
				],
				"types": {
					"t_address": {
						"encoding": "inplace",
						"label": "address",
						"numberOfBytes": "20"
					},
					"t_array(t_address)4_storage": {
						"base": "t_address",
						"encoding": "inplace",
						"label": "address[4]",
						"numberOfBytes": "128"
					},
					"t_array(t_address)dyn_storage": {
						"base": "t_address",
						"encoding": "dynamic_array",
						"label": "address[]",
						"numberOfBytes": "32"
					},
					"t_bool": {
						"encoding": "inplace",
						"label": "bool",
						"numberOfBytes": "1"
					},
					"t_bytes32": {
						"encoding": "inplace",
						"label": "bytes32",
						"numberOfBytes": "32"
					},
					"t_contract(CommitReveal)199": {
						"encoding": "inplace",
						"label": "contract CommitReveal",
						"numberOfBytes": "20"
					},
					"t_contract(TimeUnit)703": {
						"encoding": "inplace",
						"label": "contract TimeUnit",
						"numberOfBytes": "20"
					},
					"t_mapping(t_address,t_bool)": {
						"encoding": "mapping",
						"key": "t_address",
						"label": "mapping(address => bool)",
						"numberOfBytes": "32",
						"value": "t_bool"
					},
					"t_mapping(t_address,t_bytes32)": {
						"encoding": "mapping",
						"key": "t_address",
						"label": "mapping(address => bytes32)",
						"numberOfBytes": "32",
						"value": "t_bytes32"
					},
					"t_mapping(t_address,t_uint256)": {
						"encoding": "mapping",
						"key": "t_address",
						"label": "mapping(address => uint256)",
						"numberOfBytes": "32",
						"value": "t_uint256"
					},
					"t_uint256": {
						"encoding": "inplace",
						"label": "uint256",
						"numberOfBytes": "32"
					}
				}
			},
			"userdoc": {
				"kind": "user",
				"methods": {},
				"version": 1
			}
		}
	}
}