{
	"test.sol": {
		"RPS": {
			"abi": [
				{
					"inputs": [],
					"name": "addPlayer",
					"outputs": [],
					"stateMutability": "payable",
					"type": "function"
				},
				{
					"inputs": [
						{
							"internalType": "uint256",
							"name": "choice",
							"type": "uint256"
						}
					],
					"name": "input",
					"outputs": [],
					"stateMutability": "nonpayable",
					"type": "function"
				},
				{
					"inputs": [],
					"name": "numInput",
					"outputs": [
						{
							"internalType": "uint256",
							"name": "",
							"type": "uint256"
						}
					],
					"stateMutability": "view",
					"type": "function"
				},
				{
					"inputs": [],
					"name": "numPlayer",
					"outputs": [
						{
							"internalType": "uint256",
							"name": "",
							"type": "uint256"
						}
					],
					"stateMutability": "view",
					"type": "function"
				},
				{
					"inputs": [
						{
							"internalType": "address",
							"name": "",
							"type": "address"
						}
					],
					"name": "player_choice",
					"outputs": [
						{
							"internalType": "uint256",
							"name": "",
							"type": "uint256"
						}
					],
					"stateMutability": "view",
					"type": "function"
				},
				{
					"inputs": [
						{
							"internalType": "address",
							"name": "",
							"type": "address"
						}
					],
					"name": "player_not_played",
					"outputs": [
						{
							"internalType": "bool",
							"name": "",
							"type": "bool"
						}
					],
					"stateMutability": "view",
					"type": "function"
				},
				{
					"inputs": [
						{
							"internalType": "uint256",
							"name": "",
							"type": "uint256"
						}
					],
					"name": "players",
					"outputs": [
						{
							"internalType": "address",
							"name": "",
							"type": "address"
						}
					],
					"stateMutability": "view",
					"type": "function"
				},
				{
					"inputs": [],
					"name": "reward",
					"outputs": [
						{
							"internalType": "uint256",
							"name": "",
							"type": "uint256"
						}
					],
					"stateMutability": "view",
					"type": "function"
				}
			],
			"devdoc": {
				"kind": "dev",
				"methods": {},
				"version": 1
			},
			"evm": {
				"assembly": "    /* \"test.sol\":76:1789  contract RPS {... */\n  mstore(0x40, 0x80)\n    /* \"test.sol\":120:121  0 */\n  0x00\n    /* \"test.sol\":96:121  uint public numPlayer = 0 */\n  dup1\n  sstore\n    /* \"test.sol\":149:150  0 */\n  0x00\n    /* \"test.sol\":128:150  uint public reward = 0 */\n  0x01\n  sstore\n    /* \"test.sol\":360:361  0 */\n  0x00\n    /* \"test.sol\":337:361  uint public numInput = 0 */\n  0x05\n  sstore\n    /* \"test.sol\":76:1789  contract RPS {... */\n  callvalue\n  dup1\n  iszero\n  tag_1\n  jumpi\n  0x00\n  dup1\n  revert\ntag_1:\n  pop\n  dataSize(sub_0)\n  dup1\n  dataOffset(sub_0)\n  0x00\n  codecopy\n  0x00\n  return\nstop\n\nsub_0: assembly {\n        /* \"test.sol\":76:1789  contract RPS {... */\n      mstore(0x40, 0x80)\n      jumpi(tag_1, lt(calldatasize, 0x04))\n      shr(0xe0, calldataload(0x00))\n      dup1\n      0x90d5d0c3\n      gt\n      tag_10\n      jumpi\n      dup1\n      0x90d5d0c3\n      eq\n      tag_6\n      jumpi\n      dup1\n      0xa040478d\n      eq\n      tag_7\n      jumpi\n      dup1\n      0xce6e1c4e\n      eq\n      tag_8\n      jumpi\n      dup1\n      0xf71d96cb\n      eq\n      tag_9\n      jumpi\n      jump(tag_1)\n    tag_10:\n      dup1\n      0x086f7815\n      eq\n      tag_2\n      jumpi\n      dup1\n      0x190cf745\n      eq\n      tag_3\n      jumpi\n      dup1\n      0x228cb733\n      eq\n      tag_4\n      jumpi\n      dup1\n      0x27b5db8a\n      eq\n      tag_5\n      jumpi\n    tag_1:\n      0x00\n      dup1\n      revert\n        /* \"test.sol\":337:361  uint public numInput = 0 */\n    tag_2:\n      callvalue\n      dup1\n      iszero\n      tag_11\n      jumpi\n      0x00\n      dup1\n      revert\n    tag_11:\n      pop\n      tag_12\n      tag_13\n      jump\t// in\n    tag_12:\n      mload(0x40)\n      tag_14\n      swap2\n      swap1\n      tag_15\n      jump\t// in\n    tag_14:\n      mload(0x40)\n      dup1\n      swap2\n      sub\n      swap1\n      return\n        /* \"test.sol\":248:297  mapping(address => bool) public player_not_played */\n    tag_3:\n      callvalue\n      dup1\n      iszero\n      tag_16\n      jumpi\n      0x00\n      dup1\n      revert\n    tag_16:\n      pop\n      tag_17\n      0x04\n      dup1\n      calldatasize\n      sub\n      dup2\n      add\n      swap1\n      tag_18\n      swap2\n      swap1\n      tag_19\n      jump\t// in\n    tag_18:\n      tag_20\n      jump\t// in\n    tag_17:\n      mload(0x40)\n      tag_21\n      swap2\n      swap1\n      tag_22\n      jump\t// in\n    tag_21:\n      mload(0x40)\n      dup1\n      swap2\n      sub\n      swap1\n      return\n        /* \"test.sol\":128:150  uint public reward = 0 */\n    tag_4:\n      callvalue\n      dup1\n      iszero\n      tag_23\n      jumpi\n      0x00\n      dup1\n      revert\n    tag_23:\n      pop\n      tag_24\n      tag_25\n      jump\t// in\n    tag_24:\n      mload(0x40)\n      tag_26\n      swap2\n      swap1\n      tag_15\n      jump\t// in\n    tag_26:\n      mload(0x40)\n      dup1\n      swap2\n      sub\n      swap1\n      return\n        /* \"test.sol\":370:710  function addPlayer() public payable {... */\n    tag_5:\n      tag_27\n      tag_28\n      jump\t// in\n    tag_27:\n      stop\n        /* \"test.sol\":96:121  uint public numPlayer = 0 */\n    tag_6:\n      callvalue\n      dup1\n      iszero\n      tag_29\n      jumpi\n      0x00\n      dup1\n      revert\n    tag_29:\n      pop\n      tag_30\n      tag_31\n      jump\t// in\n    tag_30:\n      mload(0x40)\n      tag_32\n      swap2\n      swap1\n      tag_15\n      jump\t// in\n    tag_32:\n      mload(0x40)\n      dup1\n      swap2\n      sub\n      swap1\n      return\n        /* \"test.sol\":157:203  mapping (address => uint) public player_choice */\n    tag_7:\n      callvalue\n      dup1\n      iszero\n      tag_33\n      jumpi\n      0x00\n      dup1\n      revert\n    tag_33:\n      pop\n      tag_34\n      0x04\n      dup1\n      calldatasize\n      sub\n      dup2\n      add\n      swap1\n      tag_35\n      swap2\n      swap1\n      tag_19\n      jump\t// in\n    tag_35:\n      tag_36\n      jump\t// in\n    tag_34:\n      mload(0x40)\n      tag_37\n      swap2\n      swap1\n      tag_15\n      jump\t// in\n    tag_37:\n      mload(0x40)\n      dup1\n      swap2\n      sub\n      swap1\n      return\n        /* \"test.sol\":718:1096  function input(uint choice) public  {... */\n    tag_8:\n      callvalue\n      dup1\n      iszero\n      tag_38\n      jumpi\n      0x00\n      dup1\n      revert\n    tag_38:\n      pop\n      tag_39\n      0x04\n      dup1\n      calldatasize\n      sub\n      dup2\n      add\n      swap1\n      tag_40\n      swap2\n      swap1\n      tag_41\n      jump\t// in\n    tag_40:\n      tag_42\n      jump\t// in\n    tag_39:\n      stop\n        /* \"test.sol\":304:328  address[] public players */\n    tag_9:\n      callvalue\n      dup1\n      iszero\n      tag_43\n      jumpi\n      0x00\n      dup1\n      revert\n    tag_43:\n      pop\n      tag_44\n      0x04\n      dup1\n      calldatasize\n      sub\n      dup2\n      add\n      swap1\n      tag_45\n      swap2\n      swap1\n      tag_41\n      jump\t// in\n    tag_45:\n      tag_46\n      jump\t// in\n    tag_44:\n      mload(0x40)\n      tag_47\n      swap2\n      swap1\n      tag_48\n      jump\t// in\n    tag_47:\n      mload(0x40)\n      dup1\n      swap2\n      sub\n      swap1\n      return\n        /* \"test.sol\":337:361  uint public numInput = 0 */\n    tag_13:\n      sload(0x05)\n      dup2\n      jump\t// out\n        /* \"test.sol\":248:297  mapping(address => bool) public player_not_played */\n    tag_20:\n      mstore(0x20, 0x03)\n      dup1\n      0x00\n      mstore\n      keccak256(0x00, 0x40)\n      0x00\n      swap2\n      pop\n      sload\n      swap1\n      0x0100\n      exp\n      swap1\n      div\n      0xff\n      and\n      dup2\n      jump\t// out\n        /* \"test.sol\":128:150  uint public reward = 0 */\n    tag_25:\n      sload(0x01)\n      dup2\n      jump\t// out\n        /* \"test.sol\":370:710  function addPlayer() public payable {... */\n    tag_28:\n        /* \"test.sol\":437:438  2 */\n      0x02\n        /* \"test.sol\":425:434  numPlayer */\n      sload(0x00)\n        /* \"test.sol\":425:438  numPlayer < 2 */\n      lt\n        /* \"test.sol\":417:439  require(numPlayer < 2) */\n      tag_50\n      jumpi\n      0x00\n      dup1\n      revert\n    tag_50:\n        /* \"test.sol\":466:467  0 */\n      0x00\n        /* \"test.sol\":454:463  numPlayer */\n      dup1\n      sload\n        /* \"test.sol\":454:467  numPlayer > 0 */\n      gt\n        /* \"test.sol\":450:529  if (numPlayer > 0) {... */\n      iszero\n      tag_51\n      jumpi\n        /* \"test.sol\":506:513  players */\n      0x04\n        /* \"test.sol\":514:515  0 */\n      0x00\n        /* \"test.sol\":506:516  players[0] */\n      dup2\n      sload\n      dup2\n      lt\n      tag_52\n      jumpi\n      tag_53\n      tag_54\n      jump\t// in\n    tag_53:\n    tag_52:\n      swap1\n      0x00\n      mstore\n      keccak256(0x00, 0x20)\n      add\n      0x00\n      swap1\n      sload\n      swap1\n      0x0100\n      exp\n      swap1\n      div\n      0xffffffffffffffffffffffffffffffffffffffff\n      and\n        /* \"test.sol\":492:516  msg.sender != players[0] */\n      0xffffffffffffffffffffffffffffffffffffffff\n      and\n        /* \"test.sol\":492:502  msg.sender */\n      caller\n        /* \"test.sol\":492:516  msg.sender != players[0] */\n      0xffffffffffffffffffffffffffffffffffffffff\n      and\n      sub\n        /* \"test.sol\":484:517  require(msg.sender != players[0]) */\n      tag_56\n      jumpi\n      0x00\n      dup1\n      revert\n    tag_56:\n        /* \"test.sol\":450:529  if (numPlayer > 0) {... */\n    tag_51:\n        /* \"test.sol\":560:567  1 ether */\n      0x0de0b6b3a7640000\n        /* \"test.sol\":547:556  msg.value */\n      callvalue\n        /* \"test.sol\":547:567  msg.value == 1 ether */\n      eq\n        /* \"test.sol\":539:568  require(msg.value == 1 ether) */\n      tag_57\n      jumpi\n      0x00\n      dup1\n      revert\n    tag_57:\n        /* \"test.sol\":589:598  msg.value */\n      callvalue\n        /* \"test.sol\":579:585  reward */\n      0x01\n      0x00\n        /* \"test.sol\":579:598  reward += msg.value */\n      dup3\n      dup3\n      sload\n      tag_58\n      swap2\n      swap1\n      tag_59\n      jump\t// in\n    tag_58:\n      swap3\n      pop\n      pop\n      dup2\n      swap1\n      sstore\n      pop\n        /* \"test.sol\":641:645  true */\n      0x01\n        /* \"test.sol\":609:626  player_not_played */\n      0x03\n        /* \"test.sol\":609:638  player_not_played[msg.sender] */\n      0x00\n        /* \"test.sol\":627:637  msg.sender */\n      caller\n        /* \"test.sol\":609:638  player_not_played[msg.sender] */\n      0xffffffffffffffffffffffffffffffffffffffff\n      and\n      0xffffffffffffffffffffffffffffffffffffffff\n      and\n      dup2\n      mstore\n      0x20\n      add\n      swap1\n      dup2\n      mstore\n      0x20\n      add\n      0x00\n      keccak256\n      0x00\n        /* \"test.sol\":609:645  player_not_played[msg.sender] = true */\n      0x0100\n      exp\n      dup2\n      sload\n      dup2\n      0xff\n      mul\n      not\n      and\n      swap1\n      dup4\n      iszero\n      iszero\n      mul\n      or\n      swap1\n      sstore\n      pop\n        /* \"test.sol\":656:663  players */\n      0x04\n        /* \"test.sol\":669:679  msg.sender */\n      caller\n        /* \"test.sol\":656:680  players.push(msg.sender) */\n      swap1\n      dup1\n      0x01\n      dup2\n      sload\n      add\n      dup1\n      dup3\n      sstore\n      dup1\n      swap2\n      pop\n      pop\n      0x01\n      swap1\n      sub\n      swap1\n      0x00\n      mstore\n      keccak256(0x00, 0x20)\n      add\n      0x00\n      swap1\n      swap2\n      swap1\n      swap2\n      swap1\n      swap2\n      0x0100\n      exp\n      dup2\n      sload\n      dup2\n      0xffffffffffffffffffffffffffffffffffffffff\n      mul\n      not\n      and\n      swap1\n      dup4\n      0xffffffffffffffffffffffffffffffffffffffff\n      and\n      mul\n      or\n      swap1\n      sstore\n      pop\n        /* \"test.sol\":691:700  numPlayer */\n      0x00\n      dup1\n        /* \"test.sol\":691:702  numPlayer++ */\n      dup2\n      sload\n      dup1\n      swap3\n      swap2\n      swap1\n      tag_61\n      swap1\n      tag_62\n      jump\t// in\n    tag_61:\n      swap2\n      swap1\n      pop\n      sstore\n      pop\n        /* \"test.sol\":370:710  function addPlayer() public payable {... */\n      jump\t// out\n        /* \"test.sol\":96:121  uint public numPlayer = 0 */\n    tag_31:\n      sload(0x00)\n      dup2\n      jump\t// out\n        /* \"test.sol\":157:203  mapping (address => uint) public player_choice */\n    tag_36:\n      mstore(0x20, 0x02)\n      dup1\n      0x00\n      mstore\n      keccak256(0x00, 0x40)\n      0x00\n      swap2\n      pop\n      swap1\n      pop\n      sload\n      dup2\n      jump\t// out\n        /* \"test.sol\":718:1096  function input(uint choice) public  {... */\n    tag_42:\n        /* \"test.sol\":786:787  2 */\n      0x02\n        /* \"test.sol\":773:782  numPlayer */\n      sload(0x00)\n        /* \"test.sol\":773:787  numPlayer == 2 */\n      eq\n        /* \"test.sol\":765:788  require(numPlayer == 2) */\n      tag_64\n      jumpi\n      0x00\n      dup1\n      revert\n    tag_64:\n        /* \"test.sol\":807:824  player_not_played */\n      0x03\n        /* \"test.sol\":807:836  player_not_played[msg.sender] */\n      0x00\n        /* \"test.sol\":825:835  msg.sender */\n      caller\n        /* \"test.sol\":807:836  player_not_played[msg.sender] */\n      0xffffffffffffffffffffffffffffffffffffffff\n      and\n      0xffffffffffffffffffffffffffffffffffffffff\n      and\n      dup2\n      mstore\n      0x20\n      add\n      swap1\n      dup2\n      mstore\n      0x20\n      add\n      0x00\n      keccak256\n      0x00\n      swap1\n      sload\n      swap1\n      0x0100\n      exp\n      swap1\n      div\n      0xff\n      and\n        /* \"test.sol\":799:837  require(player_not_played[msg.sender]) */\n      tag_65\n      jumpi\n      0x00\n      dup1\n      revert\n    tag_65:\n        /* \"test.sol\":866:867  0 */\n      0x00\n        /* \"test.sol\":856:862  choice */\n      dup2\n        /* \"test.sol\":856:867  choice == 0 */\n      eq\n        /* \"test.sol\":856:882  choice == 0 || choice == 1 */\n      dup1\n      tag_66\n      jumpi\n      pop\n        /* \"test.sol\":881:882  1 */\n      0x01\n        /* \"test.sol\":871:877  choice */\n      dup2\n        /* \"test.sol\":871:882  choice == 1 */\n      eq\n        /* \"test.sol\":856:882  choice == 0 || choice == 1 */\n    tag_66:\n        /* \"test.sol\":856:897  choice == 0 || choice == 1 || choice == 2 */\n      dup1\n      tag_67\n      jumpi\n      pop\n        /* \"test.sol\":896:897  2 */\n      0x02\n        /* \"test.sol\":886:892  choice */\n      dup2\n        /* \"test.sol\":886:897  choice == 2 */\n      eq\n        /* \"test.sol\":856:897  choice == 0 || choice == 1 || choice == 2 */\n    tag_67:\n        /* \"test.sol\":848:898  require(choice == 0 || choice == 1 || choice == 2) */\n      tag_68\n      jumpi\n      0x00\n      dup1\n      revert\n    tag_68:\n        /* \"test.sol\":937:943  choice */\n      dup1\n        /* \"test.sol\":909:922  player_choice */\n      0x02\n        /* \"test.sol\":909:934  player_choice[msg.sender] */\n      0x00\n        /* \"test.sol\":923:933  msg.sender */\n      caller\n        /* \"test.sol\":909:934  player_choice[msg.sender] */\n      0xffffffffffffffffffffffffffffffffffffffff\n      and\n      0xffffffffffffffffffffffffffffffffffffffff\n      and\n      dup2\n      mstore\n      0x20\n      add\n      swap1\n      dup2\n      mstore\n      0x20\n      add\n      0x00\n      keccak256\n        /* \"test.sol\":909:943  player_choice[msg.sender] = choice */\n      dup2\n      swap1\n      sstore\n      pop\n        /* \"test.sol\":986:991  false */\n      0x00\n        /* \"test.sol\":954:971  player_not_played */\n      0x03\n        /* \"test.sol\":954:983  player_not_played[msg.sender] */\n      0x00\n        /* \"test.sol\":972:982  msg.sender */\n      caller\n        /* \"test.sol\":954:983  player_not_played[msg.sender] */\n      0xffffffffffffffffffffffffffffffffffffffff\n      and\n      0xffffffffffffffffffffffffffffffffffffffff\n      and\n      dup2\n      mstore\n      0x20\n      add\n      swap1\n      dup2\n      mstore\n      0x20\n      add\n      0x00\n      keccak256\n      0x00\n        /* \"test.sol\":954:991  player_not_played[msg.sender] = false */\n      0x0100\n      exp\n      dup2\n      sload\n      dup2\n      0xff\n      mul\n      not\n      and\n      swap1\n      dup4\n      iszero\n      iszero\n      mul\n      or\n      swap1\n      sstore\n      pop\n        /* \"test.sol\":1002:1010  numInput */\n      0x05\n      0x00\n        /* \"test.sol\":1002:1012  numInput++ */\n      dup2\n      sload\n      dup1\n      swap3\n      swap2\n      swap1\n      tag_69\n      swap1\n      tag_62\n      jump\t// in\n    tag_69:\n      swap2\n      swap1\n      pop\n      sstore\n      pop\n        /* \"test.sol\":1039:1040  2 */\n      0x02\n        /* \"test.sol\":1027:1035  numInput */\n      sload(0x05)\n        /* \"test.sol\":1027:1040  numInput == 2 */\n      sub\n        /* \"test.sol\":1023:1089  if (numInput == 2) {... */\n      tag_70\n      jumpi\n        /* \"test.sol\":1057:1077  _checkWinnerAndPay() */\n      tag_71\n        /* \"test.sol\":1057:1075  _checkWinnerAndPay */\n      tag_72\n        /* \"test.sol\":1057:1077  _checkWinnerAndPay() */\n      jump\t// in\n    tag_71:\n        /* \"test.sol\":1023:1089  if (numInput == 2) {... */\n    tag_70:\n        /* \"test.sol\":718:1096  function input(uint choice) public  {... */\n      pop\n      jump\t// out\n        /* \"test.sol\":304:328  address[] public players */\n    tag_46:\n      0x04\n      dup2\n      dup2\n      sload\n      dup2\n      lt\n      tag_73\n      jumpi\n      0x00\n      dup1\n      revert\n    tag_73:\n      swap1\n      0x00\n      mstore\n      keccak256(0x00, 0x20)\n      add\n      0x00\n      swap2\n      pop\n      sload\n      swap1\n      0x0100\n      exp\n      swap1\n      div\n      0xffffffffffffffffffffffffffffffffffffffff\n      and\n      dup2\n      jump\t// out\n        /* \"test.sol\":1104:1786  function _checkWinnerAndPay() private {... */\n    tag_72:\n        /* \"test.sol\":1153:1166  uint p0Choice */\n      0x00\n        /* \"test.sol\":1169:1182  player_choice */\n      0x02\n        /* \"test.sol\":1169:1194  player_choice[players[0]] */\n      0x00\n        /* \"test.sol\":1183:1190  players */\n      0x04\n        /* \"test.sol\":1191:1192  0 */\n      0x00\n        /* \"test.sol\":1183:1193  players[0] */\n      dup2\n      sload\n      dup2\n      lt\n      tag_76\n      jumpi\n      tag_77\n      tag_54\n      jump\t// in\n    tag_77:\n    tag_76:\n      swap1\n      0x00\n      mstore\n      keccak256(0x00, 0x20)\n      add\n      0x00\n      swap1\n      sload\n      swap1\n      0x0100\n      exp\n      swap1\n      div\n      0xffffffffffffffffffffffffffffffffffffffff\n      and\n        /* \"test.sol\":1169:1194  player_choice[players[0]] */\n      0xffffffffffffffffffffffffffffffffffffffff\n      and\n      0xffffffffffffffffffffffffffffffffffffffff\n      and\n      dup2\n      mstore\n      0x20\n      add\n      swap1\n      dup2\n      mstore\n      0x20\n      add\n      0x00\n      keccak256\n      sload\n        /* \"test.sol\":1153:1194  uint p0Choice = player_choice[players[0]] */\n      swap1\n      pop\n        /* \"test.sol\":1205:1218  uint p1Choice */\n      0x00\n        /* \"test.sol\":1221:1234  player_choice */\n      0x02\n        /* \"test.sol\":1221:1246  player_choice[players[1]] */\n      0x00\n        /* \"test.sol\":1235:1242  players */\n      0x04\n        /* \"test.sol\":1243:1244  1 */\n      0x01\n        /* \"test.sol\":1235:1245  players[1] */\n      dup2\n      sload\n      dup2\n      lt\n      tag_79\n      jumpi\n      tag_80\n      tag_54\n      jump\t// in\n    tag_80:\n    tag_79:\n      swap1\n      0x00\n      mstore\n      keccak256(0x00, 0x20)\n      add\n      0x00\n      swap1\n      sload\n      swap1\n      0x0100\n      exp\n      swap1\n      div\n      0xffffffffffffffffffffffffffffffffffffffff\n      and\n        /* \"test.sol\":1221:1246  player_choice[players[1]] */\n      0xffffffffffffffffffffffffffffffffffffffff\n      and\n      0xffffffffffffffffffffffffffffffffffffffff\n      and\n      dup2\n      mstore\n      0x20\n      add\n      swap1\n      dup2\n      mstore\n      0x20\n      add\n      0x00\n      keccak256\n      sload\n        /* \"test.sol\":1205:1246  uint p1Choice = player_choice[players[1]] */\n      swap1\n      pop\n        /* \"test.sol\":1257:1281  address payable account0 */\n      0x00\n        /* \"test.sol\":1292:1299  players */\n      0x04\n        /* \"test.sol\":1300:1301  0 */\n      0x00\n        /* \"test.sol\":1292:1302  players[0] */\n      dup2\n      sload\n      dup2\n      lt\n      tag_82\n      jumpi\n      tag_83\n      tag_54\n      jump\t// in\n    tag_83:\n    tag_82:\n      swap1\n      0x00\n      mstore\n      keccak256(0x00, 0x20)\n      add\n      0x00\n      swap1\n      sload\n      swap1\n      0x0100\n      exp\n      swap1\n      div\n      0xffffffffffffffffffffffffffffffffffffffff\n      and\n        /* \"test.sol\":1257:1303  address payable account0 = payable(players[0]) */\n      swap1\n      pop\n        /* \"test.sol\":1314:1338  address payable account1 */\n      0x00\n        /* \"test.sol\":1349:1356  players */\n      0x04\n        /* \"test.sol\":1357:1358  1 */\n      0x01\n        /* \"test.sol\":1349:1359  players[1] */\n      dup2\n      sload\n      dup2\n      lt\n      tag_85\n      jumpi\n      tag_86\n      tag_54\n      jump\t// in\n    tag_86:\n    tag_85:\n      swap1\n      0x00\n      mstore\n      keccak256(0x00, 0x20)\n      add\n      0x00\n      swap1\n      sload\n      swap1\n      0x0100\n      exp\n      swap1\n      div\n      0xffffffffffffffffffffffffffffffffffffffff\n      and\n        /* \"test.sol\":1314:1360  address payable account1 = payable(players[1]) */\n      swap1\n      pop\n        /* \"test.sol\":1397:1405  p1Choice */\n      dup3\n        /* \"test.sol\":1392:1393  3 */\n      0x03\n        /* \"test.sol\":1387:1388  1 */\n      0x01\n        /* \"test.sol\":1376:1384  p0Choice */\n      dup7\n        /* \"test.sol\":1376:1388  p0Choice + 1 */\n      tag_88\n      swap2\n      swap1\n      tag_59\n      jump\t// in\n    tag_88:\n        /* \"test.sol\":1375:1393  (p0Choice + 1) % 3 */\n      tag_89\n      swap2\n      swap1\n      tag_90\n      jump\t// in\n    tag_89:\n        /* \"test.sol\":1375:1405  (p0Choice + 1) % 3 == p1Choice */\n      sub\n        /* \"test.sol\":1371:1779  if ((p0Choice + 1) % 3 == p1Choice) {... */\n      tag_91\n      jumpi\n        /* \"test.sol\":1455:1463  account1 */\n      dup1\n        /* \"test.sol\":1455:1472  account1.transfer */\n      0xffffffffffffffffffffffffffffffffffffffff\n      and\n        /* \"test.sol\":1455:1480  account1.transfer(reward) */\n      0x08fc\n        /* \"test.sol\":1473:1479  reward */\n      sload(0x01)\n        /* \"test.sol\":1455:1480  account1.transfer(reward) */\n      swap1\n      dup2\n      iszero\n      mul\n      swap1\n      mload(0x40)\n      0x00\n      mload(0x40)\n      dup1\n      dup4\n      sub\n      dup2\n      dup6\n      dup9\n      dup9\n      call\n      swap4\n      pop\n      pop\n      pop\n      pop\n      iszero\n      dup1\n      iszero\n      tag_93\n      jumpi\n      returndatasize\n      0x00\n      dup1\n      returndatacopy\n      revert(0x00, returndatasize)\n    tag_93:\n      pop\n        /* \"test.sol\":1371:1779  if ((p0Choice + 1) % 3 == p1Choice) {... */\n      jump(tag_94)\n    tag_91:\n        /* \"test.sol\":1533:1541  p0Choice */\n      dup4\n        /* \"test.sol\":1528:1529  3 */\n      0x03\n        /* \"test.sol\":1523:1524  1 */\n      0x01\n        /* \"test.sol\":1512:1520  p1Choice */\n      dup6\n        /* \"test.sol\":1512:1524  p1Choice + 1 */\n      tag_95\n      swap2\n      swap1\n      tag_59\n      jump\t// in\n    tag_95:\n        /* \"test.sol\":1511:1529  (p1Choice + 1) % 3 */\n      tag_96\n      swap2\n      swap1\n      tag_90\n      jump\t// in\n    tag_96:\n        /* \"test.sol\":1511:1541  (p1Choice + 1) % 3 == p0Choice */\n      sub\n        /* \"test.sol\":1507:1779  if ((p1Choice + 1) % 3 == p0Choice) {... */\n      tag_97\n      jumpi\n        /* \"test.sol\":1591:1599  account0 */\n      dup2\n        /* \"test.sol\":1591:1608  account0.transfer */\n      0xffffffffffffffffffffffffffffffffffffffff\n      and\n        /* \"test.sol\":1591:1616  account0.transfer(reward) */\n      0x08fc\n        /* \"test.sol\":1609:1615  reward */\n      sload(0x01)\n        /* \"test.sol\":1591:1616  account0.transfer(reward) */\n      swap1\n      dup2\n      iszero\n      mul\n      swap1\n      mload(0x40)\n      0x00\n      mload(0x40)\n      dup1\n      dup4\n      sub\n      dup2\n      dup6\n      dup9\n      dup9\n      call\n      swap4\n      pop\n      pop\n      pop\n      pop\n      iszero\n      dup1\n      iszero\n      tag_99\n      jumpi\n      returndatasize\n      0x00\n      dup1\n      returndatacopy\n      revert(0x00, returndatasize)\n    tag_99:\n      pop\n        /* \"test.sol\":1507:1779  if ((p1Choice + 1) % 3 == p0Choice) {... */\n      jump(tag_100)\n    tag_97:\n        /* \"test.sol\":1694:1702  account0 */\n      dup2\n        /* \"test.sol\":1694:1711  account0.transfer */\n      0xffffffffffffffffffffffffffffffffffffffff\n      and\n        /* \"test.sol\":1694:1723  account0.transfer(reward / 2) */\n      0x08fc\n        /* \"test.sol\":1721:1722  2 */\n      0x02\n        /* \"test.sol\":1712:1718  reward */\n      sload(0x01)\n        /* \"test.sol\":1712:1722  reward / 2 */\n      tag_101\n      swap2\n      swap1\n      tag_102\n      jump\t// in\n    tag_101:\n        /* \"test.sol\":1694:1723  account0.transfer(reward / 2) */\n      swap1\n      dup2\n      iszero\n      mul\n      swap1\n      mload(0x40)\n      0x00\n      mload(0x40)\n      dup1\n      dup4\n      sub\n      dup2\n      dup6\n      dup9\n      dup9\n      call\n      swap4\n      pop\n      pop\n      pop\n      pop\n      iszero\n      dup1\n      iszero\n      tag_104\n      jumpi\n      returndatasize\n      0x00\n      dup1\n      returndatacopy\n      revert(0x00, returndatasize)\n    tag_104:\n      pop\n        /* \"test.sol\":1738:1746  account1 */\n      dup1\n        /* \"test.sol\":1738:1755  account1.transfer */\n      0xffffffffffffffffffffffffffffffffffffffff\n      and\n        /* \"test.sol\":1738:1767  account1.transfer(reward / 2) */\n      0x08fc\n        /* \"test.sol\":1765:1766  2 */\n      0x02\n        /* \"test.sol\":1756:1762  reward */\n      sload(0x01)\n        /* \"test.sol\":1756:1766  reward / 2 */\n      tag_105\n      swap2\n      swap1\n      tag_102\n      jump\t// in\n    tag_105:\n        /* \"test.sol\":1738:1767  account1.transfer(reward / 2) */\n      swap1\n      dup2\n      iszero\n      mul\n      swap1\n      mload(0x40)\n      0x00\n      mload(0x40)\n      dup1\n      dup4\n      sub\n      dup2\n      dup6\n      dup9\n      dup9\n      call\n      swap4\n      pop\n      pop\n      pop\n      pop\n      iszero\n      dup1\n      iszero\n      tag_107\n      jumpi\n      returndatasize\n      0x00\n      dup1\n      returndatacopy\n      revert(0x00, returndatasize)\n    tag_107:\n      pop\n        /* \"test.sol\":1507:1779  if ((p1Choice + 1) % 3 == p0Choice) {... */\n    tag_100:\n        /* \"test.sol\":1371:1779  if ((p0Choice + 1) % 3 == p1Choice) {... */\n    tag_94:\n        /* \"test.sol\":1142:1786  {... */\n      pop\n      pop\n      pop\n      pop\n        /* \"test.sol\":1104:1786  function _checkWinnerAndPay() private {... */\n      jump\t// out\n        /* \"#utility.yul\":7:84   */\n    tag_108:\n        /* \"#utility.yul\":44:51   */\n      0x00\n        /* \"#utility.yul\":73:78   */\n      dup2\n        /* \"#utility.yul\":62:78   */\n      swap1\n      pop\n        /* \"#utility.yul\":7:84   */\n      swap2\n      swap1\n      pop\n      jump\t// out\n        /* \"#utility.yul\":90:208   */\n    tag_109:\n        /* \"#utility.yul\":177:201   */\n      tag_127\n        /* \"#utility.yul\":195:200   */\n      dup2\n        /* \"#utility.yul\":177:201   */\n      tag_108\n      jump\t// in\n    tag_127:\n        /* \"#utility.yul\":172:175   */\n      dup3\n        /* \"#utility.yul\":165:202   */\n      mstore\n        /* \"#utility.yul\":90:208   */\n      pop\n      pop\n      jump\t// out\n        /* \"#utility.yul\":214:436   */\n    tag_15:\n        /* \"#utility.yul\":307:311   */\n      0x00\n        /* \"#utility.yul\":345:347   */\n      0x20\n        /* \"#utility.yul\":334:343   */\n      dup3\n        /* \"#utility.yul\":330:348   */\n      add\n        /* \"#utility.yul\":322:348   */\n      swap1\n      pop\n        /* \"#utility.yul\":358:429   */\n      tag_129\n        /* \"#utility.yul\":426:427   */\n      0x00\n        /* \"#utility.yul\":415:424   */\n      dup4\n        /* \"#utility.yul\":411:428   */\n      add\n        /* \"#utility.yul\":402:408   */\n      dup5\n        /* \"#utility.yul\":358:429   */\n      tag_109\n      jump\t// in\n    tag_129:\n        /* \"#utility.yul\":214:436   */\n      swap3\n      swap2\n      pop\n      pop\n      jump\t// out\n        /* \"#utility.yul\":523:640   */\n    tag_111:\n        /* \"#utility.yul\":632:633   */\n      0x00\n        /* \"#utility.yul\":629:630   */\n      dup1\n        /* \"#utility.yul\":622:634   */\n      revert\n        /* \"#utility.yul\":769:895   */\n    tag_113:\n        /* \"#utility.yul\":806:813   */\n      0x00\n        /* \"#utility.yul\":846:888   */\n      0xffffffffffffffffffffffffffffffffffffffff\n        /* \"#utility.yul\":839:844   */\n      dup3\n        /* \"#utility.yul\":835:889   */\n      and\n        /* \"#utility.yul\":824:889   */\n      swap1\n      pop\n        /* \"#utility.yul\":769:895   */\n      swap2\n      swap1\n      pop\n      jump\t// out\n        /* \"#utility.yul\":901:997   */\n    tag_114:\n        /* \"#utility.yul\":938:945   */\n      0x00\n        /* \"#utility.yul\":967:991   */\n      tag_135\n        /* \"#utility.yul\":985:990   */\n      dup3\n        /* \"#utility.yul\":967:991   */\n      tag_113\n      jump\t// in\n    tag_135:\n        /* \"#utility.yul\":956:991   */\n      swap1\n      pop\n        /* \"#utility.yul\":901:997   */\n      swap2\n      swap1\n      pop\n      jump\t// out\n        /* \"#utility.yul\":1003:1125   */\n    tag_115:\n        /* \"#utility.yul\":1076:1100   */\n      tag_137\n        /* \"#utility.yul\":1094:1099   */\n      dup2\n        /* \"#utility.yul\":1076:1100   */\n      tag_114\n      jump\t// in\n    tag_137:\n        /* \"#utility.yul\":1069:1074   */\n      dup2\n        /* \"#utility.yul\":1066:1101   */\n      eq\n        /* \"#utility.yul\":1056:1119   */\n      tag_138\n      jumpi\n        /* \"#utility.yul\":1115:1116   */\n      0x00\n        /* \"#utility.yul\":1112:1113   */\n      dup1\n        /* \"#utility.yul\":1105:1117   */\n      revert\n        /* \"#utility.yul\":1056:1119   */\n    tag_138:\n        /* \"#utility.yul\":1003:1125   */\n      pop\n      jump\t// out\n        /* \"#utility.yul\":1131:1270   */\n    tag_116:\n        /* \"#utility.yul\":1177:1182   */\n      0x00\n        /* \"#utility.yul\":1215:1221   */\n      dup2\n        /* \"#utility.yul\":1202:1222   */\n      calldataload\n        /* \"#utility.yul\":1193:1222   */\n      swap1\n      pop\n        /* \"#utility.yul\":1231:1264   */\n      tag_140\n        /* \"#utility.yul\":1258:1263   */\n      dup2\n        /* \"#utility.yul\":1231:1264   */\n      tag_115\n      jump\t// in\n    tag_140:\n        /* \"#utility.yul\":1131:1270   */\n      swap3\n      swap2\n      pop\n      pop\n      jump\t// out\n        /* \"#utility.yul\":1276:1605   */\n    tag_19:\n        /* \"#utility.yul\":1335:1341   */\n      0x00\n        /* \"#utility.yul\":1384:1386   */\n      0x20\n        /* \"#utility.yul\":1372:1381   */\n      dup3\n        /* \"#utility.yul\":1363:1370   */\n      dup5\n        /* \"#utility.yul\":1359:1382   */\n      sub\n        /* \"#utility.yul\":1355:1387   */\n      slt\n        /* \"#utility.yul\":1352:1471   */\n      iszero\n      tag_142\n      jumpi\n        /* \"#utility.yul\":1390:1469   */\n      tag_143\n      tag_111\n      jump\t// in\n    tag_143:\n        /* \"#utility.yul\":1352:1471   */\n    tag_142:\n        /* \"#utility.yul\":1510:1511   */\n      0x00\n        /* \"#utility.yul\":1535:1588   */\n      tag_144\n        /* \"#utility.yul\":1580:1587   */\n      dup5\n        /* \"#utility.yul\":1571:1577   */\n      dup3\n        /* \"#utility.yul\":1560:1569   */\n      dup6\n        /* \"#utility.yul\":1556:1578   */\n      add\n        /* \"#utility.yul\":1535:1588   */\n      tag_116\n      jump\t// in\n    tag_144:\n        /* \"#utility.yul\":1525:1588   */\n      swap2\n      pop\n        /* \"#utility.yul\":1481:1598   */\n      pop\n        /* \"#utility.yul\":1276:1605   */\n      swap3\n      swap2\n      pop\n      pop\n      jump\t// out\n        /* \"#utility.yul\":1611:1701   */\n    tag_117:\n        /* \"#utility.yul\":1645:1652   */\n      0x00\n        /* \"#utility.yul\":1688:1693   */\n      dup2\n        /* \"#utility.yul\":1681:1694   */\n      iszero\n        /* \"#utility.yul\":1674:1695   */\n      iszero\n        /* \"#utility.yul\":1663:1695   */\n      swap1\n      pop\n        /* \"#utility.yul\":1611:1701   */\n      swap2\n      swap1\n      pop\n      jump\t// out\n        /* \"#utility.yul\":1707:1816   */\n    tag_118:\n        /* \"#utility.yul\":1788:1809   */\n      tag_147\n        /* \"#utility.yul\":1803:1808   */\n      dup2\n        /* \"#utility.yul\":1788:1809   */\n      tag_117\n      jump\t// in\n    tag_147:\n        /* \"#utility.yul\":1783:1786   */\n      dup3\n        /* \"#utility.yul\":1776:1810   */\n      mstore\n        /* \"#utility.yul\":1707:1816   */\n      pop\n      pop\n      jump\t// out\n        /* \"#utility.yul\":1822:2032   */\n    tag_22:\n        /* \"#utility.yul\":1909:1913   */\n      0x00\n        /* \"#utility.yul\":1947:1949   */\n      0x20\n        /* \"#utility.yul\":1936:1945   */\n      dup3\n        /* \"#utility.yul\":1932:1950   */\n      add\n        /* \"#utility.yul\":1924:1950   */\n      swap1\n      pop\n        /* \"#utility.yul\":1960:2025   */\n      tag_149\n        /* \"#utility.yul\":2022:2023   */\n      0x00\n        /* \"#utility.yul\":2011:2020   */\n      dup4\n        /* \"#utility.yul\":2007:2024   */\n      add\n        /* \"#utility.yul\":1998:2004   */\n      dup5\n        /* \"#utility.yul\":1960:2025   */\n      tag_118\n      jump\t// in\n    tag_149:\n        /* \"#utility.yul\":1822:2032   */\n      swap3\n      swap2\n      pop\n      pop\n      jump\t// out\n        /* \"#utility.yul\":2038:2160   */\n    tag_119:\n        /* \"#utility.yul\":2111:2135   */\n      tag_151\n        /* \"#utility.yul\":2129:2134   */\n      dup2\n        /* \"#utility.yul\":2111:2135   */\n      tag_108\n      jump\t// in\n    tag_151:\n        /* \"#utility.yul\":2104:2109   */\n      dup2\n        /* \"#utility.yul\":2101:2136   */\n      eq\n        /* \"#utility.yul\":2091:2154   */\n      tag_152\n      jumpi\n        /* \"#utility.yul\":2150:2151   */\n      0x00\n        /* \"#utility.yul\":2147:2148   */\n      dup1\n        /* \"#utility.yul\":2140:2152   */\n      revert\n        /* \"#utility.yul\":2091:2154   */\n    tag_152:\n        /* \"#utility.yul\":2038:2160   */\n      pop\n      jump\t// out\n        /* \"#utility.yul\":2166:2305   */\n    tag_120:\n        /* \"#utility.yul\":2212:2217   */\n      0x00\n        /* \"#utility.yul\":2250:2256   */\n      dup2\n        /* \"#utility.yul\":2237:2257   */\n      calldataload\n        /* \"#utility.yul\":2228:2257   */\n      swap1\n      pop\n        /* \"#utility.yul\":2266:2299   */\n      tag_154\n        /* \"#utility.yul\":2293:2298   */\n      dup2\n        /* \"#utility.yul\":2266:2299   */\n      tag_119\n      jump\t// in\n    tag_154:\n        /* \"#utility.yul\":2166:2305   */\n      swap3\n      swap2\n      pop\n      pop\n      jump\t// out\n        /* \"#utility.yul\":2311:2640   */\n    tag_41:\n        /* \"#utility.yul\":2370:2376   */\n      0x00\n        /* \"#utility.yul\":2419:2421   */\n      0x20\n        /* \"#utility.yul\":2407:2416   */\n      dup3\n        /* \"#utility.yul\":2398:2405   */\n      dup5\n        /* \"#utility.yul\":2394:2417   */\n      sub\n        /* \"#utility.yul\":2390:2422   */\n      slt\n        /* \"#utility.yul\":2387:2506   */\n      iszero\n      tag_156\n      jumpi\n        /* \"#utility.yul\":2425:2504   */\n      tag_157\n      tag_111\n      jump\t// in\n    tag_157:\n        /* \"#utility.yul\":2387:2506   */\n    tag_156:\n        /* \"#utility.yul\":2545:2546   */\n      0x00\n        /* \"#utility.yul\":2570:2623   */\n      tag_158\n        /* \"#utility.yul\":2615:2622   */\n      dup5\n        /* \"#utility.yul\":2606:2612   */\n      dup3\n        /* \"#utility.yul\":2595:2604   */\n      dup6\n        /* \"#utility.yul\":2591:2613   */\n      add\n        /* \"#utility.yul\":2570:2623   */\n      tag_120\n      jump\t// in\n    tag_158:\n        /* \"#utility.yul\":2560:2623   */\n      swap2\n      pop\n        /* \"#utility.yul\":2516:2633   */\n      pop\n        /* \"#utility.yul\":2311:2640   */\n      swap3\n      swap2\n      pop\n      pop\n      jump\t// out\n        /* \"#utility.yul\":2646:2764   */\n    tag_121:\n        /* \"#utility.yul\":2733:2757   */\n      tag_160\n        /* \"#utility.yul\":2751:2756   */\n      dup2\n        /* \"#utility.yul\":2733:2757   */\n      tag_114\n      jump\t// in\n    tag_160:\n        /* \"#utility.yul\":2728:2731   */\n      dup3\n        /* \"#utility.yul\":2721:2758   */\n      mstore\n        /* \"#utility.yul\":2646:2764   */\n      pop\n      pop\n      jump\t// out\n        /* \"#utility.yul\":2770:2992   */\n    tag_48:\n        /* \"#utility.yul\":2863:2867   */\n      0x00\n        /* \"#utility.yul\":2901:2903   */\n      0x20\n        /* \"#utility.yul\":2890:2899   */\n      dup3\n        /* \"#utility.yul\":2886:2904   */\n      add\n        /* \"#utility.yul\":2878:2904   */\n      swap1\n      pop\n        /* \"#utility.yul\":2914:2985   */\n      tag_162\n        /* \"#utility.yul\":2982:2983   */\n      0x00\n        /* \"#utility.yul\":2971:2980   */\n      dup4\n        /* \"#utility.yul\":2967:2984   */\n      add\n        /* \"#utility.yul\":2958:2964   */\n      dup5\n        /* \"#utility.yul\":2914:2985   */\n      tag_121\n      jump\t// in\n    tag_162:\n        /* \"#utility.yul\":2770:2992   */\n      swap3\n      swap2\n      pop\n      pop\n      jump\t// out\n        /* \"#utility.yul\":2998:3178   */\n    tag_54:\n        /* \"#utility.yul\":3046:3123   */\n      0x4e487b7100000000000000000000000000000000000000000000000000000000\n        /* \"#utility.yul\":3043:3044   */\n      0x00\n        /* \"#utility.yul\":3036:3124   */\n      mstore\n        /* \"#utility.yul\":3143:3147   */\n      0x32\n        /* \"#utility.yul\":3140:3141   */\n      0x04\n        /* \"#utility.yul\":3133:3148   */\n      mstore\n        /* \"#utility.yul\":3167:3171   */\n      0x24\n        /* \"#utility.yul\":3164:3165   */\n      0x00\n        /* \"#utility.yul\":3157:3172   */\n      revert\n        /* \"#utility.yul\":3184:3364   */\n    tag_122:\n        /* \"#utility.yul\":3232:3309   */\n      0x4e487b7100000000000000000000000000000000000000000000000000000000\n        /* \"#utility.yul\":3229:3230   */\n      0x00\n        /* \"#utility.yul\":3222:3310   */\n      mstore\n        /* \"#utility.yul\":3329:3333   */\n      0x11\n        /* \"#utility.yul\":3326:3327   */\n      0x04\n        /* \"#utility.yul\":3319:3334   */\n      mstore\n        /* \"#utility.yul\":3353:3357   */\n      0x24\n        /* \"#utility.yul\":3350:3351   */\n      0x00\n        /* \"#utility.yul\":3343:3358   */\n      revert\n        /* \"#utility.yul\":3370:3561   */\n    tag_59:\n        /* \"#utility.yul\":3410:3413   */\n      0x00\n        /* \"#utility.yul\":3429:3449   */\n      tag_166\n        /* \"#utility.yul\":3447:3448   */\n      dup3\n        /* \"#utility.yul\":3429:3449   */\n      tag_108\n      jump\t// in\n    tag_166:\n        /* \"#utility.yul\":3424:3449   */\n      swap2\n      pop\n        /* \"#utility.yul\":3463:3483   */\n      tag_167\n        /* \"#utility.yul\":3481:3482   */\n      dup4\n        /* \"#utility.yul\":3463:3483   */\n      tag_108\n      jump\t// in\n    tag_167:\n        /* \"#utility.yul\":3458:3483   */\n      swap3\n      pop\n        /* \"#utility.yul\":3506:3507   */\n      dup3\n        /* \"#utility.yul\":3503:3504   */\n      dup3\n        /* \"#utility.yul\":3499:3508   */\n      add\n        /* \"#utility.yul\":3492:3508   */\n      swap1\n      pop\n        /* \"#utility.yul\":3527:3530   */\n      dup1\n        /* \"#utility.yul\":3524:3525   */\n      dup3\n        /* \"#utility.yul\":3521:3531   */\n      gt\n        /* \"#utility.yul\":3518:3554   */\n      iszero\n      tag_168\n      jumpi\n        /* \"#utility.yul\":3534:3552   */\n      tag_169\n      tag_122\n      jump\t// in\n    tag_169:\n        /* \"#utility.yul\":3518:3554   */\n    tag_168:\n        /* \"#utility.yul\":3370:3561   */\n      swap3\n      swap2\n      pop\n      pop\n      jump\t// out\n        /* \"#utility.yul\":3567:3800   */\n    tag_62:\n        /* \"#utility.yul\":3606:3609   */\n      0x00\n        /* \"#utility.yul\":3629:3653   */\n      tag_171\n        /* \"#utility.yul\":3647:3652   */\n      dup3\n        /* \"#utility.yul\":3629:3653   */\n      tag_108\n      jump\t// in\n    tag_171:\n        /* \"#utility.yul\":3620:3653   */\n      swap2\n      pop\n        /* \"#utility.yul\":3675:3741   */\n      0xffffffffffffffffffffffffffffffffffffffffffffffffffffffffffffffff\n        /* \"#utility.yul\":3668:3673   */\n      dup3\n        /* \"#utility.yul\":3665:3742   */\n      sub\n        /* \"#utility.yul\":3662:3765   */\n      tag_172\n      jumpi\n        /* \"#utility.yul\":3745:3763   */\n      tag_173\n      tag_122\n      jump\t// in\n    tag_173:\n        /* \"#utility.yul\":3662:3765   */\n    tag_172:\n        /* \"#utility.yul\":3792:3793   */\n      0x01\n        /* \"#utility.yul\":3785:3790   */\n      dup3\n        /* \"#utility.yul\":3781:3794   */\n      add\n        /* \"#utility.yul\":3774:3794   */\n      swap1\n      pop\n        /* \"#utility.yul\":3567:3800   */\n      swap2\n      swap1\n      pop\n      jump\t// out\n        /* \"#utility.yul\":3806:3986   */\n    tag_123:\n        /* \"#utility.yul\":3854:3931   */\n      0x4e487b7100000000000000000000000000000000000000000000000000000000\n        /* \"#utility.yul\":3851:3852   */\n      0x00\n        /* \"#utility.yul\":3844:3932   */\n      mstore\n        /* \"#utility.yul\":3951:3955   */\n      0x12\n        /* \"#utility.yul\":3948:3949   */\n      0x04\n        /* \"#utility.yul\":3941:3956   */\n      mstore\n        /* \"#utility.yul\":3975:3979   */\n      0x24\n        /* \"#utility.yul\":3972:3973   */\n      0x00\n        /* \"#utility.yul\":3965:3980   */\n      revert\n        /* \"#utility.yul\":3992:4168   */\n    tag_90:\n        /* \"#utility.yul\":4024:4025   */\n      0x00\n        /* \"#utility.yul\":4041:4061   */\n      tag_176\n        /* \"#utility.yul\":4059:4060   */\n      dup3\n        /* \"#utility.yul\":4041:4061   */\n      tag_108\n      jump\t// in\n    tag_176:\n        /* \"#utility.yul\":4036:4061   */\n      swap2\n      pop\n        /* \"#utility.yul\":4075:4095   */\n      tag_177\n        /* \"#utility.yul\":4093:4094   */\n      dup4\n        /* \"#utility.yul\":4075:4095   */\n      tag_108\n      jump\t// in\n    tag_177:\n        /* \"#utility.yul\":4070:4095   */\n      swap3\n      pop\n        /* \"#utility.yul\":4114:4115   */\n      dup3\n        /* \"#utility.yul\":4104:4139   */\n      tag_178\n      jumpi\n        /* \"#utility.yul\":4119:4137   */\n      tag_179\n      tag_123\n      jump\t// in\n    tag_179:\n        /* \"#utility.yul\":4104:4139   */\n    tag_178:\n        /* \"#utility.yul\":4160:4161   */\n      dup3\n        /* \"#utility.yul\":4157:4158   */\n      dup3\n        /* \"#utility.yul\":4153:4162   */\n      mod\n        /* \"#utility.yul\":4148:4162   */\n      swap1\n      pop\n        /* \"#utility.yul\":3992:4168   */\n      swap3\n      swap2\n      pop\n      pop\n      jump\t// out\n        /* \"#utility.yul\":4174:4359   */\n    tag_102:\n        /* \"#utility.yul\":4214:4215   */\n      0x00\n        /* \"#utility.yul\":4231:4251   */\n      tag_181\n        /* \"#utility.yul\":4249:4250   */\n      dup3\n        /* \"#utility.yul\":4231:4251   */\n      tag_108\n      jump\t// in\n    tag_181:\n        /* \"#utility.yul\":4226:4251   */\n      swap2\n      pop\n        /* \"#utility.yul\":4265:4285   */\n      tag_182\n        /* \"#utility.yul\":4283:4284   */\n      dup4\n        /* \"#utility.yul\":4265:4285   */\n      tag_108\n      jump\t// in\n    tag_182:\n        /* \"#utility.yul\":4260:4285   */\n      swap3\n      pop\n        /* \"#utility.yul\":4304:4305   */\n      dup3\n        /* \"#utility.yul\":4294:4329   */\n      tag_183\n      jumpi\n        /* \"#utility.yul\":4309:4327   */\n      tag_184\n      tag_123\n      jump\t// in\n    tag_184:\n        /* \"#utility.yul\":4294:4329   */\n    tag_183:\n        /* \"#utility.yul\":4351:4352   */\n      dup3\n        /* \"#utility.yul\":4348:4349   */\n      dup3\n        /* \"#utility.yul\":4344:4353   */\n      div\n        /* \"#utility.yul\":4339:4353   */\n      swap1\n      pop\n        /* \"#utility.yul\":4174:4359   */\n      swap3\n      swap2\n      pop\n      pop\n      jump\t// out\n\n    auxdata: 0xa264697066735822122026cebedb96f4d2056c3bcde0f5212cb01550ed49fd5996c7a395e1743dca5f7a64736f6c634300081a0033\n}\n",
				"bytecode": {
					"linkReferences": {},
					"object": "60806040525f80555f6001555f6005553480156019575f80fd5b50610b1d806100275f395ff3fe60806040526004361061007a575f3560e01c806390d5d0c31161004d57806390d5d0c314610118578063a040478d14610142578063ce6e1c4e1461017e578063f71d96cb146101a65761007a565b8063086f78151461007e578063190cf745146100a8578063228cb733146100e457806327b5db8a1461010e575b5f80fd5b348015610089575f80fd5b506100926101e2565b60405161009f9190610834565b60405180910390f35b3480156100b3575f80fd5b506100ce60048036038101906100c991906108ab565b6101e8565b6040516100db91906108f0565b60405180910390f35b3480156100ef575f80fd5b506100f8610205565b6040516101059190610834565b60405180910390f35b61011661020b565b005b348015610123575f80fd5b5061012c61038c565b6040516101399190610834565b60405180910390f35b34801561014d575f80fd5b50610168600480360381019061016391906108ab565b610391565b6040516101759190610834565b60405180910390f35b348015610189575f80fd5b506101a4600480360381019061019f9190610933565b6103a6565b005b3480156101b1575f80fd5b506101cc60048036038101906101c79190610933565b6104e9565b6040516101d9919061096d565b60405180910390f35b60055481565b6003602052805f5260405f205f915054906101000a900460ff1681565b60015481565b60025f5410610218575f80fd5b5f805411156102945760045f8154811061023557610234610986565b5b905f5260205f20015f9054906101000a900473ffffffffffffffffffffffffffffffffffffffff1673ffffffffffffffffffffffffffffffffffffffff163373ffffffffffffffffffffffffffffffffffffffff1603610293575f80fd5b5b670de0b6b3a764000034146102a7575f80fd5b3460015f8282546102b891906109e0565b92505081905550600160035f3373ffffffffffffffffffffffffffffffffffffffff1673ffffffffffffffffffffffffffffffffffffffff1681526020019081526020015f205f6101000a81548160ff021916908315150217905550600433908060018154018082558091505060019003905f5260205f20015f9091909190916101000a81548173ffffffffffffffffffffffffffffffffffffffff021916908373ffffffffffffffffffffffffffffffffffffffff1602179055505f8081548092919061038590610a13565b9190505550565b5f5481565b6002602052805f5260405f205f915090505481565b60025f54146103b3575f80fd5b60035f3373ffffffffffffffffffffffffffffffffffffffff1673ffffffffffffffffffffffffffffffffffffffff1681526020019081526020015f205f9054906101000a900460ff16610405575f80fd5b5f8114806104135750600181145b8061041e5750600281145b610426575f80fd5b8060025f3373ffffffffffffffffffffffffffffffffffffffff1673ffffffffffffffffffffffffffffffffffffffff1681526020019081526020015f20819055505f60035f3373ffffffffffffffffffffffffffffffffffffffff1673ffffffffffffffffffffffffffffffffffffffff1681526020019081526020015f205f6101000a81548160ff02191690831515021790555060055f8154809291906104ce90610a13565b91905055506002600554036104e6576104e5610524565b5b50565b600481815481106104f8575f80fd5b905f5260205f20015f915054906101000a900473ffffffffffffffffffffffffffffffffffffffff1681565b5f60025f60045f8154811061053c5761053b610986565b5b905f5260205f20015f9054906101000a900473ffffffffffffffffffffffffffffffffffffffff1673ffffffffffffffffffffffffffffffffffffffff1673ffffffffffffffffffffffffffffffffffffffff1681526020019081526020015f205490505f60025f60046001815481106105b9576105b8610986565b5b905f5260205f20015f9054906101000a900473ffffffffffffffffffffffffffffffffffffffff1673ffffffffffffffffffffffffffffffffffffffff1673ffffffffffffffffffffffffffffffffffffffff1681526020019081526020015f205490505f60045f8154811061063257610631610986565b5b905f5260205f20015f9054906101000a900473ffffffffffffffffffffffffffffffffffffffff1690505f600460018154811061067257610671610986565b5b905f5260205f20015f9054906101000a900473ffffffffffffffffffffffffffffffffffffffff1690508260036001866106ac91906109e0565b6106b69190610a87565b03610706578073ffffffffffffffffffffffffffffffffffffffff166108fc60015490811502906040515f60405180830381858888f19350505050158015610700573d5f803e3d5ffd5b50610816565b83600360018561071691906109e0565b6107209190610a87565b03610770578173ffffffffffffffffffffffffffffffffffffffff166108fc60015490811502906040515f60405180830381858888f1935050505015801561076a573d5f803e3d5ffd5b50610815565b8173ffffffffffffffffffffffffffffffffffffffff166108fc60026001546107999190610ab7565b90811502906040515f60405180830381858888f193505050501580156107c1573d5f803e3d5ffd5b508073ffffffffffffffffffffffffffffffffffffffff166108fc60026001546107eb9190610ab7565b90811502906040515f60405180830381858888f19350505050158015610813573d5f803e3d5ffd5b505b5b50505050565b5f819050919050565b61082e8161081c565b82525050565b5f6020820190506108475f830184610825565b92915050565b5f80fd5b5f73ffffffffffffffffffffffffffffffffffffffff82169050919050565b5f61087a82610851565b9050919050565b61088a81610870565b8114610894575f80fd5b50565b5f813590506108a581610881565b92915050565b5f602082840312156108c0576108bf61084d565b5b5f6108cd84828501610897565b91505092915050565b5f8115159050919050565b6108ea816108d6565b82525050565b5f6020820190506109035f8301846108e1565b92915050565b6109128161081c565b811461091c575f80fd5b50565b5f8135905061092d81610909565b92915050565b5f602082840312156109485761094761084d565b5b5f6109558482850161091f565b91505092915050565b61096781610870565b82525050565b5f6020820190506109805f83018461095e565b92915050565b7f4e487b71000000000000000000000000000000000000000000000000000000005f52603260045260245ffd5b7f4e487b71000000000000000000000000000000000000000000000000000000005f52601160045260245ffd5b5f6109ea8261081c565b91506109f58361081c565b9250828201905080821115610a0d57610a0c6109b3565b5b92915050565b5f610a1d8261081c565b91507fffffffffffffffffffffffffffffffffffffffffffffffffffffffffffffffff8203610a4f57610a4e6109b3565b5b600182019050919050565b7f4e487b71000000000000000000000000000000000000000000000000000000005f52601260045260245ffd5b5f610a918261081c565b9150610a9c8361081c565b925082610aac57610aab610a5a565b5b828206905092915050565b5f610ac18261081c565b9150610acc8361081c565b925082610adc57610adb610a5a565b5b82820490509291505056fea264697066735822122026cebedb96f4d2056c3bcde0f5212cb01550ed49fd5996c7a395e1743dca5f7a64736f6c634300081a0033",
					"opcodes": "PUSH1 0x80 PUSH1 0x40 MSTORE PUSH0 DUP1 SSTORE PUSH0 PUSH1 0x1 SSTORE PUSH0 PUSH1 0x5 SSTORE CALLVALUE DUP1 ISZERO PUSH1 0x19 JUMPI PUSH0 DUP1 REVERT JUMPDEST POP PUSH2 0xB1D DUP1 PUSH2 0x27 PUSH0 CODECOPY PUSH0 RETURN INVALID PUSH1 0x80 PUSH1 0x40 MSTORE PUSH1 0x4 CALLDATASIZE LT PUSH2 0x7A JUMPI PUSH0 CALLDATALOAD PUSH1 0xE0 SHR DUP1 PUSH4 0x90D5D0C3 GT PUSH2 0x4D JUMPI DUP1 PUSH4 0x90D5D0C3 EQ PUSH2 0x118 JUMPI DUP1 PUSH4 0xA040478D EQ PUSH2 0x142 JUMPI DUP1 PUSH4 0xCE6E1C4E EQ PUSH2 0x17E JUMPI DUP1 PUSH4 0xF71D96CB EQ PUSH2 0x1A6 JUMPI PUSH2 0x7A JUMP JUMPDEST DUP1 PUSH4 0x86F7815 EQ PUSH2 0x7E JUMPI DUP1 PUSH4 0x190CF745 EQ PUSH2 0xA8 JUMPI DUP1 PUSH4 0x228CB733 EQ PUSH2 0xE4 JUMPI DUP1 PUSH4 0x27B5DB8A EQ PUSH2 0x10E JUMPI JUMPDEST PUSH0 DUP1 REVERT JUMPDEST CALLVALUE DUP1 ISZERO PUSH2 0x89 JUMPI PUSH0 DUP1 REVERT JUMPDEST POP PUSH2 0x92 PUSH2 0x1E2 JUMP JUMPDEST PUSH1 0x40 MLOAD PUSH2 0x9F SWAP2 SWAP1 PUSH2 0x834 JUMP JUMPDEST PUSH1 0x40 MLOAD DUP1 SWAP2 SUB SWAP1 RETURN JUMPDEST CALLVALUE DUP1 ISZERO PUSH2 0xB3 JUMPI PUSH0 DUP1 REVERT JUMPDEST POP PUSH2 0xCE PUSH1 0x4 DUP1 CALLDATASIZE SUB DUP2 ADD SWAP1 PUSH2 0xC9 SWAP2 SWAP1 PUSH2 0x8AB JUMP JUMPDEST PUSH2 0x1E8 JUMP JUMPDEST PUSH1 0x40 MLOAD PUSH2 0xDB SWAP2 SWAP1 PUSH2 0x8F0 JUMP JUMPDEST PUSH1 0x40 MLOAD DUP1 SWAP2 SUB SWAP1 RETURN JUMPDEST CALLVALUE DUP1 ISZERO PUSH2 0xEF JUMPI PUSH0 DUP1 REVERT JUMPDEST POP PUSH2 0xF8 PUSH2 0x205 JUMP JUMPDEST PUSH1 0x40 MLOAD PUSH2 0x105 SWAP2 SWAP1 PUSH2 0x834 JUMP JUMPDEST PUSH1 0x40 MLOAD DUP1 SWAP2 SUB SWAP1 RETURN JUMPDEST PUSH2 0x116 PUSH2 0x20B JUMP JUMPDEST STOP JUMPDEST CALLVALUE DUP1 ISZERO PUSH2 0x123 JUMPI PUSH0 DUP1 REVERT JUMPDEST POP PUSH2 0x12C PUSH2 0x38C JUMP JUMPDEST PUSH1 0x40 MLOAD PUSH2 0x139 SWAP2 SWAP1 PUSH2 0x834 JUMP JUMPDEST PUSH1 0x40 MLOAD DUP1 SWAP2 SUB SWAP1 RETURN JUMPDEST CALLVALUE DUP1 ISZERO PUSH2 0x14D JUMPI PUSH0 DUP1 REVERT JUMPDEST POP PUSH2 0x168 PUSH1 0x4 DUP1 CALLDATASIZE SUB DUP2 ADD SWAP1 PUSH2 0x163 SWAP2 SWAP1 PUSH2 0x8AB JUMP JUMPDEST PUSH2 0x391 JUMP JUMPDEST PUSH1 0x40 MLOAD PUSH2 0x175 SWAP2 SWAP1 PUSH2 0x834 JUMP JUMPDEST PUSH1 0x40 MLOAD DUP1 SWAP2 SUB SWAP1 RETURN JUMPDEST CALLVALUE DUP1 ISZERO PUSH2 0x189 JUMPI PUSH0 DUP1 REVERT JUMPDEST POP PUSH2 0x1A4 PUSH1 0x4 DUP1 CALLDATASIZE SUB DUP2 ADD SWAP1 PUSH2 0x19F SWAP2 SWAP1 PUSH2 0x933 JUMP JUMPDEST PUSH2 0x3A6 JUMP JUMPDEST STOP JUMPDEST CALLVALUE DUP1 ISZERO PUSH2 0x1B1 JUMPI PUSH0 DUP1 REVERT JUMPDEST POP PUSH2 0x1CC PUSH1 0x4 DUP1 CALLDATASIZE SUB DUP2 ADD SWAP1 PUSH2 0x1C7 SWAP2 SWAP1 PUSH2 0x933 JUMP JUMPDEST PUSH2 0x4E9 JUMP JUMPDEST PUSH1 0x40 MLOAD PUSH2 0x1D9 SWAP2 SWAP1 PUSH2 0x96D JUMP JUMPDEST PUSH1 0x40 MLOAD DUP1 SWAP2 SUB SWAP1 RETURN JUMPDEST PUSH1 0x5 SLOAD DUP2 JUMP JUMPDEST PUSH1 0x3 PUSH1 0x20 MSTORE DUP1 PUSH0 MSTORE PUSH1 0x40 PUSH0 KECCAK256 PUSH0 SWAP2 POP SLOAD SWAP1 PUSH2 0x100 EXP SWAP1 DIV PUSH1 0xFF AND DUP2 JUMP JUMPDEST PUSH1 0x1 SLOAD DUP2 JUMP JUMPDEST PUSH1 0x2 PUSH0 SLOAD LT PUSH2 0x218 JUMPI PUSH0 DUP1 REVERT JUMPDEST PUSH0 DUP1 SLOAD GT ISZERO PUSH2 0x294 JUMPI PUSH1 0x4 PUSH0 DUP2 SLOAD DUP2 LT PUSH2 0x235 JUMPI PUSH2 0x234 PUSH2 0x986 JUMP JUMPDEST JUMPDEST SWAP1 PUSH0 MSTORE PUSH1 0x20 PUSH0 KECCAK256 ADD PUSH0 SWAP1 SLOAD SWAP1 PUSH2 0x100 EXP SWAP1 DIV PUSH20 0xFFFFFFFFFFFFFFFFFFFFFFFFFFFFFFFFFFFFFFFF AND PUSH20 0xFFFFFFFFFFFFFFFFFFFFFFFFFFFFFFFFFFFFFFFF AND CALLER PUSH20 0xFFFFFFFFFFFFFFFFFFFFFFFFFFFFFFFFFFFFFFFF AND SUB PUSH2 0x293 JUMPI PUSH0 DUP1 REVERT JUMPDEST JUMPDEST PUSH8 0xDE0B6B3A7640000 CALLVALUE EQ PUSH2 0x2A7 JUMPI PUSH0 DUP1 REVERT JUMPDEST CALLVALUE PUSH1 0x1 PUSH0 DUP3 DUP3 SLOAD PUSH2 0x2B8 SWAP2 SWAP1 PUSH2 0x9E0 JUMP JUMPDEST SWAP3 POP POP DUP2 SWAP1 SSTORE POP PUSH1 0x1 PUSH1 0x3 PUSH0 CALLER PUSH20 0xFFFFFFFFFFFFFFFFFFFFFFFFFFFFFFFFFFFFFFFF AND PUSH20 0xFFFFFFFFFFFFFFFFFFFFFFFFFFFFFFFFFFFFFFFF AND DUP2 MSTORE PUSH1 0x20 ADD SWAP1 DUP2 MSTORE PUSH1 0x20 ADD PUSH0 KECCAK256 PUSH0 PUSH2 0x100 EXP DUP2 SLOAD DUP2 PUSH1 0xFF MUL NOT AND SWAP1 DUP4 ISZERO ISZERO MUL OR SWAP1 SSTORE POP PUSH1 0x4 CALLER SWAP1 DUP1 PUSH1 0x1 DUP2 SLOAD ADD DUP1 DUP3 SSTORE DUP1 SWAP2 POP POP PUSH1 0x1 SWAP1 SUB SWAP1 PUSH0 MSTORE PUSH1 0x20 PUSH0 KECCAK256 ADD PUSH0 SWAP1 SWAP2 SWAP1 SWAP2 SWAP1 SWAP2 PUSH2 0x100 EXP DUP2 SLOAD DUP2 PUSH20 0xFFFFFFFFFFFFFFFFFFFFFFFFFFFFFFFFFFFFFFFF MUL NOT AND SWAP1 DUP4 PUSH20 0xFFFFFFFFFFFFFFFFFFFFFFFFFFFFFFFFFFFFFFFF AND MUL OR SWAP1 SSTORE POP PUSH0 DUP1 DUP2 SLOAD DUP1 SWAP3 SWAP2 SWAP1 PUSH2 0x385 SWAP1 PUSH2 0xA13 JUMP JUMPDEST SWAP2 SWAP1 POP SSTORE POP JUMP JUMPDEST PUSH0 SLOAD DUP2 JUMP JUMPDEST PUSH1 0x2 PUSH1 0x20 MSTORE DUP1 PUSH0 MSTORE PUSH1 0x40 PUSH0 KECCAK256 PUSH0 SWAP2 POP SWAP1 POP SLOAD DUP2 JUMP JUMPDEST PUSH1 0x2 PUSH0 SLOAD EQ PUSH2 0x3B3 JUMPI PUSH0 DUP1 REVERT JUMPDEST PUSH1 0x3 PUSH0 CALLER PUSH20 0xFFFFFFFFFFFFFFFFFFFFFFFFFFFFFFFFFFFFFFFF AND PUSH20 0xFFFFFFFFFFFFFFFFFFFFFFFFFFFFFFFFFFFFFFFF AND DUP2 MSTORE PUSH1 0x20 ADD SWAP1 DUP2 MSTORE PUSH1 0x20 ADD PUSH0 KECCAK256 PUSH0 SWAP1 SLOAD SWAP1 PUSH2 0x100 EXP SWAP1 DIV PUSH1 0xFF AND PUSH2 0x405 JUMPI PUSH0 DUP1 REVERT JUMPDEST PUSH0 DUP2 EQ DUP1 PUSH2 0x413 JUMPI POP PUSH1 0x1 DUP2 EQ JUMPDEST DUP1 PUSH2 0x41E JUMPI POP PUSH1 0x2 DUP2 EQ JUMPDEST PUSH2 0x426 JUMPI PUSH0 DUP1 REVERT JUMPDEST DUP1 PUSH1 0x2 PUSH0 CALLER PUSH20 0xFFFFFFFFFFFFFFFFFFFFFFFFFFFFFFFFFFFFFFFF AND PUSH20 0xFFFFFFFFFFFFFFFFFFFFFFFFFFFFFFFFFFFFFFFF AND DUP2 MSTORE PUSH1 0x20 ADD SWAP1 DUP2 MSTORE PUSH1 0x20 ADD PUSH0 KECCAK256 DUP2 SWAP1 SSTORE POP PUSH0 PUSH1 0x3 PUSH0 CALLER PUSH20 0xFFFFFFFFFFFFFFFFFFFFFFFFFFFFFFFFFFFFFFFF AND PUSH20 0xFFFFFFFFFFFFFFFFFFFFFFFFFFFFFFFFFFFFFFFF AND DUP2 MSTORE PUSH1 0x20 ADD SWAP1 DUP2 MSTORE PUSH1 0x20 ADD PUSH0 KECCAK256 PUSH0 PUSH2 0x100 EXP DUP2 SLOAD DUP2 PUSH1 0xFF MUL NOT AND SWAP1 DUP4 ISZERO ISZERO MUL OR SWAP1 SSTORE POP PUSH1 0x5 PUSH0 DUP2 SLOAD DUP1 SWAP3 SWAP2 SWAP1 PUSH2 0x4CE SWAP1 PUSH2 0xA13 JUMP JUMPDEST SWAP2 SWAP1 POP SSTORE POP PUSH1 0x2 PUSH1 0x5 SLOAD SUB PUSH2 0x4E6 JUMPI PUSH2 0x4E5 PUSH2 0x524 JUMP JUMPDEST JUMPDEST POP JUMP JUMPDEST PUSH1 0x4 DUP2 DUP2 SLOAD DUP2 LT PUSH2 0x4F8 JUMPI PUSH0 DUP1 REVERT JUMPDEST SWAP1 PUSH0 MSTORE PUSH1 0x20 PUSH0 KECCAK256 ADD PUSH0 SWAP2 POP SLOAD SWAP1 PUSH2 0x100 EXP SWAP1 DIV PUSH20 0xFFFFFFFFFFFFFFFFFFFFFFFFFFFFFFFFFFFFFFFF AND DUP2 JUMP JUMPDEST PUSH0 PUSH1 0x2 PUSH0 PUSH1 0x4 PUSH0 DUP2 SLOAD DUP2 LT PUSH2 0x53C JUMPI PUSH2 0x53B PUSH2 0x986 JUMP JUMPDEST JUMPDEST SWAP1 PUSH0 MSTORE PUSH1 0x20 PUSH0 KECCAK256 ADD PUSH0 SWAP1 SLOAD SWAP1 PUSH2 0x100 EXP SWAP1 DIV PUSH20 0xFFFFFFFFFFFFFFFFFFFFFFFFFFFFFFFFFFFFFFFF AND PUSH20 0xFFFFFFFFFFFFFFFFFFFFFFFFFFFFFFFFFFFFFFFF AND PUSH20 0xFFFFFFFFFFFFFFFFFFFFFFFFFFFFFFFFFFFFFFFF AND DUP2 MSTORE PUSH1 0x20 ADD SWAP1 DUP2 MSTORE PUSH1 0x20 ADD PUSH0 KECCAK256 SLOAD SWAP1 POP PUSH0 PUSH1 0x2 PUSH0 PUSH1 0x4 PUSH1 0x1 DUP2 SLOAD DUP2 LT PUSH2 0x5B9 JUMPI PUSH2 0x5B8 PUSH2 0x986 JUMP JUMPDEST JUMPDEST SWAP1 PUSH0 MSTORE PUSH1 0x20 PUSH0 KECCAK256 ADD PUSH0 SWAP1 SLOAD SWAP1 PUSH2 0x100 EXP SWAP1 DIV PUSH20 0xFFFFFFFFFFFFFFFFFFFFFFFFFFFFFFFFFFFFFFFF AND PUSH20 0xFFFFFFFFFFFFFFFFFFFFFFFFFFFFFFFFFFFFFFFF AND PUSH20 0xFFFFFFFFFFFFFFFFFFFFFFFFFFFFFFFFFFFFFFFF AND DUP2 MSTORE PUSH1 0x20 ADD SWAP1 DUP2 MSTORE PUSH1 0x20 ADD PUSH0 KECCAK256 SLOAD SWAP1 POP PUSH0 PUSH1 0x4 PUSH0 DUP2 SLOAD DUP2 LT PUSH2 0x632 JUMPI PUSH2 0x631 PUSH2 0x986 JUMP JUMPDEST JUMPDEST SWAP1 PUSH0 MSTORE PUSH1 0x20 PUSH0 KECCAK256 ADD PUSH0 SWAP1 SLOAD SWAP1 PUSH2 0x100 EXP SWAP1 DIV PUSH20 0xFFFFFFFFFFFFFFFFFFFFFFFFFFFFFFFFFFFFFFFF AND SWAP1 POP PUSH0 PUSH1 0x4 PUSH1 0x1 DUP2 SLOAD DUP2 LT PUSH2 0x672 JUMPI PUSH2 0x671 PUSH2 0x986 JUMP JUMPDEST JUMPDEST SWAP1 PUSH0 MSTORE PUSH1 0x20 PUSH0 KECCAK256 ADD PUSH0 SWAP1 SLOAD SWAP1 PUSH2 0x100 EXP SWAP1 DIV PUSH20 0xFFFFFFFFFFFFFFFFFFFFFFFFFFFFFFFFFFFFFFFF AND SWAP1 POP DUP3 PUSH1 0x3 PUSH1 0x1 DUP7 PUSH2 0x6AC SWAP2 SWAP1 PUSH2 0x9E0 JUMP JUMPDEST PUSH2 0x6B6 SWAP2 SWAP1 PUSH2 0xA87 JUMP JUMPDEST SUB PUSH2 0x706 JUMPI DUP1 PUSH20 0xFFFFFFFFFFFFFFFFFFFFFFFFFFFFFFFFFFFFFFFF AND PUSH2 0x8FC PUSH1 0x1 SLOAD SWAP1 DUP2 ISZERO MUL SWAP1 PUSH1 0x40 MLOAD PUSH0 PUSH1 0x40 MLOAD DUP1 DUP4 SUB DUP2 DUP6 DUP9 DUP9 CALL SWAP4 POP POP POP POP ISZERO DUP1 ISZERO PUSH2 0x700 JUMPI RETURNDATASIZE PUSH0 DUP1 RETURNDATACOPY RETURNDATASIZE PUSH0 REVERT JUMPDEST POP PUSH2 0x816 JUMP JUMPDEST DUP4 PUSH1 0x3 PUSH1 0x1 DUP6 PUSH2 0x716 SWAP2 SWAP1 PUSH2 0x9E0 JUMP JUMPDEST PUSH2 0x720 SWAP2 SWAP1 PUSH2 0xA87 JUMP JUMPDEST SUB PUSH2 0x770 JUMPI DUP2 PUSH20 0xFFFFFFFFFFFFFFFFFFFFFFFFFFFFFFFFFFFFFFFF AND PUSH2 0x8FC PUSH1 0x1 SLOAD SWAP1 DUP2 ISZERO MUL SWAP1 PUSH1 0x40 MLOAD PUSH0 PUSH1 0x40 MLOAD DUP1 DUP4 SUB DUP2 DUP6 DUP9 DUP9 CALL SWAP4 POP POP POP POP ISZERO DUP1 ISZERO PUSH2 0x76A JUMPI RETURNDATASIZE PUSH0 DUP1 RETURNDATACOPY RETURNDATASIZE PUSH0 REVERT JUMPDEST POP PUSH2 0x815 JUMP JUMPDEST DUP2 PUSH20 0xFFFFFFFFFFFFFFFFFFFFFFFFFFFFFFFFFFFFFFFF AND PUSH2 0x8FC PUSH1 0x2 PUSH1 0x1 SLOAD PUSH2 0x799 SWAP2 SWAP1 PUSH2 0xAB7 JUMP JUMPDEST SWAP1 DUP2 ISZERO MUL SWAP1 PUSH1 0x40 MLOAD PUSH0 PUSH1 0x40 MLOAD DUP1 DUP4 SUB DUP2 DUP6 DUP9 DUP9 CALL SWAP4 POP POP POP POP ISZERO DUP1 ISZERO PUSH2 0x7C1 JUMPI RETURNDATASIZE PUSH0 DUP1 RETURNDATACOPY RETURNDATASIZE PUSH0 REVERT JUMPDEST POP DUP1 PUSH20 0xFFFFFFFFFFFFFFFFFFFFFFFFFFFFFFFFFFFFFFFF AND PUSH2 0x8FC PUSH1 0x2 PUSH1 0x1 SLOAD PUSH2 0x7EB SWAP2 SWAP1 PUSH2 0xAB7 JUMP JUMPDEST SWAP1 DUP2 ISZERO MUL SWAP1 PUSH1 0x40 MLOAD PUSH0 PUSH1 0x40 MLOAD DUP1 DUP4 SUB DUP2 DUP6 DUP9 DUP9 CALL SWAP4 POP POP POP POP ISZERO DUP1 ISZERO PUSH2 0x813 JUMPI RETURNDATASIZE PUSH0 DUP1 RETURNDATACOPY RETURNDATASIZE PUSH0 REVERT JUMPDEST POP JUMPDEST JUMPDEST POP POP POP POP JUMP JUMPDEST PUSH0 DUP2 SWAP1 POP SWAP2 SWAP1 POP JUMP JUMPDEST PUSH2 0x82E DUP2 PUSH2 0x81C JUMP JUMPDEST DUP3 MSTORE POP POP JUMP JUMPDEST PUSH0 PUSH1 0x20 DUP3 ADD SWAP1 POP PUSH2 0x847 PUSH0 DUP4 ADD DUP5 PUSH2 0x825 JUMP JUMPDEST SWAP3 SWAP2 POP POP JUMP JUMPDEST PUSH0 DUP1 REVERT JUMPDEST PUSH0 PUSH20 0xFFFFFFFFFFFFFFFFFFFFFFFFFFFFFFFFFFFFFFFF DUP3 AND SWAP1 POP SWAP2 SWAP1 POP JUMP JUMPDEST PUSH0 PUSH2 0x87A DUP3 PUSH2 0x851 JUMP JUMPDEST SWAP1 POP SWAP2 SWAP1 POP JUMP JUMPDEST PUSH2 0x88A DUP2 PUSH2 0x870 JUMP JUMPDEST DUP2 EQ PUSH2 0x894 JUMPI PUSH0 DUP1 REVERT JUMPDEST POP JUMP JUMPDEST PUSH0 DUP2 CALLDATALOAD SWAP1 POP PUSH2 0x8A5 DUP2 PUSH2 0x881 JUMP JUMPDEST SWAP3 SWAP2 POP POP JUMP JUMPDEST PUSH0 PUSH1 0x20 DUP3 DUP5 SUB SLT ISZERO PUSH2 0x8C0 JUMPI PUSH2 0x8BF PUSH2 0x84D JUMP JUMPDEST JUMPDEST PUSH0 PUSH2 0x8CD DUP5 DUP3 DUP6 ADD PUSH2 0x897 JUMP JUMPDEST SWAP2 POP POP SWAP3 SWAP2 POP POP JUMP JUMPDEST PUSH0 DUP2 ISZERO ISZERO SWAP1 POP SWAP2 SWAP1 POP JUMP JUMPDEST PUSH2 0x8EA DUP2 PUSH2 0x8D6 JUMP JUMPDEST DUP3 MSTORE POP POP JUMP JUMPDEST PUSH0 PUSH1 0x20 DUP3 ADD SWAP1 POP PUSH2 0x903 PUSH0 DUP4 ADD DUP5 PUSH2 0x8E1 JUMP JUMPDEST SWAP3 SWAP2 POP POP JUMP JUMPDEST PUSH2 0x912 DUP2 PUSH2 0x81C JUMP JUMPDEST DUP2 EQ PUSH2 0x91C JUMPI PUSH0 DUP1 REVERT JUMPDEST POP JUMP JUMPDEST PUSH0 DUP2 CALLDATALOAD SWAP1 POP PUSH2 0x92D DUP2 PUSH2 0x909 JUMP JUMPDEST SWAP3 SWAP2 POP POP JUMP JUMPDEST PUSH0 PUSH1 0x20 DUP3 DUP5 SUB SLT ISZERO PUSH2 0x948 JUMPI PUSH2 0x947 PUSH2 0x84D JUMP JUMPDEST JUMPDEST PUSH0 PUSH2 0x955 DUP5 DUP3 DUP6 ADD PUSH2 0x91F JUMP JUMPDEST SWAP2 POP POP SWAP3 SWAP2 POP POP JUMP JUMPDEST PUSH2 0x967 DUP2 PUSH2 0x870 JUMP JUMPDEST DUP3 MSTORE POP POP JUMP JUMPDEST PUSH0 PUSH1 0x20 DUP3 ADD SWAP1 POP PUSH2 0x980 PUSH0 DUP4 ADD DUP5 PUSH2 0x95E JUMP JUMPDEST SWAP3 SWAP2 POP POP JUMP JUMPDEST PUSH32 0x4E487B7100000000000000000000000000000000000000000000000000000000 PUSH0 MSTORE PUSH1 0x32 PUSH1 0x4 MSTORE PUSH1 0x24 PUSH0 REVERT JUMPDEST PUSH32 0x4E487B7100000000000000000000000000000000000000000000000000000000 PUSH0 MSTORE PUSH1 0x11 PUSH1 0x4 MSTORE PUSH1 0x24 PUSH0 REVERT JUMPDEST PUSH0 PUSH2 0x9EA DUP3 PUSH2 0x81C JUMP JUMPDEST SWAP2 POP PUSH2 0x9F5 DUP4 PUSH2 0x81C JUMP JUMPDEST SWAP3 POP DUP3 DUP3 ADD SWAP1 POP DUP1 DUP3 GT ISZERO PUSH2 0xA0D JUMPI PUSH2 0xA0C PUSH2 0x9B3 JUMP JUMPDEST JUMPDEST SWAP3 SWAP2 POP POP JUMP JUMPDEST PUSH0 PUSH2 0xA1D DUP3 PUSH2 0x81C JUMP JUMPDEST SWAP2 POP PUSH32 0xFFFFFFFFFFFFFFFFFFFFFFFFFFFFFFFFFFFFFFFFFFFFFFFFFFFFFFFFFFFFFFFF DUP3 SUB PUSH2 0xA4F JUMPI PUSH2 0xA4E PUSH2 0x9B3 JUMP JUMPDEST JUMPDEST PUSH1 0x1 DUP3 ADD SWAP1 POP SWAP2 SWAP1 POP JUMP JUMPDEST PUSH32 0x4E487B7100000000000000000000000000000000000000000000000000000000 PUSH0 MSTORE PUSH1 0x12 PUSH1 0x4 MSTORE PUSH1 0x24 PUSH0 REVERT JUMPDEST PUSH0 PUSH2 0xA91 DUP3 PUSH2 0x81C JUMP JUMPDEST SWAP2 POP PUSH2 0xA9C DUP4 PUSH2 0x81C JUMP JUMPDEST SWAP3 POP DUP3 PUSH2 0xAAC JUMPI PUSH2 0xAAB PUSH2 0xA5A JUMP JUMPDEST JUMPDEST DUP3 DUP3 MOD SWAP1 POP SWAP3 SWAP2 POP POP JUMP JUMPDEST PUSH0 PUSH2 0xAC1 DUP3 PUSH2 0x81C JUMP JUMPDEST SWAP2 POP PUSH2 0xACC DUP4 PUSH2 0x81C JUMP JUMPDEST SWAP3 POP DUP3 PUSH2 0xADC JUMPI PUSH2 0xADB PUSH2 0xA5A JUMP JUMPDEST JUMPDEST DUP3 DUP3 DIV SWAP1 POP SWAP3 SWAP2 POP POP JUMP INVALID LOG2 PUSH5 0x6970667358 0x22 SLT KECCAK256 0x26 0xCE 0xBE 0xDB SWAP7 DELEGATECALL 0xD2 SDIV PUSH13 0x3BCDE0F5212CB01550ED49FD59 SWAP7 0xC7 LOG3 SWAP6 0xE1 PUSH21 0x3DCA5F7A64736F6C634300081A0033000000000000 "
				},
				"gasEstimates": {
					"creation": {
						"codeDepositCost": "569000",
						"executionCost": "15613",
						"totalCost": "584613"
					},
					"external": {
						"addPlayer()": "infinite",
						"input(uint256)": "infinite",
						"numInput()": "2426",
						"numPlayer()": "2424",
						"player_choice(address)": "2824",
						"player_not_played(address)": "2856",
						"players(uint256)": "5010",
						"reward()": "2470"
					},
					"internal": {
						"_checkWinnerAndPay()": "infinite"
					}
				},
				"methodIdentifiers": {
					"addPlayer()": "27b5db8a",
					"input(uint256)": "ce6e1c4e",
					"numInput()": "086f7815",
					"numPlayer()": "90d5d0c3",
					"player_choice(address)": "a040478d",
					"player_not_played(address)": "190cf745",
					"players(uint256)": "f71d96cb",
					"reward()": "228cb733"
				}
			},
			"storageLayout": {
				"storage": [
					{
						"astId": 4,
						"contract": "test.sol:RPS",
						"label": "numPlayer",
						"offset": 0,
						"slot": "0",
						"type": "t_uint256"
					},
					{
						"astId": 7,
						"contract": "test.sol:RPS",
						"label": "reward",
						"offset": 0,
						"slot": "1",
						"type": "t_uint256"
					},
					{
						"astId": 11,
						"contract": "test.sol:RPS",
						"label": "player_choice",
						"offset": 0,
						"slot": "2",
						"type": "t_mapping(t_address,t_uint256)"
					},
					{
						"astId": 15,
						"contract": "test.sol:RPS",
						"label": "player_not_played",
						"offset": 0,
						"slot": "3",
						"type": "t_mapping(t_address,t_bool)"
					},
					{
						"astId": 18,
						"contract": "test.sol:RPS",
						"label": "players",
						"offset": 0,
						"slot": "4",
						"type": "t_array(t_address)dyn_storage"
					},
					{
						"astId": 21,
						"contract": "test.sol:RPS",
						"label": "numInput",
						"offset": 0,
						"slot": "5",
						"type": "t_uint256"
					}
				],
				"types": {
					"t_address": {
						"encoding": "inplace",
						"label": "address",
						"numberOfBytes": "20"
					},
					"t_array(t_address)dyn_storage": {
						"base": "t_address",
						"encoding": "dynamic_array",
						"label": "address[]",
						"numberOfBytes": "32"
					},
					"t_bool": {
						"encoding": "inplace",
						"label": "bool",
						"numberOfBytes": "1"
					},
					"t_mapping(t_address,t_bool)": {
						"encoding": "mapping",
						"key": "t_address",
						"label": "mapping(address => bool)",
						"numberOfBytes": "32",
						"value": "t_bool"
					},
					"t_mapping(t_address,t_uint256)": {
						"encoding": "mapping",
						"key": "t_address",
						"label": "mapping(address => uint256)",
						"numberOfBytes": "32",
						"value": "t_uint256"
					},
					"t_uint256": {
						"encoding": "inplace",
						"label": "uint256",
						"numberOfBytes": "32"
					}
				}
			},
			"userdoc": {
				"kind": "user",
				"methods": {},
				"version": 1
			}
		}
	}
}